{"contracts/ClimateAlertStaking.sol":{"ClimateAlertStaking":{"abi":[{"inputs":[{"internalType":"address","name":"_kaiToken","type":"address"},{"internalType":"address","name":"admin","type":"address"},{"internalType":"address","name":"oracle","type":"address"}],"stateMutability":"nonpayable","type":"constructor"},{"inputs":[],"name":"AccessControlBadConfirmation","type":"error"},{"inputs":[{"internalType":"address","name":"account","type":"address"},{"internalType":"bytes32","name":"neededRole","type":"bytes32"}],"name":"AccessControlUnauthorizedAccount","type":"error"},{"inputs":[],"name":"EnforcedPause","type":"error"},{"inputs":[],"name":"ExpectedPause","type":"error"},{"inputs":[],"name":"ReentrancyGuardReentrantCall","type":"error"},{"anonymous":false,"inputs":[{"indexed":true,"internalType":"uint256","name":"alertId","type":"uint256"},{"indexed":false,"internalType":"uint8","name":"alertType","type":"uint8"},{"indexed":false,"internalType":"string","name":"region","type":"string"},{"indexed":false,"internalType":"uint256","name":"recipientCount","type":"uint256"},{"indexed":false,"internalType":"uint256","name":"totalBurned","type":"uint256"}],"name":"AlertSent","type":"event"},{"anonymous":false,"inputs":[{"indexed":true,"internalType":"address","name":"user","type":"address"},{"indexed":false,"internalType":"uint256","name":"amount","type":"uint256"},{"indexed":false,"internalType":"uint256","name":"alertId","type":"uint256"}],"name":"BurnExecuted","type":"event"},{"anonymous":false,"inputs":[{"indexed":false,"internalType":"address","name":"account","type":"address"}],"name":"Paused","type":"event"},{"anonymous":false,"inputs":[{"indexed":true,"internalType":"bytes32","name":"role","type":"bytes32"},{"indexed":true,"internalType":"bytes32","name":"previousAdminRole","type":"bytes32"},{"indexed":true,"internalType":"bytes32","name":"newAdminRole","type":"bytes32"}],"name":"RoleAdminChanged","type":"event"},{"anonymous":false,"inputs":[{"indexed":true,"internalType":"bytes32","name":"role","type":"bytes32"},{"indexed":true,"internalType":"address","name":"account","type":"address"},{"indexed":true,"internalType":"address","name":"sender","type":"address"}],"name":"RoleGranted","type":"event"},{"anonymous":false,"inputs":[{"indexed":true,"internalType":"bytes32","name":"role","type":"bytes32"},{"indexed":true,"internalType":"address","name":"account","type":"address"},{"indexed":true,"internalType":"address","name":"sender","type":"address"}],"name":"RoleRevoked","type":"event"},{"anonymous":false,"inputs":[{"indexed":true,"internalType":"address","name":"user","type":"address"},{"indexed":false,"internalType":"uint256","name":"amount","type":"uint256"},{"indexed":false,"internalType":"uint256","name":"timestamp","type":"uint256"}],"name":"Staked","type":"event"},{"anonymous":false,"inputs":[{"indexed":false,"internalType":"address","name":"account","type":"address"}],"name":"Unpaused","type":"event"},{"anonymous":false,"inputs":[{"indexed":true,"internalType":"address","name":"user","type":"address"},{"indexed":false,"internalType":"uint256","name":"amount","type":"uint256"},{"indexed":false,"internalType":"uint256","name":"timestamp","type":"uint256"}],"name":"Unstaked","type":"event"},{"inputs":[],"name":"ADMIN_ROLE","outputs":[{"internalType":"bytes32","name":"","type":"bytes32"}],"stateMutability":"view","type":"function"},{"inputs":[],"name":"ALERT_BURN_RATE","outputs":[{"internalType":"uint256","name":"","type":"uint256"}],"stateMutability":"view","type":"function"},{"inputs":[],"name":"DEFAULT_ADMIN_ROLE","outputs":[{"internalType":"bytes32","name":"","type":"bytes32"}],"stateMutability":"view","type":"function"},{"inputs":[],"name":"MIN_STAKE","outputs":[{"internalType":"uint256","name":"","type":"uint256"}],"stateMutability":"view","type":"function"},{"inputs":[],"name":"ORACLE_ROLE","outputs":[{"internalType":"bytes32","name":"","type":"bytes32"}],"stateMutability":"view","type":"function"},{"inputs":[],"name":"alertCount","outputs":[{"internalType":"uint256","name":"","type":"uint256"}],"stateMutability":"view","type":"function"},{"inputs":[{"internalType":"uint256","name":"","type":"uint256"}],"name":"alerts","outputs":[{"internalType":"uint8","name":"alertType","type":"uint8"},{"internalType":"uint256","name":"timestamp","type":"uint256"},{"internalType":"string","name":"region","type":"string"},{"internalType":"uint256","name":"recipientCount","type":"uint256"}],"stateMutability":"view","type":"function"},{"inputs":[{"internalType":"address","name":"user","type":"address"},{"internalType":"uint256","name":"amount","type":"uint256"}],"name":"checkAllowance","outputs":[{"internalType":"bool","name":"hasAllowance","type":"bool"},{"internalType":"uint256","name":"currentAllowance","type":"uint256"},{"internalType":"uint256","name":"required","type":"uint256"}],"stateMutability":"view","type":"function"},{"inputs":[],"name":"getPlatformStats","outputs":[{"internalType":"uint256","name":"_totalStaked","type":"uint256"},{"internalType":"uint256","name":"_totalUsers","type":"uint256"},{"internalType":"uint256","name":"_totalAlertsSent","type":"uint256"},{"internalType":"uint256","name":"_alertCount","type":"uint256"}],"stateMutability":"view","type":"function"},{"inputs":[{"internalType":"bytes32","name":"role","type":"bytes32"}],"name":"getRoleAdmin","outputs":[{"internalType":"bytes32","name":"","type":"bytes32"}],"stateMutability":"view","type":"function"},{"inputs":[{"internalType":"address","name":"user","type":"address"}],"name":"getStake","outputs":[{"internalType":"uint256","name":"amount","type":"uint256"},{"internalType":"uint256","name":"stakedAt","type":"uint256"},{"internalType":"uint256","name":"alertsReceived","type":"uint256"},{"internalType":"uint256","name":"totalBurned","type":"uint256"},{"internalType":"bool","name":"active","type":"bool"}],"stateMutability":"view","type":"function"},{"inputs":[{"internalType":"bytes32","name":"role","type":"bytes32"},{"internalType":"address","name":"account","type":"address"}],"name":"grantRole","outputs":[],"stateMutability":"nonpayable","type":"function"},{"inputs":[{"internalType":"bytes32","name":"role","type":"bytes32"},{"internalType":"address","name":"account","type":"address"}],"name":"hasRole","outputs":[{"internalType":"bool","name":"","type":"bool"}],"stateMutability":"view","type":"function"},{"inputs":[],"name":"kaiToken","outputs":[{"internalType":"contract KAIToken","name":"","type":"address"}],"stateMutability":"view","type":"function"},{"inputs":[],"name":"pause","outputs":[],"stateMutability":"nonpayable","type":"function"},{"inputs":[],"name":"paused","outputs":[{"internalType":"bool","name":"","type":"bool"}],"stateMutability":"view","type":"function"},{"inputs":[{"internalType":"bytes32","name":"role","type":"bytes32"},{"internalType":"address","name":"callerConfirmation","type":"address"}],"name":"renounceRole","outputs":[],"stateMutability":"nonpayable","type":"function"},{"inputs":[{"internalType":"bytes32","name":"role","type":"bytes32"},{"internalType":"address","name":"account","type":"address"}],"name":"revokeRole","outputs":[],"stateMutability":"nonpayable","type":"function"},{"inputs":[{"internalType":"uint8","name":"alertType","type":"uint8"},{"internalType":"string","name":"region","type":"string"},{"internalType":"address[]","name":"recipients","type":"address[]"}],"name":"sendAlert","outputs":[],"stateMutability":"nonpayable","type":"function"},{"inputs":[{"internalType":"uint256","name":"amount","type":"uint256"}],"name":"stake","outputs":[],"stateMutability":"nonpayable","type":"function"},{"inputs":[{"internalType":"address","name":"","type":"address"}],"name":"stakes","outputs":[{"internalType":"uint256","name":"amount","type":"uint256"},{"internalType":"uint256","name":"stakedAt","type":"uint256"},{"internalType":"uint256","name":"alertsReceived","type":"uint256"},{"internalType":"uint256","name":"totalBurned","type":"uint256"},{"internalType":"bool","name":"active","type":"bool"}],"stateMutability":"view","type":"function"},{"inputs":[{"internalType":"bytes4","name":"interfaceId","type":"bytes4"}],"name":"supportsInterface","outputs":[{"internalType":"bool","name":"","type":"bool"}],"stateMutability":"view","type":"function"},{"inputs":[],"name":"totalAlertsSent","outputs":[{"internalType":"uint256","name":"","type":"uint256"}],"stateMutability":"view","type":"function"},{"inputs":[],"name":"totalStaked","outputs":[{"internalType":"uint256","name":"","type":"uint256"}],"stateMutability":"view","type":"function"},{"inputs":[],"name":"totalUsers","outputs":[{"internalType":"uint256","name":"","type":"uint256"}],"stateMutability":"view","type":"function"},{"inputs":[],"name":"unpause","outputs":[],"stateMutability":"nonpayable","type":"function"},{"inputs":[],"name":"unstake","outputs":[],"stateMutability":"nonpayable","type":"function"}],"evm":{"bytecode":{"linkReferences":{},"object":"60a034620001be57601f62001b7238819003918201601f191683019291906001600160401b03841183851017620001c3578160609284926040968752833981010312620001be576200005181620001d9565b906200006d836200006560208401620001d9565b9201620001d9565b6001600055916001600160a01b039081169081156200017a57808316156200013657831615620000f257620000be9291620000b791608052620000b081620001ee565b506200026f565b5062000312565b50516117a19081620003b18239608051818181610274015281816105aa01528181610bde01528181610f7401526111030152f35b835162461bcd60e51b815260206004820152601c60248201527f436c696d6174655374616b653a20696e76616c6964206f7261636c65000000006044820152606490fd5b845162461bcd60e51b815260206004820152601b60248201527f436c696d6174655374616b653a20696e76616c69642061646d696e00000000006044820152606490fd5b845162461bcd60e51b815260206004820152601b60248201527f436c696d6174655374616b653a20696e76616c696420746f6b656e00000000006044820152606490fd5b600080fd5b634e487b7160e01b600052604160045260246000fd5b51906001600160a01b0382168203620001be57565b6001600160a01b031660008181527fa6eef7e35abe7026729641147f7915573c7e97b47efa546f5f6e3230263bcb49602052604081205490919060ff166200026b5781805260016020526040822081835260205260408220600160ff19825416179055339160008051602062001b528339815191528180a4600190565b5090565b6001600160a01b031660008181527f50efbde2d46c37e9785f1791697f77e94bb7b701e19f1930a668820722d3769460205260408120549091907fa49807205ce4d355092ef5a8a18f56e8913cf4a201fbe287825b095693c217759060ff166200030d5780835260016020526040832082845260205260408320600160ff1982541617905560008051602062001b52833981519152339380a4600190565b505090565b6001600160a01b031660008181527ff7c11a6d0ec535894a90c88b42cba2ccb348cb15b5e3ad22a710d1d4ac63281960205260408120549091907f68e79a7bf1e0bc45d0a330c573bc367f9cf464fd326078812f301165fbda4ef19060ff166200030d5780835260016020526040832082845260205260408320600160ff1982541617905560008051602062001b52833981519152339380a460019056fe608080604052600436101561001357600080fd5b60003560e01c90816301ffc9a71461141e5750806307e2cea5146113e3578063136d8883146113ac57806316934fc414611331578063171d073a146111f0578063248a9ca3146111c15780632def6620146110815780632f2ff15d1461104257806336568abe14610ffb5780633daba0d714610f1a5780633f4ba83a14610eb05780635c975abb14610e8d5780636e05afd7146107aa57806375b238fc1461076f5780637a7664601461069e578063817b1cd2146106805780638456cb591461062657806391d14854146105d95780639bcfdfc014610594578063a217fddf14610578578063a694fc3a14610229578063ab4464911461020b578063bff1f9e1146101ed578063cb1c2b5c146101c9578063d547741f14610188578063ecb334ab1461016a5763f3a14a8a1461014857600080fd5b346101655760003660031901126101655760206040516103e88152f35b600080fd5b34610165576000366003190112610165576020600554604051908152f35b34610165576040366003190112610165576101c76004356101a7611487565b908060005260016020526101c2600160406000200154611573565b611619565b005b3461016557600036600319011261016557602060405168056bc75e2d631000008152f35b34610165576000366003190112610165576020600654604051908152f35b34610165576000366003190112610165576020600854604051908152f35b3461016557602080600319360112610165576004359061024761172e565b61024f611710565b68056bc75e2d631000008210610534576040516370a0823160e01b81523360048201527f00000000000000000000000000000000000000000000000000000000000000006001600160a01b0316908281602481855afa801561040b578491600091610503575b50106104b357604051636eb1769f60e11b81523360048201523060248201528281604481855afa801561040b578491600091610482575b501061041757816000916064604051809481936323b872dd60e01b83523360048401523060248401528860448401525af1801561040b57610335916000916103de575b506116a8565b3360005260038152604060002054156103cb575b33600052600381526040600020610361838254611703565b905533600052600381526004604060002042600182015501600160ff1982541617905561039082600454611703565b60045560405191825242908201527f1449c6dd7851abc30abf37f57715f492010519147cc2652fbc38202c18a6ee9060403392a26001600055005b6103d66006546116f4565b600655610349565b6103fe9150833d8511610404575b6103f681836114d7565b810190611690565b8461032f565b503d6103ec565b6040513d6000823e3d90fd5b60405162461bcd60e51b815260048101839052603a60248201527f436c696d6174655374616b653a20696e73756666696369656e7420616c6c6f7760448201527f616e63652e2043616c6c20617070726f766528292066697273740000000000006064820152608490fd5b809250848092503d83116104ac575b61049b81836114d7565b8101031261016557839051856102ec565b503d610491565b60405162461bcd60e51b815260048101839052602260248201527f436c696d6174655374616b653a20696e73756666696369656e742062616c616e604482015261636560f01b6064820152608490fd5b809250848092503d831161052d575b61051c81836114d7565b8101031261016557839051856102b5565b503d610512565b6064906040519062461bcd60e51b82526004820152601b60248201527f436c696d6174655374616b653a2062656c6f77206d696e696d756d00000000006044820152fd5b3461016557600036600319011261016557602060405160008152f35b34610165576000366003190112610165576040517f00000000000000000000000000000000000000000000000000000000000000006001600160a01b03168152602090f35b34610165576040366003190112610165576105f2611487565b600435600052600160205260406000209060018060a01b0316600052602052602060ff604060002054166040519015158152f35b346101655760003660031901126101655761063f6114f9565b610647611710565b600160ff1960025416176002557f62e78cea01bee320cd4e420270b5ea74000d11b0c9f74754ebdbfc544b05a2586020604051338152a1005b34610165576000366003190112610165576020600454604051908152f35b34610165576020366003190112610165576001600160a01b036106bf611471565b16600052600360205260406000206040519060a0820182811067ffffffffffffffff82111761075957604052610755608082549283855260018101549485602082015260028201549081604082015260ff6004600385015494856060850152015416151593849101526040519586958693909594919260809360a086019786526020860152604085015260608401521515910152565b0390f35b634e487b7160e01b600052604160045260246000fd5b346101655760003660031901126101655760206040517fa49807205ce4d355092ef5a8a18f56e8913cf4a201fbe287825b095693c217758152f35b346101655760603660031901126101655760043560ff811681036101655767ffffffffffffffff60243511610165573660236024350112156101655767ffffffffffffffff60243560040135116101655736602480356004013581350101116101655767ffffffffffffffff60443511610165573660236044350112156101655767ffffffffffffffff6044356004013511610165573660246044356004013560051b604435010111610165573360009081527ff7c11a6d0ec535894a90c88b42cba2ccb348cb15b5e3ad22a710d1d4ac632819602052604090205460ff1615610e4f57610896611710565b600160ff8216101580610e41575b15610dfc576044356004013515610db75760009060009060005b604435600401358110610b5e575060405180608081011067ffffffffffffffff608083011117610759576080810160405260ff82168152426020820152604051906109196020601f19601f60243560040135011601836114d7565b6024803560048101358085529101602084013760006020602435600401358401015260408101918252836060820152600854600052600760205260406000209160ff82511660ff19845416178355602082015160018401555180519067ffffffffffffffff821161075957610991600285015461149d565b601f8111610b17575b50602090601f8311600114610aa357918060039492606094600092610a98575b50508160011b9160001990861b1c19161760028501555b01519101556109e282600554611703565b6005556109f06008546116f4565b92836008556000198401938411610a82577fa23ea32330368114b86786298ce9d2afa75c11e1ce45365e0fd7a10b5c2c18ef9260ff604051931683526080602084015260243560040135608084015260243560040135602480350160a0850137600060a060243560040135850101526040830152606082015260a081601f19601f6024356004013501168101030190a2005b634e487b7160e01b600052601160045260246000fd5b0151905089806109ba565b906002850160005260206000209160005b601f1985168110610aff5750926003949260019260609583601f19811610610ae7575b505050811b0160028501556109d1565b015160001983881b60f8161c19169055898080610ad7565b91926020600181928685015181550194019201610ab4565b600285016000526020600020601f840160051c810160208510610b57575b601f830160051c82018110610b4b57505061099a565b60008155600101610b35565b5080610b35565b604435600582901b01602401356001600160a01b0381168103610165576001600160a01b0381166000908152600360205260409020600481015460ff1680610dad575b610bb6575b5050610bb1906116f4565b6108be565b80959291949554926103e893848102948186041481151715610a8257612710850411610d69577f00000000000000000000000000000000000000000000000000000000000000006001600160a01b0316803b15610165576000809160a4604051809481936316ff1ff760e01b83526127108b0460048401526006602484015260606044840152601760648401527f436c696d61746520616c6572742074726967676572656400000000000000000060848401525af1801561040b57610d44575b5068056bc75e2d6310000090847f6be02ea772919d89a04060dea29d8344f266e9dec27843a643fa74dd8239131c6040610cf8610cf2610cbe612710610bb19b048954611751565b9586895560028901610cd081546116f4565b905560038901610ce561271088048254611703565b9055612710860490611703565b9b6116f4565b600854825161271090950485526020850152996001600160a01b031692a210610d24575b819250610ba6565b600401805460ff19169055600654610d3b9061175e565b60065585610d1c565b9067ffffffffffffffff82116107595760409190915268056bc75e2d63100000610c76565b606460405162461bcd60e51b815260206004820152602060248201527f436c696d6174655374616b653a206275726e2065786365656473207374616b656044820152fd5b5080541515610ba1565b60405162461bcd60e51b815260206004820152601b60248201527f436c696d6174655374616b653a206e6f20726563697069656e747300000000006044820152606490fd5b60405162461bcd60e51b815260206004820152601a60248201527f436c696d6174655374616b653a20696e76616c696420747970650000000000006044820152606490fd5b50600a60ff821611156108a4565b60405163e2517d3f60e01b81523360048201527f68e79a7bf1e0bc45d0a330c573bc367f9cf464fd326078812f301165fbda4ef16024820152604490fd5b3461016557600036600319011261016557602060ff600254166040519015158152f35b3461016557600036600319011261016557610ec96114f9565b60025460ff811615610f085760ff19166002557f5db9ee0a495bf2e6ff9c91a7834c1ba4fdd244a5e8aa4e537bd38aeae4b073aa6020604051338152a1005b604051638dfc202b60e01b8152600490fd5b3461016557604036600319011261016557610f70610f36611471565b604051636eb1769f60e11b81526001600160a01b039091166004820152306024828101919091529091903590602090839081906044820190565b03817f00000000000000000000000000000000000000000000000000000000000000006001600160a01b03165afa90811561040b57600091610fc7575b606092506040519181811015835260208301526040820152f35b90506020823d8211610ff3575b81610fe1602093836114d7565b81010312610165576060915190610fad565b3d9150610fd4565b3461016557604036600319011261016557611014611487565b336001600160a01b03821603611030576101c790600435611619565b60405163334bd91960e11b8152600490fd5b34610165576040366003190112610165576101c7600435611061611487565b9080600052600160205261107c600160406000200154611573565b611599565b346101655760003660031901126101655761109a61172e565b33600052602060038152604060002090815491821561117c57806000600492550160ff1981541690556110cf82600454611751565b6004556110dd60065461175e565b60065560405163a9059cbb60e01b815233600482015260248101839052818160448160007f00000000000000000000000000000000000000000000000000000000000000006001600160a01b03165af1801561040b57611144916000916103de57506116a8565b60405191825242908201527f7fc4727e062e336010f2c282598ef5f14facb3de68cf8195c2f23e1454b2b74e60403392a26001600055005b60405162461bcd60e51b815260048101839052601c60248201527f436c696d6174655374616b653a206e6f207374616b6520666f756e64000000006044820152606490fd5b346101655760203660031901126101655760043560005260016020526020600160406000200154604051908152f35b3461016557602080600319360112610165576004356000526007815260406000209060ff825416916001918282015491600281016040519485916000918154916112398361149d565b9283865287838216918260001461130b5750506001146112c9575b505050600392916112699197959703866114d7565b01546040519485938452828401526080604084015283519182608085015260005b8381106112b257505060a0935060008483850101526060830152601f80199101168101030190f35b80860182015187820160a00152869450810161128a565b86935060009291925282600020916000925b8284106112f357505050820101816112696003611254565b8054848b0186015289955087949093019281016112db565b60ff19168782015293151560051b86019093019350849250611269915060039050611254565b34610165576020366003190112610165576001600160a01b03611352611471565b1660005260036020526040600020805461075560018301549260028101549060ff6004600383015492015416916040519586958693909594919260809360a086019786526020860152604085015260608401521515910152565b3461016557600036600319011261016557608060045460065460055460085491604051938452602084015260408301526060820152f35b346101655760003660031901126101655760206040517f68e79a7bf1e0bc45d0a330c573bc367f9cf464fd326078812f301165fbda4ef18152f35b34610165576020366003190112610165576004359063ffffffff60e01b821680920361016557602091637965db0b60e01b8114908115611460575b5015158152f35b6301ffc9a760e01b14905083611459565b600435906001600160a01b038216820361016557565b602435906001600160a01b038216820361016557565b90600182811c921680156114cd575b60208310146114b757565b634e487b7160e01b600052602260045260246000fd5b91607f16916114ac565b90601f8019910116810190811067ffffffffffffffff82111761075957604052565b3360009081527f50efbde2d46c37e9785f1791697f77e94bb7b701e19f1930a668820722d3769460205260409020547fa49807205ce4d355092ef5a8a18f56e8913cf4a201fbe287825b095693c217759060ff16156115555750565b6044906040519063e2517d3f60e01b82523360048301526024820152fd5b80600052600160205260406000203360005260205260ff60406000205416156115555750565b906000918083526001602052604083209160018060a01b03169182845260205260ff604084205416156000146116145780835260016020526040832082845260205260408320600160ff198254161790557f2f8788117e7eff1d82e926ec794901d17c78024a50270940304540a733656f0d339380a4600190565b505090565b906000918083526001602052604083209160018060a01b03169182845260205260ff604084205416600014611614578083526001602052604083208284526020526040832060ff1981541690557ff6391f5c32d9c69d2a47ea670b442974b53935d1edc7fd64eb21e047a839171b339380a4600190565b90816020910312610165575180151581036101655790565b156116af57565b60405162461bcd60e51b815260206004820152601d60248201527f436c696d6174655374616b653a207472616e73666572206661696c65640000006044820152606490fd5b6000198114610a825760010190565b91908201809211610a8257565b60ff6002541661171c57565b60405163d93c066560e01b8152600490fd5b60026000541461173f576002600055565b604051633ee5aeb560e01b8152600490fd5b91908203918211610a8257565b8015610a8257600019019056fea2646970667358221220b4408b386b80554a11b1b9c093ea49222afea02577c1ba5db79331b81e4610c564736f6c634300081400332f8788117e7eff1d82e926ec794901d17c78024a50270940304540a733656f0d","opcodes":"PUSH1 0xA0 CALLVALUE PUSH3 0x1BE JUMPI PUSH1 0x1F PUSH3 0x1B72 CODESIZE DUP2 SWAP1 SUB SWAP2 DUP3 ADD PUSH1 0x1F NOT AND DUP4 ADD SWAP3 SWAP2 SWAP1 PUSH1 0x1 PUSH1 0x1 PUSH1 0x40 SHL SUB DUP5 GT DUP4 DUP6 LT OR PUSH3 0x1C3 JUMPI DUP2 PUSH1 0x60 SWAP3 DUP5 SWAP3 PUSH1 0x40 SWAP7 DUP8 MSTORE DUP4 CODECOPY DUP2 ADD SUB SLT PUSH3 0x1BE JUMPI PUSH3 0x51 DUP2 PUSH3 0x1D9 JUMP JUMPDEST SWAP1 PUSH3 0x6D DUP4 PUSH3 0x65 PUSH1 0x20 DUP5 ADD PUSH3 0x1D9 JUMP JUMPDEST SWAP3 ADD PUSH3 0x1D9 JUMP JUMPDEST PUSH1 0x1 PUSH1 0x0 SSTORE SWAP2 PUSH1 0x1 PUSH1 0x1 PUSH1 0xA0 SHL SUB SWAP1 DUP2 AND SWAP1 DUP2 ISZERO PUSH3 0x17A JUMPI DUP1 DUP4 AND ISZERO PUSH3 0x136 JUMPI DUP4 AND ISZERO PUSH3 0xF2 JUMPI PUSH3 0xBE SWAP3 SWAP2 PUSH3 0xB7 SWAP2 PUSH1 0x80 MSTORE PUSH3 0xB0 DUP2 PUSH3 0x1EE JUMP JUMPDEST POP PUSH3 0x26F JUMP JUMPDEST POP PUSH3 0x312 JUMP JUMPDEST POP MLOAD PUSH2 0x17A1 SWAP1 DUP2 PUSH3 0x3B1 DUP3 CODECOPY PUSH1 0x80 MLOAD DUP2 DUP2 DUP2 PUSH2 0x274 ADD MSTORE DUP2 DUP2 PUSH2 0x5AA ADD MSTORE DUP2 DUP2 PUSH2 0xBDE ADD MSTORE DUP2 DUP2 PUSH2 0xF74 ADD MSTORE PUSH2 0x1103 ADD MSTORE RETURN JUMPDEST DUP4 MLOAD PUSH3 0x461BCD PUSH1 0xE5 SHL DUP2 MSTORE PUSH1 0x20 PUSH1 0x4 DUP3 ADD MSTORE PUSH1 0x1C PUSH1 0x24 DUP3 ADD MSTORE PUSH32 0x436C696D6174655374616B653A20696E76616C6964206F7261636C6500000000 PUSH1 0x44 DUP3 ADD MSTORE PUSH1 0x64 SWAP1 REVERT JUMPDEST DUP5 MLOAD PUSH3 0x461BCD PUSH1 0xE5 SHL DUP2 MSTORE PUSH1 0x20 PUSH1 0x4 DUP3 ADD MSTORE PUSH1 0x1B PUSH1 0x24 DUP3 ADD MSTORE PUSH32 0x436C696D6174655374616B653A20696E76616C69642061646D696E0000000000 PUSH1 0x44 DUP3 ADD MSTORE PUSH1 0x64 SWAP1 REVERT JUMPDEST DUP5 MLOAD PUSH3 0x461BCD PUSH1 0xE5 SHL DUP2 MSTORE PUSH1 0x20 PUSH1 0x4 DUP3 ADD MSTORE PUSH1 0x1B PUSH1 0x24 DUP3 ADD MSTORE PUSH32 0x436C696D6174655374616B653A20696E76616C696420746F6B656E0000000000 PUSH1 0x44 DUP3 ADD MSTORE PUSH1 0x64 SWAP1 REVERT JUMPDEST PUSH1 0x0 DUP1 REVERT JUMPDEST PUSH4 0x4E487B71 PUSH1 0xE0 SHL PUSH1 0x0 MSTORE PUSH1 0x41 PUSH1 0x4 MSTORE PUSH1 0x24 PUSH1 0x0 REVERT JUMPDEST MLOAD SWAP1 PUSH1 0x1 PUSH1 0x1 PUSH1 0xA0 SHL SUB DUP3 AND DUP3 SUB PUSH3 0x1BE JUMPI JUMP JUMPDEST PUSH1 0x1 PUSH1 0x1 PUSH1 0xA0 SHL SUB AND PUSH1 0x0 DUP2 DUP2 MSTORE PUSH32 0xA6EEF7E35ABE7026729641147F7915573C7E97B47EFA546F5F6E3230263BCB49 PUSH1 0x20 MSTORE PUSH1 0x40 DUP2 KECCAK256 SLOAD SWAP1 SWAP2 SWAP1 PUSH1 0xFF AND PUSH3 0x26B JUMPI DUP2 DUP1 MSTORE PUSH1 0x1 PUSH1 0x20 MSTORE PUSH1 0x40 DUP3 KECCAK256 DUP2 DUP4 MSTORE PUSH1 0x20 MSTORE PUSH1 0x40 DUP3 KECCAK256 PUSH1 0x1 PUSH1 0xFF NOT DUP3 SLOAD AND OR SWAP1 SSTORE CALLER SWAP2 PUSH1 0x0 DUP1 MLOAD PUSH1 0x20 PUSH3 0x1B52 DUP4 CODECOPY DUP2 MLOAD SWAP2 MSTORE DUP2 DUP1 LOG4 PUSH1 0x1 SWAP1 JUMP JUMPDEST POP SWAP1 JUMP JUMPDEST PUSH1 0x1 PUSH1 0x1 PUSH1 0xA0 SHL SUB AND PUSH1 0x0 DUP2 DUP2 MSTORE PUSH32 0x50EFBDE2D46C37E9785F1791697F77E94BB7B701E19F1930A668820722D37694 PUSH1 0x20 MSTORE PUSH1 0x40 DUP2 KECCAK256 SLOAD SWAP1 SWAP2 SWAP1 PUSH32 0xA49807205CE4D355092EF5A8A18F56E8913CF4A201FBE287825B095693C21775 SWAP1 PUSH1 0xFF AND PUSH3 0x30D JUMPI DUP1 DUP4 MSTORE PUSH1 0x1 PUSH1 0x20 MSTORE PUSH1 0x40 DUP4 KECCAK256 DUP3 DUP5 MSTORE PUSH1 0x20 MSTORE PUSH1 0x40 DUP4 KECCAK256 PUSH1 0x1 PUSH1 0xFF NOT DUP3 SLOAD AND OR SWAP1 SSTORE PUSH1 0x0 DUP1 MLOAD PUSH1 0x20 PUSH3 0x1B52 DUP4 CODECOPY DUP2 MLOAD SWAP2 MSTORE CALLER SWAP4 DUP1 LOG4 PUSH1 0x1 SWAP1 JUMP JUMPDEST POP POP SWAP1 JUMP JUMPDEST PUSH1 0x1 PUSH1 0x1 PUSH1 0xA0 SHL SUB AND PUSH1 0x0 DUP2 DUP2 MSTORE PUSH32 0xF7C11A6D0EC535894A90C88B42CBA2CCB348CB15B5E3AD22A710D1D4AC632819 PUSH1 0x20 MSTORE PUSH1 0x40 DUP2 KECCAK256 SLOAD SWAP1 SWAP2 SWAP1 PUSH32 0x68E79A7BF1E0BC45D0A330C573BC367F9CF464FD326078812F301165FBDA4EF1 SWAP1 PUSH1 0xFF AND PUSH3 0x30D JUMPI DUP1 DUP4 MSTORE PUSH1 0x1 PUSH1 0x20 MSTORE PUSH1 0x40 DUP4 KECCAK256 DUP3 DUP5 MSTORE PUSH1 0x20 MSTORE PUSH1 0x40 DUP4 KECCAK256 PUSH1 0x1 PUSH1 0xFF NOT DUP3 SLOAD AND OR SWAP1 SSTORE PUSH1 0x0 DUP1 MLOAD PUSH1 0x20 PUSH3 0x1B52 DUP4 CODECOPY DUP2 MLOAD SWAP2 MSTORE CALLER SWAP4 DUP1 LOG4 PUSH1 0x1 SWAP1 JUMP INVALID PUSH1 0x80 DUP1 PUSH1 0x40 MSTORE PUSH1 0x4 CALLDATASIZE LT ISZERO PUSH2 0x13 JUMPI PUSH1 0x0 DUP1 REVERT JUMPDEST PUSH1 0x0 CALLDATALOAD PUSH1 0xE0 SHR SWAP1 DUP2 PUSH4 0x1FFC9A7 EQ PUSH2 0x141E JUMPI POP DUP1 PUSH4 0x7E2CEA5 EQ PUSH2 0x13E3 JUMPI DUP1 PUSH4 0x136D8883 EQ PUSH2 0x13AC JUMPI DUP1 PUSH4 0x16934FC4 EQ PUSH2 0x1331 JUMPI DUP1 PUSH4 0x171D073A EQ PUSH2 0x11F0 JUMPI DUP1 PUSH4 0x248A9CA3 EQ PUSH2 0x11C1 JUMPI DUP1 PUSH4 0x2DEF6620 EQ PUSH2 0x1081 JUMPI DUP1 PUSH4 0x2F2FF15D EQ PUSH2 0x1042 JUMPI DUP1 PUSH4 0x36568ABE EQ PUSH2 0xFFB JUMPI DUP1 PUSH4 0x3DABA0D7 EQ PUSH2 0xF1A JUMPI DUP1 PUSH4 0x3F4BA83A EQ PUSH2 0xEB0 JUMPI DUP1 PUSH4 0x5C975ABB EQ PUSH2 0xE8D JUMPI DUP1 PUSH4 0x6E05AFD7 EQ PUSH2 0x7AA JUMPI DUP1 PUSH4 0x75B238FC EQ PUSH2 0x76F JUMPI DUP1 PUSH4 0x7A766460 EQ PUSH2 0x69E JUMPI DUP1 PUSH4 0x817B1CD2 EQ PUSH2 0x680 JUMPI DUP1 PUSH4 0x8456CB59 EQ PUSH2 0x626 JUMPI DUP1 PUSH4 0x91D14854 EQ PUSH2 0x5D9 JUMPI DUP1 PUSH4 0x9BCFDFC0 EQ PUSH2 0x594 JUMPI DUP1 PUSH4 0xA217FDDF EQ PUSH2 0x578 JUMPI DUP1 PUSH4 0xA694FC3A EQ PUSH2 0x229 JUMPI DUP1 PUSH4 0xAB446491 EQ PUSH2 0x20B JUMPI DUP1 PUSH4 0xBFF1F9E1 EQ PUSH2 0x1ED JUMPI DUP1 PUSH4 0xCB1C2B5C EQ PUSH2 0x1C9 JUMPI DUP1 PUSH4 0xD547741F EQ PUSH2 0x188 JUMPI DUP1 PUSH4 0xECB334AB EQ PUSH2 0x16A JUMPI PUSH4 0xF3A14A8A EQ PUSH2 0x148 JUMPI PUSH1 0x0 DUP1 REVERT JUMPDEST CALLVALUE PUSH2 0x165 JUMPI PUSH1 0x0 CALLDATASIZE PUSH1 0x3 NOT ADD SLT PUSH2 0x165 JUMPI PUSH1 0x20 PUSH1 0x40 MLOAD PUSH2 0x3E8 DUP2 MSTORE RETURN JUMPDEST PUSH1 0x0 DUP1 REVERT JUMPDEST CALLVALUE PUSH2 0x165 JUMPI PUSH1 0x0 CALLDATASIZE PUSH1 0x3 NOT ADD SLT PUSH2 0x165 JUMPI PUSH1 0x20 PUSH1 0x5 SLOAD PUSH1 0x40 MLOAD SWAP1 DUP2 MSTORE RETURN JUMPDEST CALLVALUE PUSH2 0x165 JUMPI PUSH1 0x40 CALLDATASIZE PUSH1 0x3 NOT ADD SLT PUSH2 0x165 JUMPI PUSH2 0x1C7 PUSH1 0x4 CALLDATALOAD PUSH2 0x1A7 PUSH2 0x1487 JUMP JUMPDEST SWAP1 DUP1 PUSH1 0x0 MSTORE PUSH1 0x1 PUSH1 0x20 MSTORE PUSH2 0x1C2 PUSH1 0x1 PUSH1 0x40 PUSH1 0x0 KECCAK256 ADD SLOAD PUSH2 0x1573 JUMP JUMPDEST PUSH2 0x1619 JUMP JUMPDEST STOP JUMPDEST CALLVALUE PUSH2 0x165 JUMPI PUSH1 0x0 CALLDATASIZE PUSH1 0x3 NOT ADD SLT PUSH2 0x165 JUMPI PUSH1 0x20 PUSH1 0x40 MLOAD PUSH9 0x56BC75E2D63100000 DUP2 MSTORE RETURN JUMPDEST CALLVALUE PUSH2 0x165 JUMPI PUSH1 0x0 CALLDATASIZE PUSH1 0x3 NOT ADD SLT PUSH2 0x165 JUMPI PUSH1 0x20 PUSH1 0x6 SLOAD PUSH1 0x40 MLOAD SWAP1 DUP2 MSTORE RETURN JUMPDEST CALLVALUE PUSH2 0x165 JUMPI PUSH1 0x0 CALLDATASIZE PUSH1 0x3 NOT ADD SLT PUSH2 0x165 JUMPI PUSH1 0x20 PUSH1 0x8 SLOAD PUSH1 0x40 MLOAD SWAP1 DUP2 MSTORE RETURN JUMPDEST CALLVALUE PUSH2 0x165 JUMPI PUSH1 0x20 DUP1 PUSH1 0x3 NOT CALLDATASIZE ADD SLT PUSH2 0x165 JUMPI PUSH1 0x4 CALLDATALOAD SWAP1 PUSH2 0x247 PUSH2 0x172E JUMP JUMPDEST PUSH2 0x24F PUSH2 0x1710 JUMP JUMPDEST PUSH9 0x56BC75E2D63100000 DUP3 LT PUSH2 0x534 JUMPI PUSH1 0x40 MLOAD PUSH4 0x70A08231 PUSH1 0xE0 SHL DUP2 MSTORE CALLER PUSH1 0x4 DUP3 ADD MSTORE PUSH32 0x0 PUSH1 0x1 PUSH1 0x1 PUSH1 0xA0 SHL SUB AND SWAP1 DUP3 DUP2 PUSH1 0x24 DUP2 DUP6 GAS STATICCALL DUP1 ISZERO PUSH2 0x40B JUMPI DUP5 SWAP2 PUSH1 0x0 SWAP2 PUSH2 0x503 JUMPI JUMPDEST POP LT PUSH2 0x4B3 JUMPI PUSH1 0x40 MLOAD PUSH4 0x6EB1769F PUSH1 0xE1 SHL DUP2 MSTORE CALLER PUSH1 0x4 DUP3 ADD MSTORE ADDRESS PUSH1 0x24 DUP3 ADD MSTORE DUP3 DUP2 PUSH1 0x44 DUP2 DUP6 GAS STATICCALL DUP1 ISZERO PUSH2 0x40B JUMPI DUP5 SWAP2 PUSH1 0x0 SWAP2 PUSH2 0x482 JUMPI JUMPDEST POP LT PUSH2 0x417 JUMPI DUP2 PUSH1 0x0 SWAP2 PUSH1 0x64 PUSH1 0x40 MLOAD DUP1 SWAP5 DUP2 SWAP4 PUSH4 0x23B872DD PUSH1 0xE0 SHL DUP4 MSTORE CALLER PUSH1 0x4 DUP5 ADD MSTORE ADDRESS PUSH1 0x24 DUP5 ADD MSTORE DUP9 PUSH1 0x44 DUP5 ADD MSTORE GAS CALL DUP1 ISZERO PUSH2 0x40B JUMPI PUSH2 0x335 SWAP2 PUSH1 0x0 SWAP2 PUSH2 0x3DE JUMPI JUMPDEST POP PUSH2 0x16A8 JUMP JUMPDEST CALLER PUSH1 0x0 MSTORE PUSH1 0x3 DUP2 MSTORE PUSH1 0x40 PUSH1 0x0 KECCAK256 SLOAD ISZERO PUSH2 0x3CB JUMPI JUMPDEST CALLER PUSH1 0x0 MSTORE PUSH1 0x3 DUP2 MSTORE PUSH1 0x40 PUSH1 0x0 KECCAK256 PUSH2 0x361 DUP4 DUP3 SLOAD PUSH2 0x1703 JUMP JUMPDEST SWAP1 SSTORE CALLER PUSH1 0x0 MSTORE PUSH1 0x3 DUP2 MSTORE PUSH1 0x4 PUSH1 0x40 PUSH1 0x0 KECCAK256 TIMESTAMP PUSH1 0x1 DUP3 ADD SSTORE ADD PUSH1 0x1 PUSH1 0xFF NOT DUP3 SLOAD AND OR SWAP1 SSTORE PUSH2 0x390 DUP3 PUSH1 0x4 SLOAD PUSH2 0x1703 JUMP JUMPDEST PUSH1 0x4 SSTORE PUSH1 0x40 MLOAD SWAP2 DUP3 MSTORE TIMESTAMP SWAP1 DUP3 ADD MSTORE PUSH32 0x1449C6DD7851ABC30ABF37F57715F492010519147CC2652FBC38202C18A6EE90 PUSH1 0x40 CALLER SWAP3 LOG2 PUSH1 0x1 PUSH1 0x0 SSTORE STOP JUMPDEST PUSH2 0x3D6 PUSH1 0x6 SLOAD PUSH2 0x16F4 JUMP JUMPDEST PUSH1 0x6 SSTORE PUSH2 0x349 JUMP JUMPDEST PUSH2 0x3FE SWAP2 POP DUP4 RETURNDATASIZE DUP6 GT PUSH2 0x404 JUMPI JUMPDEST PUSH2 0x3F6 DUP2 DUP4 PUSH2 0x14D7 JUMP JUMPDEST DUP2 ADD SWAP1 PUSH2 0x1690 JUMP JUMPDEST DUP5 PUSH2 0x32F JUMP JUMPDEST POP RETURNDATASIZE PUSH2 0x3EC JUMP JUMPDEST PUSH1 0x40 MLOAD RETURNDATASIZE PUSH1 0x0 DUP3 RETURNDATACOPY RETURNDATASIZE SWAP1 REVERT JUMPDEST PUSH1 0x40 MLOAD PUSH3 0x461BCD PUSH1 0xE5 SHL DUP2 MSTORE PUSH1 0x4 DUP2 ADD DUP4 SWAP1 MSTORE PUSH1 0x3A PUSH1 0x24 DUP3 ADD MSTORE PUSH32 0x436C696D6174655374616B653A20696E73756666696369656E7420616C6C6F77 PUSH1 0x44 DUP3 ADD MSTORE PUSH32 0x616E63652E2043616C6C20617070726F76652829206669727374000000000000 PUSH1 0x64 DUP3 ADD MSTORE PUSH1 0x84 SWAP1 REVERT JUMPDEST DUP1 SWAP3 POP DUP5 DUP1 SWAP3 POP RETURNDATASIZE DUP4 GT PUSH2 0x4AC JUMPI JUMPDEST PUSH2 0x49B DUP2 DUP4 PUSH2 0x14D7 JUMP JUMPDEST DUP2 ADD SUB SLT PUSH2 0x165 JUMPI DUP4 SWAP1 MLOAD DUP6 PUSH2 0x2EC JUMP JUMPDEST POP RETURNDATASIZE PUSH2 0x491 JUMP JUMPDEST PUSH1 0x40 MLOAD PUSH3 0x461BCD PUSH1 0xE5 SHL DUP2 MSTORE PUSH1 0x4 DUP2 ADD DUP4 SWAP1 MSTORE PUSH1 0x22 PUSH1 0x24 DUP3 ADD MSTORE PUSH32 0x436C696D6174655374616B653A20696E73756666696369656E742062616C616E PUSH1 0x44 DUP3 ADD MSTORE PUSH2 0x6365 PUSH1 0xF0 SHL PUSH1 0x64 DUP3 ADD MSTORE PUSH1 0x84 SWAP1 REVERT JUMPDEST DUP1 SWAP3 POP DUP5 DUP1 SWAP3 POP RETURNDATASIZE DUP4 GT PUSH2 0x52D JUMPI JUMPDEST PUSH2 0x51C DUP2 DUP4 PUSH2 0x14D7 JUMP JUMPDEST DUP2 ADD SUB SLT PUSH2 0x165 JUMPI DUP4 SWAP1 MLOAD DUP6 PUSH2 0x2B5 JUMP JUMPDEST POP RETURNDATASIZE PUSH2 0x512 JUMP JUMPDEST PUSH1 0x64 SWAP1 PUSH1 0x40 MLOAD SWAP1 PUSH3 0x461BCD PUSH1 0xE5 SHL DUP3 MSTORE PUSH1 0x4 DUP3 ADD MSTORE PUSH1 0x1B PUSH1 0x24 DUP3 ADD MSTORE PUSH32 0x436C696D6174655374616B653A2062656C6F77206D696E696D756D0000000000 PUSH1 0x44 DUP3 ADD MSTORE REVERT JUMPDEST CALLVALUE PUSH2 0x165 JUMPI PUSH1 0x0 CALLDATASIZE PUSH1 0x3 NOT ADD SLT PUSH2 0x165 JUMPI PUSH1 0x20 PUSH1 0x40 MLOAD PUSH1 0x0 DUP2 MSTORE RETURN JUMPDEST CALLVALUE PUSH2 0x165 JUMPI PUSH1 0x0 CALLDATASIZE PUSH1 0x3 NOT ADD SLT PUSH2 0x165 JUMPI PUSH1 0x40 MLOAD PUSH32 0x0 PUSH1 0x1 PUSH1 0x1 PUSH1 0xA0 SHL SUB AND DUP2 MSTORE PUSH1 0x20 SWAP1 RETURN JUMPDEST CALLVALUE PUSH2 0x165 JUMPI PUSH1 0x40 CALLDATASIZE PUSH1 0x3 NOT ADD SLT PUSH2 0x165 JUMPI PUSH2 0x5F2 PUSH2 0x1487 JUMP JUMPDEST PUSH1 0x4 CALLDATALOAD PUSH1 0x0 MSTORE PUSH1 0x1 PUSH1 0x20 MSTORE PUSH1 0x40 PUSH1 0x0 KECCAK256 SWAP1 PUSH1 0x1 DUP1 PUSH1 0xA0 SHL SUB AND PUSH1 0x0 MSTORE PUSH1 0x20 MSTORE PUSH1 0x20 PUSH1 0xFF PUSH1 0x40 PUSH1 0x0 KECCAK256 SLOAD AND PUSH1 0x40 MLOAD SWAP1 ISZERO ISZERO DUP2 MSTORE RETURN JUMPDEST CALLVALUE PUSH2 0x165 JUMPI PUSH1 0x0 CALLDATASIZE PUSH1 0x3 NOT ADD SLT PUSH2 0x165 JUMPI PUSH2 0x63F PUSH2 0x14F9 JUMP JUMPDEST PUSH2 0x647 PUSH2 0x1710 JUMP JUMPDEST PUSH1 0x1 PUSH1 0xFF NOT PUSH1 0x2 SLOAD AND OR PUSH1 0x2 SSTORE PUSH32 0x62E78CEA01BEE320CD4E420270B5EA74000D11B0C9F74754EBDBFC544B05A258 PUSH1 0x20 PUSH1 0x40 MLOAD CALLER DUP2 MSTORE LOG1 STOP JUMPDEST CALLVALUE PUSH2 0x165 JUMPI PUSH1 0x0 CALLDATASIZE PUSH1 0x3 NOT ADD SLT PUSH2 0x165 JUMPI PUSH1 0x20 PUSH1 0x4 SLOAD PUSH1 0x40 MLOAD SWAP1 DUP2 MSTORE RETURN JUMPDEST CALLVALUE PUSH2 0x165 JUMPI PUSH1 0x20 CALLDATASIZE PUSH1 0x3 NOT ADD SLT PUSH2 0x165 JUMPI PUSH1 0x1 PUSH1 0x1 PUSH1 0xA0 SHL SUB PUSH2 0x6BF PUSH2 0x1471 JUMP JUMPDEST AND PUSH1 0x0 MSTORE PUSH1 0x3 PUSH1 0x20 MSTORE PUSH1 0x40 PUSH1 0x0 KECCAK256 PUSH1 0x40 MLOAD SWAP1 PUSH1 0xA0 DUP3 ADD DUP3 DUP2 LT PUSH8 0xFFFFFFFFFFFFFFFF DUP3 GT OR PUSH2 0x759 JUMPI PUSH1 0x40 MSTORE PUSH2 0x755 PUSH1 0x80 DUP3 SLOAD SWAP3 DUP4 DUP6 MSTORE PUSH1 0x1 DUP2 ADD SLOAD SWAP5 DUP6 PUSH1 0x20 DUP3 ADD MSTORE PUSH1 0x2 DUP3 ADD SLOAD SWAP1 DUP2 PUSH1 0x40 DUP3 ADD MSTORE PUSH1 0xFF PUSH1 0x4 PUSH1 0x3 DUP6 ADD SLOAD SWAP5 DUP6 PUSH1 0x60 DUP6 ADD MSTORE ADD SLOAD AND ISZERO ISZERO SWAP4 DUP5 SWAP2 ADD MSTORE PUSH1 0x40 MLOAD SWAP6 DUP7 SWAP6 DUP7 SWAP4 SWAP1 SWAP6 SWAP5 SWAP2 SWAP3 PUSH1 0x80 SWAP4 PUSH1 0xA0 DUP7 ADD SWAP8 DUP7 MSTORE PUSH1 0x20 DUP7 ADD MSTORE PUSH1 0x40 DUP6 ADD MSTORE PUSH1 0x60 DUP5 ADD MSTORE ISZERO ISZERO SWAP2 ADD MSTORE JUMP JUMPDEST SUB SWAP1 RETURN JUMPDEST PUSH4 0x4E487B71 PUSH1 0xE0 SHL PUSH1 0x0 MSTORE PUSH1 0x41 PUSH1 0x4 MSTORE PUSH1 0x24 PUSH1 0x0 REVERT JUMPDEST CALLVALUE PUSH2 0x165 JUMPI PUSH1 0x0 CALLDATASIZE PUSH1 0x3 NOT ADD SLT PUSH2 0x165 JUMPI PUSH1 0x20 PUSH1 0x40 MLOAD PUSH32 0xA49807205CE4D355092EF5A8A18F56E8913CF4A201FBE287825B095693C21775 DUP2 MSTORE RETURN JUMPDEST CALLVALUE PUSH2 0x165 JUMPI PUSH1 0x60 CALLDATASIZE PUSH1 0x3 NOT ADD SLT PUSH2 0x165 JUMPI PUSH1 0x4 CALLDATALOAD PUSH1 0xFF DUP2 AND DUP2 SUB PUSH2 0x165 JUMPI PUSH8 0xFFFFFFFFFFFFFFFF PUSH1 0x24 CALLDATALOAD GT PUSH2 0x165 JUMPI CALLDATASIZE PUSH1 0x23 PUSH1 0x24 CALLDATALOAD ADD SLT ISZERO PUSH2 0x165 JUMPI PUSH8 0xFFFFFFFFFFFFFFFF PUSH1 0x24 CALLDATALOAD PUSH1 0x4 ADD CALLDATALOAD GT PUSH2 0x165 JUMPI CALLDATASIZE PUSH1 0x24 DUP1 CALLDATALOAD PUSH1 0x4 ADD CALLDATALOAD DUP2 CALLDATALOAD ADD ADD GT PUSH2 0x165 JUMPI PUSH8 0xFFFFFFFFFFFFFFFF PUSH1 0x44 CALLDATALOAD GT PUSH2 0x165 JUMPI CALLDATASIZE PUSH1 0x23 PUSH1 0x44 CALLDATALOAD ADD SLT ISZERO PUSH2 0x165 JUMPI PUSH8 0xFFFFFFFFFFFFFFFF PUSH1 0x44 CALLDATALOAD PUSH1 0x4 ADD CALLDATALOAD GT PUSH2 0x165 JUMPI CALLDATASIZE PUSH1 0x24 PUSH1 0x44 CALLDATALOAD PUSH1 0x4 ADD CALLDATALOAD PUSH1 0x5 SHL PUSH1 0x44 CALLDATALOAD ADD ADD GT PUSH2 0x165 JUMPI CALLER PUSH1 0x0 SWAP1 DUP2 MSTORE PUSH32 0xF7C11A6D0EC535894A90C88B42CBA2CCB348CB15B5E3AD22A710D1D4AC632819 PUSH1 0x20 MSTORE PUSH1 0x40 SWAP1 KECCAK256 SLOAD PUSH1 0xFF AND ISZERO PUSH2 0xE4F JUMPI PUSH2 0x896 PUSH2 0x1710 JUMP JUMPDEST PUSH1 0x1 PUSH1 0xFF DUP3 AND LT ISZERO DUP1 PUSH2 0xE41 JUMPI JUMPDEST ISZERO PUSH2 0xDFC JUMPI PUSH1 0x44 CALLDATALOAD PUSH1 0x4 ADD CALLDATALOAD ISZERO PUSH2 0xDB7 JUMPI PUSH1 0x0 SWAP1 PUSH1 0x0 SWAP1 PUSH1 0x0 JUMPDEST PUSH1 0x44 CALLDATALOAD PUSH1 0x4 ADD CALLDATALOAD DUP2 LT PUSH2 0xB5E JUMPI POP PUSH1 0x40 MLOAD DUP1 PUSH1 0x80 DUP2 ADD LT PUSH8 0xFFFFFFFFFFFFFFFF PUSH1 0x80 DUP4 ADD GT OR PUSH2 0x759 JUMPI PUSH1 0x80 DUP2 ADD PUSH1 0x40 MSTORE PUSH1 0xFF DUP3 AND DUP2 MSTORE TIMESTAMP PUSH1 0x20 DUP3 ADD MSTORE PUSH1 0x40 MLOAD SWAP1 PUSH2 0x919 PUSH1 0x20 PUSH1 0x1F NOT PUSH1 0x1F PUSH1 0x24 CALLDATALOAD PUSH1 0x4 ADD CALLDATALOAD ADD AND ADD DUP4 PUSH2 0x14D7 JUMP JUMPDEST PUSH1 0x24 DUP1 CALLDATALOAD PUSH1 0x4 DUP2 ADD CALLDATALOAD DUP1 DUP6 MSTORE SWAP2 ADD PUSH1 0x20 DUP5 ADD CALLDATACOPY PUSH1 0x0 PUSH1 0x20 PUSH1 0x24 CALLDATALOAD PUSH1 0x4 ADD CALLDATALOAD DUP5 ADD ADD MSTORE PUSH1 0x40 DUP2 ADD SWAP2 DUP3 MSTORE DUP4 PUSH1 0x60 DUP3 ADD MSTORE PUSH1 0x8 SLOAD PUSH1 0x0 MSTORE PUSH1 0x7 PUSH1 0x20 MSTORE PUSH1 0x40 PUSH1 0x0 KECCAK256 SWAP2 PUSH1 0xFF DUP3 MLOAD AND PUSH1 0xFF NOT DUP5 SLOAD AND OR DUP4 SSTORE PUSH1 0x20 DUP3 ADD MLOAD PUSH1 0x1 DUP5 ADD SSTORE MLOAD DUP1 MLOAD SWAP1 PUSH8 0xFFFFFFFFFFFFFFFF DUP3 GT PUSH2 0x759 JUMPI PUSH2 0x991 PUSH1 0x2 DUP6 ADD SLOAD PUSH2 0x149D JUMP JUMPDEST PUSH1 0x1F DUP2 GT PUSH2 0xB17 JUMPI JUMPDEST POP PUSH1 0x20 SWAP1 PUSH1 0x1F DUP4 GT PUSH1 0x1 EQ PUSH2 0xAA3 JUMPI SWAP2 DUP1 PUSH1 0x3 SWAP5 SWAP3 PUSH1 0x60 SWAP5 PUSH1 0x0 SWAP3 PUSH2 0xA98 JUMPI JUMPDEST POP POP DUP2 PUSH1 0x1 SHL SWAP2 PUSH1 0x0 NOT SWAP1 DUP7 SHL SHR NOT AND OR PUSH1 0x2 DUP6 ADD SSTORE JUMPDEST ADD MLOAD SWAP2 ADD SSTORE PUSH2 0x9E2 DUP3 PUSH1 0x5 SLOAD PUSH2 0x1703 JUMP JUMPDEST PUSH1 0x5 SSTORE PUSH2 0x9F0 PUSH1 0x8 SLOAD PUSH2 0x16F4 JUMP JUMPDEST SWAP3 DUP4 PUSH1 0x8 SSTORE PUSH1 0x0 NOT DUP5 ADD SWAP4 DUP5 GT PUSH2 0xA82 JUMPI PUSH32 0xA23EA32330368114B86786298CE9D2AFA75C11E1CE45365E0FD7A10B5C2C18EF SWAP3 PUSH1 0xFF PUSH1 0x40 MLOAD SWAP4 AND DUP4 MSTORE PUSH1 0x80 PUSH1 0x20 DUP5 ADD MSTORE PUSH1 0x24 CALLDATALOAD PUSH1 0x4 ADD CALLDATALOAD PUSH1 0x80 DUP5 ADD MSTORE PUSH1 0x24 CALLDATALOAD PUSH1 0x4 ADD CALLDATALOAD PUSH1 0x24 DUP1 CALLDATALOAD ADD PUSH1 0xA0 DUP6 ADD CALLDATACOPY PUSH1 0x0 PUSH1 0xA0 PUSH1 0x24 CALLDATALOAD PUSH1 0x4 ADD CALLDATALOAD DUP6 ADD ADD MSTORE PUSH1 0x40 DUP4 ADD MSTORE PUSH1 0x60 DUP3 ADD MSTORE PUSH1 0xA0 DUP2 PUSH1 0x1F NOT PUSH1 0x1F PUSH1 0x24 CALLDATALOAD PUSH1 0x4 ADD CALLDATALOAD ADD AND DUP2 ADD SUB ADD SWAP1 LOG2 STOP JUMPDEST PUSH4 0x4E487B71 PUSH1 0xE0 SHL PUSH1 0x0 MSTORE PUSH1 0x11 PUSH1 0x4 MSTORE PUSH1 0x24 PUSH1 0x0 REVERT JUMPDEST ADD MLOAD SWAP1 POP DUP10 DUP1 PUSH2 0x9BA JUMP JUMPDEST SWAP1 PUSH1 0x2 DUP6 ADD PUSH1 0x0 MSTORE PUSH1 0x20 PUSH1 0x0 KECCAK256 SWAP2 PUSH1 0x0 JUMPDEST PUSH1 0x1F NOT DUP6 AND DUP2 LT PUSH2 0xAFF JUMPI POP SWAP3 PUSH1 0x3 SWAP5 SWAP3 PUSH1 0x1 SWAP3 PUSH1 0x60 SWAP6 DUP4 PUSH1 0x1F NOT DUP2 AND LT PUSH2 0xAE7 JUMPI JUMPDEST POP POP POP DUP2 SHL ADD PUSH1 0x2 DUP6 ADD SSTORE PUSH2 0x9D1 JUMP JUMPDEST ADD MLOAD PUSH1 0x0 NOT DUP4 DUP9 SHL PUSH1 0xF8 AND SHR NOT AND SWAP1 SSTORE DUP10 DUP1 DUP1 PUSH2 0xAD7 JUMP JUMPDEST SWAP2 SWAP3 PUSH1 0x20 PUSH1 0x1 DUP2 SWAP3 DUP7 DUP6 ADD MLOAD DUP2 SSTORE ADD SWAP5 ADD SWAP3 ADD PUSH2 0xAB4 JUMP JUMPDEST PUSH1 0x2 DUP6 ADD PUSH1 0x0 MSTORE PUSH1 0x20 PUSH1 0x0 KECCAK256 PUSH1 0x1F DUP5 ADD PUSH1 0x5 SHR DUP2 ADD PUSH1 0x20 DUP6 LT PUSH2 0xB57 JUMPI JUMPDEST PUSH1 0x1F DUP4 ADD PUSH1 0x5 SHR DUP3 ADD DUP2 LT PUSH2 0xB4B JUMPI POP POP PUSH2 0x99A JUMP JUMPDEST PUSH1 0x0 DUP2 SSTORE PUSH1 0x1 ADD PUSH2 0xB35 JUMP JUMPDEST POP DUP1 PUSH2 0xB35 JUMP JUMPDEST PUSH1 0x44 CALLDATALOAD PUSH1 0x5 DUP3 SWAP1 SHL ADD PUSH1 0x24 ADD CALLDATALOAD PUSH1 0x1 PUSH1 0x1 PUSH1 0xA0 SHL SUB DUP2 AND DUP2 SUB PUSH2 0x165 JUMPI PUSH1 0x1 PUSH1 0x1 PUSH1 0xA0 SHL SUB DUP2 AND PUSH1 0x0 SWAP1 DUP2 MSTORE PUSH1 0x3 PUSH1 0x20 MSTORE PUSH1 0x40 SWAP1 KECCAK256 PUSH1 0x4 DUP2 ADD SLOAD PUSH1 0xFF AND DUP1 PUSH2 0xDAD JUMPI JUMPDEST PUSH2 0xBB6 JUMPI JUMPDEST POP POP PUSH2 0xBB1 SWAP1 PUSH2 0x16F4 JUMP JUMPDEST PUSH2 0x8BE JUMP JUMPDEST DUP1 SWAP6 SWAP3 SWAP2 SWAP5 SWAP6 SLOAD SWAP3 PUSH2 0x3E8 SWAP4 DUP5 DUP2 MUL SWAP5 DUP2 DUP7 DIV EQ DUP2 ISZERO OR ISZERO PUSH2 0xA82 JUMPI PUSH2 0x2710 DUP6 DIV GT PUSH2 0xD69 JUMPI PUSH32 0x0 PUSH1 0x1 PUSH1 0x1 PUSH1 0xA0 SHL SUB AND DUP1 EXTCODESIZE ISZERO PUSH2 0x165 JUMPI PUSH1 0x0 DUP1 SWAP2 PUSH1 0xA4 PUSH1 0x40 MLOAD DUP1 SWAP5 DUP2 SWAP4 PUSH4 0x16FF1FF7 PUSH1 0xE0 SHL DUP4 MSTORE PUSH2 0x2710 DUP12 DIV PUSH1 0x4 DUP5 ADD MSTORE PUSH1 0x6 PUSH1 0x24 DUP5 ADD MSTORE PUSH1 0x60 PUSH1 0x44 DUP5 ADD MSTORE PUSH1 0x17 PUSH1 0x64 DUP5 ADD MSTORE PUSH32 0x436C696D61746520616C65727420747269676765726564000000000000000000 PUSH1 0x84 DUP5 ADD MSTORE GAS CALL DUP1 ISZERO PUSH2 0x40B JUMPI PUSH2 0xD44 JUMPI JUMPDEST POP PUSH9 0x56BC75E2D63100000 SWAP1 DUP5 PUSH32 0x6BE02EA772919D89A04060DEA29D8344F266E9DEC27843A643FA74DD8239131C PUSH1 0x40 PUSH2 0xCF8 PUSH2 0xCF2 PUSH2 0xCBE PUSH2 0x2710 PUSH2 0xBB1 SWAP12 DIV DUP10 SLOAD PUSH2 0x1751 JUMP JUMPDEST SWAP6 DUP7 DUP10 SSTORE PUSH1 0x2 DUP10 ADD PUSH2 0xCD0 DUP2 SLOAD PUSH2 0x16F4 JUMP JUMPDEST SWAP1 SSTORE PUSH1 0x3 DUP10 ADD PUSH2 0xCE5 PUSH2 0x2710 DUP9 DIV DUP3 SLOAD PUSH2 0x1703 JUMP JUMPDEST SWAP1 SSTORE PUSH2 0x2710 DUP7 DIV SWAP1 PUSH2 0x1703 JUMP JUMPDEST SWAP12 PUSH2 0x16F4 JUMP JUMPDEST PUSH1 0x8 SLOAD DUP3 MLOAD PUSH2 0x2710 SWAP1 SWAP6 DIV DUP6 MSTORE PUSH1 0x20 DUP6 ADD MSTORE SWAP10 PUSH1 0x1 PUSH1 0x1 PUSH1 0xA0 SHL SUB AND SWAP3 LOG2 LT PUSH2 0xD24 JUMPI JUMPDEST DUP2 SWAP3 POP PUSH2 0xBA6 JUMP JUMPDEST PUSH1 0x4 ADD DUP1 SLOAD PUSH1 0xFF NOT AND SWAP1 SSTORE PUSH1 0x6 SLOAD PUSH2 0xD3B SWAP1 PUSH2 0x175E JUMP JUMPDEST PUSH1 0x6 SSTORE DUP6 PUSH2 0xD1C JUMP JUMPDEST SWAP1 PUSH8 0xFFFFFFFFFFFFFFFF DUP3 GT PUSH2 0x759 JUMPI PUSH1 0x40 SWAP2 SWAP1 SWAP2 MSTORE PUSH9 0x56BC75E2D63100000 PUSH2 0xC76 JUMP JUMPDEST PUSH1 0x64 PUSH1 0x40 MLOAD PUSH3 0x461BCD PUSH1 0xE5 SHL DUP2 MSTORE PUSH1 0x20 PUSH1 0x4 DUP3 ADD MSTORE PUSH1 0x20 PUSH1 0x24 DUP3 ADD MSTORE PUSH32 0x436C696D6174655374616B653A206275726E2065786365656473207374616B65 PUSH1 0x44 DUP3 ADD MSTORE REVERT JUMPDEST POP DUP1 SLOAD ISZERO ISZERO PUSH2 0xBA1 JUMP JUMPDEST PUSH1 0x40 MLOAD PUSH3 0x461BCD PUSH1 0xE5 SHL DUP2 MSTORE PUSH1 0x20 PUSH1 0x4 DUP3 ADD MSTORE PUSH1 0x1B PUSH1 0x24 DUP3 ADD MSTORE PUSH32 0x436C696D6174655374616B653A206E6F20726563697069656E74730000000000 PUSH1 0x44 DUP3 ADD MSTORE PUSH1 0x64 SWAP1 REVERT JUMPDEST PUSH1 0x40 MLOAD PUSH3 0x461BCD PUSH1 0xE5 SHL DUP2 MSTORE PUSH1 0x20 PUSH1 0x4 DUP3 ADD MSTORE PUSH1 0x1A PUSH1 0x24 DUP3 ADD MSTORE PUSH32 0x436C696D6174655374616B653A20696E76616C69642074797065000000000000 PUSH1 0x44 DUP3 ADD MSTORE PUSH1 0x64 SWAP1 REVERT JUMPDEST POP PUSH1 0xA PUSH1 0xFF DUP3 AND GT ISZERO PUSH2 0x8A4 JUMP JUMPDEST PUSH1 0x40 MLOAD PUSH4 0xE2517D3F PUSH1 0xE0 SHL DUP2 MSTORE CALLER PUSH1 0x4 DUP3 ADD MSTORE PUSH32 0x68E79A7BF1E0BC45D0A330C573BC367F9CF464FD326078812F301165FBDA4EF1 PUSH1 0x24 DUP3 ADD MSTORE PUSH1 0x44 SWAP1 REVERT JUMPDEST CALLVALUE PUSH2 0x165 JUMPI PUSH1 0x0 CALLDATASIZE PUSH1 0x3 NOT ADD SLT PUSH2 0x165 JUMPI PUSH1 0x20 PUSH1 0xFF PUSH1 0x2 SLOAD AND PUSH1 0x40 MLOAD SWAP1 ISZERO ISZERO DUP2 MSTORE RETURN JUMPDEST CALLVALUE PUSH2 0x165 JUMPI PUSH1 0x0 CALLDATASIZE PUSH1 0x3 NOT ADD SLT PUSH2 0x165 JUMPI PUSH2 0xEC9 PUSH2 0x14F9 JUMP JUMPDEST PUSH1 0x2 SLOAD PUSH1 0xFF DUP2 AND ISZERO PUSH2 0xF08 JUMPI PUSH1 0xFF NOT AND PUSH1 0x2 SSTORE PUSH32 0x5DB9EE0A495BF2E6FF9C91A7834C1BA4FDD244A5E8AA4E537BD38AEAE4B073AA PUSH1 0x20 PUSH1 0x40 MLOAD CALLER DUP2 MSTORE LOG1 STOP JUMPDEST PUSH1 0x40 MLOAD PUSH4 0x8DFC202B PUSH1 0xE0 SHL DUP2 MSTORE PUSH1 0x4 SWAP1 REVERT JUMPDEST CALLVALUE PUSH2 0x165 JUMPI PUSH1 0x40 CALLDATASIZE PUSH1 0x3 NOT ADD SLT PUSH2 0x165 JUMPI PUSH2 0xF70 PUSH2 0xF36 PUSH2 0x1471 JUMP JUMPDEST PUSH1 0x40 MLOAD PUSH4 0x6EB1769F PUSH1 0xE1 SHL DUP2 MSTORE PUSH1 0x1 PUSH1 0x1 PUSH1 0xA0 SHL SUB SWAP1 SWAP2 AND PUSH1 0x4 DUP3 ADD MSTORE ADDRESS PUSH1 0x24 DUP3 DUP2 ADD SWAP2 SWAP1 SWAP2 MSTORE SWAP1 SWAP2 SWAP1 CALLDATALOAD SWAP1 PUSH1 0x20 SWAP1 DUP4 SWAP1 DUP2 SWAP1 PUSH1 0x44 DUP3 ADD SWAP1 JUMP JUMPDEST SUB DUP2 PUSH32 0x0 PUSH1 0x1 PUSH1 0x1 PUSH1 0xA0 SHL SUB AND GAS STATICCALL SWAP1 DUP2 ISZERO PUSH2 0x40B JUMPI PUSH1 0x0 SWAP2 PUSH2 0xFC7 JUMPI JUMPDEST PUSH1 0x60 SWAP3 POP PUSH1 0x40 MLOAD SWAP2 DUP2 DUP2 LT ISZERO DUP4 MSTORE PUSH1 0x20 DUP4 ADD MSTORE PUSH1 0x40 DUP3 ADD MSTORE RETURN JUMPDEST SWAP1 POP PUSH1 0x20 DUP3 RETURNDATASIZE DUP3 GT PUSH2 0xFF3 JUMPI JUMPDEST DUP2 PUSH2 0xFE1 PUSH1 0x20 SWAP4 DUP4 PUSH2 0x14D7 JUMP JUMPDEST DUP2 ADD SUB SLT PUSH2 0x165 JUMPI PUSH1 0x60 SWAP2 MLOAD SWAP1 PUSH2 0xFAD JUMP JUMPDEST RETURNDATASIZE SWAP2 POP PUSH2 0xFD4 JUMP JUMPDEST CALLVALUE PUSH2 0x165 JUMPI PUSH1 0x40 CALLDATASIZE PUSH1 0x3 NOT ADD SLT PUSH2 0x165 JUMPI PUSH2 0x1014 PUSH2 0x1487 JUMP JUMPDEST CALLER PUSH1 0x1 PUSH1 0x1 PUSH1 0xA0 SHL SUB DUP3 AND SUB PUSH2 0x1030 JUMPI PUSH2 0x1C7 SWAP1 PUSH1 0x4 CALLDATALOAD PUSH2 0x1619 JUMP JUMPDEST PUSH1 0x40 MLOAD PUSH4 0x334BD919 PUSH1 0xE1 SHL DUP2 MSTORE PUSH1 0x4 SWAP1 REVERT JUMPDEST CALLVALUE PUSH2 0x165 JUMPI PUSH1 0x40 CALLDATASIZE PUSH1 0x3 NOT ADD SLT PUSH2 0x165 JUMPI PUSH2 0x1C7 PUSH1 0x4 CALLDATALOAD PUSH2 0x1061 PUSH2 0x1487 JUMP JUMPDEST SWAP1 DUP1 PUSH1 0x0 MSTORE PUSH1 0x1 PUSH1 0x20 MSTORE PUSH2 0x107C PUSH1 0x1 PUSH1 0x40 PUSH1 0x0 KECCAK256 ADD SLOAD PUSH2 0x1573 JUMP JUMPDEST PUSH2 0x1599 JUMP JUMPDEST CALLVALUE PUSH2 0x165 JUMPI PUSH1 0x0 CALLDATASIZE PUSH1 0x3 NOT ADD SLT PUSH2 0x165 JUMPI PUSH2 0x109A PUSH2 0x172E JUMP JUMPDEST CALLER PUSH1 0x0 MSTORE PUSH1 0x20 PUSH1 0x3 DUP2 MSTORE PUSH1 0x40 PUSH1 0x0 KECCAK256 SWAP1 DUP2 SLOAD SWAP2 DUP3 ISZERO PUSH2 0x117C JUMPI DUP1 PUSH1 0x0 PUSH1 0x4 SWAP3 SSTORE ADD PUSH1 0xFF NOT DUP2 SLOAD AND SWAP1 SSTORE PUSH2 0x10CF DUP3 PUSH1 0x4 SLOAD PUSH2 0x1751 JUMP JUMPDEST PUSH1 0x4 SSTORE PUSH2 0x10DD PUSH1 0x6 SLOAD PUSH2 0x175E JUMP JUMPDEST PUSH1 0x6 SSTORE PUSH1 0x40 MLOAD PUSH4 0xA9059CBB PUSH1 0xE0 SHL DUP2 MSTORE CALLER PUSH1 0x4 DUP3 ADD MSTORE PUSH1 0x24 DUP2 ADD DUP4 SWAP1 MSTORE DUP2 DUP2 PUSH1 0x44 DUP2 PUSH1 0x0 PUSH32 0x0 PUSH1 0x1 PUSH1 0x1 PUSH1 0xA0 SHL SUB AND GAS CALL DUP1 ISZERO PUSH2 0x40B JUMPI PUSH2 0x1144 SWAP2 PUSH1 0x0 SWAP2 PUSH2 0x3DE JUMPI POP PUSH2 0x16A8 JUMP JUMPDEST PUSH1 0x40 MLOAD SWAP2 DUP3 MSTORE TIMESTAMP SWAP1 DUP3 ADD MSTORE PUSH32 0x7FC4727E062E336010F2C282598EF5F14FACB3DE68CF8195C2F23E1454B2B74E PUSH1 0x40 CALLER SWAP3 LOG2 PUSH1 0x1 PUSH1 0x0 SSTORE STOP JUMPDEST PUSH1 0x40 MLOAD PUSH3 0x461BCD PUSH1 0xE5 SHL DUP2 MSTORE PUSH1 0x4 DUP2 ADD DUP4 SWAP1 MSTORE PUSH1 0x1C PUSH1 0x24 DUP3 ADD MSTORE PUSH32 0x436C696D6174655374616B653A206E6F207374616B6520666F756E6400000000 PUSH1 0x44 DUP3 ADD MSTORE PUSH1 0x64 SWAP1 REVERT JUMPDEST CALLVALUE PUSH2 0x165 JUMPI PUSH1 0x20 CALLDATASIZE PUSH1 0x3 NOT ADD SLT PUSH2 0x165 JUMPI PUSH1 0x4 CALLDATALOAD PUSH1 0x0 MSTORE PUSH1 0x1 PUSH1 0x20 MSTORE PUSH1 0x20 PUSH1 0x1 PUSH1 0x40 PUSH1 0x0 KECCAK256 ADD SLOAD PUSH1 0x40 MLOAD SWAP1 DUP2 MSTORE RETURN JUMPDEST CALLVALUE PUSH2 0x165 JUMPI PUSH1 0x20 DUP1 PUSH1 0x3 NOT CALLDATASIZE ADD SLT PUSH2 0x165 JUMPI PUSH1 0x4 CALLDATALOAD PUSH1 0x0 MSTORE PUSH1 0x7 DUP2 MSTORE PUSH1 0x40 PUSH1 0x0 KECCAK256 SWAP1 PUSH1 0xFF DUP3 SLOAD AND SWAP2 PUSH1 0x1 SWAP2 DUP3 DUP3 ADD SLOAD SWAP2 PUSH1 0x2 DUP2 ADD PUSH1 0x40 MLOAD SWAP5 DUP6 SWAP2 PUSH1 0x0 SWAP2 DUP2 SLOAD SWAP2 PUSH2 0x1239 DUP4 PUSH2 0x149D JUMP JUMPDEST SWAP3 DUP4 DUP7 MSTORE DUP8 DUP4 DUP3 AND SWAP2 DUP3 PUSH1 0x0 EQ PUSH2 0x130B JUMPI POP POP PUSH1 0x1 EQ PUSH2 0x12C9 JUMPI JUMPDEST POP POP POP PUSH1 0x3 SWAP3 SWAP2 PUSH2 0x1269 SWAP2 SWAP8 SWAP6 SWAP8 SUB DUP7 PUSH2 0x14D7 JUMP JUMPDEST ADD SLOAD PUSH1 0x40 MLOAD SWAP5 DUP6 SWAP4 DUP5 MSTORE DUP3 DUP5 ADD MSTORE PUSH1 0x80 PUSH1 0x40 DUP5 ADD MSTORE DUP4 MLOAD SWAP2 DUP3 PUSH1 0x80 DUP6 ADD MSTORE PUSH1 0x0 JUMPDEST DUP4 DUP2 LT PUSH2 0x12B2 JUMPI POP POP PUSH1 0xA0 SWAP4 POP PUSH1 0x0 DUP5 DUP4 DUP6 ADD ADD MSTORE PUSH1 0x60 DUP4 ADD MSTORE PUSH1 0x1F DUP1 NOT SWAP2 ADD AND DUP2 ADD SUB ADD SWAP1 RETURN JUMPDEST DUP1 DUP7 ADD DUP3 ADD MLOAD DUP8 DUP3 ADD PUSH1 0xA0 ADD MSTORE DUP7 SWAP5 POP DUP2 ADD PUSH2 0x128A JUMP JUMPDEST DUP7 SWAP4 POP PUSH1 0x0 SWAP3 SWAP2 SWAP3 MSTORE DUP3 PUSH1 0x0 KECCAK256 SWAP2 PUSH1 0x0 SWAP3 JUMPDEST DUP3 DUP5 LT PUSH2 0x12F3 JUMPI POP POP POP DUP3 ADD ADD DUP2 PUSH2 0x1269 PUSH1 0x3 PUSH2 0x1254 JUMP JUMPDEST DUP1 SLOAD DUP5 DUP12 ADD DUP7 ADD MSTORE DUP10 SWAP6 POP DUP8 SWAP5 SWAP1 SWAP4 ADD SWAP3 DUP2 ADD PUSH2 0x12DB JUMP JUMPDEST PUSH1 0xFF NOT AND DUP8 DUP3 ADD MSTORE SWAP4 ISZERO ISZERO PUSH1 0x5 SHL DUP7 ADD SWAP1 SWAP4 ADD SWAP4 POP DUP5 SWAP3 POP PUSH2 0x1269 SWAP2 POP PUSH1 0x3 SWAP1 POP PUSH2 0x1254 JUMP JUMPDEST CALLVALUE PUSH2 0x165 JUMPI PUSH1 0x20 CALLDATASIZE PUSH1 0x3 NOT ADD SLT PUSH2 0x165 JUMPI PUSH1 0x1 PUSH1 0x1 PUSH1 0xA0 SHL SUB PUSH2 0x1352 PUSH2 0x1471 JUMP JUMPDEST AND PUSH1 0x0 MSTORE PUSH1 0x3 PUSH1 0x20 MSTORE PUSH1 0x40 PUSH1 0x0 KECCAK256 DUP1 SLOAD PUSH2 0x755 PUSH1 0x1 DUP4 ADD SLOAD SWAP3 PUSH1 0x2 DUP2 ADD SLOAD SWAP1 PUSH1 0xFF PUSH1 0x4 PUSH1 0x3 DUP4 ADD SLOAD SWAP3 ADD SLOAD AND SWAP2 PUSH1 0x40 MLOAD SWAP6 DUP7 SWAP6 DUP7 SWAP4 SWAP1 SWAP6 SWAP5 SWAP2 SWAP3 PUSH1 0x80 SWAP4 PUSH1 0xA0 DUP7 ADD SWAP8 DUP7 MSTORE PUSH1 0x20 DUP7 ADD MSTORE PUSH1 0x40 DUP6 ADD MSTORE PUSH1 0x60 DUP5 ADD MSTORE ISZERO ISZERO SWAP2 ADD MSTORE JUMP JUMPDEST CALLVALUE PUSH2 0x165 JUMPI PUSH1 0x0 CALLDATASIZE PUSH1 0x3 NOT ADD SLT PUSH2 0x165 JUMPI PUSH1 0x80 PUSH1 0x4 SLOAD PUSH1 0x6 SLOAD PUSH1 0x5 SLOAD PUSH1 0x8 SLOAD SWAP2 PUSH1 0x40 MLOAD SWAP4 DUP5 MSTORE PUSH1 0x20 DUP5 ADD MSTORE PUSH1 0x40 DUP4 ADD MSTORE PUSH1 0x60 DUP3 ADD MSTORE RETURN JUMPDEST CALLVALUE PUSH2 0x165 JUMPI PUSH1 0x0 CALLDATASIZE PUSH1 0x3 NOT ADD SLT PUSH2 0x165 JUMPI PUSH1 0x20 PUSH1 0x40 MLOAD PUSH32 0x68E79A7BF1E0BC45D0A330C573BC367F9CF464FD326078812F301165FBDA4EF1 DUP2 MSTORE RETURN JUMPDEST CALLVALUE PUSH2 0x165 JUMPI PUSH1 0x20 CALLDATASIZE PUSH1 0x3 NOT ADD SLT PUSH2 0x165 JUMPI PUSH1 0x4 CALLDATALOAD SWAP1 PUSH4 0xFFFFFFFF PUSH1 0xE0 SHL DUP3 AND DUP1 SWAP3 SUB PUSH2 0x165 JUMPI PUSH1 0x20 SWAP2 PUSH4 0x7965DB0B PUSH1 0xE0 SHL DUP2 EQ SWAP1 DUP2 ISZERO PUSH2 0x1460 JUMPI JUMPDEST POP ISZERO ISZERO DUP2 MSTORE RETURN JUMPDEST PUSH4 0x1FFC9A7 PUSH1 0xE0 SHL EQ SWAP1 POP DUP4 PUSH2 0x1459 JUMP JUMPDEST PUSH1 0x4 CALLDATALOAD SWAP1 PUSH1 0x1 PUSH1 0x1 PUSH1 0xA0 SHL SUB DUP3 AND DUP3 SUB PUSH2 0x165 JUMPI JUMP JUMPDEST PUSH1 0x24 CALLDATALOAD SWAP1 PUSH1 0x1 PUSH1 0x1 PUSH1 0xA0 SHL SUB DUP3 AND DUP3 SUB PUSH2 0x165 JUMPI JUMP JUMPDEST SWAP1 PUSH1 0x1 DUP3 DUP2 SHR SWAP3 AND DUP1 ISZERO PUSH2 0x14CD JUMPI JUMPDEST PUSH1 0x20 DUP4 LT EQ PUSH2 0x14B7 JUMPI JUMP JUMPDEST PUSH4 0x4E487B71 PUSH1 0xE0 SHL PUSH1 0x0 MSTORE PUSH1 0x22 PUSH1 0x4 MSTORE PUSH1 0x24 PUSH1 0x0 REVERT JUMPDEST SWAP2 PUSH1 0x7F AND SWAP2 PUSH2 0x14AC JUMP JUMPDEST SWAP1 PUSH1 0x1F DUP1 NOT SWAP2 ADD AND DUP2 ADD SWAP1 DUP2 LT PUSH8 0xFFFFFFFFFFFFFFFF DUP3 GT OR PUSH2 0x759 JUMPI PUSH1 0x40 MSTORE JUMP JUMPDEST CALLER PUSH1 0x0 SWAP1 DUP2 MSTORE PUSH32 0x50EFBDE2D46C37E9785F1791697F77E94BB7B701E19F1930A668820722D37694 PUSH1 0x20 MSTORE PUSH1 0x40 SWAP1 KECCAK256 SLOAD PUSH32 0xA49807205CE4D355092EF5A8A18F56E8913CF4A201FBE287825B095693C21775 SWAP1 PUSH1 0xFF AND ISZERO PUSH2 0x1555 JUMPI POP JUMP JUMPDEST PUSH1 0x44 SWAP1 PUSH1 0x40 MLOAD SWAP1 PUSH4 0xE2517D3F PUSH1 0xE0 SHL DUP3 MSTORE CALLER PUSH1 0x4 DUP4 ADD MSTORE PUSH1 0x24 DUP3 ADD MSTORE REVERT JUMPDEST DUP1 PUSH1 0x0 MSTORE PUSH1 0x1 PUSH1 0x20 MSTORE PUSH1 0x40 PUSH1 0x0 KECCAK256 CALLER PUSH1 0x0 MSTORE PUSH1 0x20 MSTORE PUSH1 0xFF PUSH1 0x40 PUSH1 0x0 KECCAK256 SLOAD AND ISZERO PUSH2 0x1555 JUMPI POP JUMP JUMPDEST SWAP1 PUSH1 0x0 SWAP2 DUP1 DUP4 MSTORE PUSH1 0x1 PUSH1 0x20 MSTORE PUSH1 0x40 DUP4 KECCAK256 SWAP2 PUSH1 0x1 DUP1 PUSH1 0xA0 SHL SUB AND SWAP2 DUP3 DUP5 MSTORE PUSH1 0x20 MSTORE PUSH1 0xFF PUSH1 0x40 DUP5 KECCAK256 SLOAD AND ISZERO PUSH1 0x0 EQ PUSH2 0x1614 JUMPI DUP1 DUP4 MSTORE PUSH1 0x1 PUSH1 0x20 MSTORE PUSH1 0x40 DUP4 KECCAK256 DUP3 DUP5 MSTORE PUSH1 0x20 MSTORE PUSH1 0x40 DUP4 KECCAK256 PUSH1 0x1 PUSH1 0xFF NOT DUP3 SLOAD AND OR SWAP1 SSTORE PUSH32 0x2F8788117E7EFF1D82E926EC794901D17C78024A50270940304540A733656F0D CALLER SWAP4 DUP1 LOG4 PUSH1 0x1 SWAP1 JUMP JUMPDEST POP POP SWAP1 JUMP JUMPDEST SWAP1 PUSH1 0x0 SWAP2 DUP1 DUP4 MSTORE PUSH1 0x1 PUSH1 0x20 MSTORE PUSH1 0x40 DUP4 KECCAK256 SWAP2 PUSH1 0x1 DUP1 PUSH1 0xA0 SHL SUB AND SWAP2 DUP3 DUP5 MSTORE PUSH1 0x20 MSTORE PUSH1 0xFF PUSH1 0x40 DUP5 KECCAK256 SLOAD AND PUSH1 0x0 EQ PUSH2 0x1614 JUMPI DUP1 DUP4 MSTORE PUSH1 0x1 PUSH1 0x20 MSTORE PUSH1 0x40 DUP4 KECCAK256 DUP3 DUP5 MSTORE PUSH1 0x20 MSTORE PUSH1 0x40 DUP4 KECCAK256 PUSH1 0xFF NOT DUP2 SLOAD AND SWAP1 SSTORE PUSH32 0xF6391F5C32D9C69D2A47EA670B442974B53935D1EDC7FD64EB21E047A839171B CALLER SWAP4 DUP1 LOG4 PUSH1 0x1 SWAP1 JUMP JUMPDEST SWAP1 DUP2 PUSH1 0x20 SWAP2 SUB SLT PUSH2 0x165 JUMPI MLOAD DUP1 ISZERO ISZERO DUP2 SUB PUSH2 0x165 JUMPI SWAP1 JUMP JUMPDEST ISZERO PUSH2 0x16AF JUMPI JUMP JUMPDEST PUSH1 0x40 MLOAD PUSH3 0x461BCD PUSH1 0xE5 SHL DUP2 MSTORE PUSH1 0x20 PUSH1 0x4 DUP3 ADD MSTORE PUSH1 0x1D PUSH1 0x24 DUP3 ADD MSTORE PUSH32 0x436C696D6174655374616B653A207472616E73666572206661696C6564000000 PUSH1 0x44 DUP3 ADD MSTORE PUSH1 0x64 SWAP1 REVERT JUMPDEST PUSH1 0x0 NOT DUP2 EQ PUSH2 0xA82 JUMPI PUSH1 0x1 ADD SWAP1 JUMP JUMPDEST SWAP2 SWAP1 DUP3 ADD DUP1 SWAP3 GT PUSH2 0xA82 JUMPI JUMP JUMPDEST PUSH1 0xFF PUSH1 0x2 SLOAD AND PUSH2 0x171C JUMPI JUMP JUMPDEST PUSH1 0x40 MLOAD PUSH4 0xD93C0665 PUSH1 0xE0 SHL DUP2 MSTORE PUSH1 0x4 SWAP1 REVERT JUMPDEST PUSH1 0x2 PUSH1 0x0 SLOAD EQ PUSH2 0x173F JUMPI PUSH1 0x2 PUSH1 0x0 SSTORE JUMP JUMPDEST PUSH1 0x40 MLOAD PUSH4 0x3EE5AEB5 PUSH1 0xE0 SHL DUP2 MSTORE PUSH1 0x4 SWAP1 REVERT JUMPDEST SWAP2 SWAP1 DUP3 SUB SWAP2 DUP3 GT PUSH2 0xA82 JUMPI JUMP JUMPDEST DUP1 ISZERO PUSH2 0xA82 JUMPI PUSH1 0x0 NOT ADD SWAP1 JUMP INVALID LOG2 PUSH5 0x6970667358 0x22 SLT KECCAK256 0xB4 BLOCKHASH DUP12 CODESIZE PUSH12 0x80554A11B1B9C093EA49222A INVALID LOG0 0x25 PUSH24 0xC1BA5DB79331B81E4610C564736F6C634300081400332F87 DUP9 GT PUSH31 0x7EFF1D82E926EC794901D17C78024A50270940304540A733656F0D00000000 "},"methodIdentifiers":{"ADMIN_ROLE()":"75b238fc","ALERT_BURN_RATE()":"f3a14a8a","DEFAULT_ADMIN_ROLE()":"a217fddf","MIN_STAKE()":"cb1c2b5c","ORACLE_ROLE()":"07e2cea5","alertCount()":"ab446491","alerts(uint256)":"171d073a","checkAllowance(address,uint256)":"3daba0d7","getPlatformStats()":"136d8883","getRoleAdmin(bytes32)":"248a9ca3","getStake(address)":"7a766460","grantRole(bytes32,address)":"2f2ff15d","hasRole(bytes32,address)":"91d14854","kaiToken()":"9bcfdfc0","pause()":"8456cb59","paused()":"5c975abb","renounceRole(bytes32,address)":"36568abe","revokeRole(bytes32,address)":"d547741f","sendAlert(uint8,string,address[])":"6e05afd7","stake(uint256)":"a694fc3a","stakes(address)":"16934fc4","supportsInterface(bytes4)":"01ffc9a7","totalAlertsSent()":"ecb334ab","totalStaked()":"817b1cd2","totalUsers()":"bff1f9e1","unpause()":"3f4ba83a","unstake()":"2def6620"}}}}}