{"contracts/KAI_Oracle.sol":{"KAI_Oracle":{"abi":[{"inputs":[{"internalType":"address","name":"_kaiToken","type":"address"},{"internalType":"address","name":"_climateStaking","type":"address"},{"internalType":"address","name":"admin","type":"address"},{"internalType":"address","name":"oracleOperator","type":"address"},{"internalType":"address[]","name":"guardians","type":"address[]"}],"stateMutability":"nonpayable","type":"constructor"},{"inputs":[],"name":"AccessControlBadConfirmation","type":"error"},{"inputs":[{"internalType":"address","name":"account","type":"address"},{"internalType":"bytes32","name":"neededRole","type":"bytes32"}],"name":"AccessControlUnauthorizedAccount","type":"error"},{"inputs":[],"name":"EnforcedPause","type":"error"},{"inputs":[],"name":"ExpectedPause","type":"error"},{"inputs":[],"name":"ReentrancyGuardReentrantCall","type":"error"},{"anonymous":false,"inputs":[{"indexed":true,"internalType":"uint256","name":"alertId","type":"uint256"},{"indexed":false,"internalType":"uint256","name":"recipientCount","type":"uint256"},{"indexed":false,"internalType":"uint256","name":"burnedAmount","type":"uint256"},{"indexed":false,"internalType":"uint256","name":"operatorReward","type":"uint256"}],"name":"AlertExecuted","type":"event"},{"anonymous":false,"inputs":[{"indexed":true,"internalType":"uint256","name":"alertId","type":"uint256"},{"indexed":false,"internalType":"string","name":"reason","type":"string"}],"name":"AlertRejected","type":"event"},{"anonymous":false,"inputs":[{"indexed":true,"internalType":"uint256","name":"alertId","type":"uint256"},{"indexed":true,"internalType":"uint8","name":"alertType","type":"uint8"},{"indexed":false,"internalType":"string","name":"region","type":"string"},{"indexed":false,"internalType":"uint256","name":"confidence","type":"uint256"},{"indexed":false,"internalType":"address","name":"operator","type":"address"}],"name":"AlertSubmitted","type":"event"},{"anonymous":false,"inputs":[{"indexed":true,"internalType":"uint256","name":"alertId","type":"uint256"},{"indexed":true,"internalType":"address","name":"guardian","type":"address"},{"indexed":false,"internalType":"string","name":"reason","type":"string"}],"name":"EmergencyOverride","type":"event"},{"anonymous":false,"inputs":[{"indexed":true,"internalType":"address","name":"operator","type":"address"},{"indexed":false,"internalType":"uint256","name":"amount","type":"uint256"}],"name":"OracleRewarded","type":"event"},{"anonymous":false,"inputs":[{"indexed":false,"internalType":"address","name":"account","type":"address"}],"name":"Paused","type":"event"},{"anonymous":false,"inputs":[{"indexed":true,"internalType":"bytes32","name":"role","type":"bytes32"},{"indexed":true,"internalType":"bytes32","name":"previousAdminRole","type":"bytes32"},{"indexed":true,"internalType":"bytes32","name":"newAdminRole","type":"bytes32"}],"name":"RoleAdminChanged","type":"event"},{"anonymous":false,"inputs":[{"indexed":true,"internalType":"bytes32","name":"role","type":"bytes32"},{"indexed":true,"internalType":"address","name":"account","type":"address"},{"indexed":true,"internalType":"address","name":"sender","type":"address"}],"name":"RoleGranted","type":"event"},{"anonymous":false,"inputs":[{"indexed":true,"internalType":"bytes32","name":"role","type":"bytes32"},{"indexed":true,"internalType":"address","name":"account","type":"address"},{"indexed":true,"internalType":"address","name":"sender","type":"address"}],"name":"RoleRevoked","type":"event"},{"anonymous":false,"inputs":[{"indexed":false,"internalType":"address","name":"account","type":"address"}],"name":"Unpaused","type":"event"},{"inputs":[],"name":"ADMIN_ROLE","outputs":[{"internalType":"bytes32","name":"","type":"bytes32"}],"stateMutability":"view","type":"function"},{"inputs":[],"name":"ALERT_COOLDOWN","outputs":[{"internalType":"uint256","name":"","type":"uint256"}],"stateMutability":"view","type":"function"},{"inputs":[],"name":"CONFIDENCE_MULTIPLIER","outputs":[{"internalType":"uint256","name":"","type":"uint256"}],"stateMutability":"view","type":"function"},{"inputs":[],"name":"DEFAULT_ADMIN_ROLE","outputs":[{"internalType":"bytes32","name":"","type":"bytes32"}],"stateMutability":"view","type":"function"},{"inputs":[],"name":"GUARDIAN_ROLE","outputs":[{"internalType":"bytes32","name":"","type":"bytes32"}],"stateMutability":"view","type":"function"},{"inputs":[],"name":"MAX_ALERTS_PER_DAY","outputs":[{"internalType":"uint256","name":"","type":"uint256"}],"stateMutability":"view","type":"function"},{"inputs":[],"name":"MIN_CONFIDENCE","outputs":[{"internalType":"uint256","name":"","type":"uint256"}],"stateMutability":"view","type":"function"},{"inputs":[],"name":"ORACLE_OPERATOR_ROLE","outputs":[{"internalType":"bytes32","name":"","type":"bytes32"}],"stateMutability":"view","type":"function"},{"inputs":[],"name":"ORACLE_REWARD_RATE","outputs":[{"internalType":"uint256","name":"","type":"uint256"}],"stateMutability":"view","type":"function"},{"inputs":[{"internalType":"address","name":"operator","type":"address"}],"name":"addOracleOperator","outputs":[],"stateMutability":"nonpayable","type":"function"},{"inputs":[],"name":"alertCount","outputs":[{"internalType":"uint256","name":"","type":"uint256"}],"stateMutability":"view","type":"function"},{"inputs":[{"internalType":"uint256","name":"","type":"uint256"}],"name":"alerts","outputs":[{"internalType":"uint8","name":"alertType","type":"uint8"},{"internalType":"bytes32","name":"seal","type":"bytes32"},{"internalType":"string","name":"region","type":"string"},{"internalType":"uint256","name":"confidence","type":"uint256"},{"internalType":"uint256","name":"severity","type":"uint256"},{"internalType":"string","name":"dataSource","type":"string"},{"internalType":"uint256","name":"timestamp","type":"uint256"},{"internalType":"bool","name":"executed","type":"bool"},{"internalType":"uint256","name":"burnedAmount","type":"uint256"}],"stateMutability":"view","type":"function"},{"inputs":[],"name":"claimRewards","outputs":[],"stateMutability":"nonpayable","type":"function"},{"inputs":[],"name":"climateStaking","outputs":[{"internalType":"contract ClimateAlertStaking","name":"","type":"address"}],"stateMutability":"view","type":"function"},{"inputs":[{"internalType":"string","name":"","type":"string"},{"internalType":"uint256","name":"","type":"uint256"}],"name":"dailyAlertCount","outputs":[{"internalType":"uint256","name":"","type":"uint256"}],"stateMutability":"view","type":"function"},{"inputs":[{"internalType":"uint256","name":"alertId","type":"uint256"},{"internalType":"string","name":"reason","type":"string"}],"name":"emergencyOverride","outputs":[],"stateMutability":"nonpayable","type":"function"},{"inputs":[{"internalType":"uint256","name":"alertId","type":"uint256"}],"name":"getAlert","outputs":[{"internalType":"uint8","name":"alertType","type":"uint8"},{"internalType":"string","name":"region","type":"string"},{"internalType":"uint256","name":"confidence","type":"uint256"},{"internalType":"uint256","name":"severity","type":"uint256"},{"internalType":"bool","name":"executed","type":"bool"},{"internalType":"uint256","name":"burnedAmount","type":"uint256"},{"internalType":"uint256","name":"timestamp","type":"uint256"}],"stateMutability":"view","type":"function"},{"inputs":[],"name":"getOracleStats","outputs":[{"internalType":"uint256","name":"_totalAlerts","type":"uint256"},{"internalType":"uint256","name":"_totalExecuted","type":"uint256"},{"internalType":"uint256","name":"_averageConfidence","type":"uint256"},{"internalType":"uint256","name":"_totalRewardsPaid","type":"uint256"}],"stateMutability":"view","type":"function"},{"inputs":[{"internalType":"bytes32","name":"role","type":"bytes32"}],"name":"getRoleAdmin","outputs":[{"internalType":"bytes32","name":"","type":"bytes32"}],"stateMutability":"view","type":"function"},{"inputs":[{"internalType":"bytes32","name":"role","type":"bytes32"},{"internalType":"address","name":"account","type":"address"}],"name":"grantRole","outputs":[],"stateMutability":"nonpayable","type":"function"},{"inputs":[{"internalType":"bytes32","name":"role","type":"bytes32"},{"internalType":"address","name":"account","type":"address"}],"name":"hasRole","outputs":[{"internalType":"bool","name":"","type":"bool"}],"stateMutability":"view","type":"function"},{"inputs":[],"name":"kaiToken","outputs":[{"internalType":"contract KAIToken","name":"","type":"address"}],"stateMutability":"view","type":"function"},{"inputs":[{"internalType":"string","name":"","type":"string"},{"internalType":"uint8","name":"","type":"uint8"}],"name":"lastAlertTime","outputs":[{"internalType":"uint256","name":"","type":"uint256"}],"stateMutability":"view","type":"function"},{"inputs":[{"internalType":"address","name":"","type":"address"}],"name":"operatorRewards","outputs":[{"internalType":"uint256","name":"","type":"uint256"}],"stateMutability":"view","type":"function"},{"inputs":[],"name":"pause","outputs":[],"stateMutability":"nonpayable","type":"function"},{"inputs":[],"name":"paused","outputs":[{"internalType":"bool","name":"","type":"bool"}],"stateMutability":"view","type":"function"},{"inputs":[{"internalType":"bytes32","name":"role","type":"bytes32"},{"internalType":"address","name":"callerConfirmation","type":"address"}],"name":"renounceRole","outputs":[],"stateMutability":"nonpayable","type":"function"},{"inputs":[{"internalType":"bytes32","name":"role","type":"bytes32"},{"internalType":"address","name":"account","type":"address"}],"name":"revokeRole","outputs":[],"stateMutability":"nonpayable","type":"function"},{"inputs":[{"internalType":"uint8","name":"alertType","type":"uint8"},{"internalType":"string","name":"region","type":"string"},{"internalType":"uint256","name":"confidence","type":"uint256"},{"internalType":"uint256","name":"severity","type":"uint256"},{"internalType":"string","name":"dataSource","type":"string"},{"internalType":"address[]","name":"recipients","type":"address[]"}],"name":"submitAlert","outputs":[{"internalType":"uint256","name":"","type":"uint256"}],"stateMutability":"nonpayable","type":"function"},{"inputs":[{"internalType":"bytes4","name":"interfaceId","type":"bytes4"}],"name":"supportsInterface","outputs":[{"internalType":"bool","name":"","type":"bool"}],"stateMutability":"view","type":"function"},{"inputs":[],"name":"totalAlertsExecuted","outputs":[{"internalType":"uint256","name":"","type":"uint256"}],"stateMutability":"view","type":"function"},{"inputs":[],"name":"totalConfidenceScore","outputs":[{"internalType":"uint256","name":"","type":"uint256"}],"stateMutability":"view","type":"function"},{"inputs":[],"name":"totalRewardsPaid","outputs":[{"internalType":"uint256","name":"","type":"uint256"}],"stateMutability":"view","type":"function"},{"inputs":[],"name":"unpause","outputs":[],"stateMutability":"nonpayable","type":"function"}],"evm":{"bytecode":{"linkReferences":{},"object":"604060c08152346200033f576200253890813803806200001f816200035a565b93843982019160a0818403126200033f576200003b8162000380565b6020906200004b82840162000380565b916200005985850162000380565b93620000686060820162000380565b96608082015160018060401b03928382116200033f57019080601f830112156200033f578151928311620003445760059183831b908580620000ac8185016200035a565b8097815201928201019283116200033f5785809101915b83831062000324575050505060019560009587875560018060a01b03809616908115620002e05786169081156200029c57868316156200025857868b1615620002145788855110620001d0576200013b92899b92620001349260805260a0526200012d8162000395565b5062000416565b50620004b9565b5084975b62000182575b8651611f229081620005f6823960805181818161050d01526113ba015260a0518181816101ac01528181610a6f01528181610b070152610b9e0152f35b8151881015620001ca57620001a084848a841b850101511662000557565b506000198814620001b65796850196856200013f565b634e487b7160e01b85526011600452602485fd5b62000145565b895162461bcd60e51b815260048101879052601660248201527f4f7261636c653a206e65656420677561726469616e73000000000000000000006044820152606490fd5b895162461bcd60e51b815260048101879052601860248201527f4f7261636c653a20696e76616c6964206f70657261746f7200000000000000006044820152606490fd5b895162461bcd60e51b815260048101879052601560248201527f4f7261636c653a20696e76616c69642061646d696e00000000000000000000006044820152606490fd5b895162461bcd60e51b815260048101879052601760248201527f4f7261636c653a20696e76616c6964207374616b696e670000000000000000006044820152606490fd5b895162461bcd60e51b815260048101879052601560248201527f4f7261636c653a20696e76616c696420746f6b656e00000000000000000000006044820152606490fd5b8190620003318462000380565b8152019101908590620000c3565b600080fd5b634e487b7160e01b600052604160045260246000fd5b6040519190601f01601f191682016001600160401b038111838210176200034457604052565b51906001600160a01b03821682036200033f57565b6001600160a01b031660008181527fa6eef7e35abe7026729641147f7915573c7e97b47efa546f5f6e3230263bcb49602052604081205490919060ff16620004125781805260016020526040822081835260205260408220600160ff198254161790553391600080516020620025188339815191528180a4600190565b5090565b6001600160a01b031660008181527f50efbde2d46c37e9785f1791697f77e94bb7b701e19f1930a668820722d3769460205260408120549091907fa49807205ce4d355092ef5a8a18f56e8913cf4a201fbe287825b095693c217759060ff16620004b45780835260016020526040832082845260205260408320600160ff1982541617905560008051602062002518833981519152339380a4600190565b505090565b6001600160a01b031660008181527f8ef1f5b0844a73060266bc261a82e6bc043ae729756e57ebe49c7306d822b48a60205260408120549091907ff9b712ed3cd0e90cdc9d1abac8fb677bf018af115fb294c768a96b48bd6922c59060ff16620004b45780835260016020526040832082845260205260408320600160ff1982541617905560008051602062002518833981519152339380a4600190565b6001600160a01b031660008181527fe8fad4b49f5ba25b2c682cfec2ac50a7a40bbd1e12ab51733ec3e9c2f6f1c5db60205260408120549091907f55435dd261a4b9b3364963f7738a7a662ad9c84396d64be3365284bb7f0a50419060ff16620004b45780835260016020526040832082845260205260408320600160ff1982541617905560008051602062002518833981519152339380a460019056fe608080604052600436101561001357600080fd5b600090813560e01c90816301ffc9a71461179a575080630f2b34441461177e57806311d11a5b14611743578063171d073a1461168d578063248a9ca31461166157806324ea54f41461162657806328e6ef3f146115a75780632c1529981461158a5780632f2ff15d1461154c578063344b5a20146114e557806336568abe1461149d578063372500ab1461136e5780633f4ba83a1461130357806341a2b8d6146112ca57806341f93757146112ae5780635c975abb1461128b5780636f3b96221461126d57806371ca31761461125157806374958e351461123357806375b238fc146111f85780637e3059981461066f5780638456cb5914610614578063850818861461058857806391d148541461053c5780639bcfdfc0146104f7578063a217fddf146104db578063ab446491146104bd578063c6c035b514610452578063cacb6541146102de578063cd258033146102c1578063d30f5ce91461023e578063d547741f146101fc578063ea9eb835146101de5763eaa043151461019757600080fd5b346101db57806003193601126101db576040517f00000000000000000000000000000000000000000000000000000000000000006001600160a01b03168152602090f35b80fd5b50346101db57806003193601126101db576020600a54604051908152f35b50346101db5760403660031901126101db5761023a60043561021c611977565b9080845260016020526102356001604086200154611a6c565b611bc0565b5080f35b50346101db5760403660031901126101db576004356001600160401b0381116102bd5761026f90369060040161198d565b6024359060ff82168092036102b8576020610297918160405193828580945193849201611919565b81016006815203019020906000526020526020604060002054604051908152f35b600080fd5b5080fd5b50346101db57806003193601126101db57602060405161012c8152f35b50346101db5760403660031901126101db576004356024356001600160401b03811161044e576103129036906004016119e3565b3360009081527fe8fad4b49f5ba25b2c682cfec2ac50a7a40bbd1e12ab51733ec3e9c2f6f1c5db602090815260409091205490939291907f55435dd261a4b9b3364963f7738a7a662ad9c84396d64be3365284bb7f0a50419060ff1615610430575082151580610424575b156103e757907f6a57ceeb7cdf86a63aaa04d3a9a7e03b9d3cdaba40e7d63cc373c4eb54aa7900918386526004855260086040872001600181546103c460ff821615611ce2565b60ff19161790556103e16040519283928784523397840191611c80565b0390a380f35b60405162461bcd60e51b815260048101859052601560248201527413dc9858db194e881a5b9d985b1a5908185b195c9d605a1b6044820152606490fd5b5060035483111561037d565b6044906040519063e2517d3f60e01b82523360048301526024820152fd5b8280fd5b50346101db57806003193601126101db57600a54801591826104b357506009549161049d578060809204905b6003549160085491604051938452602084015260408301526060820152f35b634e487b7160e01b600052601260045260246000fd5b608092509061047e565b50346101db57806003193601126101db576020600354604051908152f35b50346101db57806003193601126101db57602090604051908152f35b50346101db57806003193601126101db576040517f00000000000000000000000000000000000000000000000000000000000000006001600160a01b03168152602090f35b50346101db5760403660031901126101db576040610558611977565b9160043581526001602052209060018060a01b0316600052602052602060ff604060002054166040519015158152f35b50346101db5760203660031901126101db57604090600435815260046020522060ff815416600382015460048301549260ff6008820154166009820154906105d7600260078501549401611873565b956105f4604051978897885260e0602089015260e088019061193c565b94604087015260608601521515608085015260a084015260c08301520390f35b50346101db57806003193601126101db5761062d611a10565b610635611ca1565b600160ff1960025416176002557f62e78cea01bee320cd4e420270b5ea74000d11b0c9f74754ebdbfc544b05a2586020604051338152a180f35b50346101db5760c03660031901126101db5760ff60043516600435036102b8576024356001600160401b0381116102bd576106ae9036906004016119e3565b6084929192356001600160401b03811161044e576106d09036906004016119e3565b6001600160401b0360a495929535116111f45736602360a4350112156111f4576001600160401b0360a43560040135116111f45736602460a4356004013560051b60a4350101116111f4573360009081527f8ef1f5b0844a73060266bc261a82e6bc043ae729756e57ebe49c7306d822b48a60205260409020547ff9b712ed3cd0e90cdc9d1abac8fb677bf018af115fb294c768a96b48bd6922c59060ff1615610430575061077d611ca1565b610785611cbf565b600160ff600435161015806111e4575b156111a857606460443511611163576001606435101580611156575b156111115760a43560040135156110d45782156110985742620151804206420311610d485760405183838237602081858101600581520301902062015180420642038552602052600a604085205410156110535760405183838237602081858101600681520301902060ff600435166000526020526040600020546154608101809111610c1a57421061100e57610849600435611d74565b94610855600354611c5a565b8060035585526004602052604085209560ff6004351660ff1988541617875560018701556001600160401b038411610f525761089460028701546117ef565b601f8111610fdb575b508385601f8211600114610f71578691610f66575b508460011b906000198660031b1c19161760028701555b604435600387015560643560048701556001600160401b038211610f525781906108f660058801546117ef565b601f8111610f14575b508590601f8311600114610ea8578692610e9d575b50508160011b916000199060031b1c19161760058501555b6801000000000000000060a4356004013511610e8957600684018054600460a435013591829055908111610e65575b506006840183526020832060a435602401845b60a435600401358110610e3c575050506008610a26944260078201550160ff19815416905560405182828237602081848101600581520301902062015180420642038452602052604083206109c38154611c5a565b905560405182828237602081848101600681520301902060ff60043516600052602052426040600020557f9a4510f1ea344006c4da008f109bacf2dcfe6bf7fdfec2bd2ecbfcf7089bf63860035494859260405194606086526060860191611c80565b9260443560208201523360408201528060ff60043516940390a3605060443510610dde5781815260046020526040812090610a6860ff60088401541615611ce2565b815460ff167f00000000000000000000000000000000000000000000000000000000000000006001600160a01b03163b156102bd5760405190636e05afd760e01b82526004820152606060248201528181816002860154610ac8816117ef565b9081606485015283600182169182600014610dbc575050600114610d7b575b50610b02829160031983820301604484015260068801611d2e565b0381837f00000000000000000000000000000000000000000000000000000000000000006001600160a01b03165af18015610d7057908291610d5c575b5050604051610b5c81610b558160068701611d2e565b0382611852565b8193825b8251811015610c8e57600581901b8301602001516040516303d3b32360e51b81526001600160a01b0391821660048201529060a090829060249082907f0000000000000000000000000000000000000000000000000000000000000000165afa8015610c835785918691610c37575b5080610c2e575b610bea575b50610be590611c5a565b610b60565b6103e896919690818102918183041490151715610c1a57610be591612710610c13920490611c37565b9590610bdb565b634e487b7160e01b85526011600452602485fd5b50801515610bd6565b91505060a0813d60a011610c7b575b81610c5360a09383611852565b81010312610c775760808151910151908115158203610c73579038610bcf565b8580fd5b8480fd5b3d9150610c46565b6040513d87823e3d90fd5b509192905061012c808502908582041485151715610d48576020947f0431ca793568ba40132b7f9e11da4badfaa9ac7826e39cde4a2982860ce30f679260066127106060940491600160ff19600883015416176008820155836009820155610cf7600a54611c5a565b600a55610d0a6003820154600954611c37565b6009553388526007895260408820610d23848254611c37565b9055015491604051928352878301526040820152a25b60016003549155604051908152f35b634e487b7160e01b84526011600452602484fd5b610d6590611829565b6101db578038610b3f565b6040513d84823e3d90fd5b600287018452602084208492505b818310610d9f5750508101608401610b02610ae7565b805460848488010152869450859350602090920191600101610d89565b610b02939194506084925060ff191682850152151560051b8301019150610ae7565b6020917f17d9f630dda16902fffa0b25afdcad243b3b00a53a4cda9f2ac5e6fe76e302ce6060604051858152601a868201527f436f6e666964656e63652062656c6f77207468726573686f6c640000000000006040820152a2610d39565b8135916001600160a01b0383168303610e61579060206001920192818501550161096e565b8680fd5b60068501845260208420610e8391810190600460a435013501611c69565b3861095b565b634e487b7160e01b83526041600452602483fd5b013590503880610914565b60058801875260208720879450915b601f1984168510610efc576001945083601f19811610610ee2575b505050811b01600585015561092c565b0135600019600384901b60f8161c19169055388080610ed2565b81810135835560209485019460019093019201610eb7565b610f429060058901885260208820601f850160051c81019160208610610f48575b601f0160051c0190611c69565b386108ff565b9091508190610f35565b634e487b7160e01b85526041600452602485fd5b9050830135386108b2565b600288018752602087209150865b601f1987168110610fc3575085601f19811610610fa9575b5050600184811b0160028701556108c9565b840135600019600387901b60f8161c191690553880610f97565b90916020600181928589013581550193019101610f7f565b6110089060028801875260208720601f870160051c81019160208810610f4857601f0160051c0190611c69565b3861089d565b60405162461bcd60e51b815260206004820152601760248201527f4f7261636c653a20636f6f6c646f776e206163746976650000000000000000006044820152606490fd5b60405162461bcd60e51b815260206004820152601b60248201527f4f7261636c653a2072617465206c696d697420657863656564656400000000006044820152606490fd5b60405162461bcd60e51b815260206004820152601460248201527327b930b1b6329d1032b6b83a3c903932b3b4b7b760611b6044820152606490fd5b60405162461bcd60e51b81526020600482015260156024820152744f7261636c653a206e6f20726563697069656e747360581b6044820152606490fd5b60405162461bcd60e51b815260206004820152601860248201527f4f7261636c653a20696e76616c696420736576657269747900000000000000006044820152606490fd5b50600560643511156107b1565b60405162461bcd60e51b815260206004820152601a60248201527f4f7261636c653a20696e76616c696420636f6e666964656e63650000000000006044820152606490fd5b60405162461bcd60e51b81526020600482015260146024820152734f7261636c653a20696e76616c6964207479706560601b6044820152606490fd5b50600760ff600435161115610795565b8380fd5b50346101db57806003193601126101db5760206040517fa49807205ce4d355092ef5a8a18f56e8913cf4a201fbe287825b095693c217758152f35b50346101db57806003193601126101db576020600854604051908152f35b50346101db57806003193601126101db57602060405160648152f35b50346101db57806003193601126101db576020600954604051908152f35b50346101db57806003193601126101db57602060ff600254166040519015158152f35b50346101db57806003193601126101db57602060405160508152f35b50346101db5760203660031901126101db576020906040906001600160a01b036112f2611961565b168152600783522054604051908152f35b50346101db57806003193601126101db5761131c611a10565b60025460ff81161561135c5760ff19166002557f5db9ee0a495bf2e6ff9c91a7834c1ba4fdd244a5e8aa4e537bd38aeae4b073aa6020604051338152a180f35b604051638dfc202b60e01b8152600490fd5b50346101db57806003193601126101db57611387611cbf565b338152600760205260408120549081156114635733815260076020528060408120556113b582600854611c37565b6008557f00000000000000000000000000000000000000000000000000000000000000006001600160a01b0316803b156102bd578180916064604051809481936354156bd160e01b8352336004840152886024840152600560448401525af18015610d7057611454575b50906040519081527f8e411d31cabf3aa3f89c6092861ba364b87ac0ed40cbeb111ded5ede0c53d21260203392a26001815580f35b61145d90611829565b3861141f565b60405162461bcd60e51b81526020600482015260126024820152714f7261636c653a206e6f207265776172647360701b6044820152606490fd5b50346101db5760403660031901126101db576114b7611977565b336001600160a01b038216036114d35761023a90600435611bc0565b60405163334bd91960e11b8152600490fd5b50346101db5760403660031901126101db576004356001600160401b0381116102bd576020916115318361151f604094369060040161198d565b81855193828580945193849201611919565b81016005815203019020602435825283522054604051908152f35b50346101db5760403660031901126101db5761023a60043561156c611977565b9080845260016020526115856001604086200154611a6c565b611b45565b50346101db57806003193601126101db5760206040516154608152f35b50346101db5760203660031901126101db576115c1611961565b6115c9611a10565b6001600160a01b038116156115e15761023a90611a92565b60405162461bcd60e51b815260206004820152601860248201527f4f7261636c653a20696e76616c6964206f70657261746f7200000000000000006044820152606490fd5b50346101db57806003193601126101db5760206040517f55435dd261a4b9b3364963f7738a7a662ad9c84396d64be3365284bb7f0a50418152f35b50346101db5760203660031901126101db57600160406020926004358152828452200154604051908152f35b50346101db5760203660031901126101db57604090600435815260046020522060ff8154166001820154916116c460028201611873565b60038201549161172c6004820154936116df60058401611873565b600784015495611714600960ff600888015416960154966040519a8b9a8b5260208b01526101208060408c01528a019061193c565b926060890152608088015286820360a088015261193c565b9260c0850152151560e08401526101008301520390f35b50346101db57806003193601126101db5760206040517ff9b712ed3cd0e90cdc9d1abac8fb677bf018af115fb294c768a96b48bd6922c58152f35b50346101db57806003193601126101db576020604051600a8152f35b9050346102bd5760203660031901126102bd5760043563ffffffff60e01b811680910361044e5760209250637965db0b60e01b81149081156117de575b5015158152f35b6301ffc9a760e01b149050386117d7565b90600182811c9216801561181f575b602083101461180957565b634e487b7160e01b600052602260045260246000fd5b91607f16916117fe565b6001600160401b03811161183c57604052565b634e487b7160e01b600052604160045260246000fd5b90601f801991011681019081106001600160401b0382111761183c57604052565b9060405191826000825492611887846117ef565b9081845260019485811690816000146118f657506001146118b3575b50506118b192500383611852565b565b9093915060005260209081600020936000915b8183106118de5750506118b1935082010138806118a3565b855488840185015294850194879450918301916118c6565b9150506118b194506020925060ff191682840152151560051b82010138806118a3565b60005b83811061192c5750506000910152565b818101518382015260200161191c565b9060209161195581518092818552858086019101611919565b601f01601f1916010190565b600435906001600160a01b03821682036102b857565b602435906001600160a01b03821682036102b857565b81601f820112156102b8578035906001600160401b03821161183c57604051926119c1601f8401601f191660200185611852565b828452602083830101116102b857816000926020809301838601378301015290565b9181601f840112156102b8578235916001600160401b0383116102b857602083818601950101116102b857565b3360009081527f50efbde2d46c37e9785f1791697f77e94bb7b701e19f1930a668820722d3769460205260409020547fa49807205ce4d355092ef5a8a18f56e8913cf4a201fbe287825b095693c217759060ff16156104305750565b80600052600160205260406000203360005260205260ff60406000205416156104305750565b6001600160a01b031660008181527f8ef1f5b0844a73060266bc261a82e6bc043ae729756e57ebe49c7306d822b48a60205260408120549091907ff9b712ed3cd0e90cdc9d1abac8fb677bf018af115fb294c768a96b48bd6922c59060ff16611b405780835260016020526040832082845260205260408320600160ff198254161790557f2f8788117e7eff1d82e926ec794901d17c78024a50270940304540a733656f0d339380a4600190565b505090565b906000918083526001602052604083209160018060a01b03169182845260205260ff60408420541615600014611b405780835260016020526040832082845260205260408320600160ff198254161790557f2f8788117e7eff1d82e926ec794901d17c78024a50270940304540a733656f0d339380a4600190565b906000918083526001602052604083209160018060a01b03169182845260205260ff604084205416600014611b40578083526001602052604083208284526020526040832060ff1981541690557ff6391f5c32d9c69d2a47ea670b442974b53935d1edc7fd64eb21e047a839171b339380a4600190565b91908201809211611c4457565b634e487b7160e01b600052601160045260246000fd5b6000198114611c445760010190565b818110611c74575050565b60008155600101611c69565b908060209392818452848401376000828201840152601f01601f1916010190565b60ff60025416611cad57565b60405163d93c066560e01b8152600490fd5b600260005414611cd0576002600055565b604051633ee5aeb560e01b8152600490fd5b15611ce957565b60405162461bcd60e51b815260206004820152601860248201527f4f7261636c653a20616c726561647920657865637574656400000000000000006044820152606490fd5b90815480825260208092019260005281600020916000905b828210611d54575050505090565b83546001600160a01b031685529384019360019384019390910190611d46565b60ff1660018114611ec75760028114611ea25760038114611e7d5760048114611e585760058114611e335760068114611e0e57600714611dea5760405162461bcd60e51b81526020600482015260146024820152734f7261636c653a20696e76616c6964207479706560601b6044820152606490fd5b7f1456948c787b6bea2311410679f7fca225f0c17407127bb48f9aae4f0bc0a42490565b507f9ab95608efa90e42d0ac148c1b94f3dc1181d7a2722a638b493a943bcfb5b48f90565b507f2558eac5940f37323a05eaedb05b771532b42ba1a269a877869dc2814c0e5b5290565b507ff5eed3c8a1c89c67d932a7a654a03bc0971d406b80b924bb618aa2fab7158c3390565b507f735ac48ed4f0ad1a4cbd4f9c9cc37f1e17b8c19ab410ef4c9efeec698761f08a90565b507feb5407ca6ba8d11327cab70541bba19f6fd74f868b7eb52c23e0871f095c809390565b507f16b7c7c21ac9867c03381fb04ae49b08b3d47dbce5e18e8a840f439e93b7b01a9056fea2646970667358221220124ceb41cec7844243c1caa9ca6b774d1ba34c3899b76a5141b7f70f36bb7eac64736f6c634300081400332f8788117e7eff1d82e926ec794901d17c78024a50270940304540a733656f0d","opcodes":"PUSH1 0x40 PUSH1 0xC0 DUP2 MSTORE CALLVALUE PUSH3 0x33F JUMPI PUSH3 0x2538 SWAP1 DUP2 CODESIZE SUB DUP1 PUSH3 0x1F DUP2 PUSH3 0x35A JUMP JUMPDEST SWAP4 DUP5 CODECOPY DUP3 ADD SWAP2 PUSH1 0xA0 DUP2 DUP5 SUB SLT PUSH3 0x33F JUMPI PUSH3 0x3B DUP2 PUSH3 0x380 JUMP JUMPDEST PUSH1 0x20 SWAP1 PUSH3 0x4B DUP3 DUP5 ADD PUSH3 0x380 JUMP JUMPDEST SWAP2 PUSH3 0x59 DUP6 DUP6 ADD PUSH3 0x380 JUMP JUMPDEST SWAP4 PUSH3 0x68 PUSH1 0x60 DUP3 ADD PUSH3 0x380 JUMP JUMPDEST SWAP7 PUSH1 0x80 DUP3 ADD MLOAD PUSH1 0x1 DUP1 PUSH1 0x40 SHL SUB SWAP3 DUP4 DUP3 GT PUSH3 0x33F JUMPI ADD SWAP1 DUP1 PUSH1 0x1F DUP4 ADD SLT ISZERO PUSH3 0x33F JUMPI DUP2 MLOAD SWAP3 DUP4 GT PUSH3 0x344 JUMPI PUSH1 0x5 SWAP2 DUP4 DUP4 SHL SWAP1 DUP6 DUP1 PUSH3 0xAC DUP2 DUP6 ADD PUSH3 0x35A JUMP JUMPDEST DUP1 SWAP8 DUP2 MSTORE ADD SWAP3 DUP3 ADD ADD SWAP3 DUP4 GT PUSH3 0x33F JUMPI DUP6 DUP1 SWAP2 ADD SWAP2 JUMPDEST DUP4 DUP4 LT PUSH3 0x324 JUMPI POP POP POP POP PUSH1 0x1 SWAP6 PUSH1 0x0 SWAP6 DUP8 DUP8 SSTORE PUSH1 0x1 DUP1 PUSH1 0xA0 SHL SUB DUP1 SWAP7 AND SWAP1 DUP2 ISZERO PUSH3 0x2E0 JUMPI DUP7 AND SWAP1 DUP2 ISZERO PUSH3 0x29C JUMPI DUP7 DUP4 AND ISZERO PUSH3 0x258 JUMPI DUP7 DUP12 AND ISZERO PUSH3 0x214 JUMPI DUP9 DUP6 MLOAD LT PUSH3 0x1D0 JUMPI PUSH3 0x13B SWAP3 DUP10 SWAP12 SWAP3 PUSH3 0x134 SWAP3 PUSH1 0x80 MSTORE PUSH1 0xA0 MSTORE PUSH3 0x12D DUP2 PUSH3 0x395 JUMP JUMPDEST POP PUSH3 0x416 JUMP JUMPDEST POP PUSH3 0x4B9 JUMP JUMPDEST POP DUP5 SWAP8 JUMPDEST PUSH3 0x182 JUMPI JUMPDEST DUP7 MLOAD PUSH2 0x1F22 SWAP1 DUP2 PUSH3 0x5F6 DUP3 CODECOPY PUSH1 0x80 MLOAD DUP2 DUP2 DUP2 PUSH2 0x50D ADD MSTORE PUSH2 0x13BA ADD MSTORE PUSH1 0xA0 MLOAD DUP2 DUP2 DUP2 PUSH2 0x1AC ADD MSTORE DUP2 DUP2 PUSH2 0xA6F ADD MSTORE DUP2 DUP2 PUSH2 0xB07 ADD MSTORE PUSH2 0xB9E ADD MSTORE RETURN JUMPDEST DUP2 MLOAD DUP9 LT ISZERO PUSH3 0x1CA JUMPI PUSH3 0x1A0 DUP5 DUP5 DUP11 DUP5 SHL DUP6 ADD ADD MLOAD AND PUSH3 0x557 JUMP JUMPDEST POP PUSH1 0x0 NOT DUP9 EQ PUSH3 0x1B6 JUMPI SWAP7 DUP6 ADD SWAP7 DUP6 PUSH3 0x13F JUMP JUMPDEST PUSH4 0x4E487B71 PUSH1 0xE0 SHL DUP6 MSTORE PUSH1 0x11 PUSH1 0x4 MSTORE PUSH1 0x24 DUP6 REVERT JUMPDEST PUSH3 0x145 JUMP JUMPDEST DUP10 MLOAD PUSH3 0x461BCD PUSH1 0xE5 SHL DUP2 MSTORE PUSH1 0x4 DUP2 ADD DUP8 SWAP1 MSTORE PUSH1 0x16 PUSH1 0x24 DUP3 ADD MSTORE PUSH32 0x4F7261636C653A206E65656420677561726469616E7300000000000000000000 PUSH1 0x44 DUP3 ADD MSTORE PUSH1 0x64 SWAP1 REVERT JUMPDEST DUP10 MLOAD PUSH3 0x461BCD PUSH1 0xE5 SHL DUP2 MSTORE PUSH1 0x4 DUP2 ADD DUP8 SWAP1 MSTORE PUSH1 0x18 PUSH1 0x24 DUP3 ADD MSTORE PUSH32 0x4F7261636C653A20696E76616C6964206F70657261746F720000000000000000 PUSH1 0x44 DUP3 ADD MSTORE PUSH1 0x64 SWAP1 REVERT JUMPDEST DUP10 MLOAD PUSH3 0x461BCD PUSH1 0xE5 SHL DUP2 MSTORE PUSH1 0x4 DUP2 ADD DUP8 SWAP1 MSTORE PUSH1 0x15 PUSH1 0x24 DUP3 ADD MSTORE PUSH32 0x4F7261636C653A20696E76616C69642061646D696E0000000000000000000000 PUSH1 0x44 DUP3 ADD MSTORE PUSH1 0x64 SWAP1 REVERT JUMPDEST DUP10 MLOAD PUSH3 0x461BCD PUSH1 0xE5 SHL DUP2 MSTORE PUSH1 0x4 DUP2 ADD DUP8 SWAP1 MSTORE PUSH1 0x17 PUSH1 0x24 DUP3 ADD MSTORE PUSH32 0x4F7261636C653A20696E76616C6964207374616B696E67000000000000000000 PUSH1 0x44 DUP3 ADD MSTORE PUSH1 0x64 SWAP1 REVERT JUMPDEST DUP10 MLOAD PUSH3 0x461BCD PUSH1 0xE5 SHL DUP2 MSTORE PUSH1 0x4 DUP2 ADD DUP8 SWAP1 MSTORE PUSH1 0x15 PUSH1 0x24 DUP3 ADD MSTORE PUSH32 0x4F7261636C653A20696E76616C696420746F6B656E0000000000000000000000 PUSH1 0x44 DUP3 ADD MSTORE PUSH1 0x64 SWAP1 REVERT JUMPDEST DUP2 SWAP1 PUSH3 0x331 DUP5 PUSH3 0x380 JUMP JUMPDEST DUP2 MSTORE ADD SWAP2 ADD SWAP1 DUP6 SWAP1 PUSH3 0xC3 JUMP JUMPDEST PUSH1 0x0 DUP1 REVERT JUMPDEST PUSH4 0x4E487B71 PUSH1 0xE0 SHL PUSH1 0x0 MSTORE PUSH1 0x41 PUSH1 0x4 MSTORE PUSH1 0x24 PUSH1 0x0 REVERT JUMPDEST PUSH1 0x40 MLOAD SWAP2 SWAP1 PUSH1 0x1F ADD PUSH1 0x1F NOT AND DUP3 ADD PUSH1 0x1 PUSH1 0x1 PUSH1 0x40 SHL SUB DUP2 GT DUP4 DUP3 LT OR PUSH3 0x344 JUMPI PUSH1 0x40 MSTORE JUMP JUMPDEST MLOAD SWAP1 PUSH1 0x1 PUSH1 0x1 PUSH1 0xA0 SHL SUB DUP3 AND DUP3 SUB PUSH3 0x33F JUMPI JUMP JUMPDEST PUSH1 0x1 PUSH1 0x1 PUSH1 0xA0 SHL SUB AND PUSH1 0x0 DUP2 DUP2 MSTORE PUSH32 0xA6EEF7E35ABE7026729641147F7915573C7E97B47EFA546F5F6E3230263BCB49 PUSH1 0x20 MSTORE PUSH1 0x40 DUP2 KECCAK256 SLOAD SWAP1 SWAP2 SWAP1 PUSH1 0xFF AND PUSH3 0x412 JUMPI DUP2 DUP1 MSTORE PUSH1 0x1 PUSH1 0x20 MSTORE PUSH1 0x40 DUP3 KECCAK256 DUP2 DUP4 MSTORE PUSH1 0x20 MSTORE PUSH1 0x40 DUP3 KECCAK256 PUSH1 0x1 PUSH1 0xFF NOT DUP3 SLOAD AND OR SWAP1 SSTORE CALLER SWAP2 PUSH1 0x0 DUP1 MLOAD PUSH1 0x20 PUSH3 0x2518 DUP4 CODECOPY DUP2 MLOAD SWAP2 MSTORE DUP2 DUP1 LOG4 PUSH1 0x1 SWAP1 JUMP JUMPDEST POP SWAP1 JUMP JUMPDEST PUSH1 0x1 PUSH1 0x1 PUSH1 0xA0 SHL SUB AND PUSH1 0x0 DUP2 DUP2 MSTORE PUSH32 0x50EFBDE2D46C37E9785F1791697F77E94BB7B701E19F1930A668820722D37694 PUSH1 0x20 MSTORE PUSH1 0x40 DUP2 KECCAK256 SLOAD SWAP1 SWAP2 SWAP1 PUSH32 0xA49807205CE4D355092EF5A8A18F56E8913CF4A201FBE287825B095693C21775 SWAP1 PUSH1 0xFF AND PUSH3 0x4B4 JUMPI DUP1 DUP4 MSTORE PUSH1 0x1 PUSH1 0x20 MSTORE PUSH1 0x40 DUP4 KECCAK256 DUP3 DUP5 MSTORE PUSH1 0x20 MSTORE PUSH1 0x40 DUP4 KECCAK256 PUSH1 0x1 PUSH1 0xFF NOT DUP3 SLOAD AND OR SWAP1 SSTORE PUSH1 0x0 DUP1 MLOAD PUSH1 0x20 PUSH3 0x2518 DUP4 CODECOPY DUP2 MLOAD SWAP2 MSTORE CALLER SWAP4 DUP1 LOG4 PUSH1 0x1 SWAP1 JUMP JUMPDEST POP POP SWAP1 JUMP JUMPDEST PUSH1 0x1 PUSH1 0x1 PUSH1 0xA0 SHL SUB AND PUSH1 0x0 DUP2 DUP2 MSTORE PUSH32 0x8EF1F5B0844A73060266BC261A82E6BC043AE729756E57EBE49C7306D822B48A PUSH1 0x20 MSTORE PUSH1 0x40 DUP2 KECCAK256 SLOAD SWAP1 SWAP2 SWAP1 PUSH32 0xF9B712ED3CD0E90CDC9D1ABAC8FB677BF018AF115FB294C768A96B48BD6922C5 SWAP1 PUSH1 0xFF AND PUSH3 0x4B4 JUMPI DUP1 DUP4 MSTORE PUSH1 0x1 PUSH1 0x20 MSTORE PUSH1 0x40 DUP4 KECCAK256 DUP3 DUP5 MSTORE PUSH1 0x20 MSTORE PUSH1 0x40 DUP4 KECCAK256 PUSH1 0x1 PUSH1 0xFF NOT DUP3 SLOAD AND OR SWAP1 SSTORE PUSH1 0x0 DUP1 MLOAD PUSH1 0x20 PUSH3 0x2518 DUP4 CODECOPY DUP2 MLOAD SWAP2 MSTORE CALLER SWAP4 DUP1 LOG4 PUSH1 0x1 SWAP1 JUMP JUMPDEST PUSH1 0x1 PUSH1 0x1 PUSH1 0xA0 SHL SUB AND PUSH1 0x0 DUP2 DUP2 MSTORE PUSH32 0xE8FAD4B49F5BA25B2C682CFEC2AC50A7A40BBD1E12AB51733EC3E9C2F6F1C5DB PUSH1 0x20 MSTORE PUSH1 0x40 DUP2 KECCAK256 SLOAD SWAP1 SWAP2 SWAP1 PUSH32 0x55435DD261A4B9B3364963F7738A7A662AD9C84396D64BE3365284BB7F0A5041 SWAP1 PUSH1 0xFF AND PUSH3 0x4B4 JUMPI DUP1 DUP4 MSTORE PUSH1 0x1 PUSH1 0x20 MSTORE PUSH1 0x40 DUP4 KECCAK256 DUP3 DUP5 MSTORE PUSH1 0x20 MSTORE PUSH1 0x40 DUP4 KECCAK256 PUSH1 0x1 PUSH1 0xFF NOT DUP3 SLOAD AND OR SWAP1 SSTORE PUSH1 0x0 DUP1 MLOAD PUSH1 0x20 PUSH3 0x2518 DUP4 CODECOPY DUP2 MLOAD SWAP2 MSTORE CALLER SWAP4 DUP1 LOG4 PUSH1 0x1 SWAP1 JUMP INVALID PUSH1 0x80 DUP1 PUSH1 0x40 MSTORE PUSH1 0x4 CALLDATASIZE LT ISZERO PUSH2 0x13 JUMPI PUSH1 0x0 DUP1 REVERT JUMPDEST PUSH1 0x0 SWAP1 DUP2 CALLDATALOAD PUSH1 0xE0 SHR SWAP1 DUP2 PUSH4 0x1FFC9A7 EQ PUSH2 0x179A JUMPI POP DUP1 PUSH4 0xF2B3444 EQ PUSH2 0x177E JUMPI DUP1 PUSH4 0x11D11A5B EQ PUSH2 0x1743 JUMPI DUP1 PUSH4 0x171D073A EQ PUSH2 0x168D JUMPI DUP1 PUSH4 0x248A9CA3 EQ PUSH2 0x1661 JUMPI DUP1 PUSH4 0x24EA54F4 EQ PUSH2 0x1626 JUMPI DUP1 PUSH4 0x28E6EF3F EQ PUSH2 0x15A7 JUMPI DUP1 PUSH4 0x2C152998 EQ PUSH2 0x158A JUMPI DUP1 PUSH4 0x2F2FF15D EQ PUSH2 0x154C JUMPI DUP1 PUSH4 0x344B5A20 EQ PUSH2 0x14E5 JUMPI DUP1 PUSH4 0x36568ABE EQ PUSH2 0x149D JUMPI DUP1 PUSH4 0x372500AB EQ PUSH2 0x136E JUMPI DUP1 PUSH4 0x3F4BA83A EQ PUSH2 0x1303 JUMPI DUP1 PUSH4 0x41A2B8D6 EQ PUSH2 0x12CA JUMPI DUP1 PUSH4 0x41F93757 EQ PUSH2 0x12AE JUMPI DUP1 PUSH4 0x5C975ABB EQ PUSH2 0x128B JUMPI DUP1 PUSH4 0x6F3B9622 EQ PUSH2 0x126D JUMPI DUP1 PUSH4 0x71CA3176 EQ PUSH2 0x1251 JUMPI DUP1 PUSH4 0x74958E35 EQ PUSH2 0x1233 JUMPI DUP1 PUSH4 0x75B238FC EQ PUSH2 0x11F8 JUMPI DUP1 PUSH4 0x7E305998 EQ PUSH2 0x66F JUMPI DUP1 PUSH4 0x8456CB59 EQ PUSH2 0x614 JUMPI DUP1 PUSH4 0x85081886 EQ PUSH2 0x588 JUMPI DUP1 PUSH4 0x91D14854 EQ PUSH2 0x53C JUMPI DUP1 PUSH4 0x9BCFDFC0 EQ PUSH2 0x4F7 JUMPI DUP1 PUSH4 0xA217FDDF EQ PUSH2 0x4DB JUMPI DUP1 PUSH4 0xAB446491 EQ PUSH2 0x4BD JUMPI DUP1 PUSH4 0xC6C035B5 EQ PUSH2 0x452 JUMPI DUP1 PUSH4 0xCACB6541 EQ PUSH2 0x2DE JUMPI DUP1 PUSH4 0xCD258033 EQ PUSH2 0x2C1 JUMPI DUP1 PUSH4 0xD30F5CE9 EQ PUSH2 0x23E JUMPI DUP1 PUSH4 0xD547741F EQ PUSH2 0x1FC JUMPI DUP1 PUSH4 0xEA9EB835 EQ PUSH2 0x1DE JUMPI PUSH4 0xEAA04315 EQ PUSH2 0x197 JUMPI PUSH1 0x0 DUP1 REVERT JUMPDEST CALLVALUE PUSH2 0x1DB JUMPI DUP1 PUSH1 0x3 NOT CALLDATASIZE ADD SLT PUSH2 0x1DB JUMPI PUSH1 0x40 MLOAD PUSH32 0x0 PUSH1 0x1 PUSH1 0x1 PUSH1 0xA0 SHL SUB AND DUP2 MSTORE PUSH1 0x20 SWAP1 RETURN JUMPDEST DUP1 REVERT JUMPDEST POP CALLVALUE PUSH2 0x1DB JUMPI DUP1 PUSH1 0x3 NOT CALLDATASIZE ADD SLT PUSH2 0x1DB JUMPI PUSH1 0x20 PUSH1 0xA SLOAD PUSH1 0x40 MLOAD SWAP1 DUP2 MSTORE RETURN JUMPDEST POP CALLVALUE PUSH2 0x1DB JUMPI PUSH1 0x40 CALLDATASIZE PUSH1 0x3 NOT ADD SLT PUSH2 0x1DB JUMPI PUSH2 0x23A PUSH1 0x4 CALLDATALOAD PUSH2 0x21C PUSH2 0x1977 JUMP JUMPDEST SWAP1 DUP1 DUP5 MSTORE PUSH1 0x1 PUSH1 0x20 MSTORE PUSH2 0x235 PUSH1 0x1 PUSH1 0x40 DUP7 KECCAK256 ADD SLOAD PUSH2 0x1A6C JUMP JUMPDEST PUSH2 0x1BC0 JUMP JUMPDEST POP DUP1 RETURN JUMPDEST POP CALLVALUE PUSH2 0x1DB JUMPI PUSH1 0x40 CALLDATASIZE PUSH1 0x3 NOT ADD SLT PUSH2 0x1DB JUMPI PUSH1 0x4 CALLDATALOAD PUSH1 0x1 PUSH1 0x1 PUSH1 0x40 SHL SUB DUP2 GT PUSH2 0x2BD JUMPI PUSH2 0x26F SWAP1 CALLDATASIZE SWAP1 PUSH1 0x4 ADD PUSH2 0x198D JUMP JUMPDEST PUSH1 0x24 CALLDATALOAD SWAP1 PUSH1 0xFF DUP3 AND DUP1 SWAP3 SUB PUSH2 0x2B8 JUMPI PUSH1 0x20 PUSH2 0x297 SWAP2 DUP2 PUSH1 0x40 MLOAD SWAP4 DUP3 DUP6 DUP1 SWAP5 MLOAD SWAP4 DUP5 SWAP3 ADD PUSH2 0x1919 JUMP JUMPDEST DUP2 ADD PUSH1 0x6 DUP2 MSTORE SUB ADD SWAP1 KECCAK256 SWAP1 PUSH1 0x0 MSTORE PUSH1 0x20 MSTORE PUSH1 0x20 PUSH1 0x40 PUSH1 0x0 KECCAK256 SLOAD PUSH1 0x40 MLOAD SWAP1 DUP2 MSTORE RETURN JUMPDEST PUSH1 0x0 DUP1 REVERT JUMPDEST POP DUP1 REVERT JUMPDEST POP CALLVALUE PUSH2 0x1DB JUMPI DUP1 PUSH1 0x3 NOT CALLDATASIZE ADD SLT PUSH2 0x1DB JUMPI PUSH1 0x20 PUSH1 0x40 MLOAD PUSH2 0x12C DUP2 MSTORE RETURN JUMPDEST POP CALLVALUE PUSH2 0x1DB JUMPI PUSH1 0x40 CALLDATASIZE PUSH1 0x3 NOT ADD SLT PUSH2 0x1DB JUMPI PUSH1 0x4 CALLDATALOAD PUSH1 0x24 CALLDATALOAD PUSH1 0x1 PUSH1 0x1 PUSH1 0x40 SHL SUB DUP2 GT PUSH2 0x44E JUMPI PUSH2 0x312 SWAP1 CALLDATASIZE SWAP1 PUSH1 0x4 ADD PUSH2 0x19E3 JUMP JUMPDEST CALLER PUSH1 0x0 SWAP1 DUP2 MSTORE PUSH32 0xE8FAD4B49F5BA25B2C682CFEC2AC50A7A40BBD1E12AB51733EC3E9C2F6F1C5DB PUSH1 0x20 SWAP1 DUP2 MSTORE PUSH1 0x40 SWAP1 SWAP2 KECCAK256 SLOAD SWAP1 SWAP4 SWAP3 SWAP2 SWAP1 PUSH32 0x55435DD261A4B9B3364963F7738A7A662AD9C84396D64BE3365284BB7F0A5041 SWAP1 PUSH1 0xFF AND ISZERO PUSH2 0x430 JUMPI POP DUP3 ISZERO ISZERO DUP1 PUSH2 0x424 JUMPI JUMPDEST ISZERO PUSH2 0x3E7 JUMPI SWAP1 PUSH32 0x6A57CEEB7CDF86A63AAA04D3A9A7E03B9D3CDABA40E7D63CC373C4EB54AA7900 SWAP2 DUP4 DUP7 MSTORE PUSH1 0x4 DUP6 MSTORE PUSH1 0x8 PUSH1 0x40 DUP8 KECCAK256 ADD PUSH1 0x1 DUP2 SLOAD PUSH2 0x3C4 PUSH1 0xFF DUP3 AND ISZERO PUSH2 0x1CE2 JUMP JUMPDEST PUSH1 0xFF NOT AND OR SWAP1 SSTORE PUSH2 0x3E1 PUSH1 0x40 MLOAD SWAP3 DUP4 SWAP3 DUP8 DUP5 MSTORE CALLER SWAP8 DUP5 ADD SWAP2 PUSH2 0x1C80 JUMP JUMPDEST SUB SWAP1 LOG3 DUP1 RETURN JUMPDEST PUSH1 0x40 MLOAD PUSH3 0x461BCD PUSH1 0xE5 SHL DUP2 MSTORE PUSH1 0x4 DUP2 ADD DUP6 SWAP1 MSTORE PUSH1 0x15 PUSH1 0x24 DUP3 ADD MSTORE PUSH21 0x13DC9858DB194E881A5B9D985B1A5908185B195C9D PUSH1 0x5A SHL PUSH1 0x44 DUP3 ADD MSTORE PUSH1 0x64 SWAP1 REVERT JUMPDEST POP PUSH1 0x3 SLOAD DUP4 GT ISZERO PUSH2 0x37D JUMP JUMPDEST PUSH1 0x44 SWAP1 PUSH1 0x40 MLOAD SWAP1 PUSH4 0xE2517D3F PUSH1 0xE0 SHL DUP3 MSTORE CALLER PUSH1 0x4 DUP4 ADD MSTORE PUSH1 0x24 DUP3 ADD MSTORE REVERT JUMPDEST DUP3 DUP1 REVERT JUMPDEST POP CALLVALUE PUSH2 0x1DB JUMPI DUP1 PUSH1 0x3 NOT CALLDATASIZE ADD SLT PUSH2 0x1DB JUMPI PUSH1 0xA SLOAD DUP1 ISZERO SWAP2 DUP3 PUSH2 0x4B3 JUMPI POP PUSH1 0x9 SLOAD SWAP2 PUSH2 0x49D JUMPI DUP1 PUSH1 0x80 SWAP3 DIV SWAP1 JUMPDEST PUSH1 0x3 SLOAD SWAP2 PUSH1 0x8 SLOAD SWAP2 PUSH1 0x40 MLOAD SWAP4 DUP5 MSTORE PUSH1 0x20 DUP5 ADD MSTORE PUSH1 0x40 DUP4 ADD MSTORE PUSH1 0x60 DUP3 ADD MSTORE RETURN JUMPDEST PUSH4 0x4E487B71 PUSH1 0xE0 SHL PUSH1 0x0 MSTORE PUSH1 0x12 PUSH1 0x4 MSTORE PUSH1 0x24 PUSH1 0x0 REVERT JUMPDEST PUSH1 0x80 SWAP3 POP SWAP1 PUSH2 0x47E JUMP JUMPDEST POP CALLVALUE PUSH2 0x1DB JUMPI DUP1 PUSH1 0x3 NOT CALLDATASIZE ADD SLT PUSH2 0x1DB JUMPI PUSH1 0x20 PUSH1 0x3 SLOAD PUSH1 0x40 MLOAD SWAP1 DUP2 MSTORE RETURN JUMPDEST POP CALLVALUE PUSH2 0x1DB JUMPI DUP1 PUSH1 0x3 NOT CALLDATASIZE ADD SLT PUSH2 0x1DB JUMPI PUSH1 0x20 SWAP1 PUSH1 0x40 MLOAD SWAP1 DUP2 MSTORE RETURN JUMPDEST POP CALLVALUE PUSH2 0x1DB JUMPI DUP1 PUSH1 0x3 NOT CALLDATASIZE ADD SLT PUSH2 0x1DB JUMPI PUSH1 0x40 MLOAD PUSH32 0x0 PUSH1 0x1 PUSH1 0x1 PUSH1 0xA0 SHL SUB AND DUP2 MSTORE PUSH1 0x20 SWAP1 RETURN JUMPDEST POP CALLVALUE PUSH2 0x1DB JUMPI PUSH1 0x40 CALLDATASIZE PUSH1 0x3 NOT ADD SLT PUSH2 0x1DB JUMPI PUSH1 0x40 PUSH2 0x558 PUSH2 0x1977 JUMP JUMPDEST SWAP2 PUSH1 0x4 CALLDATALOAD DUP2 MSTORE PUSH1 0x1 PUSH1 0x20 MSTORE KECCAK256 SWAP1 PUSH1 0x1 DUP1 PUSH1 0xA0 SHL SUB AND PUSH1 0x0 MSTORE PUSH1 0x20 MSTORE PUSH1 0x20 PUSH1 0xFF PUSH1 0x40 PUSH1 0x0 KECCAK256 SLOAD AND PUSH1 0x40 MLOAD SWAP1 ISZERO ISZERO DUP2 MSTORE RETURN JUMPDEST POP CALLVALUE PUSH2 0x1DB JUMPI PUSH1 0x20 CALLDATASIZE PUSH1 0x3 NOT ADD SLT PUSH2 0x1DB JUMPI PUSH1 0x40 SWAP1 PUSH1 0x4 CALLDATALOAD DUP2 MSTORE PUSH1 0x4 PUSH1 0x20 MSTORE KECCAK256 PUSH1 0xFF DUP2 SLOAD AND PUSH1 0x3 DUP3 ADD SLOAD PUSH1 0x4 DUP4 ADD SLOAD SWAP3 PUSH1 0xFF PUSH1 0x8 DUP3 ADD SLOAD AND PUSH1 0x9 DUP3 ADD SLOAD SWAP1 PUSH2 0x5D7 PUSH1 0x2 PUSH1 0x7 DUP6 ADD SLOAD SWAP5 ADD PUSH2 0x1873 JUMP JUMPDEST SWAP6 PUSH2 0x5F4 PUSH1 0x40 MLOAD SWAP8 DUP9 SWAP8 DUP9 MSTORE PUSH1 0xE0 PUSH1 0x20 DUP10 ADD MSTORE PUSH1 0xE0 DUP9 ADD SWAP1 PUSH2 0x193C JUMP JUMPDEST SWAP5 PUSH1 0x40 DUP8 ADD MSTORE PUSH1 0x60 DUP7 ADD MSTORE ISZERO ISZERO PUSH1 0x80 DUP6 ADD MSTORE PUSH1 0xA0 DUP5 ADD MSTORE PUSH1 0xC0 DUP4 ADD MSTORE SUB SWAP1 RETURN JUMPDEST POP CALLVALUE PUSH2 0x1DB JUMPI DUP1 PUSH1 0x3 NOT CALLDATASIZE ADD SLT PUSH2 0x1DB JUMPI PUSH2 0x62D PUSH2 0x1A10 JUMP JUMPDEST PUSH2 0x635 PUSH2 0x1CA1 JUMP JUMPDEST PUSH1 0x1 PUSH1 0xFF NOT PUSH1 0x2 SLOAD AND OR PUSH1 0x2 SSTORE PUSH32 0x62E78CEA01BEE320CD4E420270B5EA74000D11B0C9F74754EBDBFC544B05A258 PUSH1 0x20 PUSH1 0x40 MLOAD CALLER DUP2 MSTORE LOG1 DUP1 RETURN JUMPDEST POP CALLVALUE PUSH2 0x1DB JUMPI PUSH1 0xC0 CALLDATASIZE PUSH1 0x3 NOT ADD SLT PUSH2 0x1DB JUMPI PUSH1 0xFF PUSH1 0x4 CALLDATALOAD AND PUSH1 0x4 CALLDATALOAD SUB PUSH2 0x2B8 JUMPI PUSH1 0x24 CALLDATALOAD PUSH1 0x1 PUSH1 0x1 PUSH1 0x40 SHL SUB DUP2 GT PUSH2 0x2BD JUMPI PUSH2 0x6AE SWAP1 CALLDATASIZE SWAP1 PUSH1 0x4 ADD PUSH2 0x19E3 JUMP JUMPDEST PUSH1 0x84 SWAP3 SWAP2 SWAP3 CALLDATALOAD PUSH1 0x1 PUSH1 0x1 PUSH1 0x40 SHL SUB DUP2 GT PUSH2 0x44E JUMPI PUSH2 0x6D0 SWAP1 CALLDATASIZE SWAP1 PUSH1 0x4 ADD PUSH2 0x19E3 JUMP JUMPDEST PUSH1 0x1 PUSH1 0x1 PUSH1 0x40 SHL SUB PUSH1 0xA4 SWAP6 SWAP3 SWAP6 CALLDATALOAD GT PUSH2 0x11F4 JUMPI CALLDATASIZE PUSH1 0x23 PUSH1 0xA4 CALLDATALOAD ADD SLT ISZERO PUSH2 0x11F4 JUMPI PUSH1 0x1 PUSH1 0x1 PUSH1 0x40 SHL SUB PUSH1 0xA4 CALLDATALOAD PUSH1 0x4 ADD CALLDATALOAD GT PUSH2 0x11F4 JUMPI CALLDATASIZE PUSH1 0x24 PUSH1 0xA4 CALLDATALOAD PUSH1 0x4 ADD CALLDATALOAD PUSH1 0x5 SHL PUSH1 0xA4 CALLDATALOAD ADD ADD GT PUSH2 0x11F4 JUMPI CALLER PUSH1 0x0 SWAP1 DUP2 MSTORE PUSH32 0x8EF1F5B0844A73060266BC261A82E6BC043AE729756E57EBE49C7306D822B48A PUSH1 0x20 MSTORE PUSH1 0x40 SWAP1 KECCAK256 SLOAD PUSH32 0xF9B712ED3CD0E90CDC9D1ABAC8FB677BF018AF115FB294C768A96B48BD6922C5 SWAP1 PUSH1 0xFF AND ISZERO PUSH2 0x430 JUMPI POP PUSH2 0x77D PUSH2 0x1CA1 JUMP JUMPDEST PUSH2 0x785 PUSH2 0x1CBF JUMP JUMPDEST PUSH1 0x1 PUSH1 0xFF PUSH1 0x4 CALLDATALOAD AND LT ISZERO DUP1 PUSH2 0x11E4 JUMPI JUMPDEST ISZERO PUSH2 0x11A8 JUMPI PUSH1 0x64 PUSH1 0x44 CALLDATALOAD GT PUSH2 0x1163 JUMPI PUSH1 0x1 PUSH1 0x64 CALLDATALOAD LT ISZERO DUP1 PUSH2 0x1156 JUMPI JUMPDEST ISZERO PUSH2 0x1111 JUMPI PUSH1 0xA4 CALLDATALOAD PUSH1 0x4 ADD CALLDATALOAD ISZERO PUSH2 0x10D4 JUMPI DUP3 ISZERO PUSH2 0x1098 JUMPI TIMESTAMP PUSH3 0x15180 TIMESTAMP MOD TIMESTAMP SUB GT PUSH2 0xD48 JUMPI PUSH1 0x40 MLOAD DUP4 DUP4 DUP3 CALLDATACOPY PUSH1 0x20 DUP2 DUP6 DUP2 ADD PUSH1 0x5 DUP2 MSTORE SUB ADD SWAP1 KECCAK256 PUSH3 0x15180 TIMESTAMP MOD TIMESTAMP SUB DUP6 MSTORE PUSH1 0x20 MSTORE PUSH1 0xA PUSH1 0x40 DUP6 KECCAK256 SLOAD LT ISZERO PUSH2 0x1053 JUMPI PUSH1 0x40 MLOAD DUP4 DUP4 DUP3 CALLDATACOPY PUSH1 0x20 DUP2 DUP6 DUP2 ADD PUSH1 0x6 DUP2 MSTORE SUB ADD SWAP1 KECCAK256 PUSH1 0xFF PUSH1 0x4 CALLDATALOAD AND PUSH1 0x0 MSTORE PUSH1 0x20 MSTORE PUSH1 0x40 PUSH1 0x0 KECCAK256 SLOAD PUSH2 0x5460 DUP2 ADD DUP1 SWAP2 GT PUSH2 0xC1A JUMPI TIMESTAMP LT PUSH2 0x100E JUMPI PUSH2 0x849 PUSH1 0x4 CALLDATALOAD PUSH2 0x1D74 JUMP JUMPDEST SWAP5 PUSH2 0x855 PUSH1 0x3 SLOAD PUSH2 0x1C5A JUMP JUMPDEST DUP1 PUSH1 0x3 SSTORE DUP6 MSTORE PUSH1 0x4 PUSH1 0x20 MSTORE PUSH1 0x40 DUP6 KECCAK256 SWAP6 PUSH1 0xFF PUSH1 0x4 CALLDATALOAD AND PUSH1 0xFF NOT DUP9 SLOAD AND OR DUP8 SSTORE PUSH1 0x1 DUP8 ADD SSTORE PUSH1 0x1 PUSH1 0x1 PUSH1 0x40 SHL SUB DUP5 GT PUSH2 0xF52 JUMPI PUSH2 0x894 PUSH1 0x2 DUP8 ADD SLOAD PUSH2 0x17EF JUMP JUMPDEST PUSH1 0x1F DUP2 GT PUSH2 0xFDB JUMPI JUMPDEST POP DUP4 DUP6 PUSH1 0x1F DUP3 GT PUSH1 0x1 EQ PUSH2 0xF71 JUMPI DUP7 SWAP2 PUSH2 0xF66 JUMPI JUMPDEST POP DUP5 PUSH1 0x1 SHL SWAP1 PUSH1 0x0 NOT DUP7 PUSH1 0x3 SHL SHR NOT AND OR PUSH1 0x2 DUP8 ADD SSTORE JUMPDEST PUSH1 0x44 CALLDATALOAD PUSH1 0x3 DUP8 ADD SSTORE PUSH1 0x64 CALLDATALOAD PUSH1 0x4 DUP8 ADD SSTORE PUSH1 0x1 PUSH1 0x1 PUSH1 0x40 SHL SUB DUP3 GT PUSH2 0xF52 JUMPI DUP2 SWAP1 PUSH2 0x8F6 PUSH1 0x5 DUP9 ADD SLOAD PUSH2 0x17EF JUMP JUMPDEST PUSH1 0x1F DUP2 GT PUSH2 0xF14 JUMPI JUMPDEST POP DUP6 SWAP1 PUSH1 0x1F DUP4 GT PUSH1 0x1 EQ PUSH2 0xEA8 JUMPI DUP7 SWAP3 PUSH2 0xE9D JUMPI JUMPDEST POP POP DUP2 PUSH1 0x1 SHL SWAP2 PUSH1 0x0 NOT SWAP1 PUSH1 0x3 SHL SHR NOT AND OR PUSH1 0x5 DUP6 ADD SSTORE JUMPDEST PUSH9 0x10000000000000000 PUSH1 0xA4 CALLDATALOAD PUSH1 0x4 ADD CALLDATALOAD GT PUSH2 0xE89 JUMPI PUSH1 0x6 DUP5 ADD DUP1 SLOAD PUSH1 0x4 PUSH1 0xA4 CALLDATALOAD ADD CALLDATALOAD SWAP2 DUP3 SWAP1 SSTORE SWAP1 DUP2 GT PUSH2 0xE65 JUMPI JUMPDEST POP PUSH1 0x6 DUP5 ADD DUP4 MSTORE PUSH1 0x20 DUP4 KECCAK256 PUSH1 0xA4 CALLDATALOAD PUSH1 0x24 ADD DUP5 JUMPDEST PUSH1 0xA4 CALLDATALOAD PUSH1 0x4 ADD CALLDATALOAD DUP2 LT PUSH2 0xE3C JUMPI POP POP POP PUSH1 0x8 PUSH2 0xA26 SWAP5 TIMESTAMP PUSH1 0x7 DUP3 ADD SSTORE ADD PUSH1 0xFF NOT DUP2 SLOAD AND SWAP1 SSTORE PUSH1 0x40 MLOAD DUP3 DUP3 DUP3 CALLDATACOPY PUSH1 0x20 DUP2 DUP5 DUP2 ADD PUSH1 0x5 DUP2 MSTORE SUB ADD SWAP1 KECCAK256 PUSH3 0x15180 TIMESTAMP MOD TIMESTAMP SUB DUP5 MSTORE PUSH1 0x20 MSTORE PUSH1 0x40 DUP4 KECCAK256 PUSH2 0x9C3 DUP2 SLOAD PUSH2 0x1C5A JUMP JUMPDEST SWAP1 SSTORE PUSH1 0x40 MLOAD DUP3 DUP3 DUP3 CALLDATACOPY PUSH1 0x20 DUP2 DUP5 DUP2 ADD PUSH1 0x6 DUP2 MSTORE SUB ADD SWAP1 KECCAK256 PUSH1 0xFF PUSH1 0x4 CALLDATALOAD AND PUSH1 0x0 MSTORE PUSH1 0x20 MSTORE TIMESTAMP PUSH1 0x40 PUSH1 0x0 KECCAK256 SSTORE PUSH32 0x9A4510F1EA344006C4DA008F109BACF2DCFE6BF7FDFEC2BD2ECBFCF7089BF638 PUSH1 0x3 SLOAD SWAP5 DUP6 SWAP3 PUSH1 0x40 MLOAD SWAP5 PUSH1 0x60 DUP7 MSTORE PUSH1 0x60 DUP7 ADD SWAP2 PUSH2 0x1C80 JUMP JUMPDEST SWAP3 PUSH1 0x44 CALLDATALOAD PUSH1 0x20 DUP3 ADD MSTORE CALLER PUSH1 0x40 DUP3 ADD MSTORE DUP1 PUSH1 0xFF PUSH1 0x4 CALLDATALOAD AND SWAP5 SUB SWAP1 LOG3 PUSH1 0x50 PUSH1 0x44 CALLDATALOAD LT PUSH2 0xDDE JUMPI DUP2 DUP2 MSTORE PUSH1 0x4 PUSH1 0x20 MSTORE PUSH1 0x40 DUP2 KECCAK256 SWAP1 PUSH2 0xA68 PUSH1 0xFF PUSH1 0x8 DUP5 ADD SLOAD AND ISZERO PUSH2 0x1CE2 JUMP JUMPDEST DUP2 SLOAD PUSH1 0xFF AND PUSH32 0x0 PUSH1 0x1 PUSH1 0x1 PUSH1 0xA0 SHL SUB AND EXTCODESIZE ISZERO PUSH2 0x2BD JUMPI PUSH1 0x40 MLOAD SWAP1 PUSH4 0x6E05AFD7 PUSH1 0xE0 SHL DUP3 MSTORE PUSH1 0x4 DUP3 ADD MSTORE PUSH1 0x60 PUSH1 0x24 DUP3 ADD MSTORE DUP2 DUP2 DUP2 PUSH1 0x2 DUP7 ADD SLOAD PUSH2 0xAC8 DUP2 PUSH2 0x17EF JUMP JUMPDEST SWAP1 DUP2 PUSH1 0x64 DUP6 ADD MSTORE DUP4 PUSH1 0x1 DUP3 AND SWAP2 DUP3 PUSH1 0x0 EQ PUSH2 0xDBC JUMPI POP POP PUSH1 0x1 EQ PUSH2 0xD7B JUMPI JUMPDEST POP PUSH2 0xB02 DUP3 SWAP2 PUSH1 0x3 NOT DUP4 DUP3 SUB ADD PUSH1 0x44 DUP5 ADD MSTORE PUSH1 0x6 DUP9 ADD PUSH2 0x1D2E JUMP JUMPDEST SUB DUP2 DUP4 PUSH32 0x0 PUSH1 0x1 PUSH1 0x1 PUSH1 0xA0 SHL SUB AND GAS CALL DUP1 ISZERO PUSH2 0xD70 JUMPI SWAP1 DUP3 SWAP2 PUSH2 0xD5C JUMPI JUMPDEST POP POP PUSH1 0x40 MLOAD PUSH2 0xB5C DUP2 PUSH2 0xB55 DUP2 PUSH1 0x6 DUP8 ADD PUSH2 0x1D2E JUMP JUMPDEST SUB DUP3 PUSH2 0x1852 JUMP JUMPDEST DUP2 SWAP4 DUP3 JUMPDEST DUP3 MLOAD DUP2 LT ISZERO PUSH2 0xC8E JUMPI PUSH1 0x5 DUP2 SWAP1 SHL DUP4 ADD PUSH1 0x20 ADD MLOAD PUSH1 0x40 MLOAD PUSH4 0x3D3B323 PUSH1 0xE5 SHL DUP2 MSTORE PUSH1 0x1 PUSH1 0x1 PUSH1 0xA0 SHL SUB SWAP2 DUP3 AND PUSH1 0x4 DUP3 ADD MSTORE SWAP1 PUSH1 0xA0 SWAP1 DUP3 SWAP1 PUSH1 0x24 SWAP1 DUP3 SWAP1 PUSH32 0x0 AND GAS STATICCALL DUP1 ISZERO PUSH2 0xC83 JUMPI DUP6 SWAP2 DUP7 SWAP2 PUSH2 0xC37 JUMPI JUMPDEST POP DUP1 PUSH2 0xC2E JUMPI JUMPDEST PUSH2 0xBEA JUMPI JUMPDEST POP PUSH2 0xBE5 SWAP1 PUSH2 0x1C5A JUMP JUMPDEST PUSH2 0xB60 JUMP JUMPDEST PUSH2 0x3E8 SWAP7 SWAP2 SWAP7 SWAP1 DUP2 DUP2 MUL SWAP2 DUP2 DUP4 DIV EQ SWAP1 ISZERO OR ISZERO PUSH2 0xC1A JUMPI PUSH2 0xBE5 SWAP2 PUSH2 0x2710 PUSH2 0xC13 SWAP3 DIV SWAP1 PUSH2 0x1C37 JUMP JUMPDEST SWAP6 SWAP1 PUSH2 0xBDB JUMP JUMPDEST PUSH4 0x4E487B71 PUSH1 0xE0 SHL DUP6 MSTORE PUSH1 0x11 PUSH1 0x4 MSTORE PUSH1 0x24 DUP6 REVERT JUMPDEST POP DUP1 ISZERO ISZERO PUSH2 0xBD6 JUMP JUMPDEST SWAP2 POP POP PUSH1 0xA0 DUP2 RETURNDATASIZE PUSH1 0xA0 GT PUSH2 0xC7B JUMPI JUMPDEST DUP2 PUSH2 0xC53 PUSH1 0xA0 SWAP4 DUP4 PUSH2 0x1852 JUMP JUMPDEST DUP2 ADD SUB SLT PUSH2 0xC77 JUMPI PUSH1 0x80 DUP2 MLOAD SWAP2 ADD MLOAD SWAP1 DUP2 ISZERO ISZERO DUP3 SUB PUSH2 0xC73 JUMPI SWAP1 CODESIZE PUSH2 0xBCF JUMP JUMPDEST DUP6 DUP1 REVERT JUMPDEST DUP5 DUP1 REVERT JUMPDEST RETURNDATASIZE SWAP2 POP PUSH2 0xC46 JUMP JUMPDEST PUSH1 0x40 MLOAD RETURNDATASIZE DUP8 DUP3 RETURNDATACOPY RETURNDATASIZE SWAP1 REVERT JUMPDEST POP SWAP2 SWAP3 SWAP1 POP PUSH2 0x12C DUP1 DUP6 MUL SWAP1 DUP6 DUP3 DIV EQ DUP6 ISZERO OR ISZERO PUSH2 0xD48 JUMPI PUSH1 0x20 SWAP5 PUSH32 0x431CA793568BA40132B7F9E11DA4BADFAA9AC7826E39CDE4A2982860CE30F67 SWAP3 PUSH1 0x6 PUSH2 0x2710 PUSH1 0x60 SWAP5 DIV SWAP2 PUSH1 0x1 PUSH1 0xFF NOT PUSH1 0x8 DUP4 ADD SLOAD AND OR PUSH1 0x8 DUP3 ADD SSTORE DUP4 PUSH1 0x9 DUP3 ADD SSTORE PUSH2 0xCF7 PUSH1 0xA SLOAD PUSH2 0x1C5A JUMP JUMPDEST PUSH1 0xA SSTORE PUSH2 0xD0A PUSH1 0x3 DUP3 ADD SLOAD PUSH1 0x9 SLOAD PUSH2 0x1C37 JUMP JUMPDEST PUSH1 0x9 SSTORE CALLER DUP9 MSTORE PUSH1 0x7 DUP10 MSTORE PUSH1 0x40 DUP9 KECCAK256 PUSH2 0xD23 DUP5 DUP3 SLOAD PUSH2 0x1C37 JUMP JUMPDEST SWAP1 SSTORE ADD SLOAD SWAP2 PUSH1 0x40 MLOAD SWAP3 DUP4 MSTORE DUP8 DUP4 ADD MSTORE PUSH1 0x40 DUP3 ADD MSTORE LOG2 JUMPDEST PUSH1 0x1 PUSH1 0x3 SLOAD SWAP2 SSTORE PUSH1 0x40 MLOAD SWAP1 DUP2 MSTORE RETURN JUMPDEST PUSH4 0x4E487B71 PUSH1 0xE0 SHL DUP5 MSTORE PUSH1 0x11 PUSH1 0x4 MSTORE PUSH1 0x24 DUP5 REVERT JUMPDEST PUSH2 0xD65 SWAP1 PUSH2 0x1829 JUMP JUMPDEST PUSH2 0x1DB JUMPI DUP1 CODESIZE PUSH2 0xB3F JUMP JUMPDEST PUSH1 0x40 MLOAD RETURNDATASIZE DUP5 DUP3 RETURNDATACOPY RETURNDATASIZE SWAP1 REVERT JUMPDEST PUSH1 0x2 DUP8 ADD DUP5 MSTORE PUSH1 0x20 DUP5 KECCAK256 DUP5 SWAP3 POP JUMPDEST DUP2 DUP4 LT PUSH2 0xD9F JUMPI POP POP DUP2 ADD PUSH1 0x84 ADD PUSH2 0xB02 PUSH2 0xAE7 JUMP JUMPDEST DUP1 SLOAD PUSH1 0x84 DUP5 DUP9 ADD ADD MSTORE DUP7 SWAP5 POP DUP6 SWAP4 POP PUSH1 0x20 SWAP1 SWAP3 ADD SWAP2 PUSH1 0x1 ADD PUSH2 0xD89 JUMP JUMPDEST PUSH2 0xB02 SWAP4 SWAP2 SWAP5 POP PUSH1 0x84 SWAP3 POP PUSH1 0xFF NOT AND DUP3 DUP6 ADD MSTORE ISZERO ISZERO PUSH1 0x5 SHL DUP4 ADD ADD SWAP2 POP PUSH2 0xAE7 JUMP JUMPDEST PUSH1 0x20 SWAP2 PUSH32 0x17D9F630DDA16902FFFA0B25AFDCAD243B3B00A53A4CDA9F2AC5E6FE76E302CE PUSH1 0x60 PUSH1 0x40 MLOAD DUP6 DUP2 MSTORE PUSH1 0x1A DUP7 DUP3 ADD MSTORE PUSH32 0x436F6E666964656E63652062656C6F77207468726573686F6C64000000000000 PUSH1 0x40 DUP3 ADD MSTORE LOG2 PUSH2 0xD39 JUMP JUMPDEST DUP2 CALLDATALOAD SWAP2 PUSH1 0x1 PUSH1 0x1 PUSH1 0xA0 SHL SUB DUP4 AND DUP4 SUB PUSH2 0xE61 JUMPI SWAP1 PUSH1 0x20 PUSH1 0x1 SWAP3 ADD SWAP3 DUP2 DUP6 ADD SSTORE ADD PUSH2 0x96E JUMP JUMPDEST DUP7 DUP1 REVERT JUMPDEST PUSH1 0x6 DUP6 ADD DUP5 MSTORE PUSH1 0x20 DUP5 KECCAK256 PUSH2 0xE83 SWAP2 DUP2 ADD SWAP1 PUSH1 0x4 PUSH1 0xA4 CALLDATALOAD ADD CALLDATALOAD ADD PUSH2 0x1C69 JUMP JUMPDEST CODESIZE PUSH2 0x95B JUMP JUMPDEST PUSH4 0x4E487B71 PUSH1 0xE0 SHL DUP4 MSTORE PUSH1 0x41 PUSH1 0x4 MSTORE PUSH1 0x24 DUP4 REVERT JUMPDEST ADD CALLDATALOAD SWAP1 POP CODESIZE DUP1 PUSH2 0x914 JUMP JUMPDEST PUSH1 0x5 DUP9 ADD DUP8 MSTORE PUSH1 0x20 DUP8 KECCAK256 DUP8 SWAP5 POP SWAP2 JUMPDEST PUSH1 0x1F NOT DUP5 AND DUP6 LT PUSH2 0xEFC JUMPI PUSH1 0x1 SWAP5 POP DUP4 PUSH1 0x1F NOT DUP2 AND LT PUSH2 0xEE2 JUMPI JUMPDEST POP POP POP DUP2 SHL ADD PUSH1 0x5 DUP6 ADD SSTORE PUSH2 0x92C JUMP JUMPDEST ADD CALLDATALOAD PUSH1 0x0 NOT PUSH1 0x3 DUP5 SWAP1 SHL PUSH1 0xF8 AND SHR NOT AND SWAP1 SSTORE CODESIZE DUP1 DUP1 PUSH2 0xED2 JUMP JUMPDEST DUP2 DUP2 ADD CALLDATALOAD DUP4 SSTORE PUSH1 0x20 SWAP5 DUP6 ADD SWAP5 PUSH1 0x1 SWAP1 SWAP4 ADD SWAP3 ADD PUSH2 0xEB7 JUMP JUMPDEST PUSH2 0xF42 SWAP1 PUSH1 0x5 DUP10 ADD DUP9 MSTORE PUSH1 0x20 DUP9 KECCAK256 PUSH1 0x1F DUP6 ADD PUSH1 0x5 SHR DUP2 ADD SWAP2 PUSH1 0x20 DUP7 LT PUSH2 0xF48 JUMPI JUMPDEST PUSH1 0x1F ADD PUSH1 0x5 SHR ADD SWAP1 PUSH2 0x1C69 JUMP JUMPDEST CODESIZE PUSH2 0x8FF JUMP JUMPDEST SWAP1 SWAP2 POP DUP2 SWAP1 PUSH2 0xF35 JUMP JUMPDEST PUSH4 0x4E487B71 PUSH1 0xE0 SHL DUP6 MSTORE PUSH1 0x41 PUSH1 0x4 MSTORE PUSH1 0x24 DUP6 REVERT JUMPDEST SWAP1 POP DUP4 ADD CALLDATALOAD CODESIZE PUSH2 0x8B2 JUMP JUMPDEST PUSH1 0x2 DUP9 ADD DUP8 MSTORE PUSH1 0x20 DUP8 KECCAK256 SWAP2 POP DUP7 JUMPDEST PUSH1 0x1F NOT DUP8 AND DUP2 LT PUSH2 0xFC3 JUMPI POP DUP6 PUSH1 0x1F NOT DUP2 AND LT PUSH2 0xFA9 JUMPI JUMPDEST POP POP PUSH1 0x1 DUP5 DUP2 SHL ADD PUSH1 0x2 DUP8 ADD SSTORE PUSH2 0x8C9 JUMP JUMPDEST DUP5 ADD CALLDATALOAD PUSH1 0x0 NOT PUSH1 0x3 DUP8 SWAP1 SHL PUSH1 0xF8 AND SHR NOT AND SWAP1 SSTORE CODESIZE DUP1 PUSH2 0xF97 JUMP JUMPDEST SWAP1 SWAP2 PUSH1 0x20 PUSH1 0x1 DUP2 SWAP3 DUP6 DUP10 ADD CALLDATALOAD DUP2 SSTORE ADD SWAP4 ADD SWAP2 ADD PUSH2 0xF7F JUMP JUMPDEST PUSH2 0x1008 SWAP1 PUSH1 0x2 DUP9 ADD DUP8 MSTORE PUSH1 0x20 DUP8 KECCAK256 PUSH1 0x1F DUP8 ADD PUSH1 0x5 SHR DUP2 ADD SWAP2 PUSH1 0x20 DUP9 LT PUSH2 0xF48 JUMPI PUSH1 0x1F ADD PUSH1 0x5 SHR ADD SWAP1 PUSH2 0x1C69 JUMP JUMPDEST CODESIZE PUSH2 0x89D JUMP JUMPDEST PUSH1 0x40 MLOAD PUSH3 0x461BCD PUSH1 0xE5 SHL DUP2 MSTORE PUSH1 0x20 PUSH1 0x4 DUP3 ADD MSTORE PUSH1 0x17 PUSH1 0x24 DUP3 ADD MSTORE PUSH32 0x4F7261636C653A20636F6F6C646F776E20616374697665000000000000000000 PUSH1 0x44 DUP3 ADD MSTORE PUSH1 0x64 SWAP1 REVERT JUMPDEST PUSH1 0x40 MLOAD PUSH3 0x461BCD PUSH1 0xE5 SHL DUP2 MSTORE PUSH1 0x20 PUSH1 0x4 DUP3 ADD MSTORE PUSH1 0x1B PUSH1 0x24 DUP3 ADD MSTORE PUSH32 0x4F7261636C653A2072617465206C696D69742065786365656465640000000000 PUSH1 0x44 DUP3 ADD MSTORE PUSH1 0x64 SWAP1 REVERT JUMPDEST PUSH1 0x40 MLOAD PUSH3 0x461BCD PUSH1 0xE5 SHL DUP2 MSTORE PUSH1 0x20 PUSH1 0x4 DUP3 ADD MSTORE PUSH1 0x14 PUSH1 0x24 DUP3 ADD MSTORE PUSH20 0x27B930B1B6329D1032B6B83A3C903932B3B4B7B7 PUSH1 0x61 SHL PUSH1 0x44 DUP3 ADD MSTORE PUSH1 0x64 SWAP1 REVERT JUMPDEST PUSH1 0x40 MLOAD PUSH3 0x461BCD PUSH1 0xE5 SHL DUP2 MSTORE PUSH1 0x20 PUSH1 0x4 DUP3 ADD MSTORE PUSH1 0x15 PUSH1 0x24 DUP3 ADD MSTORE PUSH21 0x4F7261636C653A206E6F20726563697069656E7473 PUSH1 0x58 SHL PUSH1 0x44 DUP3 ADD MSTORE PUSH1 0x64 SWAP1 REVERT JUMPDEST PUSH1 0x40 MLOAD PUSH3 0x461BCD PUSH1 0xE5 SHL DUP2 MSTORE PUSH1 0x20 PUSH1 0x4 DUP3 ADD MSTORE PUSH1 0x18 PUSH1 0x24 DUP3 ADD MSTORE PUSH32 0x4F7261636C653A20696E76616C69642073657665726974790000000000000000 PUSH1 0x44 DUP3 ADD MSTORE PUSH1 0x64 SWAP1 REVERT JUMPDEST POP PUSH1 0x5 PUSH1 0x64 CALLDATALOAD GT ISZERO PUSH2 0x7B1 JUMP JUMPDEST PUSH1 0x40 MLOAD PUSH3 0x461BCD PUSH1 0xE5 SHL DUP2 MSTORE PUSH1 0x20 PUSH1 0x4 DUP3 ADD MSTORE PUSH1 0x1A PUSH1 0x24 DUP3 ADD MSTORE PUSH32 0x4F7261636C653A20696E76616C696420636F6E666964656E6365000000000000 PUSH1 0x44 DUP3 ADD MSTORE PUSH1 0x64 SWAP1 REVERT JUMPDEST PUSH1 0x40 MLOAD PUSH3 0x461BCD PUSH1 0xE5 SHL DUP2 MSTORE PUSH1 0x20 PUSH1 0x4 DUP3 ADD MSTORE PUSH1 0x14 PUSH1 0x24 DUP3 ADD MSTORE PUSH20 0x4F7261636C653A20696E76616C69642074797065 PUSH1 0x60 SHL PUSH1 0x44 DUP3 ADD MSTORE PUSH1 0x64 SWAP1 REVERT JUMPDEST POP PUSH1 0x7 PUSH1 0xFF PUSH1 0x4 CALLDATALOAD AND GT ISZERO PUSH2 0x795 JUMP JUMPDEST DUP4 DUP1 REVERT JUMPDEST POP CALLVALUE PUSH2 0x1DB JUMPI DUP1 PUSH1 0x3 NOT CALLDATASIZE ADD SLT PUSH2 0x1DB JUMPI PUSH1 0x20 PUSH1 0x40 MLOAD PUSH32 0xA49807205CE4D355092EF5A8A18F56E8913CF4A201FBE287825B095693C21775 DUP2 MSTORE RETURN JUMPDEST POP CALLVALUE PUSH2 0x1DB JUMPI DUP1 PUSH1 0x3 NOT CALLDATASIZE ADD SLT PUSH2 0x1DB JUMPI PUSH1 0x20 PUSH1 0x8 SLOAD PUSH1 0x40 MLOAD SWAP1 DUP2 MSTORE RETURN JUMPDEST POP CALLVALUE PUSH2 0x1DB JUMPI DUP1 PUSH1 0x3 NOT CALLDATASIZE ADD SLT PUSH2 0x1DB JUMPI PUSH1 0x20 PUSH1 0x40 MLOAD PUSH1 0x64 DUP2 MSTORE RETURN JUMPDEST POP CALLVALUE PUSH2 0x1DB JUMPI DUP1 PUSH1 0x3 NOT CALLDATASIZE ADD SLT PUSH2 0x1DB JUMPI PUSH1 0x20 PUSH1 0x9 SLOAD PUSH1 0x40 MLOAD SWAP1 DUP2 MSTORE RETURN JUMPDEST POP CALLVALUE PUSH2 0x1DB JUMPI DUP1 PUSH1 0x3 NOT CALLDATASIZE ADD SLT PUSH2 0x1DB JUMPI PUSH1 0x20 PUSH1 0xFF PUSH1 0x2 SLOAD AND PUSH1 0x40 MLOAD SWAP1 ISZERO ISZERO DUP2 MSTORE RETURN JUMPDEST POP CALLVALUE PUSH2 0x1DB JUMPI DUP1 PUSH1 0x3 NOT CALLDATASIZE ADD SLT PUSH2 0x1DB JUMPI PUSH1 0x20 PUSH1 0x40 MLOAD PUSH1 0x50 DUP2 MSTORE RETURN JUMPDEST POP CALLVALUE PUSH2 0x1DB JUMPI PUSH1 0x20 CALLDATASIZE PUSH1 0x3 NOT ADD SLT PUSH2 0x1DB JUMPI PUSH1 0x20 SWAP1 PUSH1 0x40 SWAP1 PUSH1 0x1 PUSH1 0x1 PUSH1 0xA0 SHL SUB PUSH2 0x12F2 PUSH2 0x1961 JUMP JUMPDEST AND DUP2 MSTORE PUSH1 0x7 DUP4 MSTORE KECCAK256 SLOAD PUSH1 0x40 MLOAD SWAP1 DUP2 MSTORE RETURN JUMPDEST POP CALLVALUE PUSH2 0x1DB JUMPI DUP1 PUSH1 0x3 NOT CALLDATASIZE ADD SLT PUSH2 0x1DB JUMPI PUSH2 0x131C PUSH2 0x1A10 JUMP JUMPDEST PUSH1 0x2 SLOAD PUSH1 0xFF DUP2 AND ISZERO PUSH2 0x135C JUMPI PUSH1 0xFF NOT AND PUSH1 0x2 SSTORE PUSH32 0x5DB9EE0A495BF2E6FF9C91A7834C1BA4FDD244A5E8AA4E537BD38AEAE4B073AA PUSH1 0x20 PUSH1 0x40 MLOAD CALLER DUP2 MSTORE LOG1 DUP1 RETURN JUMPDEST PUSH1 0x40 MLOAD PUSH4 0x8DFC202B PUSH1 0xE0 SHL DUP2 MSTORE PUSH1 0x4 SWAP1 REVERT JUMPDEST POP CALLVALUE PUSH2 0x1DB JUMPI DUP1 PUSH1 0x3 NOT CALLDATASIZE ADD SLT PUSH2 0x1DB JUMPI PUSH2 0x1387 PUSH2 0x1CBF JUMP JUMPDEST CALLER DUP2 MSTORE PUSH1 0x7 PUSH1 0x20 MSTORE PUSH1 0x40 DUP2 KECCAK256 SLOAD SWAP1 DUP2 ISZERO PUSH2 0x1463 JUMPI CALLER DUP2 MSTORE PUSH1 0x7 PUSH1 0x20 MSTORE DUP1 PUSH1 0x40 DUP2 KECCAK256 SSTORE PUSH2 0x13B5 DUP3 PUSH1 0x8 SLOAD PUSH2 0x1C37 JUMP JUMPDEST PUSH1 0x8 SSTORE PUSH32 0x0 PUSH1 0x1 PUSH1 0x1 PUSH1 0xA0 SHL SUB AND DUP1 EXTCODESIZE ISZERO PUSH2 0x2BD JUMPI DUP2 DUP1 SWAP2 PUSH1 0x64 PUSH1 0x40 MLOAD DUP1 SWAP5 DUP2 SWAP4 PUSH4 0x54156BD1 PUSH1 0xE0 SHL DUP4 MSTORE CALLER PUSH1 0x4 DUP5 ADD MSTORE DUP9 PUSH1 0x24 DUP5 ADD MSTORE PUSH1 0x5 PUSH1 0x44 DUP5 ADD MSTORE GAS CALL DUP1 ISZERO PUSH2 0xD70 JUMPI PUSH2 0x1454 JUMPI JUMPDEST POP SWAP1 PUSH1 0x40 MLOAD SWAP1 DUP2 MSTORE PUSH32 0x8E411D31CABF3AA3F89C6092861BA364B87AC0ED40CBEB111DED5EDE0C53D212 PUSH1 0x20 CALLER SWAP3 LOG2 PUSH1 0x1 DUP2 SSTORE DUP1 RETURN JUMPDEST PUSH2 0x145D SWAP1 PUSH2 0x1829 JUMP JUMPDEST CODESIZE PUSH2 0x141F JUMP JUMPDEST PUSH1 0x40 MLOAD PUSH3 0x461BCD PUSH1 0xE5 SHL DUP2 MSTORE PUSH1 0x20 PUSH1 0x4 DUP3 ADD MSTORE PUSH1 0x12 PUSH1 0x24 DUP3 ADD MSTORE PUSH18 0x4F7261636C653A206E6F2072657761726473 PUSH1 0x70 SHL PUSH1 0x44 DUP3 ADD MSTORE PUSH1 0x64 SWAP1 REVERT JUMPDEST POP CALLVALUE PUSH2 0x1DB JUMPI PUSH1 0x40 CALLDATASIZE PUSH1 0x3 NOT ADD SLT PUSH2 0x1DB JUMPI PUSH2 0x14B7 PUSH2 0x1977 JUMP JUMPDEST CALLER PUSH1 0x1 PUSH1 0x1 PUSH1 0xA0 SHL SUB DUP3 AND SUB PUSH2 0x14D3 JUMPI PUSH2 0x23A SWAP1 PUSH1 0x4 CALLDATALOAD PUSH2 0x1BC0 JUMP JUMPDEST PUSH1 0x40 MLOAD PUSH4 0x334BD919 PUSH1 0xE1 SHL DUP2 MSTORE PUSH1 0x4 SWAP1 REVERT JUMPDEST POP CALLVALUE PUSH2 0x1DB JUMPI PUSH1 0x40 CALLDATASIZE PUSH1 0x3 NOT ADD SLT PUSH2 0x1DB JUMPI PUSH1 0x4 CALLDATALOAD PUSH1 0x1 PUSH1 0x1 PUSH1 0x40 SHL SUB DUP2 GT PUSH2 0x2BD JUMPI PUSH1 0x20 SWAP2 PUSH2 0x1531 DUP4 PUSH2 0x151F PUSH1 0x40 SWAP5 CALLDATASIZE SWAP1 PUSH1 0x4 ADD PUSH2 0x198D JUMP JUMPDEST DUP2 DUP6 MLOAD SWAP4 DUP3 DUP6 DUP1 SWAP5 MLOAD SWAP4 DUP5 SWAP3 ADD PUSH2 0x1919 JUMP JUMPDEST DUP2 ADD PUSH1 0x5 DUP2 MSTORE SUB ADD SWAP1 KECCAK256 PUSH1 0x24 CALLDATALOAD DUP3 MSTORE DUP4 MSTORE KECCAK256 SLOAD PUSH1 0x40 MLOAD SWAP1 DUP2 MSTORE RETURN JUMPDEST POP CALLVALUE PUSH2 0x1DB JUMPI PUSH1 0x40 CALLDATASIZE PUSH1 0x3 NOT ADD SLT PUSH2 0x1DB JUMPI PUSH2 0x23A PUSH1 0x4 CALLDATALOAD PUSH2 0x156C PUSH2 0x1977 JUMP JUMPDEST SWAP1 DUP1 DUP5 MSTORE PUSH1 0x1 PUSH1 0x20 MSTORE PUSH2 0x1585 PUSH1 0x1 PUSH1 0x40 DUP7 KECCAK256 ADD SLOAD PUSH2 0x1A6C JUMP JUMPDEST PUSH2 0x1B45 JUMP JUMPDEST POP CALLVALUE PUSH2 0x1DB JUMPI DUP1 PUSH1 0x3 NOT CALLDATASIZE ADD SLT PUSH2 0x1DB JUMPI PUSH1 0x20 PUSH1 0x40 MLOAD PUSH2 0x5460 DUP2 MSTORE RETURN JUMPDEST POP CALLVALUE PUSH2 0x1DB JUMPI PUSH1 0x20 CALLDATASIZE PUSH1 0x3 NOT ADD SLT PUSH2 0x1DB JUMPI PUSH2 0x15C1 PUSH2 0x1961 JUMP JUMPDEST PUSH2 0x15C9 PUSH2 0x1A10 JUMP JUMPDEST PUSH1 0x1 PUSH1 0x1 PUSH1 0xA0 SHL SUB DUP2 AND ISZERO PUSH2 0x15E1 JUMPI PUSH2 0x23A SWAP1 PUSH2 0x1A92 JUMP JUMPDEST PUSH1 0x40 MLOAD PUSH3 0x461BCD PUSH1 0xE5 SHL DUP2 MSTORE PUSH1 0x20 PUSH1 0x4 DUP3 ADD MSTORE PUSH1 0x18 PUSH1 0x24 DUP3 ADD MSTORE PUSH32 0x4F7261636C653A20696E76616C6964206F70657261746F720000000000000000 PUSH1 0x44 DUP3 ADD MSTORE PUSH1 0x64 SWAP1 REVERT JUMPDEST POP CALLVALUE PUSH2 0x1DB JUMPI DUP1 PUSH1 0x3 NOT CALLDATASIZE ADD SLT PUSH2 0x1DB JUMPI PUSH1 0x20 PUSH1 0x40 MLOAD PUSH32 0x55435DD261A4B9B3364963F7738A7A662AD9C84396D64BE3365284BB7F0A5041 DUP2 MSTORE RETURN JUMPDEST POP CALLVALUE PUSH2 0x1DB JUMPI PUSH1 0x20 CALLDATASIZE PUSH1 0x3 NOT ADD SLT PUSH2 0x1DB JUMPI PUSH1 0x1 PUSH1 0x40 PUSH1 0x20 SWAP3 PUSH1 0x4 CALLDATALOAD DUP2 MSTORE DUP3 DUP5 MSTORE KECCAK256 ADD SLOAD PUSH1 0x40 MLOAD SWAP1 DUP2 MSTORE RETURN JUMPDEST POP CALLVALUE PUSH2 0x1DB JUMPI PUSH1 0x20 CALLDATASIZE PUSH1 0x3 NOT ADD SLT PUSH2 0x1DB JUMPI PUSH1 0x40 SWAP1 PUSH1 0x4 CALLDATALOAD DUP2 MSTORE PUSH1 0x4 PUSH1 0x20 MSTORE KECCAK256 PUSH1 0xFF DUP2 SLOAD AND PUSH1 0x1 DUP3 ADD SLOAD SWAP2 PUSH2 0x16C4 PUSH1 0x2 DUP3 ADD PUSH2 0x1873 JUMP JUMPDEST PUSH1 0x3 DUP3 ADD SLOAD SWAP2 PUSH2 0x172C PUSH1 0x4 DUP3 ADD SLOAD SWAP4 PUSH2 0x16DF PUSH1 0x5 DUP5 ADD PUSH2 0x1873 JUMP JUMPDEST PUSH1 0x7 DUP5 ADD SLOAD SWAP6 PUSH2 0x1714 PUSH1 0x9 PUSH1 0xFF PUSH1 0x8 DUP9 ADD SLOAD AND SWAP7 ADD SLOAD SWAP7 PUSH1 0x40 MLOAD SWAP11 DUP12 SWAP11 DUP12 MSTORE PUSH1 0x20 DUP12 ADD MSTORE PUSH2 0x120 DUP1 PUSH1 0x40 DUP13 ADD MSTORE DUP11 ADD SWAP1 PUSH2 0x193C JUMP JUMPDEST SWAP3 PUSH1 0x60 DUP10 ADD MSTORE PUSH1 0x80 DUP9 ADD MSTORE DUP7 DUP3 SUB PUSH1 0xA0 DUP9 ADD MSTORE PUSH2 0x193C JUMP JUMPDEST SWAP3 PUSH1 0xC0 DUP6 ADD MSTORE ISZERO ISZERO PUSH1 0xE0 DUP5 ADD MSTORE PUSH2 0x100 DUP4 ADD MSTORE SUB SWAP1 RETURN JUMPDEST POP CALLVALUE PUSH2 0x1DB JUMPI DUP1 PUSH1 0x3 NOT CALLDATASIZE ADD SLT PUSH2 0x1DB JUMPI PUSH1 0x20 PUSH1 0x40 MLOAD PUSH32 0xF9B712ED3CD0E90CDC9D1ABAC8FB677BF018AF115FB294C768A96B48BD6922C5 DUP2 MSTORE RETURN JUMPDEST POP CALLVALUE PUSH2 0x1DB JUMPI DUP1 PUSH1 0x3 NOT CALLDATASIZE ADD SLT PUSH2 0x1DB JUMPI PUSH1 0x20 PUSH1 0x40 MLOAD PUSH1 0xA DUP2 MSTORE RETURN JUMPDEST SWAP1 POP CALLVALUE PUSH2 0x2BD JUMPI PUSH1 0x20 CALLDATASIZE PUSH1 0x3 NOT ADD SLT PUSH2 0x2BD JUMPI PUSH1 0x4 CALLDATALOAD PUSH4 0xFFFFFFFF PUSH1 0xE0 SHL DUP2 AND DUP1 SWAP2 SUB PUSH2 0x44E JUMPI PUSH1 0x20 SWAP3 POP PUSH4 0x7965DB0B PUSH1 0xE0 SHL DUP2 EQ SWAP1 DUP2 ISZERO PUSH2 0x17DE JUMPI JUMPDEST POP ISZERO ISZERO DUP2 MSTORE RETURN JUMPDEST PUSH4 0x1FFC9A7 PUSH1 0xE0 SHL EQ SWAP1 POP CODESIZE PUSH2 0x17D7 JUMP JUMPDEST SWAP1 PUSH1 0x1 DUP3 DUP2 SHR SWAP3 AND DUP1 ISZERO PUSH2 0x181F JUMPI JUMPDEST PUSH1 0x20 DUP4 LT EQ PUSH2 0x1809 JUMPI JUMP JUMPDEST PUSH4 0x4E487B71 PUSH1 0xE0 SHL PUSH1 0x0 MSTORE PUSH1 0x22 PUSH1 0x4 MSTORE PUSH1 0x24 PUSH1 0x0 REVERT JUMPDEST SWAP2 PUSH1 0x7F AND SWAP2 PUSH2 0x17FE JUMP JUMPDEST PUSH1 0x1 PUSH1 0x1 PUSH1 0x40 SHL SUB DUP2 GT PUSH2 0x183C JUMPI PUSH1 0x40 MSTORE JUMP JUMPDEST PUSH4 0x4E487B71 PUSH1 0xE0 SHL PUSH1 0x0 MSTORE PUSH1 0x41 PUSH1 0x4 MSTORE PUSH1 0x24 PUSH1 0x0 REVERT JUMPDEST SWAP1 PUSH1 0x1F DUP1 NOT SWAP2 ADD AND DUP2 ADD SWAP1 DUP2 LT PUSH1 0x1 PUSH1 0x1 PUSH1 0x40 SHL SUB DUP3 GT OR PUSH2 0x183C JUMPI PUSH1 0x40 MSTORE JUMP JUMPDEST SWAP1 PUSH1 0x40 MLOAD SWAP2 DUP3 PUSH1 0x0 DUP3 SLOAD SWAP3 PUSH2 0x1887 DUP5 PUSH2 0x17EF JUMP JUMPDEST SWAP1 DUP2 DUP5 MSTORE PUSH1 0x1 SWAP5 DUP6 DUP2 AND SWAP1 DUP2 PUSH1 0x0 EQ PUSH2 0x18F6 JUMPI POP PUSH1 0x1 EQ PUSH2 0x18B3 JUMPI JUMPDEST POP POP PUSH2 0x18B1 SWAP3 POP SUB DUP4 PUSH2 0x1852 JUMP JUMPDEST JUMP JUMPDEST SWAP1 SWAP4 SWAP2 POP PUSH1 0x0 MSTORE PUSH1 0x20 SWAP1 DUP2 PUSH1 0x0 KECCAK256 SWAP4 PUSH1 0x0 SWAP2 JUMPDEST DUP2 DUP4 LT PUSH2 0x18DE JUMPI POP POP PUSH2 0x18B1 SWAP4 POP DUP3 ADD ADD CODESIZE DUP1 PUSH2 0x18A3 JUMP JUMPDEST DUP6 SLOAD DUP9 DUP5 ADD DUP6 ADD MSTORE SWAP5 DUP6 ADD SWAP5 DUP8 SWAP5 POP SWAP2 DUP4 ADD SWAP2 PUSH2 0x18C6 JUMP JUMPDEST SWAP2 POP POP PUSH2 0x18B1 SWAP5 POP PUSH1 0x20 SWAP3 POP PUSH1 0xFF NOT AND DUP3 DUP5 ADD MSTORE ISZERO ISZERO PUSH1 0x5 SHL DUP3 ADD ADD CODESIZE DUP1 PUSH2 0x18A3 JUMP JUMPDEST PUSH1 0x0 JUMPDEST DUP4 DUP2 LT PUSH2 0x192C JUMPI POP POP PUSH1 0x0 SWAP2 ADD MSTORE JUMP JUMPDEST DUP2 DUP2 ADD MLOAD DUP4 DUP3 ADD MSTORE PUSH1 0x20 ADD PUSH2 0x191C JUMP JUMPDEST SWAP1 PUSH1 0x20 SWAP2 PUSH2 0x1955 DUP2 MLOAD DUP1 SWAP3 DUP2 DUP6 MSTORE DUP6 DUP1 DUP7 ADD SWAP2 ADD PUSH2 0x1919 JUMP JUMPDEST PUSH1 0x1F ADD PUSH1 0x1F NOT AND ADD ADD SWAP1 JUMP JUMPDEST PUSH1 0x4 CALLDATALOAD SWAP1 PUSH1 0x1 PUSH1 0x1 PUSH1 0xA0 SHL SUB DUP3 AND DUP3 SUB PUSH2 0x2B8 JUMPI JUMP JUMPDEST PUSH1 0x24 CALLDATALOAD SWAP1 PUSH1 0x1 PUSH1 0x1 PUSH1 0xA0 SHL SUB DUP3 AND DUP3 SUB PUSH2 0x2B8 JUMPI JUMP JUMPDEST DUP2 PUSH1 0x1F DUP3 ADD SLT ISZERO PUSH2 0x2B8 JUMPI DUP1 CALLDATALOAD SWAP1 PUSH1 0x1 PUSH1 0x1 PUSH1 0x40 SHL SUB DUP3 GT PUSH2 0x183C JUMPI PUSH1 0x40 MLOAD SWAP3 PUSH2 0x19C1 PUSH1 0x1F DUP5 ADD PUSH1 0x1F NOT AND PUSH1 0x20 ADD DUP6 PUSH2 0x1852 JUMP JUMPDEST DUP3 DUP5 MSTORE PUSH1 0x20 DUP4 DUP4 ADD ADD GT PUSH2 0x2B8 JUMPI DUP2 PUSH1 0x0 SWAP3 PUSH1 0x20 DUP1 SWAP4 ADD DUP4 DUP7 ADD CALLDATACOPY DUP4 ADD ADD MSTORE SWAP1 JUMP JUMPDEST SWAP2 DUP2 PUSH1 0x1F DUP5 ADD SLT ISZERO PUSH2 0x2B8 JUMPI DUP3 CALLDATALOAD SWAP2 PUSH1 0x1 PUSH1 0x1 PUSH1 0x40 SHL SUB DUP4 GT PUSH2 0x2B8 JUMPI PUSH1 0x20 DUP4 DUP2 DUP7 ADD SWAP6 ADD ADD GT PUSH2 0x2B8 JUMPI JUMP JUMPDEST CALLER PUSH1 0x0 SWAP1 DUP2 MSTORE PUSH32 0x50EFBDE2D46C37E9785F1791697F77E94BB7B701E19F1930A668820722D37694 PUSH1 0x20 MSTORE PUSH1 0x40 SWAP1 KECCAK256 SLOAD PUSH32 0xA49807205CE4D355092EF5A8A18F56E8913CF4A201FBE287825B095693C21775 SWAP1 PUSH1 0xFF AND ISZERO PUSH2 0x430 JUMPI POP JUMP JUMPDEST DUP1 PUSH1 0x0 MSTORE PUSH1 0x1 PUSH1 0x20 MSTORE PUSH1 0x40 PUSH1 0x0 KECCAK256 CALLER PUSH1 0x0 MSTORE PUSH1 0x20 MSTORE PUSH1 0xFF PUSH1 0x40 PUSH1 0x0 KECCAK256 SLOAD AND ISZERO PUSH2 0x430 JUMPI POP JUMP JUMPDEST PUSH1 0x1 PUSH1 0x1 PUSH1 0xA0 SHL SUB AND PUSH1 0x0 DUP2 DUP2 MSTORE PUSH32 0x8EF1F5B0844A73060266BC261A82E6BC043AE729756E57EBE49C7306D822B48A PUSH1 0x20 MSTORE PUSH1 0x40 DUP2 KECCAK256 SLOAD SWAP1 SWAP2 SWAP1 PUSH32 0xF9B712ED3CD0E90CDC9D1ABAC8FB677BF018AF115FB294C768A96B48BD6922C5 SWAP1 PUSH1 0xFF AND PUSH2 0x1B40 JUMPI DUP1 DUP4 MSTORE PUSH1 0x1 PUSH1 0x20 MSTORE PUSH1 0x40 DUP4 KECCAK256 DUP3 DUP5 MSTORE PUSH1 0x20 MSTORE PUSH1 0x40 DUP4 KECCAK256 PUSH1 0x1 PUSH1 0xFF NOT DUP3 SLOAD AND OR SWAP1 SSTORE PUSH32 0x2F8788117E7EFF1D82E926EC794901D17C78024A50270940304540A733656F0D CALLER SWAP4 DUP1 LOG4 PUSH1 0x1 SWAP1 JUMP JUMPDEST POP POP SWAP1 JUMP JUMPDEST SWAP1 PUSH1 0x0 SWAP2 DUP1 DUP4 MSTORE PUSH1 0x1 PUSH1 0x20 MSTORE PUSH1 0x40 DUP4 KECCAK256 SWAP2 PUSH1 0x1 DUP1 PUSH1 0xA0 SHL SUB AND SWAP2 DUP3 DUP5 MSTORE PUSH1 0x20 MSTORE PUSH1 0xFF PUSH1 0x40 DUP5 KECCAK256 SLOAD AND ISZERO PUSH1 0x0 EQ PUSH2 0x1B40 JUMPI DUP1 DUP4 MSTORE PUSH1 0x1 PUSH1 0x20 MSTORE PUSH1 0x40 DUP4 KECCAK256 DUP3 DUP5 MSTORE PUSH1 0x20 MSTORE PUSH1 0x40 DUP4 KECCAK256 PUSH1 0x1 PUSH1 0xFF NOT DUP3 SLOAD AND OR SWAP1 SSTORE PUSH32 0x2F8788117E7EFF1D82E926EC794901D17C78024A50270940304540A733656F0D CALLER SWAP4 DUP1 LOG4 PUSH1 0x1 SWAP1 JUMP JUMPDEST SWAP1 PUSH1 0x0 SWAP2 DUP1 DUP4 MSTORE PUSH1 0x1 PUSH1 0x20 MSTORE PUSH1 0x40 DUP4 KECCAK256 SWAP2 PUSH1 0x1 DUP1 PUSH1 0xA0 SHL SUB AND SWAP2 DUP3 DUP5 MSTORE PUSH1 0x20 MSTORE PUSH1 0xFF PUSH1 0x40 DUP5 KECCAK256 SLOAD AND PUSH1 0x0 EQ PUSH2 0x1B40 JUMPI DUP1 DUP4 MSTORE PUSH1 0x1 PUSH1 0x20 MSTORE PUSH1 0x40 DUP4 KECCAK256 DUP3 DUP5 MSTORE PUSH1 0x20 MSTORE PUSH1 0x40 DUP4 KECCAK256 PUSH1 0xFF NOT DUP2 SLOAD AND SWAP1 SSTORE PUSH32 0xF6391F5C32D9C69D2A47EA670B442974B53935D1EDC7FD64EB21E047A839171B CALLER SWAP4 DUP1 LOG4 PUSH1 0x1 SWAP1 JUMP JUMPDEST SWAP2 SWAP1 DUP3 ADD DUP1 SWAP3 GT PUSH2 0x1C44 JUMPI JUMP JUMPDEST PUSH4 0x4E487B71 PUSH1 0xE0 SHL PUSH1 0x0 MSTORE PUSH1 0x11 PUSH1 0x4 MSTORE PUSH1 0x24 PUSH1 0x0 REVERT JUMPDEST PUSH1 0x0 NOT DUP2 EQ PUSH2 0x1C44 JUMPI PUSH1 0x1 ADD SWAP1 JUMP JUMPDEST DUP2 DUP2 LT PUSH2 0x1C74 JUMPI POP POP JUMP JUMPDEST PUSH1 0x0 DUP2 SSTORE PUSH1 0x1 ADD PUSH2 0x1C69 JUMP JUMPDEST SWAP1 DUP1 PUSH1 0x20 SWAP4 SWAP3 DUP2 DUP5 MSTORE DUP5 DUP5 ADD CALLDATACOPY PUSH1 0x0 DUP3 DUP3 ADD DUP5 ADD MSTORE PUSH1 0x1F ADD PUSH1 0x1F NOT AND ADD ADD SWAP1 JUMP JUMPDEST PUSH1 0xFF PUSH1 0x2 SLOAD AND PUSH2 0x1CAD JUMPI JUMP JUMPDEST PUSH1 0x40 MLOAD PUSH4 0xD93C0665 PUSH1 0xE0 SHL DUP2 MSTORE PUSH1 0x4 SWAP1 REVERT JUMPDEST PUSH1 0x2 PUSH1 0x0 SLOAD EQ PUSH2 0x1CD0 JUMPI PUSH1 0x2 PUSH1 0x0 SSTORE JUMP JUMPDEST PUSH1 0x40 MLOAD PUSH4 0x3EE5AEB5 PUSH1 0xE0 SHL DUP2 MSTORE PUSH1 0x4 SWAP1 REVERT JUMPDEST ISZERO PUSH2 0x1CE9 JUMPI JUMP JUMPDEST PUSH1 0x40 MLOAD PUSH3 0x461BCD PUSH1 0xE5 SHL DUP2 MSTORE PUSH1 0x20 PUSH1 0x4 DUP3 ADD MSTORE PUSH1 0x18 PUSH1 0x24 DUP3 ADD MSTORE PUSH32 0x4F7261636C653A20616C72656164792065786563757465640000000000000000 PUSH1 0x44 DUP3 ADD MSTORE PUSH1 0x64 SWAP1 REVERT JUMPDEST SWAP1 DUP2 SLOAD DUP1 DUP3 MSTORE PUSH1 0x20 DUP1 SWAP3 ADD SWAP3 PUSH1 0x0 MSTORE DUP2 PUSH1 0x0 KECCAK256 SWAP2 PUSH1 0x0 SWAP1 JUMPDEST DUP3 DUP3 LT PUSH2 0x1D54 JUMPI POP POP POP POP SWAP1 JUMP JUMPDEST DUP4 SLOAD PUSH1 0x1 PUSH1 0x1 PUSH1 0xA0 SHL SUB AND DUP6 MSTORE SWAP4 DUP5 ADD SWAP4 PUSH1 0x1 SWAP4 DUP5 ADD SWAP4 SWAP1 SWAP2 ADD SWAP1 PUSH2 0x1D46 JUMP JUMPDEST PUSH1 0xFF AND PUSH1 0x1 DUP2 EQ PUSH2 0x1EC7 JUMPI PUSH1 0x2 DUP2 EQ PUSH2 0x1EA2 JUMPI PUSH1 0x3 DUP2 EQ PUSH2 0x1E7D JUMPI PUSH1 0x4 DUP2 EQ PUSH2 0x1E58 JUMPI PUSH1 0x5 DUP2 EQ PUSH2 0x1E33 JUMPI PUSH1 0x6 DUP2 EQ PUSH2 0x1E0E JUMPI PUSH1 0x7 EQ PUSH2 0x1DEA JUMPI PUSH1 0x40 MLOAD PUSH3 0x461BCD PUSH1 0xE5 SHL DUP2 MSTORE PUSH1 0x20 PUSH1 0x4 DUP3 ADD MSTORE PUSH1 0x14 PUSH1 0x24 DUP3 ADD MSTORE PUSH20 0x4F7261636C653A20696E76616C69642074797065 PUSH1 0x60 SHL PUSH1 0x44 DUP3 ADD MSTORE PUSH1 0x64 SWAP1 REVERT JUMPDEST PUSH32 0x1456948C787B6BEA2311410679F7FCA225F0C17407127BB48F9AAE4F0BC0A424 SWAP1 JUMP JUMPDEST POP PUSH32 0x9AB95608EFA90E42D0AC148C1B94F3DC1181D7A2722A638B493A943BCFB5B48F SWAP1 JUMP JUMPDEST POP PUSH32 0x2558EAC5940F37323A05EAEDB05B771532B42BA1A269A877869DC2814C0E5B52 SWAP1 JUMP JUMPDEST POP PUSH32 0xF5EED3C8A1C89C67D932A7A654A03BC0971D406B80B924BB618AA2FAB7158C33 SWAP1 JUMP JUMPDEST POP PUSH32 0x735AC48ED4F0AD1A4CBD4F9C9CC37F1E17B8C19AB410EF4C9EFEEC698761F08A SWAP1 JUMP JUMPDEST POP PUSH32 0xEB5407CA6BA8D11327CAB70541BBA19F6FD74F868B7EB52C23E0871F095C8093 SWAP1 JUMP JUMPDEST POP PUSH32 0x16B7C7C21AC9867C03381FB04AE49B08B3D47DBCE5E18E8A840F439E93B7B01A SWAP1 JUMP INVALID LOG2 PUSH5 0x6970667358 0x22 SLT KECCAK256 SLT 0x4C 0xEB COINBASE 0xCE 0xC7 DUP5 TIMESTAMP NUMBER 0xC1 0xCA 0xA9 0xCA PUSH12 0x774D1BA34C3899B76A5141B7 0xF7 0xF CALLDATASIZE 0xBB PUSH31 0xAC64736F6C634300081400332F8788117E7EFF1D82E926EC794901D17C7802 0x4A POP 0x27 MULMOD BLOCKHASH ADDRESS GASLIMIT BLOCKHASH 0xA7 CALLER PUSH6 0x6F0D00000000 "},"methodIdentifiers":{"ADMIN_ROLE()":"75b238fc","ALERT_COOLDOWN()":"2c152998","CONFIDENCE_MULTIPLIER()":"71ca3176","DEFAULT_ADMIN_ROLE()":"a217fddf","GUARDIAN_ROLE()":"24ea54f4","MAX_ALERTS_PER_DAY()":"0f2b3444","MIN_CONFIDENCE()":"41f93757","ORACLE_OPERATOR_ROLE()":"11d11a5b","ORACLE_REWARD_RATE()":"cd258033","addOracleOperator(address)":"28e6ef3f","alertCount()":"ab446491","alerts(uint256)":"171d073a","claimRewards()":"372500ab","climateStaking()":"eaa04315","dailyAlertCount(string,uint256)":"344b5a20","emergencyOverride(uint256,string)":"cacb6541","getAlert(uint256)":"85081886","getOracleStats()":"c6c035b5","getRoleAdmin(bytes32)":"248a9ca3","grantRole(bytes32,address)":"2f2ff15d","hasRole(bytes32,address)":"91d14854","kaiToken()":"9bcfdfc0","lastAlertTime(string,uint8)":"d30f5ce9","operatorRewards(address)":"41a2b8d6","pause()":"8456cb59","paused()":"5c975abb","renounceRole(bytes32,address)":"36568abe","revokeRole(bytes32,address)":"d547741f","submitAlert(uint8,string,uint256,uint256,string,address[])":"7e305998","supportsInterface(bytes4)":"01ffc9a7","totalAlertsExecuted()":"ea9eb835","totalConfidenceScore()":"6f3b9622","totalRewardsPaid()":"74958e35","unpause()":"3f4ba83a"}}}}}