{"contracts/KAIRevenue.sol":{"KAIRevenue":{"abi":[{"inputs":[{"internalType":"address","name":"_kaiToken","type":"address"},{"internalType":"address","name":"_treasury","type":"address"},{"internalType":"address","name":"admin","type":"address"}],"stateMutability":"nonpayable","type":"constructor"},{"inputs":[],"name":"AccessControlBadConfirmation","type":"error"},{"inputs":[{"internalType":"address","name":"account","type":"address"},{"internalType":"bytes32","name":"neededRole","type":"bytes32"}],"name":"AccessControlUnauthorizedAccount","type":"error"},{"inputs":[],"name":"EnforcedPause","type":"error"},{"inputs":[],"name":"ExpectedPause","type":"error"},{"inputs":[],"name":"ReentrancyGuardReentrantCall","type":"error"},{"anonymous":false,"inputs":[{"indexed":true,"internalType":"address","name":"user","type":"address"},{"indexed":false,"internalType":"string","name":"endpoint","type":"string"},{"indexed":false,"internalType":"uint256","name":"price","type":"uint256"}],"name":"APICallPaid","type":"event"},{"anonymous":false,"inputs":[{"indexed":true,"internalType":"address","name":"user","type":"address"},{"indexed":false,"internalType":"enum KAIRevenue.AlertType","name":"alertType","type":"uint8"},{"indexed":false,"internalType":"uint256","name":"price","type":"uint256"},{"indexed":false,"internalType":"uint256","name":"revenue","type":"uint256"}],"name":"AlertPurchased","type":"event"},{"anonymous":false,"inputs":[{"indexed":false,"internalType":"address","name":"account","type":"address"}],"name":"Paused","type":"event"},{"anonymous":false,"inputs":[{"indexed":false,"internalType":"uint256","name":"amount","type":"uint256"},{"indexed":false,"internalType":"uint256","name":"totalRevenue","type":"uint256"}],"name":"RevenueCollected","type":"event"},{"anonymous":false,"inputs":[{"indexed":true,"internalType":"bytes32","name":"role","type":"bytes32"},{"indexed":true,"internalType":"bytes32","name":"previousAdminRole","type":"bytes32"},{"indexed":true,"internalType":"bytes32","name":"newAdminRole","type":"bytes32"}],"name":"RoleAdminChanged","type":"event"},{"anonymous":false,"inputs":[{"indexed":true,"internalType":"bytes32","name":"role","type":"bytes32"},{"indexed":true,"internalType":"address","name":"account","type":"address"},{"indexed":true,"internalType":"address","name":"sender","type":"address"}],"name":"RoleGranted","type":"event"},{"anonymous":false,"inputs":[{"indexed":true,"internalType":"bytes32","name":"role","type":"bytes32"},{"indexed":true,"internalType":"address","name":"account","type":"address"},{"indexed":true,"internalType":"address","name":"sender","type":"address"}],"name":"RoleRevoked","type":"event"},{"anonymous":false,"inputs":[{"indexed":true,"internalType":"address","name":"user","type":"address"},{"indexed":false,"internalType":"enum KAIRevenue.SubscriptionPlan","name":"plan","type":"uint8"},{"indexed":false,"internalType":"uint256","name":"price","type":"uint256"},{"indexed":false,"internalType":"uint256","name":"expiresAt","type":"uint256"}],"name":"SubscriptionPurchased","type":"event"},{"anonymous":false,"inputs":[{"indexed":true,"internalType":"address","name":"user","type":"address"},{"indexed":false,"internalType":"enum KAIRevenue.SubscriptionPlan","name":"plan","type":"uint8"},{"indexed":false,"internalType":"uint256","name":"expiresAt","type":"uint256"}],"name":"SubscriptionRenewed","type":"event"},{"anonymous":false,"inputs":[{"indexed":false,"internalType":"address","name":"account","type":"address"}],"name":"Unpaused","type":"event"},{"inputs":[],"name":"ADMIN_ROLE","outputs":[{"internalType":"bytes32","name":"","type":"bytes32"}],"stateMutability":"view","type":"function"},{"inputs":[],"name":"ALERT_BASIC","outputs":[{"internalType":"uint256","name":"","type":"uint256"}],"stateMutability":"view","type":"function"},{"inputs":[],"name":"ALERT_PREMIUM","outputs":[{"internalType":"uint256","name":"","type":"uint256"}],"stateMutability":"view","type":"function"},{"inputs":[],"name":"ALERT_URGENT","outputs":[{"internalType":"uint256","name":"","type":"uint256"}],"stateMutability":"view","type":"function"},{"inputs":[],"name":"DEFAULT_ADMIN_ROLE","outputs":[{"internalType":"bytes32","name":"","type":"bytes32"}],"stateMutability":"view","type":"function"},{"inputs":[],"name":"ORACLE_ROLE","outputs":[{"internalType":"bytes32","name":"","type":"bytes32"}],"stateMutability":"view","type":"function"},{"inputs":[],"name":"SUBSCRIPTION_BASIC","outputs":[{"internalType":"uint256","name":"","type":"uint256"}],"stateMutability":"view","type":"function"},{"inputs":[],"name":"SUBSCRIPTION_ENTERPRISE","outputs":[{"internalType":"uint256","name":"","type":"uint256"}],"stateMutability":"view","type":"function"},{"inputs":[],"name":"SUBSCRIPTION_PREMIUM","outputs":[{"internalType":"uint256","name":"","type":"uint256"}],"stateMutability":"view","type":"function"},{"inputs":[],"name":"activeSubscribers","outputs":[{"internalType":"uint256","name":"","type":"uint256"}],"stateMutability":"view","type":"function"},{"inputs":[{"internalType":"enum KAIRevenue.AlertType","name":"alertType","type":"uint8"}],"name":"buyAlert","outputs":[{"internalType":"uint256","name":"","type":"uint256"}],"stateMutability":"nonpayable","type":"function"},{"inputs":[{"internalType":"address","name":"user","type":"address"}],"name":"getCustomerStats","outputs":[{"internalType":"uint256","name":"spent","type":"uint256"},{"internalType":"uint256","name":"alerts","type":"uint256"},{"internalType":"enum KAIRevenue.SubscriptionPlan","name":"plan","type":"uint8"},{"internalType":"bool","name":"hasSubscription","type":"bool"}],"stateMutability":"view","type":"function"},{"inputs":[],"name":"getRevenueStats","outputs":[{"internalType":"uint256","name":"_totalRevenue","type":"uint256"},{"internalType":"uint256","name":"_monthlyRevenue","type":"uint256"},{"internalType":"uint256","name":"_activeSubscribers","type":"uint256"},{"internalType":"uint256","name":"_totalCustomers","type":"uint256"}],"stateMutability":"view","type":"function"},{"inputs":[{"internalType":"bytes32","name":"role","type":"bytes32"}],"name":"getRoleAdmin","outputs":[{"internalType":"bytes32","name":"","type":"bytes32"}],"stateMutability":"view","type":"function"},{"inputs":[{"internalType":"enum KAIRevenue.AlertType","name":"alertType","type":"uint8"}],"name":"getSubscriberAlert","outputs":[{"internalType":"uint256","name":"","type":"uint256"}],"stateMutability":"nonpayable","type":"function"},{"inputs":[{"internalType":"address","name":"user","type":"address"}],"name":"getSubscription","outputs":[{"internalType":"enum KAIRevenue.SubscriptionPlan","name":"plan","type":"uint8"},{"internalType":"uint256","name":"expiresAt","type":"uint256"},{"internalType":"uint256","name":"alertsUsed","type":"uint256"},{"internalType":"bool","name":"active","type":"bool"},{"internalType":"bool","name":"expired","type":"bool"}],"stateMutability":"view","type":"function"},{"inputs":[{"internalType":"bytes32","name":"role","type":"bytes32"},{"internalType":"address","name":"account","type":"address"}],"name":"grantRole","outputs":[],"stateMutability":"nonpayable","type":"function"},{"inputs":[{"internalType":"address","name":"user","type":"address"}],"name":"hasActiveSubscription","outputs":[{"internalType":"bool","name":"","type":"bool"}],"stateMutability":"view","type":"function"},{"inputs":[{"internalType":"bytes32","name":"role","type":"bytes32"},{"internalType":"address","name":"account","type":"address"}],"name":"hasRole","outputs":[{"internalType":"bool","name":"","type":"bool"}],"stateMutability":"view","type":"function"},{"inputs":[],"name":"kaiToken","outputs":[{"internalType":"contract KAIToken","name":"","type":"address"}],"stateMutability":"view","type":"function"},{"inputs":[],"name":"monthlyRevenue","outputs":[{"internalType":"uint256","name":"","type":"uint256"}],"stateMutability":"view","type":"function"},{"inputs":[],"name":"pause","outputs":[],"stateMutability":"nonpayable","type":"function"},{"inputs":[],"name":"paused","outputs":[{"internalType":"bool","name":"","type":"bool"}],"stateMutability":"view","type":"function"},{"inputs":[{"internalType":"string","name":"endpoint","type":"string"},{"internalType":"uint256","name":"price","type":"uint256"}],"name":"payForAPICall","outputs":[],"stateMutability":"nonpayable","type":"function"},{"inputs":[],"name":"renewSubscription","outputs":[],"stateMutability":"nonpayable","type":"function"},{"inputs":[{"internalType":"bytes32","name":"role","type":"bytes32"},{"internalType":"address","name":"callerConfirmation","type":"address"}],"name":"renounceRole","outputs":[],"stateMutability":"nonpayable","type":"function"},{"inputs":[],"name":"resetMonthlyRevenue","outputs":[],"stateMutability":"nonpayable","type":"function"},{"inputs":[{"internalType":"bytes32","name":"role","type":"bytes32"},{"internalType":"address","name":"account","type":"address"}],"name":"revokeRole","outputs":[],"stateMutability":"nonpayable","type":"function"},{"inputs":[{"internalType":"enum KAIRevenue.SubscriptionPlan","name":"plan","type":"uint8"}],"name":"subscribe","outputs":[],"stateMutability":"nonpayable","type":"function"},{"inputs":[{"internalType":"address","name":"","type":"address"}],"name":"subscriptions","outputs":[{"internalType":"enum KAIRevenue.SubscriptionPlan","name":"plan","type":"uint8"},{"internalType":"uint256","name":"expiresAt","type":"uint256"},{"internalType":"uint256","name":"alertsUsed","type":"uint256"},{"internalType":"bool","name":"active","type":"bool"}],"stateMutability":"view","type":"function"},{"inputs":[{"internalType":"bytes4","name":"interfaceId","type":"bytes4"}],"name":"supportsInterface","outputs":[{"internalType":"bool","name":"","type":"bool"}],"stateMutability":"view","type":"function"},{"inputs":[{"internalType":"address","name":"","type":"address"}],"name":"totalAlerts","outputs":[{"internalType":"uint256","name":"","type":"uint256"}],"stateMutability":"view","type":"function"},{"inputs":[],"name":"totalCustomers","outputs":[{"internalType":"uint256","name":"","type":"uint256"}],"stateMutability":"view","type":"function"},{"inputs":[],"name":"totalRevenue","outputs":[{"internalType":"uint256","name":"","type":"uint256"}],"stateMutability":"view","type":"function"},{"inputs":[{"internalType":"address","name":"","type":"address"}],"name":"totalSpent","outputs":[{"internalType":"uint256","name":"","type":"uint256"}],"stateMutability":"view","type":"function"},{"inputs":[],"name":"treasury","outputs":[{"internalType":"address","name":"","type":"address"}],"stateMutability":"view","type":"function"},{"inputs":[],"name":"unpause","outputs":[],"stateMutability":"nonpayable","type":"function"},{"inputs":[{"internalType":"address","name":"newTreasury","type":"address"}],"name":"updateTreasury","outputs":[],"stateMutability":"nonpayable","type":"function"}],"evm":{"bytecode":{"linkReferences":{},"object":"60a034620001ae57601f62001c4338819003918201601f1916830191906001600160401b03831184841017620001b3578160609285926040958652833981010312620001ae576200005082620001c9565b916200006c826200006460208401620001c9565b9201620001c9565b600180556001600160a01b039384169390919084156200017a578082161562000143578216156200010f5760809390935260028054610100600160a81b03191660089490941b610100600160a81b03169390931790925590620000db90620000d481620001de565b506200025e565b505161192290816200030182396080518181816106c9015281816107c601528181610b5e01528181610e0d01526111a40152f35b825162461bcd60e51b815260206004820152600d60248201526c24b73b30b634b21030b236b4b760991b6044820152606490fd5b835162461bcd60e51b815260206004820152601060248201526f496e76616c696420747265617375727960801b6044820152606490fd5b835162461bcd60e51b815260206004820152600d60248201526c24b73b30b634b2103a37b5b2b760991b6044820152606490fd5b600080fd5b634e487b7160e01b600052604160045260246000fd5b51906001600160a01b0382168203620001ae57565b6001600160a01b031660008181527fad3228b676f7d3cd4284a5443f17f1962b36e491b30a40b2405849e597ba5fb5602052604081205490919060ff166200025a57818052816020526040822081835260205260408220600160ff19825416179055339160008051602062001c238339815191528180a4600190565b5090565b6001600160a01b031660008181527f7d7ffb7a348e1c6a02869081a26547b49160dd3df72d1d75a570eb9b698292ec60205260408120549091907fa49807205ce4d355092ef5a8a18f56e8913cf4a201fbe287825b095693c217759060ff16620002fb57808352826020526040832082845260205260408320600160ff1982541617905560008051602062001c23833981519152339380a4600190565b50509056fe60806040908082526004918236101561001757600080fd5b600091823560e01c90816301ffc9a7146115285750806307e2cea5146114ee5780630b71e00b146114d05780630cbebc24146114125780630e790530146113ef5780631866dcfb146113d157806319515584146113b3578063248a9ca3146113895780632f2ff15d1461135f57806330a6cb5a1461111057806336568abe146110cb5780633f4ba83a1461106157806340740fc61461102a57806349c7e63914610d6a57806359e141a914610d475780635c975abb14610d2457806361d027b314610cf85780636e30798114610ac257806375b238fc14610a885780637ced717414610a665780637f51bb1f146109d45780638456cb591461097a578063854916511461095757806391d1485414610911578063920cddec146106f85780639bcfdfc0146106b5578063a217fddf1461069b578063a8949b4614610665578063ac18992c1461062d578063ad8e2dce1461060a578063bebe4a5714610583578063bf2d9e0b14610565578063ca966f3514610542578063cea7b63b146104b8578063d547741f14610479578063ee2f3bb714610456578063f046395a146103ee5763f3921fc3146101c757600080fd5b346103ea57602092836003193601126103e65780359060078210156103e2576101ee61189d565b6101f661187f565b338452600385528284209060ff600383015416156103a657600182015442101561036c5760ff82541681811015610359576001146102c5575b5060020161023d815461182f565b905533835260058452818320610253815461182f565b90558151848101906102798161026b8542338761183e565b03601f198101835282611602565b519020926006549061028d84518094611872565b85830152828201527fb6891ceaf8d9f7e25b595d720b980b89b2f4062dd371d4757dcc950c147a6c2860603392a26001805551908152f35b600a6002830154101561031e57600183031561022f57835162461bcd60e51b8152908101869052601860248201527f506c616e206f6e6c7920636f766572732064726f7567687400000000000000006044820152606490fd5b835162461bcd60e51b81529081018690526015602482015274135bdb9d1a1b1e481b1a5b5a5d081c995858da1959605a1b6044820152606490fd5b634e487b7160e01b865260218252602486fd5b835162461bcd60e51b8152908101869052601460248201527314dd589cd8dc9a5c1d1a5bdb88195e1c1a5c995960621b6044820152606490fd5b835162461bcd60e51b8152908101869052601660248201527527379030b1ba34bb329039bab139b1b934b83a34b7b760511b6044820152606490fd5b8380fd5b8280fd5b5080fd5b50346103ea5760203660031901126103ea5760809181906001600160a01b0361041561157c565b1681526003602052209060ff8254169160018101549160ff600360028401549301541692610445825180966115ad565b602085015283015215156060820152f35b823461047657806003193601126104765761046f611624565b8060075580f35b80fd5b508290346103e657806003193601126103e6576104b491356104af600161049e611597565b93838752866020528620015461169e565b611742565b5080f35b5082346103e65760203660031901126103e657608092906001600160a01b036104df61157c565b168252602052818120549160056020528080832054926003602052209060ff8254169060ff6003840154169283610532575b506105299293815195865260208601528401906115ad565b15156060820152f35b6001015442109250610529610511565b50346103ea57816003193601126103ea5760209051680821ab0d44149800008152f35b50346103ea57816003193601126103ea576020906006549051908152f35b50346103ea5760203660031901126103ea576020916060919081906001600160a01b036105ae61157c565b168152600385522081516105c1816115d0565b6105cf60ff835416826118c0565b60ff600360018401549384888501526002810154868501520154161515938491015282610600575b50519015158152f35b42109150836105f7565b50346103ea57816003193601126103ea5760209051681b1ae4d6e2ef5000008152f35b50346103ea57816003193601126103ea5760809060065490600754906008549060095492815194855260208501528301526060820152f35b5082346103e65760203660031901126103e65760209282916001600160a01b0361068d61157c565b168252845220549051908152f35b50346103ea57816003193601126103ea5751908152602090f35b50346103ea57816003193601126103ea57517f00000000000000000000000000000000000000000000000000000000000000006001600160a01b03168152602090f35b50346103ea57806003193601126103ea5782359267ffffffffffffffff8085116103e257366023860112156103e257848201359081116108fe57825194602091601f199161074d601f83018416850189611602565b81885236602483830101116108fa578187926024869301838b0137880101526024359261077861189d565b61078061187f565b60025485516323b872dd60e01b81523383820190815260089290921c6001600160a01b0390811660208401526040830187905290918591839182908b90829060600103927f0000000000000000000000000000000000000000000000000000000000000000165af19081156108f057906108019188916108c3575b506117cf565b61080d8460065461180c565b60065561081c8460075461180c565b600755338652825283852061083284825461180c565b905583518481528651918286830152865b8381106108af5750869750906060817f59d994eb6ef2b5603b42db4c9f52ce55d11e498a58b1b2e1d8325c1e27227e34936000805160206118cd833981519152998387840101528787830152601f339601168101030190a2600654908351928352820152a16001805580f35b888101850151838201606001528401610843565b6108e39150853d87116108e9575b6108db8183611602565b8101906117b7565b386107fb565b503d6108d1565b86513d89823e3d90fd5b8680fd5b634e487b7160e01b845260418252602484fd5b5082346103e657816003193601126103e6578160209360ff92610932611597565b903582528186528282206001600160a01b039091168252855220549151911615158152f35b50346103ea57816003193601126103ea57602090516801a055690d9db800008152f35b50346103ea57816003193601126103ea5760207f62e78cea01bee320cd4e420270b5ea74000d11b0c9f74754ebdbfc544b05a258916109b7611624565b6109bf61187f565b600160ff19600254161760025551338152a180f35b5082346103e65760203660031901126103e6576109ef61157c565b916109f8611624565b6001600160a01b03831615610a3157505060028054610100600160a81b03191660089290921b610100600160a81b031691909117905580f35b906020606492519162461bcd60e51b8352820152600f60248201526e496e76616c6964206164647265737360881b6044820152fd5b50346103ea57816003193601126103ea5760209051678ac7230489e800008152f35b50346103ea57816003193601126103ea57602090517fa49807205ce4d355092ef5a8a18f56e8913cf4a201fbe287825b095693c217758152f35b50346103ea57816003193601126103ea57610adb61189d565b610ae361187f565b3382526020600381528183209060ff82541685811015610ce5578015610cb05760018103610c8957506802b5e3af16b1880000915b60025484516323b872dd60e01b81523381890190815260089290921c6001600160a01b0390811660208401526040830186905290918491839182908a90829060600103927f0000000000000000000000000000000000000000000000000000000000000000165af1908115610c7f5790610b98918791610c6857506117cf565b62278d00420190814211610c5557806000805160206118cd8339815191529697600160ff93019384558860028301556003820160018419825416179055610be18660065461180c565b600655610bf08660075461180c565b6007553389528452858820610c0686825461180c565b905554169054610c18855180936115ad565b828201527f1af2f2c576585623f24cdd3d12995de86e6d2ef881e797dab79b51bc71fb0a9a843392a2600654908351928352820152a16001805580f35b634e487b7160e01b865260118752602486fd5b6108e39150843d86116108e9576108db8183611602565b85513d88823e3d90fd5b600203610ca057680821ab0d441498000091610b18565b681b1ae4d6e2ef50000091610b18565b835162461bcd60e51b8152808701839052600f60248201526e27379039bab139b1b934b83a34b7b760891b6044820152606490fd5b634e487b7160e01b855260218652602485fd5b50346103ea57816003193601126103ea57600254905160089190911c6001600160a01b03168152602090f35b50346103ea57816003193601126103ea5760209060ff6002541690519015158152f35b50346103ea57816003193601126103ea57602090516802b5e3af16b18800008152f35b50346103ea576020806003193601126103e657833590848210156103e257610d9061189d565b610d9861187f565b8115610ff9573384526003815260ff6003848620015416610fc25760018203610f9a576802b5e3af16b1880000915b60025484516323b872dd60e01b81523381890190815260089290921c6001600160a01b0390811660208401526040830186905290918491839182908a90829060600103927f0000000000000000000000000000000000000000000000000000000000000000165af1908115610c7f5790610e47918791610c6857506117cf565b62278d004201804211610c5557845196610e60886115d0565b610e6a83896118c0565b8388018281528689019088825260608a019160018352338a5260038752888a209a519184831015610f87576000805160206118cd8339815191529a9b60ff92600392841995858785541691161783555160018301555160028201550192511515918354169116179055610edf8560065461180c565b600655610eee8560075461180c565b6007553388528352848720610f0485825461180c565b9055610f1160085461182f565b600855338752600583528487205415610f74575b610f31855180936115ad565b8383830152848201527f559531f26d3d225cebcd22eb4b5a893fffe267028468d998315d80fd4bdd22fb60603392a2600654908351928352820152a16001805580f35b610f7f60095461182f565b600955610f25565b634e487b7160e01b8b526021855260248bfd5b60028203610fb257680821ab0d441498000091610dc7565b681b1ae4d6e2ef50000091610dc7565b8460649184519162461bcd60e51b83528201526012602482015271105b1c9958591e481cdd589cd8dc9a58995960721b6044820152fd5b8460649184519162461bcd60e51b8352820152600c60248201526b24b73b30b634b210383630b760a11b6044820152fd5b50346103ea5760203660031901126103ea5760209181906001600160a01b0361105161157c565b1681526005845220549051908152f35b5082346103e657826003193601126103e65761107b611624565b6002549060ff8216156110bd575060ff1916600255513381527f5db9ee0a495bf2e6ff9c91a7834c1ba4fdd244a5e8aa4e537bd38aeae4b073aa90602090a180f35b8251638dfc202b60e01b8152fd5b50346103ea57806003193601126103ea576110e4611597565b90336001600160a01b0383160361110157506104b4919235611742565b5163334bd91960e11b81528390fd5b50346103ea57602092836003193601126103e65780359260078410156104765761113861189d565b61114061187f565b80600385148015611353575b1561130657506801a055690d9db80000915b60025484516323b872dd60e01b81523383820190815260089290921c6001600160a01b0390811660208401526040830186905290918891839182908790829060600103927f0000000000000000000000000000000000000000000000000000000000000000165af19081156112fc57906111de9184916112e557506117cf565b6111ea8360065461180c565b6006556111f98360075461180c565b60075533825280865283822061121084825461180c565b905533825260058652838220805491600183018093116112d257505533815260058552829020546000805160206118cd8339815191529183916001146112bf575b8151868101906112678161026b8942338761183e565b519020946006549061127b84518092611872565b828882015281848201527fb6891ceaf8d9f7e25b595d720b980b89b2f4062dd371d4757dcc950c147a6c2860603392a2825191825286820152a16001805551908152f35b6112ca60095461182f565b600955611251565b634e487b7160e01b845260119052602483fd5b6108e39150883d8a116108e9576108db8183611602565b85513d85823e3d90fd5b6113415783158015611337575b15611328576801158e460913d000009161115e565b678ac7230489e800009161115e565b5060028414611313565b6021602492634e487b7160e01b835252fd5b5050806006851461114c565b508290346103e657806003193601126103e6576104b49135611384600161049e611597565b6116c4565b5082346103e65760203660031901126103e657816020936001923581528085522001549051908152f35b50346103ea57816003193601126103ea576020906008549051908152f35b50346103ea57816003193601126103ea576020906009549051908152f35b50346103ea57816003193601126103ea57602090516801158e460913d000008152f35b50346103ea5760203660031901126103ea576001600160a01b0361143461157c565b168252600360205280822090805161144b816115d0565b61145960ff845416826118c0565b60018301546020820190815260ff6003600286015495858501968752015416916060810192151583525194868610156114bd575060a0955051925190511515916114a5815180966115ad565b83602086015284015260608301524210156080820152f35b634e487b7160e01b815260218752602490fd5b50346103ea57816003193601126103ea576020906007549051908152f35b50346103ea57816003193601126103ea57602090517f68e79a7bf1e0bc45d0a330c573bc367f9cf464fd326078812f301165fbda4ef18152f35b839085346103e65760203660031901126103e6573563ffffffff60e01b81168091036103e65760209250637965db0b60e01b811490811561156b575b5015158152f35b6301ffc9a760e01b14905083611564565b600435906001600160a01b038216820361159257565b600080fd5b602435906001600160a01b038216820361159257565b9060048210156115ba5752565b634e487b7160e01b600052602160045260246000fd5b6080810190811067ffffffffffffffff8211176115ec57604052565b634e487b7160e01b600052604160045260246000fd5b90601f8019910116810190811067ffffffffffffffff8211176115ec57604052565b3360009081527f7d7ffb7a348e1c6a02869081a26547b49160dd3df72d1d75a570eb9b698292ec60205260409020547fa49807205ce4d355092ef5a8a18f56e8913cf4a201fbe287825b095693c217759060ff16156116805750565b6044906040519063e2517d3f60e01b82523360048301526024820152fd5b80600052600060205260406000203360005260205260ff60406000205416156116805750565b9060009180835282602052604083209160018060a01b03169182845260205260ff6040842054161560001461173d57808352826020526040832082845260205260408320600160ff198254161790557f2f8788117e7eff1d82e926ec794901d17c78024a50270940304540a733656f0d339380a4600190565b505090565b9060009180835282602052604083209160018060a01b03169182845260205260ff60408420541660001461173d5780835282602052604083208284526020526040832060ff1981541690557ff6391f5c32d9c69d2a47ea670b442974b53935d1edc7fd64eb21e047a839171b339380a4600190565b90816020910312611592575180151581036115925790565b156117d657565b60405162461bcd60e51b815260206004820152600e60248201526d14185e5b595b9d0819985a5b195960921b6044820152606490fd5b9190820180921161181957565b634e487b7160e01b600052601160045260246000fd5b60001981146118195760010190565b91906bffffffffffffffffffffffff199060601b168252601482015260078210156115ba5760359160f81b60348201520190565b9060078210156115ba5752565b60ff6002541661188b57565b60405163d93c066560e01b8152600490fd5b6002600154146118ae576002600155565b604051633ee5aeb560e01b8152600490fd5b60048210156115ba575256fe260112779147faadda998a86d390693b98cd3e17626b4bda74bd9574145faa4fa2646970667358221220e224adf64da633116eb4a92b6f7c6abcfc5ae5fe2a5359012b001893f713ab2664736f6c634300081400332f8788117e7eff1d82e926ec794901d17c78024a50270940304540a733656f0d","opcodes":"PUSH1 0xA0 CALLVALUE PUSH3 0x1AE JUMPI PUSH1 0x1F PUSH3 0x1C43 CODESIZE DUP2 SWAP1 SUB SWAP2 DUP3 ADD PUSH1 0x1F NOT AND DUP4 ADD SWAP2 SWAP1 PUSH1 0x1 PUSH1 0x1 PUSH1 0x40 SHL SUB DUP4 GT DUP5 DUP5 LT OR PUSH3 0x1B3 JUMPI DUP2 PUSH1 0x60 SWAP3 DUP6 SWAP3 PUSH1 0x40 SWAP6 DUP7 MSTORE DUP4 CODECOPY DUP2 ADD SUB SLT PUSH3 0x1AE JUMPI PUSH3 0x50 DUP3 PUSH3 0x1C9 JUMP JUMPDEST SWAP2 PUSH3 0x6C DUP3 PUSH3 0x64 PUSH1 0x20 DUP5 ADD PUSH3 0x1C9 JUMP JUMPDEST SWAP3 ADD PUSH3 0x1C9 JUMP JUMPDEST PUSH1 0x1 DUP1 SSTORE PUSH1 0x1 PUSH1 0x1 PUSH1 0xA0 SHL SUB SWAP4 DUP5 AND SWAP4 SWAP1 SWAP2 SWAP1 DUP5 ISZERO PUSH3 0x17A JUMPI DUP1 DUP3 AND ISZERO PUSH3 0x143 JUMPI DUP3 AND ISZERO PUSH3 0x10F JUMPI PUSH1 0x80 SWAP4 SWAP1 SWAP4 MSTORE PUSH1 0x2 DUP1 SLOAD PUSH2 0x100 PUSH1 0x1 PUSH1 0xA8 SHL SUB NOT AND PUSH1 0x8 SWAP5 SWAP1 SWAP5 SHL PUSH2 0x100 PUSH1 0x1 PUSH1 0xA8 SHL SUB AND SWAP4 SWAP1 SWAP4 OR SWAP1 SWAP3 SSTORE SWAP1 PUSH3 0xDB SWAP1 PUSH3 0xD4 DUP2 PUSH3 0x1DE JUMP JUMPDEST POP PUSH3 0x25E JUMP JUMPDEST POP MLOAD PUSH2 0x1922 SWAP1 DUP2 PUSH3 0x301 DUP3 CODECOPY PUSH1 0x80 MLOAD DUP2 DUP2 DUP2 PUSH2 0x6C9 ADD MSTORE DUP2 DUP2 PUSH2 0x7C6 ADD MSTORE DUP2 DUP2 PUSH2 0xB5E ADD MSTORE DUP2 DUP2 PUSH2 0xE0D ADD MSTORE PUSH2 0x11A4 ADD MSTORE RETURN JUMPDEST DUP3 MLOAD PUSH3 0x461BCD PUSH1 0xE5 SHL DUP2 MSTORE PUSH1 0x20 PUSH1 0x4 DUP3 ADD MSTORE PUSH1 0xD PUSH1 0x24 DUP3 ADD MSTORE PUSH13 0x24B73B30B634B21030B236B4B7 PUSH1 0x99 SHL PUSH1 0x44 DUP3 ADD MSTORE PUSH1 0x64 SWAP1 REVERT JUMPDEST DUP4 MLOAD PUSH3 0x461BCD PUSH1 0xE5 SHL DUP2 MSTORE PUSH1 0x20 PUSH1 0x4 DUP3 ADD MSTORE PUSH1 0x10 PUSH1 0x24 DUP3 ADD MSTORE PUSH16 0x496E76616C6964207472656173757279 PUSH1 0x80 SHL PUSH1 0x44 DUP3 ADD MSTORE PUSH1 0x64 SWAP1 REVERT JUMPDEST DUP4 MLOAD PUSH3 0x461BCD PUSH1 0xE5 SHL DUP2 MSTORE PUSH1 0x20 PUSH1 0x4 DUP3 ADD MSTORE PUSH1 0xD PUSH1 0x24 DUP3 ADD MSTORE PUSH13 0x24B73B30B634B2103A37B5B2B7 PUSH1 0x99 SHL PUSH1 0x44 DUP3 ADD MSTORE PUSH1 0x64 SWAP1 REVERT JUMPDEST PUSH1 0x0 DUP1 REVERT JUMPDEST PUSH4 0x4E487B71 PUSH1 0xE0 SHL PUSH1 0x0 MSTORE PUSH1 0x41 PUSH1 0x4 MSTORE PUSH1 0x24 PUSH1 0x0 REVERT JUMPDEST MLOAD SWAP1 PUSH1 0x1 PUSH1 0x1 PUSH1 0xA0 SHL SUB DUP3 AND DUP3 SUB PUSH3 0x1AE JUMPI JUMP JUMPDEST PUSH1 0x1 PUSH1 0x1 PUSH1 0xA0 SHL SUB AND PUSH1 0x0 DUP2 DUP2 MSTORE PUSH32 0xAD3228B676F7D3CD4284A5443F17F1962B36E491B30A40B2405849E597BA5FB5 PUSH1 0x20 MSTORE PUSH1 0x40 DUP2 KECCAK256 SLOAD SWAP1 SWAP2 SWAP1 PUSH1 0xFF AND PUSH3 0x25A JUMPI DUP2 DUP1 MSTORE DUP2 PUSH1 0x20 MSTORE PUSH1 0x40 DUP3 KECCAK256 DUP2 DUP4 MSTORE PUSH1 0x20 MSTORE PUSH1 0x40 DUP3 KECCAK256 PUSH1 0x1 PUSH1 0xFF NOT DUP3 SLOAD AND OR SWAP1 SSTORE CALLER SWAP2 PUSH1 0x0 DUP1 MLOAD PUSH1 0x20 PUSH3 0x1C23 DUP4 CODECOPY DUP2 MLOAD SWAP2 MSTORE DUP2 DUP1 LOG4 PUSH1 0x1 SWAP1 JUMP JUMPDEST POP SWAP1 JUMP JUMPDEST PUSH1 0x1 PUSH1 0x1 PUSH1 0xA0 SHL SUB AND PUSH1 0x0 DUP2 DUP2 MSTORE PUSH32 0x7D7FFB7A348E1C6A02869081A26547B49160DD3DF72D1D75A570EB9B698292EC PUSH1 0x20 MSTORE PUSH1 0x40 DUP2 KECCAK256 SLOAD SWAP1 SWAP2 SWAP1 PUSH32 0xA49807205CE4D355092EF5A8A18F56E8913CF4A201FBE287825B095693C21775 SWAP1 PUSH1 0xFF AND PUSH3 0x2FB JUMPI DUP1 DUP4 MSTORE DUP3 PUSH1 0x20 MSTORE PUSH1 0x40 DUP4 KECCAK256 DUP3 DUP5 MSTORE PUSH1 0x20 MSTORE PUSH1 0x40 DUP4 KECCAK256 PUSH1 0x1 PUSH1 0xFF NOT DUP3 SLOAD AND OR SWAP1 SSTORE PUSH1 0x0 DUP1 MLOAD PUSH1 0x20 PUSH3 0x1C23 DUP4 CODECOPY DUP2 MLOAD SWAP2 MSTORE CALLER SWAP4 DUP1 LOG4 PUSH1 0x1 SWAP1 JUMP JUMPDEST POP POP SWAP1 JUMP INVALID PUSH1 0x80 PUSH1 0x40 SWAP1 DUP1 DUP3 MSTORE PUSH1 0x4 SWAP2 DUP3 CALLDATASIZE LT ISZERO PUSH2 0x17 JUMPI PUSH1 0x0 DUP1 REVERT JUMPDEST PUSH1 0x0 SWAP2 DUP3 CALLDATALOAD PUSH1 0xE0 SHR SWAP1 DUP2 PUSH4 0x1FFC9A7 EQ PUSH2 0x1528 JUMPI POP DUP1 PUSH4 0x7E2CEA5 EQ PUSH2 0x14EE JUMPI DUP1 PUSH4 0xB71E00B EQ PUSH2 0x14D0 JUMPI DUP1 PUSH4 0xCBEBC24 EQ PUSH2 0x1412 JUMPI DUP1 PUSH4 0xE790530 EQ PUSH2 0x13EF JUMPI DUP1 PUSH4 0x1866DCFB EQ PUSH2 0x13D1 JUMPI DUP1 PUSH4 0x19515584 EQ PUSH2 0x13B3 JUMPI DUP1 PUSH4 0x248A9CA3 EQ PUSH2 0x1389 JUMPI DUP1 PUSH4 0x2F2FF15D EQ PUSH2 0x135F JUMPI DUP1 PUSH4 0x30A6CB5A EQ PUSH2 0x1110 JUMPI DUP1 PUSH4 0x36568ABE EQ PUSH2 0x10CB JUMPI DUP1 PUSH4 0x3F4BA83A EQ PUSH2 0x1061 JUMPI DUP1 PUSH4 0x40740FC6 EQ PUSH2 0x102A JUMPI DUP1 PUSH4 0x49C7E639 EQ PUSH2 0xD6A JUMPI DUP1 PUSH4 0x59E141A9 EQ PUSH2 0xD47 JUMPI DUP1 PUSH4 0x5C975ABB EQ PUSH2 0xD24 JUMPI DUP1 PUSH4 0x61D027B3 EQ PUSH2 0xCF8 JUMPI DUP1 PUSH4 0x6E307981 EQ PUSH2 0xAC2 JUMPI DUP1 PUSH4 0x75B238FC EQ PUSH2 0xA88 JUMPI DUP1 PUSH4 0x7CED7174 EQ PUSH2 0xA66 JUMPI DUP1 PUSH4 0x7F51BB1F EQ PUSH2 0x9D4 JUMPI DUP1 PUSH4 0x8456CB59 EQ PUSH2 0x97A JUMPI DUP1 PUSH4 0x85491651 EQ PUSH2 0x957 JUMPI DUP1 PUSH4 0x91D14854 EQ PUSH2 0x911 JUMPI DUP1 PUSH4 0x920CDDEC EQ PUSH2 0x6F8 JUMPI DUP1 PUSH4 0x9BCFDFC0 EQ PUSH2 0x6B5 JUMPI DUP1 PUSH4 0xA217FDDF EQ PUSH2 0x69B JUMPI DUP1 PUSH4 0xA8949B46 EQ PUSH2 0x665 JUMPI DUP1 PUSH4 0xAC18992C EQ PUSH2 0x62D JUMPI DUP1 PUSH4 0xAD8E2DCE EQ PUSH2 0x60A JUMPI DUP1 PUSH4 0xBEBE4A57 EQ PUSH2 0x583 JUMPI DUP1 PUSH4 0xBF2D9E0B EQ PUSH2 0x565 JUMPI DUP1 PUSH4 0xCA966F35 EQ PUSH2 0x542 JUMPI DUP1 PUSH4 0xCEA7B63B EQ PUSH2 0x4B8 JUMPI DUP1 PUSH4 0xD547741F EQ PUSH2 0x479 JUMPI DUP1 PUSH4 0xEE2F3BB7 EQ PUSH2 0x456 JUMPI DUP1 PUSH4 0xF046395A EQ PUSH2 0x3EE JUMPI PUSH4 0xF3921FC3 EQ PUSH2 0x1C7 JUMPI PUSH1 0x0 DUP1 REVERT JUMPDEST CALLVALUE PUSH2 0x3EA JUMPI PUSH1 0x20 SWAP3 DUP4 PUSH1 0x3 NOT CALLDATASIZE ADD SLT PUSH2 0x3E6 JUMPI DUP1 CALLDATALOAD SWAP1 PUSH1 0x7 DUP3 LT ISZERO PUSH2 0x3E2 JUMPI PUSH2 0x1EE PUSH2 0x189D JUMP JUMPDEST PUSH2 0x1F6 PUSH2 0x187F JUMP JUMPDEST CALLER DUP5 MSTORE PUSH1 0x3 DUP6 MSTORE DUP3 DUP5 KECCAK256 SWAP1 PUSH1 0xFF PUSH1 0x3 DUP4 ADD SLOAD AND ISZERO PUSH2 0x3A6 JUMPI PUSH1 0x1 DUP3 ADD SLOAD TIMESTAMP LT ISZERO PUSH2 0x36C JUMPI PUSH1 0xFF DUP3 SLOAD AND DUP2 DUP2 LT ISZERO PUSH2 0x359 JUMPI PUSH1 0x1 EQ PUSH2 0x2C5 JUMPI JUMPDEST POP PUSH1 0x2 ADD PUSH2 0x23D DUP2 SLOAD PUSH2 0x182F JUMP JUMPDEST SWAP1 SSTORE CALLER DUP4 MSTORE PUSH1 0x5 DUP5 MSTORE DUP2 DUP4 KECCAK256 PUSH2 0x253 DUP2 SLOAD PUSH2 0x182F JUMP JUMPDEST SWAP1 SSTORE DUP2 MLOAD DUP5 DUP2 ADD SWAP1 PUSH2 0x279 DUP2 PUSH2 0x26B DUP6 TIMESTAMP CALLER DUP8 PUSH2 0x183E JUMP JUMPDEST SUB PUSH1 0x1F NOT DUP2 ADD DUP4 MSTORE DUP3 PUSH2 0x1602 JUMP JUMPDEST MLOAD SWAP1 KECCAK256 SWAP3 PUSH1 0x6 SLOAD SWAP1 PUSH2 0x28D DUP5 MLOAD DUP1 SWAP5 PUSH2 0x1872 JUMP JUMPDEST DUP6 DUP4 ADD MSTORE DUP3 DUP3 ADD MSTORE PUSH32 0xB6891CEAF8D9F7E25B595D720B980B89B2F4062DD371D4757DCC950C147A6C28 PUSH1 0x60 CALLER SWAP3 LOG2 PUSH1 0x1 DUP1 SSTORE MLOAD SWAP1 DUP2 MSTORE RETURN JUMPDEST PUSH1 0xA PUSH1 0x2 DUP4 ADD SLOAD LT ISZERO PUSH2 0x31E JUMPI PUSH1 0x1 DUP4 SUB ISZERO PUSH2 0x22F JUMPI DUP4 MLOAD PUSH3 0x461BCD PUSH1 0xE5 SHL DUP2 MSTORE SWAP1 DUP2 ADD DUP7 SWAP1 MSTORE PUSH1 0x18 PUSH1 0x24 DUP3 ADD MSTORE PUSH32 0x506C616E206F6E6C7920636F766572732064726F756768740000000000000000 PUSH1 0x44 DUP3 ADD MSTORE PUSH1 0x64 SWAP1 REVERT JUMPDEST DUP4 MLOAD PUSH3 0x461BCD PUSH1 0xE5 SHL DUP2 MSTORE SWAP1 DUP2 ADD DUP7 SWAP1 MSTORE PUSH1 0x15 PUSH1 0x24 DUP3 ADD MSTORE PUSH21 0x135BDB9D1A1B1E481B1A5B5A5D081C995858DA1959 PUSH1 0x5A SHL PUSH1 0x44 DUP3 ADD MSTORE PUSH1 0x64 SWAP1 REVERT JUMPDEST PUSH4 0x4E487B71 PUSH1 0xE0 SHL DUP7 MSTORE PUSH1 0x21 DUP3 MSTORE PUSH1 0x24 DUP7 REVERT JUMPDEST DUP4 MLOAD PUSH3 0x461BCD PUSH1 0xE5 SHL DUP2 MSTORE SWAP1 DUP2 ADD DUP7 SWAP1 MSTORE PUSH1 0x14 PUSH1 0x24 DUP3 ADD MSTORE PUSH20 0x14DD589CD8DC9A5C1D1A5BDB88195E1C1A5C9959 PUSH1 0x62 SHL PUSH1 0x44 DUP3 ADD MSTORE PUSH1 0x64 SWAP1 REVERT JUMPDEST DUP4 MLOAD PUSH3 0x461BCD PUSH1 0xE5 SHL DUP2 MSTORE SWAP1 DUP2 ADD DUP7 SWAP1 MSTORE PUSH1 0x16 PUSH1 0x24 DUP3 ADD MSTORE PUSH22 0x27379030B1BA34BB329039BAB139B1B934B83A34B7B7 PUSH1 0x51 SHL PUSH1 0x44 DUP3 ADD MSTORE PUSH1 0x64 SWAP1 REVERT JUMPDEST DUP4 DUP1 REVERT JUMPDEST DUP3 DUP1 REVERT JUMPDEST POP DUP1 REVERT JUMPDEST POP CALLVALUE PUSH2 0x3EA JUMPI PUSH1 0x20 CALLDATASIZE PUSH1 0x3 NOT ADD SLT PUSH2 0x3EA JUMPI PUSH1 0x80 SWAP2 DUP2 SWAP1 PUSH1 0x1 PUSH1 0x1 PUSH1 0xA0 SHL SUB PUSH2 0x415 PUSH2 0x157C JUMP JUMPDEST AND DUP2 MSTORE PUSH1 0x3 PUSH1 0x20 MSTORE KECCAK256 SWAP1 PUSH1 0xFF DUP3 SLOAD AND SWAP2 PUSH1 0x1 DUP2 ADD SLOAD SWAP2 PUSH1 0xFF PUSH1 0x3 PUSH1 0x2 DUP5 ADD SLOAD SWAP4 ADD SLOAD AND SWAP3 PUSH2 0x445 DUP3 MLOAD DUP1 SWAP7 PUSH2 0x15AD JUMP JUMPDEST PUSH1 0x20 DUP6 ADD MSTORE DUP4 ADD MSTORE ISZERO ISZERO PUSH1 0x60 DUP3 ADD MSTORE RETURN JUMPDEST DUP3 CALLVALUE PUSH2 0x476 JUMPI DUP1 PUSH1 0x3 NOT CALLDATASIZE ADD SLT PUSH2 0x476 JUMPI PUSH2 0x46F PUSH2 0x1624 JUMP JUMPDEST DUP1 PUSH1 0x7 SSTORE DUP1 RETURN JUMPDEST DUP1 REVERT JUMPDEST POP DUP3 SWAP1 CALLVALUE PUSH2 0x3E6 JUMPI DUP1 PUSH1 0x3 NOT CALLDATASIZE ADD SLT PUSH2 0x3E6 JUMPI PUSH2 0x4B4 SWAP2 CALLDATALOAD PUSH2 0x4AF PUSH1 0x1 PUSH2 0x49E PUSH2 0x1597 JUMP JUMPDEST SWAP4 DUP4 DUP8 MSTORE DUP7 PUSH1 0x20 MSTORE DUP7 KECCAK256 ADD SLOAD PUSH2 0x169E JUMP JUMPDEST PUSH2 0x1742 JUMP JUMPDEST POP DUP1 RETURN JUMPDEST POP DUP3 CALLVALUE PUSH2 0x3E6 JUMPI PUSH1 0x20 CALLDATASIZE PUSH1 0x3 NOT ADD SLT PUSH2 0x3E6 JUMPI PUSH1 0x80 SWAP3 SWAP1 PUSH1 0x1 PUSH1 0x1 PUSH1 0xA0 SHL SUB PUSH2 0x4DF PUSH2 0x157C JUMP JUMPDEST AND DUP3 MSTORE PUSH1 0x20 MSTORE DUP2 DUP2 KECCAK256 SLOAD SWAP2 PUSH1 0x5 PUSH1 0x20 MSTORE DUP1 DUP1 DUP4 KECCAK256 SLOAD SWAP3 PUSH1 0x3 PUSH1 0x20 MSTORE KECCAK256 SWAP1 PUSH1 0xFF DUP3 SLOAD AND SWAP1 PUSH1 0xFF PUSH1 0x3 DUP5 ADD SLOAD AND SWAP3 DUP4 PUSH2 0x532 JUMPI JUMPDEST POP PUSH2 0x529 SWAP3 SWAP4 DUP2 MLOAD SWAP6 DUP7 MSTORE PUSH1 0x20 DUP7 ADD MSTORE DUP5 ADD SWAP1 PUSH2 0x15AD JUMP JUMPDEST ISZERO ISZERO PUSH1 0x60 DUP3 ADD MSTORE RETURN JUMPDEST PUSH1 0x1 ADD SLOAD TIMESTAMP LT SWAP3 POP PUSH2 0x529 PUSH2 0x511 JUMP JUMPDEST POP CALLVALUE PUSH2 0x3EA JUMPI DUP2 PUSH1 0x3 NOT CALLDATASIZE ADD SLT PUSH2 0x3EA JUMPI PUSH1 0x20 SWAP1 MLOAD PUSH9 0x821AB0D4414980000 DUP2 MSTORE RETURN JUMPDEST POP CALLVALUE PUSH2 0x3EA JUMPI DUP2 PUSH1 0x3 NOT CALLDATASIZE ADD SLT PUSH2 0x3EA JUMPI PUSH1 0x20 SWAP1 PUSH1 0x6 SLOAD SWAP1 MLOAD SWAP1 DUP2 MSTORE RETURN JUMPDEST POP CALLVALUE PUSH2 0x3EA JUMPI PUSH1 0x20 CALLDATASIZE PUSH1 0x3 NOT ADD SLT PUSH2 0x3EA JUMPI PUSH1 0x20 SWAP2 PUSH1 0x60 SWAP2 SWAP1 DUP2 SWAP1 PUSH1 0x1 PUSH1 0x1 PUSH1 0xA0 SHL SUB PUSH2 0x5AE PUSH2 0x157C JUMP JUMPDEST AND DUP2 MSTORE PUSH1 0x3 DUP6 MSTORE KECCAK256 DUP2 MLOAD PUSH2 0x5C1 DUP2 PUSH2 0x15D0 JUMP JUMPDEST PUSH2 0x5CF PUSH1 0xFF DUP4 SLOAD AND DUP3 PUSH2 0x18C0 JUMP JUMPDEST PUSH1 0xFF PUSH1 0x3 PUSH1 0x1 DUP5 ADD SLOAD SWAP4 DUP5 DUP9 DUP6 ADD MSTORE PUSH1 0x2 DUP2 ADD SLOAD DUP7 DUP6 ADD MSTORE ADD SLOAD AND ISZERO ISZERO SWAP4 DUP5 SWAP2 ADD MSTORE DUP3 PUSH2 0x600 JUMPI JUMPDEST POP MLOAD SWAP1 ISZERO ISZERO DUP2 MSTORE RETURN JUMPDEST TIMESTAMP LT SWAP2 POP DUP4 PUSH2 0x5F7 JUMP JUMPDEST POP CALLVALUE PUSH2 0x3EA JUMPI DUP2 PUSH1 0x3 NOT CALLDATASIZE ADD SLT PUSH2 0x3EA JUMPI PUSH1 0x20 SWAP1 MLOAD PUSH9 0x1B1AE4D6E2EF500000 DUP2 MSTORE RETURN JUMPDEST POP CALLVALUE PUSH2 0x3EA JUMPI DUP2 PUSH1 0x3 NOT CALLDATASIZE ADD SLT PUSH2 0x3EA JUMPI PUSH1 0x80 SWAP1 PUSH1 0x6 SLOAD SWAP1 PUSH1 0x7 SLOAD SWAP1 PUSH1 0x8 SLOAD SWAP1 PUSH1 0x9 SLOAD SWAP3 DUP2 MLOAD SWAP5 DUP6 MSTORE PUSH1 0x20 DUP6 ADD MSTORE DUP4 ADD MSTORE PUSH1 0x60 DUP3 ADD MSTORE RETURN JUMPDEST POP DUP3 CALLVALUE PUSH2 0x3E6 JUMPI PUSH1 0x20 CALLDATASIZE PUSH1 0x3 NOT ADD SLT PUSH2 0x3E6 JUMPI PUSH1 0x20 SWAP3 DUP3 SWAP2 PUSH1 0x1 PUSH1 0x1 PUSH1 0xA0 SHL SUB PUSH2 0x68D PUSH2 0x157C JUMP JUMPDEST AND DUP3 MSTORE DUP5 MSTORE KECCAK256 SLOAD SWAP1 MLOAD SWAP1 DUP2 MSTORE RETURN JUMPDEST POP CALLVALUE PUSH2 0x3EA JUMPI DUP2 PUSH1 0x3 NOT CALLDATASIZE ADD SLT PUSH2 0x3EA JUMPI MLOAD SWAP1 DUP2 MSTORE PUSH1 0x20 SWAP1 RETURN JUMPDEST POP CALLVALUE PUSH2 0x3EA JUMPI DUP2 PUSH1 0x3 NOT CALLDATASIZE ADD SLT PUSH2 0x3EA JUMPI MLOAD PUSH32 0x0 PUSH1 0x1 PUSH1 0x1 PUSH1 0xA0 SHL SUB AND DUP2 MSTORE PUSH1 0x20 SWAP1 RETURN JUMPDEST POP CALLVALUE PUSH2 0x3EA JUMPI DUP1 PUSH1 0x3 NOT CALLDATASIZE ADD SLT PUSH2 0x3EA JUMPI DUP3 CALLDATALOAD SWAP3 PUSH8 0xFFFFFFFFFFFFFFFF DUP1 DUP6 GT PUSH2 0x3E2 JUMPI CALLDATASIZE PUSH1 0x23 DUP7 ADD SLT ISZERO PUSH2 0x3E2 JUMPI DUP5 DUP3 ADD CALLDATALOAD SWAP1 DUP2 GT PUSH2 0x8FE JUMPI DUP3 MLOAD SWAP5 PUSH1 0x20 SWAP2 PUSH1 0x1F NOT SWAP2 PUSH2 0x74D PUSH1 0x1F DUP4 ADD DUP5 AND DUP6 ADD DUP10 PUSH2 0x1602 JUMP JUMPDEST DUP2 DUP9 MSTORE CALLDATASIZE PUSH1 0x24 DUP4 DUP4 ADD ADD GT PUSH2 0x8FA JUMPI DUP2 DUP8 SWAP3 PUSH1 0x24 DUP7 SWAP4 ADD DUP4 DUP12 ADD CALLDATACOPY DUP9 ADD ADD MSTORE PUSH1 0x24 CALLDATALOAD SWAP3 PUSH2 0x778 PUSH2 0x189D JUMP JUMPDEST PUSH2 0x780 PUSH2 0x187F JUMP JUMPDEST PUSH1 0x2 SLOAD DUP6 MLOAD PUSH4 0x23B872DD PUSH1 0xE0 SHL DUP2 MSTORE CALLER DUP4 DUP3 ADD SWAP1 DUP2 MSTORE PUSH1 0x8 SWAP3 SWAP1 SWAP3 SHR PUSH1 0x1 PUSH1 0x1 PUSH1 0xA0 SHL SUB SWAP1 DUP2 AND PUSH1 0x20 DUP5 ADD MSTORE PUSH1 0x40 DUP4 ADD DUP8 SWAP1 MSTORE SWAP1 SWAP2 DUP6 SWAP2 DUP4 SWAP2 DUP3 SWAP1 DUP12 SWAP1 DUP3 SWAP1 PUSH1 0x60 ADD SUB SWAP3 PUSH32 0x0 AND GAS CALL SWAP1 DUP2 ISZERO PUSH2 0x8F0 JUMPI SWAP1 PUSH2 0x801 SWAP2 DUP9 SWAP2 PUSH2 0x8C3 JUMPI JUMPDEST POP PUSH2 0x17CF JUMP JUMPDEST PUSH2 0x80D DUP5 PUSH1 0x6 SLOAD PUSH2 0x180C JUMP JUMPDEST PUSH1 0x6 SSTORE PUSH2 0x81C DUP5 PUSH1 0x7 SLOAD PUSH2 0x180C JUMP JUMPDEST PUSH1 0x7 SSTORE CALLER DUP7 MSTORE DUP3 MSTORE DUP4 DUP6 KECCAK256 PUSH2 0x832 DUP5 DUP3 SLOAD PUSH2 0x180C JUMP JUMPDEST SWAP1 SSTORE DUP4 MLOAD DUP5 DUP2 MSTORE DUP7 MLOAD SWAP2 DUP3 DUP7 DUP4 ADD MSTORE DUP7 JUMPDEST DUP4 DUP2 LT PUSH2 0x8AF JUMPI POP DUP7 SWAP8 POP SWAP1 PUSH1 0x60 DUP2 PUSH32 0x59D994EB6EF2B5603B42DB4C9F52CE55D11E498A58B1B2E1D8325C1E27227E34 SWAP4 PUSH1 0x0 DUP1 MLOAD PUSH1 0x20 PUSH2 0x18CD DUP4 CODECOPY DUP2 MLOAD SWAP2 MSTORE SWAP10 DUP4 DUP8 DUP5 ADD ADD MSTORE DUP8 DUP8 DUP4 ADD MSTORE PUSH1 0x1F CALLER SWAP7 ADD AND DUP2 ADD SUB ADD SWAP1 LOG2 PUSH1 0x6 SLOAD SWAP1 DUP4 MLOAD SWAP3 DUP4 MSTORE DUP3 ADD MSTORE LOG1 PUSH1 0x1 DUP1 SSTORE DUP1 RETURN JUMPDEST DUP9 DUP2 ADD DUP6 ADD MLOAD DUP4 DUP3 ADD PUSH1 0x60 ADD MSTORE DUP5 ADD PUSH2 0x843 JUMP JUMPDEST PUSH2 0x8E3 SWAP2 POP DUP6 RETURNDATASIZE DUP8 GT PUSH2 0x8E9 JUMPI JUMPDEST PUSH2 0x8DB DUP2 DUP4 PUSH2 0x1602 JUMP JUMPDEST DUP2 ADD SWAP1 PUSH2 0x17B7 JUMP JUMPDEST CODESIZE PUSH2 0x7FB JUMP JUMPDEST POP RETURNDATASIZE PUSH2 0x8D1 JUMP JUMPDEST DUP7 MLOAD RETURNDATASIZE DUP10 DUP3 RETURNDATACOPY RETURNDATASIZE SWAP1 REVERT JUMPDEST DUP7 DUP1 REVERT JUMPDEST PUSH4 0x4E487B71 PUSH1 0xE0 SHL DUP5 MSTORE PUSH1 0x41 DUP3 MSTORE PUSH1 0x24 DUP5 REVERT JUMPDEST POP DUP3 CALLVALUE PUSH2 0x3E6 JUMPI DUP2 PUSH1 0x3 NOT CALLDATASIZE ADD SLT PUSH2 0x3E6 JUMPI DUP2 PUSH1 0x20 SWAP4 PUSH1 0xFF SWAP3 PUSH2 0x932 PUSH2 0x1597 JUMP JUMPDEST SWAP1 CALLDATALOAD DUP3 MSTORE DUP2 DUP7 MSTORE DUP3 DUP3 KECCAK256 PUSH1 0x1 PUSH1 0x1 PUSH1 0xA0 SHL SUB SWAP1 SWAP2 AND DUP3 MSTORE DUP6 MSTORE KECCAK256 SLOAD SWAP2 MLOAD SWAP2 AND ISZERO ISZERO DUP2 MSTORE RETURN JUMPDEST POP CALLVALUE PUSH2 0x3EA JUMPI DUP2 PUSH1 0x3 NOT CALLDATASIZE ADD SLT PUSH2 0x3EA JUMPI PUSH1 0x20 SWAP1 MLOAD PUSH9 0x1A055690D9DB80000 DUP2 MSTORE RETURN JUMPDEST POP CALLVALUE PUSH2 0x3EA JUMPI DUP2 PUSH1 0x3 NOT CALLDATASIZE ADD SLT PUSH2 0x3EA JUMPI PUSH1 0x20 PUSH32 0x62E78CEA01BEE320CD4E420270B5EA74000D11B0C9F74754EBDBFC544B05A258 SWAP2 PUSH2 0x9B7 PUSH2 0x1624 JUMP JUMPDEST PUSH2 0x9BF PUSH2 0x187F JUMP JUMPDEST PUSH1 0x1 PUSH1 0xFF NOT PUSH1 0x2 SLOAD AND OR PUSH1 0x2 SSTORE MLOAD CALLER DUP2 MSTORE LOG1 DUP1 RETURN JUMPDEST POP DUP3 CALLVALUE PUSH2 0x3E6 JUMPI PUSH1 0x20 CALLDATASIZE PUSH1 0x3 NOT ADD SLT PUSH2 0x3E6 JUMPI PUSH2 0x9EF PUSH2 0x157C JUMP JUMPDEST SWAP2 PUSH2 0x9F8 PUSH2 0x1624 JUMP JUMPDEST PUSH1 0x1 PUSH1 0x1 PUSH1 0xA0 SHL SUB DUP4 AND ISZERO PUSH2 0xA31 JUMPI POP POP PUSH1 0x2 DUP1 SLOAD PUSH2 0x100 PUSH1 0x1 PUSH1 0xA8 SHL SUB NOT AND PUSH1 0x8 SWAP3 SWAP1 SWAP3 SHL PUSH2 0x100 PUSH1 0x1 PUSH1 0xA8 SHL SUB AND SWAP2 SWAP1 SWAP2 OR SWAP1 SSTORE DUP1 RETURN JUMPDEST SWAP1 PUSH1 0x20 PUSH1 0x64 SWAP3 MLOAD SWAP2 PUSH3 0x461BCD PUSH1 0xE5 SHL DUP4 MSTORE DUP3 ADD MSTORE PUSH1 0xF PUSH1 0x24 DUP3 ADD MSTORE PUSH15 0x496E76616C69642061646472657373 PUSH1 0x88 SHL PUSH1 0x44 DUP3 ADD MSTORE REVERT JUMPDEST POP CALLVALUE PUSH2 0x3EA JUMPI DUP2 PUSH1 0x3 NOT CALLDATASIZE ADD SLT PUSH2 0x3EA JUMPI PUSH1 0x20 SWAP1 MLOAD PUSH8 0x8AC7230489E80000 DUP2 MSTORE RETURN JUMPDEST POP CALLVALUE PUSH2 0x3EA JUMPI DUP2 PUSH1 0x3 NOT CALLDATASIZE ADD SLT PUSH2 0x3EA JUMPI PUSH1 0x20 SWAP1 MLOAD PUSH32 0xA49807205CE4D355092EF5A8A18F56E8913CF4A201FBE287825B095693C21775 DUP2 MSTORE RETURN JUMPDEST POP CALLVALUE PUSH2 0x3EA JUMPI DUP2 PUSH1 0x3 NOT CALLDATASIZE ADD SLT PUSH2 0x3EA JUMPI PUSH2 0xADB PUSH2 0x189D JUMP JUMPDEST PUSH2 0xAE3 PUSH2 0x187F JUMP JUMPDEST CALLER DUP3 MSTORE PUSH1 0x20 PUSH1 0x3 DUP2 MSTORE DUP2 DUP4 KECCAK256 SWAP1 PUSH1 0xFF DUP3 SLOAD AND DUP6 DUP2 LT ISZERO PUSH2 0xCE5 JUMPI DUP1 ISZERO PUSH2 0xCB0 JUMPI PUSH1 0x1 DUP2 SUB PUSH2 0xC89 JUMPI POP PUSH9 0x2B5E3AF16B1880000 SWAP2 JUMPDEST PUSH1 0x2 SLOAD DUP5 MLOAD PUSH4 0x23B872DD PUSH1 0xE0 SHL DUP2 MSTORE CALLER DUP2 DUP10 ADD SWAP1 DUP2 MSTORE PUSH1 0x8 SWAP3 SWAP1 SWAP3 SHR PUSH1 0x1 PUSH1 0x1 PUSH1 0xA0 SHL SUB SWAP1 DUP2 AND PUSH1 0x20 DUP5 ADD MSTORE PUSH1 0x40 DUP4 ADD DUP7 SWAP1 MSTORE SWAP1 SWAP2 DUP5 SWAP2 DUP4 SWAP2 DUP3 SWAP1 DUP11 SWAP1 DUP3 SWAP1 PUSH1 0x60 ADD SUB SWAP3 PUSH32 0x0 AND GAS CALL SWAP1 DUP2 ISZERO PUSH2 0xC7F JUMPI SWAP1 PUSH2 0xB98 SWAP2 DUP8 SWAP2 PUSH2 0xC68 JUMPI POP PUSH2 0x17CF JUMP JUMPDEST PUSH3 0x278D00 TIMESTAMP ADD SWAP1 DUP2 TIMESTAMP GT PUSH2 0xC55 JUMPI DUP1 PUSH1 0x0 DUP1 MLOAD PUSH1 0x20 PUSH2 0x18CD DUP4 CODECOPY DUP2 MLOAD SWAP2 MSTORE SWAP7 SWAP8 PUSH1 0x1 PUSH1 0xFF SWAP4 ADD SWAP4 DUP5 SSTORE DUP9 PUSH1 0x2 DUP4 ADD SSTORE PUSH1 0x3 DUP3 ADD PUSH1 0x1 DUP5 NOT DUP3 SLOAD AND OR SWAP1 SSTORE PUSH2 0xBE1 DUP7 PUSH1 0x6 SLOAD PUSH2 0x180C JUMP JUMPDEST PUSH1 0x6 SSTORE PUSH2 0xBF0 DUP7 PUSH1 0x7 SLOAD PUSH2 0x180C JUMP JUMPDEST PUSH1 0x7 SSTORE CALLER DUP10 MSTORE DUP5 MSTORE DUP6 DUP9 KECCAK256 PUSH2 0xC06 DUP7 DUP3 SLOAD PUSH2 0x180C JUMP JUMPDEST SWAP1 SSTORE SLOAD AND SWAP1 SLOAD PUSH2 0xC18 DUP6 MLOAD DUP1 SWAP4 PUSH2 0x15AD JUMP JUMPDEST DUP3 DUP3 ADD MSTORE PUSH32 0x1AF2F2C576585623F24CDD3D12995DE86E6D2EF881E797DAB79B51BC71FB0A9A DUP5 CALLER SWAP3 LOG2 PUSH1 0x6 SLOAD SWAP1 DUP4 MLOAD SWAP3 DUP4 MSTORE DUP3 ADD MSTORE LOG1 PUSH1 0x1 DUP1 SSTORE DUP1 RETURN JUMPDEST PUSH4 0x4E487B71 PUSH1 0xE0 SHL DUP7 MSTORE PUSH1 0x11 DUP8 MSTORE PUSH1 0x24 DUP7 REVERT JUMPDEST PUSH2 0x8E3 SWAP2 POP DUP5 RETURNDATASIZE DUP7 GT PUSH2 0x8E9 JUMPI PUSH2 0x8DB DUP2 DUP4 PUSH2 0x1602 JUMP JUMPDEST DUP6 MLOAD RETURNDATASIZE DUP9 DUP3 RETURNDATACOPY RETURNDATASIZE SWAP1 REVERT JUMPDEST PUSH1 0x2 SUB PUSH2 0xCA0 JUMPI PUSH9 0x821AB0D4414980000 SWAP2 PUSH2 0xB18 JUMP JUMPDEST PUSH9 0x1B1AE4D6E2EF500000 SWAP2 PUSH2 0xB18 JUMP JUMPDEST DUP4 MLOAD PUSH3 0x461BCD PUSH1 0xE5 SHL DUP2 MSTORE DUP1 DUP8 ADD DUP4 SWAP1 MSTORE PUSH1 0xF PUSH1 0x24 DUP3 ADD MSTORE PUSH15 0x27379039BAB139B1B934B83A34B7B7 PUSH1 0x89 SHL PUSH1 0x44 DUP3 ADD MSTORE PUSH1 0x64 SWAP1 REVERT JUMPDEST PUSH4 0x4E487B71 PUSH1 0xE0 SHL DUP6 MSTORE PUSH1 0x21 DUP7 MSTORE PUSH1 0x24 DUP6 REVERT JUMPDEST POP CALLVALUE PUSH2 0x3EA JUMPI DUP2 PUSH1 0x3 NOT CALLDATASIZE ADD SLT PUSH2 0x3EA JUMPI PUSH1 0x2 SLOAD SWAP1 MLOAD PUSH1 0x8 SWAP2 SWAP1 SWAP2 SHR PUSH1 0x1 PUSH1 0x1 PUSH1 0xA0 SHL SUB AND DUP2 MSTORE PUSH1 0x20 SWAP1 RETURN JUMPDEST POP CALLVALUE PUSH2 0x3EA JUMPI DUP2 PUSH1 0x3 NOT CALLDATASIZE ADD SLT PUSH2 0x3EA JUMPI PUSH1 0x20 SWAP1 PUSH1 0xFF PUSH1 0x2 SLOAD AND SWAP1 MLOAD SWAP1 ISZERO ISZERO DUP2 MSTORE RETURN JUMPDEST POP CALLVALUE PUSH2 0x3EA JUMPI DUP2 PUSH1 0x3 NOT CALLDATASIZE ADD SLT PUSH2 0x3EA JUMPI PUSH1 0x20 SWAP1 MLOAD PUSH9 0x2B5E3AF16B1880000 DUP2 MSTORE RETURN JUMPDEST POP CALLVALUE PUSH2 0x3EA JUMPI PUSH1 0x20 DUP1 PUSH1 0x3 NOT CALLDATASIZE ADD SLT PUSH2 0x3E6 JUMPI DUP4 CALLDATALOAD SWAP1 DUP5 DUP3 LT ISZERO PUSH2 0x3E2 JUMPI PUSH2 0xD90 PUSH2 0x189D JUMP JUMPDEST PUSH2 0xD98 PUSH2 0x187F JUMP JUMPDEST DUP2 ISZERO PUSH2 0xFF9 JUMPI CALLER DUP5 MSTORE PUSH1 0x3 DUP2 MSTORE PUSH1 0xFF PUSH1 0x3 DUP5 DUP7 KECCAK256 ADD SLOAD AND PUSH2 0xFC2 JUMPI PUSH1 0x1 DUP3 SUB PUSH2 0xF9A JUMPI PUSH9 0x2B5E3AF16B1880000 SWAP2 JUMPDEST PUSH1 0x2 SLOAD DUP5 MLOAD PUSH4 0x23B872DD PUSH1 0xE0 SHL DUP2 MSTORE CALLER DUP2 DUP10 ADD SWAP1 DUP2 MSTORE PUSH1 0x8 SWAP3 SWAP1 SWAP3 SHR PUSH1 0x1 PUSH1 0x1 PUSH1 0xA0 SHL SUB SWAP1 DUP2 AND PUSH1 0x20 DUP5 ADD MSTORE PUSH1 0x40 DUP4 ADD DUP7 SWAP1 MSTORE SWAP1 SWAP2 DUP5 SWAP2 DUP4 SWAP2 DUP3 SWAP1 DUP11 SWAP1 DUP3 SWAP1 PUSH1 0x60 ADD SUB SWAP3 PUSH32 0x0 AND GAS CALL SWAP1 DUP2 ISZERO PUSH2 0xC7F JUMPI SWAP1 PUSH2 0xE47 SWAP2 DUP8 SWAP2 PUSH2 0xC68 JUMPI POP PUSH2 0x17CF JUMP JUMPDEST PUSH3 0x278D00 TIMESTAMP ADD DUP1 TIMESTAMP GT PUSH2 0xC55 JUMPI DUP5 MLOAD SWAP7 PUSH2 0xE60 DUP9 PUSH2 0x15D0 JUMP JUMPDEST PUSH2 0xE6A DUP4 DUP10 PUSH2 0x18C0 JUMP JUMPDEST DUP4 DUP9 ADD DUP3 DUP2 MSTORE DUP7 DUP10 ADD SWAP1 DUP9 DUP3 MSTORE PUSH1 0x60 DUP11 ADD SWAP2 PUSH1 0x1 DUP4 MSTORE CALLER DUP11 MSTORE PUSH1 0x3 DUP8 MSTORE DUP9 DUP11 KECCAK256 SWAP11 MLOAD SWAP2 DUP5 DUP4 LT ISZERO PUSH2 0xF87 JUMPI PUSH1 0x0 DUP1 MLOAD PUSH1 0x20 PUSH2 0x18CD DUP4 CODECOPY DUP2 MLOAD SWAP2 MSTORE SWAP11 SWAP12 PUSH1 0xFF SWAP3 PUSH1 0x3 SWAP3 DUP5 NOT SWAP6 DUP6 DUP8 DUP6 SLOAD AND SWAP2 AND OR DUP4 SSTORE MLOAD PUSH1 0x1 DUP4 ADD SSTORE MLOAD PUSH1 0x2 DUP3 ADD SSTORE ADD SWAP3 MLOAD ISZERO ISZERO SWAP2 DUP4 SLOAD AND SWAP2 AND OR SWAP1 SSTORE PUSH2 0xEDF DUP6 PUSH1 0x6 SLOAD PUSH2 0x180C JUMP JUMPDEST PUSH1 0x6 SSTORE PUSH2 0xEEE DUP6 PUSH1 0x7 SLOAD PUSH2 0x180C JUMP JUMPDEST PUSH1 0x7 SSTORE CALLER DUP9 MSTORE DUP4 MSTORE DUP5 DUP8 KECCAK256 PUSH2 0xF04 DUP6 DUP3 SLOAD PUSH2 0x180C JUMP JUMPDEST SWAP1 SSTORE PUSH2 0xF11 PUSH1 0x8 SLOAD PUSH2 0x182F JUMP JUMPDEST PUSH1 0x8 SSTORE CALLER DUP8 MSTORE PUSH1 0x5 DUP4 MSTORE DUP5 DUP8 KECCAK256 SLOAD ISZERO PUSH2 0xF74 JUMPI JUMPDEST PUSH2 0xF31 DUP6 MLOAD DUP1 SWAP4 PUSH2 0x15AD JUMP JUMPDEST DUP4 DUP4 DUP4 ADD MSTORE DUP5 DUP3 ADD MSTORE PUSH32 0x559531F26D3D225CEBCD22EB4B5A893FFFE267028468D998315D80FD4BDD22FB PUSH1 0x60 CALLER SWAP3 LOG2 PUSH1 0x6 SLOAD SWAP1 DUP4 MLOAD SWAP3 DUP4 MSTORE DUP3 ADD MSTORE LOG1 PUSH1 0x1 DUP1 SSTORE DUP1 RETURN JUMPDEST PUSH2 0xF7F PUSH1 0x9 SLOAD PUSH2 0x182F JUMP JUMPDEST PUSH1 0x9 SSTORE PUSH2 0xF25 JUMP JUMPDEST PUSH4 0x4E487B71 PUSH1 0xE0 SHL DUP12 MSTORE PUSH1 0x21 DUP6 MSTORE PUSH1 0x24 DUP12 REVERT JUMPDEST PUSH1 0x2 DUP3 SUB PUSH2 0xFB2 JUMPI PUSH9 0x821AB0D4414980000 SWAP2 PUSH2 0xDC7 JUMP JUMPDEST PUSH9 0x1B1AE4D6E2EF500000 SWAP2 PUSH2 0xDC7 JUMP JUMPDEST DUP5 PUSH1 0x64 SWAP2 DUP5 MLOAD SWAP2 PUSH3 0x461BCD PUSH1 0xE5 SHL DUP4 MSTORE DUP3 ADD MSTORE PUSH1 0x12 PUSH1 0x24 DUP3 ADD MSTORE PUSH18 0x105B1C9958591E481CDD589CD8DC9A589959 PUSH1 0x72 SHL PUSH1 0x44 DUP3 ADD MSTORE REVERT JUMPDEST DUP5 PUSH1 0x64 SWAP2 DUP5 MLOAD SWAP2 PUSH3 0x461BCD PUSH1 0xE5 SHL DUP4 MSTORE DUP3 ADD MSTORE PUSH1 0xC PUSH1 0x24 DUP3 ADD MSTORE PUSH12 0x24B73B30B634B210383630B7 PUSH1 0xA1 SHL PUSH1 0x44 DUP3 ADD MSTORE REVERT JUMPDEST POP CALLVALUE PUSH2 0x3EA JUMPI PUSH1 0x20 CALLDATASIZE PUSH1 0x3 NOT ADD SLT PUSH2 0x3EA JUMPI PUSH1 0x20 SWAP2 DUP2 SWAP1 PUSH1 0x1 PUSH1 0x1 PUSH1 0xA0 SHL SUB PUSH2 0x1051 PUSH2 0x157C JUMP JUMPDEST AND DUP2 MSTORE PUSH1 0x5 DUP5 MSTORE KECCAK256 SLOAD SWAP1 MLOAD SWAP1 DUP2 MSTORE RETURN JUMPDEST POP DUP3 CALLVALUE PUSH2 0x3E6 JUMPI DUP3 PUSH1 0x3 NOT CALLDATASIZE ADD SLT PUSH2 0x3E6 JUMPI PUSH2 0x107B PUSH2 0x1624 JUMP JUMPDEST PUSH1 0x2 SLOAD SWAP1 PUSH1 0xFF DUP3 AND ISZERO PUSH2 0x10BD JUMPI POP PUSH1 0xFF NOT AND PUSH1 0x2 SSTORE MLOAD CALLER DUP2 MSTORE PUSH32 0x5DB9EE0A495BF2E6FF9C91A7834C1BA4FDD244A5E8AA4E537BD38AEAE4B073AA SWAP1 PUSH1 0x20 SWAP1 LOG1 DUP1 RETURN JUMPDEST DUP3 MLOAD PUSH4 0x8DFC202B PUSH1 0xE0 SHL DUP2 MSTORE REVERT JUMPDEST POP CALLVALUE PUSH2 0x3EA JUMPI DUP1 PUSH1 0x3 NOT CALLDATASIZE ADD SLT PUSH2 0x3EA JUMPI PUSH2 0x10E4 PUSH2 0x1597 JUMP JUMPDEST SWAP1 CALLER PUSH1 0x1 PUSH1 0x1 PUSH1 0xA0 SHL SUB DUP4 AND SUB PUSH2 0x1101 JUMPI POP PUSH2 0x4B4 SWAP2 SWAP3 CALLDATALOAD PUSH2 0x1742 JUMP JUMPDEST MLOAD PUSH4 0x334BD919 PUSH1 0xE1 SHL DUP2 MSTORE DUP4 SWAP1 REVERT JUMPDEST POP CALLVALUE PUSH2 0x3EA JUMPI PUSH1 0x20 SWAP3 DUP4 PUSH1 0x3 NOT CALLDATASIZE ADD SLT PUSH2 0x3E6 JUMPI DUP1 CALLDATALOAD SWAP3 PUSH1 0x7 DUP5 LT ISZERO PUSH2 0x476 JUMPI PUSH2 0x1138 PUSH2 0x189D JUMP JUMPDEST PUSH2 0x1140 PUSH2 0x187F JUMP JUMPDEST DUP1 PUSH1 0x3 DUP6 EQ DUP1 ISZERO PUSH2 0x1353 JUMPI JUMPDEST ISZERO PUSH2 0x1306 JUMPI POP PUSH9 0x1A055690D9DB80000 SWAP2 JUMPDEST PUSH1 0x2 SLOAD DUP5 MLOAD PUSH4 0x23B872DD PUSH1 0xE0 SHL DUP2 MSTORE CALLER DUP4 DUP3 ADD SWAP1 DUP2 MSTORE PUSH1 0x8 SWAP3 SWAP1 SWAP3 SHR PUSH1 0x1 PUSH1 0x1 PUSH1 0xA0 SHL SUB SWAP1 DUP2 AND PUSH1 0x20 DUP5 ADD MSTORE PUSH1 0x40 DUP4 ADD DUP7 SWAP1 MSTORE SWAP1 SWAP2 DUP9 SWAP2 DUP4 SWAP2 DUP3 SWAP1 DUP8 SWAP1 DUP3 SWAP1 PUSH1 0x60 ADD SUB SWAP3 PUSH32 0x0 AND GAS CALL SWAP1 DUP2 ISZERO PUSH2 0x12FC JUMPI SWAP1 PUSH2 0x11DE SWAP2 DUP5 SWAP2 PUSH2 0x12E5 JUMPI POP PUSH2 0x17CF JUMP JUMPDEST PUSH2 0x11EA DUP4 PUSH1 0x6 SLOAD PUSH2 0x180C JUMP JUMPDEST PUSH1 0x6 SSTORE PUSH2 0x11F9 DUP4 PUSH1 0x7 SLOAD PUSH2 0x180C JUMP JUMPDEST PUSH1 0x7 SSTORE CALLER DUP3 MSTORE DUP1 DUP7 MSTORE DUP4 DUP3 KECCAK256 PUSH2 0x1210 DUP5 DUP3 SLOAD PUSH2 0x180C JUMP JUMPDEST SWAP1 SSTORE CALLER DUP3 MSTORE PUSH1 0x5 DUP7 MSTORE DUP4 DUP3 KECCAK256 DUP1 SLOAD SWAP2 PUSH1 0x1 DUP4 ADD DUP1 SWAP4 GT PUSH2 0x12D2 JUMPI POP SSTORE CALLER DUP2 MSTORE PUSH1 0x5 DUP6 MSTORE DUP3 SWAP1 KECCAK256 SLOAD PUSH1 0x0 DUP1 MLOAD PUSH1 0x20 PUSH2 0x18CD DUP4 CODECOPY DUP2 MLOAD SWAP2 MSTORE SWAP2 DUP4 SWAP2 PUSH1 0x1 EQ PUSH2 0x12BF JUMPI JUMPDEST DUP2 MLOAD DUP7 DUP2 ADD SWAP1 PUSH2 0x1267 DUP2 PUSH2 0x26B DUP10 TIMESTAMP CALLER DUP8 PUSH2 0x183E JUMP JUMPDEST MLOAD SWAP1 KECCAK256 SWAP5 PUSH1 0x6 SLOAD SWAP1 PUSH2 0x127B DUP5 MLOAD DUP1 SWAP3 PUSH2 0x1872 JUMP JUMPDEST DUP3 DUP9 DUP3 ADD MSTORE DUP2 DUP5 DUP3 ADD MSTORE PUSH32 0xB6891CEAF8D9F7E25B595D720B980B89B2F4062DD371D4757DCC950C147A6C28 PUSH1 0x60 CALLER SWAP3 LOG2 DUP3 MLOAD SWAP2 DUP3 MSTORE DUP7 DUP3 ADD MSTORE LOG1 PUSH1 0x1 DUP1 SSTORE MLOAD SWAP1 DUP2 MSTORE RETURN JUMPDEST PUSH2 0x12CA PUSH1 0x9 SLOAD PUSH2 0x182F JUMP JUMPDEST PUSH1 0x9 SSTORE PUSH2 0x1251 JUMP JUMPDEST PUSH4 0x4E487B71 PUSH1 0xE0 SHL DUP5 MSTORE PUSH1 0x11 SWAP1 MSTORE PUSH1 0x24 DUP4 REVERT JUMPDEST PUSH2 0x8E3 SWAP2 POP DUP9 RETURNDATASIZE DUP11 GT PUSH2 0x8E9 JUMPI PUSH2 0x8DB DUP2 DUP4 PUSH2 0x1602 JUMP JUMPDEST DUP6 MLOAD RETURNDATASIZE DUP6 DUP3 RETURNDATACOPY RETURNDATASIZE SWAP1 REVERT JUMPDEST PUSH2 0x1341 JUMPI DUP4 ISZERO DUP1 ISZERO PUSH2 0x1337 JUMPI JUMPDEST ISZERO PUSH2 0x1328 JUMPI PUSH9 0x1158E460913D00000 SWAP2 PUSH2 0x115E JUMP JUMPDEST PUSH8 0x8AC7230489E80000 SWAP2 PUSH2 0x115E JUMP JUMPDEST POP PUSH1 0x2 DUP5 EQ PUSH2 0x1313 JUMP JUMPDEST PUSH1 0x21 PUSH1 0x24 SWAP3 PUSH4 0x4E487B71 PUSH1 0xE0 SHL DUP4 MSTORE MSTORE REVERT JUMPDEST POP POP DUP1 PUSH1 0x6 DUP6 EQ PUSH2 0x114C JUMP JUMPDEST POP DUP3 SWAP1 CALLVALUE PUSH2 0x3E6 JUMPI DUP1 PUSH1 0x3 NOT CALLDATASIZE ADD SLT PUSH2 0x3E6 JUMPI PUSH2 0x4B4 SWAP2 CALLDATALOAD PUSH2 0x1384 PUSH1 0x1 PUSH2 0x49E PUSH2 0x1597 JUMP JUMPDEST PUSH2 0x16C4 JUMP JUMPDEST POP DUP3 CALLVALUE PUSH2 0x3E6 JUMPI PUSH1 0x20 CALLDATASIZE PUSH1 0x3 NOT ADD SLT PUSH2 0x3E6 JUMPI DUP2 PUSH1 0x20 SWAP4 PUSH1 0x1 SWAP3 CALLDATALOAD DUP2 MSTORE DUP1 DUP6 MSTORE KECCAK256 ADD SLOAD SWAP1 MLOAD SWAP1 DUP2 MSTORE RETURN JUMPDEST POP CALLVALUE PUSH2 0x3EA JUMPI DUP2 PUSH1 0x3 NOT CALLDATASIZE ADD SLT PUSH2 0x3EA JUMPI PUSH1 0x20 SWAP1 PUSH1 0x8 SLOAD SWAP1 MLOAD SWAP1 DUP2 MSTORE RETURN JUMPDEST POP CALLVALUE PUSH2 0x3EA JUMPI DUP2 PUSH1 0x3 NOT CALLDATASIZE ADD SLT PUSH2 0x3EA JUMPI PUSH1 0x20 SWAP1 PUSH1 0x9 SLOAD SWAP1 MLOAD SWAP1 DUP2 MSTORE RETURN JUMPDEST POP CALLVALUE PUSH2 0x3EA JUMPI DUP2 PUSH1 0x3 NOT CALLDATASIZE ADD SLT PUSH2 0x3EA JUMPI PUSH1 0x20 SWAP1 MLOAD PUSH9 0x1158E460913D00000 DUP2 MSTORE RETURN JUMPDEST POP CALLVALUE PUSH2 0x3EA JUMPI PUSH1 0x20 CALLDATASIZE PUSH1 0x3 NOT ADD SLT PUSH2 0x3EA JUMPI PUSH1 0x1 PUSH1 0x1 PUSH1 0xA0 SHL SUB PUSH2 0x1434 PUSH2 0x157C JUMP JUMPDEST AND DUP3 MSTORE PUSH1 0x3 PUSH1 0x20 MSTORE DUP1 DUP3 KECCAK256 SWAP1 DUP1 MLOAD PUSH2 0x144B DUP2 PUSH2 0x15D0 JUMP JUMPDEST PUSH2 0x1459 PUSH1 0xFF DUP5 SLOAD AND DUP3 PUSH2 0x18C0 JUMP JUMPDEST PUSH1 0x1 DUP4 ADD SLOAD PUSH1 0x20 DUP3 ADD SWAP1 DUP2 MSTORE PUSH1 0xFF PUSH1 0x3 PUSH1 0x2 DUP7 ADD SLOAD SWAP6 DUP6 DUP6 ADD SWAP7 DUP8 MSTORE ADD SLOAD AND SWAP2 PUSH1 0x60 DUP2 ADD SWAP3 ISZERO ISZERO DUP4 MSTORE MLOAD SWAP5 DUP7 DUP7 LT ISZERO PUSH2 0x14BD JUMPI POP PUSH1 0xA0 SWAP6 POP MLOAD SWAP3 MLOAD SWAP1 MLOAD ISZERO ISZERO SWAP2 PUSH2 0x14A5 DUP2 MLOAD DUP1 SWAP7 PUSH2 0x15AD JUMP JUMPDEST DUP4 PUSH1 0x20 DUP7 ADD MSTORE DUP5 ADD MSTORE PUSH1 0x60 DUP4 ADD MSTORE TIMESTAMP LT ISZERO PUSH1 0x80 DUP3 ADD MSTORE RETURN JUMPDEST PUSH4 0x4E487B71 PUSH1 0xE0 SHL DUP2 MSTORE PUSH1 0x21 DUP8 MSTORE PUSH1 0x24 SWAP1 REVERT JUMPDEST POP CALLVALUE PUSH2 0x3EA JUMPI DUP2 PUSH1 0x3 NOT CALLDATASIZE ADD SLT PUSH2 0x3EA JUMPI PUSH1 0x20 SWAP1 PUSH1 0x7 SLOAD SWAP1 MLOAD SWAP1 DUP2 MSTORE RETURN JUMPDEST POP CALLVALUE PUSH2 0x3EA JUMPI DUP2 PUSH1 0x3 NOT CALLDATASIZE ADD SLT PUSH2 0x3EA JUMPI PUSH1 0x20 SWAP1 MLOAD PUSH32 0x68E79A7BF1E0BC45D0A330C573BC367F9CF464FD326078812F301165FBDA4EF1 DUP2 MSTORE RETURN JUMPDEST DUP4 SWAP1 DUP6 CALLVALUE PUSH2 0x3E6 JUMPI PUSH1 0x20 CALLDATASIZE PUSH1 0x3 NOT ADD SLT PUSH2 0x3E6 JUMPI CALLDATALOAD PUSH4 0xFFFFFFFF PUSH1 0xE0 SHL DUP2 AND DUP1 SWAP2 SUB PUSH2 0x3E6 JUMPI PUSH1 0x20 SWAP3 POP PUSH4 0x7965DB0B PUSH1 0xE0 SHL DUP2 EQ SWAP1 DUP2 ISZERO PUSH2 0x156B JUMPI JUMPDEST POP ISZERO ISZERO DUP2 MSTORE RETURN JUMPDEST PUSH4 0x1FFC9A7 PUSH1 0xE0 SHL EQ SWAP1 POP DUP4 PUSH2 0x1564 JUMP JUMPDEST PUSH1 0x4 CALLDATALOAD SWAP1 PUSH1 0x1 PUSH1 0x1 PUSH1 0xA0 SHL SUB DUP3 AND DUP3 SUB PUSH2 0x1592 JUMPI JUMP JUMPDEST PUSH1 0x0 DUP1 REVERT JUMPDEST PUSH1 0x24 CALLDATALOAD SWAP1 PUSH1 0x1 PUSH1 0x1 PUSH1 0xA0 SHL SUB DUP3 AND DUP3 SUB PUSH2 0x1592 JUMPI JUMP JUMPDEST SWAP1 PUSH1 0x4 DUP3 LT ISZERO PUSH2 0x15BA JUMPI MSTORE JUMP JUMPDEST PUSH4 0x4E487B71 PUSH1 0xE0 SHL PUSH1 0x0 MSTORE PUSH1 0x21 PUSH1 0x4 MSTORE PUSH1 0x24 PUSH1 0x0 REVERT JUMPDEST PUSH1 0x80 DUP2 ADD SWAP1 DUP2 LT PUSH8 0xFFFFFFFFFFFFFFFF DUP3 GT OR PUSH2 0x15EC JUMPI PUSH1 0x40 MSTORE JUMP JUMPDEST PUSH4 0x4E487B71 PUSH1 0xE0 SHL PUSH1 0x0 MSTORE PUSH1 0x41 PUSH1 0x4 MSTORE PUSH1 0x24 PUSH1 0x0 REVERT JUMPDEST SWAP1 PUSH1 0x1F DUP1 NOT SWAP2 ADD AND DUP2 ADD SWAP1 DUP2 LT PUSH8 0xFFFFFFFFFFFFFFFF DUP3 GT OR PUSH2 0x15EC JUMPI PUSH1 0x40 MSTORE JUMP JUMPDEST CALLER PUSH1 0x0 SWAP1 DUP2 MSTORE PUSH32 0x7D7FFB7A348E1C6A02869081A26547B49160DD3DF72D1D75A570EB9B698292EC PUSH1 0x20 MSTORE PUSH1 0x40 SWAP1 KECCAK256 SLOAD PUSH32 0xA49807205CE4D355092EF5A8A18F56E8913CF4A201FBE287825B095693C21775 SWAP1 PUSH1 0xFF AND ISZERO PUSH2 0x1680 JUMPI POP JUMP JUMPDEST PUSH1 0x44 SWAP1 PUSH1 0x40 MLOAD SWAP1 PUSH4 0xE2517D3F PUSH1 0xE0 SHL DUP3 MSTORE CALLER PUSH1 0x4 DUP4 ADD MSTORE PUSH1 0x24 DUP3 ADD MSTORE REVERT JUMPDEST DUP1 PUSH1 0x0 MSTORE PUSH1 0x0 PUSH1 0x20 MSTORE PUSH1 0x40 PUSH1 0x0 KECCAK256 CALLER PUSH1 0x0 MSTORE PUSH1 0x20 MSTORE PUSH1 0xFF PUSH1 0x40 PUSH1 0x0 KECCAK256 SLOAD AND ISZERO PUSH2 0x1680 JUMPI POP JUMP JUMPDEST SWAP1 PUSH1 0x0 SWAP2 DUP1 DUP4 MSTORE DUP3 PUSH1 0x20 MSTORE PUSH1 0x40 DUP4 KECCAK256 SWAP2 PUSH1 0x1 DUP1 PUSH1 0xA0 SHL SUB AND SWAP2 DUP3 DUP5 MSTORE PUSH1 0x20 MSTORE PUSH1 0xFF PUSH1 0x40 DUP5 KECCAK256 SLOAD AND ISZERO PUSH1 0x0 EQ PUSH2 0x173D JUMPI DUP1 DUP4 MSTORE DUP3 PUSH1 0x20 MSTORE PUSH1 0x40 DUP4 KECCAK256 DUP3 DUP5 MSTORE PUSH1 0x20 MSTORE PUSH1 0x40 DUP4 KECCAK256 PUSH1 0x1 PUSH1 0xFF NOT DUP3 SLOAD AND OR SWAP1 SSTORE PUSH32 0x2F8788117E7EFF1D82E926EC794901D17C78024A50270940304540A733656F0D CALLER SWAP4 DUP1 LOG4 PUSH1 0x1 SWAP1 JUMP JUMPDEST POP POP SWAP1 JUMP JUMPDEST SWAP1 PUSH1 0x0 SWAP2 DUP1 DUP4 MSTORE DUP3 PUSH1 0x20 MSTORE PUSH1 0x40 DUP4 KECCAK256 SWAP2 PUSH1 0x1 DUP1 PUSH1 0xA0 SHL SUB AND SWAP2 DUP3 DUP5 MSTORE PUSH1 0x20 MSTORE PUSH1 0xFF PUSH1 0x40 DUP5 KECCAK256 SLOAD AND PUSH1 0x0 EQ PUSH2 0x173D JUMPI DUP1 DUP4 MSTORE DUP3 PUSH1 0x20 MSTORE PUSH1 0x40 DUP4 KECCAK256 DUP3 DUP5 MSTORE PUSH1 0x20 MSTORE PUSH1 0x40 DUP4 KECCAK256 PUSH1 0xFF NOT DUP2 SLOAD AND SWAP1 SSTORE PUSH32 0xF6391F5C32D9C69D2A47EA670B442974B53935D1EDC7FD64EB21E047A839171B CALLER SWAP4 DUP1 LOG4 PUSH1 0x1 SWAP1 JUMP JUMPDEST SWAP1 DUP2 PUSH1 0x20 SWAP2 SUB SLT PUSH2 0x1592 JUMPI MLOAD DUP1 ISZERO ISZERO DUP2 SUB PUSH2 0x1592 JUMPI SWAP1 JUMP JUMPDEST ISZERO PUSH2 0x17D6 JUMPI JUMP JUMPDEST PUSH1 0x40 MLOAD PUSH3 0x461BCD PUSH1 0xE5 SHL DUP2 MSTORE PUSH1 0x20 PUSH1 0x4 DUP3 ADD MSTORE PUSH1 0xE PUSH1 0x24 DUP3 ADD MSTORE PUSH14 0x14185E5B595B9D0819985A5B1959 PUSH1 0x92 SHL PUSH1 0x44 DUP3 ADD MSTORE PUSH1 0x64 SWAP1 REVERT JUMPDEST SWAP2 SWAP1 DUP3 ADD DUP1 SWAP3 GT PUSH2 0x1819 JUMPI JUMP JUMPDEST PUSH4 0x4E487B71 PUSH1 0xE0 SHL PUSH1 0x0 MSTORE PUSH1 0x11 PUSH1 0x4 MSTORE PUSH1 0x24 PUSH1 0x0 REVERT JUMPDEST PUSH1 0x0 NOT DUP2 EQ PUSH2 0x1819 JUMPI PUSH1 0x1 ADD SWAP1 JUMP JUMPDEST SWAP2 SWAP1 PUSH12 0xFFFFFFFFFFFFFFFFFFFFFFFF NOT SWAP1 PUSH1 0x60 SHL AND DUP3 MSTORE PUSH1 0x14 DUP3 ADD MSTORE PUSH1 0x7 DUP3 LT ISZERO PUSH2 0x15BA JUMPI PUSH1 0x35 SWAP2 PUSH1 0xF8 SHL PUSH1 0x34 DUP3 ADD MSTORE ADD SWAP1 JUMP JUMPDEST SWAP1 PUSH1 0x7 DUP3 LT ISZERO PUSH2 0x15BA JUMPI MSTORE JUMP JUMPDEST PUSH1 0xFF PUSH1 0x2 SLOAD AND PUSH2 0x188B JUMPI JUMP JUMPDEST PUSH1 0x40 MLOAD PUSH4 0xD93C0665 PUSH1 0xE0 SHL DUP2 MSTORE PUSH1 0x4 SWAP1 REVERT JUMPDEST PUSH1 0x2 PUSH1 0x1 SLOAD EQ PUSH2 0x18AE JUMPI PUSH1 0x2 PUSH1 0x1 SSTORE JUMP JUMPDEST PUSH1 0x40 MLOAD PUSH4 0x3EE5AEB5 PUSH1 0xE0 SHL DUP2 MSTORE PUSH1 0x4 SWAP1 REVERT JUMPDEST PUSH1 0x4 DUP3 LT ISZERO PUSH2 0x15BA JUMPI MSTORE JUMP INVALID 0x26 ADD SLT PUSH24 0x9147FAADDA998A86D390693B98CD3E17626B4BDA74BD9574 EQ PUSH0 0xAA 0x4F LOG2 PUSH5 0x6970667358 0x22 SLT KECCAK256 0xE2 0x24 0xAD 0xF6 0x4D 0xA6 CALLER GT PUSH15 0xB4A92B6F7C6ABCFC5AE5FE2A535901 0x2B STOP XOR SWAP4 0xF7 SGT 0xAB 0x26 PUSH5 0x736F6C6343 STOP ADDMOD EQ STOP CALLER 0x2F DUP8 DUP9 GT PUSH31 0x7EFF1D82E926EC794901D17C78024A50270940304540A733656F0D00000000 "},"methodIdentifiers":{"ADMIN_ROLE()":"75b238fc","ALERT_BASIC()":"7ced7174","ALERT_PREMIUM()":"0e790530","ALERT_URGENT()":"85491651","DEFAULT_ADMIN_ROLE()":"a217fddf","ORACLE_ROLE()":"07e2cea5","SUBSCRIPTION_BASIC()":"59e141a9","SUBSCRIPTION_ENTERPRISE()":"ad8e2dce","SUBSCRIPTION_PREMIUM()":"ca966f35","activeSubscribers()":"19515584","buyAlert(uint8)":"30a6cb5a","getCustomerStats(address)":"cea7b63b","getRevenueStats()":"ac18992c","getRoleAdmin(bytes32)":"248a9ca3","getSubscriberAlert(uint8)":"f3921fc3","getSubscription(address)":"0cbebc24","grantRole(bytes32,address)":"2f2ff15d","hasActiveSubscription(address)":"bebe4a57","hasRole(bytes32,address)":"91d14854","kaiToken()":"9bcfdfc0","monthlyRevenue()":"0b71e00b","pause()":"8456cb59","paused()":"5c975abb","payForAPICall(string,uint256)":"920cddec","renewSubscription()":"6e307981","renounceRole(bytes32,address)":"36568abe","resetMonthlyRevenue()":"ee2f3bb7","revokeRole(bytes32,address)":"d547741f","subscribe(uint8)":"49c7e639","subscriptions(address)":"f046395a","supportsInterface(bytes4)":"01ffc9a7","totalAlerts(address)":"40740fc6","totalCustomers()":"1866dcfb","totalRevenue()":"bf2d9e0b","totalSpent(address)":"a8949b46","treasury()":"61d027b3","unpause()":"3f4ba83a","updateTreasury(address)":"7f51bb1f"}}}}}