{"contracts/KAIToken.sol":{"KAIToken":{"abi":[{"inputs":[{"internalType":"address","name":"admin","type":"address"},{"internalType":"address","name":"treasury","type":"address"}],"stateMutability":"nonpayable","type":"constructor"},{"inputs":[],"name":"AccessControlBadConfirmation","type":"error"},{"inputs":[{"internalType":"address","name":"account","type":"address"},{"internalType":"bytes32","name":"neededRole","type":"bytes32"}],"name":"AccessControlUnauthorizedAccount","type":"error"},{"inputs":[{"internalType":"address","name":"spender","type":"address"},{"internalType":"uint256","name":"allowance","type":"uint256"},{"internalType":"uint256","name":"needed","type":"uint256"}],"name":"ERC20InsufficientAllowance","type":"error"},{"inputs":[{"internalType":"address","name":"sender","type":"address"},{"internalType":"uint256","name":"balance","type":"uint256"},{"internalType":"uint256","name":"needed","type":"uint256"}],"name":"ERC20InsufficientBalance","type":"error"},{"inputs":[{"internalType":"address","name":"approver","type":"address"}],"name":"ERC20InvalidApprover","type":"error"},{"inputs":[{"internalType":"address","name":"receiver","type":"address"}],"name":"ERC20InvalidReceiver","type":"error"},{"inputs":[{"internalType":"address","name":"sender","type":"address"}],"name":"ERC20InvalidSender","type":"error"},{"inputs":[{"internalType":"address","name":"spender","type":"address"}],"name":"ERC20InvalidSpender","type":"error"},{"inputs":[],"name":"EnforcedPause","type":"error"},{"inputs":[],"name":"ExpectedPause","type":"error"},{"anonymous":false,"inputs":[{"indexed":true,"internalType":"address","name":"owner","type":"address"},{"indexed":true,"internalType":"address","name":"spender","type":"address"},{"indexed":false,"internalType":"uint256","name":"value","type":"uint256"}],"name":"Approval","type":"event"},{"anonymous":false,"inputs":[{"indexed":true,"internalType":"uint8","name":"pillarId","type":"uint8"},{"indexed":true,"internalType":"address","name":"recipient","type":"address"},{"indexed":false,"internalType":"uint256","name":"amount","type":"uint256"}],"name":"OracleTriggered","type":"event"},{"anonymous":false,"inputs":[{"indexed":false,"internalType":"address","name":"account","type":"address"}],"name":"Paused","type":"event"},{"anonymous":false,"inputs":[{"indexed":true,"internalType":"address","name":"user","type":"address"},{"indexed":true,"internalType":"uint8","name":"pillarId","type":"uint8"},{"indexed":false,"internalType":"uint256","name":"amount","type":"uint256"},{"indexed":false,"internalType":"string","name":"reason","type":"string"}],"name":"PillarBurn","type":"event"},{"anonymous":false,"inputs":[{"indexed":true,"internalType":"bytes32","name":"role","type":"bytes32"},{"indexed":true,"internalType":"bytes32","name":"previousAdminRole","type":"bytes32"},{"indexed":true,"internalType":"bytes32","name":"newAdminRole","type":"bytes32"}],"name":"RoleAdminChanged","type":"event"},{"anonymous":false,"inputs":[{"indexed":true,"internalType":"bytes32","name":"role","type":"bytes32"},{"indexed":true,"internalType":"address","name":"account","type":"address"},{"indexed":true,"internalType":"address","name":"sender","type":"address"}],"name":"RoleGranted","type":"event"},{"anonymous":false,"inputs":[{"indexed":true,"internalType":"bytes32","name":"role","type":"bytes32"},{"indexed":true,"internalType":"address","name":"account","type":"address"},{"indexed":true,"internalType":"address","name":"sender","type":"address"}],"name":"RoleRevoked","type":"event"},{"anonymous":false,"inputs":[{"indexed":true,"internalType":"address","name":"from","type":"address"},{"indexed":true,"internalType":"address","name":"to","type":"address"},{"indexed":false,"internalType":"uint256","name":"value","type":"uint256"}],"name":"Transfer","type":"event"},{"anonymous":false,"inputs":[{"indexed":false,"internalType":"address","name":"account","type":"address"}],"name":"Unpaused","type":"event"},{"inputs":[],"name":"BURNER_ROLE","outputs":[{"internalType":"bytes32","name":"","type":"bytes32"}],"stateMutability":"view","type":"function"},{"inputs":[],"name":"DEFAULT_ADMIN_ROLE","outputs":[{"internalType":"bytes32","name":"","type":"bytes32"}],"stateMutability":"view","type":"function"},{"inputs":[],"name":"INITIAL_MINT","outputs":[{"internalType":"uint256","name":"","type":"uint256"}],"stateMutability":"view","type":"function"},{"inputs":[],"name":"MAX_SUPPLY","outputs":[{"internalType":"uint256","name":"","type":"uint256"}],"stateMutability":"view","type":"function"},{"inputs":[],"name":"MINTER_ROLE","outputs":[{"internalType":"bytes32","name":"","type":"bytes32"}],"stateMutability":"view","type":"function"},{"inputs":[],"name":"ORACLE_ROLE","outputs":[{"internalType":"bytes32","name":"","type":"bytes32"}],"stateMutability":"view","type":"function"},{"inputs":[],"name":"PAUSER_ROLE","outputs":[{"internalType":"bytes32","name":"","type":"bytes32"}],"stateMutability":"view","type":"function"},{"inputs":[{"internalType":"address","name":"owner","type":"address"},{"internalType":"address","name":"spender","type":"address"}],"name":"allowance","outputs":[{"internalType":"uint256","name":"","type":"uint256"}],"stateMutability":"view","type":"function"},{"inputs":[{"internalType":"address","name":"spender","type":"address"},{"internalType":"uint256","name":"value","type":"uint256"}],"name":"approve","outputs":[{"internalType":"bool","name":"","type":"bool"}],"stateMutability":"nonpayable","type":"function"},{"inputs":[{"internalType":"address","name":"account","type":"address"}],"name":"balanceOf","outputs":[{"internalType":"uint256","name":"","type":"uint256"}],"stateMutability":"view","type":"function"},{"inputs":[{"internalType":"uint256","name":"value","type":"uint256"}],"name":"burn","outputs":[],"stateMutability":"nonpayable","type":"function"},{"inputs":[{"internalType":"address","name":"from","type":"address"},{"internalType":"uint256","name":"amount","type":"uint256"},{"internalType":"uint8","name":"pillarId","type":"uint8"},{"internalType":"string","name":"reason","type":"string"}],"name":"burnForPillar","outputs":[],"stateMutability":"nonpayable","type":"function"},{"inputs":[{"internalType":"address","name":"account","type":"address"},{"internalType":"uint256","name":"value","type":"uint256"}],"name":"burnFrom","outputs":[],"stateMutability":"nonpayable","type":"function"},{"inputs":[{"internalType":"address","name":"","type":"address"}],"name":"burnedByAddress","outputs":[{"internalType":"uint256","name":"","type":"uint256"}],"stateMutability":"view","type":"function"},{"inputs":[],"name":"circulatingSupply","outputs":[{"internalType":"uint256","name":"","type":"uint256"}],"stateMutability":"view","type":"function"},{"inputs":[],"name":"decimals","outputs":[{"internalType":"uint8","name":"","type":"uint8"}],"stateMutability":"view","type":"function"},{"inputs":[{"internalType":"uint256","name":"amount","type":"uint256"},{"internalType":"uint8","name":"pillarId","type":"uint8"},{"internalType":"string","name":"reason","type":"string"}],"name":"directBurn","outputs":[],"stateMutability":"nonpayable","type":"function"},{"inputs":[],"name":"getBurnStats","outputs":[{"internalType":"uint256","name":"_totalBurned","type":"uint256"},{"internalType":"uint256","name":"_totalSupply","type":"uint256"},{"internalType":"uint256","name":"_percentBurned","type":"uint256"}],"stateMutability":"view","type":"function"},{"inputs":[{"internalType":"bytes32","name":"role","type":"bytes32"}],"name":"getRoleAdmin","outputs":[{"internalType":"bytes32","name":"","type":"bytes32"}],"stateMutability":"view","type":"function"},{"inputs":[{"internalType":"bytes32","name":"role","type":"bytes32"},{"internalType":"address","name":"account","type":"address"}],"name":"grantRole","outputs":[],"stateMutability":"nonpayable","type":"function"},{"inputs":[{"internalType":"bytes32","name":"role","type":"bytes32"},{"internalType":"address","name":"account","type":"address"}],"name":"hasRole","outputs":[{"internalType":"bool","name":"","type":"bool"}],"stateMutability":"view","type":"function"},{"inputs":[],"name":"name","outputs":[{"internalType":"string","name":"","type":"string"}],"stateMutability":"view","type":"function"},{"inputs":[{"internalType":"address","name":"to","type":"address"},{"internalType":"uint256","name":"amount","type":"uint256"},{"internalType":"uint8","name":"pillarId","type":"uint8"}],"name":"oracleMint","outputs":[],"stateMutability":"nonpayable","type":"function"},{"inputs":[],"name":"pause","outputs":[],"stateMutability":"nonpayable","type":"function"},{"inputs":[],"name":"paused","outputs":[{"internalType":"bool","name":"","type":"bool"}],"stateMutability":"view","type":"function"},{"inputs":[{"internalType":"uint8","name":"","type":"uint8"}],"name":"pillarBurnRates","outputs":[{"internalType":"uint16","name":"","type":"uint16"}],"stateMutability":"view","type":"function"},{"inputs":[{"internalType":"bytes32","name":"role","type":"bytes32"},{"internalType":"address","name":"callerConfirmation","type":"address"}],"name":"renounceRole","outputs":[],"stateMutability":"nonpayable","type":"function"},{"inputs":[{"internalType":"bytes32","name":"role","type":"bytes32"},{"internalType":"address","name":"account","type":"address"}],"name":"revokeRole","outputs":[],"stateMutability":"nonpayable","type":"function"},{"inputs":[{"internalType":"bytes4","name":"interfaceId","type":"bytes4"}],"name":"supportsInterface","outputs":[{"internalType":"bool","name":"","type":"bool"}],"stateMutability":"view","type":"function"},{"inputs":[],"name":"symbol","outputs":[{"internalType":"string","name":"","type":"string"}],"stateMutability":"view","type":"function"},{"inputs":[],"name":"totalBurned","outputs":[{"internalType":"uint256","name":"","type":"uint256"}],"stateMutability":"view","type":"function"},{"inputs":[],"name":"totalSupply","outputs":[{"internalType":"uint256","name":"","type":"uint256"}],"stateMutability":"view","type":"function"},{"inputs":[{"internalType":"address","name":"to","type":"address"},{"internalType":"uint256","name":"value","type":"uint256"}],"name":"transfer","outputs":[{"internalType":"bool","name":"","type":"bool"}],"stateMutability":"nonpayable","type":"function"},{"inputs":[{"internalType":"address","name":"from","type":"address"},{"internalType":"address","name":"to","type":"address"},{"internalType":"uint256","name":"value","type":"uint256"}],"name":"transferFrom","outputs":[{"internalType":"bool","name":"","type":"bool"}],"stateMutability":"nonpayable","type":"function"},{"inputs":[],"name":"unpause","outputs":[],"stateMutability":"nonpayable","type":"function"},{"inputs":[{"internalType":"uint8","name":"pillarId","type":"uint8"},{"internalType":"uint16","name":"newRate","type":"uint16"}],"name":"updatePillarBurnRate","outputs":[],"stateMutability":"nonpayable","type":"function"}],"evm":{"bytecode":{"linkReferences":{},"object":"608034620005385762001e88906001600160401b0390601f19601f388590038181018316840190858211858310176200043a5780859160409889948552833981010312620005385762000052836200055d565b936200006260208095016200055d565b6200006c6200053d565b91600883526725a0a49021b7b4b760c11b868401526200008b6200053d565b93600394858152624b414960e81b8882015284518381116200043a5786546001968782811c921680156200052d575b8b83101462000517578185849311620004c1575b508a908583116001146200045c5760009262000450575b505060001982891b1c191690861b1786555b80519283116200043a5760049687548681811c911680156200042f575b8a8210146200041a579081848695949311620003c0575b50899284116001146200035c575060009262000350575b505060001982861b1c191690831b1784555b6001600160a01b0390868216156200030d5716948515620002ca57806200017f620001aa9262000572565b506200018b81620005f3565b50620001978162000696565b50620001a38162000734565b50620007d2565b5060005260098352846000209061ffff19916103e8838254161790556002600052856000206101f483825416179055600052846000206105dc82825416179055816000528460002060c882825416179055600560005284600020610320828254161790556006600052846000206104b0828254161790556007600052610258856000209182541617905560ff60055416620002bc576002546b014adf4b7320334b9000000091828201809211620002a7575060025560008381528083528481208054830190558451918252917fddf252ad1be2c89b69c2b068fc378daa952ba7f163c4a11628f55a4df523b3ef91a3516115f79081620008718239f35b601190634e487b7160e01b6000525260246000fd5b835163d93c066560e01b8152fd5b865162461bcd60e51b8152808501869052601d60248201527f4b41493a207472656173757279206973207a65726f20616464726573730000006044820152606490fd5b875162461bcd60e51b8152808601879052601a60248201527f4b41493a2061646d696e206973207a65726f20616464726573730000000000006044820152606490fd5b01519050388062000142565b8694929192169188600052896000209260005b8b828210620003a9575050841162000390575b505050811b01845562000154565b015160001983881b60f8161c1916905538808062000382565b83850151865589979095019493840193016200036f565b909192935088600052896000208480870160051c8201928c881062000410575b9187968a92969594930160051c01915b828110620004005750506200012b565b60008155879650899101620003f0565b92508192620003e0565b602289634e487b7160e01b6000525260246000fd5b90607f169062000114565b634e487b7160e01b600052604160045260246000fd5b015190503880620000e5565b908a899416918a6000528c600020928d6000905b828210620004a9575050841162000490575b505050811b018655620000f7565b0151600019838b1b60f8161c1916905538808062000482565b8385015186558c979095019493840193018e62000470565b909150886000528a6000208580850160051c8201928d86106200050d575b918a91869594930160051c01915b828110620004fd575050620000ce565b600081558594508a9101620004ed565b92508192620004df565b634e487b7160e01b600052602260045260246000fd5b91607f1691620000ba565b600080fd5b60408051919082016001600160401b038111838210176200043a57604052565b51906001600160a01b03821682036200053857565b6001600160a01b031660008181527f54cdd369e4e8a8515e52ca72ec816c2101831ad1f18bf44102ed171459c9b4f8602052604081205490919060ff16620005ef5781805260066020526040822081835260205260408220600160ff19825416179055339160008051602062001e688339815191528180a4600190565b5090565b6001600160a01b031660008181527fe09f975e15f8f53f24cbbc282b13c40b84df485fcdb8d3997fa103dc5a4ef84160205260408120549091907f65d7a28e3265b37a6474929f336521b332c1681b933f6cb9f3376673440d862a9060ff16620006915780835260066020526040832082845260205260408320600160ff1982541617905560008051602062001e68833981519152339380a4600190565b505090565b6001600160a01b031660008181527f3195c024b2ddd6d9b8f6c836aa52f67fe69376c8903d009b80229b3ce4425f5160205260408120549091907f9f2df0fed2c77648de5860a4cc508cd0818c85b8b8a1ab4ceeef8d981c8956a69060ff16620006915780835260066020526040832082845260205260408320600160ff1982541617905560008051602062001e68833981519152339380a4600190565b6001600160a01b031660008181527f42d20fd6db25ea5a8e33f43724ad72f2ebd9488257fa78c86176b8175fc383fa60205260408120549091907f3c11d16cbaffd01df69ce1c404f6340ee057498f5f00246190ea54220576a8489060ff16620006915780835260066020526040832082845260205260408320600160ff1982541617905560008051602062001e68833981519152339380a4600190565b6001600160a01b031660008181527f2e40e14903d2c9bef53a85461d810c3ece12252634274bd2dc3297e6c6441e9e60205260408120549091907f68e79a7bf1e0bc45d0a330c573bc367f9cf464fd326078812f301165fbda4ef19060ff16620006915780835260066020526040832082845260205260408320600160ff1982541617905560008051602062001e68833981519152339380a460019056fe608060408181526004918236101561001657600080fd5b600092833560e01c91826301ffc9a714610f145750816303a5432514610e2757816306fdde0314610d4d57816307e2cea514610d12578163095ea7b314610c6857816316ff1ff714610b6a57816318160ddd1461049c57816323b872dd14610b2d578163248a9ca314610b02578163282c51f314610ac75781632f2ff15d14610a9d5781632f37ea7a14610a39578163313ce56714610a1d57816332cb6b0c146109f657816336568abe146109b05781633f4ba83a1461094657816342966c681461092857816354156bd11461076f578163573f78f31461073a5781635c975abb1461071657816370a08231146106df57816378e8e7ea1461059357816379cc67901461055d5781638456cb591461050257816391d14854146104bb5781639358928b1461049c57816395d89b411461037d578163a217fddf14610362578163a9059cbb14610331578163ca7df92c1461030a578163d5391393146102cf578163d547741f1461028b57508063d89135cd1461026d578063dd62ed3e14610225578063e55c07c5146101ee5763e63ab1e9146101b157600080fd5b346101ea57816003193601126101ea57602090517f65d7a28e3265b37a6474929f336521b332c1681b933f6cb9f3376673440d862a8152f35b5080fd5b50346101ea5760203660031901126101ea5760209181906001600160a01b03610215610fd5565b1681526008845220549051908152f35b50346101ea57806003193601126101ea5780602092610242610fd5565b61024a610feb565b6001600160a01b0391821683526001865283832091168252845220549051908152f35b50346101ea57816003193601126101ea576020906007549051908152f35b919050346102cb57806003193601126102cb576102c791356102c260016102b0610feb565b93838752600660205286200154611105565b6111ab565b5080f35b8280fd5b5050346101ea57816003193601126101ea57602090517f9f2df0fed2c77648de5860a4cc508cd0818c85b8b8a1ab4ceeef8d981c8956a68152f35b5050346101ea57816003193601126101ea57602090516b014adf4b7320334b900000008152f35b5050346101ea57806003193601126101ea5760209061035b610351610fd5565b6024359033611222565b5160018152f35b5050346101ea57816003193601126101ea5751908152602090f35b8383346101ea57816003193601126101ea57805190828454600181811c90808316928315610492575b602093848410811461047f57838852908115610463575060011461040e575b505050829003601f01601f191682019267ffffffffffffffff8411838510176103fb57508291826103f7925282610f8c565b0390f35b634e487b7160e01b815260418552602490fd5b8787529192508591837f8a35acfbc15ff81a39ae7d344fd709f28e8600b4aa8c65c6b64bfe7fe36bd19b5b83851061044f57505050508301018580806103c5565b805488860183015293019284908201610439565b60ff1916878501525050151560051b84010190508580806103c5565b634e487b7160e01b895260228a52602489fd5b91607f16916103a6565b5050346101ea57816003193601126101ea576020906002549051908152f35b9050346102cb57816003193601126102cb578160209360ff926104dc610feb565b90358252600686528282206001600160a01b039091168252855220549151911615158152f35b5050346101ea57816003193601126101ea5760207f62e78cea01bee320cd4e420270b5ea74000d11b0c9f74754ebdbfc544b05a258916105406110a9565b6105486115a3565b600160ff19600554161760055551338152a180f35b5050346101ea573660031901126105905761058d610579610fd5565b60243590610588823383611308565b6113db565b80f35b80fd5b8383346101ea5760803660031901126101ea576105ae610fd5565b602435906105ba610f7c565b9060643567ffffffffffffffff81116106db576105dc60ff9136908901611001565b9190936105e761102f565b6105ef6115a3565b16946001861015806106d0575b61060590611482565b84159461061286156114c4565b60018060a01b038416958689528860205261063282848b20541015611506565b878952600960205261ffff838a2054168083029283041417156106bd57916106b7916106866127107f928722a07342aa9954683218c9ea873a610158e3dcab785d38da48abb8ea96219796950480956113db565b61069284600754611552565b60075586895260086020528089206106ab858254611552565b90555193849384611575565b0390a380f35b634e487b7160e01b885260118952602488fd5b5060078611156105fc565b8580fd5b5050346101ea5760203660031901126101ea5760209181906001600160a01b03610707610fd5565b16815280845220549051908152f35b5050346101ea57816003193601126101ea5760209060ff6005541690519015158152f35b5050346101ea5760203660031901126101ea5761ffff8160209360ff61075e610f67565b168152600985522054169051908152f35b919050346102cb5760603660031901126102cb5761078b610fd5565b90602435610797610f7c565b917f68e79a7bf1e0bc45d0a330c573bc367f9cf464fd326078812f301165fbda4ef19283875260209360068552828820338952855260ff83892054161561090a575060ff906107e46115a3565b16936001851015806108ff575b6107fa90611482565b600254906b033b2e3c9fd0803ce80000006108158584611552565b116108bc576001600160a01b03169586156108a5575090610861837f11fee935d6434618f69c608aaced54549a5c59a10f3fc50e740e308ed3aa46e595949361085c6115a3565b611552565b60025585875286835280872082815401905585877fddf252ad1be2c89b69c2b068fc378daa952ba7f163c4a11628f55a4df523b3ef858451868152a351908152a380f35b825163ec442f0560e01b8152908101889052602490fd5b825162461bcd60e51b8152808801869052601860248201527f4b41493a206d617820737570706c7920657863656564656400000000000000006044820152606490fd5b5060078511156107f1565b825163e2517d3f60e01b815233818901526024810191909152604490fd5b8390346101ea5760203660031901126101ea5761058d9035336113db565b9050346102cb57826003193601126102cb576109606110a9565b6005549060ff8216156109a2575060ff1916600555513381527f5db9ee0a495bf2e6ff9c91a7834c1ba4fdd244a5e8aa4e537bd38aeae4b073aa90602090a180f35b8251638dfc202b60e01b8152fd5b8383346101ea57806003193601126101ea576109ca610feb565b90336001600160a01b038316036109e757506102c79192356111ab565b5163334bd91960e11b81528390fd5b5050346101ea57816003193601126101ea57602090516b033b2e3c9fd0803ce80000008152f35b5050346101ea57816003193601126101ea576020905160128152f35b8383346101ea57816003193601126101ea576007549160025461271091828502928584041485151715610a8a57606085856b014adf4b7320334b900000008686835194855260208501520490820152f35b634e487b7160e01b815260118652602490fd5b919050346102cb57806003193601126102cb576102c79135610ac260016102b0610feb565b61112b565b5050346101ea57816003193601126101ea57602090517f3c11d16cbaffd01df69ce1c404f6340ee057498f5f00246190ea54220576a8488152f35b9050346102cb5760203660031901126102cb5781602093600192358152600685522001549051908152f35b5050346101ea5760603660031901126101ea5760209061035b610b4e610fd5565b610b56610feb565b60443591610b65833383611308565b611222565b919050346102cb5760603660031901126102cb578135906024359260ff8416809403610c64576044359167ffffffffffffffff83116106db57610bd46106b7927f928722a07342aa9954683218c9ea873a610158e3dcab785d38da48abb8ea962194369101611001565b929091610bdf61102f565b610be76115a3565b600187101580610c59575b610bfb90611482565b610c068615156114c4565b33885287602052610c1c86828a20541015611506565b610c2686336113db565b610c3286600754611552565b6007553388526008602052808820610c4b878254611552565b905551928392339684611575565b506007871115610bf2565b8480fd5b9050346102cb57816003193601126102cb57610c82610fd5565b602435903315610cfb576001600160a01b0316918215610ce457508083602095338152600187528181208582528752205582519081527f8c5be1e5ebec7d5bd14f71427d1e84f3dd0314c0f7b2291e5b200ac8c7c3b925843392a35160018152f35b8351634a1406b160e11b8152908101859052602490fd5b835163e602df0560e01b8152808401869052602490fd5b5050346101ea57816003193601126101ea57602090517f68e79a7bf1e0bc45d0a330c573bc367f9cf464fd326078812f301165fbda4ef18152f35b8383346101ea57816003193601126101ea5780519082600354600181811c90808316928315610e1d575b602093848410811461047f578388529081156104635750600114610dc757505050829003601f01601f191682019267ffffffffffffffff8411838510176103fb57508291826103f7925282610f8c565b600387529192508591837fc2575a0e9e593c00f959f8c92f12db2869c3395a3b0502d05e2516446f71f85b5b838510610e0957505050508301018580806103c5565b805488860183015293019284908201610df3565b91607f1691610d77565b919050346102cb57806003193601126102cb57610e42610f67565b916024359261ffff8416809403610c6457848052600660205282852033865260205260ff838620541615610ef75760ff1690600182101580610eec575b610e8890611482565b6113888411610ea957508352600960205282209061ffff1982541617905580f35b606490602084519162461bcd60e51b8352820152601760248201527f4b41493a206275726e207261746520746f6f20686967680000000000000000006044820152fd5b506007821115610e7f565b5083604492519163e2517d3f60e01b835233908301526024820152fd5b8491346102cb5760203660031901126102cb573563ffffffff60e01b81168091036102cb5760209250637965db0b60e01b8114908115610f56575b5015158152f35b6301ffc9a760e01b14905083610f4f565b6004359060ff82168203610f7757565b600080fd5b6044359060ff82168203610f7757565b6020808252825181830181905290939260005b828110610fc157505060409293506000838284010152601f8019910116010190565b818101860151848201604001528501610f9f565b600435906001600160a01b0382168203610f7757565b602435906001600160a01b0382168203610f7757565b9181601f84011215610f775782359167ffffffffffffffff8311610f775760208381860195010111610f7757565b3360009081527f42d20fd6db25ea5a8e33f43724ad72f2ebd9488257fa78c86176b8175fc383fa60205260409020547f3c11d16cbaffd01df69ce1c404f6340ee057498f5f00246190ea54220576a8489060ff161561108b5750565b6044906040519063e2517d3f60e01b82523360048301526024820152fd5b3360009081527fe09f975e15f8f53f24cbbc282b13c40b84df485fcdb8d3997fa103dc5a4ef84160205260409020547f65d7a28e3265b37a6474929f336521b332c1681b933f6cb9f3376673440d862a9060ff161561108b5750565b80600052600660205260406000203360005260205260ff604060002054161561108b5750565b906000918083526006602052604083209160018060a01b03169182845260205260ff604084205416156000146111a65780835260066020526040832082845260205260408320600160ff198254161790557f2f8788117e7eff1d82e926ec794901d17c78024a50270940304540a733656f0d339380a4600190565b505090565b906000918083526006602052604083209160018060a01b03169182845260205260ff6040842054166000146111a6578083526006602052604083208284526020526040832060ff1981541690557ff6391f5c32d9c69d2a47ea670b442974b53935d1edc7fd64eb21e047a839171b339380a4600190565b916001600160a01b038084169283156112ef57169283156112d6576112456115a3565b600090838252816020526040822054908382106112a4575091604082827fddf252ad1be2c89b69c2b068fc378daa952ba7f163c4a11628f55a4df523b3ef958760209652828652038282205586815220818154019055604051908152a3565b60405163391434e360e21b81526001600160a01b03919091166004820152602481019190915260448101839052606490fd5b60405163ec442f0560e01b815260006004820152602490fd5b604051634b637e8f60e11b815260006004820152602490fd5b9160018060a01b038093169160009383855260016020526040938486209183169182875260205284862054926000198410611347575b50505050505050565b8484106113ab5750801561139357811561137b5785526001602052838520908552602052039120553880808080808061133e565b8451634a1406b160e11b815260048101879052602490fd5b845163e602df0560e01b815260048101879052602490fd5b8551637dc7a0d960e11b81526001600160a01b039190911660048201526024810184905260448101859052606490fd5b906001600160a01b0382169081156112ef576113f56115a3565b600092828452836020526040842054908282106114505750817fddf252ad1be2c89b69c2b068fc378daa952ba7f163c4a11628f55a4df523b3ef926020928587528684520360408620558060025403600255604051908152a3565b60405163391434e360e21b81526001600160a01b03919091166004820152602481019190915260448101829052606490fd5b1561148957565b60405162461bcd60e51b815260206004820152601360248201527225a0a49d1034b73b30b634b2103834b63630b960691b6044820152606490fd5b156114cb57565b60405162461bcd60e51b81526020600482015260136024820152724b41493a20616d6f756e74206973207a65726f60681b6044820152606490fd5b1561150d57565b60405162461bcd60e51b815260206004820152601960248201527f4b41493a20696e73756666696369656e742062616c616e6365000000000000006044820152606490fd5b9190820180921161155f57565b634e487b7160e01b600052601160045260246000fd5b91926060938192845260406020850152816040850152848401376000828201840152601f01601f1916010190565b60ff600554166115af57565b60405163d93c066560e01b8152600490fdfea2646970667358221220dd3e55ddb34acc8a470eeb81e680c955b4a4b22f9b805eb44cd799dd395e046664736f6c634300081400332f8788117e7eff1d82e926ec794901d17c78024a50270940304540a733656f0d","opcodes":"PUSH1 0x80 CALLVALUE PUSH3 0x538 JUMPI PUSH3 0x1E88 SWAP1 PUSH1 0x1 PUSH1 0x1 PUSH1 0x40 SHL SUB SWAP1 PUSH1 0x1F NOT PUSH1 0x1F CODESIZE DUP6 SWAP1 SUB DUP2 DUP2 ADD DUP4 AND DUP5 ADD SWAP1 DUP6 DUP3 GT DUP6 DUP4 LT OR PUSH3 0x43A JUMPI DUP1 DUP6 SWAP2 PUSH1 0x40 SWAP9 DUP10 SWAP5 DUP6 MSTORE DUP4 CODECOPY DUP2 ADD SUB SLT PUSH3 0x538 JUMPI PUSH3 0x52 DUP4 PUSH3 0x55D JUMP JUMPDEST SWAP4 PUSH3 0x62 PUSH1 0x20 DUP1 SWAP6 ADD PUSH3 0x55D JUMP JUMPDEST PUSH3 0x6C PUSH3 0x53D JUMP JUMPDEST SWAP2 PUSH1 0x8 DUP4 MSTORE PUSH8 0x25A0A49021B7B4B7 PUSH1 0xC1 SHL DUP7 DUP5 ADD MSTORE PUSH3 0x8B PUSH3 0x53D JUMP JUMPDEST SWAP4 PUSH1 0x3 SWAP5 DUP6 DUP2 MSTORE PUSH3 0x4B4149 PUSH1 0xE8 SHL DUP9 DUP3 ADD MSTORE DUP5 MLOAD DUP4 DUP2 GT PUSH3 0x43A JUMPI DUP7 SLOAD PUSH1 0x1 SWAP7 DUP8 DUP3 DUP2 SHR SWAP3 AND DUP1 ISZERO PUSH3 0x52D JUMPI JUMPDEST DUP12 DUP4 LT EQ PUSH3 0x517 JUMPI DUP2 DUP6 DUP5 SWAP4 GT PUSH3 0x4C1 JUMPI JUMPDEST POP DUP11 SWAP1 DUP6 DUP4 GT PUSH1 0x1 EQ PUSH3 0x45C JUMPI PUSH1 0x0 SWAP3 PUSH3 0x450 JUMPI JUMPDEST POP POP PUSH1 0x0 NOT DUP3 DUP10 SHL SHR NOT AND SWAP1 DUP7 SHL OR DUP7 SSTORE JUMPDEST DUP1 MLOAD SWAP3 DUP4 GT PUSH3 0x43A JUMPI PUSH1 0x4 SWAP7 DUP8 SLOAD DUP7 DUP2 DUP2 SHR SWAP2 AND DUP1 ISZERO PUSH3 0x42F JUMPI JUMPDEST DUP11 DUP3 LT EQ PUSH3 0x41A JUMPI SWAP1 DUP2 DUP5 DUP7 SWAP6 SWAP5 SWAP4 GT PUSH3 0x3C0 JUMPI JUMPDEST POP DUP10 SWAP3 DUP5 GT PUSH1 0x1 EQ PUSH3 0x35C JUMPI POP PUSH1 0x0 SWAP3 PUSH3 0x350 JUMPI JUMPDEST POP POP PUSH1 0x0 NOT DUP3 DUP7 SHL SHR NOT AND SWAP1 DUP4 SHL OR DUP5 SSTORE JUMPDEST PUSH1 0x1 PUSH1 0x1 PUSH1 0xA0 SHL SUB SWAP1 DUP7 DUP3 AND ISZERO PUSH3 0x30D JUMPI AND SWAP5 DUP6 ISZERO PUSH3 0x2CA JUMPI DUP1 PUSH3 0x17F PUSH3 0x1AA SWAP3 PUSH3 0x572 JUMP JUMPDEST POP PUSH3 0x18B DUP2 PUSH3 0x5F3 JUMP JUMPDEST POP PUSH3 0x197 DUP2 PUSH3 0x696 JUMP JUMPDEST POP PUSH3 0x1A3 DUP2 PUSH3 0x734 JUMP JUMPDEST POP PUSH3 0x7D2 JUMP JUMPDEST POP PUSH1 0x0 MSTORE PUSH1 0x9 DUP4 MSTORE DUP5 PUSH1 0x0 KECCAK256 SWAP1 PUSH2 0xFFFF NOT SWAP2 PUSH2 0x3E8 DUP4 DUP3 SLOAD AND OR SWAP1 SSTORE PUSH1 0x2 PUSH1 0x0 MSTORE DUP6 PUSH1 0x0 KECCAK256 PUSH2 0x1F4 DUP4 DUP3 SLOAD AND OR SWAP1 SSTORE PUSH1 0x0 MSTORE DUP5 PUSH1 0x0 KECCAK256 PUSH2 0x5DC DUP3 DUP3 SLOAD AND OR SWAP1 SSTORE DUP2 PUSH1 0x0 MSTORE DUP5 PUSH1 0x0 KECCAK256 PUSH1 0xC8 DUP3 DUP3 SLOAD AND OR SWAP1 SSTORE PUSH1 0x5 PUSH1 0x0 MSTORE DUP5 PUSH1 0x0 KECCAK256 PUSH2 0x320 DUP3 DUP3 SLOAD AND OR SWAP1 SSTORE PUSH1 0x6 PUSH1 0x0 MSTORE DUP5 PUSH1 0x0 KECCAK256 PUSH2 0x4B0 DUP3 DUP3 SLOAD AND OR SWAP1 SSTORE PUSH1 0x7 PUSH1 0x0 MSTORE PUSH2 0x258 DUP6 PUSH1 0x0 KECCAK256 SWAP2 DUP3 SLOAD AND OR SWAP1 SSTORE PUSH1 0xFF PUSH1 0x5 SLOAD AND PUSH3 0x2BC JUMPI PUSH1 0x2 SLOAD PUSH12 0x14ADF4B7320334B90000000 SWAP2 DUP3 DUP3 ADD DUP1 SWAP3 GT PUSH3 0x2A7 JUMPI POP PUSH1 0x2 SSTORE PUSH1 0x0 DUP4 DUP2 MSTORE DUP1 DUP4 MSTORE DUP5 DUP2 KECCAK256 DUP1 SLOAD DUP4 ADD SWAP1 SSTORE DUP5 MLOAD SWAP2 DUP3 MSTORE SWAP2 PUSH32 0xDDF252AD1BE2C89B69C2B068FC378DAA952BA7F163C4A11628F55A4DF523B3EF SWAP2 LOG3 MLOAD PUSH2 0x15F7 SWAP1 DUP2 PUSH3 0x871 DUP3 CODECOPY RETURN JUMPDEST PUSH1 0x11 SWAP1 PUSH4 0x4E487B71 PUSH1 0xE0 SHL PUSH1 0x0 MSTORE MSTORE PUSH1 0x24 PUSH1 0x0 REVERT JUMPDEST DUP4 MLOAD PUSH4 0xD93C0665 PUSH1 0xE0 SHL DUP2 MSTORE REVERT JUMPDEST DUP7 MLOAD PUSH3 0x461BCD PUSH1 0xE5 SHL DUP2 MSTORE DUP1 DUP6 ADD DUP7 SWAP1 MSTORE PUSH1 0x1D PUSH1 0x24 DUP3 ADD MSTORE PUSH32 0x4B41493A207472656173757279206973207A65726F2061646472657373000000 PUSH1 0x44 DUP3 ADD MSTORE PUSH1 0x64 SWAP1 REVERT JUMPDEST DUP8 MLOAD PUSH3 0x461BCD PUSH1 0xE5 SHL DUP2 MSTORE DUP1 DUP7 ADD DUP8 SWAP1 MSTORE PUSH1 0x1A PUSH1 0x24 DUP3 ADD MSTORE PUSH32 0x4B41493A2061646D696E206973207A65726F2061646472657373000000000000 PUSH1 0x44 DUP3 ADD MSTORE PUSH1 0x64 SWAP1 REVERT JUMPDEST ADD MLOAD SWAP1 POP CODESIZE DUP1 PUSH3 0x142 JUMP JUMPDEST DUP7 SWAP5 SWAP3 SWAP2 SWAP3 AND SWAP2 DUP9 PUSH1 0x0 MSTORE DUP10 PUSH1 0x0 KECCAK256 SWAP3 PUSH1 0x0 JUMPDEST DUP12 DUP3 DUP3 LT PUSH3 0x3A9 JUMPI POP POP DUP5 GT PUSH3 0x390 JUMPI JUMPDEST POP POP POP DUP2 SHL ADD DUP5 SSTORE PUSH3 0x154 JUMP JUMPDEST ADD MLOAD PUSH1 0x0 NOT DUP4 DUP9 SHL PUSH1 0xF8 AND SHR NOT AND SWAP1 SSTORE CODESIZE DUP1 DUP1 PUSH3 0x382 JUMP JUMPDEST DUP4 DUP6 ADD MLOAD DUP7 SSTORE DUP10 SWAP8 SWAP1 SWAP6 ADD SWAP5 SWAP4 DUP5 ADD SWAP4 ADD PUSH3 0x36F JUMP JUMPDEST SWAP1 SWAP2 SWAP3 SWAP4 POP DUP9 PUSH1 0x0 MSTORE DUP10 PUSH1 0x0 KECCAK256 DUP5 DUP1 DUP8 ADD PUSH1 0x5 SHR DUP3 ADD SWAP3 DUP13 DUP9 LT PUSH3 0x410 JUMPI JUMPDEST SWAP2 DUP8 SWAP7 DUP11 SWAP3 SWAP7 SWAP6 SWAP5 SWAP4 ADD PUSH1 0x5 SHR ADD SWAP2 JUMPDEST DUP3 DUP2 LT PUSH3 0x400 JUMPI POP POP PUSH3 0x12B JUMP JUMPDEST PUSH1 0x0 DUP2 SSTORE DUP8 SWAP7 POP DUP10 SWAP2 ADD PUSH3 0x3F0 JUMP JUMPDEST SWAP3 POP DUP2 SWAP3 PUSH3 0x3E0 JUMP JUMPDEST PUSH1 0x22 DUP10 PUSH4 0x4E487B71 PUSH1 0xE0 SHL PUSH1 0x0 MSTORE MSTORE PUSH1 0x24 PUSH1 0x0 REVERT JUMPDEST SWAP1 PUSH1 0x7F AND SWAP1 PUSH3 0x114 JUMP JUMPDEST PUSH4 0x4E487B71 PUSH1 0xE0 SHL PUSH1 0x0 MSTORE PUSH1 0x41 PUSH1 0x4 MSTORE PUSH1 0x24 PUSH1 0x0 REVERT JUMPDEST ADD MLOAD SWAP1 POP CODESIZE DUP1 PUSH3 0xE5 JUMP JUMPDEST SWAP1 DUP11 DUP10 SWAP5 AND SWAP2 DUP11 PUSH1 0x0 MSTORE DUP13 PUSH1 0x0 KECCAK256 SWAP3 DUP14 PUSH1 0x0 SWAP1 JUMPDEST DUP3 DUP3 LT PUSH3 0x4A9 JUMPI POP POP DUP5 GT PUSH3 0x490 JUMPI JUMPDEST POP POP POP DUP2 SHL ADD DUP7 SSTORE PUSH3 0xF7 JUMP JUMPDEST ADD MLOAD PUSH1 0x0 NOT DUP4 DUP12 SHL PUSH1 0xF8 AND SHR NOT AND SWAP1 SSTORE CODESIZE DUP1 DUP1 PUSH3 0x482 JUMP JUMPDEST DUP4 DUP6 ADD MLOAD DUP7 SSTORE DUP13 SWAP8 SWAP1 SWAP6 ADD SWAP5 SWAP4 DUP5 ADD SWAP4 ADD DUP15 PUSH3 0x470 JUMP JUMPDEST SWAP1 SWAP2 POP DUP9 PUSH1 0x0 MSTORE DUP11 PUSH1 0x0 KECCAK256 DUP6 DUP1 DUP6 ADD PUSH1 0x5 SHR DUP3 ADD SWAP3 DUP14 DUP7 LT PUSH3 0x50D JUMPI JUMPDEST SWAP2 DUP11 SWAP2 DUP7 SWAP6 SWAP5 SWAP4 ADD PUSH1 0x5 SHR ADD SWAP2 JUMPDEST DUP3 DUP2 LT PUSH3 0x4FD JUMPI POP POP PUSH3 0xCE JUMP JUMPDEST PUSH1 0x0 DUP2 SSTORE DUP6 SWAP5 POP DUP11 SWAP2 ADD PUSH3 0x4ED JUMP JUMPDEST SWAP3 POP DUP2 SWAP3 PUSH3 0x4DF JUMP JUMPDEST PUSH4 0x4E487B71 PUSH1 0xE0 SHL PUSH1 0x0 MSTORE PUSH1 0x22 PUSH1 0x4 MSTORE PUSH1 0x24 PUSH1 0x0 REVERT JUMPDEST SWAP2 PUSH1 0x7F AND SWAP2 PUSH3 0xBA JUMP JUMPDEST PUSH1 0x0 DUP1 REVERT JUMPDEST PUSH1 0x40 DUP1 MLOAD SWAP2 SWAP1 DUP3 ADD PUSH1 0x1 PUSH1 0x1 PUSH1 0x40 SHL SUB DUP2 GT DUP4 DUP3 LT OR PUSH3 0x43A JUMPI PUSH1 0x40 MSTORE JUMP JUMPDEST MLOAD SWAP1 PUSH1 0x1 PUSH1 0x1 PUSH1 0xA0 SHL SUB DUP3 AND DUP3 SUB PUSH3 0x538 JUMPI JUMP JUMPDEST PUSH1 0x1 PUSH1 0x1 PUSH1 0xA0 SHL SUB AND PUSH1 0x0 DUP2 DUP2 MSTORE PUSH32 0x54CDD369E4E8A8515E52CA72EC816C2101831AD1F18BF44102ED171459C9B4F8 PUSH1 0x20 MSTORE PUSH1 0x40 DUP2 KECCAK256 SLOAD SWAP1 SWAP2 SWAP1 PUSH1 0xFF AND PUSH3 0x5EF JUMPI DUP2 DUP1 MSTORE PUSH1 0x6 PUSH1 0x20 MSTORE PUSH1 0x40 DUP3 KECCAK256 DUP2 DUP4 MSTORE PUSH1 0x20 MSTORE PUSH1 0x40 DUP3 KECCAK256 PUSH1 0x1 PUSH1 0xFF NOT DUP3 SLOAD AND OR SWAP1 SSTORE CALLER SWAP2 PUSH1 0x0 DUP1 MLOAD PUSH1 0x20 PUSH3 0x1E68 DUP4 CODECOPY DUP2 MLOAD SWAP2 MSTORE DUP2 DUP1 LOG4 PUSH1 0x1 SWAP1 JUMP JUMPDEST POP SWAP1 JUMP JUMPDEST PUSH1 0x1 PUSH1 0x1 PUSH1 0xA0 SHL SUB AND PUSH1 0x0 DUP2 DUP2 MSTORE PUSH32 0xE09F975E15F8F53F24CBBC282B13C40B84DF485FCDB8D3997FA103DC5A4EF841 PUSH1 0x20 MSTORE PUSH1 0x40 DUP2 KECCAK256 SLOAD SWAP1 SWAP2 SWAP1 PUSH32 0x65D7A28E3265B37A6474929F336521B332C1681B933F6CB9F3376673440D862A SWAP1 PUSH1 0xFF AND PUSH3 0x691 JUMPI DUP1 DUP4 MSTORE PUSH1 0x6 PUSH1 0x20 MSTORE PUSH1 0x40 DUP4 KECCAK256 DUP3 DUP5 MSTORE PUSH1 0x20 MSTORE PUSH1 0x40 DUP4 KECCAK256 PUSH1 0x1 PUSH1 0xFF NOT DUP3 SLOAD AND OR SWAP1 SSTORE PUSH1 0x0 DUP1 MLOAD PUSH1 0x20 PUSH3 0x1E68 DUP4 CODECOPY DUP2 MLOAD SWAP2 MSTORE CALLER SWAP4 DUP1 LOG4 PUSH1 0x1 SWAP1 JUMP JUMPDEST POP POP SWAP1 JUMP JUMPDEST PUSH1 0x1 PUSH1 0x1 PUSH1 0xA0 SHL SUB AND PUSH1 0x0 DUP2 DUP2 MSTORE PUSH32 0x3195C024B2DDD6D9B8F6C836AA52F67FE69376C8903D009B80229B3CE4425F51 PUSH1 0x20 MSTORE PUSH1 0x40 DUP2 KECCAK256 SLOAD SWAP1 SWAP2 SWAP1 PUSH32 0x9F2DF0FED2C77648DE5860A4CC508CD0818C85B8B8A1AB4CEEEF8D981C8956A6 SWAP1 PUSH1 0xFF AND PUSH3 0x691 JUMPI DUP1 DUP4 MSTORE PUSH1 0x6 PUSH1 0x20 MSTORE PUSH1 0x40 DUP4 KECCAK256 DUP3 DUP5 MSTORE PUSH1 0x20 MSTORE PUSH1 0x40 DUP4 KECCAK256 PUSH1 0x1 PUSH1 0xFF NOT DUP3 SLOAD AND OR SWAP1 SSTORE PUSH1 0x0 DUP1 MLOAD PUSH1 0x20 PUSH3 0x1E68 DUP4 CODECOPY DUP2 MLOAD SWAP2 MSTORE CALLER SWAP4 DUP1 LOG4 PUSH1 0x1 SWAP1 JUMP JUMPDEST PUSH1 0x1 PUSH1 0x1 PUSH1 0xA0 SHL SUB AND PUSH1 0x0 DUP2 DUP2 MSTORE PUSH32 0x42D20FD6DB25EA5A8E33F43724AD72F2EBD9488257FA78C86176B8175FC383FA PUSH1 0x20 MSTORE PUSH1 0x40 DUP2 KECCAK256 SLOAD SWAP1 SWAP2 SWAP1 PUSH32 0x3C11D16CBAFFD01DF69CE1C404F6340EE057498F5F00246190EA54220576A848 SWAP1 PUSH1 0xFF AND PUSH3 0x691 JUMPI DUP1 DUP4 MSTORE PUSH1 0x6 PUSH1 0x20 MSTORE PUSH1 0x40 DUP4 KECCAK256 DUP3 DUP5 MSTORE PUSH1 0x20 MSTORE PUSH1 0x40 DUP4 KECCAK256 PUSH1 0x1 PUSH1 0xFF NOT DUP3 SLOAD AND OR SWAP1 SSTORE PUSH1 0x0 DUP1 MLOAD PUSH1 0x20 PUSH3 0x1E68 DUP4 CODECOPY DUP2 MLOAD SWAP2 MSTORE CALLER SWAP4 DUP1 LOG4 PUSH1 0x1 SWAP1 JUMP JUMPDEST PUSH1 0x1 PUSH1 0x1 PUSH1 0xA0 SHL SUB AND PUSH1 0x0 DUP2 DUP2 MSTORE PUSH32 0x2E40E14903D2C9BEF53A85461D810C3ECE12252634274BD2DC3297E6C6441E9E PUSH1 0x20 MSTORE PUSH1 0x40 DUP2 KECCAK256 SLOAD SWAP1 SWAP2 SWAP1 PUSH32 0x68E79A7BF1E0BC45D0A330C573BC367F9CF464FD326078812F301165FBDA4EF1 SWAP1 PUSH1 0xFF AND PUSH3 0x691 JUMPI DUP1 DUP4 MSTORE PUSH1 0x6 PUSH1 0x20 MSTORE PUSH1 0x40 DUP4 KECCAK256 DUP3 DUP5 MSTORE PUSH1 0x20 MSTORE PUSH1 0x40 DUP4 KECCAK256 PUSH1 0x1 PUSH1 0xFF NOT DUP3 SLOAD AND OR SWAP1 SSTORE PUSH1 0x0 DUP1 MLOAD PUSH1 0x20 PUSH3 0x1E68 DUP4 CODECOPY DUP2 MLOAD SWAP2 MSTORE CALLER SWAP4 DUP1 LOG4 PUSH1 0x1 SWAP1 JUMP INVALID PUSH1 0x80 PUSH1 0x40 DUP2 DUP2 MSTORE PUSH1 0x4 SWAP2 DUP3 CALLDATASIZE LT ISZERO PUSH2 0x16 JUMPI PUSH1 0x0 DUP1 REVERT JUMPDEST PUSH1 0x0 SWAP3 DUP4 CALLDATALOAD PUSH1 0xE0 SHR SWAP2 DUP3 PUSH4 0x1FFC9A7 EQ PUSH2 0xF14 JUMPI POP DUP2 PUSH4 0x3A54325 EQ PUSH2 0xE27 JUMPI DUP2 PUSH4 0x6FDDE03 EQ PUSH2 0xD4D JUMPI DUP2 PUSH4 0x7E2CEA5 EQ PUSH2 0xD12 JUMPI DUP2 PUSH4 0x95EA7B3 EQ PUSH2 0xC68 JUMPI DUP2 PUSH4 0x16FF1FF7 EQ PUSH2 0xB6A JUMPI DUP2 PUSH4 0x18160DDD EQ PUSH2 0x49C JUMPI DUP2 PUSH4 0x23B872DD EQ PUSH2 0xB2D JUMPI DUP2 PUSH4 0x248A9CA3 EQ PUSH2 0xB02 JUMPI DUP2 PUSH4 0x282C51F3 EQ PUSH2 0xAC7 JUMPI DUP2 PUSH4 0x2F2FF15D EQ PUSH2 0xA9D JUMPI DUP2 PUSH4 0x2F37EA7A EQ PUSH2 0xA39 JUMPI DUP2 PUSH4 0x313CE567 EQ PUSH2 0xA1D JUMPI DUP2 PUSH4 0x32CB6B0C EQ PUSH2 0x9F6 JUMPI DUP2 PUSH4 0x36568ABE EQ PUSH2 0x9B0 JUMPI DUP2 PUSH4 0x3F4BA83A EQ PUSH2 0x946 JUMPI DUP2 PUSH4 0x42966C68 EQ PUSH2 0x928 JUMPI DUP2 PUSH4 0x54156BD1 EQ PUSH2 0x76F JUMPI DUP2 PUSH4 0x573F78F3 EQ PUSH2 0x73A JUMPI DUP2 PUSH4 0x5C975ABB EQ PUSH2 0x716 JUMPI DUP2 PUSH4 0x70A08231 EQ PUSH2 0x6DF JUMPI DUP2 PUSH4 0x78E8E7EA EQ PUSH2 0x593 JUMPI DUP2 PUSH4 0x79CC6790 EQ PUSH2 0x55D JUMPI DUP2 PUSH4 0x8456CB59 EQ PUSH2 0x502 JUMPI DUP2 PUSH4 0x91D14854 EQ PUSH2 0x4BB JUMPI DUP2 PUSH4 0x9358928B EQ PUSH2 0x49C JUMPI DUP2 PUSH4 0x95D89B41 EQ PUSH2 0x37D JUMPI DUP2 PUSH4 0xA217FDDF EQ PUSH2 0x362 JUMPI DUP2 PUSH4 0xA9059CBB EQ PUSH2 0x331 JUMPI DUP2 PUSH4 0xCA7DF92C EQ PUSH2 0x30A JUMPI DUP2 PUSH4 0xD5391393 EQ PUSH2 0x2CF JUMPI DUP2 PUSH4 0xD547741F EQ PUSH2 0x28B JUMPI POP DUP1 PUSH4 0xD89135CD EQ PUSH2 0x26D JUMPI DUP1 PUSH4 0xDD62ED3E EQ PUSH2 0x225 JUMPI DUP1 PUSH4 0xE55C07C5 EQ PUSH2 0x1EE JUMPI PUSH4 0xE63AB1E9 EQ PUSH2 0x1B1 JUMPI PUSH1 0x0 DUP1 REVERT JUMPDEST CALLVALUE PUSH2 0x1EA JUMPI DUP2 PUSH1 0x3 NOT CALLDATASIZE ADD SLT PUSH2 0x1EA JUMPI PUSH1 0x20 SWAP1 MLOAD PUSH32 0x65D7A28E3265B37A6474929F336521B332C1681B933F6CB9F3376673440D862A DUP2 MSTORE RETURN JUMPDEST POP DUP1 REVERT JUMPDEST POP CALLVALUE PUSH2 0x1EA JUMPI PUSH1 0x20 CALLDATASIZE PUSH1 0x3 NOT ADD SLT PUSH2 0x1EA JUMPI PUSH1 0x20 SWAP2 DUP2 SWAP1 PUSH1 0x1 PUSH1 0x1 PUSH1 0xA0 SHL SUB PUSH2 0x215 PUSH2 0xFD5 JUMP JUMPDEST AND DUP2 MSTORE PUSH1 0x8 DUP5 MSTORE KECCAK256 SLOAD SWAP1 MLOAD SWAP1 DUP2 MSTORE RETURN JUMPDEST POP CALLVALUE PUSH2 0x1EA JUMPI DUP1 PUSH1 0x3 NOT CALLDATASIZE ADD SLT PUSH2 0x1EA JUMPI DUP1 PUSH1 0x20 SWAP3 PUSH2 0x242 PUSH2 0xFD5 JUMP JUMPDEST PUSH2 0x24A PUSH2 0xFEB JUMP JUMPDEST PUSH1 0x1 PUSH1 0x1 PUSH1 0xA0 SHL SUB SWAP2 DUP3 AND DUP4 MSTORE PUSH1 0x1 DUP7 MSTORE DUP4 DUP4 KECCAK256 SWAP2 AND DUP3 MSTORE DUP5 MSTORE KECCAK256 SLOAD SWAP1 MLOAD SWAP1 DUP2 MSTORE RETURN JUMPDEST POP CALLVALUE PUSH2 0x1EA JUMPI DUP2 PUSH1 0x3 NOT CALLDATASIZE ADD SLT PUSH2 0x1EA JUMPI PUSH1 0x20 SWAP1 PUSH1 0x7 SLOAD SWAP1 MLOAD SWAP1 DUP2 MSTORE RETURN JUMPDEST SWAP2 SWAP1 POP CALLVALUE PUSH2 0x2CB JUMPI DUP1 PUSH1 0x3 NOT CALLDATASIZE ADD SLT PUSH2 0x2CB JUMPI PUSH2 0x2C7 SWAP2 CALLDATALOAD PUSH2 0x2C2 PUSH1 0x1 PUSH2 0x2B0 PUSH2 0xFEB JUMP JUMPDEST SWAP4 DUP4 DUP8 MSTORE PUSH1 0x6 PUSH1 0x20 MSTORE DUP7 KECCAK256 ADD SLOAD PUSH2 0x1105 JUMP JUMPDEST PUSH2 0x11AB JUMP JUMPDEST POP DUP1 RETURN JUMPDEST DUP3 DUP1 REVERT JUMPDEST POP POP CALLVALUE PUSH2 0x1EA JUMPI DUP2 PUSH1 0x3 NOT CALLDATASIZE ADD SLT PUSH2 0x1EA JUMPI PUSH1 0x20 SWAP1 MLOAD PUSH32 0x9F2DF0FED2C77648DE5860A4CC508CD0818C85B8B8A1AB4CEEEF8D981C8956A6 DUP2 MSTORE RETURN JUMPDEST POP POP CALLVALUE PUSH2 0x1EA JUMPI DUP2 PUSH1 0x3 NOT CALLDATASIZE ADD SLT PUSH2 0x1EA JUMPI PUSH1 0x20 SWAP1 MLOAD PUSH12 0x14ADF4B7320334B90000000 DUP2 MSTORE RETURN JUMPDEST POP POP CALLVALUE PUSH2 0x1EA JUMPI DUP1 PUSH1 0x3 NOT CALLDATASIZE ADD SLT PUSH2 0x1EA JUMPI PUSH1 0x20 SWAP1 PUSH2 0x35B PUSH2 0x351 PUSH2 0xFD5 JUMP JUMPDEST PUSH1 0x24 CALLDATALOAD SWAP1 CALLER PUSH2 0x1222 JUMP JUMPDEST MLOAD PUSH1 0x1 DUP2 MSTORE RETURN JUMPDEST POP POP CALLVALUE PUSH2 0x1EA JUMPI DUP2 PUSH1 0x3 NOT CALLDATASIZE ADD SLT PUSH2 0x1EA JUMPI MLOAD SWAP1 DUP2 MSTORE PUSH1 0x20 SWAP1 RETURN JUMPDEST DUP4 DUP4 CALLVALUE PUSH2 0x1EA JUMPI DUP2 PUSH1 0x3 NOT CALLDATASIZE ADD SLT PUSH2 0x1EA JUMPI DUP1 MLOAD SWAP1 DUP3 DUP5 SLOAD PUSH1 0x1 DUP2 DUP2 SHR SWAP1 DUP1 DUP4 AND SWAP3 DUP4 ISZERO PUSH2 0x492 JUMPI JUMPDEST PUSH1 0x20 SWAP4 DUP5 DUP5 LT DUP2 EQ PUSH2 0x47F JUMPI DUP4 DUP9 MSTORE SWAP1 DUP2 ISZERO PUSH2 0x463 JUMPI POP PUSH1 0x1 EQ PUSH2 0x40E JUMPI JUMPDEST POP POP POP DUP3 SWAP1 SUB PUSH1 0x1F ADD PUSH1 0x1F NOT AND DUP3 ADD SWAP3 PUSH8 0xFFFFFFFFFFFFFFFF DUP5 GT DUP4 DUP6 LT OR PUSH2 0x3FB JUMPI POP DUP3 SWAP2 DUP3 PUSH2 0x3F7 SWAP3 MSTORE DUP3 PUSH2 0xF8C JUMP JUMPDEST SUB SWAP1 RETURN JUMPDEST PUSH4 0x4E487B71 PUSH1 0xE0 SHL DUP2 MSTORE PUSH1 0x41 DUP6 MSTORE PUSH1 0x24 SWAP1 REVERT JUMPDEST DUP8 DUP8 MSTORE SWAP2 SWAP3 POP DUP6 SWAP2 DUP4 PUSH32 0x8A35ACFBC15FF81A39AE7D344FD709F28E8600B4AA8C65C6B64BFE7FE36BD19B JUMPDEST DUP4 DUP6 LT PUSH2 0x44F JUMPI POP POP POP POP DUP4 ADD ADD DUP6 DUP1 DUP1 PUSH2 0x3C5 JUMP JUMPDEST DUP1 SLOAD DUP9 DUP7 ADD DUP4 ADD MSTORE SWAP4 ADD SWAP3 DUP5 SWAP1 DUP3 ADD PUSH2 0x439 JUMP JUMPDEST PUSH1 0xFF NOT AND DUP8 DUP6 ADD MSTORE POP POP ISZERO ISZERO PUSH1 0x5 SHL DUP5 ADD ADD SWAP1 POP DUP6 DUP1 DUP1 PUSH2 0x3C5 JUMP JUMPDEST PUSH4 0x4E487B71 PUSH1 0xE0 SHL DUP10 MSTORE PUSH1 0x22 DUP11 MSTORE PUSH1 0x24 DUP10 REVERT JUMPDEST SWAP2 PUSH1 0x7F AND SWAP2 PUSH2 0x3A6 JUMP JUMPDEST POP POP CALLVALUE PUSH2 0x1EA JUMPI DUP2 PUSH1 0x3 NOT CALLDATASIZE ADD SLT PUSH2 0x1EA JUMPI PUSH1 0x20 SWAP1 PUSH1 0x2 SLOAD SWAP1 MLOAD SWAP1 DUP2 MSTORE RETURN JUMPDEST SWAP1 POP CALLVALUE PUSH2 0x2CB JUMPI DUP2 PUSH1 0x3 NOT CALLDATASIZE ADD SLT PUSH2 0x2CB JUMPI DUP2 PUSH1 0x20 SWAP4 PUSH1 0xFF SWAP3 PUSH2 0x4DC PUSH2 0xFEB JUMP JUMPDEST SWAP1 CALLDATALOAD DUP3 MSTORE PUSH1 0x6 DUP7 MSTORE DUP3 DUP3 KECCAK256 PUSH1 0x1 PUSH1 0x1 PUSH1 0xA0 SHL SUB SWAP1 SWAP2 AND DUP3 MSTORE DUP6 MSTORE KECCAK256 SLOAD SWAP2 MLOAD SWAP2 AND ISZERO ISZERO DUP2 MSTORE RETURN JUMPDEST POP POP CALLVALUE PUSH2 0x1EA JUMPI DUP2 PUSH1 0x3 NOT CALLDATASIZE ADD SLT PUSH2 0x1EA JUMPI PUSH1 0x20 PUSH32 0x62E78CEA01BEE320CD4E420270B5EA74000D11B0C9F74754EBDBFC544B05A258 SWAP2 PUSH2 0x540 PUSH2 0x10A9 JUMP JUMPDEST PUSH2 0x548 PUSH2 0x15A3 JUMP JUMPDEST PUSH1 0x1 PUSH1 0xFF NOT PUSH1 0x5 SLOAD AND OR PUSH1 0x5 SSTORE MLOAD CALLER DUP2 MSTORE LOG1 DUP1 RETURN JUMPDEST POP POP CALLVALUE PUSH2 0x1EA JUMPI CALLDATASIZE PUSH1 0x3 NOT ADD SLT PUSH2 0x590 JUMPI PUSH2 0x58D PUSH2 0x579 PUSH2 0xFD5 JUMP JUMPDEST PUSH1 0x24 CALLDATALOAD SWAP1 PUSH2 0x588 DUP3 CALLER DUP4 PUSH2 0x1308 JUMP JUMPDEST PUSH2 0x13DB JUMP JUMPDEST DUP1 RETURN JUMPDEST DUP1 REVERT JUMPDEST DUP4 DUP4 CALLVALUE PUSH2 0x1EA JUMPI PUSH1 0x80 CALLDATASIZE PUSH1 0x3 NOT ADD SLT PUSH2 0x1EA JUMPI PUSH2 0x5AE PUSH2 0xFD5 JUMP JUMPDEST PUSH1 0x24 CALLDATALOAD SWAP1 PUSH2 0x5BA PUSH2 0xF7C JUMP JUMPDEST SWAP1 PUSH1 0x64 CALLDATALOAD PUSH8 0xFFFFFFFFFFFFFFFF DUP2 GT PUSH2 0x6DB JUMPI PUSH2 0x5DC PUSH1 0xFF SWAP2 CALLDATASIZE SWAP1 DUP10 ADD PUSH2 0x1001 JUMP JUMPDEST SWAP2 SWAP1 SWAP4 PUSH2 0x5E7 PUSH2 0x102F JUMP JUMPDEST PUSH2 0x5EF PUSH2 0x15A3 JUMP JUMPDEST AND SWAP5 PUSH1 0x1 DUP7 LT ISZERO DUP1 PUSH2 0x6D0 JUMPI JUMPDEST PUSH2 0x605 SWAP1 PUSH2 0x1482 JUMP JUMPDEST DUP5 ISZERO SWAP5 PUSH2 0x612 DUP7 ISZERO PUSH2 0x14C4 JUMP JUMPDEST PUSH1 0x1 DUP1 PUSH1 0xA0 SHL SUB DUP5 AND SWAP6 DUP7 DUP10 MSTORE DUP9 PUSH1 0x20 MSTORE PUSH2 0x632 DUP3 DUP5 DUP12 KECCAK256 SLOAD LT ISZERO PUSH2 0x1506 JUMP JUMPDEST DUP8 DUP10 MSTORE PUSH1 0x9 PUSH1 0x20 MSTORE PUSH2 0xFFFF DUP4 DUP11 KECCAK256 SLOAD AND DUP1 DUP4 MUL SWAP3 DUP4 DIV EQ OR ISZERO PUSH2 0x6BD JUMPI SWAP2 PUSH2 0x6B7 SWAP2 PUSH2 0x686 PUSH2 0x2710 PUSH32 0x928722A07342AA9954683218C9EA873A610158E3DCAB785D38DA48ABB8EA9621 SWAP8 SWAP7 SWAP6 DIV DUP1 SWAP6 PUSH2 0x13DB JUMP JUMPDEST PUSH2 0x692 DUP5 PUSH1 0x7 SLOAD PUSH2 0x1552 JUMP JUMPDEST PUSH1 0x7 SSTORE DUP7 DUP10 MSTORE PUSH1 0x8 PUSH1 0x20 MSTORE DUP1 DUP10 KECCAK256 PUSH2 0x6AB DUP6 DUP3 SLOAD PUSH2 0x1552 JUMP JUMPDEST SWAP1 SSTORE MLOAD SWAP4 DUP5 SWAP4 DUP5 PUSH2 0x1575 JUMP JUMPDEST SUB SWAP1 LOG3 DUP1 RETURN JUMPDEST PUSH4 0x4E487B71 PUSH1 0xE0 SHL DUP9 MSTORE PUSH1 0x11 DUP10 MSTORE PUSH1 0x24 DUP9 REVERT JUMPDEST POP PUSH1 0x7 DUP7 GT ISZERO PUSH2 0x5FC JUMP JUMPDEST DUP6 DUP1 REVERT JUMPDEST POP POP CALLVALUE PUSH2 0x1EA JUMPI PUSH1 0x20 CALLDATASIZE PUSH1 0x3 NOT ADD SLT PUSH2 0x1EA JUMPI PUSH1 0x20 SWAP2 DUP2 SWAP1 PUSH1 0x1 PUSH1 0x1 PUSH1 0xA0 SHL SUB PUSH2 0x707 PUSH2 0xFD5 JUMP JUMPDEST AND DUP2 MSTORE DUP1 DUP5 MSTORE KECCAK256 SLOAD SWAP1 MLOAD SWAP1 DUP2 MSTORE RETURN JUMPDEST POP POP CALLVALUE PUSH2 0x1EA JUMPI DUP2 PUSH1 0x3 NOT CALLDATASIZE ADD SLT PUSH2 0x1EA JUMPI PUSH1 0x20 SWAP1 PUSH1 0xFF PUSH1 0x5 SLOAD AND SWAP1 MLOAD SWAP1 ISZERO ISZERO DUP2 MSTORE RETURN JUMPDEST POP POP CALLVALUE PUSH2 0x1EA JUMPI PUSH1 0x20 CALLDATASIZE PUSH1 0x3 NOT ADD SLT PUSH2 0x1EA JUMPI PUSH2 0xFFFF DUP2 PUSH1 0x20 SWAP4 PUSH1 0xFF PUSH2 0x75E PUSH2 0xF67 JUMP JUMPDEST AND DUP2 MSTORE PUSH1 0x9 DUP6 MSTORE KECCAK256 SLOAD AND SWAP1 MLOAD SWAP1 DUP2 MSTORE RETURN JUMPDEST SWAP2 SWAP1 POP CALLVALUE PUSH2 0x2CB JUMPI PUSH1 0x60 CALLDATASIZE PUSH1 0x3 NOT ADD SLT PUSH2 0x2CB JUMPI PUSH2 0x78B PUSH2 0xFD5 JUMP JUMPDEST SWAP1 PUSH1 0x24 CALLDATALOAD PUSH2 0x797 PUSH2 0xF7C JUMP JUMPDEST SWAP2 PUSH32 0x68E79A7BF1E0BC45D0A330C573BC367F9CF464FD326078812F301165FBDA4EF1 SWAP3 DUP4 DUP8 MSTORE PUSH1 0x20 SWAP4 PUSH1 0x6 DUP6 MSTORE DUP3 DUP9 KECCAK256 CALLER DUP10 MSTORE DUP6 MSTORE PUSH1 0xFF DUP4 DUP10 KECCAK256 SLOAD AND ISZERO PUSH2 0x90A JUMPI POP PUSH1 0xFF SWAP1 PUSH2 0x7E4 PUSH2 0x15A3 JUMP JUMPDEST AND SWAP4 PUSH1 0x1 DUP6 LT ISZERO DUP1 PUSH2 0x8FF JUMPI JUMPDEST PUSH2 0x7FA SWAP1 PUSH2 0x1482 JUMP JUMPDEST PUSH1 0x2 SLOAD SWAP1 PUSH12 0x33B2E3C9FD0803CE8000000 PUSH2 0x815 DUP6 DUP5 PUSH2 0x1552 JUMP JUMPDEST GT PUSH2 0x8BC JUMPI PUSH1 0x1 PUSH1 0x1 PUSH1 0xA0 SHL SUB AND SWAP6 DUP7 ISZERO PUSH2 0x8A5 JUMPI POP SWAP1 PUSH2 0x861 DUP4 PUSH32 0x11FEE935D6434618F69C608AACED54549A5C59A10F3FC50E740E308ED3AA46E5 SWAP6 SWAP5 SWAP4 PUSH2 0x85C PUSH2 0x15A3 JUMP JUMPDEST PUSH2 0x1552 JUMP JUMPDEST PUSH1 0x2 SSTORE DUP6 DUP8 MSTORE DUP7 DUP4 MSTORE DUP1 DUP8 KECCAK256 DUP3 DUP2 SLOAD ADD SWAP1 SSTORE DUP6 DUP8 PUSH32 0xDDF252AD1BE2C89B69C2B068FC378DAA952BA7F163C4A11628F55A4DF523B3EF DUP6 DUP5 MLOAD DUP7 DUP2 MSTORE LOG3 MLOAD SWAP1 DUP2 MSTORE LOG3 DUP1 RETURN JUMPDEST DUP3 MLOAD PUSH4 0xEC442F05 PUSH1 0xE0 SHL DUP2 MSTORE SWAP1 DUP2 ADD DUP9 SWAP1 MSTORE PUSH1 0x24 SWAP1 REVERT JUMPDEST DUP3 MLOAD PUSH3 0x461BCD PUSH1 0xE5 SHL DUP2 MSTORE DUP1 DUP9 ADD DUP7 SWAP1 MSTORE PUSH1 0x18 PUSH1 0x24 DUP3 ADD MSTORE PUSH32 0x4B41493A206D617820737570706C792065786365656465640000000000000000 PUSH1 0x44 DUP3 ADD MSTORE PUSH1 0x64 SWAP1 REVERT JUMPDEST POP PUSH1 0x7 DUP6 GT ISZERO PUSH2 0x7F1 JUMP JUMPDEST DUP3 MLOAD PUSH4 0xE2517D3F PUSH1 0xE0 SHL DUP2 MSTORE CALLER DUP2 DUP10 ADD MSTORE PUSH1 0x24 DUP2 ADD SWAP2 SWAP1 SWAP2 MSTORE PUSH1 0x44 SWAP1 REVERT JUMPDEST DUP4 SWAP1 CALLVALUE PUSH2 0x1EA JUMPI PUSH1 0x20 CALLDATASIZE PUSH1 0x3 NOT ADD SLT PUSH2 0x1EA JUMPI PUSH2 0x58D SWAP1 CALLDATALOAD CALLER PUSH2 0x13DB JUMP JUMPDEST SWAP1 POP CALLVALUE PUSH2 0x2CB JUMPI DUP3 PUSH1 0x3 NOT CALLDATASIZE ADD SLT PUSH2 0x2CB JUMPI PUSH2 0x960 PUSH2 0x10A9 JUMP JUMPDEST PUSH1 0x5 SLOAD SWAP1 PUSH1 0xFF DUP3 AND ISZERO PUSH2 0x9A2 JUMPI POP PUSH1 0xFF NOT AND PUSH1 0x5 SSTORE MLOAD CALLER DUP2 MSTORE PUSH32 0x5DB9EE0A495BF2E6FF9C91A7834C1BA4FDD244A5E8AA4E537BD38AEAE4B073AA SWAP1 PUSH1 0x20 SWAP1 LOG1 DUP1 RETURN JUMPDEST DUP3 MLOAD PUSH4 0x8DFC202B PUSH1 0xE0 SHL DUP2 MSTORE REVERT JUMPDEST DUP4 DUP4 CALLVALUE PUSH2 0x1EA JUMPI DUP1 PUSH1 0x3 NOT CALLDATASIZE ADD SLT PUSH2 0x1EA JUMPI PUSH2 0x9CA PUSH2 0xFEB JUMP JUMPDEST SWAP1 CALLER PUSH1 0x1 PUSH1 0x1 PUSH1 0xA0 SHL SUB DUP4 AND SUB PUSH2 0x9E7 JUMPI POP PUSH2 0x2C7 SWAP2 SWAP3 CALLDATALOAD PUSH2 0x11AB JUMP JUMPDEST MLOAD PUSH4 0x334BD919 PUSH1 0xE1 SHL DUP2 MSTORE DUP4 SWAP1 REVERT JUMPDEST POP POP CALLVALUE PUSH2 0x1EA JUMPI DUP2 PUSH1 0x3 NOT CALLDATASIZE ADD SLT PUSH2 0x1EA JUMPI PUSH1 0x20 SWAP1 MLOAD PUSH12 0x33B2E3C9FD0803CE8000000 DUP2 MSTORE RETURN JUMPDEST POP POP CALLVALUE PUSH2 0x1EA JUMPI DUP2 PUSH1 0x3 NOT CALLDATASIZE ADD SLT PUSH2 0x1EA JUMPI PUSH1 0x20 SWAP1 MLOAD PUSH1 0x12 DUP2 MSTORE RETURN JUMPDEST DUP4 DUP4 CALLVALUE PUSH2 0x1EA JUMPI DUP2 PUSH1 0x3 NOT CALLDATASIZE ADD SLT PUSH2 0x1EA JUMPI PUSH1 0x7 SLOAD SWAP2 PUSH1 0x2 SLOAD PUSH2 0x2710 SWAP2 DUP3 DUP6 MUL SWAP3 DUP6 DUP5 DIV EQ DUP6 ISZERO OR ISZERO PUSH2 0xA8A JUMPI PUSH1 0x60 DUP6 DUP6 PUSH12 0x14ADF4B7320334B90000000 DUP7 DUP7 DUP4 MLOAD SWAP5 DUP6 MSTORE PUSH1 0x20 DUP6 ADD MSTORE DIV SWAP1 DUP3 ADD MSTORE RETURN JUMPDEST PUSH4 0x4E487B71 PUSH1 0xE0 SHL DUP2 MSTORE PUSH1 0x11 DUP7 MSTORE PUSH1 0x24 SWAP1 REVERT JUMPDEST SWAP2 SWAP1 POP CALLVALUE PUSH2 0x2CB JUMPI DUP1 PUSH1 0x3 NOT CALLDATASIZE ADD SLT PUSH2 0x2CB JUMPI PUSH2 0x2C7 SWAP2 CALLDATALOAD PUSH2 0xAC2 PUSH1 0x1 PUSH2 0x2B0 PUSH2 0xFEB JUMP JUMPDEST PUSH2 0x112B JUMP JUMPDEST POP POP CALLVALUE PUSH2 0x1EA JUMPI DUP2 PUSH1 0x3 NOT CALLDATASIZE ADD SLT PUSH2 0x1EA JUMPI PUSH1 0x20 SWAP1 MLOAD PUSH32 0x3C11D16CBAFFD01DF69CE1C404F6340EE057498F5F00246190EA54220576A848 DUP2 MSTORE RETURN JUMPDEST SWAP1 POP CALLVALUE PUSH2 0x2CB JUMPI PUSH1 0x20 CALLDATASIZE PUSH1 0x3 NOT ADD SLT PUSH2 0x2CB JUMPI DUP2 PUSH1 0x20 SWAP4 PUSH1 0x1 SWAP3 CALLDATALOAD DUP2 MSTORE PUSH1 0x6 DUP6 MSTORE KECCAK256 ADD SLOAD SWAP1 MLOAD SWAP1 DUP2 MSTORE RETURN JUMPDEST POP POP CALLVALUE PUSH2 0x1EA JUMPI PUSH1 0x60 CALLDATASIZE PUSH1 0x3 NOT ADD SLT PUSH2 0x1EA JUMPI PUSH1 0x20 SWAP1 PUSH2 0x35B PUSH2 0xB4E PUSH2 0xFD5 JUMP JUMPDEST PUSH2 0xB56 PUSH2 0xFEB JUMP JUMPDEST PUSH1 0x44 CALLDATALOAD SWAP2 PUSH2 0xB65 DUP4 CALLER DUP4 PUSH2 0x1308 JUMP JUMPDEST PUSH2 0x1222 JUMP JUMPDEST SWAP2 SWAP1 POP CALLVALUE PUSH2 0x2CB JUMPI PUSH1 0x60 CALLDATASIZE PUSH1 0x3 NOT ADD SLT PUSH2 0x2CB JUMPI DUP2 CALLDATALOAD SWAP1 PUSH1 0x24 CALLDATALOAD SWAP3 PUSH1 0xFF DUP5 AND DUP1 SWAP5 SUB PUSH2 0xC64 JUMPI PUSH1 0x44 CALLDATALOAD SWAP2 PUSH8 0xFFFFFFFFFFFFFFFF DUP4 GT PUSH2 0x6DB JUMPI PUSH2 0xBD4 PUSH2 0x6B7 SWAP3 PUSH32 0x928722A07342AA9954683218C9EA873A610158E3DCAB785D38DA48ABB8EA9621 SWAP5 CALLDATASIZE SWAP2 ADD PUSH2 0x1001 JUMP JUMPDEST SWAP3 SWAP1 SWAP2 PUSH2 0xBDF PUSH2 0x102F JUMP JUMPDEST PUSH2 0xBE7 PUSH2 0x15A3 JUMP JUMPDEST PUSH1 0x1 DUP8 LT ISZERO DUP1 PUSH2 0xC59 JUMPI JUMPDEST PUSH2 0xBFB SWAP1 PUSH2 0x1482 JUMP JUMPDEST PUSH2 0xC06 DUP7 ISZERO ISZERO PUSH2 0x14C4 JUMP JUMPDEST CALLER DUP9 MSTORE DUP8 PUSH1 0x20 MSTORE PUSH2 0xC1C DUP7 DUP3 DUP11 KECCAK256 SLOAD LT ISZERO PUSH2 0x1506 JUMP JUMPDEST PUSH2 0xC26 DUP7 CALLER PUSH2 0x13DB JUMP JUMPDEST PUSH2 0xC32 DUP7 PUSH1 0x7 SLOAD PUSH2 0x1552 JUMP JUMPDEST PUSH1 0x7 SSTORE CALLER DUP9 MSTORE PUSH1 0x8 PUSH1 0x20 MSTORE DUP1 DUP9 KECCAK256 PUSH2 0xC4B DUP8 DUP3 SLOAD PUSH2 0x1552 JUMP JUMPDEST SWAP1 SSTORE MLOAD SWAP3 DUP4 SWAP3 CALLER SWAP7 DUP5 PUSH2 0x1575 JUMP JUMPDEST POP PUSH1 0x7 DUP8 GT ISZERO PUSH2 0xBF2 JUMP JUMPDEST DUP5 DUP1 REVERT JUMPDEST SWAP1 POP CALLVALUE PUSH2 0x2CB JUMPI DUP2 PUSH1 0x3 NOT CALLDATASIZE ADD SLT PUSH2 0x2CB JUMPI PUSH2 0xC82 PUSH2 0xFD5 JUMP JUMPDEST PUSH1 0x24 CALLDATALOAD SWAP1 CALLER ISZERO PUSH2 0xCFB JUMPI PUSH1 0x1 PUSH1 0x1 PUSH1 0xA0 SHL SUB AND SWAP2 DUP3 ISZERO PUSH2 0xCE4 JUMPI POP DUP1 DUP4 PUSH1 0x20 SWAP6 CALLER DUP2 MSTORE PUSH1 0x1 DUP8 MSTORE DUP2 DUP2 KECCAK256 DUP6 DUP3 MSTORE DUP8 MSTORE KECCAK256 SSTORE DUP3 MLOAD SWAP1 DUP2 MSTORE PUSH32 0x8C5BE1E5EBEC7D5BD14F71427D1E84F3DD0314C0F7B2291E5B200AC8C7C3B925 DUP5 CALLER SWAP3 LOG3 MLOAD PUSH1 0x1 DUP2 MSTORE RETURN JUMPDEST DUP4 MLOAD PUSH4 0x4A1406B1 PUSH1 0xE1 SHL DUP2 MSTORE SWAP1 DUP2 ADD DUP6 SWAP1 MSTORE PUSH1 0x24 SWAP1 REVERT JUMPDEST DUP4 MLOAD PUSH4 0xE602DF05 PUSH1 0xE0 SHL DUP2 MSTORE DUP1 DUP5 ADD DUP7 SWAP1 MSTORE PUSH1 0x24 SWAP1 REVERT JUMPDEST POP POP CALLVALUE PUSH2 0x1EA JUMPI DUP2 PUSH1 0x3 NOT CALLDATASIZE ADD SLT PUSH2 0x1EA JUMPI PUSH1 0x20 SWAP1 MLOAD PUSH32 0x68E79A7BF1E0BC45D0A330C573BC367F9CF464FD326078812F301165FBDA4EF1 DUP2 MSTORE RETURN JUMPDEST DUP4 DUP4 CALLVALUE PUSH2 0x1EA JUMPI DUP2 PUSH1 0x3 NOT CALLDATASIZE ADD SLT PUSH2 0x1EA JUMPI DUP1 MLOAD SWAP1 DUP3 PUSH1 0x3 SLOAD PUSH1 0x1 DUP2 DUP2 SHR SWAP1 DUP1 DUP4 AND SWAP3 DUP4 ISZERO PUSH2 0xE1D JUMPI JUMPDEST PUSH1 0x20 SWAP4 DUP5 DUP5 LT DUP2 EQ PUSH2 0x47F JUMPI DUP4 DUP9 MSTORE SWAP1 DUP2 ISZERO PUSH2 0x463 JUMPI POP PUSH1 0x1 EQ PUSH2 0xDC7 JUMPI POP POP POP DUP3 SWAP1 SUB PUSH1 0x1F ADD PUSH1 0x1F NOT AND DUP3 ADD SWAP3 PUSH8 0xFFFFFFFFFFFFFFFF DUP5 GT DUP4 DUP6 LT OR PUSH2 0x3FB JUMPI POP DUP3 SWAP2 DUP3 PUSH2 0x3F7 SWAP3 MSTORE DUP3 PUSH2 0xF8C JUMP JUMPDEST PUSH1 0x3 DUP8 MSTORE SWAP2 SWAP3 POP DUP6 SWAP2 DUP4 PUSH32 0xC2575A0E9E593C00F959F8C92F12DB2869C3395A3B0502D05E2516446F71F85B JUMPDEST DUP4 DUP6 LT PUSH2 0xE09 JUMPI POP POP POP POP DUP4 ADD ADD DUP6 DUP1 DUP1 PUSH2 0x3C5 JUMP JUMPDEST DUP1 SLOAD DUP9 DUP7 ADD DUP4 ADD MSTORE SWAP4 ADD SWAP3 DUP5 SWAP1 DUP3 ADD PUSH2 0xDF3 JUMP JUMPDEST SWAP2 PUSH1 0x7F AND SWAP2 PUSH2 0xD77 JUMP JUMPDEST SWAP2 SWAP1 POP CALLVALUE PUSH2 0x2CB JUMPI DUP1 PUSH1 0x3 NOT CALLDATASIZE ADD SLT PUSH2 0x2CB JUMPI PUSH2 0xE42 PUSH2 0xF67 JUMP JUMPDEST SWAP2 PUSH1 0x24 CALLDATALOAD SWAP3 PUSH2 0xFFFF DUP5 AND DUP1 SWAP5 SUB PUSH2 0xC64 JUMPI DUP5 DUP1 MSTORE PUSH1 0x6 PUSH1 0x20 MSTORE DUP3 DUP6 KECCAK256 CALLER DUP7 MSTORE PUSH1 0x20 MSTORE PUSH1 0xFF DUP4 DUP7 KECCAK256 SLOAD AND ISZERO PUSH2 0xEF7 JUMPI PUSH1 0xFF AND SWAP1 PUSH1 0x1 DUP3 LT ISZERO DUP1 PUSH2 0xEEC JUMPI JUMPDEST PUSH2 0xE88 SWAP1 PUSH2 0x1482 JUMP JUMPDEST PUSH2 0x1388 DUP5 GT PUSH2 0xEA9 JUMPI POP DUP4 MSTORE PUSH1 0x9 PUSH1 0x20 MSTORE DUP3 KECCAK256 SWAP1 PUSH2 0xFFFF NOT DUP3 SLOAD AND OR SWAP1 SSTORE DUP1 RETURN JUMPDEST PUSH1 0x64 SWAP1 PUSH1 0x20 DUP5 MLOAD SWAP2 PUSH3 0x461BCD PUSH1 0xE5 SHL DUP4 MSTORE DUP3 ADD MSTORE PUSH1 0x17 PUSH1 0x24 DUP3 ADD MSTORE PUSH32 0x4B41493A206275726E207261746520746F6F2068696768000000000000000000 PUSH1 0x44 DUP3 ADD MSTORE REVERT JUMPDEST POP PUSH1 0x7 DUP3 GT ISZERO PUSH2 0xE7F JUMP JUMPDEST POP DUP4 PUSH1 0x44 SWAP3 MLOAD SWAP2 PUSH4 0xE2517D3F PUSH1 0xE0 SHL DUP4 MSTORE CALLER SWAP1 DUP4 ADD MSTORE PUSH1 0x24 DUP3 ADD MSTORE REVERT JUMPDEST DUP5 SWAP2 CALLVALUE PUSH2 0x2CB JUMPI PUSH1 0x20 CALLDATASIZE PUSH1 0x3 NOT ADD SLT PUSH2 0x2CB JUMPI CALLDATALOAD PUSH4 0xFFFFFFFF PUSH1 0xE0 SHL DUP2 AND DUP1 SWAP2 SUB PUSH2 0x2CB JUMPI PUSH1 0x20 SWAP3 POP PUSH4 0x7965DB0B PUSH1 0xE0 SHL DUP2 EQ SWAP1 DUP2 ISZERO PUSH2 0xF56 JUMPI JUMPDEST POP ISZERO ISZERO DUP2 MSTORE RETURN JUMPDEST PUSH4 0x1FFC9A7 PUSH1 0xE0 SHL EQ SWAP1 POP DUP4 PUSH2 0xF4F JUMP JUMPDEST PUSH1 0x4 CALLDATALOAD SWAP1 PUSH1 0xFF DUP3 AND DUP3 SUB PUSH2 0xF77 JUMPI JUMP JUMPDEST PUSH1 0x0 DUP1 REVERT JUMPDEST PUSH1 0x44 CALLDATALOAD SWAP1 PUSH1 0xFF DUP3 AND DUP3 SUB PUSH2 0xF77 JUMPI JUMP JUMPDEST PUSH1 0x20 DUP1 DUP3 MSTORE DUP3 MLOAD DUP2 DUP4 ADD DUP2 SWAP1 MSTORE SWAP1 SWAP4 SWAP3 PUSH1 0x0 JUMPDEST DUP3 DUP2 LT PUSH2 0xFC1 JUMPI POP POP PUSH1 0x40 SWAP3 SWAP4 POP PUSH1 0x0 DUP4 DUP3 DUP5 ADD ADD MSTORE PUSH1 0x1F DUP1 NOT SWAP2 ADD AND ADD ADD SWAP1 JUMP JUMPDEST DUP2 DUP2 ADD DUP7 ADD MLOAD DUP5 DUP3 ADD PUSH1 0x40 ADD MSTORE DUP6 ADD PUSH2 0xF9F JUMP JUMPDEST PUSH1 0x4 CALLDATALOAD SWAP1 PUSH1 0x1 PUSH1 0x1 PUSH1 0xA0 SHL SUB DUP3 AND DUP3 SUB PUSH2 0xF77 JUMPI JUMP JUMPDEST PUSH1 0x24 CALLDATALOAD SWAP1 PUSH1 0x1 PUSH1 0x1 PUSH1 0xA0 SHL SUB DUP3 AND DUP3 SUB PUSH2 0xF77 JUMPI JUMP JUMPDEST SWAP2 DUP2 PUSH1 0x1F DUP5 ADD SLT ISZERO PUSH2 0xF77 JUMPI DUP3 CALLDATALOAD SWAP2 PUSH8 0xFFFFFFFFFFFFFFFF DUP4 GT PUSH2 0xF77 JUMPI PUSH1 0x20 DUP4 DUP2 DUP7 ADD SWAP6 ADD ADD GT PUSH2 0xF77 JUMPI JUMP JUMPDEST CALLER PUSH1 0x0 SWAP1 DUP2 MSTORE PUSH32 0x42D20FD6DB25EA5A8E33F43724AD72F2EBD9488257FA78C86176B8175FC383FA PUSH1 0x20 MSTORE PUSH1 0x40 SWAP1 KECCAK256 SLOAD PUSH32 0x3C11D16CBAFFD01DF69CE1C404F6340EE057498F5F00246190EA54220576A848 SWAP1 PUSH1 0xFF AND ISZERO PUSH2 0x108B JUMPI POP JUMP JUMPDEST PUSH1 0x44 SWAP1 PUSH1 0x40 MLOAD SWAP1 PUSH4 0xE2517D3F PUSH1 0xE0 SHL DUP3 MSTORE CALLER PUSH1 0x4 DUP4 ADD MSTORE PUSH1 0x24 DUP3 ADD MSTORE REVERT JUMPDEST CALLER PUSH1 0x0 SWAP1 DUP2 MSTORE PUSH32 0xE09F975E15F8F53F24CBBC282B13C40B84DF485FCDB8D3997FA103DC5A4EF841 PUSH1 0x20 MSTORE PUSH1 0x40 SWAP1 KECCAK256 SLOAD PUSH32 0x65D7A28E3265B37A6474929F336521B332C1681B933F6CB9F3376673440D862A SWAP1 PUSH1 0xFF AND ISZERO PUSH2 0x108B JUMPI POP JUMP JUMPDEST DUP1 PUSH1 0x0 MSTORE PUSH1 0x6 PUSH1 0x20 MSTORE PUSH1 0x40 PUSH1 0x0 KECCAK256 CALLER PUSH1 0x0 MSTORE PUSH1 0x20 MSTORE PUSH1 0xFF PUSH1 0x40 PUSH1 0x0 KECCAK256 SLOAD AND ISZERO PUSH2 0x108B JUMPI POP JUMP JUMPDEST SWAP1 PUSH1 0x0 SWAP2 DUP1 DUP4 MSTORE PUSH1 0x6 PUSH1 0x20 MSTORE PUSH1 0x40 DUP4 KECCAK256 SWAP2 PUSH1 0x1 DUP1 PUSH1 0xA0 SHL SUB AND SWAP2 DUP3 DUP5 MSTORE PUSH1 0x20 MSTORE PUSH1 0xFF PUSH1 0x40 DUP5 KECCAK256 SLOAD AND ISZERO PUSH1 0x0 EQ PUSH2 0x11A6 JUMPI DUP1 DUP4 MSTORE PUSH1 0x6 PUSH1 0x20 MSTORE PUSH1 0x40 DUP4 KECCAK256 DUP3 DUP5 MSTORE PUSH1 0x20 MSTORE PUSH1 0x40 DUP4 KECCAK256 PUSH1 0x1 PUSH1 0xFF NOT DUP3 SLOAD AND OR SWAP1 SSTORE PUSH32 0x2F8788117E7EFF1D82E926EC794901D17C78024A50270940304540A733656F0D CALLER SWAP4 DUP1 LOG4 PUSH1 0x1 SWAP1 JUMP JUMPDEST POP POP SWAP1 JUMP JUMPDEST SWAP1 PUSH1 0x0 SWAP2 DUP1 DUP4 MSTORE PUSH1 0x6 PUSH1 0x20 MSTORE PUSH1 0x40 DUP4 KECCAK256 SWAP2 PUSH1 0x1 DUP1 PUSH1 0xA0 SHL SUB AND SWAP2 DUP3 DUP5 MSTORE PUSH1 0x20 MSTORE PUSH1 0xFF PUSH1 0x40 DUP5 KECCAK256 SLOAD AND PUSH1 0x0 EQ PUSH2 0x11A6 JUMPI DUP1 DUP4 MSTORE PUSH1 0x6 PUSH1 0x20 MSTORE PUSH1 0x40 DUP4 KECCAK256 DUP3 DUP5 MSTORE PUSH1 0x20 MSTORE PUSH1 0x40 DUP4 KECCAK256 PUSH1 0xFF NOT DUP2 SLOAD AND SWAP1 SSTORE PUSH32 0xF6391F5C32D9C69D2A47EA670B442974B53935D1EDC7FD64EB21E047A839171B CALLER SWAP4 DUP1 LOG4 PUSH1 0x1 SWAP1 JUMP JUMPDEST SWAP2 PUSH1 0x1 PUSH1 0x1 PUSH1 0xA0 SHL SUB DUP1 DUP5 AND SWAP3 DUP4 ISZERO PUSH2 0x12EF JUMPI AND SWAP3 DUP4 ISZERO PUSH2 0x12D6 JUMPI PUSH2 0x1245 PUSH2 0x15A3 JUMP JUMPDEST PUSH1 0x0 SWAP1 DUP4 DUP3 MSTORE DUP2 PUSH1 0x20 MSTORE PUSH1 0x40 DUP3 KECCAK256 SLOAD SWAP1 DUP4 DUP3 LT PUSH2 0x12A4 JUMPI POP SWAP2 PUSH1 0x40 DUP3 DUP3 PUSH32 0xDDF252AD1BE2C89B69C2B068FC378DAA952BA7F163C4A11628F55A4DF523B3EF SWAP6 DUP8 PUSH1 0x20 SWAP7 MSTORE DUP3 DUP7 MSTORE SUB DUP3 DUP3 KECCAK256 SSTORE DUP7 DUP2 MSTORE KECCAK256 DUP2 DUP2 SLOAD ADD SWAP1 SSTORE PUSH1 0x40 MLOAD SWAP1 DUP2 MSTORE LOG3 JUMP JUMPDEST PUSH1 0x40 MLOAD PUSH4 0x391434E3 PUSH1 0xE2 SHL DUP2 MSTORE PUSH1 0x1 PUSH1 0x1 PUSH1 0xA0 SHL SUB SWAP2 SWAP1 SWAP2 AND PUSH1 0x4 DUP3 ADD MSTORE PUSH1 0x24 DUP2 ADD SWAP2 SWAP1 SWAP2 MSTORE PUSH1 0x44 DUP2 ADD DUP4 SWAP1 MSTORE PUSH1 0x64 SWAP1 REVERT JUMPDEST PUSH1 0x40 MLOAD PUSH4 0xEC442F05 PUSH1 0xE0 SHL DUP2 MSTORE PUSH1 0x0 PUSH1 0x4 DUP3 ADD MSTORE PUSH1 0x24 SWAP1 REVERT JUMPDEST PUSH1 0x40 MLOAD PUSH4 0x4B637E8F PUSH1 0xE1 SHL DUP2 MSTORE PUSH1 0x0 PUSH1 0x4 DUP3 ADD MSTORE PUSH1 0x24 SWAP1 REVERT JUMPDEST SWAP2 PUSH1 0x1 DUP1 PUSH1 0xA0 SHL SUB DUP1 SWAP4 AND SWAP2 PUSH1 0x0 SWAP4 DUP4 DUP6 MSTORE PUSH1 0x1 PUSH1 0x20 MSTORE PUSH1 0x40 SWAP4 DUP5 DUP7 KECCAK256 SWAP2 DUP4 AND SWAP2 DUP3 DUP8 MSTORE PUSH1 0x20 MSTORE DUP5 DUP7 KECCAK256 SLOAD SWAP3 PUSH1 0x0 NOT DUP5 LT PUSH2 0x1347 JUMPI JUMPDEST POP POP POP POP POP POP POP JUMP JUMPDEST DUP5 DUP5 LT PUSH2 0x13AB JUMPI POP DUP1 ISZERO PUSH2 0x1393 JUMPI DUP2 ISZERO PUSH2 0x137B JUMPI DUP6 MSTORE PUSH1 0x1 PUSH1 0x20 MSTORE DUP4 DUP6 KECCAK256 SWAP1 DUP6 MSTORE PUSH1 0x20 MSTORE SUB SWAP2 KECCAK256 SSTORE CODESIZE DUP1 DUP1 DUP1 DUP1 DUP1 DUP1 PUSH2 0x133E JUMP JUMPDEST DUP5 MLOAD PUSH4 0x4A1406B1 PUSH1 0xE1 SHL DUP2 MSTORE PUSH1 0x4 DUP2 ADD DUP8 SWAP1 MSTORE PUSH1 0x24 SWAP1 REVERT JUMPDEST DUP5 MLOAD PUSH4 0xE602DF05 PUSH1 0xE0 SHL DUP2 MSTORE PUSH1 0x4 DUP2 ADD DUP8 SWAP1 MSTORE PUSH1 0x24 SWAP1 REVERT JUMPDEST DUP6 MLOAD PUSH4 0x7DC7A0D9 PUSH1 0xE1 SHL DUP2 MSTORE PUSH1 0x1 PUSH1 0x1 PUSH1 0xA0 SHL SUB SWAP2 SWAP1 SWAP2 AND PUSH1 0x4 DUP3 ADD MSTORE PUSH1 0x24 DUP2 ADD DUP5 SWAP1 MSTORE PUSH1 0x44 DUP2 ADD DUP6 SWAP1 MSTORE PUSH1 0x64 SWAP1 REVERT JUMPDEST SWAP1 PUSH1 0x1 PUSH1 0x1 PUSH1 0xA0 SHL SUB DUP3 AND SWAP1 DUP2 ISZERO PUSH2 0x12EF JUMPI PUSH2 0x13F5 PUSH2 0x15A3 JUMP JUMPDEST PUSH1 0x0 SWAP3 DUP3 DUP5 MSTORE DUP4 PUSH1 0x20 MSTORE PUSH1 0x40 DUP5 KECCAK256 SLOAD SWAP1 DUP3 DUP3 LT PUSH2 0x1450 JUMPI POP DUP2 PUSH32 0xDDF252AD1BE2C89B69C2B068FC378DAA952BA7F163C4A11628F55A4DF523B3EF SWAP3 PUSH1 0x20 SWAP3 DUP6 DUP8 MSTORE DUP7 DUP5 MSTORE SUB PUSH1 0x40 DUP7 KECCAK256 SSTORE DUP1 PUSH1 0x2 SLOAD SUB PUSH1 0x2 SSTORE PUSH1 0x40 MLOAD SWAP1 DUP2 MSTORE LOG3 JUMP JUMPDEST PUSH1 0x40 MLOAD PUSH4 0x391434E3 PUSH1 0xE2 SHL DUP2 MSTORE PUSH1 0x1 PUSH1 0x1 PUSH1 0xA0 SHL SUB SWAP2 SWAP1 SWAP2 AND PUSH1 0x4 DUP3 ADD MSTORE PUSH1 0x24 DUP2 ADD SWAP2 SWAP1 SWAP2 MSTORE PUSH1 0x44 DUP2 ADD DUP3 SWAP1 MSTORE PUSH1 0x64 SWAP1 REVERT JUMPDEST ISZERO PUSH2 0x1489 JUMPI JUMP JUMPDEST PUSH1 0x40 MLOAD PUSH3 0x461BCD PUSH1 0xE5 SHL DUP2 MSTORE PUSH1 0x20 PUSH1 0x4 DUP3 ADD MSTORE PUSH1 0x13 PUSH1 0x24 DUP3 ADD MSTORE PUSH19 0x25A0A49D1034B73B30B634B2103834B63630B9 PUSH1 0x69 SHL PUSH1 0x44 DUP3 ADD MSTORE PUSH1 0x64 SWAP1 REVERT JUMPDEST ISZERO PUSH2 0x14CB JUMPI JUMP JUMPDEST PUSH1 0x40 MLOAD PUSH3 0x461BCD PUSH1 0xE5 SHL DUP2 MSTORE PUSH1 0x20 PUSH1 0x4 DUP3 ADD MSTORE PUSH1 0x13 PUSH1 0x24 DUP3 ADD MSTORE PUSH19 0x4B41493A20616D6F756E74206973207A65726F PUSH1 0x68 SHL PUSH1 0x44 DUP3 ADD MSTORE PUSH1 0x64 SWAP1 REVERT JUMPDEST ISZERO PUSH2 0x150D JUMPI JUMP JUMPDEST PUSH1 0x40 MLOAD PUSH3 0x461BCD PUSH1 0xE5 SHL DUP2 MSTORE PUSH1 0x20 PUSH1 0x4 DUP3 ADD MSTORE PUSH1 0x19 PUSH1 0x24 DUP3 ADD MSTORE PUSH32 0x4B41493A20696E73756666696369656E742062616C616E636500000000000000 PUSH1 0x44 DUP3 ADD MSTORE PUSH1 0x64 SWAP1 REVERT JUMPDEST SWAP2 SWAP1 DUP3 ADD DUP1 SWAP3 GT PUSH2 0x155F JUMPI JUMP JUMPDEST PUSH4 0x4E487B71 PUSH1 0xE0 SHL PUSH1 0x0 MSTORE PUSH1 0x11 PUSH1 0x4 MSTORE PUSH1 0x24 PUSH1 0x0 REVERT JUMPDEST SWAP2 SWAP3 PUSH1 0x60 SWAP4 DUP2 SWAP3 DUP5 MSTORE PUSH1 0x40 PUSH1 0x20 DUP6 ADD MSTORE DUP2 PUSH1 0x40 DUP6 ADD MSTORE DUP5 DUP5 ADD CALLDATACOPY PUSH1 0x0 DUP3 DUP3 ADD DUP5 ADD MSTORE PUSH1 0x1F ADD PUSH1 0x1F NOT AND ADD ADD SWAP1 JUMP JUMPDEST PUSH1 0xFF PUSH1 0x5 SLOAD AND PUSH2 0x15AF JUMPI JUMP JUMPDEST PUSH1 0x40 MLOAD PUSH4 0xD93C0665 PUSH1 0xE0 SHL DUP2 MSTORE PUSH1 0x4 SWAP1 REVERT INVALID LOG2 PUSH5 0x6970667358 0x22 SLT KECCAK256 0xDD RETURNDATACOPY SSTORE 0xDD 0xB3 0x4A 0xCC DUP11 SELFBALANCE 0xE 0xEB DUP2 0xE6 DUP1 0xC9 SSTORE 0xB4 LOG4 0xB2 0x2F SWAP12 DUP1 0x5E 0xB4 0x4C 0xD7 SWAP10 0xDD CODECOPY 0x5E DIV PUSH7 0x64736F6C634300 ADDMOD EQ STOP CALLER 0x2F DUP8 DUP9 GT PUSH31 0x7EFF1D82E926EC794901D17C78024A50270940304540A733656F0D00000000 "},"methodIdentifiers":{"BURNER_ROLE()":"282c51f3","DEFAULT_ADMIN_ROLE()":"a217fddf","INITIAL_MINT()":"ca7df92c","MAX_SUPPLY()":"32cb6b0c","MINTER_ROLE()":"d5391393","ORACLE_ROLE()":"07e2cea5","PAUSER_ROLE()":"e63ab1e9","allowance(address,address)":"dd62ed3e","approve(address,uint256)":"095ea7b3","balanceOf(address)":"70a08231","burn(uint256)":"42966c68","burnForPillar(address,uint256,uint8,string)":"78e8e7ea","burnFrom(address,uint256)":"79cc6790","burnedByAddress(address)":"e55c07c5","circulatingSupply()":"9358928b","decimals()":"313ce567","directBurn(uint256,uint8,string)":"16ff1ff7","getBurnStats()":"2f37ea7a","getRoleAdmin(bytes32)":"248a9ca3","grantRole(bytes32,address)":"2f2ff15d","hasRole(bytes32,address)":"91d14854","name()":"06fdde03","oracleMint(address,uint256,uint8)":"54156bd1","pause()":"8456cb59","paused()":"5c975abb","pillarBurnRates(uint8)":"573f78f3","renounceRole(bytes32,address)":"36568abe","revokeRole(bytes32,address)":"d547741f","supportsInterface(bytes4)":"01ffc9a7","symbol()":"95d89b41","totalBurned()":"d89135cd","totalSupply()":"18160ddd","transfer(address,uint256)":"a9059cbb","transferFrom(address,address,uint256)":"23b872dd","unpause()":"3f4ba83a","updatePillarBurnRate(uint8,uint16)":"03a54325"}}}}}