{
  "_format": "hh-sol-artifact-1",
  "contractName": "KaiGovernance",
  "sourceName": "contracts/governance/KaiGovernance.sol",
  "abi": [
    {
      "inputs": [
        {
          "internalType": "address",
          "name": "_kaiToken",
          "type": "address"
        },
        {
          "internalType": "address",
          "name": "admin",
          "type": "address"
        }
      ],
      "stateMutability": "nonpayable",
      "type": "constructor"
    },
    {
      "inputs": [],
      "name": "AccessControlBadConfirmation",
      "type": "error"
    },
    {
      "inputs": [
        {
          "internalType": "address",
          "name": "account",
          "type": "address"
        },
        {
          "internalType": "bytes32",
          "name": "neededRole",
          "type": "bytes32"
        }
      ],
      "name": "AccessControlUnauthorizedAccount",
      "type": "error"
    },
    {
      "inputs": [],
      "name": "EnforcedPause",
      "type": "error"
    },
    {
      "inputs": [],
      "name": "ExpectedPause",
      "type": "error"
    },
    {
      "inputs": [],
      "name": "ReentrancyGuardReentrantCall",
      "type": "error"
    },
    {
      "anonymous": false,
      "inputs": [
        {
          "indexed": true,
          "internalType": "uint256",
          "name": "councilId",
          "type": "uint256"
        },
        {
          "indexed": false,
          "internalType": "string",
          "name": "name",
          "type": "string"
        },
        {
          "indexed": false,
          "internalType": "string",
          "name": "pillar",
          "type": "string"
        }
      ],
      "name": "CouncilCreated",
      "type": "event"
    },
    {
      "anonymous": false,
      "inputs": [
        {
          "indexed": true,
          "internalType": "address",
          "name": "delegator",
          "type": "address"
        },
        {
          "indexed": true,
          "internalType": "address",
          "name": "delegatee",
          "type": "address"
        }
      ],
      "name": "Delegated",
      "type": "event"
    },
    {
      "anonymous": false,
      "inputs": [
        {
          "indexed": false,
          "internalType": "address",
          "name": "account",
          "type": "address"
        }
      ],
      "name": "Paused",
      "type": "event"
    },
    {
      "anonymous": false,
      "inputs": [
        {
          "indexed": true,
          "internalType": "uint256",
          "name": "proposalId",
          "type": "uint256"
        },
        {
          "indexed": false,
          "internalType": "string",
          "name": "reason",
          "type": "string"
        }
      ],
      "name": "ProposalCancelled",
      "type": "event"
    },
    {
      "anonymous": false,
      "inputs": [
        {
          "indexed": true,
          "internalType": "uint256",
          "name": "proposalId",
          "type": "uint256"
        },
        {
          "indexed": true,
          "internalType": "address",
          "name": "proposer",
          "type": "address"
        },
        {
          "indexed": false,
          "internalType": "string",
          "name": "title",
          "type": "string"
        },
        {
          "indexed": false,
          "internalType": "enum KaiGovernance.ProposalType",
          "name": "proposalType",
          "type": "uint8"
        }
      ],
      "name": "ProposalCreated",
      "type": "event"
    },
    {
      "anonymous": false,
      "inputs": [
        {
          "indexed": true,
          "internalType": "uint256",
          "name": "proposalId",
          "type": "uint256"
        }
      ],
      "name": "ProposalExecuted",
      "type": "event"
    },
    {
      "anonymous": false,
      "inputs": [
        {
          "indexed": true,
          "internalType": "uint256",
          "name": "proposalId",
          "type": "uint256"
        },
        {
          "indexed": false,
          "internalType": "enum KaiGovernance.ProposalStatus",
          "name": "status",
          "type": "uint8"
        }
      ],
      "name": "ProposalStatusChanged",
      "type": "event"
    },
    {
      "anonymous": false,
      "inputs": [
        {
          "indexed": true,
          "internalType": "bytes32",
          "name": "role",
          "type": "bytes32"
        },
        {
          "indexed": true,
          "internalType": "bytes32",
          "name": "previousAdminRole",
          "type": "bytes32"
        },
        {
          "indexed": true,
          "internalType": "bytes32",
          "name": "newAdminRole",
          "type": "bytes32"
        }
      ],
      "name": "RoleAdminChanged",
      "type": "event"
    },
    {
      "anonymous": false,
      "inputs": [
        {
          "indexed": true,
          "internalType": "bytes32",
          "name": "role",
          "type": "bytes32"
        },
        {
          "indexed": true,
          "internalType": "address",
          "name": "account",
          "type": "address"
        },
        {
          "indexed": true,
          "internalType": "address",
          "name": "sender",
          "type": "address"
        }
      ],
      "name": "RoleGranted",
      "type": "event"
    },
    {
      "anonymous": false,
      "inputs": [
        {
          "indexed": true,
          "internalType": "bytes32",
          "name": "role",
          "type": "bytes32"
        },
        {
          "indexed": true,
          "internalType": "address",
          "name": "account",
          "type": "address"
        },
        {
          "indexed": true,
          "internalType": "address",
          "name": "sender",
          "type": "address"
        }
      ],
      "name": "RoleRevoked",
      "type": "event"
    },
    {
      "anonymous": false,
      "inputs": [
        {
          "indexed": true,
          "internalType": "address",
          "name": "staker",
          "type": "address"
        },
        {
          "indexed": false,
          "internalType": "uint256",
          "name": "amount",
          "type": "uint256"
        }
      ],
      "name": "TokensStaked",
      "type": "event"
    },
    {
      "anonymous": false,
      "inputs": [
        {
          "indexed": true,
          "internalType": "address",
          "name": "staker",
          "type": "address"
        },
        {
          "indexed": false,
          "internalType": "uint256",
          "name": "amount",
          "type": "uint256"
        }
      ],
      "name": "TokensUnstaked",
      "type": "event"
    },
    {
      "anonymous": false,
      "inputs": [
        {
          "indexed": true,
          "internalType": "address",
          "name": "from",
          "type": "address"
        },
        {
          "indexed": false,
          "internalType": "uint256",
          "name": "amount",
          "type": "uint256"
        }
      ],
      "name": "TreasuryDeposit",
      "type": "event"
    },
    {
      "anonymous": false,
      "inputs": [
        {
          "indexed": true,
          "internalType": "address",
          "name": "to",
          "type": "address"
        },
        {
          "indexed": false,
          "internalType": "uint256",
          "name": "amount",
          "type": "uint256"
        },
        {
          "indexed": false,
          "internalType": "uint256",
          "name": "proposalId",
          "type": "uint256"
        }
      ],
      "name": "TreasuryWithdrawal",
      "type": "event"
    },
    {
      "anonymous": false,
      "inputs": [
        {
          "indexed": false,
          "internalType": "address",
          "name": "account",
          "type": "address"
        }
      ],
      "name": "Unpaused",
      "type": "event"
    },
    {
      "anonymous": false,
      "inputs": [
        {
          "indexed": true,
          "internalType": "uint256",
          "name": "proposalId",
          "type": "uint256"
        },
        {
          "indexed": true,
          "internalType": "address",
          "name": "voter",
          "type": "address"
        },
        {
          "indexed": false,
          "internalType": "enum KaiGovernance.VoteChoice",
          "name": "choice",
          "type": "uint8"
        },
        {
          "indexed": false,
          "internalType": "uint256",
          "name": "votePower",
          "type": "uint256"
        }
      ],
      "name": "Voted",
      "type": "event"
    },
    {
      "inputs": [],
      "name": "DEFAULT_ADMIN_ROLE",
      "outputs": [
        {
          "internalType": "bytes32",
          "name": "",
          "type": "bytes32"
        }
      ],
      "stateMutability": "view",
      "type": "function"
    },
    {
      "inputs": [],
      "name": "EXECUTOR_ROLE",
      "outputs": [
        {
          "internalType": "bytes32",
          "name": "",
          "type": "bytes32"
        }
      ],
      "stateMutability": "view",
      "type": "function"
    },
    {
      "inputs": [],
      "name": "GUARDIAN_ROLE",
      "outputs": [
        {
          "internalType": "bytes32",
          "name": "",
          "type": "bytes32"
        }
      ],
      "stateMutability": "view",
      "type": "function"
    },
    {
      "inputs": [],
      "name": "approvalThreshold",
      "outputs": [
        {
          "internalType": "uint256",
          "name": "",
          "type": "uint256"
        }
      ],
      "stateMutability": "view",
      "type": "function"
    },
    {
      "inputs": [
        {
          "internalType": "uint256",
          "name": "votes",
          "type": "uint256"
        }
      ],
      "name": "calculateQuadraticCost",
      "outputs": [
        {
          "internalType": "uint256",
          "name": "",
          "type": "uint256"
        }
      ],
      "stateMutability": "pure",
      "type": "function"
    },
    {
      "inputs": [
        {
          "internalType": "uint256",
          "name": "proposalId",
          "type": "uint256"
        },
        {
          "internalType": "string",
          "name": "reason",
          "type": "string"
        }
      ],
      "name": "cancelProposal",
      "outputs": [],
      "stateMutability": "nonpayable",
      "type": "function"
    },
    {
      "inputs": [],
      "name": "councilCount",
      "outputs": [
        {
          "internalType": "uint256",
          "name": "",
          "type": "uint256"
        }
      ],
      "stateMutability": "view",
      "type": "function"
    },
    {
      "inputs": [
        {
          "internalType": "uint256",
          "name": "",
          "type": "uint256"
        }
      ],
      "name": "councils",
      "outputs": [
        {
          "internalType": "string",
          "name": "name",
          "type": "string"
        },
        {
          "internalType": "string",
          "name": "pillar",
          "type": "string"
        },
        {
          "internalType": "uint256",
          "name": "createdAt",
          "type": "uint256"
        },
        {
          "internalType": "bool",
          "name": "active",
          "type": "bool"
        }
      ],
      "stateMutability": "view",
      "type": "function"
    },
    {
      "inputs": [
        {
          "internalType": "string",
          "name": "name",
          "type": "string"
        },
        {
          "internalType": "string",
          "name": "pillar",
          "type": "string"
        },
        {
          "internalType": "address[]",
          "name": "members",
          "type": "address[]"
        }
      ],
      "name": "createCouncil",
      "outputs": [
        {
          "internalType": "uint256",
          "name": "",
          "type": "uint256"
        }
      ],
      "stateMutability": "nonpayable",
      "type": "function"
    },
    {
      "inputs": [
        {
          "internalType": "string",
          "name": "title",
          "type": "string"
        },
        {
          "internalType": "string",
          "name": "description",
          "type": "string"
        },
        {
          "internalType": "bytes32",
          "name": "documentHash",
          "type": "bytes32"
        },
        {
          "internalType": "enum KaiGovernance.ProposalType",
          "name": "proposalType",
          "type": "uint8"
        },
        {
          "internalType": "uint256",
          "name": "fundingAmount",
          "type": "uint256"
        },
        {
          "internalType": "address",
          "name": "fundingRecipient",
          "type": "address"
        }
      ],
      "name": "createProposal",
      "outputs": [
        {
          "internalType": "uint256",
          "name": "",
          "type": "uint256"
        }
      ],
      "stateMutability": "nonpayable",
      "type": "function"
    },
    {
      "inputs": [
        {
          "internalType": "address",
          "name": "delegatee",
          "type": "address"
        }
      ],
      "name": "delegate",
      "outputs": [],
      "stateMutability": "nonpayable",
      "type": "function"
    },
    {
      "inputs": [
        {
          "internalType": "address",
          "name": "",
          "type": "address"
        }
      ],
      "name": "delegatedPower",
      "outputs": [
        {
          "internalType": "uint256",
          "name": "",
          "type": "uint256"
        }
      ],
      "stateMutability": "view",
      "type": "function"
    },
    {
      "inputs": [
        {
          "internalType": "address",
          "name": "",
          "type": "address"
        }
      ],
      "name": "delegates",
      "outputs": [
        {
          "internalType": "address",
          "name": "",
          "type": "address"
        }
      ],
      "stateMutability": "view",
      "type": "function"
    },
    {
      "inputs": [
        {
          "internalType": "uint256",
          "name": "amount",
          "type": "uint256"
        }
      ],
      "name": "depositToTreasury",
      "outputs": [],
      "stateMutability": "nonpayable",
      "type": "function"
    },
    {
      "inputs": [],
      "name": "discussionPeriod",
      "outputs": [
        {
          "internalType": "uint256",
          "name": "",
          "type": "uint256"
        }
      ],
      "stateMutability": "view",
      "type": "function"
    },
    {
      "inputs": [
        {
          "internalType": "uint256",
          "name": "proposalId",
          "type": "uint256"
        }
      ],
      "name": "executeProposal",
      "outputs": [],
      "stateMutability": "nonpayable",
      "type": "function"
    },
    {
      "inputs": [
        {
          "internalType": "uint256",
          "name": "proposalId",
          "type": "uint256"
        }
      ],
      "name": "finalizeProposal",
      "outputs": [],
      "stateMutability": "nonpayable",
      "type": "function"
    },
    {
      "inputs": [
        {
          "internalType": "uint256",
          "name": "councilId",
          "type": "uint256"
        }
      ],
      "name": "getCouncil",
      "outputs": [
        {
          "components": [
            {
              "internalType": "string",
              "name": "name",
              "type": "string"
            },
            {
              "internalType": "string",
              "name": "pillar",
              "type": "string"
            },
            {
              "internalType": "address[]",
              "name": "members",
              "type": "address[]"
            },
            {
              "internalType": "uint256",
              "name": "createdAt",
              "type": "uint256"
            },
            {
              "internalType": "bool",
              "name": "active",
              "type": "bool"
            }
          ],
          "internalType": "struct KaiGovernance.Council",
          "name": "",
          "type": "tuple"
        }
      ],
      "stateMutability": "view",
      "type": "function"
    },
    {
      "inputs": [
        {
          "internalType": "uint256",
          "name": "proposalId",
          "type": "uint256"
        }
      ],
      "name": "getProposal",
      "outputs": [
        {
          "components": [
            {
              "internalType": "uint256",
              "name": "id",
              "type": "uint256"
            },
            {
              "internalType": "address",
              "name": "proposer",
              "type": "address"
            },
            {
              "internalType": "string",
              "name": "title",
              "type": "string"
            },
            {
              "internalType": "string",
              "name": "description",
              "type": "string"
            },
            {
              "internalType": "bytes32",
              "name": "documentHash",
              "type": "bytes32"
            },
            {
              "internalType": "enum KaiGovernance.ProposalType",
              "name": "proposalType",
              "type": "uint8"
            },
            {
              "internalType": "uint256",
              "name": "fundingAmount",
              "type": "uint256"
            },
            {
              "internalType": "address",
              "name": "fundingRecipient",
              "type": "address"
            },
            {
              "internalType": "uint256",
              "name": "createdAt",
              "type": "uint256"
            },
            {
              "internalType": "uint256",
              "name": "discussionEndsAt",
              "type": "uint256"
            },
            {
              "internalType": "uint256",
              "name": "votingEndsAt",
              "type": "uint256"
            },
            {
              "internalType": "uint256",
              "name": "executionTime",
              "type": "uint256"
            },
            {
              "internalType": "enum KaiGovernance.ProposalStatus",
              "name": "status",
              "type": "uint8"
            },
            {
              "internalType": "uint256",
              "name": "forVotes",
              "type": "uint256"
            },
            {
              "internalType": "uint256",
              "name": "againstVotes",
              "type": "uint256"
            },
            {
              "internalType": "uint256",
              "name": "abstainVotes",
              "type": "uint256"
            },
            {
              "internalType": "bool",
              "name": "executed",
              "type": "bool"
            }
          ],
          "internalType": "struct KaiGovernance.Proposal",
          "name": "",
          "type": "tuple"
        }
      ],
      "stateMutability": "view",
      "type": "function"
    },
    {
      "inputs": [
        {
          "internalType": "uint256",
          "name": "proposalId",
          "type": "uint256"
        }
      ],
      "name": "getProposalVoters",
      "outputs": [
        {
          "internalType": "address[]",
          "name": "",
          "type": "address[]"
        }
      ],
      "stateMutability": "view",
      "type": "function"
    },
    {
      "inputs": [
        {
          "internalType": "bytes32",
          "name": "role",
          "type": "bytes32"
        }
      ],
      "name": "getRoleAdmin",
      "outputs": [
        {
          "internalType": "bytes32",
          "name": "",
          "type": "bytes32"
        }
      ],
      "stateMutability": "view",
      "type": "function"
    },
    {
      "inputs": [
        {
          "internalType": "address",
          "name": "account",
          "type": "address"
        }
      ],
      "name": "getStakedBalance",
      "outputs": [
        {
          "internalType": "uint256",
          "name": "",
          "type": "uint256"
        }
      ],
      "stateMutability": "view",
      "type": "function"
    },
    {
      "inputs": [
        {
          "internalType": "uint256",
          "name": "proposalId",
          "type": "uint256"
        },
        {
          "internalType": "address",
          "name": "voter",
          "type": "address"
        }
      ],
      "name": "getVote",
      "outputs": [
        {
          "components": [
            {
              "internalType": "address",
              "name": "voter",
              "type": "address"
            },
            {
              "internalType": "uint256",
              "name": "proposalId",
              "type": "uint256"
            },
            {
              "internalType": "uint256",
              "name": "votePower",
              "type": "uint256"
            },
            {
              "internalType": "enum KaiGovernance.VoteChoice",
              "name": "choice",
              "type": "uint8"
            },
            {
              "internalType": "uint256",
              "name": "timestamp",
              "type": "uint256"
            }
          ],
          "internalType": "struct KaiGovernance.Vote",
          "name": "",
          "type": "tuple"
        }
      ],
      "stateMutability": "view",
      "type": "function"
    },
    {
      "inputs": [
        {
          "internalType": "address",
          "name": "account",
          "type": "address"
        }
      ],
      "name": "getVotingPower",
      "outputs": [
        {
          "internalType": "uint256",
          "name": "",
          "type": "uint256"
        }
      ],
      "stateMutability": "view",
      "type": "function"
    },
    {
      "inputs": [
        {
          "internalType": "bytes32",
          "name": "role",
          "type": "bytes32"
        },
        {
          "internalType": "address",
          "name": "account",
          "type": "address"
        }
      ],
      "name": "grantRole",
      "outputs": [],
      "stateMutability": "nonpayable",
      "type": "function"
    },
    {
      "inputs": [
        {
          "internalType": "bytes32",
          "name": "role",
          "type": "bytes32"
        },
        {
          "internalType": "address",
          "name": "account",
          "type": "address"
        }
      ],
      "name": "hasRole",
      "outputs": [
        {
          "internalType": "bool",
          "name": "",
          "type": "bool"
        }
      ],
      "stateMutability": "view",
      "type": "function"
    },
    {
      "inputs": [],
      "name": "kaiToken",
      "outputs": [
        {
          "internalType": "contract KAIToken",
          "name": "",
          "type": "address"
        }
      ],
      "stateMutability": "view",
      "type": "function"
    },
    {
      "inputs": [],
      "name": "pause",
      "outputs": [],
      "stateMutability": "nonpayable",
      "type": "function"
    },
    {
      "inputs": [],
      "name": "paused",
      "outputs": [
        {
          "internalType": "bool",
          "name": "",
          "type": "bool"
        }
      ],
      "stateMutability": "view",
      "type": "function"
    },
    {
      "inputs": [],
      "name": "proposalCount",
      "outputs": [
        {
          "internalType": "uint256",
          "name": "",
          "type": "uint256"
        }
      ],
      "stateMutability": "view",
      "type": "function"
    },
    {
      "inputs": [],
      "name": "proposalDeposit",
      "outputs": [
        {
          "internalType": "uint256",
          "name": "",
          "type": "uint256"
        }
      ],
      "stateMutability": "view",
      "type": "function"
    },
    {
      "inputs": [
        {
          "internalType": "uint256",
          "name": "",
          "type": "uint256"
        },
        {
          "internalType": "uint256",
          "name": "",
          "type": "uint256"
        }
      ],
      "name": "proposalVoters",
      "outputs": [
        {
          "internalType": "address",
          "name": "",
          "type": "address"
        }
      ],
      "stateMutability": "view",
      "type": "function"
    },
    {
      "inputs": [
        {
          "internalType": "uint256",
          "name": "",
          "type": "uint256"
        },
        {
          "internalType": "address",
          "name": "",
          "type": "address"
        }
      ],
      "name": "proposalVotes",
      "outputs": [
        {
          "internalType": "address",
          "name": "voter",
          "type": "address"
        },
        {
          "internalType": "uint256",
          "name": "proposalId",
          "type": "uint256"
        },
        {
          "internalType": "uint256",
          "name": "votePower",
          "type": "uint256"
        },
        {
          "internalType": "enum KaiGovernance.VoteChoice",
          "name": "choice",
          "type": "uint8"
        },
        {
          "internalType": "uint256",
          "name": "timestamp",
          "type": "uint256"
        }
      ],
      "stateMutability": "view",
      "type": "function"
    },
    {
      "inputs": [
        {
          "internalType": "uint256",
          "name": "",
          "type": "uint256"
        }
      ],
      "name": "proposals",
      "outputs": [
        {
          "internalType": "uint256",
          "name": "id",
          "type": "uint256"
        },
        {
          "internalType": "address",
          "name": "proposer",
          "type": "address"
        },
        {
          "internalType": "string",
          "name": "title",
          "type": "string"
        },
        {
          "internalType": "string",
          "name": "description",
          "type": "string"
        },
        {
          "internalType": "bytes32",
          "name": "documentHash",
          "type": "bytes32"
        },
        {
          "internalType": "enum KaiGovernance.ProposalType",
          "name": "proposalType",
          "type": "uint8"
        },
        {
          "internalType": "uint256",
          "name": "fundingAmount",
          "type": "uint256"
        },
        {
          "internalType": "address",
          "name": "fundingRecipient",
          "type": "address"
        },
        {
          "internalType": "uint256",
          "name": "createdAt",
          "type": "uint256"
        },
        {
          "internalType": "uint256",
          "name": "discussionEndsAt",
          "type": "uint256"
        },
        {
          "internalType": "uint256",
          "name": "votingEndsAt",
          "type": "uint256"
        },
        {
          "internalType": "uint256",
          "name": "executionTime",
          "type": "uint256"
        },
        {
          "internalType": "enum KaiGovernance.ProposalStatus",
          "name": "status",
          "type": "uint8"
        },
        {
          "internalType": "uint256",
          "name": "forVotes",
          "type": "uint256"
        },
        {
          "internalType": "uint256",
          "name": "againstVotes",
          "type": "uint256"
        },
        {
          "internalType": "uint256",
          "name": "abstainVotes",
          "type": "uint256"
        },
        {
          "internalType": "bool",
          "name": "executed",
          "type": "bool"
        }
      ],
      "stateMutability": "view",
      "type": "function"
    },
    {
      "inputs": [],
      "name": "quorumPercentage",
      "outputs": [
        {
          "internalType": "uint256",
          "name": "",
          "type": "uint256"
        }
      ],
      "stateMutability": "view",
      "type": "function"
    },
    {
      "inputs": [
        {
          "internalType": "bytes32",
          "name": "role",
          "type": "bytes32"
        },
        {
          "internalType": "address",
          "name": "callerConfirmation",
          "type": "address"
        }
      ],
      "name": "renounceRole",
      "outputs": [],
      "stateMutability": "nonpayable",
      "type": "function"
    },
    {
      "inputs": [
        {
          "internalType": "bytes32",
          "name": "role",
          "type": "bytes32"
        },
        {
          "internalType": "address",
          "name": "account",
          "type": "address"
        }
      ],
      "name": "revokeRole",
      "outputs": [],
      "stateMutability": "nonpayable",
      "type": "function"
    },
    {
      "inputs": [
        {
          "internalType": "uint256",
          "name": "threshold",
          "type": "uint256"
        }
      ],
      "name": "setApprovalThreshold",
      "outputs": [],
      "stateMutability": "nonpayable",
      "type": "function"
    },
    {
      "inputs": [
        {
          "internalType": "uint256",
          "name": "period",
          "type": "uint256"
        }
      ],
      "name": "setDiscussionPeriod",
      "outputs": [],
      "stateMutability": "nonpayable",
      "type": "function"
    },
    {
      "inputs": [
        {
          "internalType": "uint256",
          "name": "amount",
          "type": "uint256"
        }
      ],
      "name": "setProposalDeposit",
      "outputs": [],
      "stateMutability": "nonpayable",
      "type": "function"
    },
    {
      "inputs": [
        {
          "internalType": "uint256",
          "name": "percentage",
          "type": "uint256"
        }
      ],
      "name": "setQuorum",
      "outputs": [],
      "stateMutability": "nonpayable",
      "type": "function"
    },
    {
      "inputs": [
        {
          "internalType": "uint256",
          "name": "delay",
          "type": "uint256"
        }
      ],
      "name": "setTimelockDelay",
      "outputs": [],
      "stateMutability": "nonpayable",
      "type": "function"
    },
    {
      "inputs": [
        {
          "internalType": "uint256",
          "name": "period",
          "type": "uint256"
        }
      ],
      "name": "setVotingPeriod",
      "outputs": [],
      "stateMutability": "nonpayable",
      "type": "function"
    },
    {
      "inputs": [
        {
          "internalType": "uint256",
          "name": "amount",
          "type": "uint256"
        }
      ],
      "name": "stake",
      "outputs": [],
      "stateMutability": "nonpayable",
      "type": "function"
    },
    {
      "inputs": [
        {
          "internalType": "address",
          "name": "",
          "type": "address"
        }
      ],
      "name": "stakedForVoting",
      "outputs": [
        {
          "internalType": "uint256",
          "name": "",
          "type": "uint256"
        }
      ],
      "stateMutability": "view",
      "type": "function"
    },
    {
      "inputs": [
        {
          "internalType": "uint256",
          "name": "proposalId",
          "type": "uint256"
        }
      ],
      "name": "startVoting",
      "outputs": [],
      "stateMutability": "nonpayable",
      "type": "function"
    },
    {
      "inputs": [
        {
          "internalType": "bytes4",
          "name": "interfaceId",
          "type": "bytes4"
        }
      ],
      "name": "supportsInterface",
      "outputs": [
        {
          "internalType": "bool",
          "name": "",
          "type": "bool"
        }
      ],
      "stateMutability": "view",
      "type": "function"
    },
    {
      "inputs": [],
      "name": "timelockDelay",
      "outputs": [
        {
          "internalType": "uint256",
          "name": "",
          "type": "uint256"
        }
      ],
      "stateMutability": "view",
      "type": "function"
    },
    {
      "inputs": [],
      "name": "treasuryBalance",
      "outputs": [
        {
          "internalType": "uint256",
          "name": "",
          "type": "uint256"
        }
      ],
      "stateMutability": "view",
      "type": "function"
    },
    {
      "inputs": [],
      "name": "unpause",
      "outputs": [],
      "stateMutability": "nonpayable",
      "type": "function"
    },
    {
      "inputs": [
        {
          "internalType": "uint256",
          "name": "amount",
          "type": "uint256"
        }
      ],
      "name": "unstake",
      "outputs": [],
      "stateMutability": "nonpayable",
      "type": "function"
    },
    {
      "inputs": [
        {
          "internalType": "uint256",
          "name": "proposalId",
          "type": "uint256"
        },
        {
          "internalType": "enum KaiGovernance.VoteChoice",
          "name": "choice",
          "type": "uint8"
        },
        {
          "internalType": "uint256",
          "name": "voteCount",
          "type": "uint256"
        }
      ],
      "name": "vote",
      "outputs": [],
      "stateMutability": "nonpayable",
      "type": "function"
    },
    {
      "inputs": [],
      "name": "votingPeriod",
      "outputs": [
        {
          "internalType": "uint256",
          "name": "",
          "type": "uint256"
        }
      ],
      "stateMutability": "view",
      "type": "function"
    }
  ],
  "bytecode": "0x60a0346200017a57601f620037d538819003918201601f19168301916001600160401b038311848410176200017f5780849260409485528339810103126200017a576200005a6020620000528362000195565b920162000195565b6001805569021e19e0c9bab24000006003556206978060045562093a806005556202a300600655600a600755603c6008556001600160a01b0391821691821562000145578116156200011057620000cc91608052620000b981620001aa565b50620000c5816200022a565b50620002cc565b5060405161344b90816200036a82396080518181816109a70152818161130b015281816114c30152818161170801528181612030015281816125e101526128bd0152f35b60405162461bcd60e51b815260206004820152600d60248201526c24b73b30b634b21030b236b4b760991b6044820152606490fd5b60405162461bcd60e51b815260206004820152600d60248201526c24b73b30b634b2103a37b5b2b760991b6044820152606490fd5b600080fd5b634e487b7160e01b600052604160045260246000fd5b51906001600160a01b03821682036200017a57565b6001600160a01b031660008181527fad3228b676f7d3cd4284a5443f17f1962b36e491b30a40b2405849e597ba5fb5602052604081205490919060ff166200022657818052816020526040822081835260205260408220600160ff198254161790553391600080516020620037b58339815191528180a4600190565b5090565b6001600160a01b031660008181527fdae2aa361dfd1ca020a396615627d436107c35eff9fe7738a3512819782d706960205260408120549091907fd8aa0f3194971a2a116679f7c2090f6939c8d4e01a2a8d7e41d55e5351469e639060ff16620002c757808352826020526040832082845260205260408320600160ff19825416179055600080516020620037b5833981519152339380a4600190565b505090565b6001600160a01b031660008181527f8a40f0b47fdc2a0ce293b772acfc7508c8315a4d462786c1adc3a56f92ca2d0560205260408120549091907f55435dd261a4b9b3364963f7738a7a662ad9c84396d64be3365284bb7f0a50419060ff16620002c757808352826020526040832082845260205260408320600160ff19825416179055600080516020620037b5833981519152339380a460019056fe610100604052600436101561001357600080fd5b6000803560e01c8063013cf08b14612afc57806301ffc9a714612aa557806302a251a314612a8757806307bd026514612a4c5780630d61b51914612725578063169df064146126ec578063248a9ca3146126c057806324ea54f4146126855780632e17de78146125625780632f2ff15d14612525578063310f2ec714612507578063313dab20146124e9578063340ad3b6146124cb57806336568abe146124835780633a02a42d1461189a5780633d2f5bda146123875780633f4ba83a1461231c5780634fa76ec9146122fe5780635652077c14611fa9578063587cde1e14611f6d5780635c19a95c14611e235780635c975abb14611e005780636c7cc017146119155780636d9b06e8146118f257806374dd0fea146118d35780637a4ebfdf1461189a5780637d0eef611461187c5780638456cb59146118215780638b15a605146118035780638e1f6a2c1461178257806391d14854146117375780639bcfdfc0146116f2578063a0016b8c1461168e578063a217fddf14611672578063a351f615146113f3578063a68f34f7146113b0578063a694fc3a146112a8578063aa74da9a146111a9578063ab89437c14611156578063af267f8f14611133578063bb4d443614611107578063bc3f931f1461102a578063bf7dbf0c14610a5c578063c0e58a0e1461094e578063c1ba4e59146108e9578063c5d81ab41461086c578063c610802114610849578063c7f758a8146105a0578063d547741f1461055f578063da35c66414610541578063e520251a146102a8578063ea0217cf146102855763eef09bad1461026557600080fd5b346102825780600319360112610282576020600654604051908152f35b80fd5b50346102825760203660031901126102825761029f613261565b60043560045580f35b50346102825760603660031901126102825760248035600435600382101561053d576044356102d56132c1565b6102dd6133d7565b8185526020600981526040862060ff600c8201541695600887101561052b576103096001809814612ffc565b600a8201544210156104f957848852600a8352604080892033600090815290855220546001600160a01b03919082166104c657610358610348866130d8565b61035133613159565b10156131ad565b60405161036481612cd1565b338152898582018881526040830188815260608401916103848c846131a1565b604060808601944286528c8152600a8b52203360005289528660406000209551166001600160601b0360a01b865416178555518c85015551600284015560038301905160038110156104b357906004929160ff8019835416911617905551910155858952600b845260408920805491600160401b8310156104a157509061040f918982018155612ecb565b819291549060031b9133831b921b1916179055841560001461047757600d01610439838254612fb1565b90555b6104496040518095612e81565b8301527f2635c84c3a8027a303ca6d6e90b1c4a9604754040372414d244aadfa6471751860403393a3805580f35b84860361049357600e0161048c838254612fb1565b905561043c565b600f0161048c838254612fb1565b634e487b7160e01b8b5260416004528afd5b634e487b7160e01b8d526021600452848dfd5b83600d6064926040519262461bcd60e51b845260048401528201526c105b1c9958591e481d9bdd1959609a1b6044820152fd5b82600c6064926040519262461bcd60e51b845260048401528201526b159bdd1a5b99c8195b99195960a21b6044820152fd5b634e487b7160e01b8852602160045287fd5b8380fd5b50346102825780600319360112610282576020600e54604051908152f35b50346102825760403660031901126102825761059c60043561057f612e3e565b9080845283602052610597600160408620015461329b565b613362565b5080f35b5034610282576020366003190112610282578060409161020083516105c481612cec565b8281528260208201526060858201526060808201528260808201528260a08201528260c08201528260e08201528261010082015282610120820152826101408201528261016082015282610180820152826101a0820152826101c0820152826101e0820152015260043581526009602052206040519061064382612cec565b8054825260018101546001600160a01b0316602083015261066660028201612d29565b604083015261067760038201612d29565b60608301526004810154608083015261069a60ff60058301541660a084016131f9565b600681015460c083015260078101546001600160a01b031660e08301526008808201546101008401526009820154610120840152600a820154610140840152600b820154610160840152600c82015460ff16908110156108335760ff91601091610180850152600d8101546101a0850152600e8101546101c0850152600f8101546101e085015201541615156102008201526040518091602082528051602083015260018060a01b03602082015116604083015261020061078561076f60408401516102206060870152610240860190612dce565b6060840151858203601f19016080870152612dce565b91608081015160a08501526107a260a082015160c0860190612e0e565b60c081015160e085015260018060a01b0360e0820151166101008501526101008101516101208501526101208101516101408501526101408101516101608501526101608101516101808501526108036101808201516101a0860190612e1b565b6101a08101516101c08501526101c08101516101e08501526101e081015182850152015115156102208301520390f35b634e487b7160e01b600052602160045260246000fd5b503461028257602036600319011261028257610863613261565b60043560055580f35b50346102825760203660031901126102825760406108ca916004358152600d6020522061089881612d29565b906108a560018201612d29565b6108d860ff600460038501549401541691604051958695608087526080870190612dce565b908582036020870152612dce565b916040840152151560608301520390f35b503461028257602036600319011261028257600435610906613261565b606481116109145760075580f35b60405162461bcd60e51b8152602060048201526012602482015271496e76616c69642070657263656e7461676560701b6044820152606490fd5b50346102825760203660031901126102825760043561096b6132c1565b610976811515612fbe565b6040516323b872dd60e01b815233600482015230602482015260448101829052602081606481866001600160a01b037f0000000000000000000000000000000000000000000000000000000000000000165af18015610a51576109e0918491610a22575b50612f73565b6109ec81601054612fb1565b6010556040519081527fe3407208b14fa025330ca187030f118a1c0cdb604aba93ba45c862e6095aee2760203392a26001805580f35b610a44915060203d602011610a4a575b610a3c8183612d08565b810190612f5b565b386109da565b503d610a32565b6040513d85823e3d90fd5b50346102825760c0366003190112610282576004356001600160401b03811161102257610a8d903690600401612e54565b6024929192356001600160401b03811161102657610aaf903690600401612e54565b600560649492943510156110225760a435936001600160a01b038516850361101d57610ad96132c1565b610ae16133d7565b8315610fe757610af033613159565b610aff600354809210156131ad565b338452600c602052604084205410610fa257610b1c600e5461304b565b9485600e5560055490610b76610b48610b3f610b388542612fb1565b9442612fb1565b60045490612fb1565b9360405195610b5687612cec565b898752336020880152610b6a368a8d61305a565b6040880152369161305a565b60608501526044356080850152610b9260643560a086016131f9565b60843560c085015260018060a01b031660e0840152426101008401526101208301526101408201528161016082015281610180820152816101a0820152816101c0820152816101e08201528161020082015283825260096020526040822091815183556001830160018060a01b036020840151166001600160601b0360a01b82541617905560408201518051906001600160401b038211610ee1578190610c3c6002870154612c6e565b601f8111610f6f575b50602090601f8311600114610f00578492610ef5575b50508160011b916000199060031b1c19161760028401555b60608201518051906001600160401b038211610ee1578190610c986003870154612c6e565b601f8111610ea3575b50602090601f8311600114610e34578492610e29575b50508160011b916000199060031b1c19161760038401555b6080820151600484015560a0820151906005821015610e155760ff199160ff83600587015416911617600585015560c083015160068501556007840160018060a01b0360e0850151166001600160601b0360a01b82541617905561010083015160088501556101208301516009850155610140830151600a850155610160830151600b850155600c840191610180840151916008831015610e155750869460106102007fe0269f7953e70365e80e614e4efe7d4bede59b7f5ad80982ea4064c97ee6f4ef968660209c9660ff610de297610df49a541691161790556101a0810151600d8501556101c0810151600e8501556101e0810151600f8501550151151591019060ff801983541691151516179055565b604051946040865260408601916130b7565b92610e03868201606435612e0e565b8033940390a360018055604051908152f35b634e487b7160e01b81526021600452602490fd5b015190503880610cb7565b9250600386018452602084209084935b601f1984168510610e88576001945083601f19811610610e6f575b505050811b016003840155610ccf565b015160001960f88460031b161c19169055388080610e5f565b81810151835560209485019460019093019290910190610e44565b610ed19060038801865260208620601f850160051c81019160208610610ed7575b601f0160051c01906130a0565b38610ca1565b9091508190610ec4565b634e487b7160e01b83526041600452602483fd5b015190503880610c5b565b9250600286018452602084209084935b601f1984168510610f54576001945083601f19811610610f3b575b505050811b016002840155610c73565b015160001960f88460031b161c19169055388080610f2b565b81810151835560209485019460019093019290910190610f10565b610f9c9060028801865260208620601f850160051c81019160208610610ed757601f0160051c01906130a0565b38610c45565b60405162461bcd60e51b815260206004820152601e60248201527f496e73756666696369656e74207374616b6520666f72206465706f73697400006044820152606490fd5b60405162461bcd60e51b815260206004820152600e60248201526d151a5d1b19481c995c5d5a5c995960921b6044820152606490fd5b600080fd5b5080fd5b8280fd5b50346102825760403660031901126102825760a0906040611049612e3e565b91806080835161105881612cd1565b828152826020820152828582015282606082015201526004358152600a60205220600180841b038092166000526020526040600020906110ff6040519261109e84612cd1565b82815416845260018101546020850190815260028201549060408601918252600460ff600385015416936110d66060890195866131a1565b015494608087019586526040519651168652516020860152516040850152516060840190612e81565b516080820152f35b503461028257602036600319011261028257602061112b611126612e28565b613159565b604051908152f35b50346102825760203660031901126102825761114d613261565b60043560065580f35b503461028257604036600319011261028257602435906004358152600b602052604081209081548310156102825760206111908484612ecb565b905460405160039290921b1c6001600160a01b03168152f35b503461028257602080600319360112611022579060a09160408051926111ce84612cd1565b80608060609586815286868201528685820152828782015201526004358152600d835220906112956040519361120385612cd1565b61120c84612d29565b855261121a60018501612d29565b83860190815261122c600286016130ff565b916040870192835261128561126f60ff600460038a015499858c019a8b520154169660808a0197151588526040519a8b9a828c5251918b015260c08a0190612dce565b925192601f1993848a83030160408b0152612dce565b9251918784030190870152612e8e565b9151608084015251151560a08301520390f35b50346102825760208060031936011261102257600435906112c76132c1565b6112cf6133d7565b6112da821515612fbe565b6040516323b872dd60e01b815233600482015230602482015260448101839052908082606481876001600160a01b037f0000000000000000000000000000000000000000000000000000000000000000165af19182156113a5577fb539ca1e5c8d398ddf1c41c30166f33404941683be4683319b57669a93dad4ef9261136691869161138e5750612f73565b338452600c81526040842061137c848254612fb1565b90556040519283523392a26001805580f35b610a449150833d8511610a4a57610a3c8183612d08565b6040513d86823e3d90fd5b5034610282576020366003190112610282576113db60406113ef926004358152600b602052206130ff565b604051918291602083526020830190612e8e565b0390f35b503461028257604036600319011261028257600435602480356001600160401b03811161053d57611428903690600401612e54565b9190838552602091600983526040862060018060a01b0380600183015416918233148015611633575b156115fe57600c01805460ff811660088110156115eb578061147860046006931415612ef9565b146115b35760069060ff19161790556003546032810290808204603214901517156115a057889493929160646114ec9204928652600c8752604086206114bf848254612fb1565b90557f00000000000000000000000000000000000000000000000000000000000000001691600354612f38565b90803b1561158f57849283926040519687938492630852cd8d60e31b845260048401525af1928315611593578693611576575b50507fc7c129e53e59dadfa16305619e80c7519f1f6912c10915359fd75b56bcecdd7b906000805160206133f683398151915294611568604051928392878452878401916130b7565b0390a260405160068152a280f35b61158291929350612ca8565b61158f578390853861151f565b8480fd5b50604051903d90823e3d90fd5b634e487b7160e01b895260116004528389fd5b60405162461bcd60e51b81526004810188905260118187015270105b1c9958591e4818d85b98d95b1b1959607a1b6044820152606490fd5b634e487b7160e01b8b526021600452858bfd5b60405162461bcd60e51b815260048101879052600e818601526d139bdd08185d5d1a1bdc9a5e995960921b6044820152606490fd5b507f55435dd261a4b9b3364963f7738a7a662ad9c84396d64be3365284bb7f0a504189528886526040892033600052865260ff60406000205416611451565b5034610282578060031936011261028257602090604051908152f35b5034610282576020366003190112610282576004356116ab613261565b606481116116b95760085580f35b60405162461bcd60e51b8152602060048201526011602482015270125b9d985b1a59081d1a1c995cda1bdb19607a1b6044820152606490fd5b50346102825780600319360112610282576040517f00000000000000000000000000000000000000000000000000000000000000006001600160a01b03168152602090f35b5034610282576040366003190112610282576040611753612e3e565b91600435815280602052209060018060a01b0316600052602052602060ff604060002054166040519015158152f35b50346102825760403660031901126102825760a09060406117a1612e3e565b916004358152600a60205220600180841b03809216600052602052604060002090815416906117fc6001820154916002810154600460ff60038401541692015493604051958652602086015260408501526060840190612e81565b6080820152f35b50346102825780600319360112610282576020600354604051908152f35b503461028257806003193601126102825761183a613205565b6118426133d7565b600160ff1960025416176002557f62e78cea01bee320cd4e420270b5ea74000d11b0c9f74754ebdbfc544b05a2586020604051338152a180f35b50346102825780600319360112610282576020600854604051908152f35b5034610282576020366003190112610282576020906040906001600160a01b036118c2612e28565b168152600c83522054604051908152f35b503461028257602036600319011261028257602061112b6004356130d8565b50346102825760203660031901126102825761190c613261565b60043560035580f35b5034610282576060366003190112610282576004356001600160401b03811161102257611946903690600401612e54565b906024356001600160401b03811161053d57611966903690600401612e54565b9290604435936001600160401b038511611dfc5736602386011215611dfc578460040135946001600160401b038611611df8573660248760051b83010111611df8576119b0613261565b8315611dc3578515611d8b576119c7600f5461304b565b9586600f55604051916119d983612cd1565b6119e436878961305a565b83526119f136858761305a565b602084015260405191611a0a60208260051b0184612d08565b8083526020830160248301925b60248360051b8201018410611d645750505050604082015242606082015260016080820152858752600d602052604087209080518051906001600160401b038211611c09578190611a688554612c6e565b601f8111611d34575b50602090601f8311600114611cd0578b92611cc5575b50508160011b916000199060031b1c19161782555b60208101518051906001600160401b038211611c09578190611ac16001860154612c6e565b601f8111611c92575b50602090601f8311600114611c28578b92611c1d575b50508160011b916000199060031b1c19161760018301555b60408101518051906001600160401b038211611c0957600160401b8211611c09576020908a600286015484600288015584818110611beb575b50505001600284018a5260208a20995b828110611bce5750602089807f1c345760f79216d8ae8d24b381732e119bfb958da92cecb58ce8fe1df68a58b48b8b611bc38c8c611b9f8d600460808f606081015160038501550151151591019060ff801983541691151516179055565b611bb66040519586956040875260408701916130b7565b918483038a8601526130b7565b0390a2604051908152f35b81516001600160a01b0316818c0155602090910190600101611b41565b84611c019360028a0181522091820191016130a0565b8a3884611b31565b634e487b7160e01b8a52604160045260248afd5b015190503880611ae0565b600186018c5260208c209250601f1984168c5b818110611c7a5750908460019594939210611c61575b505050811b016001830155611af8565b015160001960f88460031b161c19169055388080611c51565b92936020600181928786015181550195019301611c3b565b611cbf90600187018d5260208d20601f850160051c81019160208610610ed757601f0160051c01906130a0565b38611aca565b015190503880611a87565b858c5260208c209250601f1984168c5b818110611d1c5750908460019594939210611d03575b505050811b018255611a9c565b015160001960f88460031b161c19169055388080611cf6565b92936020600181928786015181550195019301611ce0565b611d5e90868d5260208d20601f850160051c81019160208610610ed757601f0160051c01906130a0565b38611a71565b8335916001600160a01b038316830361101d57602081602494829352019401939150611a17565b60405162461bcd60e51b815260206004820152601060248201526f13595b58995c9cc81c995c5d5a5c995960821b6044820152606490fd5b60405162461bcd60e51b815260206004820152600d60248201526c13985b59481c995c5d5a5c9959609a1b6044820152606490fd5b8680fd5b8580fd5b5034610282578060031936011261028257602060ff600254166040519015158152f35b503461028257602080600319360112611022576001600160a01b039081611e48612e28565b16918215611f3457338314611ef8573384526011825260408420541680611ed1575b503383526011815260408320826001600160601b0360a01b825416179055600c8152601260408420549183855252611ea760408420918254612fb1565b9055337f4bc154dd35d6a5cb9206482ecb473cdbf2473006d6bce728b9cc0741bcc59ea28380a380f35b600c8252604084205490845260128252611ef060408520918254612f38565b905538611e6a565b60405162461bcd60e51b815260048101839052601460248201527343616e6e6f742073656c662d64656c656761746560601b6044820152606490fd5b60405162461bcd60e51b8152600481018390526011602482015270496e76616c69642064656c65676174656560781b6044820152606490fd5b5034610282576020366003190112610282576020906001600160a01b039060409082611f97612e28565b16815260118452205416604051908152f35b50346102825760208060031936011261102257600435908183526009815260408320600c810190815460ff811660088110156122ea576001611feb9114612ffc565b600a82015442106122b257600d820154600e8301549161201961200e8484612fb1565b600f86015490612fb1565b6040516318160ddd60e01b81526001600160a01b037f000000000000000000000000000000000000000000000000000000000000000081169590949092909189816004818a5afa9081156122a7578c91612276575b506040516370a0823160e01b81523060048201528a816024818b5afa90811561226b578d91612238575b506120ba6120b1606492670de0b6b3a764000094612f38565b60075490613038565b0404111591606482029180830460641481151715612224576120e8916120df91612fb1565b60085490613038565b108161221c575b501561213b575050506000805160206133f6833981519152929160ff9160038319835416178255600b61212460065442612fb1565b9101555b54166121376040518092612e1b565ba280f35b60059060ff9493941916178455600354605081029080820460501490151715612208579161218e91600160648a969504920154168452600c865260408420612184828254612fb1565b9055600354612f38565b90803b1561102657602483926040519485938492630852cd8d60e31b845260048401525af180156121fd576121d7575b509060ff6000805160206133f683398151915292612128565b6000805160206133f68339815191529291946121f460ff92612ca8565b949192506121be565b6040513d87823e3d90fd5b634e487b7160e01b88526011600452602488fd5b9050386120ef565b634e487b7160e01b8c52601160045260248cfd5b90508a81813d8311612264575b61224f8183612d08565b8101031261226057516120ba612098565b8c80fd5b503d612245565b6040513d8f823e3d90fd5b90508981813d83116122a0575b61228d8183612d08565b8101031261229c57513861206e565b8b80fd5b503d612283565b6040513d8e823e3d90fd5b60405162461bcd60e51b815260048101859052601060248201526f159bdd1a5b99c81b9bdd08195b99195960821b6044820152606490fd5b634e487b7160e01b87526021600452602487fd5b50346102825780600319360112610282576020600754604051908152f35b5034610282578060031936011261028257612335613205565b60025460ff8116156123755760ff19166002557f5db9ee0a495bf2e6ff9c91a7834c1ba4fdd244a5e8aa4e537bd38aeae4b073aa6020604051338152a180f35b604051638dfc202b60e01b8152600490fd5b503461028257602036600319011261028257600435808252600960205260408220600c81019081549060ff8216600881101561246f57612436576009015442106123f15760019060ff19161790556000805160206133f6833981519152602060405160018152a280f35b60405162461bcd60e51b815260206004820152601a60248201527f44697363757373696f6e20706572696f64206e6f74206f7665720000000000006044820152606490fd5b60405162461bcd60e51b81526020600482015260116024820152702737ba1034b7103234b9b1bab9b9b4b7b760791b6044820152606490fd5b634e487b7160e01b86526021600452602486fd5b50346102825760403660031901126102825761249d612e3e565b336001600160a01b038216036124b95761059c90600435613362565b60405163334bd91960e11b8152600490fd5b50346102825780600319360112610282576020600f54604051908152f35b50346102825780600319360112610282576020601054604051908152f35b50346102825780600319360112610282576020600554604051908152f35b50346102825760403660031901126102825761059c600435612545612e3e565b908084528360205261255d600160408620015461329b565b6132e4565b50346102825760208060031936011261102257600435906125816132c1565b61258c821515612fbe565b338352600c81528160408420541061264c57338352600c8152604083206125b4838254612f38565b905560405163a9059cbb60e01b815233600482015260248101839052908082604481876001600160a01b037f0000000000000000000000000000000000000000000000000000000000000000165af19182156113a5577f9845e367b683334e5c0b12d7b81721ac518e649376fa65e3d68324e8f34f26799261263c91869161138e5750612f73565b6040519283523392a26001805580f35b6064906040519062461bcd60e51b825260048201526012602482015271496e73756666696369656e74207374616b6560701b6044820152fd5b503461028257806003193601126102825760206040517f55435dd261a4b9b3364963f7738a7a662ad9c84396d64be3365284bb7f0a50418152f35b503461028257602036600319011261028257600160406020926004358152808452200154604051908152f35b5034610282576020366003190112610282576020906040906001600160a01b03612714612e28565b168152601283522054604051908152f35b50346102825760208060031936011261102257600435907fd8aa0f3194971a2a116679f7c2090f6939c8d4e01a2a8d7e41d55e5351469e6380845283825260408420338552825260ff60408520541615612a2e57506127826132c1565b818352600981526040832090600c8201805460ff811660088110156122ea576003036129fc57600b84015442106129c15760049060108501908154916127cb60ff841615612ef9565b600160ff198094161790551617905560ff60058301541660058110156129ad5715806129a0575b612864575b6003546001909201546001600160a01b03168452600c81526040842080546000805160206133f68339815191529361282e91612fb1565b9055604051837f712ae1383f79ac853f8d882153778e0260ef8f03b504e2866e0593e04d2b291f8680a260048152a26001805580f35b601054916006810192835490818110612963579061288191612f38565b601055600781018054845460405163a9059cbb60e01b81526001600160a01b03928316600482015260248101919091529194919084826044818b7f000000000000000000000000000000000000000000000000000000000000000086165af1908115612958576000805160206133f68339815191529661292b6040937f241d26202ece0e96f169c3ab6b0d540776434219c78f5727afa20c32cf367a29958c916129415750612f73565b5416925481519081528786820152a291506127f7565b610a449150893d8b11610a4a57610a3c8183612d08565b6040513d8a823e3d90fd5b60405162461bcd60e51b8152600481018590526015602482015274496e73756666696369656e7420747265617375727960581b6044820152606490fd5b50600682015415156127f2565b634e487b7160e01b85526021600452602485fd5b60405162461bcd60e51b8152600481018490526013602482015272151a5b595b1bd8dac81b9bdd081c185cdcd959606a1b6044820152606490fd5b60405162461bcd60e51b815260048101849052600a602482015269139bdd081c5d595d595960b21b6044820152606490fd5b6044906040519063e2517d3f60e01b82523360048301526024820152fd5b503461028257806003193601126102825760206040517fd8aa0f3194971a2a116679f7c2090f6939c8d4e01a2a8d7e41d55e5351469e638152f35b50346102825780600319360112610282576020600454604051908152f35b50346102825760203660031901126102825760043563ffffffff60e01b811680910361102257602090637965db0b60e01b8114908115612aeb575b506040519015158152f35b6301ffc9a760e01b14905082612ae0565b5034610282576020366003190112610282576004358152600960205260409020805460a05260018101546001600160a01b039190821690612b3f60028201612d29565b60e052612b4e60038201612d29565b6004820154608052600582015460ff169360068301549060078401541660088401546009850154600a86015490600b87015492600c88015460ff1694600d89015496600e8a015498600f8b01549a6010015460ff169b60405160c0526102209060a05160c0515260c051602001528060c0516040015260c0510160e05190612bd591612dce565b60c051810360c05160600152612bea91612dce565b9b60805160c0516080015260c05160a001612c0491612e0e565b60c05160c0015260c05160e0015260c051610100015260c051610120015260c051610140015260c051610160015260c05161018001612c4291612e1b565b60c0516101a0015260c0516101c0015260c0516101e00152151560c051610200015260c051900360c051f35b90600182811c92168015612c9e575b6020831014612c8857565b634e487b7160e01b600052602260045260246000fd5b91607f1691612c7d565b6001600160401b038111612cbb57604052565b634e487b7160e01b600052604160045260246000fd5b60a081019081106001600160401b03821117612cbb57604052565b61022081019081106001600160401b03821117612cbb57604052565b90601f801991011681019081106001600160401b03821117612cbb57604052565b90604051918260008254612d3c81612c6e565b90818452602094600191600181169081600014612dac5750600114612d6d575b505050612d6b92500383612d08565b565b600090815285812095935091905b818310612d94575050612d6b9350820101388080612d5c565b85548884018501529485019487945091830191612d7b565b92505050612d6b94925060ff191682840152151560051b820101388080612d5c565b919082519283825260005b848110612dfa575050826000602080949584010152601f8019910116010190565b602081830181015184830182015201612dd9565b9060058210156108335752565b9060088210156108335752565b600435906001600160a01b038216820361101d57565b602435906001600160a01b038216820361101d57565b9181601f8401121561101d578235916001600160401b03831161101d576020838186019501011161101d57565b9060038210156108335752565b90815180825260208080930193019160005b828110612eae575050505090565b83516001600160a01b031685529381019392810192600101612ea0565b8054821015612ee35760005260206000200190600090565b634e487b7160e01b600052603260045260246000fd5b15612f0057565b60405162461bcd60e51b815260206004820152601060248201526f105b1c9958591e48195e1958dd5d195960821b6044820152606490fd5b91908203918211612f4557565b634e487b7160e01b600052601160045260246000fd5b9081602091031261101d5751801515810361101d5790565b15612f7a57565b60405162461bcd60e51b815260206004820152600f60248201526e151c985b9cd9995c8819985a5b1959608a1b6044820152606490fd5b91908201809211612f4557565b15612fc557565b60405162461bcd60e51b815260206004820152600f60248201526e105b5bdd5b9d081c995c5d5a5c9959608a1b6044820152606490fd5b1561300357565b60405162461bcd60e51b815260206004820152600d60248201526c4e6f7420696e20766f74696e6760981b6044820152606490fd5b81810292918115918404141715612f4557565b6000198114612f455760010190565b9291926001600160401b038211612cbb5760405191613083601f8201601f191660200184612d08565b82948184528183011161101d578281602093846000960137010152565b8181106130ab575050565b600081556001016130a0565b908060209392818452848401376000828201840152601f01601f1916010190565b6130e29080613038565b670de0b6b3a764000090818102918183041490151715612f455790565b90604051918281549182825260209260208301916000526020600020936000905b82821061313657505050612d6b92500383612d08565b85546001600160a01b031684526001958601958895509381019390910190613120565b6131969060018060a01b03809116600052600c60205260406000205460126020526040600020549160116020526040600020541661319957612fb1565b90565b506000612fb1565b60038210156108335752565b156131b457565b60405162461bcd60e51b815260206004820152601960248201527f496e73756666696369656e7420766f74696e6720706f776572000000000000006044820152606490fd5b60058210156108335752565b3360009081527f8a40f0b47fdc2a0ce293b772acfc7508c8315a4d462786c1adc3a56f92ca2d0560205260409020547f55435dd261a4b9b3364963f7738a7a662ad9c84396d64be3365284bb7f0a50419060ff1615612a2e5750565b3360009081527fad3228b676f7d3cd4284a5443f17f1962b36e491b30a40b2405849e597ba5fb5602052604081205460ff1615612a2e5750565b80600052600060205260406000203360005260205260ff6040600020541615612a2e5750565b6002600154146132d2576002600155565b604051633ee5aeb560e01b8152600490fd5b9060009180835282602052604083209160018060a01b03169182845260205260ff6040842054161560001461335d57808352826020526040832082845260205260408320600160ff198254161790557f2f8788117e7eff1d82e926ec794901d17c78024a50270940304540a733656f0d339380a4600190565b505090565b9060009180835282602052604083209160018060a01b03169182845260205260ff60408420541660001461335d5780835282602052604083208284526020526040832060ff1981541690557ff6391f5c32d9c69d2a47ea670b442974b53935d1edc7fd64eb21e047a839171b339380a4600190565b60ff600254166133e357565b60405163d93c066560e01b8152600490fdfe3346abf262ac5179e9052765fb72484e0baab1f356f08442bb7a3054147631dea264697066735822122035760c652a49a14bf74d5c078a4f4b14d1b3e816025c0e1658070c1842aec59564736f6c634300081600332f8788117e7eff1d82e926ec794901d17c78024a50270940304540a733656f0d",
  "linkReferences": {},
  "deployedLinkReferences": {}
}