{
  "_format": "hh-sol-artifact-1",
  "contractName": "KaiGovernance",
  "sourceName": "contracts/governance/KaiGovernance.sol",
  "abi": [
    {
      "inputs": [
        {
          "internalType": "address",
          "name": "_kaiToken",
          "type": "address"
        },
        {
          "internalType": "address",
          "name": "admin",
          "type": "address"
        }
      ],
      "stateMutability": "nonpayable",
      "type": "constructor"
    },
    {
      "inputs": [],
      "name": "AccessControlBadConfirmation",
      "type": "error"
    },
    {
      "inputs": [
        {
          "internalType": "address",
          "name": "account",
          "type": "address"
        },
        {
          "internalType": "bytes32",
          "name": "neededRole",
          "type": "bytes32"
        }
      ],
      "name": "AccessControlUnauthorizedAccount",
      "type": "error"
    },
    {
      "inputs": [],
      "name": "EnforcedPause",
      "type": "error"
    },
    {
      "inputs": [],
      "name": "ExpectedPause",
      "type": "error"
    },
    {
      "inputs": [],
      "name": "ReentrancyGuardReentrantCall",
      "type": "error"
    },
    {
      "anonymous": false,
      "inputs": [
        {
          "indexed": true,
          "internalType": "uint256",
          "name": "councilId",
          "type": "uint256"
        },
        {
          "indexed": false,
          "internalType": "string",
          "name": "name",
          "type": "string"
        },
        {
          "indexed": false,
          "internalType": "string",
          "name": "pillar",
          "type": "string"
        }
      ],
      "name": "CouncilCreated",
      "type": "event"
    },
    {
      "anonymous": false,
      "inputs": [
        {
          "indexed": true,
          "internalType": "address",
          "name": "delegator",
          "type": "address"
        },
        {
          "indexed": true,
          "internalType": "address",
          "name": "delegatee",
          "type": "address"
        }
      ],
      "name": "Delegated",
      "type": "event"
    },
    {
      "anonymous": false,
      "inputs": [
        {
          "indexed": false,
          "internalType": "address",
          "name": "account",
          "type": "address"
        }
      ],
      "name": "Paused",
      "type": "event"
    },
    {
      "anonymous": false,
      "inputs": [
        {
          "indexed": true,
          "internalType": "uint256",
          "name": "proposalId",
          "type": "uint256"
        },
        {
          "indexed": false,
          "internalType": "string",
          "name": "reason",
          "type": "string"
        }
      ],
      "name": "ProposalCancelled",
      "type": "event"
    },
    {
      "anonymous": false,
      "inputs": [
        {
          "indexed": true,
          "internalType": "uint256",
          "name": "proposalId",
          "type": "uint256"
        },
        {
          "indexed": true,
          "internalType": "address",
          "name": "proposer",
          "type": "address"
        },
        {
          "indexed": false,
          "internalType": "string",
          "name": "title",
          "type": "string"
        },
        {
          "indexed": false,
          "internalType": "enum KaiGovernance.ProposalType",
          "name": "proposalType",
          "type": "uint8"
        }
      ],
      "name": "ProposalCreated",
      "type": "event"
    },
    {
      "anonymous": false,
      "inputs": [
        {
          "indexed": true,
          "internalType": "uint256",
          "name": "proposalId",
          "type": "uint256"
        }
      ],
      "name": "ProposalExecuted",
      "type": "event"
    },
    {
      "anonymous": false,
      "inputs": [
        {
          "indexed": true,
          "internalType": "uint256",
          "name": "proposalId",
          "type": "uint256"
        },
        {
          "indexed": false,
          "internalType": "enum KaiGovernance.ProposalStatus",
          "name": "status",
          "type": "uint8"
        }
      ],
      "name": "ProposalStatusChanged",
      "type": "event"
    },
    {
      "anonymous": false,
      "inputs": [
        {
          "indexed": true,
          "internalType": "bytes32",
          "name": "role",
          "type": "bytes32"
        },
        {
          "indexed": true,
          "internalType": "bytes32",
          "name": "previousAdminRole",
          "type": "bytes32"
        },
        {
          "indexed": true,
          "internalType": "bytes32",
          "name": "newAdminRole",
          "type": "bytes32"
        }
      ],
      "name": "RoleAdminChanged",
      "type": "event"
    },
    {
      "anonymous": false,
      "inputs": [
        {
          "indexed": true,
          "internalType": "bytes32",
          "name": "role",
          "type": "bytes32"
        },
        {
          "indexed": true,
          "internalType": "address",
          "name": "account",
          "type": "address"
        },
        {
          "indexed": true,
          "internalType": "address",
          "name": "sender",
          "type": "address"
        }
      ],
      "name": "RoleGranted",
      "type": "event"
    },
    {
      "anonymous": false,
      "inputs": [
        {
          "indexed": true,
          "internalType": "bytes32",
          "name": "role",
          "type": "bytes32"
        },
        {
          "indexed": true,
          "internalType": "address",
          "name": "account",
          "type": "address"
        },
        {
          "indexed": true,
          "internalType": "address",
          "name": "sender",
          "type": "address"
        }
      ],
      "name": "RoleRevoked",
      "type": "event"
    },
    {
      "anonymous": false,
      "inputs": [
        {
          "indexed": true,
          "internalType": "address",
          "name": "staker",
          "type": "address"
        },
        {
          "indexed": false,
          "internalType": "uint256",
          "name": "amount",
          "type": "uint256"
        }
      ],
      "name": "TokensStaked",
      "type": "event"
    },
    {
      "anonymous": false,
      "inputs": [
        {
          "indexed": true,
          "internalType": "address",
          "name": "staker",
          "type": "address"
        },
        {
          "indexed": false,
          "internalType": "uint256",
          "name": "amount",
          "type": "uint256"
        }
      ],
      "name": "TokensUnstaked",
      "type": "event"
    },
    {
      "anonymous": false,
      "inputs": [
        {
          "indexed": true,
          "internalType": "address",
          "name": "from",
          "type": "address"
        },
        {
          "indexed": false,
          "internalType": "uint256",
          "name": "amount",
          "type": "uint256"
        }
      ],
      "name": "TreasuryDeposit",
      "type": "event"
    },
    {
      "anonymous": false,
      "inputs": [
        {
          "indexed": true,
          "internalType": "address",
          "name": "to",
          "type": "address"
        },
        {
          "indexed": false,
          "internalType": "uint256",
          "name": "amount",
          "type": "uint256"
        },
        {
          "indexed": false,
          "internalType": "uint256",
          "name": "proposalId",
          "type": "uint256"
        }
      ],
      "name": "TreasuryWithdrawal",
      "type": "event"
    },
    {
      "anonymous": false,
      "inputs": [
        {
          "indexed": false,
          "internalType": "address",
          "name": "account",
          "type": "address"
        }
      ],
      "name": "Unpaused",
      "type": "event"
    },
    {
      "anonymous": false,
      "inputs": [
        {
          "indexed": true,
          "internalType": "uint256",
          "name": "proposalId",
          "type": "uint256"
        },
        {
          "indexed": true,
          "internalType": "address",
          "name": "voter",
          "type": "address"
        },
        {
          "indexed": false,
          "internalType": "enum KaiGovernance.VoteChoice",
          "name": "choice",
          "type": "uint8"
        },
        {
          "indexed": false,
          "internalType": "uint256",
          "name": "votePower",
          "type": "uint256"
        }
      ],
      "name": "Voted",
      "type": "event"
    },
    {
      "inputs": [],
      "name": "DEFAULT_ADMIN_ROLE",
      "outputs": [
        {
          "internalType": "bytes32",
          "name": "",
          "type": "bytes32"
        }
      ],
      "stateMutability": "view",
      "type": "function"
    },
    {
      "inputs": [],
      "name": "EXECUTOR_ROLE",
      "outputs": [
        {
          "internalType": "bytes32",
          "name": "",
          "type": "bytes32"
        }
      ],
      "stateMutability": "view",
      "type": "function"
    },
    {
      "inputs": [],
      "name": "GUARDIAN_ROLE",
      "outputs": [
        {
          "internalType": "bytes32",
          "name": "",
          "type": "bytes32"
        }
      ],
      "stateMutability": "view",
      "type": "function"
    },
    {
      "inputs": [],
      "name": "approvalThreshold",
      "outputs": [
        {
          "internalType": "uint256",
          "name": "",
          "type": "uint256"
        }
      ],
      "stateMutability": "view",
      "type": "function"
    },
    {
      "inputs": [
        {
          "internalType": "uint256",
          "name": "votes",
          "type": "uint256"
        }
      ],
      "name": "calculateQuadraticCost",
      "outputs": [
        {
          "internalType": "uint256",
          "name": "",
          "type": "uint256"
        }
      ],
      "stateMutability": "pure",
      "type": "function"
    },
    {
      "inputs": [
        {
          "internalType": "uint256",
          "name": "proposalId",
          "type": "uint256"
        },
        {
          "internalType": "string",
          "name": "reason",
          "type": "string"
        }
      ],
      "name": "cancelProposal",
      "outputs": [],
      "stateMutability": "nonpayable",
      "type": "function"
    },
    {
      "inputs": [],
      "name": "councilCount",
      "outputs": [
        {
          "internalType": "uint256",
          "name": "",
          "type": "uint256"
        }
      ],
      "stateMutability": "view",
      "type": "function"
    },
    {
      "inputs": [
        {
          "internalType": "uint256",
          "name": "",
          "type": "uint256"
        }
      ],
      "name": "councils",
      "outputs": [
        {
          "internalType": "string",
          "name": "name",
          "type": "string"
        },
        {
          "internalType": "string",
          "name": "pillar",
          "type": "string"
        },
        {
          "internalType": "uint256",
          "name": "createdAt",
          "type": "uint256"
        },
        {
          "internalType": "bool",
          "name": "active",
          "type": "bool"
        }
      ],
      "stateMutability": "view",
      "type": "function"
    },
    {
      "inputs": [
        {
          "internalType": "string",
          "name": "name",
          "type": "string"
        },
        {
          "internalType": "string",
          "name": "pillar",
          "type": "string"
        },
        {
          "internalType": "address[]",
          "name": "members",
          "type": "address[]"
        }
      ],
      "name": "createCouncil",
      "outputs": [
        {
          "internalType": "uint256",
          "name": "",
          "type": "uint256"
        }
      ],
      "stateMutability": "nonpayable",
      "type": "function"
    },
    {
      "inputs": [
        {
          "internalType": "string",
          "name": "title",
          "type": "string"
        },
        {
          "internalType": "string",
          "name": "description",
          "type": "string"
        },
        {
          "internalType": "bytes32",
          "name": "documentHash",
          "type": "bytes32"
        },
        {
          "internalType": "enum KaiGovernance.ProposalType",
          "name": "proposalType",
          "type": "uint8"
        },
        {
          "internalType": "uint256",
          "name": "fundingAmount",
          "type": "uint256"
        },
        {
          "internalType": "address",
          "name": "fundingRecipient",
          "type": "address"
        }
      ],
      "name": "createProposal",
      "outputs": [
        {
          "internalType": "uint256",
          "name": "",
          "type": "uint256"
        }
      ],
      "stateMutability": "nonpayable",
      "type": "function"
    },
    {
      "inputs": [
        {
          "internalType": "address",
          "name": "delegatee",
          "type": "address"
        }
      ],
      "name": "delegate",
      "outputs": [],
      "stateMutability": "nonpayable",
      "type": "function"
    },
    {
      "inputs": [
        {
          "internalType": "address",
          "name": "",
          "type": "address"
        }
      ],
      "name": "delegatedPower",
      "outputs": [
        {
          "internalType": "uint256",
          "name": "",
          "type": "uint256"
        }
      ],
      "stateMutability": "view",
      "type": "function"
    },
    {
      "inputs": [
        {
          "internalType": "address",
          "name": "",
          "type": "address"
        }
      ],
      "name": "delegates",
      "outputs": [
        {
          "internalType": "address",
          "name": "",
          "type": "address"
        }
      ],
      "stateMutability": "view",
      "type": "function"
    },
    {
      "inputs": [
        {
          "internalType": "uint256",
          "name": "amount",
          "type": "uint256"
        }
      ],
      "name": "depositToTreasury",
      "outputs": [],
      "stateMutability": "nonpayable",
      "type": "function"
    },
    {
      "inputs": [],
      "name": "discussionPeriod",
      "outputs": [
        {
          "internalType": "uint256",
          "name": "",
          "type": "uint256"
        }
      ],
      "stateMutability": "view",
      "type": "function"
    },
    {
      "inputs": [
        {
          "internalType": "uint256",
          "name": "proposalId",
          "type": "uint256"
        }
      ],
      "name": "executeProposal",
      "outputs": [],
      "stateMutability": "nonpayable",
      "type": "function"
    },
    {
      "inputs": [
        {
          "internalType": "uint256",
          "name": "proposalId",
          "type": "uint256"
        }
      ],
      "name": "finalizeProposal",
      "outputs": [],
      "stateMutability": "nonpayable",
      "type": "function"
    },
    {
      "inputs": [
        {
          "internalType": "uint256",
          "name": "councilId",
          "type": "uint256"
        }
      ],
      "name": "getCouncil",
      "outputs": [
        {
          "components": [
            {
              "internalType": "string",
              "name": "name",
              "type": "string"
            },
            {
              "internalType": "string",
              "name": "pillar",
              "type": "string"
            },
            {
              "internalType": "address[]",
              "name": "members",
              "type": "address[]"
            },
            {
              "internalType": "uint256",
              "name": "createdAt",
              "type": "uint256"
            },
            {
              "internalType": "bool",
              "name": "active",
              "type": "bool"
            }
          ],
          "internalType": "struct KaiGovernance.Council",
          "name": "",
          "type": "tuple"
        }
      ],
      "stateMutability": "view",
      "type": "function"
    },
    {
      "inputs": [
        {
          "internalType": "uint256",
          "name": "proposalId",
          "type": "uint256"
        }
      ],
      "name": "getProposal",
      "outputs": [
        {
          "components": [
            {
              "internalType": "uint256",
              "name": "id",
              "type": "uint256"
            },
            {
              "internalType": "address",
              "name": "proposer",
              "type": "address"
            },
            {
              "internalType": "string",
              "name": "title",
              "type": "string"
            },
            {
              "internalType": "string",
              "name": "description",
              "type": "string"
            },
            {
              "internalType": "bytes32",
              "name": "documentHash",
              "type": "bytes32"
            },
            {
              "internalType": "enum KaiGovernance.ProposalType",
              "name": "proposalType",
              "type": "uint8"
            },
            {
              "internalType": "uint256",
              "name": "fundingAmount",
              "type": "uint256"
            },
            {
              "internalType": "address",
              "name": "fundingRecipient",
              "type": "address"
            },
            {
              "internalType": "uint256",
              "name": "createdAt",
              "type": "uint256"
            },
            {
              "internalType": "uint256",
              "name": "discussionEndsAt",
              "type": "uint256"
            },
            {
              "internalType": "uint256",
              "name": "votingEndsAt",
              "type": "uint256"
            },
            {
              "internalType": "uint256",
              "name": "executionTime",
              "type": "uint256"
            },
            {
              "internalType": "enum KaiGovernance.ProposalStatus",
              "name": "status",
              "type": "uint8"
            },
            {
              "internalType": "uint256",
              "name": "forVotes",
              "type": "uint256"
            },
            {
              "internalType": "uint256",
              "name": "againstVotes",
              "type": "uint256"
            },
            {
              "internalType": "uint256",
              "name": "abstainVotes",
              "type": "uint256"
            },
            {
              "internalType": "bool",
              "name": "executed",
              "type": "bool"
            }
          ],
          "internalType": "struct KaiGovernance.Proposal",
          "name": "",
          "type": "tuple"
        }
      ],
      "stateMutability": "view",
      "type": "function"
    },
    {
      "inputs": [
        {
          "internalType": "uint256",
          "name": "proposalId",
          "type": "uint256"
        }
      ],
      "name": "getProposalVoters",
      "outputs": [
        {
          "internalType": "address[]",
          "name": "",
          "type": "address[]"
        }
      ],
      "stateMutability": "view",
      "type": "function"
    },
    {
      "inputs": [
        {
          "internalType": "bytes32",
          "name": "role",
          "type": "bytes32"
        }
      ],
      "name": "getRoleAdmin",
      "outputs": [
        {
          "internalType": "bytes32",
          "name": "",
          "type": "bytes32"
        }
      ],
      "stateMutability": "view",
      "type": "function"
    },
    {
      "inputs": [
        {
          "internalType": "address",
          "name": "account",
          "type": "address"
        }
      ],
      "name": "getStakedBalance",
      "outputs": [
        {
          "internalType": "uint256",
          "name": "",
          "type": "uint256"
        }
      ],
      "stateMutability": "view",
      "type": "function"
    },
    {
      "inputs": [
        {
          "internalType": "uint256",
          "name": "proposalId",
          "type": "uint256"
        },
        {
          "internalType": "address",
          "name": "voter",
          "type": "address"
        }
      ],
      "name": "getVote",
      "outputs": [
        {
          "components": [
            {
              "internalType": "address",
              "name": "voter",
              "type": "address"
            },
            {
              "internalType": "uint256",
              "name": "proposalId",
              "type": "uint256"
            },
            {
              "internalType": "uint256",
              "name": "votePower",
              "type": "uint256"
            },
            {
              "internalType": "enum KaiGovernance.VoteChoice",
              "name": "choice",
              "type": "uint8"
            },
            {
              "internalType": "uint256",
              "name": "timestamp",
              "type": "uint256"
            }
          ],
          "internalType": "struct KaiGovernance.Vote",
          "name": "",
          "type": "tuple"
        }
      ],
      "stateMutability": "view",
      "type": "function"
    },
    {
      "inputs": [
        {
          "internalType": "address",
          "name": "account",
          "type": "address"
        }
      ],
      "name": "getVotingPower",
      "outputs": [
        {
          "internalType": "uint256",
          "name": "",
          "type": "uint256"
        }
      ],
      "stateMutability": "view",
      "type": "function"
    },
    {
      "inputs": [
        {
          "internalType": "bytes32",
          "name": "role",
          "type": "bytes32"
        },
        {
          "internalType": "address",
          "name": "account",
          "type": "address"
        }
      ],
      "name": "grantRole",
      "outputs": [],
      "stateMutability": "nonpayable",
      "type": "function"
    },
    {
      "inputs": [
        {
          "internalType": "bytes32",
          "name": "role",
          "type": "bytes32"
        },
        {
          "internalType": "address",
          "name": "account",
          "type": "address"
        }
      ],
      "name": "hasRole",
      "outputs": [
        {
          "internalType": "bool",
          "name": "",
          "type": "bool"
        }
      ],
      "stateMutability": "view",
      "type": "function"
    },
    {
      "inputs": [],
      "name": "kaiToken",
      "outputs": [
        {
          "internalType": "contract KAIToken",
          "name": "",
          "type": "address"
        }
      ],
      "stateMutability": "view",
      "type": "function"
    },
    {
      "inputs": [],
      "name": "pause",
      "outputs": [],
      "stateMutability": "nonpayable",
      "type": "function"
    },
    {
      "inputs": [],
      "name": "paused",
      "outputs": [
        {
          "internalType": "bool",
          "name": "",
          "type": "bool"
        }
      ],
      "stateMutability": "view",
      "type": "function"
    },
    {
      "inputs": [],
      "name": "proposalCount",
      "outputs": [
        {
          "internalType": "uint256",
          "name": "",
          "type": "uint256"
        }
      ],
      "stateMutability": "view",
      "type": "function"
    },
    {
      "inputs": [],
      "name": "proposalDeposit",
      "outputs": [
        {
          "internalType": "uint256",
          "name": "",
          "type": "uint256"
        }
      ],
      "stateMutability": "view",
      "type": "function"
    },
    {
      "inputs": [
        {
          "internalType": "uint256",
          "name": "",
          "type": "uint256"
        },
        {
          "internalType": "uint256",
          "name": "",
          "type": "uint256"
        }
      ],
      "name": "proposalVoters",
      "outputs": [
        {
          "internalType": "address",
          "name": "",
          "type": "address"
        }
      ],
      "stateMutability": "view",
      "type": "function"
    },
    {
      "inputs": [
        {
          "internalType": "uint256",
          "name": "",
          "type": "uint256"
        },
        {
          "internalType": "address",
          "name": "",
          "type": "address"
        }
      ],
      "name": "proposalVotes",
      "outputs": [
        {
          "internalType": "address",
          "name": "voter",
          "type": "address"
        },
        {
          "internalType": "uint256",
          "name": "proposalId",
          "type": "uint256"
        },
        {
          "internalType": "uint256",
          "name": "votePower",
          "type": "uint256"
        },
        {
          "internalType": "enum KaiGovernance.VoteChoice",
          "name": "choice",
          "type": "uint8"
        },
        {
          "internalType": "uint256",
          "name": "timestamp",
          "type": "uint256"
        }
      ],
      "stateMutability": "view",
      "type": "function"
    },
    {
      "inputs": [
        {
          "internalType": "uint256",
          "name": "",
          "type": "uint256"
        }
      ],
      "name": "proposals",
      "outputs": [
        {
          "internalType": "uint256",
          "name": "id",
          "type": "uint256"
        },
        {
          "internalType": "address",
          "name": "proposer",
          "type": "address"
        },
        {
          "internalType": "string",
          "name": "title",
          "type": "string"
        },
        {
          "internalType": "string",
          "name": "description",
          "type": "string"
        },
        {
          "internalType": "bytes32",
          "name": "documentHash",
          "type": "bytes32"
        },
        {
          "internalType": "enum KaiGovernance.ProposalType",
          "name": "proposalType",
          "type": "uint8"
        },
        {
          "internalType": "uint256",
          "name": "fundingAmount",
          "type": "uint256"
        },
        {
          "internalType": "address",
          "name": "fundingRecipient",
          "type": "address"
        },
        {
          "internalType": "uint256",
          "name": "createdAt",
          "type": "uint256"
        },
        {
          "internalType": "uint256",
          "name": "discussionEndsAt",
          "type": "uint256"
        },
        {
          "internalType": "uint256",
          "name": "votingEndsAt",
          "type": "uint256"
        },
        {
          "internalType": "uint256",
          "name": "executionTime",
          "type": "uint256"
        },
        {
          "internalType": "enum KaiGovernance.ProposalStatus",
          "name": "status",
          "type": "uint8"
        },
        {
          "internalType": "uint256",
          "name": "forVotes",
          "type": "uint256"
        },
        {
          "internalType": "uint256",
          "name": "againstVotes",
          "type": "uint256"
        },
        {
          "internalType": "uint256",
          "name": "abstainVotes",
          "type": "uint256"
        },
        {
          "internalType": "bool",
          "name": "executed",
          "type": "bool"
        }
      ],
      "stateMutability": "view",
      "type": "function"
    },
    {
      "inputs": [],
      "name": "quorumPercentage",
      "outputs": [
        {
          "internalType": "uint256",
          "name": "",
          "type": "uint256"
        }
      ],
      "stateMutability": "view",
      "type": "function"
    },
    {
      "inputs": [
        {
          "internalType": "bytes32",
          "name": "role",
          "type": "bytes32"
        },
        {
          "internalType": "address",
          "name": "callerConfirmation",
          "type": "address"
        }
      ],
      "name": "renounceRole",
      "outputs": [],
      "stateMutability": "nonpayable",
      "type": "function"
    },
    {
      "inputs": [
        {
          "internalType": "bytes32",
          "name": "role",
          "type": "bytes32"
        },
        {
          "internalType": "address",
          "name": "account",
          "type": "address"
        }
      ],
      "name": "revokeRole",
      "outputs": [],
      "stateMutability": "nonpayable",
      "type": "function"
    },
    {
      "inputs": [
        {
          "internalType": "uint256",
          "name": "threshold",
          "type": "uint256"
        }
      ],
      "name": "setApprovalThreshold",
      "outputs": [],
      "stateMutability": "nonpayable",
      "type": "function"
    },
    {
      "inputs": [
        {
          "internalType": "uint256",
          "name": "period",
          "type": "uint256"
        }
      ],
      "name": "setDiscussionPeriod",
      "outputs": [],
      "stateMutability": "nonpayable",
      "type": "function"
    },
    {
      "inputs": [
        {
          "internalType": "uint256",
          "name": "amount",
          "type": "uint256"
        }
      ],
      "name": "setProposalDeposit",
      "outputs": [],
      "stateMutability": "nonpayable",
      "type": "function"
    },
    {
      "inputs": [
        {
          "internalType": "uint256",
          "name": "percentage",
          "type": "uint256"
        }
      ],
      "name": "setQuorum",
      "outputs": [],
      "stateMutability": "nonpayable",
      "type": "function"
    },
    {
      "inputs": [
        {
          "internalType": "uint256",
          "name": "delay",
          "type": "uint256"
        }
      ],
      "name": "setTimelockDelay",
      "outputs": [],
      "stateMutability": "nonpayable",
      "type": "function"
    },
    {
      "inputs": [
        {
          "internalType": "uint256",
          "name": "period",
          "type": "uint256"
        }
      ],
      "name": "setVotingPeriod",
      "outputs": [],
      "stateMutability": "nonpayable",
      "type": "function"
    },
    {
      "inputs": [
        {
          "internalType": "uint256",
          "name": "amount",
          "type": "uint256"
        }
      ],
      "name": "stake",
      "outputs": [],
      "stateMutability": "nonpayable",
      "type": "function"
    },
    {
      "inputs": [
        {
          "internalType": "address",
          "name": "",
          "type": "address"
        }
      ],
      "name": "stakedForVoting",
      "outputs": [
        {
          "internalType": "uint256",
          "name": "",
          "type": "uint256"
        }
      ],
      "stateMutability": "view",
      "type": "function"
    },
    {
      "inputs": [
        {
          "internalType": "uint256",
          "name": "proposalId",
          "type": "uint256"
        }
      ],
      "name": "startVoting",
      "outputs": [],
      "stateMutability": "nonpayable",
      "type": "function"
    },
    {
      "inputs": [
        {
          "internalType": "bytes4",
          "name": "interfaceId",
          "type": "bytes4"
        }
      ],
      "name": "supportsInterface",
      "outputs": [
        {
          "internalType": "bool",
          "name": "",
          "type": "bool"
        }
      ],
      "stateMutability": "view",
      "type": "function"
    },
    {
      "inputs": [],
      "name": "timelockDelay",
      "outputs": [
        {
          "internalType": "uint256",
          "name": "",
          "type": "uint256"
        }
      ],
      "stateMutability": "view",
      "type": "function"
    },
    {
      "inputs": [],
      "name": "treasuryBalance",
      "outputs": [
        {
          "internalType": "uint256",
          "name": "",
          "type": "uint256"
        }
      ],
      "stateMutability": "view",
      "type": "function"
    },
    {
      "inputs": [],
      "name": "unpause",
      "outputs": [],
      "stateMutability": "nonpayable",
      "type": "function"
    },
    {
      "inputs": [
        {
          "internalType": "uint256",
          "name": "amount",
          "type": "uint256"
        }
      ],
      "name": "unstake",
      "outputs": [],
      "stateMutability": "nonpayable",
      "type": "function"
    },
    {
      "inputs": [
        {
          "internalType": "uint256",
          "name": "proposalId",
          "type": "uint256"
        },
        {
          "internalType": "enum KaiGovernance.VoteChoice",
          "name": "choice",
          "type": "uint8"
        },
        {
          "internalType": "uint256",
          "name": "voteCount",
          "type": "uint256"
        }
      ],
      "name": "vote",
      "outputs": [],
      "stateMutability": "nonpayable",
      "type": "function"
    },
    {
      "inputs": [],
      "name": "votingPeriod",
      "outputs": [
        {
          "internalType": "uint256",
          "name": "",
          "type": "uint256"
        }
      ],
      "stateMutability": "view",
      "type": "function"
    }
  ],
  "bytecode": "0x60a0346200017a57601f620037b338819003918201601f19168301916001600160401b038311848410176200017f5780849260409485528339810103126200017a576200005a6020620000528362000195565b920162000195565b6001805569021e19e0c9bab24000006003556206978060045562093a806005556202a300600655600a600755603c6008556001600160a01b0391821691821562000145578116156200011057620000cc91608052620000b981620001aa565b50620000c5816200022a565b50620002cc565b5060405161342990816200036a82396080518181816109a701528181611308015281816114c00152818161170501528181612023015281816125d401526128b00152f35b60405162461bcd60e51b815260206004820152600d60248201526c24b73b30b634b21030b236b4b760991b6044820152606490fd5b60405162461bcd60e51b815260206004820152600d60248201526c24b73b30b634b2103a37b5b2b760991b6044820152606490fd5b600080fd5b634e487b7160e01b600052604160045260246000fd5b51906001600160a01b03821682036200017a57565b6001600160a01b031660008181527fad3228b676f7d3cd4284a5443f17f1962b36e491b30a40b2405849e597ba5fb5602052604081205490919060ff166200022657818052816020526040822081835260205260408220600160ff198254161790553391600080516020620037938339815191528180a4600190565b5090565b6001600160a01b031660008181527fdae2aa361dfd1ca020a396615627d436107c35eff9fe7738a3512819782d706960205260408120549091907fd8aa0f3194971a2a116679f7c2090f6939c8d4e01a2a8d7e41d55e5351469e639060ff16620002c757808352826020526040832082845260205260408320600160ff1982541617905560008051602062003793833981519152339380a4600190565b505090565b6001600160a01b031660008181527f8a40f0b47fdc2a0ce293b772acfc7508c8315a4d462786c1adc3a56f92ca2d0560205260408120549091907f55435dd261a4b9b3364963f7738a7a662ad9c84396d64be3365284bb7f0a50419060ff16620002c757808352826020526040832082845260205260408320600160ff1982541617905560008051602062003793833981519152339380a460019056fe610100604052600436101561001357600080fd5b6000803560e01c8063013cf08b14612aef57806301ffc9a714612a9857806302a251a314612a7a57806307bd026514612a3f5780630d61b51914612718578063169df064146126df578063248a9ca3146126b357806324ea54f4146126785780632e17de78146125555780632f2ff15d14612518578063310f2ec7146124fa578063313dab20146124dc578063340ad3b6146124be57806336568abe146124765780633a02a42d146118975780633d2f5bda1461237a5780633f4ba83a1461230f5780634fa76ec9146122f15780635652077c14611f9c578063587cde1e14611f605780635c19a95c14611e165780635c975abb14611df35780636c7cc017146119125780636d9b06e8146118ef57806374dd0fea146118d05780637a4ebfdf146118975780637d0eef61146118795780638456cb591461181e5780638b15a605146118005780638e1f6a2c1461177f57806391d14854146117345780639bcfdfc0146116ef578063a0016b8c1461168b578063a217fddf1461166f578063a351f615146113f0578063a68f34f7146113ad578063a694fc3a146112a5578063aa74da9a146111a6578063ab89437c14611153578063af267f8f14611130578063bb4d443614611104578063bc3f931f14611027578063bf7dbf0c14610a5b578063c0e58a0e1461094e578063c1ba4e59146108e9578063c5d81ab41461086c578063c610802114610849578063c7f758a8146105a0578063d547741f1461055f578063da35c66414610541578063e520251a146102a8578063ea0217cf146102855763eef09bad1461026557600080fd5b346102825780600319360112610282576020600654604051908152f35b80fd5b50346102825760203660031901126102825761029f612f35565b60043560045580f35b50346102825760603660031901126102825760248035600435600382101561053d576044356102d561315d565b6102dd61313f565b8185526020600981526040862060ff600c8201541695600887101561052b5761030960018098146132f4565b600a8201544210156104f957848852600a8352604080892033600090815290855220546001600160a01b03919082166104c657610358610348866131e8565b6103513361318d565b101561320f565b60405161036481612cb0565b338152898582018881526040830188815260608401916103848c84613330565b604060808601944286528c8152600a8b52203360005289528660406000209551166001600160601b0360a01b865416178555518c85015551600284015560038301905160038110156104b357906004929160ff8019835416911617905551910155858952600b845260408920805491600160401b8310156104a157509061040f918982018155612eab565b819291549060031b9133831b921b1916179055841560001461047757600d0161043983825461311c565b90555b6104496040518095612e61565b8301527f2635c84c3a8027a303ca6d6e90b1c4a9604754040372414d244aadfa6471751860403393a3805580f35b84860361049357600e0161048c83825461311c565b905561043c565b600f0161048c83825461311c565b634e487b7160e01b8b5260416004528afd5b634e487b7160e01b8d526021600452848dfd5b83600d6064926040519262461bcd60e51b845260048401528201526c105b1c9958591e481d9bdd1959609a1b6044820152fd5b82600c6064926040519262461bcd60e51b845260048401528201526b159bdd1a5b99c8195b99195960a21b6044820152fd5b634e487b7160e01b8852602160045287fd5b8380fd5b50346102825780600319360112610282576020600e54604051908152f35b50346102825760403660031901126102825761059c60043561057f612e1e565b90808452836020526105976001604086200154612f6f565b613013565b5080f35b5034610282576020366003190112610282578060409161020083516105c481612ccb565b8281528260208201526060858201526060808201528260808201528260a08201528260c08201528260e08201528261010082015282610120820152826101408201528261016082015282610180820152826101a0820152826101c0820152826101e0820152015260043581526009602052206040519061064382612ccb565b8054825260018101546001600160a01b0316602083015261066660028201612d08565b604083015261067760038201612d08565b60608301526004810154608083015261069a60ff60058301541660a084016132b0565b600681015460c083015260078101546001600160a01b031660e08301526008808201546101008401526009820154610120840152600a820154610140840152600b820154610160840152600c82015460ff16908110156108335760ff91601091610180850152600d8101546101a0850152600e8101546101c0850152600f8101546101e085015201541615156102008201526040518091602082528051602083015260018060a01b03602082015116604083015261020061078561076f60408401516102206060870152610240860190612dae565b6060840151858203601f19016080870152612dae565b91608081015160a08501526107a260a082015160c0860190612dee565b60c081015160e085015260018060a01b0360e0820151166101008501526101008101516101208501526101208101516101408501526101408101516101608501526101608101516101808501526108036101808201516101a0860190612dfb565b6101a08101516101c08501526101c08101516101e08501526101e081015182850152015115156102208301520390f35b634e487b7160e01b600052602160045260246000fd5b503461028257602036600319011261028257610863612f35565b60043560055580f35b50346102825760203660031901126102825760406108ca916004358152600d6020522061089881612d08565b906108a560018201612d08565b6108d860ff600460038501549401541691604051958695608087526080870190612dae565b908582036020870152612dae565b916040840152151560608301520390f35b503461028257602036600319011261028257600435610906612f35565b606481116109145760075580f35b60405162461bcd60e51b8152602060048201526012602482015271496e76616c69642070657263656e7461676560701b6044820152606490fd5b50346102825760203660031901126102825760043561096b61315d565b610976811515613088565b6040516323b872dd60e01b815233600482015230602482015260448101829052602081606481866001600160a01b037f0000000000000000000000000000000000000000000000000000000000000000165af18015610a50576109e0918491610a22575b506130de565b6109ec8160105461311c565b6010556040519081527fe3407208b14fa025330ca187030f118a1c0cdb604aba93ba45c862e6095aee2760203392a26001805580f35b610a43915060203d8111610a49575b610a3b8183612ce7565b8101906130c6565b386109da565b503d610a31565b6040513d85823e3d90fd5b50346102825760c0366003190112610282576004356001600160401b03811161101f57610a8c903690600401612e34565b6024929192356001600160401b03811161102357610aae903690600401612e34565b6005606494929435101561101f5760a435936001600160a01b038516850361101a57610ad861315d565b610ae061313f565b8315610fe457610aef3361318d565b610afe6003548092101561320f565b338452600c602052604084205410610f9f57610b1b600e5461325b565b9485600e5560055490610b75610b47610b3e610b37854261311c565b944261311c565b6004549061311c565b9360405195610b5587612ccb565b898752336020880152610b69368a8d61326a565b6040880152369161326a565b60608501526044356080850152610b9160643560a086016132b0565b60843560c085015260018060a01b031660e0840152426101008401526101208301526101408201528161016082015281610180820152816101a0820152816101c0820152816101e08201528161020082015283825260096020526040822091815183556001830160018060a01b036020840151166001600160601b0360a01b82541617905560408201518051906001600160401b038211610ede578190610c3b6002870154612c4d565b601f8111610f6c575b50602090601f8311600114610efd578492610ef2575b50508160011b916000199060031b1c19161760028401555b60608201518051906001600160401b038211610ede578190610c976003870154612c4d565b601f8111610ea0575b50602090601f8311600114610e31578492610e26575b50508160011b916000199060031b1c19161760038401555b6080820151600484015560a0820151906005821015610e12576005840160ff199260ff84835416911617905560c083015160068501556007840160018060a01b0360e0850151166001600160601b0360a01b82541617905561010083015160088501556101208301516009850155610140830151600a850155610160830151600b850155600c840191610180840151916008831015610e125750869460106102007fe0269f7953e70365e80e614e4efe7d4bede59b7f5ad80982ea4064c97ee6f4ef968660209c9660ff610ddf97610df19a541691161790556101a0810151600d8501556101c0810151600e8501556101e0810151600f8501550151151591019060ff801983541691151516179055565b604051946040865260408601916132d3565b92610e00868201606435612dee565b8033940390a360018055604051908152f35b634e487b7160e01b81526021600452602490fd5b015190503880610cb6565b9250600386018452602084209084935b601f1984168510610e85576001945083601f19811610610e6c575b505050811b016003840155610cce565b015160001960f88460031b161c19169055388080610e5c565b81810151835560209485019460019093019290910190610e41565b610ece9060038801865260208620601f850160051c81019160208610610ed4575b601f0160051c01906132bc565b38610ca0565b9091508190610ec1565b634e487b7160e01b83526041600452602483fd5b015190503880610c5a565b9250600286018452602084209084935b601f1984168510610f51576001945083601f19811610610f38575b505050811b016002840155610c72565b015160001960f88460031b161c19169055388080610f28565b81810151835560209485019460019093019290910190610f0d565b610f999060028801865260208620601f850160051c81019160208610610ed457601f0160051c01906132bc565b38610c44565b60405162461bcd60e51b815260206004820152601e60248201527f496e73756666696369656e74207374616b6520666f72206465706f73697400006044820152606490fd5b60405162461bcd60e51b815260206004820152600e60248201526d151a5d1b19481c995c5d5a5c995960921b6044820152606490fd5b600080fd5b5080fd5b8280fd5b50346102825760403660031901126102825760a0906040611046612e1e565b91806080835161105581612cb0565b828152826020820152828582015282606082015201526004358152600a60205220600180841b038092166000526020526040600020906110fc6040519261109b84612cb0565b82815416845260018101546020850190815260028201549060408601918252600460ff600385015416936110d3606089019586613330565b015494608087019586526040519651168652516020860152516040850152516060840190612e61565b516080820152f35b5034610282576020366003190112610282576020611128611123612e08565b61318d565b604051908152f35b50346102825760203660031901126102825761114a612f35565b60043560065580f35b503461028257604036600319011261028257602435906004358152600b6020526040812090815483101561028257602061118d8484612eab565b905460405160039290921b1c6001600160a01b03168152f35b50346102825760208060031936011261101f579060a09160408051926111cb84612cb0565b80608060609586815286868201528685820152828782015201526004358152600d835220906112926040519361120085612cb0565b61120984612d08565b855261121760018501612d08565b8386019081526112296002860161337b565b916040870192835261128261126c60ff600460038a015499858c019a8b520154169660808a0197151588526040519a8b9a828c5251918b015260c08a0190612dae565b925192601f1993848a83030160408b0152612dae565b9251918784030190870152612e6e565b9151608084015251151560a08301520390f35b50346102825760208060031936011261101f57600435906112c461315d565b6112cc61313f565b6112d7821515613088565b6040516323b872dd60e01b815233600482015230602482015260448101839052908082606481876001600160a01b037f0000000000000000000000000000000000000000000000000000000000000000165af19182156113a2577fb539ca1e5c8d398ddf1c41c30166f33404941683be4683319b57669a93dad4ef9261136391869161138b57506130de565b338452600c81526040842061137984825461311c565b90556040519283523392a26001805580f35b610a439150833d8511610a4957610a3b8183612ce7565b6040513d86823e3d90fd5b5034610282576020366003190112610282576113d860406113ec926004358152600b6020522061337b565b604051918291602083526020830190612e6e565b0390f35b503461028257604036600319011261028257600435602480356001600160401b03811161053d57611425903690600401612e34565b9190838552602091600983526040862060018060a01b0380600183015416918233148015611630575b156115fb57600c01805460ff811660088110156115e857806114756004600693141561333c565b146115b05760069060ff191617905560035460328102908082046032149015171561159d57889493929160646114e99204928652600c8752604086206114bc84825461311c565b90557f00000000000000000000000000000000000000000000000000000000000000001691600354613180565b90803b1561158c57849283926040519687938492630852cd8d60e31b845260048401525af1928315611590578693611573575b50507fc7c129e53e59dadfa16305619e80c7519f1f6912c10915359fd75b56bcecdd7b906000805160206133d483398151915294611565604051928392878452878401916132d3565b0390a260405160068152a280f35b61157f91929350612c87565b61158c578390853861151c565b8480fd5b50604051903d90823e3d90fd5b634e487b7160e01b895260116004528389fd5b60405162461bcd60e51b81526004810188905260118187015270105b1c9958591e4818d85b98d95b1b1959607a1b6044820152606490fd5b634e487b7160e01b8b526021600452858bfd5b60405162461bcd60e51b815260048101879052600e818601526d139bdd08185d5d1a1bdc9a5e995960921b6044820152606490fd5b507f55435dd261a4b9b3364963f7738a7a662ad9c84396d64be3365284bb7f0a504189528886526040892033600052865260ff6040600020541661144e565b5034610282578060031936011261028257602090604051908152f35b5034610282576020366003190112610282576004356116a8612f35565b606481116116b65760085580f35b60405162461bcd60e51b8152602060048201526011602482015270125b9d985b1a59081d1a1c995cda1bdb19607a1b6044820152606490fd5b50346102825780600319360112610282576040517f00000000000000000000000000000000000000000000000000000000000000006001600160a01b03168152602090f35b5034610282576040366003190112610282576040611750612e1e565b91600435815280602052209060018060a01b0316600052602052602060ff604060002054166040519015158152f35b50346102825760403660031901126102825760a090604061179e612e1e565b916004358152600a60205220600180841b03809216600052602052604060002090815416906117f96001820154916002810154600460ff60038401541692015493604051958652602086015260408501526060840190612e61565b6080820152f35b50346102825780600319360112610282576020600354604051908152f35b5034610282578060031936011261028257611837612ed9565b61183f61313f565b600160ff1960025416176002557f62e78cea01bee320cd4e420270b5ea74000d11b0c9f74754ebdbfc544b05a2586020604051338152a180f35b50346102825780600319360112610282576020600854604051908152f35b5034610282576020366003190112610282576020906040906001600160a01b036118bf612e08565b168152600c83522054604051908152f35b50346102825760203660031901126102825760206111286004356131e8565b503461028257602036600319011261028257611909612f35565b60043560035580f35b5034610282576060366003190112610282576004356001600160401b03811161101f57611943903690600401612e34565b906024356001600160401b03811161053d57611963903690600401612e34565b9290604435936001600160401b038511611def5736602386011215611def578460040135946001600160401b038611611deb573660248760051b83010111611deb576119ad612f35565b8315611db6578515611d7e576119c4600f5461325b565b9586600f55604051916119d683612cb0565b6119e136878961326a565b83526119ee36858761326a565b602084015260405191611a0760208260051b0184612ce7565b8083526020830160248301925b60248360051b8201018410611d575750505050604082015242606082015260016080820152858752600d602052604087209080518051906001600160401b038211611c05578190611a658554612c4d565b601f8111611d27575b50602090601f8311600114611cc3578b92611cb8575b50508160011b916000199060031b1c19161782555b602081015180516001600160401b038111611c05578060018501928b611abf8554612c4d565b601f8111611c88575b5050602090601f8311600114611c24578c92611c19575b50508160011b916000199060031b1c19161790555b60408101518051906001600160401b038211611c0557600160401b8211611c05576020908a600286015484600288015584818110611be7575b50505001600284018a5260208a20995b828110611bca5750602089807f1c345760f79216d8ae8d24b381732e119bfb958da92cecb58ce8fe1df68a58b48b8b611bbf8c8c611b9b8d600460808f606081015160038501550151151591019060ff801983541691151516179055565b611bb26040519586956040875260408701916132d3565b918483038a8601526132d3565b0390a2604051908152f35b81516001600160a01b0316818c0155602090910190600101611b3d565b84611bfd9360028a0181522091820191016132bc565b8a3884611b2d565b634e487b7160e01b8a52604160045260248afd5b015190503880611adf565b848d5260208d209250601f1984168d5b818110611c705750908460019594939210611c57575b505050811b019055611af4565b015160001960f88460031b161c19169055388080611c4a565b92936020600181928786015181550195019301611c34565b60208287611cb1945220601f850160051c81019160208610610ed457601f0160051c01906132bc565b8b38611ac8565b015190503880611a84565b858c5260208c209250601f1984168c5b818110611d0f5750908460019594939210611cf6575b505050811b018255611a99565b015160001960f88460031b161c19169055388080611ce9565b92936020600181928786015181550195019301611cd3565b611d5190868d5260208d20601f850160051c81019160208610610ed457601f0160051c01906132bc565b38611a6e565b8335916001600160a01b038316830361101a57602081602494829352019401939150611a14565b60405162461bcd60e51b815260206004820152601060248201526f13595b58995c9cc81c995c5d5a5c995960821b6044820152606490fd5b60405162461bcd60e51b815260206004820152600d60248201526c13985b59481c995c5d5a5c9959609a1b6044820152606490fd5b8680fd5b8580fd5b5034610282578060031936011261028257602060ff600254166040519015158152f35b50346102825760208060031936011261101f576001600160a01b039081611e3b612e08565b16918215611f2757338314611eeb573384526011825260408420541680611ec4575b503383526011815260408320826001600160601b0360a01b825416179055600c8152601260408420549183855252611e9a6040842091825461311c565b9055337f4bc154dd35d6a5cb9206482ecb473cdbf2473006d6bce728b9cc0741bcc59ea28380a380f35b600c8252604084205490845260128252611ee360408520918254613180565b905538611e5d565b60405162461bcd60e51b815260048101839052601460248201527343616e6e6f742073656c662d64656c656761746560601b6044820152606490fd5b60405162461bcd60e51b8152600481018390526011602482015270496e76616c69642064656c65676174656560781b6044820152606490fd5b5034610282576020366003190112610282576020906001600160a01b039060409082611f8a612e08565b16815260118452205416604051908152f35b50346102825760208060031936011261101f57600435908183526009815260408320600c810190815460ff811660088110156122dd576001611fde91146132f4565b600a82015442106122a557600d820154600e8301549161200c612001848461311c565b600f8601549061311c565b6040516318160ddd60e01b81526001600160a01b037f000000000000000000000000000000000000000000000000000000000000000081169590949092909189816004818a5afa90811561229a578c91612269575b506040516370a0823160e01b81523060048201528a816024818b5afa90811561225e578d9161222b575b506120ad6120a4606492670de0b6b3a764000094613180565b600754906131d5565b0404111591606482029180830460641481151715612217576120db916120d29161311c565b600854906131d5565b108161220f575b501561212e575050506000805160206133d4833981519152929160ff9160038319835416178255600b6121176006544261311c565b9101555b541661212a6040518092612dfb565ba280f35b60059060ff94939419161784556003546050810290808204605014901517156121fb579161218191600160648a969504920154168452600c86526040842061217782825461311c565b9055600354613180565b90803b1561102357602483926040519485938492630852cd8d60e31b845260048401525af180156121f0576121ca575b509060ff6000805160206133d48339815191529261211b565b6000805160206133d48339815191529291946121e760ff92612c87565b949192506121b1565b6040513d87823e3d90fd5b634e487b7160e01b88526011600452602488fd5b9050386120e2565b634e487b7160e01b8c52601160045260248cfd5b90508a81813d8311612257575b6122428183612ce7565b8101031261225357516120ad61208b565b8c80fd5b503d612238565b6040513d8f823e3d90fd5b90508981813d8311612293575b6122808183612ce7565b8101031261228f575138612061565b8b80fd5b503d612276565b6040513d8e823e3d90fd5b60405162461bcd60e51b815260048101859052601060248201526f159bdd1a5b99c81b9bdd08195b99195960821b6044820152606490fd5b634e487b7160e01b87526021600452602487fd5b50346102825780600319360112610282576020600754604051908152f35b5034610282578060031936011261028257612328612ed9565b60025460ff8116156123685760ff19166002557f5db9ee0a495bf2e6ff9c91a7834c1ba4fdd244a5e8aa4e537bd38aeae4b073aa6020604051338152a180f35b604051638dfc202b60e01b8152600490fd5b503461028257602036600319011261028257600435808252600960205260408220600c81019081549060ff8216600881101561246257612429576009015442106123e45760019060ff19161790556000805160206133d4833981519152602060405160018152a280f35b60405162461bcd60e51b815260206004820152601a60248201527f44697363757373696f6e20706572696f64206e6f74206f7665720000000000006044820152606490fd5b60405162461bcd60e51b81526020600482015260116024820152702737ba1034b7103234b9b1bab9b9b4b7b760791b6044820152606490fd5b634e487b7160e01b86526021600452602486fd5b503461028257604036600319011261028257612490612e1e565b336001600160a01b038216036124ac5761059c90600435613013565b60405163334bd91960e11b8152600490fd5b50346102825780600319360112610282576020600f54604051908152f35b50346102825780600319360112610282576020601054604051908152f35b50346102825780600319360112610282576020600554604051908152f35b50346102825760403660031901126102825761059c600435612538612e1e565b90808452836020526125506001604086200154612f6f565b612f95565b50346102825760208060031936011261101f576004359061257461315d565b61257f821515613088565b338352600c81528160408420541061263f57338352600c8152604083206125a7838254613180565b905560405163a9059cbb60e01b815233600482015260248101839052908082604481876001600160a01b037f0000000000000000000000000000000000000000000000000000000000000000165af19182156113a2577f9845e367b683334e5c0b12d7b81721ac518e649376fa65e3d68324e8f34f26799261262f91869161138b57506130de565b6040519283523392a26001805580f35b6064906040519062461bcd60e51b825260048201526012602482015271496e73756666696369656e74207374616b6560701b6044820152fd5b503461028257806003193601126102825760206040517f55435dd261a4b9b3364963f7738a7a662ad9c84396d64be3365284bb7f0a50418152f35b503461028257602036600319011261028257600160406020926004358152808452200154604051908152f35b5034610282576020366003190112610282576020906040906001600160a01b03612707612e08565b168152601283522054604051908152f35b50346102825760208060031936011261101f57600435907fd8aa0f3194971a2a116679f7c2090f6939c8d4e01a2a8d7e41d55e5351469e6380845283825260408420338552825260ff60408520541615612a21575061277561315d565b818352600981526040832090600c8201805460ff811660088110156122dd576003036129ef57600b84015442106129b45760049060108501908154916127be60ff84161561333c565b600160ff198094161790551617905560ff60058301541660058110156129a0571580612993575b612857575b6003546001909201546001600160a01b03168452600c81526040842080546000805160206133d4833981519152936128219161311c565b9055604051837f712ae1383f79ac853f8d882153778e0260ef8f03b504e2866e0593e04d2b291f8680a260048152a26001805580f35b601054916006810192835490818110612956579061287491613180565b601055600781018054845460405163a9059cbb60e01b81526001600160a01b03928316600482015260248101919091529194919084826044818b7f000000000000000000000000000000000000000000000000000000000000000086165af190811561294b576000805160206133d48339815191529661291e6040937f241d26202ece0e96f169c3ab6b0d540776434219c78f5727afa20c32cf367a29958c9161293457506130de565b5416925481519081528786820152a291506127ea565b610a439150893d8b11610a4957610a3b8183612ce7565b6040513d8a823e3d90fd5b60405162461bcd60e51b8152600481018590526015602482015274496e73756666696369656e7420747265617375727960581b6044820152606490fd5b50600682015415156127e5565b634e487b7160e01b85526021600452602485fd5b60405162461bcd60e51b8152600481018490526013602482015272151a5b595b1bd8dac81b9bdd081c185cdcd959606a1b6044820152606490fd5b60405162461bcd60e51b815260048101849052600a602482015269139bdd081c5d595d595960b21b6044820152606490fd5b6044906040519063e2517d3f60e01b82523360048301526024820152fd5b503461028257806003193601126102825760206040517fd8aa0f3194971a2a116679f7c2090f6939c8d4e01a2a8d7e41d55e5351469e638152f35b50346102825780600319360112610282576020600454604051908152f35b50346102825760203660031901126102825760043563ffffffff60e01b811680910361101f57602090637965db0b60e01b8114908115612ade575b506040519015158152f35b6301ffc9a760e01b14905082612ad3565b5034610282576020366003190112610282576004358152600960205260409020805460e05260018101546001600160a01b039190821690612b3260028201612d08565b60a052612b4160038201612d08565b90600481015460c052600581015460ff169360068201549060078301541660088301546009840154600a850154600b86015491600c87015460ff1693600d88015495600e89015497600f8a0154996010015460ff169a6040519c8d60809e8f5260e05190528d51602001528c610220809151604001528d510160a05190612bc791612dae565b8d518082039060600152612bda91612dae565b9c60c0518d805101528c5160a001612bf191612dee565b8b5160c001528a5160e0015289516101000152885161012001528751610140015286516101600152855161018001612c2891612dfb565b84516101a0015283516101c0015282516101e001521515815161020001525180910390f35b90600182811c92168015612c7d575b6020831014612c6757565b634e487b7160e01b600052602260045260246000fd5b91607f1691612c5c565b6001600160401b038111612c9a57604052565b634e487b7160e01b600052604160045260246000fd5b60a081019081106001600160401b03821117612c9a57604052565b61022081019081106001600160401b03821117612c9a57604052565b90601f801991011681019081106001600160401b03821117612c9a57604052565b9060405191826000825492612d1c84612c4d565b908184526001948581169081600014612d8b5750600114612d48575b5050612d4692500383612ce7565b565b9093915060005260209081600020936000915b818310612d73575050612d4693508201013880612d38565b85548884018501529485019487945091830191612d5b565b915050612d4694506020925060ff191682840152151560051b8201013880612d38565b919082519283825260005b848110612dda575050826000602080949584010152601f8019910116010190565b602081830181015184830182015201612db9565b9060058210156108335752565b9060088210156108335752565b600435906001600160a01b038216820361101a57565b602435906001600160a01b038216820361101a57565b9181601f8401121561101a578235916001600160401b03831161101a576020838186019501011161101a57565b9060038210156108335752565b90815180825260208080930193019160005b828110612e8e575050505090565b83516001600160a01b031685529381019392810192600101612e80565b8054821015612ec35760005260206000200190600090565b634e487b7160e01b600052603260045260246000fd5b3360009081527f8a40f0b47fdc2a0ce293b772acfc7508c8315a4d462786c1adc3a56f92ca2d0560205260409020547f55435dd261a4b9b3364963f7738a7a662ad9c84396d64be3365284bb7f0a50419060ff1615612a215750565b3360009081527fad3228b676f7d3cd4284a5443f17f1962b36e491b30a40b2405849e597ba5fb5602052604081205460ff1615612a215750565b80600052600060205260406000203360005260205260ff6040600020541615612a215750565b9060009180835282602052604083209160018060a01b03169182845260205260ff6040842054161560001461300e57808352826020526040832082845260205260408320600160ff198254161790557f2f8788117e7eff1d82e926ec794901d17c78024a50270940304540a733656f0d339380a4600190565b505090565b9060009180835282602052604083209160018060a01b03169182845260205260ff60408420541660001461300e5780835282602052604083208284526020526040832060ff1981541690557ff6391f5c32d9c69d2a47ea670b442974b53935d1edc7fd64eb21e047a839171b339380a4600190565b1561308f57565b60405162461bcd60e51b815260206004820152600f60248201526e105b5bdd5b9d081c995c5d5a5c9959608a1b6044820152606490fd5b9081602091031261101a5751801515810361101a5790565b156130e557565b60405162461bcd60e51b815260206004820152600f60248201526e151c985b9cd9995c8819985a5b1959608a1b6044820152606490fd5b9190820180921161312957565b634e487b7160e01b600052601160045260246000fd5b60ff6002541661314b57565b60405163d93c066560e01b8152600490fd5b60026001541461316e576002600155565b604051633ee5aeb560e01b8152600490fd5b9190820391821161312957565b6131ca9060018060a01b03809116600052600c6020526040600020546012602052604060002054916011602052604060002054166131cd5761311c565b90565b50600061311c565b8181029291811591840414171561312957565b6131f290806131d5565b670de0b6b3a7640000908181029181830414901517156131295790565b1561321657565b60405162461bcd60e51b815260206004820152601960248201527f496e73756666696369656e7420766f74696e6720706f776572000000000000006044820152606490fd5b60001981146131295760010190565b9291926001600160401b038211612c9a5760405191613293601f8201601f191660200184612ce7565b82948184528183011161101a578281602093846000960137010152565b60058210156108335752565b8181106132c7575050565b600081556001016132bc565b908060209392818452848401376000828201840152601f01601f1916010190565b156132fb57565b60405162461bcd60e51b815260206004820152600d60248201526c4e6f7420696e20766f74696e6760981b6044820152606490fd5b60038210156108335752565b1561334357565b60405162461bcd60e51b815260206004820152601060248201526f105b1c9958591e48195e1958dd5d195960821b6044820152606490fd5b9060405191828154918282526020928383019160005283600020936000905b8282106133b057505050612d4692500383612ce7565b85546001600160a01b03168452600195860195889550938101939091019061339a56fe3346abf262ac5179e9052765fb72484e0baab1f356f08442bb7a3054147631dea2646970667358221220c131b4be3a3c72c07d14cc16c57b4429d5490df46ead58c14a909350d9ded52d64736f6c634300081400332f8788117e7eff1d82e926ec794901d17c78024a50270940304540a733656f0d",
  "linkReferences": {},
  "deployedLinkReferences": {}
}