{
  "_format": "hh-sol-artifact-1",
  "contractName": "KaiDisaster",
  "sourceName": "contracts/pillars/KaiDisaster.sol",
  "abi": [
    {
      "inputs": [
        {
          "internalType": "address",
          "name": "_kaiToken",
          "type": "address"
        },
        {
          "internalType": "address",
          "name": "admin",
          "type": "address"
        }
      ],
      "stateMutability": "nonpayable",
      "type": "constructor"
    },
    {
      "inputs": [],
      "name": "AccessControlBadConfirmation",
      "type": "error"
    },
    {
      "inputs": [
        {
          "internalType": "address",
          "name": "account",
          "type": "address"
        },
        {
          "internalType": "bytes32",
          "name": "neededRole",
          "type": "bytes32"
        }
      ],
      "name": "AccessControlUnauthorizedAccount",
      "type": "error"
    },
    {
      "inputs": [],
      "name": "EnforcedPause",
      "type": "error"
    },
    {
      "inputs": [],
      "name": "ExpectedPause",
      "type": "error"
    },
    {
      "inputs": [],
      "name": "ReentrancyGuardReentrantCall",
      "type": "error"
    },
    {
      "anonymous": false,
      "inputs": [
        {
          "indexed": true,
          "internalType": "uint256",
          "name": "alertId",
          "type": "uint256"
        },
        {
          "indexed": false,
          "internalType": "string",
          "name": "disasterType",
          "type": "string"
        },
        {
          "indexed": false,
          "internalType": "string",
          "name": "region",
          "type": "string"
        },
        {
          "indexed": false,
          "internalType": "uint256",
          "name": "riskScore",
          "type": "uint256"
        }
      ],
      "name": "AlertIssued",
      "type": "event"
    },
    {
      "anonymous": false,
      "inputs": [
        {
          "indexed": true,
          "internalType": "uint256",
          "name": "alertId",
          "type": "uint256"
        },
        {
          "indexed": false,
          "internalType": "uint256",
          "name": "respondersRewarded",
          "type": "uint256"
        }
      ],
      "name": "AlertResolved",
      "type": "event"
    },
    {
      "anonymous": false,
      "inputs": [
        {
          "indexed": true,
          "internalType": "address",
          "name": "from",
          "type": "address"
        },
        {
          "indexed": false,
          "internalType": "uint256",
          "name": "amount",
          "type": "uint256"
        }
      ],
      "name": "EmergencyFundDeposit",
      "type": "event"
    },
    {
      "anonymous": false,
      "inputs": [
        {
          "indexed": true,
          "internalType": "uint256",
          "name": "alertId",
          "type": "uint256"
        },
        {
          "indexed": true,
          "internalType": "address",
          "name": "to",
          "type": "address"
        },
        {
          "indexed": false,
          "internalType": "uint256",
          "name": "amount",
          "type": "uint256"
        }
      ],
      "name": "EmergencyPayout",
      "type": "event"
    },
    {
      "anonymous": false,
      "inputs": [
        {
          "indexed": false,
          "internalType": "address",
          "name": "account",
          "type": "address"
        }
      ],
      "name": "Paused",
      "type": "event"
    },
    {
      "anonymous": false,
      "inputs": [
        {
          "indexed": true,
          "internalType": "uint256",
          "name": "alertId",
          "type": "uint256"
        },
        {
          "indexed": true,
          "internalType": "address",
          "name": "responder",
          "type": "address"
        },
        {
          "indexed": false,
          "internalType": "bytes32",
          "name": "evidenceHash",
          "type": "bytes32"
        }
      ],
      "name": "ResponseSubmitted",
      "type": "event"
    },
    {
      "anonymous": false,
      "inputs": [
        {
          "indexed": true,
          "internalType": "uint256",
          "name": "alertId",
          "type": "uint256"
        },
        {
          "indexed": true,
          "internalType": "address",
          "name": "responder",
          "type": "address"
        },
        {
          "indexed": false,
          "internalType": "uint256",
          "name": "reward",
          "type": "uint256"
        }
      ],
      "name": "ResponseVerified",
      "type": "event"
    },
    {
      "anonymous": false,
      "inputs": [
        {
          "indexed": true,
          "internalType": "bytes32",
          "name": "role",
          "type": "bytes32"
        },
        {
          "indexed": true,
          "internalType": "bytes32",
          "name": "previousAdminRole",
          "type": "bytes32"
        },
        {
          "indexed": true,
          "internalType": "bytes32",
          "name": "newAdminRole",
          "type": "bytes32"
        }
      ],
      "name": "RoleAdminChanged",
      "type": "event"
    },
    {
      "anonymous": false,
      "inputs": [
        {
          "indexed": true,
          "internalType": "bytes32",
          "name": "role",
          "type": "bytes32"
        },
        {
          "indexed": true,
          "internalType": "address",
          "name": "account",
          "type": "address"
        },
        {
          "indexed": true,
          "internalType": "address",
          "name": "sender",
          "type": "address"
        }
      ],
      "name": "RoleGranted",
      "type": "event"
    },
    {
      "anonymous": false,
      "inputs": [
        {
          "indexed": true,
          "internalType": "bytes32",
          "name": "role",
          "type": "bytes32"
        },
        {
          "indexed": true,
          "internalType": "address",
          "name": "account",
          "type": "address"
        },
        {
          "indexed": true,
          "internalType": "address",
          "name": "sender",
          "type": "address"
        }
      ],
      "name": "RoleRevoked",
      "type": "event"
    },
    {
      "anonymous": false,
      "inputs": [
        {
          "indexed": true,
          "internalType": "address",
          "name": "user",
          "type": "address"
        },
        {
          "indexed": false,
          "internalType": "uint256",
          "name": "tier",
          "type": "uint256"
        },
        {
          "indexed": false,
          "internalType": "uint256",
          "name": "expiresAt",
          "type": "uint256"
        }
      ],
      "name": "Subscribed",
      "type": "event"
    },
    {
      "anonymous": false,
      "inputs": [
        {
          "indexed": false,
          "internalType": "address",
          "name": "account",
          "type": "address"
        }
      ],
      "name": "Unpaused",
      "type": "event"
    },
    {
      "inputs": [],
      "name": "DEFAULT_ADMIN_ROLE",
      "outputs": [
        {
          "internalType": "bytes32",
          "name": "",
          "type": "bytes32"
        }
      ],
      "stateMutability": "view",
      "type": "function"
    },
    {
      "inputs": [],
      "name": "EMERGENCY_PAYOUT_CAP",
      "outputs": [
        {
          "internalType": "uint256",
          "name": "",
          "type": "uint256"
        }
      ],
      "stateMutability": "view",
      "type": "function"
    },
    {
      "inputs": [],
      "name": "ORACLE_ROLE",
      "outputs": [
        {
          "internalType": "bytes32",
          "name": "",
          "type": "bytes32"
        }
      ],
      "stateMutability": "view",
      "type": "function"
    },
    {
      "inputs": [],
      "name": "RESPONDER_ROLE",
      "outputs": [
        {
          "internalType": "bytes32",
          "name": "",
          "type": "bytes32"
        }
      ],
      "stateMutability": "view",
      "type": "function"
    },
    {
      "inputs": [],
      "name": "alertCooldown",
      "outputs": [
        {
          "internalType": "uint256",
          "name": "",
          "type": "uint256"
        }
      ],
      "stateMutability": "view",
      "type": "function"
    },
    {
      "inputs": [],
      "name": "alertCount",
      "outputs": [
        {
          "internalType": "uint256",
          "name": "",
          "type": "uint256"
        }
      ],
      "stateMutability": "view",
      "type": "function"
    },
    {
      "inputs": [
        {
          "internalType": "uint256",
          "name": "",
          "type": "uint256"
        },
        {
          "internalType": "uint256",
          "name": "",
          "type": "uint256"
        }
      ],
      "name": "alertResponses",
      "outputs": [
        {
          "internalType": "address",
          "name": "responder",
          "type": "address"
        },
        {
          "internalType": "uint256",
          "name": "alertId",
          "type": "uint256"
        },
        {
          "internalType": "string",
          "name": "actionTaken",
          "type": "string"
        },
        {
          "internalType": "bytes32",
          "name": "evidenceHash",
          "type": "bytes32"
        },
        {
          "internalType": "uint256",
          "name": "timestamp",
          "type": "uint256"
        },
        {
          "internalType": "bool",
          "name": "verified",
          "type": "bool"
        },
        {
          "internalType": "uint256",
          "name": "reward",
          "type": "uint256"
        }
      ],
      "stateMutability": "view",
      "type": "function"
    },
    {
      "inputs": [
        {
          "internalType": "uint256",
          "name": "",
          "type": "uint256"
        }
      ],
      "name": "alerts",
      "outputs": [
        {
          "internalType": "uint256",
          "name": "id",
          "type": "uint256"
        },
        {
          "internalType": "string",
          "name": "disasterType",
          "type": "string"
        },
        {
          "internalType": "string",
          "name": "region",
          "type": "string"
        },
        {
          "internalType": "uint256",
          "name": "riskScore",
          "type": "uint256"
        },
        {
          "internalType": "uint256",
          "name": "timestamp",
          "type": "uint256"
        },
        {
          "internalType": "bool",
          "name": "resolved",
          "type": "bool"
        },
        {
          "internalType": "uint256",
          "name": "respondersRewarded",
          "type": "uint256"
        }
      ],
      "stateMutability": "view",
      "type": "function"
    },
    {
      "inputs": [],
      "name": "basicSubscriptionFee",
      "outputs": [
        {
          "internalType": "uint256",
          "name": "",
          "type": "uint256"
        }
      ],
      "stateMutability": "view",
      "type": "function"
    },
    {
      "inputs": [],
      "name": "claimRewards",
      "outputs": [],
      "stateMutability": "nonpayable",
      "type": "function"
    },
    {
      "inputs": [
        {
          "internalType": "uint256",
          "name": "amount",
          "type": "uint256"
        }
      ],
      "name": "depositToEmergencyFund",
      "outputs": [],
      "stateMutability": "nonpayable",
      "type": "function"
    },
    {
      "inputs": [],
      "name": "emergencyFund",
      "outputs": [
        {
          "internalType": "uint256",
          "name": "",
          "type": "uint256"
        }
      ],
      "stateMutability": "view",
      "type": "function"
    },
    {
      "inputs": [
        {
          "internalType": "uint256",
          "name": "alertId",
          "type": "uint256"
        },
        {
          "internalType": "address",
          "name": "recipient",
          "type": "address"
        },
        {
          "internalType": "uint256",
          "name": "amount",
          "type": "uint256"
        }
      ],
      "name": "emergencyPayout",
      "outputs": [],
      "stateMutability": "nonpayable",
      "type": "function"
    },
    {
      "inputs": [
        {
          "internalType": "uint256",
          "name": "alertId",
          "type": "uint256"
        }
      ],
      "name": "getAlert",
      "outputs": [
        {
          "components": [
            {
              "internalType": "uint256",
              "name": "id",
              "type": "uint256"
            },
            {
              "internalType": "string",
              "name": "disasterType",
              "type": "string"
            },
            {
              "internalType": "string",
              "name": "region",
              "type": "string"
            },
            {
              "internalType": "uint256",
              "name": "riskScore",
              "type": "uint256"
            },
            {
              "internalType": "uint256",
              "name": "timestamp",
              "type": "uint256"
            },
            {
              "internalType": "bool",
              "name": "resolved",
              "type": "bool"
            },
            {
              "internalType": "uint256",
              "name": "respondersRewarded",
              "type": "uint256"
            }
          ],
          "internalType": "struct KaiDisaster.Alert",
          "name": "",
          "type": "tuple"
        }
      ],
      "stateMutability": "view",
      "type": "function"
    },
    {
      "inputs": [
        {
          "internalType": "uint256",
          "name": "alertId",
          "type": "uint256"
        }
      ],
      "name": "getAlertResponses",
      "outputs": [
        {
          "components": [
            {
              "internalType": "address",
              "name": "responder",
              "type": "address"
            },
            {
              "internalType": "uint256",
              "name": "alertId",
              "type": "uint256"
            },
            {
              "internalType": "string",
              "name": "actionTaken",
              "type": "string"
            },
            {
              "internalType": "bytes32",
              "name": "evidenceHash",
              "type": "bytes32"
            },
            {
              "internalType": "uint256",
              "name": "timestamp",
              "type": "uint256"
            },
            {
              "internalType": "bool",
              "name": "verified",
              "type": "bool"
            },
            {
              "internalType": "uint256",
              "name": "reward",
              "type": "uint256"
            }
          ],
          "internalType": "struct KaiDisaster.Response[]",
          "name": "",
          "type": "tuple[]"
        }
      ],
      "stateMutability": "view",
      "type": "function"
    },
    {
      "inputs": [
        {
          "internalType": "bytes32",
          "name": "role",
          "type": "bytes32"
        }
      ],
      "name": "getRoleAdmin",
      "outputs": [
        {
          "internalType": "bytes32",
          "name": "",
          "type": "bytes32"
        }
      ],
      "stateMutability": "view",
      "type": "function"
    },
    {
      "inputs": [
        {
          "internalType": "address",
          "name": "user",
          "type": "address"
        }
      ],
      "name": "getSubscription",
      "outputs": [
        {
          "components": [
            {
              "internalType": "uint256",
              "name": "tier",
              "type": "uint256"
            },
            {
              "internalType": "uint256",
              "name": "expiresAt",
              "type": "uint256"
            },
            {
              "internalType": "uint256",
              "name": "alertsReceived",
              "type": "uint256"
            },
            {
              "internalType": "bool",
              "name": "active",
              "type": "bool"
            }
          ],
          "internalType": "struct KaiDisaster.Subscription",
          "name": "",
          "type": "tuple"
        }
      ],
      "stateMutability": "view",
      "type": "function"
    },
    {
      "inputs": [
        {
          "internalType": "address",
          "name": "oracle",
          "type": "address"
        }
      ],
      "name": "grantOracleRole",
      "outputs": [],
      "stateMutability": "nonpayable",
      "type": "function"
    },
    {
      "inputs": [
        {
          "internalType": "address",
          "name": "responder",
          "type": "address"
        }
      ],
      "name": "grantResponderRole",
      "outputs": [],
      "stateMutability": "nonpayable",
      "type": "function"
    },
    {
      "inputs": [
        {
          "internalType": "bytes32",
          "name": "role",
          "type": "bytes32"
        },
        {
          "internalType": "address",
          "name": "account",
          "type": "address"
        }
      ],
      "name": "grantRole",
      "outputs": [],
      "stateMutability": "nonpayable",
      "type": "function"
    },
    {
      "inputs": [
        {
          "internalType": "address",
          "name": "user",
          "type": "address"
        }
      ],
      "name": "hasActiveSubscription",
      "outputs": [
        {
          "internalType": "bool",
          "name": "",
          "type": "bool"
        }
      ],
      "stateMutability": "view",
      "type": "function"
    },
    {
      "inputs": [
        {
          "internalType": "bytes32",
          "name": "role",
          "type": "bytes32"
        },
        {
          "internalType": "address",
          "name": "account",
          "type": "address"
        }
      ],
      "name": "hasRole",
      "outputs": [
        {
          "internalType": "bool",
          "name": "",
          "type": "bool"
        }
      ],
      "stateMutability": "view",
      "type": "function"
    },
    {
      "inputs": [
        {
          "internalType": "string",
          "name": "disasterType",
          "type": "string"
        },
        {
          "internalType": "string",
          "name": "region",
          "type": "string"
        },
        {
          "internalType": "uint256",
          "name": "riskScore",
          "type": "uint256"
        }
      ],
      "name": "issueAlert",
      "outputs": [
        {
          "internalType": "uint256",
          "name": "",
          "type": "uint256"
        }
      ],
      "stateMutability": "nonpayable",
      "type": "function"
    },
    {
      "inputs": [],
      "name": "kaiToken",
      "outputs": [
        {
          "internalType": "contract KaiToken",
          "name": "",
          "type": "address"
        }
      ],
      "stateMutability": "view",
      "type": "function"
    },
    {
      "inputs": [],
      "name": "pause",
      "outputs": [],
      "stateMutability": "nonpayable",
      "type": "function"
    },
    {
      "inputs": [],
      "name": "paused",
      "outputs": [
        {
          "internalType": "bool",
          "name": "",
          "type": "bool"
        }
      ],
      "stateMutability": "view",
      "type": "function"
    },
    {
      "inputs": [],
      "name": "premiumSubscriptionFee",
      "outputs": [
        {
          "internalType": "uint256",
          "name": "",
          "type": "uint256"
        }
      ],
      "stateMutability": "view",
      "type": "function"
    },
    {
      "inputs": [
        {
          "internalType": "bytes32",
          "name": "role",
          "type": "bytes32"
        },
        {
          "internalType": "address",
          "name": "callerConfirmation",
          "type": "address"
        }
      ],
      "name": "renounceRole",
      "outputs": [],
      "stateMutability": "nonpayable",
      "type": "function"
    },
    {
      "inputs": [
        {
          "internalType": "uint256",
          "name": "alertId",
          "type": "uint256"
        }
      ],
      "name": "resolveAlert",
      "outputs": [],
      "stateMutability": "nonpayable",
      "type": "function"
    },
    {
      "inputs": [
        {
          "internalType": "address",
          "name": "",
          "type": "address"
        }
      ],
      "name": "responderRewards",
      "outputs": [
        {
          "internalType": "uint256",
          "name": "",
          "type": "uint256"
        }
      ],
      "stateMutability": "view",
      "type": "function"
    },
    {
      "inputs": [
        {
          "internalType": "bytes32",
          "name": "role",
          "type": "bytes32"
        },
        {
          "internalType": "address",
          "name": "account",
          "type": "address"
        }
      ],
      "name": "revokeRole",
      "outputs": [],
      "stateMutability": "nonpayable",
      "type": "function"
    },
    {
      "inputs": [],
      "name": "riskThreshold",
      "outputs": [
        {
          "internalType": "uint256",
          "name": "",
          "type": "uint256"
        }
      ],
      "stateMutability": "view",
      "type": "function"
    },
    {
      "inputs": [
        {
          "internalType": "uint256",
          "name": "threshold",
          "type": "uint256"
        }
      ],
      "name": "setRiskThreshold",
      "outputs": [],
      "stateMutability": "nonpayable",
      "type": "function"
    },
    {
      "inputs": [
        {
          "internalType": "uint256",
          "name": "basic",
          "type": "uint256"
        },
        {
          "internalType": "uint256",
          "name": "premium",
          "type": "uint256"
        }
      ],
      "name": "setSubscriptionFees",
      "outputs": [],
      "stateMutability": "nonpayable",
      "type": "function"
    },
    {
      "inputs": [
        {
          "internalType": "uint256",
          "name": "alertId",
          "type": "uint256"
        },
        {
          "internalType": "string",
          "name": "actionTaken",
          "type": "string"
        },
        {
          "internalType": "bytes32",
          "name": "evidenceHash",
          "type": "bytes32"
        }
      ],
      "name": "submitResponse",
      "outputs": [],
      "stateMutability": "nonpayable",
      "type": "function"
    },
    {
      "inputs": [
        {
          "internalType": "uint256",
          "name": "tier",
          "type": "uint256"
        }
      ],
      "name": "subscribe",
      "outputs": [],
      "stateMutability": "nonpayable",
      "type": "function"
    },
    {
      "inputs": [],
      "name": "subscriptionDuration",
      "outputs": [
        {
          "internalType": "uint256",
          "name": "",
          "type": "uint256"
        }
      ],
      "stateMutability": "view",
      "type": "function"
    },
    {
      "inputs": [
        {
          "internalType": "address",
          "name": "",
          "type": "address"
        }
      ],
      "name": "subscriptions",
      "outputs": [
        {
          "internalType": "uint256",
          "name": "tier",
          "type": "uint256"
        },
        {
          "internalType": "uint256",
          "name": "expiresAt",
          "type": "uint256"
        },
        {
          "internalType": "uint256",
          "name": "alertsReceived",
          "type": "uint256"
        },
        {
          "internalType": "bool",
          "name": "active",
          "type": "bool"
        }
      ],
      "stateMutability": "view",
      "type": "function"
    },
    {
      "inputs": [
        {
          "internalType": "bytes4",
          "name": "interfaceId",
          "type": "bytes4"
        }
      ],
      "name": "supportsInterface",
      "outputs": [
        {
          "internalType": "bool",
          "name": "",
          "type": "bool"
        }
      ],
      "stateMutability": "view",
      "type": "function"
    },
    {
      "inputs": [],
      "name": "totalAlertsIssued",
      "outputs": [
        {
          "internalType": "uint256",
          "name": "",
          "type": "uint256"
        }
      ],
      "stateMutability": "view",
      "type": "function"
    },
    {
      "inputs": [],
      "name": "totalResponsesVerified",
      "outputs": [
        {
          "internalType": "uint256",
          "name": "",
          "type": "uint256"
        }
      ],
      "stateMutability": "view",
      "type": "function"
    },
    {
      "inputs": [],
      "name": "unpause",
      "outputs": [],
      "stateMutability": "nonpayable",
      "type": "function"
    },
    {
      "inputs": [
        {
          "internalType": "uint256",
          "name": "alertId",
          "type": "uint256"
        },
        {
          "internalType": "uint256",
          "name": "responseIndex",
          "type": "uint256"
        },
        {
          "internalType": "uint256",
          "name": "rewardAmount",
          "type": "uint256"
        }
      ],
      "name": "verifyResponse",
      "outputs": [],
      "stateMutability": "nonpayable",
      "type": "function"
    }
  ],
  "bytecode": "0x60a0346200015e57601f620028b738819003918201601f19168301916001600160401b03831184841017620001635780849260409485528339810103126200015e576200005a6020620000528362000179565b920162000179565b60018055678ac7230489e800006003556802b5e3af16b188000060045562278d006005556046600655610e106007556001600160a01b039182169182156200012957811615620000f457620000be91608052620000b7816200018e565b506200020e565b506040516125e69081620002b1823960805181818161083901528181610fb0015281816113f301528181611ac50152611ce80152f35b60405162461bcd60e51b815260206004820152600d60248201526c24b73b30b634b21030b236b4b760991b6044820152606490fd5b60405162461bcd60e51b815260206004820152600d60248201526c24b73b30b634b2103a37b5b2b760991b6044820152606490fd5b600080fd5b634e487b7160e01b600052604160045260246000fd5b51906001600160a01b03821682036200015e57565b6001600160a01b031660008181527fad3228b676f7d3cd4284a5443f17f1962b36e491b30a40b2405849e597ba5fb5602052604081205490919060ff166200020a57818052816020526040822081835260205260408220600160ff198254161790553391600080516020620028978339815191528180a4600190565b5090565b6001600160a01b031660008181527fa629f6981c2f6895a67dc766e8e03ff72d04a413d0d8773a3ca56e9e474032c160205260408120549091907f68e79a7bf1e0bc45d0a330c573bc367f9cf464fd326078812f301165fbda4ef19060ff16620002ab57808352826020526040832082845260205260408320600160ff1982541617905560008051602062002897833981519152339380a4600190565b50509056fe608080604052600436101561001357600080fd5b60009060e08235811c91826301ffc9a714611e9f5750816307e2cea514611e645781630cbebc2414611dc05781630cee332214611c925781630f574ba714611a59578163171d073a146119d95781631c95d81c146119bb5781631fb1544c1461199d578163248a9ca3146119715781632c7084b3146119535781632d30519d146115cb5781632e0e053f146115145781632f2ff15d146114d757816336568abe1461148f578163372500ab1461138b5781633f4ba83a1461132057816350c5d473146112f6578163514ebb42146112bb5781635a7c4ed61461129d5781635c975abb1461127a5781637083d1c214611216578163764c4fc8146111f55781637a94a633146111d75781638456cb591461117c578163850818861461106357816391d14854146110185781639365e2d514610fdf5781639bcfdfc014610f9a578163a217fddf14610f7e578163ab44649114610f60578163ad969d5b14610ebf578163b43e6cb414610ea1578163b963618414610998578163b9c75dc314610775578163bebe4a571461071d578163c3732cad146106ff578163cc859378146106e1578163d547741f146106a4578163d669dc05146104ff57508063df9c49a3146104d1578063f046395a14610470578063f398fb0d146102225763f6b28c80146101fc57600080fd5b3461021f578060031936011261021f576020604051683635c9adc5dea000008152f35b80fd5b503461021f57606036600319011261021f573360009081527f1d42a09cf6ce032e6c7e75793c7e15220cb878ddeae5a4f288bd199917f1597d60209081526040909120546044359160043591602435907f4d9863970d41475dce450df64b8c3f5625245716124ab2023150cc6828d194c49060ff161561045257506102a56124cb565b828552600b8252604085205481101561041d57683635c9adc5dea0000084116103ea576102dc90838652600b8352604086206120f9565b5060058101805460ff81166103b2579060017fe4f27cf8170101b5a4e433d63f97b8a45eba8dbc8452a78ac8d74cedb382aded94939260ff1916179055846006820155838652600a82526006604087200161033781546124ee565b9055841515806103a6575b61036e575b610352600f546124ee565b600f55546040519485526001600160a01b031693a36001805580f35b61037a856008546125a3565b60085580546001600160a01b03168652600c825260408620805461039f90879061248a565b9055610347565b50846008541015610342565b60405162461bcd60e51b815260048101859052601060248201526f105b1c9958591e481d995c9a599a595960821b6044820152606490fd5b60405162461bcd60e51b815260048101839052600b60248201526a045786365656473206361760ac1b6044820152606490fd5b60405162461bcd60e51b815260048101839052600d60248201526c092dcecc2d8d2c840d2dcc8caf609b1b6044820152606490fd5b6044906040519063e2517d3f60e01b82523360048301526024820152fd5b503461021f57602036600319011261021f576080906040906001600160a01b03610498611ef4565b16815260096020522080549060018101549060ff6003600283015492015416916040519384526020840152604083015215156060820152f35b503461021f57602036600319011261021f576104fb6104ee611ef4565b6104f6612187565b612299565b5080f35b9050346106a0576020918260031936011261021f576004358152600b8352604081209081549367ffffffffffffffff851161068c576040949394519060059461054c8282881b0184611fad565b8083528183018095855282852085915b83831061060d5750505050604051948186019282875251809352604083818801921b8701019493965b8388106105925786860387f35b90919293948380600192603f198a8203018652885190848060a01b03825116815282820151838201526105d2604083015187604084015287830190612075565b91606080820151908301526080808201519083015260a08082015115159083015260c080910151910152970193019701969093929193610585565b6007856001928b60ff60409e9d9e9b999a9b519161062a83611f91565b868060a01b038854168352868801548584015261064960028901611fcf565b6040840152600388015460608401526004880154608084015287015416151560a0820152600686015460c08201528152019201920191909897989594939561055c565b634e487b7160e01b82526041600452602482fd5b5080fd5b823461021f57604036600319011261021f576104fb6004356106c4611f0f565b90808452836020526106dc60016040862001546121c1565b6123bf565b823461021f578060031936011261021f576020600854604051908152f35b823461021f578060031936011261021f576020600454604051908152f35b823461021f57602036600319011261021f576020906040906001600160a01b03610745611ef4565b168152600983522060ff6003820154169081610767575b506040519015158152f35b60019150015442108261075c565b823461021f57606036600319011261021f57600435610792611f0f565b9060443561079e612187565b6107a66124cb565b6001600160a01b0383811693909190841561095f578115158061094c575b15610916576008548281106108dd57610835936020926107fb858094898c52600a87526107f660408d20541515612565565b6125a3565b60085560405163a9059cbb60e01b81526001600160a01b039091166004820152602481019290925290938491908290899082906044820190565b03927f0000000000000000000000000000000000000000000000000000000000000000165af19081156108d2576108976020927f5f26720fca654db9203378410d74e1cd53f46b5488b53bedc7ff815ce46f1a789488916108a5575b5061244c565b604051908152a36001805580f35b6108c59150843d81116108cb575b6108bd8183611fad565b810190612434565b88610891565b503d6108b3565b6040513d87823e3d90fd5b60405162461bcd60e51b8152602060048201526011602482015270125b9cdd59999a58da595b9d08199d5b99607a1b6044820152606490fd5b60405162461bcd60e51b815260206004820152600e60248201526d125b9d985b1a5908185b5bdd5b9d60921b6044820152606490fd5b50683635c9adc5dea000008211156107c4565b60405162461bcd60e51b8152602060048201526011602482015270125b9d985b1a59081c9958da5c1a595b9d607a1b6044820152606490fd5b823461021f57606036600319011261021f5760043567ffffffffffffffff81116106a0576109ca9036906004016120b5565b9060243567ffffffffffffffff8111610e9d576109eb9036906004016120b5565b9190926109f661212b565b6109fe6124ad565b606460443511610e635760065460443510610e2c578015610df7578215610dc057610a2a600d546124ee565b9384600d55604051610a3b81611f91565b858152610a493684866124fd565b9060208101918252610a5c3687856124fd565b604082015260443560608201524260808201528760a08201528760c0820152868852600a6020526040882091815183555180519067ffffffffffffffff8211610ce6578190610aae6001860154611f25565b601f8111610d6f575b50602090601f8311600114610d05578b92610cfa575b50508160011b916000199060031b1c19161760018301555b604081015180519067ffffffffffffffff8211610ce657610b096002850154611f25565b601f8111610ca2575b5060209989979695949392918b916001601f851114610c03579383610be597969460069460c0947fb803faf9534a10e58db018793650937b6c147a557fae96ae81ff826ff47c7af19d9e9892610bf8575b50508160011b916000199060031b1c19161760028501555b6060810151600385015560808101516004850155610bae60a08201511515600586019060ff801983541691151516179055565b0151910155610bbe600e546124ee565b600e55610bd8604051958695606087526060870191612544565b918483038a860152612544565b60443560408301520390a2604051908152f35b015190508f80610b63565b906002869594939b960182528c8220915b601f1984168110610c8857509260018360c0937fb803faf9534a10e58db018793650937b6c147a557fae96ae81ff826ff47c7af19c9d610be59a999897600697601f19811610610c6f575b505050811b016002850155610b7b565b015160001960f88460031b161c191690558f8080610c5f565b818c015183559a8d019a8c9a506001909201918d01610c14565b600285018b5260208b20601f840160051c810160208510610cdf575b601f830160051c82018110610cd4575050610b12565b8c8155600101610cbe565b5080610cbe565b634e487b7160e01b8a52604160045260248afd5b015190508a80610acd565b600186018c5260208c209250601f1984168c5b818110610d575750908460019594939210610d3e575b505050811b016001830155610ae5565b015160001960f88460031b161c191690558a8080610d2e565b92936020600181928786015181550195019301610d18565b909150600185018b5260208b20601f840160051c810160208510610db9575b90849392915b8d601f840160051c83018210610dac57505050610ab7565b8155859450600101610d94565b5080610d8e565b60405162461bcd60e51b815260206004820152600f60248201526e149959da5bdb881c995c5d5a5c9959608a1b6044820152606490fd5b60405162461bcd60e51b815260206004820152600d60248201526c151e5c19481c995c5d5a5c9959609a1b6044820152606490fd5b60405162461bcd60e51b815260206004820152600f60248201526e10995b1bddc81d1a1c995cda1bdb19608a1b6044820152606490fd5b60405162461bcd60e51b8152602060048201526012602482015271496e76616c6964207269736b2073636f726560701b6044820152606490fd5b8380fd5b823461021f578060031936011261021f576020600654604051908152f35b9050346106a057610ecf366120e3565b908352600b602052604083208054821015610e9d5790610eee916120f9565b5060018060a01b0381541690600181015492610f0c60028301611fcf565b91600381015492610f45600483015491600660ff6005860154169401549460405198899889526020890152806040890152870190612075565b9360608601526080850152151560a084015260c08301520390f35b823461021f578060031936011261021f576020600d54604051908152f35b823461021f578060031936011261021f57602090604051908152f35b823461021f578060031936011261021f576040517f00000000000000000000000000000000000000000000000000000000000000006001600160a01b03168152602090f35b823461021f57602036600319011261021f576020906040906001600160a01b03611007611ef4565b168152600c83522054604051908152f35b823461021f57604036600319011261021f576040611034611f0f565b91600435815280602052209060018060a01b0316600052602052602060ff604060002054166040519015158152f35b9050346106a0576020918260031936011261021f578060409160c0835161108981611f91565b8281526060878201526060858201528260608201528260808201528260a082015201526004358152600a845220604051916110c383611f91565b815483526110d360018301611fcf565b8484019081526110e560028401611fcf565b92604085019384526003810154936060860194855261115e6004830154916080880192835261114b600660ff6005870154169560a08b01961515875201549560c08a019687526040519a8b9a818c5251908b0152518760408b01526101008a0190612075565b9051888203601f190160608a0152612075565b945160808701525160a086015251151560c085015251908301520390f35b823461021f578060031936011261021f57611195612187565b61119d6124ad565b600160ff1960025416176002557f62e78cea01bee320cd4e420270b5ea74000d11b0c9f74754ebdbfc544b05a2586020604051338152a180f35b823461021f578060031936011261021f576020600554604051908152f35b823461021f57611204366120e3565b9061120d612187565b60035560045580f35b823461021f57602036600319011261021f57600435611233612187565b606481116112415760065580f35b60405162461bcd60e51b8152602060048201526011602482015270125b9d985b1a59081d1a1c995cda1bdb19607a1b6044820152606490fd5b823461021f578060031936011261021f57602060ff600254166040519015158152f35b823461021f578060031936011261021f576020600354604051908152f35b823461021f578060031936011261021f5760206040517f4d9863970d41475dce450df64b8c3f5625245716124ab2023150cc6828d194c48152f35b823461021f57602036600319011261021f576104fb611313611ef4565b61131b612187565b6121e7565b823461021f578060031936011261021f57611339612187565b60025460ff8116156113795760ff19166002557f5db9ee0a495bf2e6ff9c91a7834c1ba4fdd244a5e8aa4e537bd38aeae4b073aa6020604051338152a180f35b604051638dfc202b60e01b8152600490fd5b823461021f578060031936011261021f576113a46124cb565b3381526020600c81526040822054801561145d5733808452600c835260408085208590555163a9059cbb60e01b8152600481019190915260248101919091528181604481866001600160a01b037f0000000000000000000000000000000000000000000000000000000000000000165af19081156114525761142e928492611435575b505061244c565b6001805580f35b61144b9250803d106108cb576108bd8183611fad565b8380611427565b6040513d85823e3d90fd5b60405162461bcd60e51b815260048101839052600a6024820152694e6f207265776172647360b01b6044820152606490fd5b823461021f57604036600319011261021f576114a9611f0f565b336001600160a01b038216036114c5576104fb906004356123bf565b60405163334bd91960e11b8152600490fd5b823461021f57604036600319011261021f576104fb6004356114f7611f0f565b908084528360205261150f60016040862001546121c1565b612346565b823461021f57602036600319011261021f5760043561153161212b565b808252600a6020526040822061154981541515612565565b60058101805460ff81166115935760ff19166001179055600601546040519081527fcebd814edd0d4ddc1bc2dddfb3a937bf821cd9862db8b34e51894bf4232c874290602090a280f35b60405162461bcd60e51b815260206004820152601060248201526f105b1c9958591e481c995cdbdb1d995960821b6044820152606490fd5b823461021f57606036600319011261021f5767ffffffffffffffff60243581811161194f576115fe9036906004016120b5565b916116076124cb565b61160f6124ad565b6004358452600a60205260ff60056040862061162d81541515612565565b0154166119195782156118e257604435156118a9576004358452600b602052604084206116746040519361166085611f91565b3385526020850195600435875236916124fd565b906040840191825260443560608501524260808501528560a08501528560c08501528054906801000000000000000082101561189557906116ba916001820181556120f9565b94909461188157835185546001600160a01b0319166001600160a01b039190911617855551600185015551805191821161186d576116fb6002850154611f25565b601f8111611829575b50602090601f83116001146117b75791806006949260c09488926117ac575b50508160011b916000199060031b1c19161760028501555b606081015160038501556080810151600485015561176e60a08201511515600586019060ff801983541691151516179055565b0151910155604051604435815233907fa06424ba6e206dddc14eb90bec2e9710d841161a9711cecef4830a89ce6a8b32602060043592a36001805580f35b015190508780611723565b906002850186526020862091865b601f19851681106118115750926006949260019260c09583601f198116106117f8575b505050811b01600285015561173b565b015160001960f88460031b161c191690558780806117e8565b919260206001819286850151815501940192016117c5565b60028501865260208620601f840160051c810160208510611866575b601f830160051c8201811061185b575050611704565b878155600101611845565b5080611845565b634e487b7160e01b85526041600452602485fd5b634e487b7160e01b86526004869052602486fd5b634e487b7160e01b87526041600452602487fd5b60405162461bcd60e51b8152602060048201526011602482015270115d9a59195b98d9481c995c5d5a5c9959607a1b6044820152606490fd5b60405162461bcd60e51b815260206004820152600f60248201526e1058dd1a5bdb881c995c5d5a5c9959608a1b6044820152606490fd5b60405162461bcd60e51b815260206004820152600e60248201526d105b195c9d081c995cdbdb1d995960921b6044820152606490fd5b8280fd5b823461021f578060031936011261021f576020600754604051908152f35b823461021f57602036600319011261021f57600160406020926004358152808452200154604051908152f35b823461021f578060031936011261021f576020600f54604051908152f35b823461021f578060031936011261021f576020600e54604051908152f35b823461021f57602036600319011261021f576040906004358152600a60205220805490611a0860018201611fcf565b611a1460028301611fcf565b91600381015492610f45600483015491611a4b600660ff60058701541695015495604051998a998a528060208b0152890190612075565b908782036040890152612075565b823461021f576020806003193601126106a057600435611a776124cb565b611a7f6124ad565b600191828214808015611c88575b15611c545715611c4c576003545b6040516323b872dd60e01b8152336004820152306024820152604481018290526001600160a01b037f000000000000000000000000000000000000000000000000000000000000000016919083816064818a875af18015611c4157611b06918891611c2a575061244c565b601481029080820460141490151715611c165790606486920490611b2c8260085461248a565b600855803b1561194f57602483926040519485938492630852cd8d60e31b845260048401525af180156108d257611bfa575b503384526009815282604085206003810182815460ff811680611bee575b15611bcf57505050600554611b9583830191825461248a565b90555b0154906040519283528201527ff94991dcbea6e8ac439cbc93bd9c62a4d39f04e0ad656df9a703f13552c2787f60403392a2805580f35b868455611bde6005544261248a565b8483015560ff1916179055611b98565b50818401544210611b7c565b67ffffffffffffffff819592951161068c576040529284611b5e565b634e487b7160e01b86526011600452602486fd5b6108c59150853d87116108cb576108bd8183611fad565b6040513d89823e3d90fd5b600454611a9b565b60405162461bcd60e51b815260048101839052600c60248201526b24b73b30b634b2103a34b2b960a11b6044820152606490fd5b5060028314611a8d565b823461021f576020806003193601126106a05760043590611cb16124cb565b8115611d8a576040516323b872dd60e01b815233600482015230602482015260448101839052908082606481876001600160a01b037f0000000000000000000000000000000000000000000000000000000000000000165af1918215611d7f577f96dc4db30416257ae4b7acca05b2dba146186afa6bb597be0525023da1e833e592611d43918691611d62575061244c565b611d4f8360085461248a565b6008556040519283523392a26001805580f35b611d799150833d85116108cb576108bd8183611fad565b86610891565b6040513d86823e3d90fd5b6064906040519062461bcd60e51b82526004820152600f60248201526e105b5bdd5b9d081c995c5d5a5c9959608a1b6044820152fd5b823461021f57602036600319011261021f576040608091611ddf611ef4565b8160608451611ded81611f5f565b8281528260208201528286820152015260018060a01b03168152600960205220604051611e1981611f5f565b815491828252600181015460208301908152606060ff600360028501549460408701958652015416930192151583526040519384525160208401525160408301525115156060820152f35b823461021f578060031936011261021f5760206040517f68e79a7bf1e0bc45d0a330c573bc367f9cf464fd326078812f301165fbda4ef18152f35b8390346106a05760203660031901126106a05760043563ffffffff60e01b811680910361194f5760209250637965db0b60e01b8114908115611ee3575b5015158152f35b6301ffc9a760e01b14905083611edc565b600435906001600160a01b0382168203611f0a57565b600080fd5b602435906001600160a01b0382168203611f0a57565b90600182811c92168015611f55575b6020831014611f3f57565b634e487b7160e01b600052602260045260246000fd5b91607f1691611f34565b6080810190811067ffffffffffffffff821117611f7b57604052565b634e487b7160e01b600052604160045260246000fd5b60e0810190811067ffffffffffffffff821117611f7b57604052565b90601f8019910116810190811067ffffffffffffffff821117611f7b57604052565b9060405191826000825492611fe384611f25565b908184526001948581169081600014612052575060011461200f575b505061200d92500383611fad565b565b9093915060005260209081600020936000915b81831061203a57505061200d93508201013880611fff565b85548884018501529485019487945091830191612022565b91505061200d94506020925060ff191682840152151560051b8201013880611fff565b919082519283825260005b8481106120a1575050826000602080949584010152601f8019910116010190565b602081830181015184830182015201612080565b9181601f84011215611f0a5782359167ffffffffffffffff8311611f0a5760208381860195010111611f0a57565b6040906003190112611f0a576004359060243590565b8054821015612115576000526007602060002091020190600090565b634e487b7160e01b600052603260045260246000fd5b3360009081527fa629f6981c2f6895a67dc766e8e03ff72d04a413d0d8773a3ca56e9e474032c160205260409020547f68e79a7bf1e0bc45d0a330c573bc367f9cf464fd326078812f301165fbda4ef19060ff16156104525750565b3360009081527fad3228b676f7d3cd4284a5443f17f1962b36e491b30a40b2405849e597ba5fb5602052604081205460ff16156104525750565b80600052600060205260406000203360005260205260ff60406000205416156104525750565b6001600160a01b031660008181527f1d42a09cf6ce032e6c7e75793c7e15220cb878ddeae5a4f288bd199917f1597d60205260408120549091907f4d9863970d41475dce450df64b8c3f5625245716124ab2023150cc6828d194c49060ff1661229457808352826020526040832082845260205260408320600160ff198254161790557f2f8788117e7eff1d82e926ec794901d17c78024a50270940304540a733656f0d339380a4600190565b505090565b6001600160a01b031660008181527fa629f6981c2f6895a67dc766e8e03ff72d04a413d0d8773a3ca56e9e474032c160205260408120549091907f68e79a7bf1e0bc45d0a330c573bc367f9cf464fd326078812f301165fbda4ef19060ff1661229457808352826020526040832082845260205260408320600160ff198254161790557f2f8788117e7eff1d82e926ec794901d17c78024a50270940304540a733656f0d339380a4600190565b9060009180835282602052604083209160018060a01b03169182845260205260ff6040842054161560001461229457808352826020526040832082845260205260408320600160ff198254161790557f2f8788117e7eff1d82e926ec794901d17c78024a50270940304540a733656f0d339380a4600190565b9060009180835282602052604083209160018060a01b03169182845260205260ff6040842054166000146122945780835282602052604083208284526020526040832060ff1981541690557ff6391f5c32d9c69d2a47ea670b442974b53935d1edc7fd64eb21e047a839171b339380a4600190565b90816020910312611f0a57518015158103611f0a5790565b1561245357565b60405162461bcd60e51b815260206004820152600f60248201526e151c985b9cd9995c8819985a5b1959608a1b6044820152606490fd5b9190820180921161249757565b634e487b7160e01b600052601160045260246000fd5b60ff600254166124b957565b60405163d93c066560e01b8152600490fd5b6002600154146124dc576002600155565b604051633ee5aeb560e01b8152600490fd5b60001981146124975760010190565b92919267ffffffffffffffff8211611f7b5760405191612527601f8201601f191660200184611fad565b829481845281830111611f0a578281602093846000960137010152565b908060209392818452848401376000828201840152601f01601f1916010190565b1561256c57565b60405162461bcd60e51b815260206004820152600f60248201526e105b195c9d081b9bdd08199bdd5b99608a1b6044820152606490fd5b919082039182116124975756fea2646970667358221220e6ef5dee922ca4ad70f6c7bef3e9d06398017e07075cf9ac6a2bbd81a546365164736f6c634300081400332f8788117e7eff1d82e926ec794901d17c78024a50270940304540a733656f0d",
  "linkReferences": {},
  "deployedLinkReferences": {}
}