{
  "_format": "hh-sol-artifact-1",
  "contractName": "KaiDisaster",
  "sourceName": "contracts/pillars/KaiDisaster.sol",
  "abi": [
    {
      "inputs": [
        {
          "internalType": "address",
          "name": "_kaiToken",
          "type": "address"
        },
        {
          "internalType": "address",
          "name": "admin",
          "type": "address"
        }
      ],
      "stateMutability": "nonpayable",
      "type": "constructor"
    },
    {
      "inputs": [],
      "name": "AccessControlBadConfirmation",
      "type": "error"
    },
    {
      "inputs": [
        {
          "internalType": "address",
          "name": "account",
          "type": "address"
        },
        {
          "internalType": "bytes32",
          "name": "neededRole",
          "type": "bytes32"
        }
      ],
      "name": "AccessControlUnauthorizedAccount",
      "type": "error"
    },
    {
      "inputs": [],
      "name": "EnforcedPause",
      "type": "error"
    },
    {
      "inputs": [],
      "name": "ExpectedPause",
      "type": "error"
    },
    {
      "inputs": [],
      "name": "ReentrancyGuardReentrantCall",
      "type": "error"
    },
    {
      "anonymous": false,
      "inputs": [
        {
          "indexed": true,
          "internalType": "uint256",
          "name": "alertId",
          "type": "uint256"
        },
        {
          "indexed": false,
          "internalType": "string",
          "name": "disasterType",
          "type": "string"
        },
        {
          "indexed": false,
          "internalType": "string",
          "name": "region",
          "type": "string"
        },
        {
          "indexed": false,
          "internalType": "uint256",
          "name": "riskScore",
          "type": "uint256"
        }
      ],
      "name": "AlertIssued",
      "type": "event"
    },
    {
      "anonymous": false,
      "inputs": [
        {
          "indexed": true,
          "internalType": "uint256",
          "name": "alertId",
          "type": "uint256"
        },
        {
          "indexed": false,
          "internalType": "uint256",
          "name": "respondersRewarded",
          "type": "uint256"
        }
      ],
      "name": "AlertResolved",
      "type": "event"
    },
    {
      "anonymous": false,
      "inputs": [
        {
          "indexed": true,
          "internalType": "address",
          "name": "from",
          "type": "address"
        },
        {
          "indexed": false,
          "internalType": "uint256",
          "name": "amount",
          "type": "uint256"
        }
      ],
      "name": "EmergencyFundDeposit",
      "type": "event"
    },
    {
      "anonymous": false,
      "inputs": [
        {
          "indexed": true,
          "internalType": "uint256",
          "name": "alertId",
          "type": "uint256"
        },
        {
          "indexed": true,
          "internalType": "address",
          "name": "to",
          "type": "address"
        },
        {
          "indexed": false,
          "internalType": "uint256",
          "name": "amount",
          "type": "uint256"
        }
      ],
      "name": "EmergencyPayout",
      "type": "event"
    },
    {
      "anonymous": false,
      "inputs": [
        {
          "indexed": false,
          "internalType": "address",
          "name": "account",
          "type": "address"
        }
      ],
      "name": "Paused",
      "type": "event"
    },
    {
      "anonymous": false,
      "inputs": [
        {
          "indexed": true,
          "internalType": "uint256",
          "name": "alertId",
          "type": "uint256"
        },
        {
          "indexed": true,
          "internalType": "address",
          "name": "responder",
          "type": "address"
        },
        {
          "indexed": false,
          "internalType": "bytes32",
          "name": "evidenceHash",
          "type": "bytes32"
        }
      ],
      "name": "ResponseSubmitted",
      "type": "event"
    },
    {
      "anonymous": false,
      "inputs": [
        {
          "indexed": true,
          "internalType": "uint256",
          "name": "alertId",
          "type": "uint256"
        },
        {
          "indexed": true,
          "internalType": "address",
          "name": "responder",
          "type": "address"
        },
        {
          "indexed": false,
          "internalType": "uint256",
          "name": "reward",
          "type": "uint256"
        }
      ],
      "name": "ResponseVerified",
      "type": "event"
    },
    {
      "anonymous": false,
      "inputs": [
        {
          "indexed": true,
          "internalType": "bytes32",
          "name": "role",
          "type": "bytes32"
        },
        {
          "indexed": true,
          "internalType": "bytes32",
          "name": "previousAdminRole",
          "type": "bytes32"
        },
        {
          "indexed": true,
          "internalType": "bytes32",
          "name": "newAdminRole",
          "type": "bytes32"
        }
      ],
      "name": "RoleAdminChanged",
      "type": "event"
    },
    {
      "anonymous": false,
      "inputs": [
        {
          "indexed": true,
          "internalType": "bytes32",
          "name": "role",
          "type": "bytes32"
        },
        {
          "indexed": true,
          "internalType": "address",
          "name": "account",
          "type": "address"
        },
        {
          "indexed": true,
          "internalType": "address",
          "name": "sender",
          "type": "address"
        }
      ],
      "name": "RoleGranted",
      "type": "event"
    },
    {
      "anonymous": false,
      "inputs": [
        {
          "indexed": true,
          "internalType": "bytes32",
          "name": "role",
          "type": "bytes32"
        },
        {
          "indexed": true,
          "internalType": "address",
          "name": "account",
          "type": "address"
        },
        {
          "indexed": true,
          "internalType": "address",
          "name": "sender",
          "type": "address"
        }
      ],
      "name": "RoleRevoked",
      "type": "event"
    },
    {
      "anonymous": false,
      "inputs": [
        {
          "indexed": true,
          "internalType": "address",
          "name": "user",
          "type": "address"
        },
        {
          "indexed": false,
          "internalType": "uint256",
          "name": "tier",
          "type": "uint256"
        },
        {
          "indexed": false,
          "internalType": "uint256",
          "name": "expiresAt",
          "type": "uint256"
        }
      ],
      "name": "Subscribed",
      "type": "event"
    },
    {
      "anonymous": false,
      "inputs": [
        {
          "indexed": false,
          "internalType": "address",
          "name": "account",
          "type": "address"
        }
      ],
      "name": "Unpaused",
      "type": "event"
    },
    {
      "inputs": [],
      "name": "DEFAULT_ADMIN_ROLE",
      "outputs": [
        {
          "internalType": "bytes32",
          "name": "",
          "type": "bytes32"
        }
      ],
      "stateMutability": "view",
      "type": "function"
    },
    {
      "inputs": [],
      "name": "EMERGENCY_PAYOUT_CAP",
      "outputs": [
        {
          "internalType": "uint256",
          "name": "",
          "type": "uint256"
        }
      ],
      "stateMutability": "view",
      "type": "function"
    },
    {
      "inputs": [],
      "name": "ORACLE_ROLE",
      "outputs": [
        {
          "internalType": "bytes32",
          "name": "",
          "type": "bytes32"
        }
      ],
      "stateMutability": "view",
      "type": "function"
    },
    {
      "inputs": [],
      "name": "RESPONDER_ROLE",
      "outputs": [
        {
          "internalType": "bytes32",
          "name": "",
          "type": "bytes32"
        }
      ],
      "stateMutability": "view",
      "type": "function"
    },
    {
      "inputs": [],
      "name": "alertCooldown",
      "outputs": [
        {
          "internalType": "uint256",
          "name": "",
          "type": "uint256"
        }
      ],
      "stateMutability": "view",
      "type": "function"
    },
    {
      "inputs": [],
      "name": "alertCount",
      "outputs": [
        {
          "internalType": "uint256",
          "name": "",
          "type": "uint256"
        }
      ],
      "stateMutability": "view",
      "type": "function"
    },
    {
      "inputs": [
        {
          "internalType": "uint256",
          "name": "",
          "type": "uint256"
        },
        {
          "internalType": "uint256",
          "name": "",
          "type": "uint256"
        }
      ],
      "name": "alertResponses",
      "outputs": [
        {
          "internalType": "address",
          "name": "responder",
          "type": "address"
        },
        {
          "internalType": "uint256",
          "name": "alertId",
          "type": "uint256"
        },
        {
          "internalType": "string",
          "name": "actionTaken",
          "type": "string"
        },
        {
          "internalType": "bytes32",
          "name": "evidenceHash",
          "type": "bytes32"
        },
        {
          "internalType": "uint256",
          "name": "timestamp",
          "type": "uint256"
        },
        {
          "internalType": "bool",
          "name": "verified",
          "type": "bool"
        },
        {
          "internalType": "uint256",
          "name": "reward",
          "type": "uint256"
        }
      ],
      "stateMutability": "view",
      "type": "function"
    },
    {
      "inputs": [
        {
          "internalType": "uint256",
          "name": "",
          "type": "uint256"
        }
      ],
      "name": "alerts",
      "outputs": [
        {
          "internalType": "uint256",
          "name": "id",
          "type": "uint256"
        },
        {
          "internalType": "string",
          "name": "disasterType",
          "type": "string"
        },
        {
          "internalType": "string",
          "name": "region",
          "type": "string"
        },
        {
          "internalType": "uint256",
          "name": "riskScore",
          "type": "uint256"
        },
        {
          "internalType": "uint256",
          "name": "timestamp",
          "type": "uint256"
        },
        {
          "internalType": "bool",
          "name": "resolved",
          "type": "bool"
        },
        {
          "internalType": "uint256",
          "name": "respondersRewarded",
          "type": "uint256"
        }
      ],
      "stateMutability": "view",
      "type": "function"
    },
    {
      "inputs": [],
      "name": "basicSubscriptionFee",
      "outputs": [
        {
          "internalType": "uint256",
          "name": "",
          "type": "uint256"
        }
      ],
      "stateMutability": "view",
      "type": "function"
    },
    {
      "inputs": [],
      "name": "claimRewards",
      "outputs": [],
      "stateMutability": "nonpayable",
      "type": "function"
    },
    {
      "inputs": [
        {
          "internalType": "uint256",
          "name": "amount",
          "type": "uint256"
        }
      ],
      "name": "depositToEmergencyFund",
      "outputs": [],
      "stateMutability": "nonpayable",
      "type": "function"
    },
    {
      "inputs": [],
      "name": "emergencyFund",
      "outputs": [
        {
          "internalType": "uint256",
          "name": "",
          "type": "uint256"
        }
      ],
      "stateMutability": "view",
      "type": "function"
    },
    {
      "inputs": [
        {
          "internalType": "uint256",
          "name": "alertId",
          "type": "uint256"
        },
        {
          "internalType": "address",
          "name": "recipient",
          "type": "address"
        },
        {
          "internalType": "uint256",
          "name": "amount",
          "type": "uint256"
        }
      ],
      "name": "emergencyPayout",
      "outputs": [],
      "stateMutability": "nonpayable",
      "type": "function"
    },
    {
      "inputs": [
        {
          "internalType": "uint256",
          "name": "alertId",
          "type": "uint256"
        }
      ],
      "name": "getAlert",
      "outputs": [
        {
          "components": [
            {
              "internalType": "uint256",
              "name": "id",
              "type": "uint256"
            },
            {
              "internalType": "string",
              "name": "disasterType",
              "type": "string"
            },
            {
              "internalType": "string",
              "name": "region",
              "type": "string"
            },
            {
              "internalType": "uint256",
              "name": "riskScore",
              "type": "uint256"
            },
            {
              "internalType": "uint256",
              "name": "timestamp",
              "type": "uint256"
            },
            {
              "internalType": "bool",
              "name": "resolved",
              "type": "bool"
            },
            {
              "internalType": "uint256",
              "name": "respondersRewarded",
              "type": "uint256"
            }
          ],
          "internalType": "struct KaiDisaster.Alert",
          "name": "",
          "type": "tuple"
        }
      ],
      "stateMutability": "view",
      "type": "function"
    },
    {
      "inputs": [
        {
          "internalType": "uint256",
          "name": "alertId",
          "type": "uint256"
        }
      ],
      "name": "getAlertResponses",
      "outputs": [
        {
          "components": [
            {
              "internalType": "address",
              "name": "responder",
              "type": "address"
            },
            {
              "internalType": "uint256",
              "name": "alertId",
              "type": "uint256"
            },
            {
              "internalType": "string",
              "name": "actionTaken",
              "type": "string"
            },
            {
              "internalType": "bytes32",
              "name": "evidenceHash",
              "type": "bytes32"
            },
            {
              "internalType": "uint256",
              "name": "timestamp",
              "type": "uint256"
            },
            {
              "internalType": "bool",
              "name": "verified",
              "type": "bool"
            },
            {
              "internalType": "uint256",
              "name": "reward",
              "type": "uint256"
            }
          ],
          "internalType": "struct KaiDisaster.Response[]",
          "name": "",
          "type": "tuple[]"
        }
      ],
      "stateMutability": "view",
      "type": "function"
    },
    {
      "inputs": [
        {
          "internalType": "bytes32",
          "name": "role",
          "type": "bytes32"
        }
      ],
      "name": "getRoleAdmin",
      "outputs": [
        {
          "internalType": "bytes32",
          "name": "",
          "type": "bytes32"
        }
      ],
      "stateMutability": "view",
      "type": "function"
    },
    {
      "inputs": [
        {
          "internalType": "address",
          "name": "user",
          "type": "address"
        }
      ],
      "name": "getSubscription",
      "outputs": [
        {
          "components": [
            {
              "internalType": "uint256",
              "name": "tier",
              "type": "uint256"
            },
            {
              "internalType": "uint256",
              "name": "expiresAt",
              "type": "uint256"
            },
            {
              "internalType": "uint256",
              "name": "alertsReceived",
              "type": "uint256"
            },
            {
              "internalType": "bool",
              "name": "active",
              "type": "bool"
            }
          ],
          "internalType": "struct KaiDisaster.Subscription",
          "name": "",
          "type": "tuple"
        }
      ],
      "stateMutability": "view",
      "type": "function"
    },
    {
      "inputs": [
        {
          "internalType": "address",
          "name": "oracle",
          "type": "address"
        }
      ],
      "name": "grantOracleRole",
      "outputs": [],
      "stateMutability": "nonpayable",
      "type": "function"
    },
    {
      "inputs": [
        {
          "internalType": "address",
          "name": "responder",
          "type": "address"
        }
      ],
      "name": "grantResponderRole",
      "outputs": [],
      "stateMutability": "nonpayable",
      "type": "function"
    },
    {
      "inputs": [
        {
          "internalType": "bytes32",
          "name": "role",
          "type": "bytes32"
        },
        {
          "internalType": "address",
          "name": "account",
          "type": "address"
        }
      ],
      "name": "grantRole",
      "outputs": [],
      "stateMutability": "nonpayable",
      "type": "function"
    },
    {
      "inputs": [
        {
          "internalType": "address",
          "name": "user",
          "type": "address"
        }
      ],
      "name": "hasActiveSubscription",
      "outputs": [
        {
          "internalType": "bool",
          "name": "",
          "type": "bool"
        }
      ],
      "stateMutability": "view",
      "type": "function"
    },
    {
      "inputs": [
        {
          "internalType": "bytes32",
          "name": "role",
          "type": "bytes32"
        },
        {
          "internalType": "address",
          "name": "account",
          "type": "address"
        }
      ],
      "name": "hasRole",
      "outputs": [
        {
          "internalType": "bool",
          "name": "",
          "type": "bool"
        }
      ],
      "stateMutability": "view",
      "type": "function"
    },
    {
      "inputs": [
        {
          "internalType": "string",
          "name": "disasterType",
          "type": "string"
        },
        {
          "internalType": "string",
          "name": "region",
          "type": "string"
        },
        {
          "internalType": "uint256",
          "name": "riskScore",
          "type": "uint256"
        }
      ],
      "name": "issueAlert",
      "outputs": [
        {
          "internalType": "uint256",
          "name": "",
          "type": "uint256"
        }
      ],
      "stateMutability": "nonpayable",
      "type": "function"
    },
    {
      "inputs": [],
      "name": "kaiToken",
      "outputs": [
        {
          "internalType": "contract KAIToken",
          "name": "",
          "type": "address"
        }
      ],
      "stateMutability": "view",
      "type": "function"
    },
    {
      "inputs": [],
      "name": "pause",
      "outputs": [],
      "stateMutability": "nonpayable",
      "type": "function"
    },
    {
      "inputs": [],
      "name": "paused",
      "outputs": [
        {
          "internalType": "bool",
          "name": "",
          "type": "bool"
        }
      ],
      "stateMutability": "view",
      "type": "function"
    },
    {
      "inputs": [],
      "name": "premiumSubscriptionFee",
      "outputs": [
        {
          "internalType": "uint256",
          "name": "",
          "type": "uint256"
        }
      ],
      "stateMutability": "view",
      "type": "function"
    },
    {
      "inputs": [
        {
          "internalType": "bytes32",
          "name": "role",
          "type": "bytes32"
        },
        {
          "internalType": "address",
          "name": "callerConfirmation",
          "type": "address"
        }
      ],
      "name": "renounceRole",
      "outputs": [],
      "stateMutability": "nonpayable",
      "type": "function"
    },
    {
      "inputs": [
        {
          "internalType": "uint256",
          "name": "alertId",
          "type": "uint256"
        }
      ],
      "name": "resolveAlert",
      "outputs": [],
      "stateMutability": "nonpayable",
      "type": "function"
    },
    {
      "inputs": [
        {
          "internalType": "address",
          "name": "",
          "type": "address"
        }
      ],
      "name": "responderRewards",
      "outputs": [
        {
          "internalType": "uint256",
          "name": "",
          "type": "uint256"
        }
      ],
      "stateMutability": "view",
      "type": "function"
    },
    {
      "inputs": [
        {
          "internalType": "bytes32",
          "name": "role",
          "type": "bytes32"
        },
        {
          "internalType": "address",
          "name": "account",
          "type": "address"
        }
      ],
      "name": "revokeRole",
      "outputs": [],
      "stateMutability": "nonpayable",
      "type": "function"
    },
    {
      "inputs": [],
      "name": "riskThreshold",
      "outputs": [
        {
          "internalType": "uint256",
          "name": "",
          "type": "uint256"
        }
      ],
      "stateMutability": "view",
      "type": "function"
    },
    {
      "inputs": [
        {
          "internalType": "uint256",
          "name": "threshold",
          "type": "uint256"
        }
      ],
      "name": "setRiskThreshold",
      "outputs": [],
      "stateMutability": "nonpayable",
      "type": "function"
    },
    {
      "inputs": [
        {
          "internalType": "uint256",
          "name": "basic",
          "type": "uint256"
        },
        {
          "internalType": "uint256",
          "name": "premium",
          "type": "uint256"
        }
      ],
      "name": "setSubscriptionFees",
      "outputs": [],
      "stateMutability": "nonpayable",
      "type": "function"
    },
    {
      "inputs": [
        {
          "internalType": "uint256",
          "name": "alertId",
          "type": "uint256"
        },
        {
          "internalType": "string",
          "name": "actionTaken",
          "type": "string"
        },
        {
          "internalType": "bytes32",
          "name": "evidenceHash",
          "type": "bytes32"
        }
      ],
      "name": "submitResponse",
      "outputs": [],
      "stateMutability": "nonpayable",
      "type": "function"
    },
    {
      "inputs": [
        {
          "internalType": "uint256",
          "name": "tier",
          "type": "uint256"
        }
      ],
      "name": "subscribe",
      "outputs": [],
      "stateMutability": "nonpayable",
      "type": "function"
    },
    {
      "inputs": [],
      "name": "subscriptionDuration",
      "outputs": [
        {
          "internalType": "uint256",
          "name": "",
          "type": "uint256"
        }
      ],
      "stateMutability": "view",
      "type": "function"
    },
    {
      "inputs": [
        {
          "internalType": "address",
          "name": "",
          "type": "address"
        }
      ],
      "name": "subscriptions",
      "outputs": [
        {
          "internalType": "uint256",
          "name": "tier",
          "type": "uint256"
        },
        {
          "internalType": "uint256",
          "name": "expiresAt",
          "type": "uint256"
        },
        {
          "internalType": "uint256",
          "name": "alertsReceived",
          "type": "uint256"
        },
        {
          "internalType": "bool",
          "name": "active",
          "type": "bool"
        }
      ],
      "stateMutability": "view",
      "type": "function"
    },
    {
      "inputs": [
        {
          "internalType": "bytes4",
          "name": "interfaceId",
          "type": "bytes4"
        }
      ],
      "name": "supportsInterface",
      "outputs": [
        {
          "internalType": "bool",
          "name": "",
          "type": "bool"
        }
      ],
      "stateMutability": "view",
      "type": "function"
    },
    {
      "inputs": [],
      "name": "totalAlertsIssued",
      "outputs": [
        {
          "internalType": "uint256",
          "name": "",
          "type": "uint256"
        }
      ],
      "stateMutability": "view",
      "type": "function"
    },
    {
      "inputs": [],
      "name": "totalResponsesVerified",
      "outputs": [
        {
          "internalType": "uint256",
          "name": "",
          "type": "uint256"
        }
      ],
      "stateMutability": "view",
      "type": "function"
    },
    {
      "inputs": [],
      "name": "unpause",
      "outputs": [],
      "stateMutability": "nonpayable",
      "type": "function"
    },
    {
      "inputs": [
        {
          "internalType": "uint256",
          "name": "alertId",
          "type": "uint256"
        },
        {
          "internalType": "uint256",
          "name": "responseIndex",
          "type": "uint256"
        },
        {
          "internalType": "uint256",
          "name": "rewardAmount",
          "type": "uint256"
        }
      ],
      "name": "verifyResponse",
      "outputs": [],
      "stateMutability": "nonpayable",
      "type": "function"
    }
  ],
  "bytecode": "0x60a0346200015e57601f620028c438819003918201601f19168301916001600160401b03831184841017620001635780849260409485528339810103126200015e576200005a6020620000528362000179565b920162000179565b60018055678ac7230489e800006003556802b5e3af16b188000060045562278d006005556046600655610e106007556001600160a01b039182169182156200012957811615620000f457620000be91608052620000b7816200018e565b506200020e565b506040516125f39081620002b1823960805181818161083301528181610faa015281816113ed01528181611abf0152611cf60152f35b60405162461bcd60e51b815260206004820152600d60248201526c24b73b30b634b21030b236b4b760991b6044820152606490fd5b60405162461bcd60e51b815260206004820152600d60248201526c24b73b30b634b2103a37b5b2b760991b6044820152606490fd5b600080fd5b634e487b7160e01b600052604160045260246000fd5b51906001600160a01b03821682036200015e57565b6001600160a01b031660008181527fad3228b676f7d3cd4284a5443f17f1962b36e491b30a40b2405849e597ba5fb5602052604081205490919060ff166200020a57818052816020526040822081835260205260408220600160ff198254161790553391600080516020620028a48339815191528180a4600190565b5090565b6001600160a01b031660008181527fa629f6981c2f6895a67dc766e8e03ff72d04a413d0d8773a3ca56e9e474032c160205260408120549091907f68e79a7bf1e0bc45d0a330c573bc367f9cf464fd326078812f301165fbda4ef19060ff16620002ab57808352826020526040832082845260205260408320600160ff19825416179055600080516020620028a4833981519152339380a4600190565b50509056fe608080604052600436101561001357600080fd5b60009060e08235811c91826301ffc9a714611ead5750816307e2cea514611e725781630cbebc2414611dce5781630cee332214611ca05781630f574ba714611a53578163171d073a146119d35781631c95d81c146119b55781631fb1544c14611997578163248a9ca31461196b5781632c7084b31461194d5781632d30519d146115c55781632e0e053f1461150e5781632f2ff15d146114d157816336568abe14611489578163372500ab146113855781633f4ba83a1461131a57816350c5d473146112f0578163514ebb42146112b55781635a7c4ed6146112975781635c975abb146112745781637083d1c214611210578163764c4fc8146111ef5781637a94a633146111d15781638456cb5914611176578163850818861461105d57816391d14854146110125781639365e2d514610fd95781639bcfdfc014610f94578163a217fddf14610f78578163ab44649114610f5a578163ad969d5b14610eb9578163b43e6cb414610e9b578163b963618414610992578163b9c75dc31461076f578163bebe4a5714610717578163c3732cad146106f9578163cc859378146106db578163d547741f1461069e578163d669dc05146104ff57508063df9c49a3146104d1578063f046395a14610470578063f398fb0d146102225763f6b28c80146101fc57600080fd5b3461021f578060031936011261021f576020604051683635c9adc5dea000008152f35b80fd5b503461021f57606036600319011261021f573360009081527f1d42a09cf6ce032e6c7e75793c7e15220cb878ddeae5a4f288bd199917f1597d60209081526040909120546044359160043591602435907f4d9863970d41475dce450df64b8c3f5625245716124ab2023150cc6828d194c49060ff161561045257506102a5612273565b828552600b8252604085205481101561041d57683635c9adc5dea0000084116103ea576102dc90838652600b835260408620612106565b5060058101805460ff81166103b2579060017fe4f27cf8170101b5a4e433d63f97b8a45eba8dbc8452a78ac8d74cedb382aded94939260ff1916179055846006820155838652600a8252600660408720016103378154612236565b9055841515806103a6575b61036e575b610352600f54612236565b600f55546040519485526001600160a01b031693a36001805580f35b61037a85600854612266565b60085580546001600160a01b03168652600c825260408620805461039f90879061218e565b9055610347565b50846008541015610342565b60405162461bcd60e51b815260048101859052601060248201526f105b1c9958591e481d995c9a599a595960821b6044820152606490fd5b60405162461bcd60e51b815260048101839052600b60248201526a045786365656473206361760ac1b6044820152606490fd5b60405162461bcd60e51b815260048101839052600d60248201526c092dcecc2d8d2c840d2dcc8caf609b1b6044820152606490fd5b6044906040519063e2517d3f60e01b82523360048301526024820152fd5b503461021f57602036600319011261021f576080906040906001600160a01b03610498611f02565b16815260096020522080549060018101549060ff6003600283015492015416916040519384526020840152604083015215156060820152f35b503461021f57602036600319011261021f576104fb6104ee611f02565b6104f6612310565b612422565b5080f35b823461021f5760208060031936011261069a576004358252600b8152604082209081549067ffffffffffffffff821161068657604051909391600561054882821b870184611fbb565b81835285830190819585528685209085925b84841061060e5750505050506040519380850191818652518092526040850160408360051b8701019493965b8388106105935786860387f35b90919293948380600192603f198a8203018652885190848060a01b03825116815282820151838201526105d3604083015187604084015287830190612082565b91606080820151908301526080808201519083015260a08082015115159083015260c080910151910152970193019701969093929193610586565b60078960019260409b98999b5161062481611f9f565b848060a01b038754168152848701548382015261064360028801611fdd565b6040820152600387015460608201526004870154608082015260ff8688015416151560a0820152600687015460c08201528152019301930192919795949761055a565b634e487b7160e01b84526041600452602484fd5b5080fd5b823461021f57604036600319011261021f576104fb6004356106be611f1d565b90808452836020526106d6600160408620015461234a565b612548565b823461021f578060031936011261021f576020600854604051908152f35b823461021f578060031936011261021f576020600454604051908152f35b823461021f57602036600319011261021f576020906040906001600160a01b0361073f611f02565b168152600983522060ff6003820154169081610761575b506040519015158152f35b600191500154421082610756565b823461021f57606036600319011261021f5760043561078c611f1d565b90604435610798612310565b6107a0612273565b6001600160a01b038381169390919084156109595781151580610946575b15610910576008548281106108d75761082f936020926107f5858094898c52600a87526107f060408d205415156121b1565b612266565b60085560405163a9059cbb60e01b81526001600160a01b039091166004820152602481019290925290938491908290899082906044820190565b03927f0000000000000000000000000000000000000000000000000000000000000000165af19081156108cc576108916020927f5f26720fca654db9203378410d74e1cd53f46b5488b53bedc7ff815ce46f1a7894889161089f575b50612150565b604051908152a36001805580f35b6108bf9150843d86116108c5575b6108b78183611fbb565b810190612138565b8861088b565b503d6108ad565b6040513d87823e3d90fd5b60405162461bcd60e51b8152602060048201526011602482015270125b9cdd59999a58da595b9d08199d5b99607a1b6044820152606490fd5b60405162461bcd60e51b815260206004820152600e60248201526d125b9d985b1a5908185b5bdd5b9d60921b6044820152606490fd5b50683635c9adc5dea000008211156107be565b60405162461bcd60e51b8152602060048201526011602482015270125b9d985b1a59081c9958da5c1a595b9d607a1b6044820152606490fd5b823461021f57606036600319011261021f5760043567ffffffffffffffff811161069a576109c49036906004016120c2565b9060243567ffffffffffffffff8111610e97576109e59036906004016120c2565b9190926109f06122b4565b6109f8612296565b606460443511610e5d5760065460443510610e26578015610df1578215610dba57610a24600d54612236565b9384600d55604051610a3581611f9f565b858152610a433684866121ef565b9060208101918252610a563687856121ef565b604082015260443560608201524260808201528760a08201528760c0820152868852600a6020526040882091815183555180519067ffffffffffffffff8211610ce0578190610aa86001860154611f33565b601f8111610d69575b50602090601f8311600114610cff578b92610cf4575b50508160011b916000199060031b1c19161760018301555b604081015180519067ffffffffffffffff8211610ce057610b036002850154611f33565b601f8111610c9c575b5060209989979695949392918b916001601f851114610bfd579383610bdf97969460069460c0947fb803faf9534a10e58db018793650937b6c147a557fae96ae81ff826ff47c7af19d9e9892610bf2575b50508160011b916000199060031b1c19161760028501555b6060810151600385015560808101516004850155610ba860a08201511515600586019060ff801983541691151516179055565b0151910155610bb8600e54612236565b600e55610bd2604051958695606087526060870191612245565b918483038a860152612245565b60443560408301520390a2604051908152f35b015190508f80610b5d565b906002869594939b960182528c8220915b601f1984168110610c8257509260018360c0937fb803faf9534a10e58db018793650937b6c147a557fae96ae81ff826ff47c7af19c9d610bdf9a999897600697601f19811610610c69575b505050811b016002850155610b75565b015160001960f88460031b161c191690558f8080610c59565b818c015183559a8d019a8c9a506001909201918d01610c0e565b600285018b5260208b20601f840160051c810160208510610cd9575b601f830160051c82018110610cce575050610b0c565b8c8155600101610cb8565b5080610cb8565b634e487b7160e01b8a52604160045260248afd5b015190508a80610ac7565b600186018c5260208c209250601f1984168c5b818110610d515750908460019594939210610d38575b505050811b016001830155610adf565b015160001960f88460031b161c191690558a8080610d28565b92936020600181928786015181550195019301610d12565b909150600185018b5260208b20601f840160051c810160208510610db3575b90849392915b8d601f840160051c83018210610da657505050610ab1565b8155859450600101610d8e565b5080610d88565b60405162461bcd60e51b815260206004820152600f60248201526e149959da5bdb881c995c5d5a5c9959608a1b6044820152606490fd5b60405162461bcd60e51b815260206004820152600d60248201526c151e5c19481c995c5d5a5c9959609a1b6044820152606490fd5b60405162461bcd60e51b815260206004820152600f60248201526e10995b1bddc81d1a1c995cda1bdb19608a1b6044820152606490fd5b60405162461bcd60e51b8152602060048201526012602482015271496e76616c6964207269736b2073636f726560701b6044820152606490fd5b8380fd5b823461021f578060031936011261021f576020600654604051908152f35b90503461069a57610ec9366120f0565b908352600b602052604083208054821015610e975790610ee891612106565b5060018060a01b0381541690600181015492610f0660028301611fdd565b91600381015492610f3f600483015491600660ff6005860154169401549460405198899889526020890152806040890152870190612082565b9360608601526080850152151560a084015260c08301520390f35b823461021f578060031936011261021f576020600d54604051908152f35b823461021f578060031936011261021f57602090604051908152f35b823461021f578060031936011261021f576040517f00000000000000000000000000000000000000000000000000000000000000006001600160a01b03168152602090f35b823461021f57602036600319011261021f576020906040906001600160a01b03611001611f02565b168152600c83522054604051908152f35b823461021f57604036600319011261021f57604061102e611f1d565b91600435815280602052209060018060a01b0316600052602052602060ff604060002054166040519015158152f35b90503461069a576020918260031936011261021f578060409160c0835161108381611f9f565b8281526060878201526060858201528260608201528260808201528260a082015201526004358152600a845220604051916110bd83611f9f565b815483526110cd60018301611fdd565b8484019081526110df60028401611fdd565b92604085019384526003810154936060860194855261115860048301549160808801928352611145600660ff6005870154169560a08b01961515875201549560c08a019687526040519a8b9a818c5251908b0152518760408b01526101008a0190612082565b9051888203601f190160608a0152612082565b945160808701525160a086015251151560c085015251908301520390f35b823461021f578060031936011261021f5761118f612310565b611197612296565b600160ff1960025416176002557f62e78cea01bee320cd4e420270b5ea74000d11b0c9f74754ebdbfc544b05a2586020604051338152a180f35b823461021f578060031936011261021f576020600554604051908152f35b823461021f576111fe366120f0565b90611207612310565b60035560045580f35b823461021f57602036600319011261021f5760043561122d612310565b6064811161123b5760065580f35b60405162461bcd60e51b8152602060048201526011602482015270125b9d985b1a59081d1a1c995cda1bdb19607a1b6044820152606490fd5b823461021f578060031936011261021f57602060ff600254166040519015158152f35b823461021f578060031936011261021f576020600354604051908152f35b823461021f578060031936011261021f5760206040517f4d9863970d41475dce450df64b8c3f5625245716124ab2023150cc6828d194c48152f35b823461021f57602036600319011261021f576104fb61130d611f02565b611315612310565b612370565b823461021f578060031936011261021f57611333612310565b60025460ff8116156113735760ff19166002557f5db9ee0a495bf2e6ff9c91a7834c1ba4fdd244a5e8aa4e537bd38aeae4b073aa6020604051338152a180f35b604051638dfc202b60e01b8152600490fd5b823461021f578060031936011261021f5761139e612273565b3381526020600c8152604082205480156114575733808452600c835260408085208590555163a9059cbb60e01b8152600481019190915260248101919091528181604481866001600160a01b037f0000000000000000000000000000000000000000000000000000000000000000165af190811561144c5761142892849261142f575b5050612150565b6001805580f35b6114459250803d106108c5576108b78183611fbb565b8380611421565b6040513d85823e3d90fd5b60405162461bcd60e51b815260048101839052600a6024820152694e6f207265776172647360b01b6044820152606490fd5b823461021f57604036600319011261021f576114a3611f1d565b336001600160a01b038216036114bf576104fb90600435612548565b60405163334bd91960e11b8152600490fd5b823461021f57604036600319011261021f576104fb6004356114f1611f1d565b9080845283602052611509600160408620015461234a565b6124cf565b823461021f57602036600319011261021f5760043561152b6122b4565b808252600a60205260408220611543815415156121b1565b60058101805460ff811661158d5760ff19166001179055600601546040519081527fcebd814edd0d4ddc1bc2dddfb3a937bf821cd9862db8b34e51894bf4232c874290602090a280f35b60405162461bcd60e51b815260206004820152601060248201526f105b1c9958591e481c995cdbdb1d995960821b6044820152606490fd5b823461021f57606036600319011261021f5767ffffffffffffffff602435818111611949576115f89036906004016120c2565b91611601612273565b611609612296565b6004358452600a60205260ff600560408620611627815415156121b1565b0154166119135782156118dc57604435156118a3576004358452600b6020526040842061166e6040519361165a85611f9f565b3385526020850195600435875236916121ef565b906040840191825260443560608501524260808501528560a08501528560c08501528054906801000000000000000082101561188f57906116b491600182018155612106565b94909461187b57835185546001600160a01b0319166001600160a01b0391909116178555516001850155518051918211611867576116f56002850154611f33565b601f8111611823575b50602090601f83116001146117b15791806006949260c09488926117a6575b50508160011b916000199060031b1c19161760028501555b606081015160038501556080810151600485015561176860a08201511515600586019060ff801983541691151516179055565b0151910155604051604435815233907fa06424ba6e206dddc14eb90bec2e9710d841161a9711cecef4830a89ce6a8b32602060043592a36001805580f35b01519050878061171d565b906002850186526020862091865b601f198516811061180b5750926006949260019260c09583601f198116106117f2575b505050811b016002850155611735565b015160001960f88460031b161c191690558780806117e2565b919260206001819286850151815501940192016117bf565b60028501865260208620601f840160051c810160208510611860575b601f830160051c820181106118555750506116fe565b87815560010161183f565b508061183f565b634e487b7160e01b85526041600452602485fd5b634e487b7160e01b86526004869052602486fd5b634e487b7160e01b87526041600452602487fd5b60405162461bcd60e51b8152602060048201526011602482015270115d9a59195b98d9481c995c5d5a5c9959607a1b6044820152606490fd5b60405162461bcd60e51b815260206004820152600f60248201526e1058dd1a5bdb881c995c5d5a5c9959608a1b6044820152606490fd5b60405162461bcd60e51b815260206004820152600e60248201526d105b195c9d081c995cdbdb1d995960921b6044820152606490fd5b8280fd5b823461021f578060031936011261021f576020600754604051908152f35b823461021f57602036600319011261021f57600160406020926004358152808452200154604051908152f35b823461021f578060031936011261021f576020600f54604051908152f35b823461021f578060031936011261021f576020600e54604051908152f35b823461021f57602036600319011261021f576040906004358152600a60205220805490611a0260018201611fdd565b611a0e60028301611fdd565b91600381015492610f3f600483015491611a45600660ff60058701541695015495604051998a998a528060208b0152890190612082565b908782036040890152612082565b823461021f5760208060031936011261069a57600435611a71612273565b611a79612296565b600191828214808015611c96575b15611c625715611c5a576003545b6040516323b872dd60e01b8152336004820152306024820152604481018290526001600160a01b037f000000000000000000000000000000000000000000000000000000000000000016919083816064818a875af18015611c4f57611b00918891611c385750612150565b601481029080820460141490151715611c245790606486920490611b268260085461218e565b600855803b1561194957602483926040519485938492630852cd8d60e31b845260048401525af180156108cc57611bf4575b503384526009815282604085206003810182815460ff811680611be8575b15611bc957505050600554611b8f83830191825461218e565b90555b0154906040519283528201527ff94991dcbea6e8ac439cbc93bd9c62a4d39f04e0ad656df9a703f13552c2787f60403392a2805580f35b868455611bd86005544261218e565b8483015560ff1916179055611b92565b50818401544210611b76565b67ffffffffffffffff8195929511611c10576040529284611b58565b634e487b7160e01b82526041600452602482fd5b634e487b7160e01b86526011600452602486fd5b6108bf9150853d87116108c5576108b78183611fbb565b6040513d89823e3d90fd5b600454611a95565b60405162461bcd60e51b815260048101839052600c60248201526b24b73b30b634b2103a34b2b960a11b6044820152606490fd5b5060028314611a87565b823461021f5760208060031936011261069a5760043590611cbf612273565b8115611d98576040516323b872dd60e01b815233600482015230602482015260448101839052908082606481876001600160a01b037f0000000000000000000000000000000000000000000000000000000000000000165af1918215611d8d577f96dc4db30416257ae4b7acca05b2dba146186afa6bb597be0525023da1e833e592611d51918691611d705750612150565b611d5d8360085461218e565b6008556040519283523392a26001805580f35b611d879150833d85116108c5576108b78183611fbb565b8661088b565b6040513d86823e3d90fd5b6064906040519062461bcd60e51b82526004820152600f60248201526e105b5bdd5b9d081c995c5d5a5c9959608a1b6044820152fd5b823461021f57602036600319011261021f576040608091611ded611f02565b8160608451611dfb81611f6d565b8281528260208201528286820152015260018060a01b03168152600960205220604051611e2781611f6d565b815491828252600181015460208301908152606060ff600360028501549460408701958652015416930192151583526040519384525160208401525160408301525115156060820152f35b823461021f578060031936011261021f5760206040517f68e79a7bf1e0bc45d0a330c573bc367f9cf464fd326078812f301165fbda4ef18152f35b83903461069a57602036600319011261069a5760043563ffffffff60e01b81168091036119495760209250637965db0b60e01b8114908115611ef1575b5015158152f35b6301ffc9a760e01b14905083611eea565b600435906001600160a01b0382168203611f1857565b600080fd5b602435906001600160a01b0382168203611f1857565b90600182811c92168015611f63575b6020831014611f4d57565b634e487b7160e01b600052602260045260246000fd5b91607f1691611f42565b6080810190811067ffffffffffffffff821117611f8957604052565b634e487b7160e01b600052604160045260246000fd5b60e0810190811067ffffffffffffffff821117611f8957604052565b90601f8019910116810190811067ffffffffffffffff821117611f8957604052565b90604051918260008254611ff081611f33565b908184526020946001916001811690816000146120605750600114612021575b50505061201f92500383611fbb565b565b600090815285812095935091905b81831061204857505061201f9350820101388080612010565b8554888401850152948501948794509183019161202f565b9250505061201f94925060ff191682840152151560051b820101388080612010565b919082519283825260005b8481106120ae575050826000602080949584010152601f8019910116010190565b60208183018101518483018201520161208d565b9181601f84011215611f185782359167ffffffffffffffff8311611f185760208381860195010111611f1857565b6040906003190112611f18576004359060243590565b8054821015612122576000526007602060002091020190600090565b634e487b7160e01b600052603260045260246000fd5b90816020910312611f1857518015158103611f185790565b1561215757565b60405162461bcd60e51b815260206004820152600f60248201526e151c985b9cd9995c8819985a5b1959608a1b6044820152606490fd5b9190820180921161219b57565b634e487b7160e01b600052601160045260246000fd5b156121b857565b60405162461bcd60e51b815260206004820152600f60248201526e105b195c9d081b9bdd08199bdd5b99608a1b6044820152606490fd5b92919267ffffffffffffffff8211611f895760405191612219601f8201601f191660200184611fbb565b829481845281830111611f18578281602093846000960137010152565b600019811461219b5760010190565b908060209392818452848401376000828201840152601f01601f1916010190565b9190820391821161219b57565b600260015414612284576002600155565b604051633ee5aeb560e01b8152600490fd5b60ff600254166122a257565b60405163d93c066560e01b8152600490fd5b3360009081527fa629f6981c2f6895a67dc766e8e03ff72d04a413d0d8773a3ca56e9e474032c160205260409020547f68e79a7bf1e0bc45d0a330c573bc367f9cf464fd326078812f301165fbda4ef19060ff16156104525750565b3360009081527fad3228b676f7d3cd4284a5443f17f1962b36e491b30a40b2405849e597ba5fb5602052604081205460ff16156104525750565b80600052600060205260406000203360005260205260ff60406000205416156104525750565b6001600160a01b031660008181527f1d42a09cf6ce032e6c7e75793c7e15220cb878ddeae5a4f288bd199917f1597d60205260408120549091907f4d9863970d41475dce450df64b8c3f5625245716124ab2023150cc6828d194c49060ff1661241d57808352826020526040832082845260205260408320600160ff198254161790557f2f8788117e7eff1d82e926ec794901d17c78024a50270940304540a733656f0d339380a4600190565b505090565b6001600160a01b031660008181527fa629f6981c2f6895a67dc766e8e03ff72d04a413d0d8773a3ca56e9e474032c160205260408120549091907f68e79a7bf1e0bc45d0a330c573bc367f9cf464fd326078812f301165fbda4ef19060ff1661241d57808352826020526040832082845260205260408320600160ff198254161790557f2f8788117e7eff1d82e926ec794901d17c78024a50270940304540a733656f0d339380a4600190565b9060009180835282602052604083209160018060a01b03169182845260205260ff6040842054161560001461241d57808352826020526040832082845260205260408320600160ff198254161790557f2f8788117e7eff1d82e926ec794901d17c78024a50270940304540a733656f0d339380a4600190565b9060009180835282602052604083209160018060a01b03169182845260205260ff60408420541660001461241d5780835282602052604083208284526020526040832060ff1981541690557ff6391f5c32d9c69d2a47ea670b442974b53935d1edc7fd64eb21e047a839171b339380a460019056fea2646970667358221220cc1b7bf4e7439e4d1e8a38743ab57f8781e9d87988e0fffc96d6be99d1a7a77264736f6c634300081600332f8788117e7eff1d82e926ec794901d17c78024a50270940304540a733656f0d",
  "linkReferences": {},
  "deployedLinkReferences": {}
}