{
  "_format": "hh-sol-artifact-1",
  "contractName": "KAI_Oracle",
  "sourceName": "contracts/KAI_Oracle.sol",
  "abi": [
    {
      "inputs": [
        {
          "internalType": "address",
          "name": "_kaiToken",
          "type": "address"
        },
        {
          "internalType": "address",
          "name": "_climateStaking",
          "type": "address"
        },
        {
          "internalType": "address",
          "name": "admin",
          "type": "address"
        },
        {
          "internalType": "address",
          "name": "oracleOperator",
          "type": "address"
        },
        {
          "internalType": "address[]",
          "name": "guardians",
          "type": "address[]"
        }
      ],
      "stateMutability": "nonpayable",
      "type": "constructor"
    },
    {
      "inputs": [],
      "name": "AccessControlBadConfirmation",
      "type": "error"
    },
    {
      "inputs": [
        {
          "internalType": "address",
          "name": "account",
          "type": "address"
        },
        {
          "internalType": "bytes32",
          "name": "neededRole",
          "type": "bytes32"
        }
      ],
      "name": "AccessControlUnauthorizedAccount",
      "type": "error"
    },
    {
      "inputs": [],
      "name": "EnforcedPause",
      "type": "error"
    },
    {
      "inputs": [],
      "name": "ExpectedPause",
      "type": "error"
    },
    {
      "inputs": [],
      "name": "ReentrancyGuardReentrantCall",
      "type": "error"
    },
    {
      "anonymous": false,
      "inputs": [
        {
          "indexed": true,
          "internalType": "uint256",
          "name": "alertId",
          "type": "uint256"
        },
        {
          "indexed": false,
          "internalType": "uint256",
          "name": "recipientCount",
          "type": "uint256"
        },
        {
          "indexed": false,
          "internalType": "uint256",
          "name": "burnedAmount",
          "type": "uint256"
        },
        {
          "indexed": false,
          "internalType": "uint256",
          "name": "operatorReward",
          "type": "uint256"
        }
      ],
      "name": "AlertExecuted",
      "type": "event"
    },
    {
      "anonymous": false,
      "inputs": [
        {
          "indexed": true,
          "internalType": "uint256",
          "name": "alertId",
          "type": "uint256"
        },
        {
          "indexed": false,
          "internalType": "string",
          "name": "reason",
          "type": "string"
        }
      ],
      "name": "AlertRejected",
      "type": "event"
    },
    {
      "anonymous": false,
      "inputs": [
        {
          "indexed": true,
          "internalType": "uint256",
          "name": "alertId",
          "type": "uint256"
        },
        {
          "indexed": true,
          "internalType": "uint8",
          "name": "alertType",
          "type": "uint8"
        },
        {
          "indexed": false,
          "internalType": "string",
          "name": "region",
          "type": "string"
        },
        {
          "indexed": false,
          "internalType": "uint256",
          "name": "confidence",
          "type": "uint256"
        },
        {
          "indexed": false,
          "internalType": "address",
          "name": "operator",
          "type": "address"
        }
      ],
      "name": "AlertSubmitted",
      "type": "event"
    },
    {
      "anonymous": false,
      "inputs": [
        {
          "indexed": true,
          "internalType": "uint256",
          "name": "alertId",
          "type": "uint256"
        },
        {
          "indexed": true,
          "internalType": "address",
          "name": "guardian",
          "type": "address"
        },
        {
          "indexed": false,
          "internalType": "string",
          "name": "reason",
          "type": "string"
        }
      ],
      "name": "EmergencyOverride",
      "type": "event"
    },
    {
      "anonymous": false,
      "inputs": [
        {
          "indexed": true,
          "internalType": "address",
          "name": "operator",
          "type": "address"
        },
        {
          "indexed": false,
          "internalType": "uint256",
          "name": "amount",
          "type": "uint256"
        }
      ],
      "name": "OracleRewarded",
      "type": "event"
    },
    {
      "anonymous": false,
      "inputs": [
        {
          "indexed": false,
          "internalType": "address",
          "name": "account",
          "type": "address"
        }
      ],
      "name": "Paused",
      "type": "event"
    },
    {
      "anonymous": false,
      "inputs": [
        {
          "indexed": true,
          "internalType": "address",
          "name": "funder",
          "type": "address"
        },
        {
          "indexed": false,
          "internalType": "uint256",
          "name": "amount",
          "type": "uint256"
        },
        {
          "indexed": false,
          "internalType": "uint256",
          "name": "newBalance",
          "type": "uint256"
        }
      ],
      "name": "RewardPoolFunded",
      "type": "event"
    },
    {
      "anonymous": false,
      "inputs": [
        {
          "indexed": true,
          "internalType": "bytes32",
          "name": "role",
          "type": "bytes32"
        },
        {
          "indexed": true,
          "internalType": "bytes32",
          "name": "previousAdminRole",
          "type": "bytes32"
        },
        {
          "indexed": true,
          "internalType": "bytes32",
          "name": "newAdminRole",
          "type": "bytes32"
        }
      ],
      "name": "RoleAdminChanged",
      "type": "event"
    },
    {
      "anonymous": false,
      "inputs": [
        {
          "indexed": true,
          "internalType": "bytes32",
          "name": "role",
          "type": "bytes32"
        },
        {
          "indexed": true,
          "internalType": "address",
          "name": "account",
          "type": "address"
        },
        {
          "indexed": true,
          "internalType": "address",
          "name": "sender",
          "type": "address"
        }
      ],
      "name": "RoleGranted",
      "type": "event"
    },
    {
      "anonymous": false,
      "inputs": [
        {
          "indexed": true,
          "internalType": "bytes32",
          "name": "role",
          "type": "bytes32"
        },
        {
          "indexed": true,
          "internalType": "address",
          "name": "account",
          "type": "address"
        },
        {
          "indexed": true,
          "internalType": "address",
          "name": "sender",
          "type": "address"
        }
      ],
      "name": "RoleRevoked",
      "type": "event"
    },
    {
      "anonymous": false,
      "inputs": [
        {
          "indexed": false,
          "internalType": "address",
          "name": "account",
          "type": "address"
        }
      ],
      "name": "Unpaused",
      "type": "event"
    },
    {
      "inputs": [],
      "name": "ADMIN_ROLE",
      "outputs": [
        {
          "internalType": "bytes32",
          "name": "",
          "type": "bytes32"
        }
      ],
      "stateMutability": "view",
      "type": "function"
    },
    {
      "inputs": [],
      "name": "ALERT_COOLDOWN",
      "outputs": [
        {
          "internalType": "uint256",
          "name": "",
          "type": "uint256"
        }
      ],
      "stateMutability": "view",
      "type": "function"
    },
    {
      "inputs": [],
      "name": "CONFIDENCE_MULTIPLIER",
      "outputs": [
        {
          "internalType": "uint256",
          "name": "",
          "type": "uint256"
        }
      ],
      "stateMutability": "view",
      "type": "function"
    },
    {
      "inputs": [],
      "name": "DEFAULT_ADMIN_ROLE",
      "outputs": [
        {
          "internalType": "bytes32",
          "name": "",
          "type": "bytes32"
        }
      ],
      "stateMutability": "view",
      "type": "function"
    },
    {
      "inputs": [],
      "name": "GUARDIAN_ROLE",
      "outputs": [
        {
          "internalType": "bytes32",
          "name": "",
          "type": "bytes32"
        }
      ],
      "stateMutability": "view",
      "type": "function"
    },
    {
      "inputs": [],
      "name": "MAX_ALERTS_PER_DAY",
      "outputs": [
        {
          "internalType": "uint256",
          "name": "",
          "type": "uint256"
        }
      ],
      "stateMutability": "view",
      "type": "function"
    },
    {
      "inputs": [],
      "name": "MAX_DAILY_REWARDS",
      "outputs": [
        {
          "internalType": "uint256",
          "name": "",
          "type": "uint256"
        }
      ],
      "stateMutability": "view",
      "type": "function"
    },
    {
      "inputs": [],
      "name": "MAX_REWARD_PER_ALERT",
      "outputs": [
        {
          "internalType": "uint256",
          "name": "",
          "type": "uint256"
        }
      ],
      "stateMutability": "view",
      "type": "function"
    },
    {
      "inputs": [],
      "name": "MIN_CONFIDENCE",
      "outputs": [
        {
          "internalType": "uint256",
          "name": "",
          "type": "uint256"
        }
      ],
      "stateMutability": "view",
      "type": "function"
    },
    {
      "inputs": [],
      "name": "ORACLE_OPERATOR_ROLE",
      "outputs": [
        {
          "internalType": "bytes32",
          "name": "",
          "type": "bytes32"
        }
      ],
      "stateMutability": "view",
      "type": "function"
    },
    {
      "inputs": [],
      "name": "ORACLE_REWARD_RATE",
      "outputs": [
        {
          "internalType": "uint256",
          "name": "",
          "type": "uint256"
        }
      ],
      "stateMutability": "view",
      "type": "function"
    },
    {
      "inputs": [
        {
          "internalType": "address",
          "name": "operator",
          "type": "address"
        }
      ],
      "name": "addOracleOperator",
      "outputs": [],
      "stateMutability": "nonpayable",
      "type": "function"
    },
    {
      "inputs": [],
      "name": "alertCount",
      "outputs": [
        {
          "internalType": "uint256",
          "name": "",
          "type": "uint256"
        }
      ],
      "stateMutability": "view",
      "type": "function"
    },
    {
      "inputs": [
        {
          "internalType": "uint256",
          "name": "",
          "type": "uint256"
        }
      ],
      "name": "alerts",
      "outputs": [
        {
          "internalType": "uint8",
          "name": "alertType",
          "type": "uint8"
        },
        {
          "internalType": "bytes32",
          "name": "seal",
          "type": "bytes32"
        },
        {
          "internalType": "string",
          "name": "region",
          "type": "string"
        },
        {
          "internalType": "uint256",
          "name": "confidence",
          "type": "uint256"
        },
        {
          "internalType": "uint256",
          "name": "severity",
          "type": "uint256"
        },
        {
          "internalType": "string",
          "name": "dataSource",
          "type": "string"
        },
        {
          "internalType": "uint256",
          "name": "timestamp",
          "type": "uint256"
        },
        {
          "internalType": "bool",
          "name": "executed",
          "type": "bool"
        },
        {
          "internalType": "uint256",
          "name": "burnedAmount",
          "type": "uint256"
        }
      ],
      "stateMutability": "view",
      "type": "function"
    },
    {
      "inputs": [],
      "name": "claimRewards",
      "outputs": [],
      "stateMutability": "nonpayable",
      "type": "function"
    },
    {
      "inputs": [],
      "name": "climateStaking",
      "outputs": [
        {
          "internalType": "contract ClimateAlertStaking",
          "name": "",
          "type": "address"
        }
      ],
      "stateMutability": "view",
      "type": "function"
    },
    {
      "inputs": [
        {
          "internalType": "string",
          "name": "",
          "type": "string"
        },
        {
          "internalType": "uint256",
          "name": "",
          "type": "uint256"
        }
      ],
      "name": "dailyAlertCount",
      "outputs": [
        {
          "internalType": "uint256",
          "name": "",
          "type": "uint256"
        }
      ],
      "stateMutability": "view",
      "type": "function"
    },
    {
      "inputs": [
        {
          "internalType": "uint256",
          "name": "",
          "type": "uint256"
        }
      ],
      "name": "dailyRewardsPaid",
      "outputs": [
        {
          "internalType": "uint256",
          "name": "",
          "type": "uint256"
        }
      ],
      "stateMutability": "view",
      "type": "function"
    },
    {
      "inputs": [
        {
          "internalType": "uint256",
          "name": "alertId",
          "type": "uint256"
        },
        {
          "internalType": "string",
          "name": "reason",
          "type": "string"
        }
      ],
      "name": "emergencyOverride",
      "outputs": [],
      "stateMutability": "nonpayable",
      "type": "function"
    },
    {
      "inputs": [
        {
          "internalType": "uint256",
          "name": "amount",
          "type": "uint256"
        }
      ],
      "name": "fundRewardPool",
      "outputs": [],
      "stateMutability": "nonpayable",
      "type": "function"
    },
    {
      "inputs": [
        {
          "internalType": "uint256",
          "name": "alertId",
          "type": "uint256"
        }
      ],
      "name": "getAlert",
      "outputs": [
        {
          "internalType": "uint8",
          "name": "alertType",
          "type": "uint8"
        },
        {
          "internalType": "string",
          "name": "region",
          "type": "string"
        },
        {
          "internalType": "uint256",
          "name": "confidence",
          "type": "uint256"
        },
        {
          "internalType": "uint256",
          "name": "severity",
          "type": "uint256"
        },
        {
          "internalType": "bool",
          "name": "executed",
          "type": "bool"
        },
        {
          "internalType": "uint256",
          "name": "burnedAmount",
          "type": "uint256"
        },
        {
          "internalType": "uint256",
          "name": "timestamp",
          "type": "uint256"
        }
      ],
      "stateMutability": "view",
      "type": "function"
    },
    {
      "inputs": [],
      "name": "getOracleStats",
      "outputs": [
        {
          "internalType": "uint256",
          "name": "_totalAlerts",
          "type": "uint256"
        },
        {
          "internalType": "uint256",
          "name": "_totalExecuted",
          "type": "uint256"
        },
        {
          "internalType": "uint256",
          "name": "_averageConfidence",
          "type": "uint256"
        },
        {
          "internalType": "uint256",
          "name": "_totalRewardsPaid",
          "type": "uint256"
        }
      ],
      "stateMutability": "view",
      "type": "function"
    },
    {
      "inputs": [],
      "name": "getRewardPoolStatus",
      "outputs": [
        {
          "internalType": "uint256",
          "name": "poolBalance",
          "type": "uint256"
        },
        {
          "internalType": "uint256",
          "name": "dailyRemaining",
          "type": "uint256"
        },
        {
          "internalType": "uint256",
          "name": "maxPerAlert",
          "type": "uint256"
        }
      ],
      "stateMutability": "view",
      "type": "function"
    },
    {
      "inputs": [
        {
          "internalType": "bytes32",
          "name": "role",
          "type": "bytes32"
        }
      ],
      "name": "getRoleAdmin",
      "outputs": [
        {
          "internalType": "bytes32",
          "name": "",
          "type": "bytes32"
        }
      ],
      "stateMutability": "view",
      "type": "function"
    },
    {
      "inputs": [
        {
          "internalType": "bytes32",
          "name": "role",
          "type": "bytes32"
        },
        {
          "internalType": "address",
          "name": "account",
          "type": "address"
        }
      ],
      "name": "grantRole",
      "outputs": [],
      "stateMutability": "nonpayable",
      "type": "function"
    },
    {
      "inputs": [
        {
          "internalType": "bytes32",
          "name": "role",
          "type": "bytes32"
        },
        {
          "internalType": "address",
          "name": "account",
          "type": "address"
        }
      ],
      "name": "hasRole",
      "outputs": [
        {
          "internalType": "bool",
          "name": "",
          "type": "bool"
        }
      ],
      "stateMutability": "view",
      "type": "function"
    },
    {
      "inputs": [],
      "name": "kaiToken",
      "outputs": [
        {
          "internalType": "contract KAIToken",
          "name": "",
          "type": "address"
        }
      ],
      "stateMutability": "view",
      "type": "function"
    },
    {
      "inputs": [
        {
          "internalType": "string",
          "name": "",
          "type": "string"
        },
        {
          "internalType": "uint8",
          "name": "",
          "type": "uint8"
        }
      ],
      "name": "lastAlertTime",
      "outputs": [
        {
          "internalType": "uint256",
          "name": "",
          "type": "uint256"
        }
      ],
      "stateMutability": "view",
      "type": "function"
    },
    {
      "inputs": [
        {
          "internalType": "address",
          "name": "",
          "type": "address"
        }
      ],
      "name": "operatorRewards",
      "outputs": [
        {
          "internalType": "uint256",
          "name": "",
          "type": "uint256"
        }
      ],
      "stateMutability": "view",
      "type": "function"
    },
    {
      "inputs": [],
      "name": "pause",
      "outputs": [],
      "stateMutability": "nonpayable",
      "type": "function"
    },
    {
      "inputs": [],
      "name": "paused",
      "outputs": [
        {
          "internalType": "bool",
          "name": "",
          "type": "bool"
        }
      ],
      "stateMutability": "view",
      "type": "function"
    },
    {
      "inputs": [
        {
          "internalType": "bytes32",
          "name": "role",
          "type": "bytes32"
        },
        {
          "internalType": "address",
          "name": "callerConfirmation",
          "type": "address"
        }
      ],
      "name": "renounceRole",
      "outputs": [],
      "stateMutability": "nonpayable",
      "type": "function"
    },
    {
      "inputs": [
        {
          "internalType": "bytes32",
          "name": "role",
          "type": "bytes32"
        },
        {
          "internalType": "address",
          "name": "account",
          "type": "address"
        }
      ],
      "name": "revokeRole",
      "outputs": [],
      "stateMutability": "nonpayable",
      "type": "function"
    },
    {
      "inputs": [],
      "name": "rewardPool",
      "outputs": [
        {
          "internalType": "uint256",
          "name": "",
          "type": "uint256"
        }
      ],
      "stateMutability": "view",
      "type": "function"
    },
    {
      "inputs": [
        {
          "internalType": "uint8",
          "name": "alertType",
          "type": "uint8"
        },
        {
          "internalType": "string",
          "name": "region",
          "type": "string"
        },
        {
          "internalType": "uint256",
          "name": "confidence",
          "type": "uint256"
        },
        {
          "internalType": "uint256",
          "name": "severity",
          "type": "uint256"
        },
        {
          "internalType": "string",
          "name": "dataSource",
          "type": "string"
        },
        {
          "internalType": "address[]",
          "name": "recipients",
          "type": "address[]"
        }
      ],
      "name": "submitAlert",
      "outputs": [
        {
          "internalType": "uint256",
          "name": "",
          "type": "uint256"
        }
      ],
      "stateMutability": "nonpayable",
      "type": "function"
    },
    {
      "inputs": [
        {
          "internalType": "bytes4",
          "name": "interfaceId",
          "type": "bytes4"
        }
      ],
      "name": "supportsInterface",
      "outputs": [
        {
          "internalType": "bool",
          "name": "",
          "type": "bool"
        }
      ],
      "stateMutability": "view",
      "type": "function"
    },
    {
      "inputs": [],
      "name": "totalAlertsExecuted",
      "outputs": [
        {
          "internalType": "uint256",
          "name": "",
          "type": "uint256"
        }
      ],
      "stateMutability": "view",
      "type": "function"
    },
    {
      "inputs": [],
      "name": "totalConfidenceScore",
      "outputs": [
        {
          "internalType": "uint256",
          "name": "",
          "type": "uint256"
        }
      ],
      "stateMutability": "view",
      "type": "function"
    },
    {
      "inputs": [],
      "name": "totalRewardsPaid",
      "outputs": [
        {
          "internalType": "uint256",
          "name": "",
          "type": "uint256"
        }
      ],
      "stateMutability": "view",
      "type": "function"
    },
    {
      "inputs": [],
      "name": "unpause",
      "outputs": [],
      "stateMutability": "nonpayable",
      "type": "function"
    }
  ],
  "bytecode": "0x604060c08152346200032e5762002992803803806200001e8162000349565b92833981019060a0818303126200032e576200003a816200036f565b6020620000498184016200036f565b92620000578682016200036f565b62000065606083016200036f565b60808301516001600160401b03939192918482116200032e57019680601f890112156200032e57875193841162000333576005978460051b908680620000ad81850162000349565b8098815201928201019283116200032e5786809101915b8383106200031357505060016000819055976001600160a01b03978816925090508115620002cf5786169081156200028b578683161562000247578684161562000203576001855110620001bf5760805260a052859493929162000140916200013990620001328162000384565b5062000405565b50620004a8565b506000935b6200018f575b865161238d9081620005e582396080518181816106480152818161160e01526119bb015260a05181818161021b01528181610b6d01528181610c050152610c980152f35b8051841015620001b9578484620001b0858584988b1b860101511662000546565b50019362000145565b6200014b565b895162461bcd60e51b815260048101879052601660248201527f4f7261636c653a206e65656420677561726469616e73000000000000000000006044820152606490fd5b895162461bcd60e51b815260048101879052601860248201527f4f7261636c653a20696e76616c6964206f70657261746f7200000000000000006044820152606490fd5b895162461bcd60e51b815260048101879052601560248201527f4f7261636c653a20696e76616c69642061646d696e00000000000000000000006044820152606490fd5b895162461bcd60e51b815260048101879052601760248201527f4f7261636c653a20696e76616c6964207374616b696e670000000000000000006044820152606490fd5b895162461bcd60e51b815260048101879052601560248201527f4f7261636c653a20696e76616c696420746f6b656e00000000000000000000006044820152606490fd5b819062000320846200036f565b8152019101908690620000c4565b600080fd5b634e487b7160e01b600052604160045260246000fd5b6040519190601f01601f191682016001600160401b038111838210176200033357604052565b51906001600160a01b03821682036200032e57565b6001600160a01b031660008181527fa6eef7e35abe7026729641147f7915573c7e97b47efa546f5f6e3230263bcb49602052604081205490919060ff16620004015781805260016020526040822081835260205260408220600160ff198254161790553391600080516020620029728339815191528180a4600190565b5090565b6001600160a01b031660008181527f50efbde2d46c37e9785f1791697f77e94bb7b701e19f1930a668820722d3769460205260408120549091907fa49807205ce4d355092ef5a8a18f56e8913cf4a201fbe287825b095693c217759060ff16620004a35780835260016020526040832082845260205260408320600160ff1982541617905560008051602062002972833981519152339380a4600190565b505090565b6001600160a01b031660008181527f8ef1f5b0844a73060266bc261a82e6bc043ae729756e57ebe49c7306d822b48a60205260408120549091907ff9b712ed3cd0e90cdc9d1abac8fb677bf018af115fb294c768a96b48bd6922c59060ff16620004a35780835260016020526040832082845260205260408320600160ff1982541617905560008051602062002972833981519152339380a4600190565b6001600160a01b031660008181527fe8fad4b49f5ba25b2c682cfec2ac50a7a40bbd1e12ab51733ec3e9c2f6f1c5db60205260408120549091907f55435dd261a4b9b3364963f7738a7a662ad9c84396d64be3365284bb7f0a50419060ff16620004a35780835260016020526040832082845260205260408320600160ff1982541617905560008051602062002972833981519152339380a460019056fe608080604052600436101561001357600080fd5b600090813560e01c90816301ffc9a714611bf0575080630f2b344414611bd457806311d11a5b14611bab578063171d073a14611af35780631d583e0d1461196e578063248a9ca31461194257806324ea54f41461190757806328e6ef3f146118885780632c1529981461186b5780632f2ff15d1461182d578063344b5a20146117c657806336568abe1461177e578063372500ab1461158a5780633f4ba83a1461151f57806341a2b8d6146114e657806341f93757146114ca5780635c975abb146114a757806366666aa9146114895780636f3b96221461146b57806371ca31761461144f57806374958e351461143157806375b238fc146113f65780637e305998146107aa5780638456cb591461074f57806385081886146106c357806391d14854146106775780639bcfdfc014610632578063a217fddf14610616578063ab446491146105f8578063c6c035b51461058d578063cacb654114610419578063cb05347a14610394578063cd25803314610377578063d136a94d14610352578063d30f5ce9146102cf578063d547741f1461028d578063dcb2927b14610268578063ea9eb8351461024a578063eaa04315146102055763edea8a48146101d957600080fd5b346102025760203660031901126102025760406020916004358152600483522054604051908152f35b80fd5b50346102025780600319360112610202576040517f00000000000000000000000000000000000000000000000000000000000000006001600160a01b03168152602090f35b50346102025780600319360112610202576020600c54604051908152f35b5034610202578060031936011261020257602060405169021e19e0c9bab24000008152f35b5034610202576040366003190112610202576102cb6004356102ad611db9565b9080845260016020526102c66001604086200154611fa1565b6120e3565b5080f35b5034610202576040366003190112610202576004356001600160401b03811161034e57610300903690600401611dcf565b6024359060ff8216809203610349576020610328918160405193828580945193849201611d5b565b81016008815203019020906000526020526020604060002054604051908152f35b600080fd5b5080fd5b5034610202578060031936011261020257602060405169152d02c7e14af68000008152f35b5034610202578060031936011261020257602060405161012c8152f35b503461020257806003193601126102025762015180420481526004602052604081205469152d02c7e14af680000091908083111561040f5782039182116103fb57506060905b60035490604051918252602082015269021e19e0c9bab24000006040820152f35b634e487b7160e01b81526011600452602490fd5b50606091506103da565b5034610202576040366003190112610202576004356024356001600160401b0381116105895761044d903690600401611e25565b3360009081527fe8fad4b49f5ba25b2c682cfec2ac50a7a40bbd1e12ab51733ec3e9c2f6f1c5db602090815260409091205490939291907f55435dd261a4b9b3364963f7738a7a662ad9c84396d64be3365284bb7f0a50419060ff161561056b57508215158061055f575b1561052257907f6a57ceeb7cdf86a63aaa04d3a9a7e03b9d3cdaba40e7d63cc373c4eb54aa7900918386526006855260086040872001600181546104ff60ff821615611ed6565b60ff191617905561051c6040519283928784523397840191611eb5565b0390a380f35b60405162461bcd60e51b815260048101859052601560248201527413dc9858db194e881a5b9d985b1a5908185b195c9d605a1b6044820152606490fd5b506005548311156104b8565b6044906040519063e2517d3f60e01b82523360048301526024820152fd5b8280fd5b5034610202578060031936011261020257600c54801591826105ee5750600b54916105d8578060809204905b60055491600a5491604051938452602084015260408301526060820152f35b634e487b7160e01b600052601260045260246000fd5b60809250906105b9565b50346102025780600319360112610202576020600554604051908152f35b5034610202578060031936011261020257602090604051908152f35b50346102025780600319360112610202576040517f00000000000000000000000000000000000000000000000000000000000000006001600160a01b03168152602090f35b5034610202576040366003190112610202576040610693611db9565b9160043581526001602052209060018060a01b0316600052602052602060ff604060002054166040519015158152f35b503461020257602036600319011261020257604090600435815260066020522060ff815416600382015460048301549260ff600882015416600982015490610712600260078501549401611cb6565b9561072f604051978897885260e0602089015260e0880190611d7e565b94604087015260608601521515608085015260a084015260c08301520390f35b5034610202578060031936011261020257610768611f45565b61077061215a565b600160ff1960025416176002557f62e78cea01bee320cd4e420270b5ea74000d11b0c9f74754ebdbfc544b05a2586020604051338152a180f35b50346102025760c03660031901126102025760ff6004351660043503610202576024356001600160401b03811161034e576107e9903690600401611e25565b6084929192356001600160401b0381116105895761080b903690600401611e25565b6001600160401b0360a495929535116113f25736602360a4350112156113f2576001600160401b0360a43560040135116113f25736602460a4356004013560051b60a4350101116113f257600080516020612338833981519152845260016020526040842033855260205260ff604085205416156113c65761088b61215a565b610893611f22565b600160ff600435161015806113b6575b1561137a57606460443511611335576001606435101580611328575b156112e35760a43560040135156112a657821561126a576108e562015180420642611e82565b90604051848482376020818681016007815203019020828652602052600a604086205410156112255760405184848237602081868101600881520301902060ff60043516865260205260408520546154608101809111610d0e5742106111e057610950600435612178565b9561095c600554611e8f565b8060055586526006602052604086209660ff6004351660ff1989541617885560018801556001600160401b0385116111245761099b6002880154611c45565b601f81116111ad575b508486601f8211600114611143578791611138575b508560011b906000198760031b1c19161760028801555b604435600388015560643560048801556001600160401b0382116111245781906109fd6005890154611c45565b601f81116110e6575b508690601f831160011461107a57879261106f575b50508160011b916000199060031b1c19161760058601555b6801000000000000000060a435600401351161105b57600685018054600460a435013591829055908111611037575b506006850184526020842060a435602401855b60a43560040135811061100e575050506008610b24954260078201550160ff19815416905560405183838237602081858101600781520301902090845260205260408320610ac38154611e8f565b905560405182828237602081848101600881520301902060ff6004351684526020524260408420557f9a4510f1ea344006c4da008f109bacf2dcfe6bf7fdfec2bd2ecbfcf7089bf63860055494859260405194606086526060860191611eb5565b9260443560208201523360408201528060ff60043516940390a3605060443510610fb05781815260066020526040812090610b6660ff60088401541615611ed6565b815460ff167f00000000000000000000000000000000000000000000000000000000000000006001600160a01b03163b1561034e5760405190636e05afd760e01b82526004820152606060248201528181816002860154610bc681611c45565b9081606485015283600182169182600014610f8e575050600114610f4d575b50610c008291600319838203016044840152600688016122f0565b0381837f00000000000000000000000000000000000000000000000000000000000000006001600160a01b03165af18015610f4257610f17575b50604051610c5681610c4f81600687016122f0565b0382611c7f565b8193825b8251811015610d7a57600581901b8301602001516040516303d3b32360e51b81526001600160a01b0391821660048201529060a090829060249082907f0000000000000000000000000000000000000000000000000000000000000000165afa8015610d6f5785918691610d2b575b5080610d22575b610cde575b50600101610c5a565b6103e8969196908082810204821481151715610d0e5791612710610d0792600194020490611e5f565b9590610cd5565b634e487b7160e01b86526011600452602486fd5b50801515610cd0565b91505060a0813d60a011610d67575b81610d4760a09383611c7f565b81010312610d6357610d5d608082519201611e52565b38610cc9565b8480fd5b3d9150610d3a565b6040513d87823e3d90fd5b509192905061012c808502908582041485151715610f0357612710900469021e19e0c9bab2400000808211610efb575b50620151804204918285526004602052604085205469152d02c7e14af680000090808211600014610eca578103908111610d0e5792606092602097927f0431ca793568ba40132b7f9e11da4badfaa9ac7826e39cde4a2982860ce30f67955b808311610ec2575b50600354808311610eb9575b5060069192600160ff19600884015416176008830155846009830155610e44600c54611e8f565b600c55610e576003830154600b54611e5f565b600b5583610e84575b50015491604051928352878301526040820152a25b60016005549155604051908152f35b33895260098a5260408920610e9a858254611e5f565b905588526004895260408820610eb1848254611e5f565b905538610e60565b91506006610e1d565b915038610e11565b5050947f0431ca793568ba40132b7f9e11da4badfaa9ac7826e39cde4a2982860ce30f679260609260209787610e09565b905038610daa565b634e487b7160e01b84526011600452602484fd5b6001600160401b038111610f2e5760405238610c3a565b634e487b7160e01b82526041600452602482fd5b6040513d84823e3d90fd5b600287018452602084208492505b818310610f715750508101608401610c00610be5565b805460848488010152869450859350602090920191600101610f5b565b610c00939194506084925060ff191682850152151560051b8301019150610be5565b6020917f17d9f630dda16902fffa0b25afdcad243b3b00a53a4cda9f2ac5e6fe76e302ce6060604051858152601a868201527f436f6e666964656e63652062656c6f77207468726573686f6c640000000000006040820152a2610e75565b8135916001600160a01b03831683036110335790602060019201928185015501610a75565b8780fd5b6006860185526020852061105591810190600460a435013501611e9e565b38610a62565b634e487b7160e01b84526041600452602484fd5b013590503880610a1b565b60058901885260208820889450915b601f19841685106110ce576001945083601f198116106110b4575b505050811b016005860155610a33565b0135600019600384901b60f8161c191690553880806110a4565b81810135835560209485019460019093019201611089565b6111149060058a01895260208920601f850160051c8101916020861061111a575b601f0160051c0190611e9e565b38610a06565b9091508190611107565b634e487b7160e01b86526041600452602486fd5b9050840135386109b9565b600289018852602088209150875b601f1988168110611195575086601f1981161061117b575b5050600185811b0160028801556109d0565b850135600019600388901b60f8161c191690553880611169565b9091602060018192858a013581550193019101611151565b6111da9060028901885260208820601f880160051c8101916020891061111a57601f0160051c0190611e9e565b386109a4565b60405162461bcd60e51b815260206004820152601760248201527f4f7261636c653a20636f6f6c646f776e206163746976650000000000000000006044820152606490fd5b60405162461bcd60e51b815260206004820152601b60248201527f4f7261636c653a2072617465206c696d697420657863656564656400000000006044820152606490fd5b60405162461bcd60e51b815260206004820152601460248201527327b930b1b6329d1032b6b83a3c903932b3b4b7b760611b6044820152606490fd5b60405162461bcd60e51b81526020600482015260156024820152744f7261636c653a206e6f20726563697069656e747360581b6044820152606490fd5b60405162461bcd60e51b815260206004820152601860248201527f4f7261636c653a20696e76616c696420736576657269747900000000000000006044820152606490fd5b50600560643511156108bf565b60405162461bcd60e51b815260206004820152601a60248201527f4f7261636c653a20696e76616c696420636f6e666964656e63650000000000006044820152606490fd5b60405162461bcd60e51b81526020600482015260146024820152734f7261636c653a20696e76616c6964207479706560601b6044820152606490fd5b50600760ff6004351611156108a3565b60405163e2517d3f60e01b81523360048201526000805160206123388339815191526024820152604490fd5b8380fd5b503461020257806003193601126102025760206040517fa49807205ce4d355092ef5a8a18f56e8913cf4a201fbe287825b095693c217758152f35b50346102025780600319360112610202576020600a54604051908152f35b5034610202578060031936011261020257602060405160648152f35b50346102025780600319360112610202576020600b54604051908152f35b50346102025780600319360112610202576020600354604051908152f35b5034610202578060031936011261020257602060ff600254166040519015158152f35b5034610202578060031936011261020257602060405160508152f35b5034610202576020366003190112610202576020906040906001600160a01b0361150e611da3565b168152600983522054604051908152f35b5034610202578060031936011261020257611538611f45565b60025460ff8116156115785760ff19166002557f5db9ee0a495bf2e6ff9c91a7834c1ba4fdd244a5e8aa4e537bd38aeae4b073aa6020604051338152a180f35b604051638dfc202b60e01b8152600490fd5b50346102025780600319360112610202576115a3611f22565b338152602060098152604082205490811561174557816003541061170257338352600981528260408120556115da82600354611e82565b6003556115e982600a54611e5f565b600a5560405163a9059cbb60e01b8152336004820152602481018390528181604481877f00000000000000000000000000000000000000000000000000000000000000006001600160a01b03165af19081156116f75784916116c2575b501561167e577f8e411d31cabf3aa3f89c6092861ba364b87ac0ed40cbeb111ded5ede0c53d212906040519283523392a26001815580f35b6064906040519062461bcd60e51b82526004820152601e60248201527f4f7261636c653a20726577617264207472616e73666572206661696c656400006044820152fd5b90508181813d83116116f0575b6116d98183611c7f565b810103126113f2576116ea90611e52565b38611646565b503d6116cf565b6040513d86823e3d90fd5b6064906040519062461bcd60e51b825280600483015260248201527f4f7261636c653a20696e73756666696369656e742072657761726420706f6f6c6044820152fd5b6064906040519062461bcd60e51b8252600482015260126024820152714f7261636c653a206e6f207265776172647360701b6044820152fd5b503461020257604036600319011261020257611798611db9565b336001600160a01b038216036117b4576102cb906004356120e3565b60405163334bd91960e11b8152600490fd5b5034610202576040366003190112610202576004356001600160401b03811161034e57602091611812836118006040943690600401611dcf565b81855193828580945193849201611d5b565b81016007815203019020602435825283522054604051908152f35b5034610202576040366003190112610202576102cb60043561184d611db9565b9080845260016020526118666001604086200154611fa1565b612068565b503461020257806003193601126102025760206040516154608152f35b5034610202576020366003190112610202576118a2611da3565b6118aa611f45565b6001600160a01b038116156118c2576102cb90611fc7565b60405162461bcd60e51b815260206004820152601860248201527f4f7261636c653a20696e76616c6964206f70657261746f7200000000000000006044820152606490fd5b503461020257806003193601126102025760206040517f55435dd261a4b9b3364963f7738a7a662ad9c84396d64be3365284bb7f0a50418152f35b503461020257602036600319011261020257600160406020926004358152828452200154604051908152f35b50346102025760208060031936011261034e576004359061198d611f22565b8115611ab9576040516323b872dd60e01b8152336004820152306024820152604481018390528181606481877f00000000000000000000000000000000000000000000000000000000000000006001600160a01b03165af19081156116f7578491611a84575b5015611a4057611a0582600354611e5f565b90816003556040519283528201527f49740176a81d28f933051e26004df983307376c5a93665e9e63f2e6b9d67128260403392a26001815580f35b6064906040519062461bcd60e51b82526004820152601760248201527f4f7261636c653a207472616e73666572206661696c65640000000000000000006044820152fd5b90508181813d8311611ab2575b611a9b8183611c7f565b810103126113f257611aac90611e52565b386119f3565b503d611a91565b6064906040519062461bcd60e51b82526004820152601360248201527213dc9858db194e881e995c9bc8185b5bdd5b9d606a1b6044820152fd5b503461020257602036600319011261020257604090600435815260066020522060ff81541690600181015490611b2b60028201611cb6565b600382015491611b94600482015493611b4660058401611cb6565b600784015495611b7c600960ff600888015416960154966040519a8b9a610120918c5260208c01528060408c01528a0190611d7e565b926060890152608088015286820360a0880152611d7e565b9260c0850152151560e08401526101008301520390f35b503461020257806003193601126102025760206040516000805160206123388339815191528152f35b50346102025780600319360112610202576020604051600a8152f35b90503461034e57602036600319011261034e5760043563ffffffff60e01b81168091036105895760209250637965db0b60e01b8114908115611c34575b5015158152f35b6301ffc9a760e01b14905038611c2d565b90600182811c92168015611c75575b6020831014611c5f57565b634e487b7160e01b600052602260045260246000fd5b91607f1691611c54565b90601f801991011681019081106001600160401b03821117611ca057604052565b634e487b7160e01b600052604160045260246000fd5b90604051918260008254611cc981611c45565b90818452602094600191600181169081600014611d395750600114611cfa575b505050611cf892500383611c7f565b565b600090815285812095935091905b818310611d21575050611cf89350820101388080611ce9565b85548884018501529485019487945091830191611d08565b92505050611cf894925060ff191682840152151560051b820101388080611ce9565b60005b838110611d6e5750506000910152565b8181015183820152602001611d5e565b90602091611d9781518092818552858086019101611d5b565b601f01601f1916010190565b600435906001600160a01b038216820361034957565b602435906001600160a01b038216820361034957565b81601f82011215610349578035906001600160401b038211611ca05760405192611e03601f8401601f191660200185611c7f565b8284526020838301011161034957816000926020809301838601378301015290565b9181601f84011215610349578235916001600160401b038311610349576020838186019501011161034957565b5190811515820361034957565b91908201809211611e6c57565b634e487b7160e01b600052601160045260246000fd5b91908203918211611e6c57565b6000198114611e6c5760010190565b818110611ea9575050565b60008155600101611e9e565b908060209392818452848401376000828201840152601f01601f1916010190565b15611edd57565b60405162461bcd60e51b815260206004820152601860248201527f4f7261636c653a20616c726561647920657865637574656400000000000000006044820152606490fd5b600260005414611f33576002600055565b604051633ee5aeb560e01b8152600490fd5b3360009081527f50efbde2d46c37e9785f1791697f77e94bb7b701e19f1930a668820722d3769460205260409020547fa49807205ce4d355092ef5a8a18f56e8913cf4a201fbe287825b095693c217759060ff161561056b5750565b80600052600160205260406000203360005260205260ff604060002054161561056b5750565b6001600160a01b031660008181527f8ef1f5b0844a73060266bc261a82e6bc043ae729756e57ebe49c7306d822b48a60205260408120549091906000805160206123388339815191529060ff166120635780835260016020526040832082845260205260408320600160ff198254161790557f2f8788117e7eff1d82e926ec794901d17c78024a50270940304540a733656f0d339380a4600190565b505090565b906000918083526001602052604083209160018060a01b03169182845260205260ff604084205416156000146120635780835260016020526040832082845260205260408320600160ff198254161790557f2f8788117e7eff1d82e926ec794901d17c78024a50270940304540a733656f0d339380a4600190565b906000918083526001602052604083209160018060a01b03169182845260205260ff604084205416600014612063578083526001602052604083208284526020526040832060ff1981541690557ff6391f5c32d9c69d2a47ea670b442974b53935d1edc7fd64eb21e047a839171b339380a4600190565b60ff6002541661216657565b60405163d93c066560e01b8152600490fd5b60ff16600181146122cb57600281146122a65760038114612281576004811461225c57600581146122375760068114612212576007146121ee5760405162461bcd60e51b81526020600482015260146024820152734f7261636c653a20696e76616c6964207479706560601b6044820152606490fd5b7f1456948c787b6bea2311410679f7fca225f0c17407127bb48f9aae4f0bc0a42490565b507f9ab95608efa90e42d0ac148c1b94f3dc1181d7a2722a638b493a943bcfb5b48f90565b507f2558eac5940f37323a05eaedb05b771532b42ba1a269a877869dc2814c0e5b5290565b507ff5eed3c8a1c89c67d932a7a654a03bc0971d406b80b924bb618aa2fab7158c3390565b507f735ac48ed4f0ad1a4cbd4f9c9cc37f1e17b8c19ab410ef4c9efeec698761f08a90565b507feb5407ca6ba8d11327cab70541bba19f6fd74f868b7eb52c23e0871f095c809390565b507f16b7c7c21ac9867c03381fb04ae49b08b3d47dbce5e18e8a840f439e93b7b01a90565b9081548082526020809201926000526020600020916000905b828210612317575050505090565b83546001600160a01b03168552938401936001938401939091019061230956fef9b712ed3cd0e90cdc9d1abac8fb677bf018af115fb294c768a96b48bd6922c5a26469706673582212209ea30458bcec255f1858612108a4abe670bb8a522c3f233cb814041a9d66678564736f6c634300081600332f8788117e7eff1d82e926ec794901d17c78024a50270940304540a733656f0d",
  "linkReferences": {},
  "deployedLinkReferences": {}
}