{
  "_format": "hh-sol-artifact-1",
  "contractName": "KaiToken",
  "sourceName": "contracts/core/KaiToken.sol",
  "abi": [
    {
      "inputs": [
        {
          "internalType": "address",
          "name": "defaultAdmin",
          "type": "address"
        },
        {
          "internalType": "address",
          "name": "treasury",
          "type": "address"
        }
      ],
      "stateMutability": "nonpayable",
      "type": "constructor"
    },
    {
      "inputs": [],
      "name": "AccessControlBadConfirmation",
      "type": "error"
    },
    {
      "inputs": [
        {
          "internalType": "address",
          "name": "account",
          "type": "address"
        },
        {
          "internalType": "bytes32",
          "name": "neededRole",
          "type": "bytes32"
        }
      ],
      "name": "AccessControlUnauthorizedAccount",
      "type": "error"
    },
    {
      "inputs": [],
      "name": "CheckpointUnorderedInsertion",
      "type": "error"
    },
    {
      "inputs": [],
      "name": "ECDSAInvalidSignature",
      "type": "error"
    },
    {
      "inputs": [
        {
          "internalType": "uint256",
          "name": "length",
          "type": "uint256"
        }
      ],
      "name": "ECDSAInvalidSignatureLength",
      "type": "error"
    },
    {
      "inputs": [
        {
          "internalType": "bytes32",
          "name": "s",
          "type": "bytes32"
        }
      ],
      "name": "ECDSAInvalidSignatureS",
      "type": "error"
    },
    {
      "inputs": [
        {
          "internalType": "uint256",
          "name": "increasedSupply",
          "type": "uint256"
        },
        {
          "internalType": "uint256",
          "name": "cap",
          "type": "uint256"
        }
      ],
      "name": "ERC20ExceededSafeSupply",
      "type": "error"
    },
    {
      "inputs": [
        {
          "internalType": "address",
          "name": "spender",
          "type": "address"
        },
        {
          "internalType": "uint256",
          "name": "allowance",
          "type": "uint256"
        },
        {
          "internalType": "uint256",
          "name": "needed",
          "type": "uint256"
        }
      ],
      "name": "ERC20InsufficientAllowance",
      "type": "error"
    },
    {
      "inputs": [
        {
          "internalType": "address",
          "name": "sender",
          "type": "address"
        },
        {
          "internalType": "uint256",
          "name": "balance",
          "type": "uint256"
        },
        {
          "internalType": "uint256",
          "name": "needed",
          "type": "uint256"
        }
      ],
      "name": "ERC20InsufficientBalance",
      "type": "error"
    },
    {
      "inputs": [
        {
          "internalType": "address",
          "name": "approver",
          "type": "address"
        }
      ],
      "name": "ERC20InvalidApprover",
      "type": "error"
    },
    {
      "inputs": [
        {
          "internalType": "address",
          "name": "receiver",
          "type": "address"
        }
      ],
      "name": "ERC20InvalidReceiver",
      "type": "error"
    },
    {
      "inputs": [
        {
          "internalType": "address",
          "name": "sender",
          "type": "address"
        }
      ],
      "name": "ERC20InvalidSender",
      "type": "error"
    },
    {
      "inputs": [
        {
          "internalType": "address",
          "name": "spender",
          "type": "address"
        }
      ],
      "name": "ERC20InvalidSpender",
      "type": "error"
    },
    {
      "inputs": [
        {
          "internalType": "uint256",
          "name": "deadline",
          "type": "uint256"
        }
      ],
      "name": "ERC2612ExpiredSignature",
      "type": "error"
    },
    {
      "inputs": [
        {
          "internalType": "address",
          "name": "signer",
          "type": "address"
        },
        {
          "internalType": "address",
          "name": "owner",
          "type": "address"
        }
      ],
      "name": "ERC2612InvalidSigner",
      "type": "error"
    },
    {
      "inputs": [
        {
          "internalType": "uint256",
          "name": "timepoint",
          "type": "uint256"
        },
        {
          "internalType": "uint48",
          "name": "clock",
          "type": "uint48"
        }
      ],
      "name": "ERC5805FutureLookup",
      "type": "error"
    },
    {
      "inputs": [],
      "name": "ERC6372InconsistentClock",
      "type": "error"
    },
    {
      "inputs": [],
      "name": "EnforcedPause",
      "type": "error"
    },
    {
      "inputs": [],
      "name": "ExpectedPause",
      "type": "error"
    },
    {
      "inputs": [
        {
          "internalType": "address",
          "name": "account",
          "type": "address"
        },
        {
          "internalType": "uint256",
          "name": "currentNonce",
          "type": "uint256"
        }
      ],
      "name": "InvalidAccountNonce",
      "type": "error"
    },
    {
      "inputs": [],
      "name": "InvalidShortString",
      "type": "error"
    },
    {
      "inputs": [
        {
          "internalType": "uint8",
          "name": "bits",
          "type": "uint8"
        },
        {
          "internalType": "uint256",
          "name": "value",
          "type": "uint256"
        }
      ],
      "name": "SafeCastOverflowedUintDowncast",
      "type": "error"
    },
    {
      "inputs": [
        {
          "internalType": "string",
          "name": "str",
          "type": "string"
        }
      ],
      "name": "StringTooLong",
      "type": "error"
    },
    {
      "inputs": [
        {
          "internalType": "uint256",
          "name": "expiry",
          "type": "uint256"
        }
      ],
      "name": "VotesExpiredSignature",
      "type": "error"
    },
    {
      "anonymous": false,
      "inputs": [
        {
          "indexed": true,
          "internalType": "address",
          "name": "owner",
          "type": "address"
        },
        {
          "indexed": true,
          "internalType": "address",
          "name": "spender",
          "type": "address"
        },
        {
          "indexed": false,
          "internalType": "uint256",
          "name": "value",
          "type": "uint256"
        }
      ],
      "name": "Approval",
      "type": "event"
    },
    {
      "anonymous": false,
      "inputs": [
        {
          "indexed": true,
          "internalType": "address",
          "name": "delegator",
          "type": "address"
        },
        {
          "indexed": true,
          "internalType": "address",
          "name": "fromDelegate",
          "type": "address"
        },
        {
          "indexed": true,
          "internalType": "address",
          "name": "toDelegate",
          "type": "address"
        }
      ],
      "name": "DelegateChanged",
      "type": "event"
    },
    {
      "anonymous": false,
      "inputs": [
        {
          "indexed": true,
          "internalType": "address",
          "name": "delegate",
          "type": "address"
        },
        {
          "indexed": false,
          "internalType": "uint256",
          "name": "previousVotes",
          "type": "uint256"
        },
        {
          "indexed": false,
          "internalType": "uint256",
          "name": "newVotes",
          "type": "uint256"
        }
      ],
      "name": "DelegateVotesChanged",
      "type": "event"
    },
    {
      "anonymous": false,
      "inputs": [],
      "name": "EIP712DomainChanged",
      "type": "event"
    },
    {
      "anonymous": false,
      "inputs": [
        {
          "indexed": true,
          "internalType": "address",
          "name": "by",
          "type": "address"
        },
        {
          "indexed": false,
          "internalType": "string",
          "name": "reason",
          "type": "string"
        }
      ],
      "name": "EmergencyPause",
      "type": "event"
    },
    {
      "anonymous": false,
      "inputs": [
        {
          "indexed": true,
          "internalType": "address",
          "name": "to",
          "type": "address"
        },
        {
          "indexed": false,
          "internalType": "uint256",
          "name": "amount",
          "type": "uint256"
        },
        {
          "indexed": false,
          "internalType": "string",
          "name": "pillar",
          "type": "string"
        }
      ],
      "name": "ImpactMintExecuted",
      "type": "event"
    },
    {
      "anonymous": false,
      "inputs": [
        {
          "indexed": false,
          "internalType": "uint256",
          "name": "oldRate",
          "type": "uint256"
        },
        {
          "indexed": false,
          "internalType": "uint256",
          "name": "newRate",
          "type": "uint256"
        }
      ],
      "name": "InflationRateUpdated",
      "type": "event"
    },
    {
      "anonymous": false,
      "inputs": [
        {
          "indexed": false,
          "internalType": "address",
          "name": "account",
          "type": "address"
        }
      ],
      "name": "Paused",
      "type": "event"
    },
    {
      "anonymous": false,
      "inputs": [
        {
          "indexed": true,
          "internalType": "bytes32",
          "name": "role",
          "type": "bytes32"
        },
        {
          "indexed": true,
          "internalType": "bytes32",
          "name": "previousAdminRole",
          "type": "bytes32"
        },
        {
          "indexed": true,
          "internalType": "bytes32",
          "name": "newAdminRole",
          "type": "bytes32"
        }
      ],
      "name": "RoleAdminChanged",
      "type": "event"
    },
    {
      "anonymous": false,
      "inputs": [
        {
          "indexed": true,
          "internalType": "bytes32",
          "name": "role",
          "type": "bytes32"
        },
        {
          "indexed": true,
          "internalType": "address",
          "name": "account",
          "type": "address"
        },
        {
          "indexed": true,
          "internalType": "address",
          "name": "sender",
          "type": "address"
        }
      ],
      "name": "RoleGranted",
      "type": "event"
    },
    {
      "anonymous": false,
      "inputs": [
        {
          "indexed": true,
          "internalType": "bytes32",
          "name": "role",
          "type": "bytes32"
        },
        {
          "indexed": true,
          "internalType": "address",
          "name": "account",
          "type": "address"
        },
        {
          "indexed": true,
          "internalType": "address",
          "name": "sender",
          "type": "address"
        }
      ],
      "name": "RoleRevoked",
      "type": "event"
    },
    {
      "anonymous": false,
      "inputs": [
        {
          "indexed": true,
          "internalType": "address",
          "name": "from",
          "type": "address"
        },
        {
          "indexed": true,
          "internalType": "address",
          "name": "to",
          "type": "address"
        },
        {
          "indexed": false,
          "internalType": "uint256",
          "name": "value",
          "type": "uint256"
        }
      ],
      "name": "Transfer",
      "type": "event"
    },
    {
      "anonymous": false,
      "inputs": [
        {
          "indexed": false,
          "internalType": "address",
          "name": "account",
          "type": "address"
        }
      ],
      "name": "Unpaused",
      "type": "event"
    },
    {
      "inputs": [],
      "name": "CLOCK_MODE",
      "outputs": [
        {
          "internalType": "string",
          "name": "",
          "type": "string"
        }
      ],
      "stateMutability": "view",
      "type": "function"
    },
    {
      "inputs": [],
      "name": "DEFAULT_ADMIN_ROLE",
      "outputs": [
        {
          "internalType": "bytes32",
          "name": "",
          "type": "bytes32"
        }
      ],
      "stateMutability": "view",
      "type": "function"
    },
    {
      "inputs": [],
      "name": "DOMAIN_SEPARATOR",
      "outputs": [
        {
          "internalType": "bytes32",
          "name": "",
          "type": "bytes32"
        }
      ],
      "stateMutability": "view",
      "type": "function"
    },
    {
      "inputs": [],
      "name": "INITIAL_SUPPLY",
      "outputs": [
        {
          "internalType": "uint256",
          "name": "",
          "type": "uint256"
        }
      ],
      "stateMutability": "view",
      "type": "function"
    },
    {
      "inputs": [],
      "name": "MAX_INFLATION_BP",
      "outputs": [
        {
          "internalType": "uint256",
          "name": "",
          "type": "uint256"
        }
      ],
      "stateMutability": "view",
      "type": "function"
    },
    {
      "inputs": [],
      "name": "MAX_SUPPLY",
      "outputs": [
        {
          "internalType": "uint256",
          "name": "",
          "type": "uint256"
        }
      ],
      "stateMutability": "view",
      "type": "function"
    },
    {
      "inputs": [],
      "name": "MINTER_ROLE",
      "outputs": [
        {
          "internalType": "bytes32",
          "name": "",
          "type": "bytes32"
        }
      ],
      "stateMutability": "view",
      "type": "function"
    },
    {
      "inputs": [],
      "name": "PAUSER_ROLE",
      "outputs": [
        {
          "internalType": "bytes32",
          "name": "",
          "type": "bytes32"
        }
      ],
      "stateMutability": "view",
      "type": "function"
    },
    {
      "inputs": [],
      "name": "PILLAR_ROLE",
      "outputs": [
        {
          "internalType": "bytes32",
          "name": "",
          "type": "bytes32"
        }
      ],
      "stateMutability": "view",
      "type": "function"
    },
    {
      "inputs": [],
      "name": "SECONDS_PER_YEAR",
      "outputs": [
        {
          "internalType": "uint256",
          "name": "",
          "type": "uint256"
        }
      ],
      "stateMutability": "view",
      "type": "function"
    },
    {
      "inputs": [
        {
          "internalType": "address",
          "name": "owner",
          "type": "address"
        },
        {
          "internalType": "address",
          "name": "spender",
          "type": "address"
        }
      ],
      "name": "allowance",
      "outputs": [
        {
          "internalType": "uint256",
          "name": "",
          "type": "uint256"
        }
      ],
      "stateMutability": "view",
      "type": "function"
    },
    {
      "inputs": [],
      "name": "annualInflationBasisPoints",
      "outputs": [
        {
          "internalType": "uint256",
          "name": "",
          "type": "uint256"
        }
      ],
      "stateMutability": "view",
      "type": "function"
    },
    {
      "inputs": [
        {
          "internalType": "address",
          "name": "spender",
          "type": "address"
        },
        {
          "internalType": "uint256",
          "name": "value",
          "type": "uint256"
        }
      ],
      "name": "approve",
      "outputs": [
        {
          "internalType": "bool",
          "name": "",
          "type": "bool"
        }
      ],
      "stateMutability": "nonpayable",
      "type": "function"
    },
    {
      "inputs": [
        {
          "internalType": "address",
          "name": "account",
          "type": "address"
        }
      ],
      "name": "balanceOf",
      "outputs": [
        {
          "internalType": "uint256",
          "name": "",
          "type": "uint256"
        }
      ],
      "stateMutability": "view",
      "type": "function"
    },
    {
      "inputs": [
        {
          "internalType": "uint256",
          "name": "value",
          "type": "uint256"
        }
      ],
      "name": "burn",
      "outputs": [],
      "stateMutability": "nonpayable",
      "type": "function"
    },
    {
      "inputs": [
        {
          "internalType": "address",
          "name": "account",
          "type": "address"
        },
        {
          "internalType": "uint256",
          "name": "value",
          "type": "uint256"
        }
      ],
      "name": "burnFrom",
      "outputs": [],
      "stateMutability": "nonpayable",
      "type": "function"
    },
    {
      "inputs": [],
      "name": "calculateAllowedInflation",
      "outputs": [
        {
          "internalType": "uint256",
          "name": "",
          "type": "uint256"
        }
      ],
      "stateMutability": "view",
      "type": "function"
    },
    {
      "inputs": [
        {
          "internalType": "address",
          "name": "account",
          "type": "address"
        },
        {
          "internalType": "uint32",
          "name": "pos",
          "type": "uint32"
        }
      ],
      "name": "checkpoints",
      "outputs": [
        {
          "components": [
            {
              "internalType": "uint48",
              "name": "_key",
              "type": "uint48"
            },
            {
              "internalType": "uint208",
              "name": "_value",
              "type": "uint208"
            }
          ],
          "internalType": "struct Checkpoints.Checkpoint208",
          "name": "",
          "type": "tuple"
        }
      ],
      "stateMutability": "view",
      "type": "function"
    },
    {
      "inputs": [],
      "name": "clock",
      "outputs": [
        {
          "internalType": "uint48",
          "name": "",
          "type": "uint48"
        }
      ],
      "stateMutability": "view",
      "type": "function"
    },
    {
      "inputs": [],
      "name": "decimals",
      "outputs": [
        {
          "internalType": "uint8",
          "name": "",
          "type": "uint8"
        }
      ],
      "stateMutability": "view",
      "type": "function"
    },
    {
      "inputs": [
        {
          "internalType": "address",
          "name": "delegatee",
          "type": "address"
        }
      ],
      "name": "delegate",
      "outputs": [],
      "stateMutability": "nonpayable",
      "type": "function"
    },
    {
      "inputs": [
        {
          "internalType": "address",
          "name": "delegatee",
          "type": "address"
        },
        {
          "internalType": "uint256",
          "name": "nonce",
          "type": "uint256"
        },
        {
          "internalType": "uint256",
          "name": "expiry",
          "type": "uint256"
        },
        {
          "internalType": "uint8",
          "name": "v",
          "type": "uint8"
        },
        {
          "internalType": "bytes32",
          "name": "r",
          "type": "bytes32"
        },
        {
          "internalType": "bytes32",
          "name": "s",
          "type": "bytes32"
        }
      ],
      "name": "delegateBySig",
      "outputs": [],
      "stateMutability": "nonpayable",
      "type": "function"
    },
    {
      "inputs": [
        {
          "internalType": "address",
          "name": "account",
          "type": "address"
        }
      ],
      "name": "delegates",
      "outputs": [
        {
          "internalType": "address",
          "name": "",
          "type": "address"
        }
      ],
      "stateMutability": "view",
      "type": "function"
    },
    {
      "inputs": [],
      "name": "eip712Domain",
      "outputs": [
        {
          "internalType": "bytes1",
          "name": "fields",
          "type": "bytes1"
        },
        {
          "internalType": "string",
          "name": "name",
          "type": "string"
        },
        {
          "internalType": "string",
          "name": "version",
          "type": "string"
        },
        {
          "internalType": "uint256",
          "name": "chainId",
          "type": "uint256"
        },
        {
          "internalType": "address",
          "name": "verifyingContract",
          "type": "address"
        },
        {
          "internalType": "bytes32",
          "name": "salt",
          "type": "bytes32"
        },
        {
          "internalType": "uint256[]",
          "name": "extensions",
          "type": "uint256[]"
        }
      ],
      "stateMutability": "view",
      "type": "function"
    },
    {
      "inputs": [
        {
          "internalType": "address",
          "name": "treasury",
          "type": "address"
        }
      ],
      "name": "executeInflationMint",
      "outputs": [],
      "stateMutability": "nonpayable",
      "type": "function"
    },
    {
      "inputs": [
        {
          "internalType": "uint256",
          "name": "timepoint",
          "type": "uint256"
        }
      ],
      "name": "getPastTotalSupply",
      "outputs": [
        {
          "internalType": "uint256",
          "name": "",
          "type": "uint256"
        }
      ],
      "stateMutability": "view",
      "type": "function"
    },
    {
      "inputs": [
        {
          "internalType": "address",
          "name": "account",
          "type": "address"
        },
        {
          "internalType": "uint256",
          "name": "timepoint",
          "type": "uint256"
        }
      ],
      "name": "getPastVotes",
      "outputs": [
        {
          "internalType": "uint256",
          "name": "",
          "type": "uint256"
        }
      ],
      "stateMutability": "view",
      "type": "function"
    },
    {
      "inputs": [
        {
          "internalType": "bytes32",
          "name": "role",
          "type": "bytes32"
        }
      ],
      "name": "getRoleAdmin",
      "outputs": [
        {
          "internalType": "bytes32",
          "name": "",
          "type": "bytes32"
        }
      ],
      "stateMutability": "view",
      "type": "function"
    },
    {
      "inputs": [
        {
          "internalType": "address",
          "name": "account",
          "type": "address"
        }
      ],
      "name": "getVotes",
      "outputs": [
        {
          "internalType": "uint256",
          "name": "",
          "type": "uint256"
        }
      ],
      "stateMutability": "view",
      "type": "function"
    },
    {
      "inputs": [
        {
          "internalType": "address",
          "name": "pillar",
          "type": "address"
        }
      ],
      "name": "grantPillarRole",
      "outputs": [],
      "stateMutability": "nonpayable",
      "type": "function"
    },
    {
      "inputs": [
        {
          "internalType": "bytes32",
          "name": "role",
          "type": "bytes32"
        },
        {
          "internalType": "address",
          "name": "account",
          "type": "address"
        }
      ],
      "name": "grantRole",
      "outputs": [],
      "stateMutability": "nonpayable",
      "type": "function"
    },
    {
      "inputs": [
        {
          "internalType": "bytes32",
          "name": "role",
          "type": "bytes32"
        },
        {
          "internalType": "address",
          "name": "account",
          "type": "address"
        }
      ],
      "name": "hasRole",
      "outputs": [
        {
          "internalType": "bool",
          "name": "",
          "type": "bool"
        }
      ],
      "stateMutability": "view",
      "type": "function"
    },
    {
      "inputs": [
        {
          "internalType": "address",
          "name": "to",
          "type": "address"
        },
        {
          "internalType": "uint256",
          "name": "amount",
          "type": "uint256"
        },
        {
          "internalType": "string",
          "name": "pillar",
          "type": "string"
        }
      ],
      "name": "impactMint",
      "outputs": [],
      "stateMutability": "nonpayable",
      "type": "function"
    },
    {
      "inputs": [],
      "name": "lastInflationTimestamp",
      "outputs": [
        {
          "internalType": "uint256",
          "name": "",
          "type": "uint256"
        }
      ],
      "stateMutability": "view",
      "type": "function"
    },
    {
      "inputs": [
        {
          "internalType": "address",
          "name": "to",
          "type": "address"
        },
        {
          "internalType": "uint256",
          "name": "amount",
          "type": "uint256"
        }
      ],
      "name": "mint",
      "outputs": [],
      "stateMutability": "nonpayable",
      "type": "function"
    },
    {
      "inputs": [],
      "name": "name",
      "outputs": [
        {
          "internalType": "string",
          "name": "",
          "type": "string"
        }
      ],
      "stateMutability": "view",
      "type": "function"
    },
    {
      "inputs": [
        {
          "internalType": "address",
          "name": "owner",
          "type": "address"
        }
      ],
      "name": "nonces",
      "outputs": [
        {
          "internalType": "uint256",
          "name": "",
          "type": "uint256"
        }
      ],
      "stateMutability": "view",
      "type": "function"
    },
    {
      "inputs": [
        {
          "internalType": "address",
          "name": "account",
          "type": "address"
        }
      ],
      "name": "numCheckpoints",
      "outputs": [
        {
          "internalType": "uint32",
          "name": "",
          "type": "uint32"
        }
      ],
      "stateMutability": "view",
      "type": "function"
    },
    {
      "inputs": [
        {
          "internalType": "string",
          "name": "reason",
          "type": "string"
        }
      ],
      "name": "pause",
      "outputs": [],
      "stateMutability": "nonpayable",
      "type": "function"
    },
    {
      "inputs": [],
      "name": "paused",
      "outputs": [
        {
          "internalType": "bool",
          "name": "",
          "type": "bool"
        }
      ],
      "stateMutability": "view",
      "type": "function"
    },
    {
      "inputs": [
        {
          "internalType": "address",
          "name": "owner",
          "type": "address"
        },
        {
          "internalType": "address",
          "name": "spender",
          "type": "address"
        },
        {
          "internalType": "uint256",
          "name": "value",
          "type": "uint256"
        },
        {
          "internalType": "uint256",
          "name": "deadline",
          "type": "uint256"
        },
        {
          "internalType": "uint8",
          "name": "v",
          "type": "uint8"
        },
        {
          "internalType": "bytes32",
          "name": "r",
          "type": "bytes32"
        },
        {
          "internalType": "bytes32",
          "name": "s",
          "type": "bytes32"
        }
      ],
      "name": "permit",
      "outputs": [],
      "stateMutability": "nonpayable",
      "type": "function"
    },
    {
      "inputs": [
        {
          "internalType": "bytes32",
          "name": "role",
          "type": "bytes32"
        },
        {
          "internalType": "address",
          "name": "callerConfirmation",
          "type": "address"
        }
      ],
      "name": "renounceRole",
      "outputs": [],
      "stateMutability": "nonpayable",
      "type": "function"
    },
    {
      "inputs": [
        {
          "internalType": "address",
          "name": "pillar",
          "type": "address"
        }
      ],
      "name": "revokePillarRole",
      "outputs": [],
      "stateMutability": "nonpayable",
      "type": "function"
    },
    {
      "inputs": [
        {
          "internalType": "bytes32",
          "name": "role",
          "type": "bytes32"
        },
        {
          "internalType": "address",
          "name": "account",
          "type": "address"
        }
      ],
      "name": "revokeRole",
      "outputs": [],
      "stateMutability": "nonpayable",
      "type": "function"
    },
    {
      "inputs": [
        {
          "internalType": "uint256",
          "name": "newRateBP",
          "type": "uint256"
        }
      ],
      "name": "setInflationRate",
      "outputs": [],
      "stateMutability": "nonpayable",
      "type": "function"
    },
    {
      "inputs": [
        {
          "internalType": "bytes4",
          "name": "interfaceId",
          "type": "bytes4"
        }
      ],
      "name": "supportsInterface",
      "outputs": [
        {
          "internalType": "bool",
          "name": "",
          "type": "bool"
        }
      ],
      "stateMutability": "view",
      "type": "function"
    },
    {
      "inputs": [],
      "name": "symbol",
      "outputs": [
        {
          "internalType": "string",
          "name": "",
          "type": "string"
        }
      ],
      "stateMutability": "view",
      "type": "function"
    },
    {
      "inputs": [],
      "name": "totalBurned",
      "outputs": [
        {
          "internalType": "uint256",
          "name": "",
          "type": "uint256"
        }
      ],
      "stateMutability": "view",
      "type": "function"
    },
    {
      "inputs": [],
      "name": "totalSupply",
      "outputs": [
        {
          "internalType": "uint256",
          "name": "",
          "type": "uint256"
        }
      ],
      "stateMutability": "view",
      "type": "function"
    },
    {
      "inputs": [
        {
          "internalType": "address",
          "name": "to",
          "type": "address"
        },
        {
          "internalType": "uint256",
          "name": "value",
          "type": "uint256"
        }
      ],
      "name": "transfer",
      "outputs": [
        {
          "internalType": "bool",
          "name": "",
          "type": "bool"
        }
      ],
      "stateMutability": "nonpayable",
      "type": "function"
    },
    {
      "inputs": [
        {
          "internalType": "address",
          "name": "from",
          "type": "address"
        },
        {
          "internalType": "address",
          "name": "to",
          "type": "address"
        },
        {
          "internalType": "uint256",
          "name": "value",
          "type": "uint256"
        }
      ],
      "name": "transferFrom",
      "outputs": [
        {
          "internalType": "bool",
          "name": "",
          "type": "bool"
        }
      ],
      "stateMutability": "nonpayable",
      "type": "function"
    },
    {
      "inputs": [],
      "name": "unpause",
      "outputs": [],
      "stateMutability": "nonpayable",
      "type": "function"
    }
  ],
  "bytecode": "0x61016080604052346200009d57604090620042cc908138039182916200002583620000b8565b39126200009d576200004b6200003a62000111565b6200004462000129565b90620001f4565b604051612f999081620012d3823960805181612281015260a0518161233c015260c0518161224b015260e051816122d0015261010051816122f601526101205181610d1301526101405181610d3c0152f35b600080fd5b634e487b7160e01b600052604160045260246000fd5b601f01601f1916610160908101906001600160401b03821190821017620000de57604052565b620000a2565b604081019081106001600160401b03821117620000de57604052565b604051906200010f82620000e4565b565b61016051906001600160a01b03821682036200009d57565b61018051906001600160a01b03821682036200009d57565b604051906200015082620000e4565b60018252565b604051906200016582620000e4565b60038252624b414960e81b6020830152565b156200017f57565b60405162461bcd60e51b815260206004820152600d60248201526c24b73b30b634b21030b236b4b760991b6044820152606490fd5b15620001bc57565b60405162461bcd60e51b815260206004820152601060248201526f496e76616c696420747265617375727960801b6044820152606490fd5b91906200020062000156565b926200020b62000156565b936200021662000156565b906200022162000141565b90602080830193603160f81b8552885160018060401b038111620000de57620002578162000251600354620003e8565b62000425565b82601f82116001146200034c5791816200029f92620003249998979695946200032b9c9d60009262000340575b50508160011b916000199060031b1c19161760035562000589565b620002aa826200093e565b61012052620002b98362000a51565b61014052815191012060e052519020610100524660a052620002da62000c02565b6080523060c052620003066001600160a01b03620002fc838216151562000177565b84161515620001b4565b62000311816200067c565b506200031d8162000712565b50620007cd565b506200082f565b6200033542600d55565b6200010f6000600e55565b01519050388062000284565b6003600052601f1982169a7fc2575a0e9e593c00f959f8c92f12db2869c3395a3b0502d05e2516446f71f85b9b60005b818110620003d05750926200032b9b9c620003249a999897969593600193836200029f9710620003b6575b505050811b0160035562000589565b015160001960f88460031b161c19169055388080620003a7565b838301518e556001909d019c9286019286016200037c565b90600182811c921680156200041a575b60208310146200040457565b634e487b7160e01b600052602260045260246000fd5b91607f1691620003f8565b601f811162000432575050565b6000906003825260208220906020601f850160051c8301941062000473575b601f0160051c01915b8281106200046757505050565b8181556001016200045a565b909250829062000451565b601f81116200048b575050565b6000906004825260208220906020601f850160051c83019410620004cc575b601f0160051c01915b828110620004c057505050565b818155600101620004b3565b9092508290620004aa565b601f8111620004e4575050565b6000906006825260208220906020601f850160051c8301941062000525575b601f0160051c01915b8281106200051957505050565b8181556001016200050c565b909250829062000503565b601f81116200053d575050565b6000906007825260208220906020601f850160051c830194106200057e575b601f0160051c01915b8281106200057257505050565b81815560010162000565565b90925082906200055c565b80519091906001600160401b038111620000de57620005b581620005af600454620003e8565b6200047e565b602080601f8311600114620005f45750819293600092620005e8575b50508160011b916000199060031b1c191617600455565b015190503880620005d1565b6004600052601f198316949091907f8a35acfbc15ff81a39ae7d344fd709f28e8600b4aa8c65c6b64bfe7fe36bd19b926000905b8782106200066357505083600195961062000649575b505050811b01600455565b015160001960f88460031b161c191690553880806200063e565b8060018596829496860151815501950193019062000628565b6001600160a01b03811660009081527f13649b2456f1b42fef0f0040b3aaeabcd21a76a0f3f5defd4f583839455116e8602052604081205460ff166200070d57808052600c602090815260408083206001600160a01b038516600090815292529020805460ff1916600117905533916001600160a01b0316906000805160206200426c8339815191528180a4600190565b905090565b6001600160a01b03811660009081527f28716b1ac0502292c83929abc9e37796cf2f7a586c58ec02e6ceeac1b694cbc3602052604081207f9f2df0fed2c77648de5860a4cc508cd0818c85b8b8a1ab4ceeef8d981c8956a69060ff905b5416620007c757808252600c602090815260408084206001600160a01b038616600090815292529020805460ff1916600117905533926001600160a01b0316916000805160206200426c8339815191529080a4600190565b50905090565b6001600160a01b03811660009081527fdcc67b18bee54042de2f3c322d7907db427901c7dd6b8aabe39773d1548374f5602052604081207f65d7a28e3265b37a6474929f336521b332c1681b933f6cb9f3376673440d862a9060ff906200076f565b6001600160a01b0381168015620009255760ff600554166200091357620008616200085c60025462000c84565b600255565b6001600160a01b03821660009081526020819052604090206a52b7d2dcc80cd2e4000000815401905560007fddf252ad1be2c89b69c2b068fc378daa952ba7f163c4a11628f55a4df523b3ef60405180620008cb81906a52b7d2dcc80cd2e4000000602083019252565b0390a36002546001600160d01b038111620008ec57506200010f9062000ca3565b604051630e58ae9360e11b815260048101919091526001600160d01b036024820152604490fd5b60405163d93c066560e01b8152600490fd5b60405163ec442f0560e01b815260006004820152602490fd5b90815160208082106000146200095f575050906200095c9062000b85565b90565b6001600160401b038211620000de57620009868262000980600654620003e8565b620004d7565b80601f8311600114620009c65750819293600092620009ba575b50508160011b916000199060031b1c19161760065560ff90565b015190503880620009a0565b6006600052601f198316949091907ff652222313e28459528d920b65115c16c04f3efc82aaedc97be59f3f377c0d3f926000905b87821062000a3857505083600195961062000a1e575b505050811b0160065560ff90565b015160001960f88460031b161c1916905538808062000a10565b80600185968294968601518155019501930190620009fa565b908151602080821060001462000a6f575050906200095c9062000b85565b6001600160401b038211620000de5762000a968262000a90600754620003e8565b62000530565b80601f831160011462000ad6575081929360009262000aca575b50508160011b916000199060031b1c19161760075560ff90565b01519050388062000ab0565b6007600052601f198316949091907fa66cc928b5edb82af9bd49922954155ab7b0942694bea4ce44661d9a8736c688926000905b87821062000b4857505083600195961062000b2e575b505050811b0160075560ff90565b015160001960f88460031b161c1916905538808062000b20565b8060018596829496860151815501950193019062000b0a565b60208151910151906020811062000b76575090565b6000199060200360031b1b1690565b601f81511162000ba05762000b9a8162000b61565b90511790565b6040519063305a27a960e01b82528160208060048301528251908160248401526000935b82851062000be8575050604492506000838284010152601f80199101168101030190fd5b848101820151868601604401529381019385935062000bc4565b60e051610100516040519060208201927f8b73c3c69bb8fe3d512ecc4cf759cc79239f7b179b0ffacaa9a75d522b39400f8452604083015260608201524660808201523060a082015260a0815260c0810181811060018060401b03821117620000de5760405251902090565b634e487b7160e01b600052601160045260246000fd5b906a52b7d2dcc80cd2e4000000820180921162000c9d57565b62000c6e565b65ffffffffffff9081431162000d7557600b546000908062000d4357505062000cdf6200010f9262000cd660006200128b565b904316620010c2565b50506001600160a01b0390811690811562000d31575b60096020527fec8156718a8372b1db44bb411437d0870f3e3790d4a08526d024ce1b0b668f6b5460009283526040909220548116911662000d94565b62000d3b62000ef3565b505062000cf5565b909260001993828581011162000c9d576200010f9462000cdf93602083600b62000cd695522001015460301c6200128b565b6040516306dfcc6560e41b815260306004820152436024820152604490fd5b6001600160a01b03808316929190811690818414158062000eea575b62000dbc575b50505050565b8162000e2a575b50508162000dd4575b808062000db6565b6001600160a01b03166000908152600a60205260409020600080516020620042ac8339815191529062000e079062000f73565b604080516001600160d01b039384168152919092166020820152a2388062000dcc565b6001600160a01b03166000908152600a6020526040902065ffffffffffff80431162000d755781546000908062000eac57505062000e8990600080516020620042ac8339815191529262000e7f6000620012ae565b91431690620011be565b604080516001600160d01b039384168152919092166020820152a2388062000dc3565b91909260001993838581011162000c9d57600080516020620042ac8339815191529462000e89946020838562000e7f95522001015460301c620012ae565b50600162000db0565b65ffffffffffff80431162000d7557600b546000908062000f4557505060005b6001600160d01b039081166a52b7d2dcc80cd2e3ffffff190190811162000c9d5762000f41914316620010c2565b9091565b60001991818381011162000c9d57600b9052016000805160206200428c833981519152015460301c62000f13565b65ffffffffffff9081431162000d755780546000908062000fc25750506000905b6001600160d01b039182166a52b7d2dcc80cd2e40000000191821162000c9d5762000f4192431690620011be565b60001991818381011162000c9d578084602092522001015460301c9062000f94565b60001981019190821162000c9d57565b600b549068010000000000000000821015620000de576001820180600b558210156200105657600b60005280516020919091015160301b65ffffffffffff191665ffffffffffff91909116176000805160206200428c83398151915290910155565b634e487b7160e01b600052603260045260246000fd5b90815468010000000000000000811015620000de5760018101808455811015620010565760009283526020928390208251929093015160301b65ffffffffffff191665ffffffffffff9290921691909117910155565b600b5491929180156200118f57620010de620010f79162000fe4565b600b6000526000805160206200428c8339815191520190565b9081549165ffffffffffff908184169183168083116200117d578692036200113f576200113892509065ffffffffffff82549181199060301b169116179055565b60301c9190565b50506200117790620011626200115462000100565b65ffffffffffff9092168252565b6001600160d01b038516602082015262000ff4565b62001138565b604051632520601d60e01b8152600490fd5b50620011b890620011a36200115462000100565b6001600160d01b038416602082015262000ff4565b60009190565b805492939280156200126157620011d9620011e69162000fe4565b8260005260206000200190565b9182549265ffffffffffff918285169281168084116200117d578793036200122857506200113892509065ffffffffffff82549181199060301b169116179055565b91505062001177916200124c6200123e62000100565b65ffffffffffff9093168352565b6001600160d01b03861660208301526200106c565b5090620011b891620012766200123e62000100565b6001600160d01b03851660208301526200106c565b6001600160d01b039081166a52b7d2dcc80cd2e40000000190811162000c9d5790565b6001600160d01b039081166a52b7d2dcc80cd2e3ffffff190190811162000c9d579056fe6080604052600436101561001257600080fd5b60003560e01c806301ffc9a714610357578063021e0c8f1461035257806306fdde031461034d578063095ea7b31461034857806318160ddd1461034357806323b872dd1461033e578063248a9ca3146103395780632f2ff15d146103345780632ff2e9dc1461032f578063313ce5671461032a57806332cb6b0c146103255780633644e5151461032057806336568abe1461031b5780633a46b1a8146103165780633f4ba83a1461031157806340c10f191461030c57806342966c68146103075780634bf5d7e91461030257806355cb0a2b146102fd578063587cde1e146102f85780635c19a95c146102f35780635c975abb146102ee57806363cf2e1e146102e95780636da66355146102e45780636fcfff45146102df57806370a08231146102da57806379cc6790146102d55780637ecebe00146102d05780637f0eb106146102cb57806384b0196e146102c65780638e539e8c146102c157806391d14854146102bc57806391ddadf4146102b7578063943831e1146102b257806395d89b41146102ad57806397e445f3146102a85780639ab24eb0146102a3578063a217fddf1461029e578063a9059cbb14610299578063b1551b9514610294578063b934d94b1461028f578063c3cda5201461028a578063caabc31f14610285578063d0cea78614610280578063d505accf1461027b578063d539139314610276578063d547741f14610271578063d89135cd1461026c578063dd62ed3e14610267578063e63ab1e914610262578063e6a69ab81461025d5763f1127ed81461025857600080fd5b6115c9565b6115aa565b61156f565b611517565b6114f9565b6114ba565b61147f565b61134b565b6112d1565b61125a565b611191565b611153565b6110b5565b61108f565b611073565b61102a565b61100d565b610f66565b610f3d565b610f11565b610ebf565b610df0565b610cf8565b610c08565b610bce565b610b9e565b610b65565b610afd565b610a44565b6109fb565b6109d8565b6109b6565b61097b565b61095d565b6108cb565b6108ae565b61085c565b6107f2565b61070a565b6106c3565b6106a0565b610679565b61065d565b610637565b6105f8565b6105c9565b610591565b610573565b610542565b61045d565b6103de565b346103ad5760203660031901126103ad5760043563ffffffff60e01b81168091036103ad57602090637965db0b60e01b811490811561039c575b506040519015158152f35b6301ffc9a760e01b14905038610391565b600080fd5b600435906001600160a01b03821682036103ad57565b602435906001600160a01b03821682036103ad57565b346103ad5760203660031901126103ad576104076103fa6103b2565b61040261167c565b6118f4565b005b919082519283825260005b848110610435575050826000602080949584010152601f8019910116010190565b602081830181015184830182015201610414565b90602061045a928181520190610409565b90565b346103ad5760008060031936011261053f57604051908060035461048081611ceb565b8085529160019180831690811561051557506001146104ba575b6104b6856104aa81870382611a5c565b60405191829182610449565b0390f35b9250600383527fc2575a0e9e593c00f959f8c92f12db2869c3395a3b0502d05e2516446f71f85b5b8284106104fd5750505081016020016104aa826104b661049a565b805460208587018101919091529093019281016104e2565b8695506104b6969350602092506104aa94915060ff191682840152151560051b820101929361049a565b80fd5b346103ad5760403660031901126103ad5761056861055e6103b2565b6024359033611e3f565b602060405160018152f35b346103ad5760003660031901126103ad576020600254604051908152f35b346103ad5760603660031901126103ad576105686105ad6103b2565b6105b56103c8565b604435916105c4833383611ef3565b611d25565b346103ad5760203660031901126103ad57600435600052600c6020526020600160406000200154604051908152f35b346103ad5760403660031901126103ad576104076004356106176103c8565b9080600052600c6020526106326001604060002001546117ee565b6118c8565b346103ad5760003660031901126103ad5760206040516a52b7d2dcc80cd2e40000008152f35b346103ad5760003660031901126103ad57602060405160128152f35b346103ad5760003660031901126103ad5760206040516b033b2e3c9fd0803ce80000008152f35b346103ad5760003660031901126103ad5760206106bb612248565b604051908152f35b346103ad5760403660031901126103ad576106dc6103c8565b336001600160a01b038216036106f857610407906004356119a5565b60405163334bd91960e11b8152600490fd5b346103ad5760403660031901126103ad576001600160a01b0361072b6103b2565b166000908152600a6020526040812090610746602435611a8d565b91805482938160058111610798575b50906020946107649284612a80565b8061077e5750505b6040516001600160d01b039091168152f35b9161078a8492936125a0565b92815220015460301c61076c565b946107a2866125ea565b86039586116107ed576020956107649385875265ffffffffffff80838a8a20015416908516106000146107db5750915b91925094610755565b9291506107e7906125af565b906107d2565b611cd5565b346103ad5760003660031901126103ad5761080b6116d4565b60055460ff81161561084a5760ff19166005557f5db9ee0a495bf2e6ff9c91a7834c1ba4fdd244a5e8aa4e537bd38aeae4b073aa6020604051338152a1005b604051638dfc202b60e01b8152600490fd5b346103ad5760403660031901126103ad576108756103b2565b602435610880611750565b600254918183018093116107ed576108a96b033b2e3c9fd0803ce8000000610407941115612ae7565b612b28565b346103ad5760203660031901126103ad5761040760043533611fa2565b346103ad5760003660031901126103ad576108e54361256e565b65ffffffffffff806108f64361256e565b1691160361094b576104b660405161090d816119e7565b601d81527f6d6f64653d626c6f636b6e756d6265722666726f6d3d64656661756c740000006020820152604051918291602083526020830190610409565b6040516301bfc1c560e61b8152600490fd5b346103ad5760003660031901126103ad576020600d54604051908152f35b346103ad5760203660031901126103ad5760206001600160a01b038061099f6103b2565b166000526009825260406000205416604051908152f35b346103ad5760203660031901126103ad576104076109d26103b2565b33611ace565b346103ad5760003660031901126103ad57602060ff600554166040519015158152f35b346103ad5760003660031901126103ad5760206106bb612c27565b9181601f840112156103ad5782359167ffffffffffffffff83116103ad57602083818601950101116103ad57565b346103ad5760203660031901126103ad5760043567ffffffffffffffff81116103ad577fc50068396f19981cb0435611d2c97dde7b6882fdc3185a9fb8080fa756b3974d610a99610af8923690600401610a16565b9290610aa36116d4565b610aab612c94565b600160ff1960055416176005557f62e78cea01bee320cd4e420270b5ea74000d11b0c9f74754ebdbfc544b05a2586020604051338152a16040519182916020835233956020840191612bdc565b0390a2005b346103ad5760203660031901126103ad576001600160a01b03610b1e6103b2565b16600052600a60205260406000205463ffffffff90818111610b465760209160405191168152f35b604490604051906306dfcc6560e41b8252602060048301526024820152fd5b346103ad5760203660031901126103ad5760206106bb610b836103b2565b6001600160a01b031660009081526020819052604090205490565b346103ad5760403660031901126103ad57610407610bba6103b2565b60243590610bc9823383611ef3565b611fa2565b346103ad5760203660031901126103ad576001600160a01b03610bef6103b2565b1660005260086020526020604060002054604051908152f35b346103ad5760603660031901126103ad57610c216103b2565b6024359060443567ffffffffffffffff81116103ad57610c45903690600401610a16565b91610c4e6117a8565b6002548481018091116107ed576b033b2e3c9fd0803ce8000000610c73911115612ae7565b8215610cc157610af87fe84f4445d28a8606ffe388ad4b52ee9a239a65db42db1206ea83eae88d8bb04193610ca88684612b28565b6040516001600160a01b03909316959293849384612bfd565b60405162461bcd60e51b815260206004820152600f60248201526e141a5b1b185c881c995c5d5a5c9959608a1b6044820152606490fd5b346103ad5760008060031936011261053f57610da290610d377f0000000000000000000000000000000000000000000000000000000000000000612388565b610d607f0000000000000000000000000000000000000000000000000000000000000000612481565b9160405191610d6e83611a08565b818352604051948594600f60f81b8652610d9460209360e08589015260e0880190610409565b908682036040880152610409565b904660608601523060808601528260a086015284820360c08601528080855193848152019401925b828110610dd957505050500390f35b835185528695509381019392810192600101610dca565b346103ad5760203660031901126103ad57610e0c600435611a8d565b600b54906000829160058411610e64575b610e279350612a17565b600081610e3c57505060405160008152602090f35b600b610e496020936125a0565b9152600080516020612f44833981519152015460301c61076c565b9192610e6f816125ea565b81039081116107ed57610e2793600b835265ffffffffffff8083600080516020612f4483398151915201541690851610600014610ead575091610e1d565b929150610eb9906125af565b90610e1d565b346103ad5760403660031901126103ad57602060ff610f05610edf6103c8565b600435600052600c845260406000209060018060a01b0316600052602052604060002090565b54166040519015158152f35b346103ad5760003660031901126103ad576020610f2d4361256e565b65ffffffffffff60405191168152f35b346103ad5760003660031901126103ad576020604051600080516020612f248339815191528152f35b346103ad5760008060031936011261053f576040519080600454610f8981611ceb565b808552916001918083169081156105155750600114610fb2576104b6856104aa81870382611a5c565b9250600483527f8a35acfbc15ff81a39ae7d344fd709f28e8600b4aa8c65c6b64bfe7fe36bd19b5b828410610ff55750505081016020016104aa826104b661049a565b80546020858701810191909152909301928101610fda565b346103ad5760003660031901126103ad5760206040516101f48152f35b346103ad5760203660031901126103ad576001600160a01b0361104b6103b2565b16600052600a602052602060018060d01b0361106a604060002061275f565b16604051908152f35b346103ad5760003660031901126103ad57602060405160008152f35b346103ad5760403660031901126103ad576105686110ab6103b2565b6024359033611d25565b346103ad5760203660031901126103ad576004356110d161167c565b6101f4811161111757600e8054908290556040805191825260208201929092527f7b58ad4d2cdc5104f29bcf82fdb772e21f04140921373b2811423c0bdbc764e29190a1005b60405162461bcd60e51b8152602060048201526014602482015273526174652065786365656473206d6178696d756d60601b6044820152606490fd5b346103ad5760003660031901126103ad576020600e54604051908152f35b6064359060ff821682036103ad57565b6084359060ff821682036103ad57565b346103ad5760c03660031901126103ad576111aa6103b2565b604435906024356111b9611171565b834211611241576112356104079461123c926040519060208201927fe48329057bfd03d55e49b547132e39cffd9c1820ad7b9d4c5307691425d15adf845260018060a01b038816604084015286606084015260808301526080825261121d82611a24565b61123060a4359360843593519020612362565b6120f3565b918261209d565b611ace565b604051632341d78760e11b815260048101859052602490fd5b346103ad5760203660031901126103ad576112736103b2565b61127b61167c565b6001600160a01b03811615611293576104079061180f565b60405162461bcd60e51b8152602060048201526016602482015275496e76616c69642070696c6c6172206164647265737360501b6044820152606490fd5b346103ad5760203660031901126103ad576112ea6103b2565b6112f2611750565b6112fa612c27565b801561130d576104079142600d55612b28565b60405162461bcd60e51b81526020600482015260166024820152754e6f20696e666c6174696f6e20617661696c61626c6560501b6044820152606490fd5b346103ad5760e03660031901126103ad576113646103b2565b61136c6103c8565b6044359060643561137b611181565b814211611466576001600160a01b0385811660008181526008602090815260409182902080546001810190915582517f6e71edae12b1b97f4d1f60370fef10105fa2faae0126114a169c64845d6126c99281019283529283019390935292861660608201526080810187905260a081019190915260c08082019490945292835261141f92909161140c60e083611a5c565b61123060c4359360a43593519020612362565b6001600160a01b038481169082160361143c575061040792611e3f565b6040516325c0072360e11b81526001600160a01b0391821660048201529084166024820152604490fd5b60405163313c898160e11b815260048101839052602490fd5b346103ad5760003660031901126103ad5760206040517f9f2df0fed2c77648de5860a4cc508cd0818c85b8b8a1ab4ceeef8d981c8956a68152f35b346103ad5760403660031901126103ad576104076004356114d96103c8565b9080600052600c6020526114f46001604060002001546117ee565b6119a5565b346103ad5760003660031901126103ad576020600f54604051908152f35b346103ad5760403660031901126103ad5760206115666115356103b2565b61153d6103c8565b6001600160a01b0391821660009081526001855260408082209290931681526020919091522090565b54604051908152f35b346103ad5760003660031901126103ad5760206040517f65d7a28e3265b37a6474929f336521b332c1681b933f6cb9f3376673440d862a8152f35b346103ad5760003660031901126103ad5760206040516301e133808152f35b346103ad5760403660031901126103ad576115e26103b2565b6024359063ffffffff821682036103ad576104b69161163291611603612084565b5061160c612084565b506001600160a01b03166000908152600a6020526040902061162c612084565b5061278d565b5060405190611640826119e7565b5465ffffffffffff811680835260309190911c60209283019081526040805192835290516001600160d01b031692820192909252918291820190565b3360009081527f13649b2456f1b42fef0f0040b3aaeabcd21a76a0f3f5defd4f583839455116e8602052604090205460ff16156116b557565b60405163e2517d3f60e01b815233600482015260006024820152604490fd5b3360009081527fdcc67b18bee54042de2f3c322d7907db427901c7dd6b8aabe39773d1548374f5602052604090207f65d7a28e3265b37a6474929f336521b332c1681b933f6cb9f3376673440d862a9060ff905b5416156117325750565b6044906040519063e2517d3f60e01b82523360048301526024820152fd5b3360009081527f28716b1ac0502292c83929abc9e37796cf2f7a586c58ec02e6ceeac1b694cbc3602052604090207f9f2df0fed2c77648de5860a4cc508cd0818c85b8b8a1ab4ceeef8d981c8956a69060ff90611728565b3360009081527f2d8a69d6fec3087f67e6103f14f1829fe0ffad4783e2ce3cd5301295bdd39bc660205260409020600080516020612f248339815191529060ff90611728565b6000818152600c60209081526040808320338452909152902060ff90611728565b6001600160a01b03811660009081527f2d8a69d6fec3087f67e6103f14f1829fe0ffad4783e2ce3cd5301295bdd39bc660205260408120600080516020612f248339815191529060ff905b54166118c257808252600c602090815260408084206001600160a01b038616600090815292529020805460ff1916600117905533926001600160a01b0316917f2f8788117e7eff1d82e926ec794901d17c78024a50270940304540a733656f0d9080a4600190565b50905090565b600090808252600c60205260ff61185a84604085209060018060a01b0316600052602052604060002090565b6001600160a01b03811660009081527f2d8a69d6fec3087f67e6103f14f1829fe0ffad4783e2ce3cd5301295bdd39bc660205260408120600080516020612f248339815191529060ff905b5416156118c257808252600c602090815260408084206001600160a01b038616600090815292529020805460ff1916905533926001600160a01b0316917ff6391f5c32d9c69d2a47ea670b442974b53935d1edc7fd64eb21e047a839171b9080a4600190565b600090808252600c60205260ff61193f84604085209060018060a01b0316600052602052604060002090565b634e487b7160e01b600052604160045260246000fd5b6040810190811067ffffffffffffffff821117611a0357604052565b6119d1565b6020810190811067ffffffffffffffff821117611a0357604052565b60a0810190811067ffffffffffffffff821117611a0357604052565b60c0810190811067ffffffffffffffff821117611a0357604052565b90601f8019910116810190811067ffffffffffffffff821117611a0357604052565b60405190611a8b826119e7565b565b65ffffffffffff611a9d4361256e565b1680821015611ab0575061045a9061256e565b6044925060405191637669fc0f60e11b835260048301526024820152fd5b6001600160a01b03818116600081815260096020526040812080548685166001600160a01b031982168117909255611a8b96941694611b4b9390928691907f3134e8a2e6d97e929a7e54011ea5485d7d196dd5f0ba4d4ef95803e8e3fc257f9080a46001600160a01b031660009081526020819052604090205490565b915b6001600160a01b03808316939291908116908185141580611c96575b611b75575b5050505050565b81611bfa575b505082611b8a575b8080611b6e565b6001600160a01b03166000908152600a602052604090207fdec2bacdd2f05b59de34da9b523dff8be42e5e38e818c82fdb0bae774387a72491611bd791611bd1909161253b565b90611c9f565b604080516001600160d01b039384168152919092166020820152a2388080611b83565b6001600160a01b03166000908152600a60205260409020611c1a8461253b565b611c234361256e565b6001600160d01b03918280611c378661275f565b1691169003928284116107ed577fdec2bacdd2f05b59de34da9b523dff8be42e5e38e818c82fdb0bae774387a72493611c8c92611c739261295b565b6040805192851683529316602082015291829190820190565b0390a23880611b7b565b50831515611b69565b90611ca94361256e565b6001600160d01b03918280611cbd8661275f565b16911601918211611cd557611cd19261295b565b9091565b634e487b7160e01b600052601160045260246000fd5b90600182811c92168015611d1b575b6020831014611d0557565b634e487b7160e01b600052602260045260246000fd5b91607f1691611cfa565b6001600160a01b0380821694939291908515611e265782168015611e0d57611d4b612c94565b6001600160a01b03821660009081526020819052604090205495848710611dde5784611a8b969703611d8f8460018060a01b03166000526000602052604060002090565b556001600160a01b0384166000908152602081815260409182902080548801905590518681527fddf252ad1be2c89b69c2b068fc378daa952ba7f163c4a11628f55a4df523b3ef9190a3612e52565b60405163391434e360e21b81526001600160a01b03841660048201526024810188905260448101869052606490fd5b60405163ec442f0560e01b815260006004820152602490fd5b604051634b637e8f60e11b815260006004820152602490fd5b6001600160a01b038082169291908315611eda578216938415611ec15780611eb77f8c5be1e5ebec7d5bd14f71427d1e84f3dd0314c0f7b2291e5b200ac8c7c3b92594611ea060209560018060a01b03166000526001602052604060002090565b9060018060a01b0316600052602052604060002090565b55604051908152a3565b604051634a1406b160e11b815260006004820152602490fd5b60405163e602df0560e01b815260006004820152602490fd5b6001600160a01b03818116600081815260016020908152604080832087861684529091529020549294939291906000198310611f32575b505050505050565b848310611f735715611eda57821615611ec157611f6792611ea091039360018060a01b03166000526001602052604060002090565b55388080808080611f2a565b604051637dc7a0d960e11b81526001600160a01b03851660048201526024810184905260448101869052606490fd5b6001600160a01b0381168015611e2657611fba612c94565b6001600160a01b038216600090815260208190526040902054838110612054578361204f9360008294611a8b9761204795036120088460018060a01b03166000526000602052604060002090565b556120168460025403600255565b6040518481527fddf252ad1be2c89b69c2b068fc378daa952ba7f163c4a11628f55a4df523b3ef90602090a3612cb2565b600f546125bd565b600f55565b60405163391434e360e21b81526001600160a01b0384166004820152602481019190915260448101849052606490fd5b60405190612091826119e7565b60006020838281520152565b6001600160a01b038116600090815260086020526040902080546001810190915590918190036120cb575050565b6040516301d4b62360e61b81526001600160a01b039092166004830152602482015260449150fd5b9161045a93916121029361210b565b909291926121bb565b91907f7fffffffffffffffffffffffffffffff5d576e7357a4501ddfe92f46681b20a0841161218f57926020929160ff608095604051948552168484015260408301526060820152600092839182805260015afa156121835780516001600160a01b0381161561217a57918190565b50809160019190565b604051903d90823e3d90fd5b50505060009160039190565b600411156121a557565b634e487b7160e01b600052602160045260246000fd5b6121c48161219b565b806121cd575050565b6121d68161219b565b600181036121f05760405163f645eedf60e01b8152600490fd5b6121f98161219b565b6002810361221a5760405163fce698f760e01b815260048101839052602490fd5b8061222660039261219b565b1461222e5750565b6040516335e2f38360e21b81526004810191909152602490fd5b307f00000000000000000000000000000000000000000000000000000000000000006001600160a01b03161480612339575b156122a3577f000000000000000000000000000000000000000000000000000000000000000090565b60405160208101907f8b73c3c69bb8fe3d512ecc4cf759cc79239f7b179b0ffacaa9a75d522b39400f82527f000000000000000000000000000000000000000000000000000000000000000060408201527f000000000000000000000000000000000000000000000000000000000000000060608201524660808201523060a082015260a0815261233381611a40565b51902090565b507f0000000000000000000000000000000000000000000000000000000000000000461461227a565b60429061236d612248565b906040519161190160f01b8352600283015260228201522090565b60ff81146123c65760ff811690601f82116123b457604051916123aa836119e7565b8252602082015290565b604051632cd44ac360e21b8152600490fd5b506040516006548160006123d983611ceb565b8083529260019081811690811561245f5750600114612400575b5061045a92500382611a5c565b6006600090815291507ff652222313e28459528d920b65115c16c04f3efc82aaedc97be59f3f377c0d3f5b848310612444575061045a9350508101602001386123f3565b8193509081602092548385890101520191019091849261242b565b90506020925061045a94915060ff191682840152151560051b820101386123f3565b60ff81146124a35760ff811690601f82116123b457604051916123aa836119e7565b506040516007548160006124b683611ceb565b8083529260019081811690811561245f57506001146124dc575061045a92500382611a5c565b6007600090815291507fa66cc928b5edb82af9bd49922954155ab7b0942694bea4ce44661d9a8736c6885b848310612520575061045a9350508101602001386123f3565b81935090816020925483858901015201910190918492612507565b6001600160d01b039081811161254f571690565b604490604051906306dfcc6560e41b825260d060048301526024820152fd5b65ffffffffffff90818111612581571690565b604490604051906306dfcc6560e41b8252603060048301526024820152fd5b6000198101919082116107ed57565b90600182018092116107ed57565b919082018092116107ed57565b81156125d4570490565b634e487b7160e01b600052601260045260246000fd5b600181111561045a57600181600160801b811015612703575b6126ab6126a161269761268d6126836126796126b797600488600160401b6126b29a10156126f6575b6401000000008110156126e9575b620100008110156126dc575b6101008110156126d0575b60108110156126c4575b10156126bc575b60030260011c612672818b6125ca565b0160011c90565b612672818a6125ca565b61267281896125ca565b61267281886125ca565b61267281876125ca565b61267281866125ca565b80936125ca565b821190565b900390565b60011b612662565b811c9160021b9161265b565b60081c91811b91612651565b60101c9160081b91612646565b60201c9160101b9161263a565b60401c9160201b9161262c565b50600160401b9050608082901c612603565b600b5460009080612727575050600090565b806000198101116107ed57600b7f0175b7a638427703f0dbe7bb9bbf987a2551717b34e79f33b5b1008d1fa01db89252015460301c90565b80546000918161277157505050600090565b6000199282848101116107ed5760209181522001015460301c90565b80548210156127a55760005260206000200190600090565b634e487b7160e01b600052603260045260246000fd5b600b5490600160401b821015611a03576001820180600b558210156127a557600b600052805160209091015160301b65ffffffffffff191665ffffffffffff9190911617600080516020612f4483398151915290910155565b8054600160401b811015611a03576128319160018201815561278d565b61285c57815160209092015160301b65ffffffffffff191665ffffffffffff92909216919091179055565b634e487b7160e01b600052600060045260246000fd5b600b5491929180156129315761288a6128a2916125a0565b600b600052600080516020612f448339815191520190565b9081549165ffffffffffff9081841691831680831161291f578692036128e7576128e092509065ffffffffffff82549181199060301b169116179055565b60301c9190565b505061291a906129066128f8611a7e565b65ffffffffffff9092168252565b6001600160d01b03851660208201526127bb565b6128e0565b604051632520601d60e01b8152600490fd5b50612955906129416128f8611a7e565b6001600160d01b03841660208201526127bb565b60009190565b805492939280156129f25761297261297f916125a0565b8260005260206000200190565b9182549265ffffffffffff9182851692811680841161291f578793036129be57506128e092509065ffffffffffff82549181199060301b169116179055565b91505061291a916129de6129d0611a7e565b65ffffffffffff9093168352565b6001600160d01b0386166020830152612814565b509061295591612a036129d0611a7e565b6001600160d01b0385166020830152612814565b905b828110612a2557505090565b90918082169080831860011c82018092116107ed57600b60005265ffffffffffff8083600080516020612f4483398151915201541690851610600014612a6e5750915b90612a19565b929150612a7a906125af565b90612a68565b90915b838110612a905750505090565b9091928082169080831860011c82018092116107ed5781602060008681528265ffffffffffff9283922001541690871610600014612ad3575050925b9190612a83565b90949250612ae191506125af565b90612acc565b15612aee57565b60405162461bcd60e51b815260206004820152601260248201527145786365656473206d617820737570706c7960701b6044820152606490fd5b91906001600160a01b0383168015611e0d57612b42612c94565b6002548281018091116107ed576002556001600160a01b038416600090815260208181526040808320805486019055518481527fddf252ad1be2c89b69c2b068fc378daa952ba7f163c4a11628f55a4df523b3ef9190a3600254926001600160d01b038411612bb657611a8b929350612d85565b604051630e58ae9360e11b8152600481018590526001600160d01b036024820152604490fd5b908060209392818452848401376000828201840152601f01601f1916010190565b60409061045a949281528160208201520191612bdc565b818102929181159184041417156107ed57565b600e548015612c8e57600d5442034281116107ed57612c5b6301e1338091612710612c556002549586612c14565b04612c14565b0490818101908181116107ed576b033b2e3c9fd0803ce8000000809211612c8157505090565b8103915081116107ed5790565b50600090565b60ff60055416612ca057565b60405163d93c066560e01b8152600490fd5b6001600160a01b0390811691908215612d44575b612ccf8261253b565b92612cd94361256e565b6001600160d01b03948580612cec612715565b16911690039485116107ed57611a8b94612d0591612872565b50506000908152600960205260408120549080527fec8156718a8372b1db44bb411437d0870f3e3790d4a08526d024ce1b0b668f6b5482169116611b4d565b612d4d8261253b565b612d564361256e565b906001600160d01b03908180612d6a612715565b169116019081116107ed57612d7e91612872565b5050612cc6565b90612d8f8161253b565b91612d994361256e565b6001600160d01b03938480612dac612715565b169116018481116107ed57612dc091612872565b50506001600160a01b03908116908115612e15575b60096020527fec8156718a8372b1db44bb411437d0870f3e3790d4a08526d024ce1b0b668f6b546000928352604090922054611a8b945081169116611b4d565b612e1e8361253b565b612e274361256e565b908580612e32612715565b16911690039485116107ed57611a8b94612e4b91612872565b5050612dd5565b6001600160a01b03908116929181908415612ede575b16908115612e96575b611a8b9360005260096020528060406000205416916000526040600020541690611b4d565b612e9f8361253b565b93612ea94361256e565b6001600160d01b03958680612ebc612715565b16911690039586116107ed57611a8b95612ed591612872565b50509350612e71565b9050612ee98361253b565b90612ef34361256e565b6001600160d01b03928380612f06612715565b169116019283116107ed578392612f1c91612872565b5050612e6856fea019812786f33465995be7caff72400e368fc48bd4f710ccf2d729a7c87a44720175b7a638427703f0dbe7bb9bbf987a2551717b34e79f33b5b1008d1fa01db9a2646970667358221220b4f9d6ab6aa8b9ed4b6a2021070b3e73438566dbe2f9e8bd180bcb27fe4d832e64736f6c634300081400332f8788117e7eff1d82e926ec794901d17c78024a50270940304540a733656f0d0175b7a638427703f0dbe7bb9bbf987a2551717b34e79f33b5b1008d1fa01db9dec2bacdd2f05b59de34da9b523dff8be42e5e38e818c82fdb0bae774387a724",
  "linkReferences": {},
  "deployedLinkReferences": {}
}