{
  "_format": "hh-sol-artifact-1",
  "contractName": "KaiAI",
  "sourceName": "contracts/pillars/KaiAI.sol",
  "abi": [
    {
      "inputs": [
        {
          "internalType": "address",
          "name": "_kaiToken",
          "type": "address"
        },
        {
          "internalType": "address",
          "name": "admin",
          "type": "address"
        }
      ],
      "stateMutability": "nonpayable",
      "type": "constructor"
    },
    {
      "inputs": [],
      "name": "AccessControlBadConfirmation",
      "type": "error"
    },
    {
      "inputs": [
        {
          "internalType": "address",
          "name": "account",
          "type": "address"
        },
        {
          "internalType": "bytes32",
          "name": "neededRole",
          "type": "bytes32"
        }
      ],
      "name": "AccessControlUnauthorizedAccount",
      "type": "error"
    },
    {
      "inputs": [],
      "name": "EnforcedPause",
      "type": "error"
    },
    {
      "inputs": [],
      "name": "ExpectedPause",
      "type": "error"
    },
    {
      "inputs": [],
      "name": "ReentrancyGuardReentrantCall",
      "type": "error"
    },
    {
      "anonymous": false,
      "inputs": [
        {
          "indexed": true,
          "internalType": "uint256",
          "name": "jobId",
          "type": "uint256"
        },
        {
          "indexed": false,
          "internalType": "uint256",
          "name": "actualUnits",
          "type": "uint256"
        }
      ],
      "name": "ComputeJobCompleted",
      "type": "event"
    },
    {
      "anonymous": false,
      "inputs": [
        {
          "indexed": true,
          "internalType": "uint256",
          "name": "jobId",
          "type": "uint256"
        },
        {
          "indexed": true,
          "internalType": "address",
          "name": "requester",
          "type": "address"
        },
        {
          "indexed": true,
          "internalType": "address",
          "name": "provider",
          "type": "address"
        }
      ],
      "name": "ComputeJobCreated",
      "type": "event"
    },
    {
      "anonymous": false,
      "inputs": [
        {
          "indexed": true,
          "internalType": "address",
          "name": "provider",
          "type": "address"
        },
        {
          "indexed": false,
          "internalType": "string",
          "name": "name",
          "type": "string"
        },
        {
          "indexed": false,
          "internalType": "uint256",
          "name": "capacity",
          "type": "uint256"
        }
      ],
      "name": "ComputeProviderRegistered",
      "type": "event"
    },
    {
      "anonymous": false,
      "inputs": [
        {
          "indexed": true,
          "internalType": "uint256",
          "name": "contributionId",
          "type": "uint256"
        },
        {
          "indexed": true,
          "internalType": "address",
          "name": "contributor",
          "type": "address"
        },
        {
          "indexed": false,
          "internalType": "string",
          "name": "dataType",
          "type": "string"
        }
      ],
      "name": "DataContributed",
      "type": "event"
    },
    {
      "anonymous": false,
      "inputs": [
        {
          "indexed": true,
          "internalType": "uint256",
          "name": "contributionId",
          "type": "uint256"
        },
        {
          "indexed": false,
          "internalType": "uint256",
          "name": "reward",
          "type": "uint256"
        }
      ],
      "name": "DataValidated",
      "type": "event"
    },
    {
      "anonymous": false,
      "inputs": [
        {
          "indexed": true,
          "internalType": "uint256",
          "name": "requestId",
          "type": "uint256"
        },
        {
          "indexed": true,
          "internalType": "uint256",
          "name": "modelId",
          "type": "uint256"
        },
        {
          "indexed": true,
          "internalType": "address",
          "name": "requester",
          "type": "address"
        }
      ],
      "name": "InferenceCompleted",
      "type": "event"
    },
    {
      "anonymous": false,
      "inputs": [
        {
          "indexed": true,
          "internalType": "uint256",
          "name": "modelId",
          "type": "uint256"
        },
        {
          "indexed": true,
          "internalType": "address",
          "name": "publisher",
          "type": "address"
        },
        {
          "indexed": false,
          "internalType": "string",
          "name": "name",
          "type": "string"
        },
        {
          "indexed": false,
          "internalType": "string",
          "name": "domain",
          "type": "string"
        }
      ],
      "name": "ModelPublished",
      "type": "event"
    },
    {
      "anonymous": false,
      "inputs": [
        {
          "indexed": true,
          "internalType": "uint256",
          "name": "modelId",
          "type": "uint256"
        },
        {
          "indexed": false,
          "internalType": "bytes32",
          "name": "newHash",
          "type": "bytes32"
        }
      ],
      "name": "ModelUpdated",
      "type": "event"
    },
    {
      "anonymous": false,
      "inputs": [
        {
          "indexed": false,
          "internalType": "address",
          "name": "account",
          "type": "address"
        }
      ],
      "name": "Paused",
      "type": "event"
    },
    {
      "anonymous": false,
      "inputs": [
        {
          "indexed": true,
          "internalType": "bytes32",
          "name": "role",
          "type": "bytes32"
        },
        {
          "indexed": true,
          "internalType": "bytes32",
          "name": "previousAdminRole",
          "type": "bytes32"
        },
        {
          "indexed": true,
          "internalType": "bytes32",
          "name": "newAdminRole",
          "type": "bytes32"
        }
      ],
      "name": "RoleAdminChanged",
      "type": "event"
    },
    {
      "anonymous": false,
      "inputs": [
        {
          "indexed": true,
          "internalType": "bytes32",
          "name": "role",
          "type": "bytes32"
        },
        {
          "indexed": true,
          "internalType": "address",
          "name": "account",
          "type": "address"
        },
        {
          "indexed": true,
          "internalType": "address",
          "name": "sender",
          "type": "address"
        }
      ],
      "name": "RoleGranted",
      "type": "event"
    },
    {
      "anonymous": false,
      "inputs": [
        {
          "indexed": true,
          "internalType": "bytes32",
          "name": "role",
          "type": "bytes32"
        },
        {
          "indexed": true,
          "internalType": "address",
          "name": "account",
          "type": "address"
        },
        {
          "indexed": true,
          "internalType": "address",
          "name": "sender",
          "type": "address"
        }
      ],
      "name": "RoleRevoked",
      "type": "event"
    },
    {
      "anonymous": false,
      "inputs": [
        {
          "indexed": false,
          "internalType": "address",
          "name": "account",
          "type": "address"
        }
      ],
      "name": "Unpaused",
      "type": "event"
    },
    {
      "inputs": [],
      "name": "COMPUTE_PROVIDER_ROLE",
      "outputs": [
        {
          "internalType": "bytes32",
          "name": "",
          "type": "bytes32"
        }
      ],
      "stateMutability": "view",
      "type": "function"
    },
    {
      "inputs": [],
      "name": "DATA_VALIDATOR_ROLE",
      "outputs": [
        {
          "internalType": "bytes32",
          "name": "",
          "type": "bytes32"
        }
      ],
      "stateMutability": "view",
      "type": "function"
    },
    {
      "inputs": [],
      "name": "DEFAULT_ADMIN_ROLE",
      "outputs": [
        {
          "internalType": "bytes32",
          "name": "",
          "type": "bytes32"
        }
      ],
      "stateMutability": "view",
      "type": "function"
    },
    {
      "inputs": [],
      "name": "MODEL_PUBLISHER_ROLE",
      "outputs": [
        {
          "internalType": "bytes32",
          "name": "",
          "type": "bytes32"
        }
      ],
      "stateMutability": "view",
      "type": "function"
    },
    {
      "inputs": [],
      "name": "activeProviderCount",
      "outputs": [
        {
          "internalType": "uint256",
          "name": "",
          "type": "uint256"
        }
      ],
      "stateMutability": "view",
      "type": "function"
    },
    {
      "inputs": [],
      "name": "aiDevelopmentFund",
      "outputs": [
        {
          "internalType": "uint256",
          "name": "",
          "type": "uint256"
        }
      ],
      "stateMutability": "view",
      "type": "function"
    },
    {
      "inputs": [],
      "name": "baseInferenceFee",
      "outputs": [
        {
          "internalType": "uint256",
          "name": "",
          "type": "uint256"
        }
      ],
      "stateMutability": "view",
      "type": "function"
    },
    {
      "inputs": [
        {
          "internalType": "uint256",
          "name": "jobId",
          "type": "uint256"
        },
        {
          "internalType": "uint256",
          "name": "actualUnits",
          "type": "uint256"
        }
      ],
      "name": "completeComputeJob",
      "outputs": [],
      "stateMutability": "nonpayable",
      "type": "function"
    },
    {
      "inputs": [
        {
          "internalType": "uint256",
          "name": "requestId",
          "type": "uint256"
        },
        {
          "internalType": "bytes32",
          "name": "outputHash",
          "type": "bytes32"
        }
      ],
      "name": "completeInference",
      "outputs": [],
      "stateMutability": "nonpayable",
      "type": "function"
    },
    {
      "inputs": [],
      "name": "computeJobCount",
      "outputs": [
        {
          "internalType": "uint256",
          "name": "",
          "type": "uint256"
        }
      ],
      "stateMutability": "view",
      "type": "function"
    },
    {
      "inputs": [
        {
          "internalType": "uint256",
          "name": "",
          "type": "uint256"
        }
      ],
      "name": "computeJobs",
      "outputs": [
        {
          "internalType": "uint256",
          "name": "id",
          "type": "uint256"
        },
        {
          "internalType": "address",
          "name": "requester",
          "type": "address"
        },
        {
          "internalType": "address",
          "name": "provider",
          "type": "address"
        },
        {
          "internalType": "string",
          "name": "jobType",
          "type": "string"
        },
        {
          "internalType": "uint256",
          "name": "estimatedUnits",
          "type": "uint256"
        },
        {
          "internalType": "uint256",
          "name": "actualUnits",
          "type": "uint256"
        },
        {
          "internalType": "uint256",
          "name": "price",
          "type": "uint256"
        },
        {
          "internalType": "uint256",
          "name": "startTime",
          "type": "uint256"
        },
        {
          "internalType": "uint256",
          "name": "endTime",
          "type": "uint256"
        },
        {
          "internalType": "bool",
          "name": "completed",
          "type": "bool"
        },
        {
          "internalType": "bool",
          "name": "disputed",
          "type": "bool"
        }
      ],
      "stateMutability": "view",
      "type": "function"
    },
    {
      "inputs": [
        {
          "internalType": "address",
          "name": "",
          "type": "address"
        }
      ],
      "name": "computeProviders",
      "outputs": [
        {
          "internalType": "address",
          "name": "provider",
          "type": "address"
        },
        {
          "internalType": "string",
          "name": "name",
          "type": "string"
        },
        {
          "internalType": "uint256",
          "name": "capacity",
          "type": "uint256"
        },
        {
          "internalType": "uint256",
          "name": "pricePerUnit",
          "type": "uint256"
        },
        {
          "internalType": "uint256",
          "name": "totalJobsCompleted",
          "type": "uint256"
        },
        {
          "internalType": "uint256",
          "name": "totalEarnings",
          "type": "uint256"
        },
        {
          "internalType": "uint256",
          "name": "reputation",
          "type": "uint256"
        },
        {
          "internalType": "bool",
          "name": "active",
          "type": "bool"
        }
      ],
      "stateMutability": "view",
      "type": "function"
    },
    {
      "inputs": [
        {
          "internalType": "string",
          "name": "dataType",
          "type": "string"
        },
        {
          "internalType": "string",
          "name": "region",
          "type": "string"
        },
        {
          "internalType": "bytes32",
          "name": "dataHash",
          "type": "bytes32"
        },
        {
          "internalType": "uint256",
          "name": "size",
          "type": "uint256"
        }
      ],
      "name": "contributeData",
      "outputs": [
        {
          "internalType": "uint256",
          "name": "",
          "type": "uint256"
        }
      ],
      "stateMutability": "nonpayable",
      "type": "function"
    },
    {
      "inputs": [
        {
          "internalType": "address",
          "name": "",
          "type": "address"
        },
        {
          "internalType": "uint256",
          "name": "",
          "type": "uint256"
        }
      ],
      "name": "contributorData",
      "outputs": [
        {
          "internalType": "uint256",
          "name": "",
          "type": "uint256"
        }
      ],
      "stateMutability": "view",
      "type": "function"
    },
    {
      "inputs": [
        {
          "internalType": "address",
          "name": "provider",
          "type": "address"
        },
        {
          "internalType": "string",
          "name": "jobType",
          "type": "string"
        },
        {
          "internalType": "uint256",
          "name": "estimatedUnits",
          "type": "uint256"
        }
      ],
      "name": "createComputeJob",
      "outputs": [
        {
          "internalType": "uint256",
          "name": "",
          "type": "uint256"
        }
      ],
      "stateMutability": "nonpayable",
      "type": "function"
    },
    {
      "inputs": [],
      "name": "dataContributionCount",
      "outputs": [
        {
          "internalType": "uint256",
          "name": "",
          "type": "uint256"
        }
      ],
      "stateMutability": "view",
      "type": "function"
    },
    {
      "inputs": [],
      "name": "dataContributionReward",
      "outputs": [
        {
          "internalType": "uint256",
          "name": "",
          "type": "uint256"
        }
      ],
      "stateMutability": "view",
      "type": "function"
    },
    {
      "inputs": [
        {
          "internalType": "uint256",
          "name": "",
          "type": "uint256"
        }
      ],
      "name": "dataContributions",
      "outputs": [
        {
          "internalType": "uint256",
          "name": "id",
          "type": "uint256"
        },
        {
          "internalType": "address",
          "name": "contributor",
          "type": "address"
        },
        {
          "internalType": "string",
          "name": "dataType",
          "type": "string"
        },
        {
          "internalType": "string",
          "name": "region",
          "type": "string"
        },
        {
          "internalType": "bytes32",
          "name": "dataHash",
          "type": "bytes32"
        },
        {
          "internalType": "uint256",
          "name": "size",
          "type": "uint256"
        },
        {
          "internalType": "uint256",
          "name": "timestamp",
          "type": "uint256"
        },
        {
          "internalType": "bool",
          "name": "validated",
          "type": "bool"
        },
        {
          "internalType": "uint256",
          "name": "reward",
          "type": "uint256"
        }
      ],
      "stateMutability": "view",
      "type": "function"
    },
    {
      "inputs": [
        {
          "internalType": "uint256",
          "name": "modelId",
          "type": "uint256"
        }
      ],
      "name": "deactivateModel",
      "outputs": [],
      "stateMutability": "nonpayable",
      "type": "function"
    },
    {
      "inputs": [
        {
          "internalType": "uint256",
          "name": "amount",
          "type": "uint256"
        }
      ],
      "name": "depositToFund",
      "outputs": [],
      "stateMutability": "nonpayable",
      "type": "function"
    },
    {
      "inputs": [
        {
          "internalType": "uint256",
          "name": "id",
          "type": "uint256"
        }
      ],
      "name": "getComputeJob",
      "outputs": [
        {
          "components": [
            {
              "internalType": "uint256",
              "name": "id",
              "type": "uint256"
            },
            {
              "internalType": "address",
              "name": "requester",
              "type": "address"
            },
            {
              "internalType": "address",
              "name": "provider",
              "type": "address"
            },
            {
              "internalType": "string",
              "name": "jobType",
              "type": "string"
            },
            {
              "internalType": "uint256",
              "name": "estimatedUnits",
              "type": "uint256"
            },
            {
              "internalType": "uint256",
              "name": "actualUnits",
              "type": "uint256"
            },
            {
              "internalType": "uint256",
              "name": "price",
              "type": "uint256"
            },
            {
              "internalType": "uint256",
              "name": "startTime",
              "type": "uint256"
            },
            {
              "internalType": "uint256",
              "name": "endTime",
              "type": "uint256"
            },
            {
              "internalType": "bool",
              "name": "completed",
              "type": "bool"
            },
            {
              "internalType": "bool",
              "name": "disputed",
              "type": "bool"
            }
          ],
          "internalType": "struct KaiAI.ComputeJob",
          "name": "",
          "type": "tuple"
        }
      ],
      "stateMutability": "view",
      "type": "function"
    },
    {
      "inputs": [
        {
          "internalType": "address",
          "name": "provider",
          "type": "address"
        }
      ],
      "name": "getComputeProvider",
      "outputs": [
        {
          "components": [
            {
              "internalType": "address",
              "name": "provider",
              "type": "address"
            },
            {
              "internalType": "string",
              "name": "name",
              "type": "string"
            },
            {
              "internalType": "uint256",
              "name": "capacity",
              "type": "uint256"
            },
            {
              "internalType": "uint256",
              "name": "pricePerUnit",
              "type": "uint256"
            },
            {
              "internalType": "uint256",
              "name": "totalJobsCompleted",
              "type": "uint256"
            },
            {
              "internalType": "uint256",
              "name": "totalEarnings",
              "type": "uint256"
            },
            {
              "internalType": "uint256",
              "name": "reputation",
              "type": "uint256"
            },
            {
              "internalType": "bool",
              "name": "active",
              "type": "bool"
            }
          ],
          "internalType": "struct KaiAI.ComputeProvider",
          "name": "",
          "type": "tuple"
        }
      ],
      "stateMutability": "view",
      "type": "function"
    },
    {
      "inputs": [
        {
          "internalType": "uint256",
          "name": "id",
          "type": "uint256"
        }
      ],
      "name": "getDataContribution",
      "outputs": [
        {
          "components": [
            {
              "internalType": "uint256",
              "name": "id",
              "type": "uint256"
            },
            {
              "internalType": "address",
              "name": "contributor",
              "type": "address"
            },
            {
              "internalType": "string",
              "name": "dataType",
              "type": "string"
            },
            {
              "internalType": "string",
              "name": "region",
              "type": "string"
            },
            {
              "internalType": "bytes32",
              "name": "dataHash",
              "type": "bytes32"
            },
            {
              "internalType": "uint256",
              "name": "size",
              "type": "uint256"
            },
            {
              "internalType": "uint256",
              "name": "timestamp",
              "type": "uint256"
            },
            {
              "internalType": "bool",
              "name": "validated",
              "type": "bool"
            },
            {
              "internalType": "uint256",
              "name": "reward",
              "type": "uint256"
            }
          ],
          "internalType": "struct KaiAI.DataContribution",
          "name": "",
          "type": "tuple"
        }
      ],
      "stateMutability": "view",
      "type": "function"
    },
    {
      "inputs": [
        {
          "internalType": "uint256",
          "name": "id",
          "type": "uint256"
        }
      ],
      "name": "getInferenceRequest",
      "outputs": [
        {
          "components": [
            {
              "internalType": "uint256",
              "name": "id",
              "type": "uint256"
            },
            {
              "internalType": "address",
              "name": "requester",
              "type": "address"
            },
            {
              "internalType": "uint256",
              "name": "modelId",
              "type": "uint256"
            },
            {
              "internalType": "bytes32",
              "name": "inputHash",
              "type": "bytes32"
            },
            {
              "internalType": "bytes32",
              "name": "outputHash",
              "type": "bytes32"
            },
            {
              "internalType": "uint256",
              "name": "fee",
              "type": "uint256"
            },
            {
              "internalType": "uint256",
              "name": "timestamp",
              "type": "uint256"
            },
            {
              "internalType": "bool",
              "name": "completed",
              "type": "bool"
            },
            {
              "internalType": "address",
              "name": "computeProvider",
              "type": "address"
            }
          ],
          "internalType": "struct KaiAI.InferenceRequest",
          "name": "",
          "type": "tuple"
        }
      ],
      "stateMutability": "view",
      "type": "function"
    },
    {
      "inputs": [
        {
          "internalType": "uint256",
          "name": "modelId",
          "type": "uint256"
        }
      ],
      "name": "getModel",
      "outputs": [
        {
          "components": [
            {
              "internalType": "uint256",
              "name": "id",
              "type": "uint256"
            },
            {
              "internalType": "address",
              "name": "publisher",
              "type": "address"
            },
            {
              "internalType": "string",
              "name": "name",
              "type": "string"
            },
            {
              "internalType": "string",
              "name": "modelType",
              "type": "string"
            },
            {
              "internalType": "string",
              "name": "domain",
              "type": "string"
            },
            {
              "internalType": "bytes32",
              "name": "modelHash",
              "type": "bytes32"
            },
            {
              "internalType": "uint256",
              "name": "feePerInference",
              "type": "uint256"
            },
            {
              "internalType": "uint256",
              "name": "totalInferences",
              "type": "uint256"
            },
            {
              "internalType": "uint256",
              "name": "totalRevenue",
              "type": "uint256"
            },
            {
              "internalType": "uint256",
              "name": "publishedAt",
              "type": "uint256"
            },
            {
              "internalType": "bool",
              "name": "active",
              "type": "bool"
            },
            {
              "internalType": "uint256",
              "name": "rating",
              "type": "uint256"
            }
          ],
          "internalType": "struct KaiAI.AIModel",
          "name": "",
          "type": "tuple"
        }
      ],
      "stateMutability": "view",
      "type": "function"
    },
    {
      "inputs": [
        {
          "internalType": "address",
          "name": "publisher",
          "type": "address"
        }
      ],
      "name": "getPublisherModels",
      "outputs": [
        {
          "internalType": "uint256[]",
          "name": "",
          "type": "uint256[]"
        }
      ],
      "stateMutability": "view",
      "type": "function"
    },
    {
      "inputs": [
        {
          "internalType": "bytes32",
          "name": "role",
          "type": "bytes32"
        }
      ],
      "name": "getRoleAdmin",
      "outputs": [
        {
          "internalType": "bytes32",
          "name": "",
          "type": "bytes32"
        }
      ],
      "stateMutability": "view",
      "type": "function"
    },
    {
      "inputs": [
        {
          "internalType": "bytes32",
          "name": "role",
          "type": "bytes32"
        },
        {
          "internalType": "address",
          "name": "account",
          "type": "address"
        }
      ],
      "name": "grantRole",
      "outputs": [],
      "stateMutability": "nonpayable",
      "type": "function"
    },
    {
      "inputs": [
        {
          "internalType": "bytes32",
          "name": "role",
          "type": "bytes32"
        },
        {
          "internalType": "address",
          "name": "account",
          "type": "address"
        }
      ],
      "name": "hasRole",
      "outputs": [
        {
          "internalType": "bool",
          "name": "",
          "type": "bool"
        }
      ],
      "stateMutability": "view",
      "type": "function"
    },
    {
      "inputs": [],
      "name": "inferenceCount",
      "outputs": [
        {
          "internalType": "uint256",
          "name": "",
          "type": "uint256"
        }
      ],
      "stateMutability": "view",
      "type": "function"
    },
    {
      "inputs": [
        {
          "internalType": "uint256",
          "name": "",
          "type": "uint256"
        }
      ],
      "name": "inferenceRequests",
      "outputs": [
        {
          "internalType": "uint256",
          "name": "id",
          "type": "uint256"
        },
        {
          "internalType": "address",
          "name": "requester",
          "type": "address"
        },
        {
          "internalType": "uint256",
          "name": "modelId",
          "type": "uint256"
        },
        {
          "internalType": "bytes32",
          "name": "inputHash",
          "type": "bytes32"
        },
        {
          "internalType": "bytes32",
          "name": "outputHash",
          "type": "bytes32"
        },
        {
          "internalType": "uint256",
          "name": "fee",
          "type": "uint256"
        },
        {
          "internalType": "uint256",
          "name": "timestamp",
          "type": "uint256"
        },
        {
          "internalType": "bool",
          "name": "completed",
          "type": "bool"
        },
        {
          "internalType": "address",
          "name": "computeProvider",
          "type": "address"
        }
      ],
      "stateMutability": "view",
      "type": "function"
    },
    {
      "inputs": [],
      "name": "kaiToken",
      "outputs": [
        {
          "internalType": "contract KAIToken",
          "name": "",
          "type": "address"
        }
      ],
      "stateMutability": "view",
      "type": "function"
    },
    {
      "inputs": [],
      "name": "modelCount",
      "outputs": [
        {
          "internalType": "uint256",
          "name": "",
          "type": "uint256"
        }
      ],
      "stateMutability": "view",
      "type": "function"
    },
    {
      "inputs": [],
      "name": "modelPublishFee",
      "outputs": [
        {
          "internalType": "uint256",
          "name": "",
          "type": "uint256"
        }
      ],
      "stateMutability": "view",
      "type": "function"
    },
    {
      "inputs": [
        {
          "internalType": "uint256",
          "name": "",
          "type": "uint256"
        }
      ],
      "name": "models",
      "outputs": [
        {
          "internalType": "uint256",
          "name": "id",
          "type": "uint256"
        },
        {
          "internalType": "address",
          "name": "publisher",
          "type": "address"
        },
        {
          "internalType": "string",
          "name": "name",
          "type": "string"
        },
        {
          "internalType": "string",
          "name": "modelType",
          "type": "string"
        },
        {
          "internalType": "string",
          "name": "domain",
          "type": "string"
        },
        {
          "internalType": "bytes32",
          "name": "modelHash",
          "type": "bytes32"
        },
        {
          "internalType": "uint256",
          "name": "feePerInference",
          "type": "uint256"
        },
        {
          "internalType": "uint256",
          "name": "totalInferences",
          "type": "uint256"
        },
        {
          "internalType": "uint256",
          "name": "totalRevenue",
          "type": "uint256"
        },
        {
          "internalType": "uint256",
          "name": "publishedAt",
          "type": "uint256"
        },
        {
          "internalType": "bool",
          "name": "active",
          "type": "bool"
        },
        {
          "internalType": "uint256",
          "name": "rating",
          "type": "uint256"
        }
      ],
      "stateMutability": "view",
      "type": "function"
    },
    {
      "inputs": [],
      "name": "pause",
      "outputs": [],
      "stateMutability": "nonpayable",
      "type": "function"
    },
    {
      "inputs": [],
      "name": "paused",
      "outputs": [
        {
          "internalType": "bool",
          "name": "",
          "type": "bool"
        }
      ],
      "stateMutability": "view",
      "type": "function"
    },
    {
      "inputs": [
        {
          "internalType": "string",
          "name": "name",
          "type": "string"
        },
        {
          "internalType": "string",
          "name": "modelType",
          "type": "string"
        },
        {
          "internalType": "string",
          "name": "domain",
          "type": "string"
        },
        {
          "internalType": "bytes32",
          "name": "modelHash",
          "type": "bytes32"
        },
        {
          "internalType": "uint256",
          "name": "feePerInference",
          "type": "uint256"
        }
      ],
      "name": "publishModel",
      "outputs": [
        {
          "internalType": "uint256",
          "name": "",
          "type": "uint256"
        }
      ],
      "stateMutability": "nonpayable",
      "type": "function"
    },
    {
      "inputs": [
        {
          "internalType": "address",
          "name": "",
          "type": "address"
        },
        {
          "internalType": "uint256",
          "name": "",
          "type": "uint256"
        }
      ],
      "name": "publisherModels",
      "outputs": [
        {
          "internalType": "uint256",
          "name": "",
          "type": "uint256"
        }
      ],
      "stateMutability": "view",
      "type": "function"
    },
    {
      "inputs": [
        {
          "internalType": "string",
          "name": "name",
          "type": "string"
        },
        {
          "internalType": "uint256",
          "name": "capacity",
          "type": "uint256"
        },
        {
          "internalType": "uint256",
          "name": "pricePerUnit",
          "type": "uint256"
        }
      ],
      "name": "registerComputeProvider",
      "outputs": [],
      "stateMutability": "nonpayable",
      "type": "function"
    },
    {
      "inputs": [
        {
          "internalType": "bytes32",
          "name": "role",
          "type": "bytes32"
        },
        {
          "internalType": "address",
          "name": "callerConfirmation",
          "type": "address"
        }
      ],
      "name": "renounceRole",
      "outputs": [],
      "stateMutability": "nonpayable",
      "type": "function"
    },
    {
      "inputs": [
        {
          "internalType": "uint256",
          "name": "modelId",
          "type": "uint256"
        },
        {
          "internalType": "bytes32",
          "name": "inputHash",
          "type": "bytes32"
        }
      ],
      "name": "requestInference",
      "outputs": [
        {
          "internalType": "uint256",
          "name": "",
          "type": "uint256"
        }
      ],
      "stateMutability": "nonpayable",
      "type": "function"
    },
    {
      "inputs": [
        {
          "internalType": "address",
          "name": "",
          "type": "address"
        },
        {
          "internalType": "uint256",
          "name": "",
          "type": "uint256"
        }
      ],
      "name": "requesterJobs",
      "outputs": [
        {
          "internalType": "uint256",
          "name": "",
          "type": "uint256"
        }
      ],
      "stateMutability": "view",
      "type": "function"
    },
    {
      "inputs": [
        {
          "internalType": "bytes32",
          "name": "role",
          "type": "bytes32"
        },
        {
          "internalType": "address",
          "name": "account",
          "type": "address"
        }
      ],
      "name": "revokeRole",
      "outputs": [],
      "stateMutability": "nonpayable",
      "type": "function"
    },
    {
      "inputs": [
        {
          "internalType": "uint256",
          "name": "inference",
          "type": "uint256"
        },
        {
          "internalType": "uint256",
          "name": "dataReward",
          "type": "uint256"
        },
        {
          "internalType": "uint256",
          "name": "publishFee",
          "type": "uint256"
        }
      ],
      "name": "setFees",
      "outputs": [],
      "stateMutability": "nonpayable",
      "type": "function"
    },
    {
      "inputs": [
        {
          "internalType": "bytes4",
          "name": "interfaceId",
          "type": "bytes4"
        }
      ],
      "name": "supportsInterface",
      "outputs": [
        {
          "internalType": "bool",
          "name": "",
          "type": "bool"
        }
      ],
      "stateMutability": "view",
      "type": "function"
    },
    {
      "inputs": [],
      "name": "totalDataContributed",
      "outputs": [
        {
          "internalType": "uint256",
          "name": "",
          "type": "uint256"
        }
      ],
      "stateMutability": "view",
      "type": "function"
    },
    {
      "inputs": [],
      "name": "unpause",
      "outputs": [],
      "stateMutability": "nonpayable",
      "type": "function"
    },
    {
      "inputs": [
        {
          "internalType": "uint256",
          "name": "modelId",
          "type": "uint256"
        },
        {
          "internalType": "uint256",
          "name": "rating",
          "type": "uint256"
        }
      ],
      "name": "updateModelRating",
      "outputs": [],
      "stateMutability": "nonpayable",
      "type": "function"
    },
    {
      "inputs": [
        {
          "internalType": "address",
          "name": "provider",
          "type": "address"
        },
        {
          "internalType": "uint256",
          "name": "reputation",
          "type": "uint256"
        }
      ],
      "name": "updateProviderReputation",
      "outputs": [],
      "stateMutability": "nonpayable",
      "type": "function"
    },
    {
      "inputs": [
        {
          "internalType": "uint256",
          "name": "contributionId",
          "type": "uint256"
        },
        {
          "internalType": "uint256",
          "name": "qualityScore",
          "type": "uint256"
        }
      ],
      "name": "validateDataContribution",
      "outputs": [],
      "stateMutability": "nonpayable",
      "type": "function"
    }
  ],
  "bytecode": "0x60a0346200018e57601f62003d4a38819003918201601f19168301916001600160401b03831184841017620001935780849260409485528339810103126200018e576200005a60206200005283620001a9565b9201620001a9565b60018055670de0b6b3a7640000600355674563918244f40000600455681b1ae4d6e2ef5000006005556001600160a01b0391821691821562000159578116156200012457620000c491608052620000b181620001be565b50620000bd816200023e565b50620002e0565b506040516139ac90816200037e8239608051818181610b0801528181610d6901528181610e6f01528181610f3501528181611012015281816122c7015281816123180152818161236601528181612b6001528181612d0f01526130c80152f35b60405162461bcd60e51b815260206004820152600d60248201526c24b73b30b634b21030b236b4b760991b6044820152606490fd5b60405162461bcd60e51b815260206004820152600d60248201526c24b73b30b634b2103a37b5b2b760991b6044820152606490fd5b600080fd5b634e487b7160e01b600052604160045260246000fd5b51906001600160a01b03821682036200018e57565b6001600160a01b031660008181527fad3228b676f7d3cd4284a5443f17f1962b36e491b30a40b2405849e597ba5fb5602052604081205490919060ff166200023a57818052816020526040822081835260205260408220600160ff19825416179055339160008051602062003d2a8339815191528180a4600190565b5090565b6001600160a01b031660008181527f23569023f2d2b7c69564de9788f5a05fe6f2d1d878dd3cb99fda8059252314ae60205260408120549091907fde316c1ad139f089be4d060a4250b55a08b36b8fe66d3b88b3f72ad88fc525bf9060ff16620002db57808352826020526040832082845260205260408320600160ff1982541617905560008051602062003d2a833981519152339380a4600190565b505090565b6001600160a01b031660008181527f13d2e45f5208e426c86e6879efddee8674f2ae7a4f4dbee87f71b62044429d1f60205260408120549091907fc85dad813e920862f8f8556480fffc7b067fcf60d39f9a271b6437f5193abfd79060ff16620002db57808352826020526040832082845260205260408320600160ff1982541617905560008051602062003d2a833981519152339380a460019056fe608080604052600436101561001357600080fd5b600090813560e01c90816301ffc9a71461323f575080630340d46414613050578063039b54be146130325780630bb4e4d314612fca5780631e10f86b14612f9457806321b5abf214612e38578063248a9ca314612e0c57806328cd3fb714612baf5780632c7c548714612b115780632d71821714612af35780632f2ff15d14612ab657806330fceca914612a9857806336568abe14612a505780633a8e6dcf146129a85780633f4ba83a1461293d57806343b1a9a9146121ea5780635c975abb146121c75780635d84fb20146120985780635e868e17146120505780636a030ca914611f5b5780636d36169414611d7e5780636e121b8114611d36578063740c4fa414611d185780637734f7a214611cdd5780638004c9c214611c87578063833f401d14611bd95780638456cb5914611b7e5780638471a5d7146119df57806385b466eb146119a4578063889392061461192157806391d14854146118d65780639226c4571461181957806392c92f6b1461136c578063943a45d514610f645780639bcfdfc014610f1f5780639fadc1a314610f01578063a1bf2a4b14610c7d578063a217fddf14610c61578063aa6eaa4314610974578063abbd060c14610615578063ad1aec87146104f1578063bf15ab2a146104d3578063c5a3ab79146104b5578063c6a645fe14610497578063ce0e0d5814610479578063cec10c111461044a578063d547741f14610409578063ddbf7b3d14610377578063e396651a1461033c578063eb1140aa146102725763f08bbda01461025257600080fd5b3461026f578060031936011261026f576020601254604051908152f35b80fd5b503461026f57602036600319011261026f576004358152600a602052604090208054600182015460028301546001600160a01b039081169391169160ff906102bc600384016133fc565b92600481015493600582015460068301549061030660078501549360096008870154960154966040519b8c9b610160928d5260208d015260408c01528060608c01528a01906132af565b96608089015260a088015260c087015260e0860152610100850152818116151561012085015260081c1615156101408301520390f35b503461026f578060031936011261026f5760206040517fde316c1ad139f089be4d060a4250b55a08b36b8fe66d3b88b3f72ad88fc525bf8152f35b503461026f57602036600319011261026f57604061012091600435815260096020522080549060018060a01b03908160018201541690600281015460038201546004830154906005840154926007600686015495015495604051988952602089015260408801526060870152608086015260a085015260c084015260ff8116151560e084015260081c16610100820152f35b503461026f57604036600319011261026f576104466004356104296132ef565b908084528360205261044160016040862001546137b0565b613901565b5080f35b503461026f57606036600319011261026f57610464613776565b60043560035560243560045560443560055580f35b503461026f578060031936011261026f576020601154604051908152f35b503461026f578060031936011261026f576020600e54604051908152f35b503461026f578060031936011261026f576020601454604051908152f35b503461026f578060031936011261026f576020600454604051908152f35b503461026f57602036600319011261026f5761012090604080519161051583613355565b80835280602084015280828401528060608401528060808401528060a08401528060c08401528060e0840152806101008094015260043581526009602052209060405161056181613355565b82549283825260018060a01b03918260018301541691602082019283526002810154604083019081526003820154606084019081526004830154906080850191825260058401549260a0860193845287600760068701549660c08901978852015497818b60e08a019960ff8c1615158b52019960081c1689526040519b8c52511660208b01525160408a01525160608901525160808801525160a08701525160c086015251151560e0850152511690820152f35b503461026f57606036600319011261026f576004356001600160401b038111610970576106469036906004016134a1565b9061064f613758565b61065a8215156135dc565b6024351561093757338352600760205260408320546001600160a01b03166108fd57604051610688816133a3565b338152610696368484613654565b6020820152602435604082015260443560608201528360808201528360a0820152603260c0820152600160e08201523384526007602052604084209060018060a01b038151166001600160601b0360a01b83541617825560208101518051906001600160401b0382116108e957610710600185015461331b565b601f81116108a4575b50602090601f83116001146108095760e07ffcc0c8f3f06736ee3045c2c955d101e3ea4cdf1e0e74f45bb72187f7d96386e09694846107c2956107ec98956007958d926107fe575b50508160011b916000199060031b1c19161760018501555b60408101516002850155606081015160038501556080810151600485015560a0810151600585015560c081015160068501550151151591019060ff801983541691151516179055565b6107cd601254613552565b6012556107d9336137d6565b50604051936040855260408501916136d4565b9160243560208201528033930390a280f35b015190503880610761565b906001850188526020882091885b601f198516811061088c57507ffcc0c8f3f06736ee3045c2c955d101e3ea4cdf1e0e74f45bb72187f7d96386e096946001856107ec989560079560e0956107c299601f19811610610873575b505050811b016001850155610779565b015160001960f88460031b161c19169055388080610863565b91926020600181928685015181550194019201610817565b60018501885260208820601f840160051c8101602085106108e2575b601f830160051c820181106108d6575050610719565b600081556001016108c0565b50806108c0565b634e487b7160e01b87526041600452602487fd5b60405162461bcd60e51b8152602060048201526012602482015271105b1c9958591e481c9959da5cdd195c995960721b6044820152606490fd5b60405162461bcd60e51b815260206004820152601160248201527010d85c1858da5d1e481c995c5d5a5c9959607a1b6044820152606490fd5b5080fd5b503461026f5761098336613294565b3360009081527fdcf353f1ec6e52efc1b760f4c13d4f8d8759f152bdf6daebf41cc5f0e0d2003560209081526040909120547f356623366516155f202192abb2aec10c2bcf907751c7279cedb4a941b659ee879060ff1615610c4357506109e8613735565b82845260098152610a4c6040852092610a0384541515613577565b60016007850191825490610a1a60ff8316156136f5565b6004870155610100600160a81b03199091166001600160a81b0319909116173360081b610100600160a81b0316179055565b600282018054855260068252604085209060078201610a6b8154613552565b90556005840154926046840293801594818104604614861715610c2f57606490049460148202908282046014141715610c2f57610abb869392610ab66064610ad494049586926135c2565b6135c2565b60088601610aca8882546135cf565b90556013546135cf565b6013556001939093015460405163a9059cbb60e01b8082526001600160a01b039283166004830152602482019690965290947f0000000000000000000000000000000000000000000000000000000000000000861694919082826044818d8a5af1918215610c24578392610c07575b506040519081523360048201526024810184905294859060449082908c905af1908115610bfc57600194600792610bcf575b5033895252610b9c60056040892060048101610b918154613552565b9055019182546135cf565b90555492015416917f84c9f0884b5c76a5d6d986a0263d33c08b77d219f0b246390027473148608e3d8480a46001805580f35b610bee90823d8411610bf5575b610be681836133db565b8101906134fc565b5038610b75565b503d610bdc565b6040513d8a823e3d90fd5b610c1d90833d8511610bf557610be681836133db565b5038610b43565b6040513d8c823e3d90fd5b634e487b7160e01b89526011600452602489fd5b6044906040519063e2517d3f60e01b82523360048301526024820152fd5b503461026f578060031936011261026f57602090604051908152f35b503461026f57610c8c36613294565b610c94613735565b8183526020600a8152604084209160018060a01b03806002850154163303610ecd576009840160018154610ccb60ff8216156136f5565b84600588015542600888015560ff1916179055338652600783526040862093610cf86003860154846135af565b906006810190858254918585848110610e26575b50505050505490818111600014610e1e5750905b605a8202828104605a1483151715610e0a576064610d40910480936135c2565b60405163a9059cbb60e01b81523360048201526024810184905290918590829060449082908c907f0000000000000000000000000000000000000000000000000000000000000000165af1958615610bfc57610dcc610ddd936005937f41930f16e103c5d76d3ab5a14c0201a0adab06354e8e99241f5b2ad02566525e99610ded575b506013546135cf565b60135560048101610b918154613552565b9055604051908152a26001805580f35b610e0390893d8b11610bf557610be681836133db565b5038610dc3565b634e487b7160e01b88526011600452602488fd5b905090610d20565b610e35600191610e69966135c2565b92015460405163a9059cbb60e01b815291166001600160a01b03166004820152602481019190915291829081906044820190565b03818c887f0000000000000000000000000000000000000000000000000000000000000000165af18015610ec257610ea5575b85818585610d0c565b610ebb90863d8811610bf557610be681836133db565b5038610e9c565b6040513d8b823e3d90fd5b60405162461bcd60e51b815260048101849052600c60248201526b2737ba10383937bb34b232b960a11b6044820152606490fd5b503461026f578060031936011261026f576020600354604051908152f35b503461026f578060031936011261026f576040517f00000000000000000000000000000000000000000000000000000000000000006001600160a01b03168152602090f35b503461026f57606036600319011261026f57610f7e613305565b6024356001600160401b03811161136857610f9d9036906004016134a1565b92610fa6613735565b610fae613758565b6001600160a01b038316815260076020819052604082209081015460ff161561132f576003610fe19101546044356135af565b6040516323b872dd60e01b815233600482015230602482015260448101829052602081606481866001600160a01b037f0000000000000000000000000000000000000000000000000000000000000000165af1908115611324579061104d918491611305575b50613514565b61108c61105b601154613552565b93846011556040519661106d886133bf565b8588523360208901526001600160a01b03871660408901523691613654565b606086015260443560808601528160a086015260c08501524260e0850152806101008501528061012085015280610140850152818152600a6020526040812093805185556001850160018060a01b03602083015116906001600160601b0360a01b9182825416179055600286019060018060a01b036040840151169082541617905560608101519485516001600160401b0381116112f157611131600383015461331b565b96601f88116112ac575b602097508790601f831160011461123b57918061014094926009948892611230575b50508160011b916000199060031b1c19161760038201555b6080840151600482015560a0840151600582015560c0840151600682015560e08401516007820155610100840151600882015501916111c76101208201511515849060ff801983541691151516179055565b0151151561ff0082549160081b169061ff001916179055338152600d84526111f2826040832061369a565b604051926001600160a01b031690339083907f571301e0e57bb287047615065eb7dd73131477bfb64f257901e96d21328ca1b09080a4600180558152f35b01519050388061115d565b9060038401865288862091865b601f1985168110611295575092610140949260019260099583601f1981161061127c575b505050811b016003820155611175565b015160001960f88460031b161c1916905538808061126c565b91928a600181928685015181550194019201611248565b60038301855260208520601f830160051c8101602084106112ea575b601f8a0160051c820181106112de57505061113b565b600081556001016112c8565b50806112c8565b634e487b7160e01b84526041600452602484fd5b61131e915060203d602011610bf557610be681836133db565b38611047565b6040513d85823e3d90fd5b60405162461bcd60e51b815260206004820152601160248201527050726f766964657220696e61637469766560781b6044820152606490fd5b8280fd5b503461026f57608036600319011261026f576004356001600160401b0381116109705761139d9036906004016134a1565b6024929192356001600160401b038111611368576113bf9036906004016134a1565b92906113c9613758565b82156117e4576113dc6044351515613618565b606435156117af576113ef600f54613552565b9384600f556040519061140182613355565b858252611429602083019333855261141a36888b613654565b92604085019384523691613654565b6060830152604435608083015260643560a08301524260c08301528360e0830152836101008301528584526008602052604084209282518455600184019060018060a01b039051166001600160601b0360a01b825416179055518051906001600160401b0382116116d55781906114a3600286015461331b565b601f811161175e575b50602090601f83116001146116f45786926116e9575b50508160011b916000199060031b1c19161760028301555b60608101518051906001600160401b0382116116d5576114fd600385015461331b565b601f8111611690575b5091602097939185938896508990601f83116001146115ee57947fce955dd250092849653e977cc3d05df4e6b05827915210aaf16420964833446c969460086101006115c496868c976040976115d89c88926115e3575b50508160011b916000199060031b1c19161760038501555b6080810151600485015560a0810151600585015560c081015160068501556115b260e08201511515600786019060ff801983541691151516179055565b0151910155338152600c8b522061369a565b6040519182918883523396898401916136d4565b0390a3604051908152f35b01519050388061155d565b906003850186528a862091865b601f198516811061167657509460086101006115c4966001876040976115d89c978f9a9c7fce955dd250092849653e977cc3d05df4e6b05827915210aaf16420964833446c9f9d601f1981161061165d575b505050811b016003850155611575565b015160001960f88460031b161c1916905538808061164d565b8183015184558b9950600190930192918c01918c016115fb565b60038501865260208620601f840160051c8101602085106116ce575b601f830160051c820181106116c2575050611506565b600081556001016116ac565b50806116ac565b634e487b7160e01b85526041600452602485fd5b0151905038806114c2565b600286018752602087209250601f198416875b818110611746575090846001959493921061172d575b505050811b0160028301556114da565b015160001960f88460031b161c1916905538808061171d565b92936020600181928786015181550195019301611707565b90915060028501865260208620601f840160051c8101602085106117a8575b90849392915b601f830160051c820181106117995750506114ac565b60008155859450600101611783565b508061177d565b60405162461bcd60e51b815260206004820152600d60248201526c14da5e99481c995c5d5a5c9959609a1b6044820152606490fd5b60405162461bcd60e51b815260206004820152600d60248201526c151e5c19481c995c5d5a5c9959609a1b6044820152606490fd5b503461026f57602036600319011261026f57604090600435815260086020522080549060018060a01b0360018201541690611856600282016133fc565b611862600383016133fc565b9160048101549260058201546118b56006840154926118a7600860ff600788015416960154966040519a8b9a610120918c5260208c01528060408c01528a01906132af565b9088820360608a01526132af565b94608087015260a086015260c0850152151560e08401526101008301520390f35b503461026f57604036600319011261026f5760406118f26132ef565b91600435815280602052209060018060a01b0316600052602052602060ff604060002054166040519015158152f35b503461026f57604036600319011261026f5761193b613305565b60243590611947613776565b6064821161196a576001600160a01b031682526007602052604082206006015580f35b60405162461bcd60e51b815260206004820152601260248201527124b73b30b634b2103932b83aba30ba34b7b760711b6044820152606490fd5b503461026f578060031936011261026f5760206040517f356623366516155f202192abb2aec10c2bcf907751c7279cedb4a941b659ee878152f35b503461026f57602036600319011261026f57806040916101408351611a03816133bf565b82815282602082015282858201526060808201528260808201528260a08201528260c08201528260e0820152826101008201528261012082015201526004358152600a6020522060ff600960405192611a5b846133bf565b8054845260018101546001600160a01b0390811660208601526002820154166040850152611a8b600382016133fc565b606085015260048101546080850152600581015460a0850152600681015460c0850152600781015460e085015260088101546101008501520154818116151561012084015260081c1615156101408201526040518091602082528051602083015260018060a01b03602082015116604083015260018060a01b0360408201511660608301526060810151610140611b30610160928360808701526101808601906132af565b92608081015160a086015260a081015160c086015260c081015160e086015260e081015161010086015261010081015161012086015261012081015115158286015201511515908301520390f35b503461026f578060031936011261026f57611b97613776565b611b9f613758565b600160ff1960025416176002557f62e78cea01bee320cd4e420270b5ea74000d11b0c9f74754ebdbfc544b05a2586020604051338152a180f35b503461026f57602080600319360112610970576001600160a01b03611bfc613305565b168252600b81526040822060405192838383549182815201908193835284832090835b818110611c735750505084611c359103856133db565b60405193838594850191818652518092526040850193925b828110611c5c57505050500390f35b835185528695509381019392810192600101611c4d565b825484529286019260019283019201611c1f565b503461026f57604036600319011261026f57611ca1613305565b6001600160a01b03168152600c602052604081208054602435929083101561026f576020611ccf84846134ce565b90546040519160031b1c8152f35b503461026f578060031936011261026f5760206040517fc85dad813e920862f8f8556480fffc7b067fcf60d39f9a271b6437f5193abfd78152f35b503461026f578060031936011261026f576020601054604051908152f35b503461026f57604036600319011261026f57611d50613305565b6001600160a01b03168152600d602052604081208054602435929083101561026f576020611ccf84846134ce565b503461026f57602036600319011261026f57806040916101608351611da281613387565b828152826020820152606085820152606080820152606060808201528260a08201528260c08201528260e082015282610100820152826101208201528261014082015201526004358152600660205220600b60405191611e0183613387565b8054835260018101546001600160a01b03166020840152611e24600282016133fc565b6040840152611e35600382016133fc565b6060840152611e46600482016133fc565b6080840152600581015460a0840152600681015460c0840152600781015460e08401526008810154610100840152600981015461012084015260ff600a82015416151561014084015201546101608201526040518091602082528051602083015260018060a01b036020820151166040830152610160611f0b611eda604084015161018060608701526101a08601906132af565b611ef6606085015191601f1992838883030160808901526132af565b906080850151908683030160a08701526132af565b9160a081015160c085015260c081015160e085015260e081015161010085015261010081015161012085015261012081015161014085015261014081015115158285015201516101808301520390f35b503461026f57602036600319011261026f57604090600435815260066020522080549060018060a01b0360018201541690611f98600282016133fc565b611fa4600383016133fc565b91611fb1600482016133fc565b926005820154936006830154600784015490612022600886015493612014600988015496612006600b60ff600a8c0154169a01549a6040519e8f9e8f90610180928252602082015281604082015201906132af565b8c810360608e0152906132af565b908a820360808c01526132af565b9660a089015260c088015260e087015261010086015261012085015215156101408401526101608301520390f35b503461026f57604036600319011261026f5761206a613305565b6001600160a01b03168152600b602052604081208054602435929083101561026f576020611ccf84846134ce565b503461026f576020806003193601126109705760406120b5613305565b928060e083516120c4816133a3565b82815260608682015282858201528260608201528260808201528260a08201528260c0820152015260018060a01b03809416815260078352206040519161210a836133a3565b83825416835261211c600183016133fc565b90808401918252600283015492604085019384526003810154926060860193845260048201546080870190815260058301549160a0880192835260ff600760068601549560c08b019687520154169460e089019515158652604051998a99828b52511690890152519461219d610100968760408b01526101208a01906132af565b965160608901525160808801525160a08701525160c08601525160e0850152511515908301520390f35b503461026f578060031936011261026f57602060ff600254166040519015158152f35b503461026f5760a036600319011261026f576004356001600160401b0381116109705761221b9036906004016134a1565b90916024356001600160401b0381116109705761223c9036906004016134a1565b90926044356001600160401b0381116129395761225d9036906004016134a1565b9093612267613735565b61226f613758565b61227a8315156135dc565b6122876064351515613618565b60035460843510612906576005546040516323b872dd60e01b81523360048201523060248201526044810191909152602081606481856001600160a01b037f0000000000000000000000000000000000000000000000000000000000000000165af19081156128fb57906123019183916113055750613514565b6005546123138160011c6013546135cf565b6013557f00000000000000000000000000000000000000000000000000000000000000006001600160a01b03163b1561097057604051630852cd8d60e31b815260019190911c60048201528181602481837f00000000000000000000000000000000000000000000000000000000000000006001600160a01b03165af180156128fb576128d0575b506123dc6123aa600e54613552565b9687600e55604051956123bc87613387565b8887523360208801526123d036878c613654565b60408801523691613654565b60608501526123ec368387613654565b608085015260643560a085015260843560c08501528060e0850152806101008501524261012085015260016101408501526032610160850152858152600660205260408120845181556001810160018060a01b036020870151166001600160601b0360a01b82541617905560408501518051906001600160401b0382116112f157819061247c600285015461331b565b601f811161287f575b50602090601f8311600114612810578592612805575b50508160011b916000199060031b1c19161760028201555b60608501518051906001600160401b0382116112f15781906124d8600385015461331b565b601f81116127b4575b50602090601f831160011461274557859261273a575b50508160011b916000199060031b1c19161760038201555b60808501518051906001600160401b0382116112f157612532600484015461331b565b601f81116126f5575b5091839160209a95938a9795508b90601f8311600114612652579361261293600b6101608b9c867fcac4ff26fb70b0966fc3d4263b26da8fdfec10993fdd0124cde28c58fab4c1489d976040976126389c9b8892612647575b50508160011b916000199060031b1c19161760048501555b60a0810151600585015560c0810151600685015560e08101516007850155610100810151600885015561012081015160098501556126006101408201511515600a86019060ff801983541691151516179055565b0151910155338152600b8d522061369a565b6126296040519485946040865260408601916136d4565b908382038a85015233976136d4565b0390a360018055604051908152f35b015190503880612594565b906004840185528c852091855b601f19851681106126db575093600b6101608b9c6001876040977fcac4ff26fb70b0966fc3d4263b26da8fdfec10993fdd0124cde28c58fab4c1489f99976126129b6126389e9d99601f198116106126c2575b505050811b0160048501556125ac565b015160001960f88460031b161c191690553880806126b2565b8183015184558d9a50600190930192918e01918e0161265f565b60048401855260208520601f840160051c810160208510612733575b601f830160051c8201811061272757505061253b565b60008155600101612711565b5080612711565b0151905038806124f7565b9250600384018552602085209085935b601f1984168510612799576001945083601f19811610612780575b505050811b01600382015561250f565b015160001960f88460031b161c19169055388080612770565b81810151835560209485019460019093019290910190612755565b90915060038401855260208520601f840160051c8101602085106127fe575b90849392915b601f830160051c820181106127ef5750506124e1565b600081558594506001016127d9565b50806127d3565b01519050388061249b565b9250600284018552602085209085935b601f1984168510612864576001945083601f1981161061284b575b505050811b0160028201556124b3565b015160001960f88460031b161c1916905538808061283b565b81810151835560209485019460019093019290910190612820565b90915060028401855260208520601f840160051c8101602085106128c9575b90849392915b601f830160051c820181106128ba575050612485565b600081558594506001016128a4565b508061289e565b6001600160401b0381116128e7576040523861239b565b634e487b7160e01b82526041600452602482fd5b6040513d84823e3d90fd5b60405162461bcd60e51b815260206004820152600b60248201526a46656520746f6f206c6f7760a81b6044820152606490fd5b8380fd5b503461026f578060031936011261026f57612956613776565b60025460ff8116156129965760ff19166002557f5db9ee0a495bf2e6ff9c91a7834c1ba4fdd244a5e8aa4e537bd38aeae4b073aa6020604051338152a180f35b604051638dfc202b60e01b8152600490fd5b503461026f57602036600319011261026f576001600160a01b0390604090826129cf613305565b168152600760205220908154166129e8600183016133fc565b91600281015490600381015490600481015460058201549060ff600760068501549401541693612a2b604051988998610100908a528060208b01528901906132af565b9560408801526060870152608086015260a085015260c0840152151560e08301520390f35b503461026f57604036600319011261026f57612a6a6132ef565b336001600160a01b03821603612a865761044690600435613901565b60405163334bd91960e11b8152600490fd5b503461026f578060031936011261026f576020601354604051908152f35b503461026f57604036600319011261026f57610446600435612ad66132ef565b9080845283602052612aee60016040862001546137b0565b613888565b503461026f578060031936011261026f576020600554604051908152f35b503461026f57602036600319011261026f57600435612b2e613735565b6040516323b872dd60e01b81523360048201523060248201526044810182905290602082606481866001600160a01b037f0000000000000000000000000000000000000000000000000000000000000000165af191821561132457612ba592612b9d9185916113055750613514565b6013546135cf565b6013556001805580f35b503461026f57612bbe36613294565b7fc85dad813e920862f8f8556480fffc7b067fcf60d39f9a271b6437f5193abfd780845260209084825260408520338652825260ff60408620541615610c435750612c07613735565b60648211612dd857828452600881526040842091612c2783541515613577565b60078301805460ff8116612d9f5760ff19166001179055600454612c4b91906135af565b91612710612c5f60058301948554906135af565b049081600882015581151580612d93575b612cb5575b50612ca47fc82c3ced157083592331c9ff7c22960ec70b6f94e11aff8b80fce672b3de862393546014546135cf565b601455604051908152a26001805580f35b9282826001612d0b96612cca836013546135c2565b601355818060a01b039182910154168960405180998195829463a9059cbb60e01b84526004840160209093929193604081019460018060a01b031681520152565b03927f0000000000000000000000000000000000000000000000000000000000000000165af1908115612d88577fc82c3ced157083592331c9ff7c22960ec70b6f94e11aff8b80fce672b3de862394612ca492612d6b575b509350612c75565b612d8190853d8711610bf557610be681836133db565b5038612d63565b6040513d88823e3d90fd5b50816013541015612c70565b60405162461bcd60e51b8152600481018590526011602482015270105b1c9958591e481d985b1a59185d1959607a1b6044820152606490fd5b6064906040519062461bcd60e51b82526004820152600d60248201526c496e76616c69642073636f726560981b6044820152fd5b503461026f57602036600319011261026f57600160406020926004358152808452200154604051908152f35b503461026f57602080600319360112610970576040805192612e5984613355565b80845280838501526060828501526060808501528060808501528060a08501528060c08501528060e085015280610100809501526004358152600883522060405192612ea484613355565b8154845260018201546001600160a01b03908116848601908152909185612ecd600286016133fc565b9460408201958652612ee1600382016133fc565b9460608301958652612f716004830154976080850198895260058401549260a08601938452600860068601549560c0880196875260e060ff60078301541698019715158852015497878d019889528b6040519d8e9d8e5251908d0152511660408b01525196612f5e610120988960608d01526101408c01906132af565b90518a8203601f190160808c01526132af565b965160a08901525160c08801525160e08701525115159085015251908301520390f35b503461026f57602036600319011261026f57612fae613776565b6004358152600660205260408120600a01805460ff1916905580f35b503461026f57612fd936613294565b90612fe2613776565b60648211612ffc5782526006602052600b60408320015580f35b60405162461bcd60e51b815260206004820152600e60248201526d496e76616c696420726174696e6760901b6044820152606490fd5b503461026f578060031936011261026f576020600f54604051908152f35b503461026f5761305f36613294565b613067613735565b61306f613758565b81835260209260068452604081209060ff600a83015416156132095760069190910180546040516323b872dd60e01b8152336004820152306024820152604481019190915290936001600160a01b0392918681606481867f000000000000000000000000000000000000000000000000000000000000000089165af190811561132457906131039184916131f25750613514565b60105461310f90613552565b948560105554906040519161312383613355565b868352878301953387526040840192835260608401908152608084019085825260a0850192835260c085019342855260e0860198878a526101008701978089528b815260098d52604090209651875588600188019151166001600160601b0360a01b825416179055516002860155516003850155516004840155516005830155516006820155600701925115156131c690849060ff801983541691151516179055565b518254610100600160a81b031916911660081b610100600160a81b031617905560018055604051908152f35b61131e9150883d8a11610bf557610be681836133db565b60405162461bcd60e51b815260048101869052600e60248201526d4d6f64656c20696e61637469766560901b6044820152606490fd5b9050346109705760203660031901126109705760043563ffffffff60e01b81168091036113685760209250637965db0b60e01b8114908115613283575b5015158152f35b6301ffc9a760e01b1490503861327c565b60409060031901126132aa576004359060243590565b600080fd5b919082519283825260005b8481106132db575050826000602080949584010152601f8019910116010190565b6020818301810151848301820152016132ba565b602435906001600160a01b03821682036132aa57565b600435906001600160a01b03821682036132aa57565b90600182811c9216801561334b575b602083101461333557565b634e487b7160e01b600052602260045260246000fd5b91607f169161332a565b61012081019081106001600160401b0382111761337157604052565b634e487b7160e01b600052604160045260246000fd5b61018081019081106001600160401b0382111761337157604052565b61010081019081106001600160401b0382111761337157604052565b61016081019081106001600160401b0382111761337157604052565b90601f801991011681019081106001600160401b0382111761337157604052565b9060405191826000825461340f8161331b565b9081845260209460019160018116908160001461347f5750600114613440575b50505061343e925003836133db565b565b600090815285812095935091905b81831061346757505061343e935082010138808061342f565b8554888401850152948501948794509183019161344e565b9250505061343e94925060ff191682840152151560051b82010138808061342f565b9181601f840112156132aa578235916001600160401b0383116132aa57602083818601950101116132aa57565b80548210156134e65760005260206000200190600090565b634e487b7160e01b600052603260045260246000fd5b908160209103126132aa575180151581036132aa5790565b1561351b57565b60405162461bcd60e51b815260206004820152600f60248201526e151c985b9cd9995c8819985a5b1959608a1b6044820152606490fd5b60001981146135615760010190565b634e487b7160e01b600052601160045260246000fd5b1561357e57565b60405162461bcd60e51b8152602060048201526009602482015268139bdd08199bdd5b9960ba1b6044820152606490fd5b8181029291811591840414171561356157565b9190820391821161356157565b9190820180921161356157565b156135e357565b60405162461bcd60e51b815260206004820152600d60248201526c13985b59481c995c5d5a5c9959609a1b6044820152606490fd5b1561361f57565b60405162461bcd60e51b815260206004820152600d60248201526c12185cda081c995c5d5a5c9959609a1b6044820152606490fd5b9291926001600160401b038211613371576040519161367d601f8201601f1916602001846133db565b8294818452818301116132aa578281602093846000960137010152565b805468010000000000000000811015613371576136bc916001820181556134ce565b819291549060031b91821b91600019901b1916179055565b908060209392818452848401376000828201840152601f01601f1916010190565b156136fc57565b60405162461bcd60e51b8152602060048201526011602482015270105b1c9958591e4818dbdb5c1b195d1959607a1b6044820152606490fd5b600260015414613746576002600155565b604051633ee5aeb560e01b8152600490fd5b60ff6002541661376457565b60405163d93c066560e01b8152600490fd5b3360009081527fad3228b676f7d3cd4284a5443f17f1962b36e491b30a40b2405849e597ba5fb5602052604081205460ff1615610c435750565b80600052600060205260406000203360005260205260ff6040600020541615610c435750565b6001600160a01b031660008181527fdcf353f1ec6e52efc1b760f4c13d4f8d8759f152bdf6daebf41cc5f0e0d2003560205260408120549091907f356623366516155f202192abb2aec10c2bcf907751c7279cedb4a941b659ee879060ff1661388357808352826020526040832082845260205260408320600160ff198254161790557f2f8788117e7eff1d82e926ec794901d17c78024a50270940304540a733656f0d339380a4600190565b505090565b9060009180835282602052604083209160018060a01b03169182845260205260ff6040842054161560001461388357808352826020526040832082845260205260408320600160ff198254161790557f2f8788117e7eff1d82e926ec794901d17c78024a50270940304540a733656f0d339380a4600190565b9060009180835282602052604083209160018060a01b03169182845260205260ff6040842054166000146138835780835282602052604083208284526020526040832060ff1981541690557ff6391f5c32d9c69d2a47ea670b442974b53935d1edc7fd64eb21e047a839171b339380a460019056fea26469706673582212201b76dd11d19f52f206db5f915286995ad6f8b8f89a21cc8cd3f4c95dd6cfc24064736f6c634300081600332f8788117e7eff1d82e926ec794901d17c78024a50270940304540a733656f0d",
  "linkReferences": {},
  "deployedLinkReferences": {}
}