{
  "_format": "hh-sol-artifact-1",
  "contractName": "KaiAI",
  "sourceName": "contracts/pillars/KaiAI.sol",
  "abi": [
    {
      "inputs": [
        {
          "internalType": "address",
          "name": "_kaiToken",
          "type": "address"
        },
        {
          "internalType": "address",
          "name": "admin",
          "type": "address"
        }
      ],
      "stateMutability": "nonpayable",
      "type": "constructor"
    },
    {
      "inputs": [],
      "name": "AccessControlBadConfirmation",
      "type": "error"
    },
    {
      "inputs": [
        {
          "internalType": "address",
          "name": "account",
          "type": "address"
        },
        {
          "internalType": "bytes32",
          "name": "neededRole",
          "type": "bytes32"
        }
      ],
      "name": "AccessControlUnauthorizedAccount",
      "type": "error"
    },
    {
      "inputs": [],
      "name": "EnforcedPause",
      "type": "error"
    },
    {
      "inputs": [],
      "name": "ExpectedPause",
      "type": "error"
    },
    {
      "inputs": [],
      "name": "ReentrancyGuardReentrantCall",
      "type": "error"
    },
    {
      "anonymous": false,
      "inputs": [
        {
          "indexed": true,
          "internalType": "uint256",
          "name": "jobId",
          "type": "uint256"
        },
        {
          "indexed": false,
          "internalType": "uint256",
          "name": "actualUnits",
          "type": "uint256"
        }
      ],
      "name": "ComputeJobCompleted",
      "type": "event"
    },
    {
      "anonymous": false,
      "inputs": [
        {
          "indexed": true,
          "internalType": "uint256",
          "name": "jobId",
          "type": "uint256"
        },
        {
          "indexed": true,
          "internalType": "address",
          "name": "requester",
          "type": "address"
        },
        {
          "indexed": true,
          "internalType": "address",
          "name": "provider",
          "type": "address"
        }
      ],
      "name": "ComputeJobCreated",
      "type": "event"
    },
    {
      "anonymous": false,
      "inputs": [
        {
          "indexed": true,
          "internalType": "address",
          "name": "provider",
          "type": "address"
        },
        {
          "indexed": false,
          "internalType": "string",
          "name": "name",
          "type": "string"
        },
        {
          "indexed": false,
          "internalType": "uint256",
          "name": "capacity",
          "type": "uint256"
        }
      ],
      "name": "ComputeProviderRegistered",
      "type": "event"
    },
    {
      "anonymous": false,
      "inputs": [
        {
          "indexed": true,
          "internalType": "uint256",
          "name": "contributionId",
          "type": "uint256"
        },
        {
          "indexed": true,
          "internalType": "address",
          "name": "contributor",
          "type": "address"
        },
        {
          "indexed": false,
          "internalType": "string",
          "name": "dataType",
          "type": "string"
        }
      ],
      "name": "DataContributed",
      "type": "event"
    },
    {
      "anonymous": false,
      "inputs": [
        {
          "indexed": true,
          "internalType": "uint256",
          "name": "contributionId",
          "type": "uint256"
        },
        {
          "indexed": false,
          "internalType": "uint256",
          "name": "reward",
          "type": "uint256"
        }
      ],
      "name": "DataValidated",
      "type": "event"
    },
    {
      "anonymous": false,
      "inputs": [
        {
          "indexed": true,
          "internalType": "uint256",
          "name": "requestId",
          "type": "uint256"
        },
        {
          "indexed": true,
          "internalType": "uint256",
          "name": "modelId",
          "type": "uint256"
        },
        {
          "indexed": true,
          "internalType": "address",
          "name": "requester",
          "type": "address"
        }
      ],
      "name": "InferenceCompleted",
      "type": "event"
    },
    {
      "anonymous": false,
      "inputs": [
        {
          "indexed": true,
          "internalType": "uint256",
          "name": "modelId",
          "type": "uint256"
        },
        {
          "indexed": true,
          "internalType": "address",
          "name": "publisher",
          "type": "address"
        },
        {
          "indexed": false,
          "internalType": "string",
          "name": "name",
          "type": "string"
        },
        {
          "indexed": false,
          "internalType": "string",
          "name": "domain",
          "type": "string"
        }
      ],
      "name": "ModelPublished",
      "type": "event"
    },
    {
      "anonymous": false,
      "inputs": [
        {
          "indexed": true,
          "internalType": "uint256",
          "name": "modelId",
          "type": "uint256"
        },
        {
          "indexed": false,
          "internalType": "bytes32",
          "name": "newHash",
          "type": "bytes32"
        }
      ],
      "name": "ModelUpdated",
      "type": "event"
    },
    {
      "anonymous": false,
      "inputs": [
        {
          "indexed": false,
          "internalType": "address",
          "name": "account",
          "type": "address"
        }
      ],
      "name": "Paused",
      "type": "event"
    },
    {
      "anonymous": false,
      "inputs": [
        {
          "indexed": true,
          "internalType": "bytes32",
          "name": "role",
          "type": "bytes32"
        },
        {
          "indexed": true,
          "internalType": "bytes32",
          "name": "previousAdminRole",
          "type": "bytes32"
        },
        {
          "indexed": true,
          "internalType": "bytes32",
          "name": "newAdminRole",
          "type": "bytes32"
        }
      ],
      "name": "RoleAdminChanged",
      "type": "event"
    },
    {
      "anonymous": false,
      "inputs": [
        {
          "indexed": true,
          "internalType": "bytes32",
          "name": "role",
          "type": "bytes32"
        },
        {
          "indexed": true,
          "internalType": "address",
          "name": "account",
          "type": "address"
        },
        {
          "indexed": true,
          "internalType": "address",
          "name": "sender",
          "type": "address"
        }
      ],
      "name": "RoleGranted",
      "type": "event"
    },
    {
      "anonymous": false,
      "inputs": [
        {
          "indexed": true,
          "internalType": "bytes32",
          "name": "role",
          "type": "bytes32"
        },
        {
          "indexed": true,
          "internalType": "address",
          "name": "account",
          "type": "address"
        },
        {
          "indexed": true,
          "internalType": "address",
          "name": "sender",
          "type": "address"
        }
      ],
      "name": "RoleRevoked",
      "type": "event"
    },
    {
      "anonymous": false,
      "inputs": [
        {
          "indexed": false,
          "internalType": "address",
          "name": "account",
          "type": "address"
        }
      ],
      "name": "Unpaused",
      "type": "event"
    },
    {
      "inputs": [],
      "name": "COMPUTE_PROVIDER_ROLE",
      "outputs": [
        {
          "internalType": "bytes32",
          "name": "",
          "type": "bytes32"
        }
      ],
      "stateMutability": "view",
      "type": "function"
    },
    {
      "inputs": [],
      "name": "DATA_VALIDATOR_ROLE",
      "outputs": [
        {
          "internalType": "bytes32",
          "name": "",
          "type": "bytes32"
        }
      ],
      "stateMutability": "view",
      "type": "function"
    },
    {
      "inputs": [],
      "name": "DEFAULT_ADMIN_ROLE",
      "outputs": [
        {
          "internalType": "bytes32",
          "name": "",
          "type": "bytes32"
        }
      ],
      "stateMutability": "view",
      "type": "function"
    },
    {
      "inputs": [],
      "name": "MODEL_PUBLISHER_ROLE",
      "outputs": [
        {
          "internalType": "bytes32",
          "name": "",
          "type": "bytes32"
        }
      ],
      "stateMutability": "view",
      "type": "function"
    },
    {
      "inputs": [],
      "name": "activeProviderCount",
      "outputs": [
        {
          "internalType": "uint256",
          "name": "",
          "type": "uint256"
        }
      ],
      "stateMutability": "view",
      "type": "function"
    },
    {
      "inputs": [],
      "name": "aiDevelopmentFund",
      "outputs": [
        {
          "internalType": "uint256",
          "name": "",
          "type": "uint256"
        }
      ],
      "stateMutability": "view",
      "type": "function"
    },
    {
      "inputs": [],
      "name": "baseInferenceFee",
      "outputs": [
        {
          "internalType": "uint256",
          "name": "",
          "type": "uint256"
        }
      ],
      "stateMutability": "view",
      "type": "function"
    },
    {
      "inputs": [
        {
          "internalType": "uint256",
          "name": "jobId",
          "type": "uint256"
        },
        {
          "internalType": "uint256",
          "name": "actualUnits",
          "type": "uint256"
        }
      ],
      "name": "completeComputeJob",
      "outputs": [],
      "stateMutability": "nonpayable",
      "type": "function"
    },
    {
      "inputs": [
        {
          "internalType": "uint256",
          "name": "requestId",
          "type": "uint256"
        },
        {
          "internalType": "bytes32",
          "name": "outputHash",
          "type": "bytes32"
        }
      ],
      "name": "completeInference",
      "outputs": [],
      "stateMutability": "nonpayable",
      "type": "function"
    },
    {
      "inputs": [],
      "name": "computeJobCount",
      "outputs": [
        {
          "internalType": "uint256",
          "name": "",
          "type": "uint256"
        }
      ],
      "stateMutability": "view",
      "type": "function"
    },
    {
      "inputs": [
        {
          "internalType": "uint256",
          "name": "",
          "type": "uint256"
        }
      ],
      "name": "computeJobs",
      "outputs": [
        {
          "internalType": "uint256",
          "name": "id",
          "type": "uint256"
        },
        {
          "internalType": "address",
          "name": "requester",
          "type": "address"
        },
        {
          "internalType": "address",
          "name": "provider",
          "type": "address"
        },
        {
          "internalType": "string",
          "name": "jobType",
          "type": "string"
        },
        {
          "internalType": "uint256",
          "name": "estimatedUnits",
          "type": "uint256"
        },
        {
          "internalType": "uint256",
          "name": "actualUnits",
          "type": "uint256"
        },
        {
          "internalType": "uint256",
          "name": "price",
          "type": "uint256"
        },
        {
          "internalType": "uint256",
          "name": "startTime",
          "type": "uint256"
        },
        {
          "internalType": "uint256",
          "name": "endTime",
          "type": "uint256"
        },
        {
          "internalType": "bool",
          "name": "completed",
          "type": "bool"
        },
        {
          "internalType": "bool",
          "name": "disputed",
          "type": "bool"
        }
      ],
      "stateMutability": "view",
      "type": "function"
    },
    {
      "inputs": [
        {
          "internalType": "address",
          "name": "",
          "type": "address"
        }
      ],
      "name": "computeProviders",
      "outputs": [
        {
          "internalType": "address",
          "name": "provider",
          "type": "address"
        },
        {
          "internalType": "string",
          "name": "name",
          "type": "string"
        },
        {
          "internalType": "uint256",
          "name": "capacity",
          "type": "uint256"
        },
        {
          "internalType": "uint256",
          "name": "pricePerUnit",
          "type": "uint256"
        },
        {
          "internalType": "uint256",
          "name": "totalJobsCompleted",
          "type": "uint256"
        },
        {
          "internalType": "uint256",
          "name": "totalEarnings",
          "type": "uint256"
        },
        {
          "internalType": "uint256",
          "name": "reputation",
          "type": "uint256"
        },
        {
          "internalType": "bool",
          "name": "active",
          "type": "bool"
        }
      ],
      "stateMutability": "view",
      "type": "function"
    },
    {
      "inputs": [
        {
          "internalType": "string",
          "name": "dataType",
          "type": "string"
        },
        {
          "internalType": "string",
          "name": "region",
          "type": "string"
        },
        {
          "internalType": "bytes32",
          "name": "dataHash",
          "type": "bytes32"
        },
        {
          "internalType": "uint256",
          "name": "size",
          "type": "uint256"
        }
      ],
      "name": "contributeData",
      "outputs": [
        {
          "internalType": "uint256",
          "name": "",
          "type": "uint256"
        }
      ],
      "stateMutability": "nonpayable",
      "type": "function"
    },
    {
      "inputs": [
        {
          "internalType": "address",
          "name": "",
          "type": "address"
        },
        {
          "internalType": "uint256",
          "name": "",
          "type": "uint256"
        }
      ],
      "name": "contributorData",
      "outputs": [
        {
          "internalType": "uint256",
          "name": "",
          "type": "uint256"
        }
      ],
      "stateMutability": "view",
      "type": "function"
    },
    {
      "inputs": [
        {
          "internalType": "address",
          "name": "provider",
          "type": "address"
        },
        {
          "internalType": "string",
          "name": "jobType",
          "type": "string"
        },
        {
          "internalType": "uint256",
          "name": "estimatedUnits",
          "type": "uint256"
        }
      ],
      "name": "createComputeJob",
      "outputs": [
        {
          "internalType": "uint256",
          "name": "",
          "type": "uint256"
        }
      ],
      "stateMutability": "nonpayable",
      "type": "function"
    },
    {
      "inputs": [],
      "name": "dataContributionCount",
      "outputs": [
        {
          "internalType": "uint256",
          "name": "",
          "type": "uint256"
        }
      ],
      "stateMutability": "view",
      "type": "function"
    },
    {
      "inputs": [],
      "name": "dataContributionReward",
      "outputs": [
        {
          "internalType": "uint256",
          "name": "",
          "type": "uint256"
        }
      ],
      "stateMutability": "view",
      "type": "function"
    },
    {
      "inputs": [
        {
          "internalType": "uint256",
          "name": "",
          "type": "uint256"
        }
      ],
      "name": "dataContributions",
      "outputs": [
        {
          "internalType": "uint256",
          "name": "id",
          "type": "uint256"
        },
        {
          "internalType": "address",
          "name": "contributor",
          "type": "address"
        },
        {
          "internalType": "string",
          "name": "dataType",
          "type": "string"
        },
        {
          "internalType": "string",
          "name": "region",
          "type": "string"
        },
        {
          "internalType": "bytes32",
          "name": "dataHash",
          "type": "bytes32"
        },
        {
          "internalType": "uint256",
          "name": "size",
          "type": "uint256"
        },
        {
          "internalType": "uint256",
          "name": "timestamp",
          "type": "uint256"
        },
        {
          "internalType": "bool",
          "name": "validated",
          "type": "bool"
        },
        {
          "internalType": "uint256",
          "name": "reward",
          "type": "uint256"
        }
      ],
      "stateMutability": "view",
      "type": "function"
    },
    {
      "inputs": [
        {
          "internalType": "uint256",
          "name": "modelId",
          "type": "uint256"
        }
      ],
      "name": "deactivateModel",
      "outputs": [],
      "stateMutability": "nonpayable",
      "type": "function"
    },
    {
      "inputs": [
        {
          "internalType": "uint256",
          "name": "amount",
          "type": "uint256"
        }
      ],
      "name": "depositToFund",
      "outputs": [],
      "stateMutability": "nonpayable",
      "type": "function"
    },
    {
      "inputs": [
        {
          "internalType": "uint256",
          "name": "id",
          "type": "uint256"
        }
      ],
      "name": "getComputeJob",
      "outputs": [
        {
          "components": [
            {
              "internalType": "uint256",
              "name": "id",
              "type": "uint256"
            },
            {
              "internalType": "address",
              "name": "requester",
              "type": "address"
            },
            {
              "internalType": "address",
              "name": "provider",
              "type": "address"
            },
            {
              "internalType": "string",
              "name": "jobType",
              "type": "string"
            },
            {
              "internalType": "uint256",
              "name": "estimatedUnits",
              "type": "uint256"
            },
            {
              "internalType": "uint256",
              "name": "actualUnits",
              "type": "uint256"
            },
            {
              "internalType": "uint256",
              "name": "price",
              "type": "uint256"
            },
            {
              "internalType": "uint256",
              "name": "startTime",
              "type": "uint256"
            },
            {
              "internalType": "uint256",
              "name": "endTime",
              "type": "uint256"
            },
            {
              "internalType": "bool",
              "name": "completed",
              "type": "bool"
            },
            {
              "internalType": "bool",
              "name": "disputed",
              "type": "bool"
            }
          ],
          "internalType": "struct KaiAI.ComputeJob",
          "name": "",
          "type": "tuple"
        }
      ],
      "stateMutability": "view",
      "type": "function"
    },
    {
      "inputs": [
        {
          "internalType": "address",
          "name": "provider",
          "type": "address"
        }
      ],
      "name": "getComputeProvider",
      "outputs": [
        {
          "components": [
            {
              "internalType": "address",
              "name": "provider",
              "type": "address"
            },
            {
              "internalType": "string",
              "name": "name",
              "type": "string"
            },
            {
              "internalType": "uint256",
              "name": "capacity",
              "type": "uint256"
            },
            {
              "internalType": "uint256",
              "name": "pricePerUnit",
              "type": "uint256"
            },
            {
              "internalType": "uint256",
              "name": "totalJobsCompleted",
              "type": "uint256"
            },
            {
              "internalType": "uint256",
              "name": "totalEarnings",
              "type": "uint256"
            },
            {
              "internalType": "uint256",
              "name": "reputation",
              "type": "uint256"
            },
            {
              "internalType": "bool",
              "name": "active",
              "type": "bool"
            }
          ],
          "internalType": "struct KaiAI.ComputeProvider",
          "name": "",
          "type": "tuple"
        }
      ],
      "stateMutability": "view",
      "type": "function"
    },
    {
      "inputs": [
        {
          "internalType": "uint256",
          "name": "id",
          "type": "uint256"
        }
      ],
      "name": "getDataContribution",
      "outputs": [
        {
          "components": [
            {
              "internalType": "uint256",
              "name": "id",
              "type": "uint256"
            },
            {
              "internalType": "address",
              "name": "contributor",
              "type": "address"
            },
            {
              "internalType": "string",
              "name": "dataType",
              "type": "string"
            },
            {
              "internalType": "string",
              "name": "region",
              "type": "string"
            },
            {
              "internalType": "bytes32",
              "name": "dataHash",
              "type": "bytes32"
            },
            {
              "internalType": "uint256",
              "name": "size",
              "type": "uint256"
            },
            {
              "internalType": "uint256",
              "name": "timestamp",
              "type": "uint256"
            },
            {
              "internalType": "bool",
              "name": "validated",
              "type": "bool"
            },
            {
              "internalType": "uint256",
              "name": "reward",
              "type": "uint256"
            }
          ],
          "internalType": "struct KaiAI.DataContribution",
          "name": "",
          "type": "tuple"
        }
      ],
      "stateMutability": "view",
      "type": "function"
    },
    {
      "inputs": [
        {
          "internalType": "uint256",
          "name": "id",
          "type": "uint256"
        }
      ],
      "name": "getInferenceRequest",
      "outputs": [
        {
          "components": [
            {
              "internalType": "uint256",
              "name": "id",
              "type": "uint256"
            },
            {
              "internalType": "address",
              "name": "requester",
              "type": "address"
            },
            {
              "internalType": "uint256",
              "name": "modelId",
              "type": "uint256"
            },
            {
              "internalType": "bytes32",
              "name": "inputHash",
              "type": "bytes32"
            },
            {
              "internalType": "bytes32",
              "name": "outputHash",
              "type": "bytes32"
            },
            {
              "internalType": "uint256",
              "name": "fee",
              "type": "uint256"
            },
            {
              "internalType": "uint256",
              "name": "timestamp",
              "type": "uint256"
            },
            {
              "internalType": "bool",
              "name": "completed",
              "type": "bool"
            },
            {
              "internalType": "address",
              "name": "computeProvider",
              "type": "address"
            }
          ],
          "internalType": "struct KaiAI.InferenceRequest",
          "name": "",
          "type": "tuple"
        }
      ],
      "stateMutability": "view",
      "type": "function"
    },
    {
      "inputs": [
        {
          "internalType": "uint256",
          "name": "modelId",
          "type": "uint256"
        }
      ],
      "name": "getModel",
      "outputs": [
        {
          "components": [
            {
              "internalType": "uint256",
              "name": "id",
              "type": "uint256"
            },
            {
              "internalType": "address",
              "name": "publisher",
              "type": "address"
            },
            {
              "internalType": "string",
              "name": "name",
              "type": "string"
            },
            {
              "internalType": "string",
              "name": "modelType",
              "type": "string"
            },
            {
              "internalType": "string",
              "name": "domain",
              "type": "string"
            },
            {
              "internalType": "bytes32",
              "name": "modelHash",
              "type": "bytes32"
            },
            {
              "internalType": "uint256",
              "name": "feePerInference",
              "type": "uint256"
            },
            {
              "internalType": "uint256",
              "name": "totalInferences",
              "type": "uint256"
            },
            {
              "internalType": "uint256",
              "name": "totalRevenue",
              "type": "uint256"
            },
            {
              "internalType": "uint256",
              "name": "publishedAt",
              "type": "uint256"
            },
            {
              "internalType": "bool",
              "name": "active",
              "type": "bool"
            },
            {
              "internalType": "uint256",
              "name": "rating",
              "type": "uint256"
            }
          ],
          "internalType": "struct KaiAI.AIModel",
          "name": "",
          "type": "tuple"
        }
      ],
      "stateMutability": "view",
      "type": "function"
    },
    {
      "inputs": [
        {
          "internalType": "address",
          "name": "publisher",
          "type": "address"
        }
      ],
      "name": "getPublisherModels",
      "outputs": [
        {
          "internalType": "uint256[]",
          "name": "",
          "type": "uint256[]"
        }
      ],
      "stateMutability": "view",
      "type": "function"
    },
    {
      "inputs": [
        {
          "internalType": "bytes32",
          "name": "role",
          "type": "bytes32"
        }
      ],
      "name": "getRoleAdmin",
      "outputs": [
        {
          "internalType": "bytes32",
          "name": "",
          "type": "bytes32"
        }
      ],
      "stateMutability": "view",
      "type": "function"
    },
    {
      "inputs": [
        {
          "internalType": "bytes32",
          "name": "role",
          "type": "bytes32"
        },
        {
          "internalType": "address",
          "name": "account",
          "type": "address"
        }
      ],
      "name": "grantRole",
      "outputs": [],
      "stateMutability": "nonpayable",
      "type": "function"
    },
    {
      "inputs": [
        {
          "internalType": "bytes32",
          "name": "role",
          "type": "bytes32"
        },
        {
          "internalType": "address",
          "name": "account",
          "type": "address"
        }
      ],
      "name": "hasRole",
      "outputs": [
        {
          "internalType": "bool",
          "name": "",
          "type": "bool"
        }
      ],
      "stateMutability": "view",
      "type": "function"
    },
    {
      "inputs": [],
      "name": "inferenceCount",
      "outputs": [
        {
          "internalType": "uint256",
          "name": "",
          "type": "uint256"
        }
      ],
      "stateMutability": "view",
      "type": "function"
    },
    {
      "inputs": [
        {
          "internalType": "uint256",
          "name": "",
          "type": "uint256"
        }
      ],
      "name": "inferenceRequests",
      "outputs": [
        {
          "internalType": "uint256",
          "name": "id",
          "type": "uint256"
        },
        {
          "internalType": "address",
          "name": "requester",
          "type": "address"
        },
        {
          "internalType": "uint256",
          "name": "modelId",
          "type": "uint256"
        },
        {
          "internalType": "bytes32",
          "name": "inputHash",
          "type": "bytes32"
        },
        {
          "internalType": "bytes32",
          "name": "outputHash",
          "type": "bytes32"
        },
        {
          "internalType": "uint256",
          "name": "fee",
          "type": "uint256"
        },
        {
          "internalType": "uint256",
          "name": "timestamp",
          "type": "uint256"
        },
        {
          "internalType": "bool",
          "name": "completed",
          "type": "bool"
        },
        {
          "internalType": "address",
          "name": "computeProvider",
          "type": "address"
        }
      ],
      "stateMutability": "view",
      "type": "function"
    },
    {
      "inputs": [],
      "name": "kaiToken",
      "outputs": [
        {
          "internalType": "contract KAIToken",
          "name": "",
          "type": "address"
        }
      ],
      "stateMutability": "view",
      "type": "function"
    },
    {
      "inputs": [],
      "name": "modelCount",
      "outputs": [
        {
          "internalType": "uint256",
          "name": "",
          "type": "uint256"
        }
      ],
      "stateMutability": "view",
      "type": "function"
    },
    {
      "inputs": [],
      "name": "modelPublishFee",
      "outputs": [
        {
          "internalType": "uint256",
          "name": "",
          "type": "uint256"
        }
      ],
      "stateMutability": "view",
      "type": "function"
    },
    {
      "inputs": [
        {
          "internalType": "uint256",
          "name": "",
          "type": "uint256"
        }
      ],
      "name": "models",
      "outputs": [
        {
          "internalType": "uint256",
          "name": "id",
          "type": "uint256"
        },
        {
          "internalType": "address",
          "name": "publisher",
          "type": "address"
        },
        {
          "internalType": "string",
          "name": "name",
          "type": "string"
        },
        {
          "internalType": "string",
          "name": "modelType",
          "type": "string"
        },
        {
          "internalType": "string",
          "name": "domain",
          "type": "string"
        },
        {
          "internalType": "bytes32",
          "name": "modelHash",
          "type": "bytes32"
        },
        {
          "internalType": "uint256",
          "name": "feePerInference",
          "type": "uint256"
        },
        {
          "internalType": "uint256",
          "name": "totalInferences",
          "type": "uint256"
        },
        {
          "internalType": "uint256",
          "name": "totalRevenue",
          "type": "uint256"
        },
        {
          "internalType": "uint256",
          "name": "publishedAt",
          "type": "uint256"
        },
        {
          "internalType": "bool",
          "name": "active",
          "type": "bool"
        },
        {
          "internalType": "uint256",
          "name": "rating",
          "type": "uint256"
        }
      ],
      "stateMutability": "view",
      "type": "function"
    },
    {
      "inputs": [],
      "name": "pause",
      "outputs": [],
      "stateMutability": "nonpayable",
      "type": "function"
    },
    {
      "inputs": [],
      "name": "paused",
      "outputs": [
        {
          "internalType": "bool",
          "name": "",
          "type": "bool"
        }
      ],
      "stateMutability": "view",
      "type": "function"
    },
    {
      "inputs": [
        {
          "internalType": "string",
          "name": "name",
          "type": "string"
        },
        {
          "internalType": "string",
          "name": "modelType",
          "type": "string"
        },
        {
          "internalType": "string",
          "name": "domain",
          "type": "string"
        },
        {
          "internalType": "bytes32",
          "name": "modelHash",
          "type": "bytes32"
        },
        {
          "internalType": "uint256",
          "name": "feePerInference",
          "type": "uint256"
        }
      ],
      "name": "publishModel",
      "outputs": [
        {
          "internalType": "uint256",
          "name": "",
          "type": "uint256"
        }
      ],
      "stateMutability": "nonpayable",
      "type": "function"
    },
    {
      "inputs": [
        {
          "internalType": "address",
          "name": "",
          "type": "address"
        },
        {
          "internalType": "uint256",
          "name": "",
          "type": "uint256"
        }
      ],
      "name": "publisherModels",
      "outputs": [
        {
          "internalType": "uint256",
          "name": "",
          "type": "uint256"
        }
      ],
      "stateMutability": "view",
      "type": "function"
    },
    {
      "inputs": [
        {
          "internalType": "string",
          "name": "name",
          "type": "string"
        },
        {
          "internalType": "uint256",
          "name": "capacity",
          "type": "uint256"
        },
        {
          "internalType": "uint256",
          "name": "pricePerUnit",
          "type": "uint256"
        }
      ],
      "name": "registerComputeProvider",
      "outputs": [],
      "stateMutability": "nonpayable",
      "type": "function"
    },
    {
      "inputs": [
        {
          "internalType": "bytes32",
          "name": "role",
          "type": "bytes32"
        },
        {
          "internalType": "address",
          "name": "callerConfirmation",
          "type": "address"
        }
      ],
      "name": "renounceRole",
      "outputs": [],
      "stateMutability": "nonpayable",
      "type": "function"
    },
    {
      "inputs": [
        {
          "internalType": "uint256",
          "name": "modelId",
          "type": "uint256"
        },
        {
          "internalType": "bytes32",
          "name": "inputHash",
          "type": "bytes32"
        }
      ],
      "name": "requestInference",
      "outputs": [
        {
          "internalType": "uint256",
          "name": "",
          "type": "uint256"
        }
      ],
      "stateMutability": "nonpayable",
      "type": "function"
    },
    {
      "inputs": [
        {
          "internalType": "address",
          "name": "",
          "type": "address"
        },
        {
          "internalType": "uint256",
          "name": "",
          "type": "uint256"
        }
      ],
      "name": "requesterJobs",
      "outputs": [
        {
          "internalType": "uint256",
          "name": "",
          "type": "uint256"
        }
      ],
      "stateMutability": "view",
      "type": "function"
    },
    {
      "inputs": [
        {
          "internalType": "bytes32",
          "name": "role",
          "type": "bytes32"
        },
        {
          "internalType": "address",
          "name": "account",
          "type": "address"
        }
      ],
      "name": "revokeRole",
      "outputs": [],
      "stateMutability": "nonpayable",
      "type": "function"
    },
    {
      "inputs": [
        {
          "internalType": "uint256",
          "name": "inference",
          "type": "uint256"
        },
        {
          "internalType": "uint256",
          "name": "dataReward",
          "type": "uint256"
        },
        {
          "internalType": "uint256",
          "name": "publishFee",
          "type": "uint256"
        }
      ],
      "name": "setFees",
      "outputs": [],
      "stateMutability": "nonpayable",
      "type": "function"
    },
    {
      "inputs": [
        {
          "internalType": "bytes4",
          "name": "interfaceId",
          "type": "bytes4"
        }
      ],
      "name": "supportsInterface",
      "outputs": [
        {
          "internalType": "bool",
          "name": "",
          "type": "bool"
        }
      ],
      "stateMutability": "view",
      "type": "function"
    },
    {
      "inputs": [],
      "name": "totalDataContributed",
      "outputs": [
        {
          "internalType": "uint256",
          "name": "",
          "type": "uint256"
        }
      ],
      "stateMutability": "view",
      "type": "function"
    },
    {
      "inputs": [],
      "name": "unpause",
      "outputs": [],
      "stateMutability": "nonpayable",
      "type": "function"
    },
    {
      "inputs": [
        {
          "internalType": "uint256",
          "name": "modelId",
          "type": "uint256"
        },
        {
          "internalType": "uint256",
          "name": "rating",
          "type": "uint256"
        }
      ],
      "name": "updateModelRating",
      "outputs": [],
      "stateMutability": "nonpayable",
      "type": "function"
    },
    {
      "inputs": [
        {
          "internalType": "address",
          "name": "provider",
          "type": "address"
        },
        {
          "internalType": "uint256",
          "name": "reputation",
          "type": "uint256"
        }
      ],
      "name": "updateProviderReputation",
      "outputs": [],
      "stateMutability": "nonpayable",
      "type": "function"
    },
    {
      "inputs": [
        {
          "internalType": "uint256",
          "name": "contributionId",
          "type": "uint256"
        },
        {
          "internalType": "uint256",
          "name": "qualityScore",
          "type": "uint256"
        }
      ],
      "name": "validateDataContribution",
      "outputs": [],
      "stateMutability": "nonpayable",
      "type": "function"
    }
  ],
  "bytecode": "0x60a0346200018e57601f62003d5938819003918201601f19168301916001600160401b03831184841017620001935780849260409485528339810103126200018e576200005a60206200005283620001a9565b9201620001a9565b60018055670de0b6b3a7640000600355674563918244f40000600455681b1ae4d6e2ef5000006005556001600160a01b0391821691821562000159578116156200012457620000c491608052620000b181620001be565b50620000bd816200023e565b50620002e0565b506040516139bb90816200037e8239608051818181610b0601528181610d6701528181610e6d01528181610f3301528181611010015281816122c2015281816123130152818161236101528181612b5a01528181612d2101526130d60152f35b60405162461bcd60e51b815260206004820152600d60248201526c24b73b30b634b21030b236b4b760991b6044820152606490fd5b60405162461bcd60e51b815260206004820152600d60248201526c24b73b30b634b2103a37b5b2b760991b6044820152606490fd5b600080fd5b634e487b7160e01b600052604160045260246000fd5b51906001600160a01b03821682036200018e57565b6001600160a01b031660008181527fad3228b676f7d3cd4284a5443f17f1962b36e491b30a40b2405849e597ba5fb5602052604081205490919060ff166200023a57818052816020526040822081835260205260408220600160ff19825416179055339160008051602062003d398339815191528180a4600190565b5090565b6001600160a01b031660008181527f23569023f2d2b7c69564de9788f5a05fe6f2d1d878dd3cb99fda8059252314ae60205260408120549091907fde316c1ad139f089be4d060a4250b55a08b36b8fe66d3b88b3f72ad88fc525bf9060ff16620002db57808352826020526040832082845260205260408320600160ff1982541617905560008051602062003d39833981519152339380a4600190565b505090565b6001600160a01b031660008181527f13d2e45f5208e426c86e6879efddee8674f2ae7a4f4dbee87f71b62044429d1f60205260408120549091907fc85dad813e920862f8f8556480fffc7b067fcf60d39f9a271b6437f5193abfd79060ff16620002db57808352826020526040832082845260205260408320600160ff1982541617905560008051602062003d39833981519152339380a460019056fe608080604052600436101561001357600080fd5b600090813560e01c90816301ffc9a71461324d575080630340d46414613062578063039b54be146130445780630bb4e4d314612fdc5780631e10f86b14612fa657806321b5abf214612e4a578063248a9ca314612e1e57806328cd3fb714612bc15780632c7c548714612b0b5780632d71821714612aed5780632f2ff15d14612ab057806330fceca914612a9257806336568abe14612a4a5780633a8e6dcf146129a35780633f4ba83a1461293857806343b1a9a9146121e55780635c975abb146121c25780635d84fb20146120935780635e868e171461204b5780636a030ca914611f585780636d36169414611d7b5780636e121b8114611d33578063740c4fa414611d155780637734f7a214611cda5780638004c9c214611c84578063833f401d14611bd65780638456cb5914611b7b5780638471a5d7146119dc57806385b466eb146119a1578063889392061461191e57806391d14854146118d35780639226c4571461181757806392c92f6b1461136a578063943a45d514610f625780639bcfdfc014610f1d5780639fadc1a314610eff578063a1bf2a4b14610c7b578063a217fddf14610c5f578063aa6eaa4314610972578063abbd060c14610613578063ad1aec87146104ef578063bf15ab2a146104d1578063c5a3ab79146104b3578063c6a645fe14610495578063ce0e0d5814610477578063cec10c1114610448578063d547741f14610407578063ddbf7b3d14610375578063e396651a1461033a578063eb1140aa146102725763f08bbda01461025257600080fd5b3461026f578060031936011261026f576020601254604051908152f35b80fd5b503461026f57602036600319011261026f576004358152600a602052604090208054600182015460028301546001600160a01b03918216939160ff91166102bb6003840161340a565b92600481015493600582015460068301549061030460078501549360096008870154960154966040519b8c9b8c5260208c015260408b01526101608060608c01528a01906132bd565b96608089015260a088015260c087015260e0860152610100850152818116151561012085015260081c1615156101408301520390f35b503461026f578060031936011261026f5760206040517fde316c1ad139f089be4d060a4250b55a08b36b8fe66d3b88b3f72ad88fc525bf8152f35b503461026f57602036600319011261026f57604061012091600435815260096020522080549060018060a01b03908160018201541690600281015460038201546004830154906005840154926007600686015495015495604051988952602089015260408801526060870152608086015260a085015260c084015260ff8116151560e084015260081c16610100820152f35b503461026f57604036600319011261026f576104446004356104276132fd565b908084528360205261043f6001604086200154613545565b613696565b5080f35b503461026f57606036600319011261026f5761046261350b565b60043560035560243560045560443560055580f35b503461026f578060031936011261026f576020601154604051908152f35b503461026f578060031936011261026f576020600e54604051908152f35b503461026f578060031936011261026f576020601454604051908152f35b503461026f578060031936011261026f576020600454604051908152f35b503461026f57602036600319011261026f5761012090604080519161051383613363565b80835280602084015280828401528060608401528060808401528060a08401528060c08401528060e0840152806101008094015260043581526009602052209060405161055f81613363565b82549283825260018060a01b03918260018301541691602082019283526002810154604083019081526003820154606084019081526004830154906080850191825260058401549260a0860193845287600760068701549660c08901978852015497818b60e08a019960ff8c1615158b52019960081c1689526040519b8c52511660208b01525160408a01525160608901525160808801525160a08701525160c086015251151560e0850152511690820152f35b503461026f57606036600319011261026f576004356001600160401b03811161096e576106449036906004016134b0565b9061064d6138ac565b61065882151561370b565b6024351561093557338352600760205260408320546001600160a01b03166108fb57604051610686816133b1565b33815261069436848461380b565b6020820152602435604082015260443560608201528360808201528360a0820152603260c0820152600160e08201523384526007602052604084209060018060a01b038151166001600160601b0360a01b83541617825560208101518051906001600160401b0382116108e75761070e6001850154613329565b601f81116108a2575b50602090601f83116001146108075760e07ffcc0c8f3f06736ee3045c2c955d101e3ea4cdf1e0e74f45bb72187f7d96386e09694846107c0956107ea98956007958d926107fc575b50508160011b916000199060031b1c19161760018501555b60408101516002850155606081015160038501556080810151600485015560a0810151600585015560c081015160068501550151151591019060ff801983541691151516179055565b6107cb6012546137fc565b6012556107d73361356b565b506040519360408552604085019161388b565b9160243560208201528033930390a280f35b01519050388061075f565b906001850188526020882091885b601f198516811061088a57507ffcc0c8f3f06736ee3045c2c955d101e3ea4cdf1e0e74f45bb72187f7d96386e096946001856107ea989560079560e0956107c099601f19811610610871575b505050811b016001850155610777565b015160001960f88460031b161c19169055388080610861565b91926020600181928685015181550194019201610815565b60018501885260208820601f840160051c8101602085106108e0575b601f830160051c820181106108d4575050610717565b600081556001016108be565b50806108be565b634e487b7160e01b87526041600452602487fd5b60405162461bcd60e51b8152602060048201526012602482015271105b1c9958591e481c9959da5cdd195c995960721b6044820152606490fd5b60405162461bcd60e51b815260206004820152601160248201527010d85c1858da5d1e481c995c5d5a5c9959607a1b6044820152606490fd5b5080fd5b503461026f57610981366132a2565b3360009081527fdcf353f1ec6e52efc1b760f4c13d4f8d8759f152bdf6daebf41cc5f0e0d2003560209081526040909120547f356623366516155f202192abb2aec10c2bcf907751c7279cedb4a941b659ee879060ff1615610c4157506109e66138ca565b82845260098152610a4a6040852092610a01845415156138ed565b60016007850191825490610a1860ff831615613925565b6004870155610100600160a81b03199091166001600160a81b0319909116173360081b610100600160a81b0316179055565b600282018054855260068252604085209060078201610a6981546137fc565b90556005840154926046840293801594818104604614861715610c2d57606490049460148202908282046014141715610c2d57610ab9869392610ab46064610ad29404958692613978565b613978565b60088601610ac88882546137d9565b90556013546137d9565b6013556001939093015460405163a9059cbb60e01b8082526001600160a01b039283166004830152602482019690965290947f0000000000000000000000000000000000000000000000000000000000000000861694919082826044818d8a5af1918215610c22578392610c05575b506040519081523360048201526024810184905294859060449082908c905af1908115610bfa57600194600792610bcd575b5033895252610b9a60056040892060048101610b8f81546137fc565b9055019182546137d9565b90555492015416917f84c9f0884b5c76a5d6d986a0263d33c08b77d219f0b246390027473148608e3d8480a46001805580f35b610bec90823d8411610bf3575b610be481836133e9565b810190613783565b5038610b73565b503d610bda565b6040513d8a823e3d90fd5b610c1b90833d8511610bf357610be481836133e9565b5038610b41565b6040513d8c823e3d90fd5b634e487b7160e01b89526011600452602489fd5b6044906040519063e2517d3f60e01b82523360048301526024820152fd5b503461026f578060031936011261026f57602090604051908152f35b503461026f57610c8a366132a2565b610c926138ca565b8183526020600a8152604084209160018060a01b03806002850154163303610ecb576009840160018154610cc960ff821615613925565b84600588015542600888015560ff1916179055338652600783526040862093610cf6600386015484613965565b906006810190858254918585848110610e24575b50505050505490818111600014610e1c5750905b605a8202828104605a1483151715610e08576064610d3e91048093613978565b60405163a9059cbb60e01b81523360048201526024810184905290918590829060449082908c907f0000000000000000000000000000000000000000000000000000000000000000165af1958615610bfa57610dca610ddb936005937f41930f16e103c5d76d3ab5a14c0201a0adab06354e8e99241f5b2ad02566525e99610deb575b506013546137d9565b60135560048101610b8f81546137fc565b9055604051908152a26001805580f35b610e0190893d8b11610bf357610be481836133e9565b5038610dc1565b634e487b7160e01b88526011600452602488fd5b905090610d1e565b610e33600191610e6796613978565b92015460405163a9059cbb60e01b815291166001600160a01b03166004820152602481019190915291829081906044820190565b03818c887f0000000000000000000000000000000000000000000000000000000000000000165af18015610ec057610ea3575b85818585610d0a565b610eb990863d8811610bf357610be481836133e9565b5038610e9a565b6040513d8b823e3d90fd5b60405162461bcd60e51b815260048101849052600c60248201526b2737ba10383937bb34b232b960a11b6044820152606490fd5b503461026f578060031936011261026f576020600354604051908152f35b503461026f578060031936011261026f576040517f00000000000000000000000000000000000000000000000000000000000000006001600160a01b03168152602090f35b503461026f57606036600319011261026f57610f7c613313565b6024356001600160401b03811161136657610f9b9036906004016134b0565b92610fa46138ca565b610fac6138ac565b6001600160a01b038316815260076020819052604082209081015460ff161561132d576003610fdf910154604435613965565b6040516323b872dd60e01b815233600482015230602482015260448101829052602081606481866001600160a01b037f0000000000000000000000000000000000000000000000000000000000000000165af1908115611322579061104b918491611303575b5061379b565b61108a6110596011546137fc565b93846011556040519661106b886133cd565b8588523360208901526001600160a01b0387166040890152369161380b565b606086015260443560808601528160a086015260c08501524260e0850152806101008501528061012085015280610140850152818152600a6020526040812093805185556001850160018060a01b03602083015116906001600160601b0360a01b9182825416179055600286019060018060a01b036040840151169082541617905560608101519485516001600160401b0381116112ef5761112f6003830154613329565b96601f88116112aa575b602097508790601f83116001146112395791806101409492600994889261122e575b50508160011b916000199060031b1c19161760038201555b6080840151600482015560a0840151600582015560c0840151600682015560e08401516007820155610100840151600882015501916111c56101208201511515849060ff801983541691151516179055565b0151151561ff0082549160081b169061ff001916179055338152600d84526111f08260408320613851565b604051926001600160a01b031690339083907f571301e0e57bb287047615065eb7dd73131477bfb64f257901e96d21328ca1b09080a4600180558152f35b01519050388061115b565b9060038401865288862091865b601f1985168110611293575092610140949260019260099583601f1981161061127a575b505050811b016003820155611173565b015160001960f88460031b161c1916905538808061126a565b91928a600181928685015181550194019201611246565b60038301855260208520601f830160051c8101602084106112e8575b601f8a0160051c820181106112dc575050611139565b600081556001016112c6565b50806112c6565b634e487b7160e01b84526041600452602484fd5b61131c915060203d602011610bf357610be481836133e9565b38611045565b6040513d85823e3d90fd5b60405162461bcd60e51b815260206004820152601160248201527050726f766964657220696e61637469766560781b6044820152606490fd5b8280fd5b503461026f57608036600319011261026f576004356001600160401b03811161096e5761139b9036906004016134b0565b6024929192356001600160401b038111611366576113bd9036906004016134b0565b92906113c76138ac565b82156117e2576113da6044351515613747565b606435156117ad576113ed600f546137fc565b9384600f55604051906113ff82613363565b858252611427602083019333855261141836888b61380b565b9260408501938452369161380b565b6060830152604435608083015260643560a08301524260c08301528360e0830152836101008301528584526008602052604084209282518455600184019060018060a01b039051166001600160601b0360a01b825416179055518051906001600160401b0382116116d35781906114a16002860154613329565b601f811161175c575b50602090601f83116001146116f25786926116e7575b50508160011b916000199060031b1c19161760028301555b60608101518051906001600160401b0382116116d3576114fb6003850154613329565b601f811161168e575b5091602097939185938896508990601f83116001146115ec57947fce955dd250092849653e977cc3d05df4e6b05827915210aaf16420964833446c969460086101006115c296868c976040976115d69c88926115e1575b50508160011b916000199060031b1c19161760038501555b6080810151600485015560a0810151600585015560c081015160068501556115b060e08201511515600786019060ff801983541691151516179055565b0151910155338152600c8b5220613851565b60405191829188835233968984019161388b565b0390a3604051908152f35b01519050388061155b565b906003850186528a862091865b601f198516811061167457509460086101006115c2966001876040976115d69c978f9a9c7fce955dd250092849653e977cc3d05df4e6b05827915210aaf16420964833446c9f9d601f1981161061165b575b505050811b016003850155611573565b015160001960f88460031b161c1916905538808061164b565b8183015184558b9950600190930192918c01918c016115f9565b60038501865260208620601f840160051c8101602085106116cc575b601f830160051c820181106116c0575050611504565b600081556001016116aa565b50806116aa565b634e487b7160e01b85526041600452602485fd5b0151905038806114c0565b600286018752602087209250601f198416875b818110611744575090846001959493921061172b575b505050811b0160028301556114d8565b015160001960f88460031b161c1916905538808061171b565b92936020600181928786015181550195019301611705565b90915060028501865260208620601f840160051c8101602085106117a6575b90849392915b601f830160051c820181106117975750506114aa565b60008155859450600101611781565b508061177b565b60405162461bcd60e51b815260206004820152600d60248201526c14da5e99481c995c5d5a5c9959609a1b6044820152606490fd5b60405162461bcd60e51b815260206004820152600d60248201526c151e5c19481c995c5d5a5c9959609a1b6044820152606490fd5b503461026f57602036600319011261026f576004358152600860205260409020805460018201546001600160a01b0316916118546002820161340a565b6118606003830161340a565b9160048101549260058201546118b26006840154926118a4600860ff600788015416960154966040519a8b9a8b5260208b01526101208060408c01528a01906132bd565b9088820360608a01526132bd565b94608087015260a086015260c0850152151560e08401526101008301520390f35b503461026f57604036600319011261026f5760406118ef6132fd565b91600435815280602052209060018060a01b0316600052602052602060ff604060002054166040519015158152f35b503461026f57604036600319011261026f57611938613313565b6024359061194461350b565b60648211611967576001600160a01b031682526007602052604082206006015580f35b60405162461bcd60e51b815260206004820152601260248201527124b73b30b634b2103932b83aba30ba34b7b760711b6044820152606490fd5b503461026f578060031936011261026f5760206040517f356623366516155f202192abb2aec10c2bcf907751c7279cedb4a941b659ee878152f35b503461026f57602036600319011261026f57806040916101408351611a00816133cd565b82815282602082015282858201526060808201528260808201528260a08201528260c08201528260e0820152826101008201528261012082015201526004358152600a6020522060ff600960405192611a58846133cd565b8054845260018101546001600160a01b0390811660208601526002820154166040850152611a886003820161340a565b606085015260048101546080850152600581015460a0850152600681015460c0850152600781015460e085015260088101546101008501520154818116151561012084015260081c1615156101408201526040518091602082528051602083015260018060a01b03602082015116604083015260018060a01b0360408201511660608301526060810151610140611b2d610160928360808701526101808601906132bd565b92608081015160a086015260a081015160c086015260c081015160e086015260e081015161010086015261010081015161012086015261012081015115158286015201511515908301520390f35b503461026f578060031936011261026f57611b9461350b565b611b9c6138ac565b600160ff1960025416176002557f62e78cea01bee320cd4e420270b5ea74000d11b0c9f74754ebdbfc544b05a2586020604051338152a180f35b503461026f5760208060031936011261096e576001600160a01b03611bf9613313565b168252600b81526040822060405192838383549182815201908193835284832090835b818110611c705750505084611c329103856133e9565b60405193838594850191818652518092526040850193925b828110611c5957505050500390f35b835185528695509381019392810192600101611c4a565b825484529286019260019283019201611c1c565b503461026f57604036600319011261026f57611c9e613313565b6001600160a01b03168152600c602052604081208054602435929083101561026f576020611ccc84846134dd565b90546040519160031b1c8152f35b503461026f578060031936011261026f5760206040517fc85dad813e920862f8f8556480fffc7b067fcf60d39f9a271b6437f5193abfd78152f35b503461026f578060031936011261026f576020601054604051908152f35b503461026f57604036600319011261026f57611d4d613313565b6001600160a01b03168152600d602052604081208054602435929083101561026f576020611ccc84846134dd565b503461026f57602036600319011261026f57806040916101608351611d9f81613395565b828152826020820152606085820152606080820152606060808201528260a08201528260c08201528260e082015282610100820152826101208201528261014082015201526004358152600660205220600b60405191611dfe83613395565b8054835260018101546001600160a01b03166020840152611e216002820161340a565b6040840152611e326003820161340a565b6060840152611e436004820161340a565b6080840152600581015460a0840152600681015460c0840152600781015460e08401526008810154610100840152600981015461012084015260ff600a82015416151561014084015201546101608201526040518091602082528051602083015260018060a01b036020820151166040830152610160611f08611ed7604084015161018060608701526101a08601906132bd565b611ef3606085015191601f1992838883030160808901526132bd565b906080850151908683030160a08701526132bd565b9160a081015160c085015260c081015160e085015260e081015161010085015261010081015161012085015261012081015161014085015261014081015115158285015201516101808301520390f35b503461026f57602036600319011261026f576004358152600660205260409020805460018201546001600160a01b031691611f956002820161340a565b611fa16003830161340a565b91611fae6004820161340a565b926005820154936006830154600784015490600885015492600986015494600a87015460ff1696600b0154976040519b8c9b8c5260208c01526101808060408d01528b01611ffb916132bd565b8a810360608c015261200c916132bd565b89810360808b015261201d916132bd565b9660a089015260c088015260e087015261010086015261012085015215156101408401526101608301520390f35b503461026f57604036600319011261026f57612065613313565b6001600160a01b03168152600b602052604081208054602435929083101561026f576020611ccc84846134dd565b503461026f5760208060031936011261096e5760406120b0613313565b928060e083516120bf816133b1565b82815260608682015282858201528260608201528260808201528260a08201528260c0820152015260018060a01b038094168152600783522060405191612105836133b1565b8382541683526121176001830161340a565b90808401918252600283015492604085019384526003810154926060860193845260048201546080870190815260058301549160a0880192835260ff600760068601549560c08b019687520154169460e089019515158652604051998a99828b525116908901525194612198610100968760408b01526101208a01906132bd565b965160608901525160808801525160a08701525160c08601525160e0850152511515908301520390f35b503461026f578060031936011261026f57602060ff600254166040519015158152f35b503461026f5760a036600319011261026f576004356001600160401b03811161096e576122169036906004016134b0565b90916024356001600160401b03811161096e576122379036906004016134b0565b90926044356001600160401b038111612934576122589036906004016134b0565b90936122626138ca565b61226a6138ac565b61227583151561370b565b6122826064351515613747565b60035460843510612901576005546040516323b872dd60e01b81523360048201523060248201526044810191909152602081606481856001600160a01b037f0000000000000000000000000000000000000000000000000000000000000000165af19081156128f657906122fc918391611303575061379b565b60055461230e8160011c6013546137d9565b6013557f00000000000000000000000000000000000000000000000000000000000000006001600160a01b03163b1561096e57604051630852cd8d60e31b815260019190911c60048201528181602481837f00000000000000000000000000000000000000000000000000000000000000006001600160a01b03165af180156128f6576128cb575b506123d76123a5600e546137fc565b9687600e55604051956123b787613395565b8887523360208801526123cb36878c61380b565b6040880152369161380b565b60608501526123e736838761380b565b608085015260643560a085015260843560c08501528060e0850152806101008501524261012085015260016101408501526032610160850152858152600660205260408120845181556001810160018060a01b036020870151166001600160601b0360a01b82541617905560408501518051906001600160401b0382116112ef5781906124776002850154613329565b601f811161287a575b50602090601f831160011461280b578592612800575b50508160011b916000199060031b1c19161760028201555b60608501518051906001600160401b0382116112ef5781906124d36003850154613329565b601f81116127af575b50602090601f8311600114612740578592612735575b50508160011b916000199060031b1c19161760038201555b60808501518051906001600160401b0382116112ef5761252d6004840154613329565b601f81116126f0575b5091839160209a95938a9795508b90601f831160011461264d579361260d93600b6101608b9c867fcac4ff26fb70b0966fc3d4263b26da8fdfec10993fdd0124cde28c58fab4c1489d976040976126339c9b8892612642575b50508160011b916000199060031b1c19161760048501555b60a0810151600585015560c0810151600685015560e08101516007850155610100810151600885015561012081015160098501556125fb6101408201511515600a86019060ff801983541691151516179055565b0151910155338152600b8d5220613851565b61262460405194859460408652604086019161388b565b908382038a850152339761388b565b0390a360018055604051908152f35b01519050388061258f565b906004840185528c852091855b601f19851681106126d6575093600b6101608b9c6001876040977fcac4ff26fb70b0966fc3d4263b26da8fdfec10993fdd0124cde28c58fab4c1489f999761260d9b6126339e9d99601f198116106126bd575b505050811b0160048501556125a7565b015160001960f88460031b161c191690553880806126ad565b8183015184558d9a50600190930192918e01918e0161265a565b60048401855260208520601f840160051c81016020851061272e575b601f830160051c82018110612722575050612536565b6000815560010161270c565b508061270c565b0151905038806124f2565b9250600384018552602085209085935b601f1984168510612794576001945083601f1981161061277b575b505050811b01600382015561250a565b015160001960f88460031b161c1916905538808061276b565b81810151835560209485019460019093019290910190612750565b90915060038401855260208520601f840160051c8101602085106127f9575b90849392915b601f830160051c820181106127ea5750506124dc565b600081558594506001016127d4565b50806127ce565b015190503880612496565b9250600284018552602085209085935b601f198416851061285f576001945083601f19811610612846575b505050811b0160028201556124ae565b015160001960f88460031b161c19169055388080612836565b8181015183556020948501946001909301929091019061281b565b90915060028401855260208520601f840160051c8101602085106128c4575b90849392915b601f830160051c820181106128b5575050612480565b6000815585945060010161289f565b5080612899565b6001600160401b0381116128e25760405238612396565b634e487b7160e01b82526041600452602482fd5b6040513d84823e3d90fd5b60405162461bcd60e51b815260206004820152600b60248201526a46656520746f6f206c6f7760a81b6044820152606490fd5b8380fd5b503461026f578060031936011261026f5761295161350b565b60025460ff8116156129915760ff19166002557f5db9ee0a495bf2e6ff9c91a7834c1ba4fdd244a5e8aa4e537bd38aeae4b073aa6020604051338152a180f35b604051638dfc202b60e01b8152600490fd5b503461026f57602036600319011261026f576001600160a01b0390604090826129ca613313565b168152600760205220908154166129e36001830161340a565b91600281015490600381015490600481015460058201549060ff600760068501549401541693612a2560405198899889526101008060208b01528901906132bd565b9560408801526060870152608086015260a085015260c0840152151560e08301520390f35b503461026f57604036600319011261026f57612a646132fd565b336001600160a01b03821603612a805761044490600435613696565b60405163334bd91960e11b8152600490fd5b503461026f578060031936011261026f576020601354604051908152f35b503461026f57604036600319011261026f57610444600435612ad06132fd565b9080845283602052612ae86001604086200154613545565b61361d565b503461026f578060031936011261026f576020600554604051908152f35b503461026f57602036600319011261026f57600435612b286138ca565b6040516323b872dd60e01b81523360048201523060248201526044810182905290602082606481866001600160a01b037f0000000000000000000000000000000000000000000000000000000000000000165af191821561132257612b9f92612b97918591612ba9575061379b565b6013546137d9565b6013556001805580f35b61131c915060203d8111610bf357610be481836133e9565b503461026f57612bd0366132a2565b7fc85dad813e920862f8f8556480fffc7b067fcf60d39f9a271b6437f5193abfd780845260209084825260408520338652825260ff60408620541615610c415750612c196138ca565b60648211612dea57828452600881526040842091612c39835415156138ed565b60078301805460ff8116612db15760ff19166001179055600454612c5d9190613965565b91612710612c716005830194855490613965565b049081600882015581151580612da5575b612cc7575b50612cb67fc82c3ced157083592331c9ff7c22960ec70b6f94e11aff8b80fce672b3de862393546014546137d9565b601455604051908152a26001805580f35b9282826001612d1d96612cdc83601354613978565b601355818060a01b039182910154168960405180998195829463a9059cbb60e01b84526004840160209093929193604081019460018060a01b031681520152565b03927f0000000000000000000000000000000000000000000000000000000000000000165af1908115612d9a577fc82c3ced157083592331c9ff7c22960ec70b6f94e11aff8b80fce672b3de862394612cb692612d7d575b509350612c87565b612d9390853d8711610bf357610be481836133e9565b5038612d75565b6040513d88823e3d90fd5b50816013541015612c82565b60405162461bcd60e51b8152600481018590526011602482015270105b1c9958591e481d985b1a59185d1959607a1b6044820152606490fd5b6064906040519062461bcd60e51b82526004820152600d60248201526c496e76616c69642073636f726560981b6044820152fd5b503461026f57602036600319011261026f57600160406020926004358152808452200154604051908152f35b503461026f5760208060031936011261096e576040805192612e6b84613363565b80845280838501526060828501526060808501528060808501528060a08501528060c08501528060e085015280610100809501526004358152600883522060405192612eb684613363565b8154845260018201546001600160a01b03908116848601908152909185612edf6002860161340a565b9460408201958652612ef36003820161340a565b9460608301958652612f836004830154976080850198895260058401549260a08601938452600860068601549560c0880196875260e060ff60078301541698019715158852015497878d019889528b6040519d8e9d8e5251908d0152511660408b01525196612f70610120988960608d01526101408c01906132bd565b90518a8203601f190160808c01526132bd565b965160a08901525160c08801525160e08701525115159085015251908301520390f35b503461026f57602036600319011261026f57612fc061350b565b6004358152600660205260408120600a01805460ff1916905580f35b503461026f57612feb366132a2565b90612ff461350b565b6064821161300e5782526006602052600b60408320015580f35b60405162461bcd60e51b815260206004820152600e60248201526d496e76616c696420726174696e6760901b6044820152606490fd5b503461026f578060031936011261026f576020600f54604051908152f35b503461026f57613071366132a2565b6130796138ca565b6130816138ac565b818352602092600684526040812060ff600a82015416156132175760060180546040516323b872dd60e01b8152336004820152306024820152604481019190915290936001600160a01b0392918681606481867f000000000000000000000000000000000000000000000000000000000000000089165af19081156113225790613111918491613200575061379b565b60105461311d906137fc565b948560105554906040519161313183613363565b868352878301953387526040840192835260608401908152608084019085825260a0850192835260c085019342855260e0860198878a526101008701978089528b815260098d52604090209651875588600188019151166001600160601b0360a01b825416179055516002860155516003850155516004840155516005830155516006820155600701925115156131d490849060ff801983541691151516179055565b518254610100600160a81b031916911660081b610100600160a81b031617905560018055604051908152f35b61131c9150883d8a11610bf357610be481836133e9565b60405162461bcd60e51b815260048101869052600e60248201526d4d6f64656c20696e61637469766560901b6044820152606490fd5b90503461096e57602036600319011261096e5760043563ffffffff60e01b81168091036113665760209250637965db0b60e01b8114908115613291575b5015158152f35b6301ffc9a760e01b1490503861328a565b60409060031901126132b8576004359060243590565b600080fd5b919082519283825260005b8481106132e9575050826000602080949584010152601f8019910116010190565b6020818301810151848301820152016132c8565b602435906001600160a01b03821682036132b857565b600435906001600160a01b03821682036132b857565b90600182811c92168015613359575b602083101461334357565b634e487b7160e01b600052602260045260246000fd5b91607f1691613338565b61012081019081106001600160401b0382111761337f57604052565b634e487b7160e01b600052604160045260246000fd5b61018081019081106001600160401b0382111761337f57604052565b61010081019081106001600160401b0382111761337f57604052565b61016081019081106001600160401b0382111761337f57604052565b90601f801991011681019081106001600160401b0382111761337f57604052565b906040519182600082549261341e84613329565b90818452600194858116908160001461348d575060011461344a575b5050613448925003836133e9565b565b9093915060005260209081600020936000915b8183106134755750506134489350820101388061343a565b8554888401850152948501948794509183019161345d565b91505061344894506020925060ff191682840152151560051b820101388061343a565b9181601f840112156132b8578235916001600160401b0383116132b857602083818601950101116132b857565b80548210156134f55760005260206000200190600090565b634e487b7160e01b600052603260045260246000fd5b3360009081527fad3228b676f7d3cd4284a5443f17f1962b36e491b30a40b2405849e597ba5fb5602052604081205460ff1615610c415750565b80600052600060205260406000203360005260205260ff6040600020541615610c415750565b6001600160a01b031660008181527fdcf353f1ec6e52efc1b760f4c13d4f8d8759f152bdf6daebf41cc5f0e0d2003560205260408120549091907f356623366516155f202192abb2aec10c2bcf907751c7279cedb4a941b659ee879060ff1661361857808352826020526040832082845260205260408320600160ff198254161790557f2f8788117e7eff1d82e926ec794901d17c78024a50270940304540a733656f0d339380a4600190565b505090565b9060009180835282602052604083209160018060a01b03169182845260205260ff6040842054161560001461361857808352826020526040832082845260205260408320600160ff198254161790557f2f8788117e7eff1d82e926ec794901d17c78024a50270940304540a733656f0d339380a4600190565b9060009180835282602052604083209160018060a01b03169182845260205260ff6040842054166000146136185780835282602052604083208284526020526040832060ff1981541690557ff6391f5c32d9c69d2a47ea670b442974b53935d1edc7fd64eb21e047a839171b339380a4600190565b1561371257565b60405162461bcd60e51b815260206004820152600d60248201526c13985b59481c995c5d5a5c9959609a1b6044820152606490fd5b1561374e57565b60405162461bcd60e51b815260206004820152600d60248201526c12185cda081c995c5d5a5c9959609a1b6044820152606490fd5b908160209103126132b8575180151581036132b85790565b156137a257565b60405162461bcd60e51b815260206004820152600f60248201526e151c985b9cd9995c8819985a5b1959608a1b6044820152606490fd5b919082018092116137e657565b634e487b7160e01b600052601160045260246000fd5b60001981146137e65760010190565b9291926001600160401b03821161337f5760405191613834601f8201601f1916602001846133e9565b8294818452818301116132b8578281602093846000960137010152565b80546801000000000000000081101561337f57613873916001820181556134dd565b819291549060031b91821b91600019901b1916179055565b908060209392818452848401376000828201840152601f01601f1916010190565b60ff600254166138b857565b60405163d93c066560e01b8152600490fd5b6002600154146138db576002600155565b604051633ee5aeb560e01b8152600490fd5b156138f457565b60405162461bcd60e51b8152602060048201526009602482015268139bdd08199bdd5b9960ba1b6044820152606490fd5b1561392c57565b60405162461bcd60e51b8152602060048201526011602482015270105b1c9958591e4818dbdb5c1b195d1959607a1b6044820152606490fd5b818102929181159184041417156137e657565b919082039182116137e65756fea2646970667358221220d91113e8a78f4d8a062f00e50fd043b21cacde2ce9a60ad1d5520da11a18297d64736f6c634300081400332f8788117e7eff1d82e926ec794901d17c78024a50270940304540a733656f0d",
  "linkReferences": {},
  "deployedLinkReferences": {}
}