{
  "_format": "hh-sol-artifact-1",
  "contractName": "KaiLaw",
  "sourceName": "contracts/pillars/KaiLaw.sol",
  "abi": [
    {
      "inputs": [
        {
          "internalType": "address",
          "name": "_kaiToken",
          "type": "address"
        },
        {
          "internalType": "address",
          "name": "admin",
          "type": "address"
        }
      ],
      "stateMutability": "nonpayable",
      "type": "constructor"
    },
    {
      "inputs": [],
      "name": "AccessControlBadConfirmation",
      "type": "error"
    },
    {
      "inputs": [
        {
          "internalType": "address",
          "name": "account",
          "type": "address"
        },
        {
          "internalType": "bytes32",
          "name": "neededRole",
          "type": "bytes32"
        }
      ],
      "name": "AccessControlUnauthorizedAccount",
      "type": "error"
    },
    {
      "inputs": [],
      "name": "EnforcedPause",
      "type": "error"
    },
    {
      "inputs": [],
      "name": "ExpectedPause",
      "type": "error"
    },
    {
      "inputs": [],
      "name": "ReentrancyGuardReentrantCall",
      "type": "error"
    },
    {
      "anonymous": false,
      "inputs": [
        {
          "indexed": true,
          "internalType": "uint256",
          "name": "auditId",
          "type": "uint256"
        },
        {
          "indexed": false,
          "internalType": "uint256",
          "name": "complianceScore",
          "type": "uint256"
        }
      ],
      "name": "AuditCompleted",
      "type": "event"
    },
    {
      "anonymous": false,
      "inputs": [
        {
          "indexed": true,
          "internalType": "uint256",
          "name": "auditId",
          "type": "uint256"
        },
        {
          "indexed": true,
          "internalType": "address",
          "name": "target",
          "type": "address"
        },
        {
          "indexed": false,
          "internalType": "string",
          "name": "auditType",
          "type": "string"
        }
      ],
      "name": "AuditRequested",
      "type": "event"
    },
    {
      "anonymous": false,
      "inputs": [
        {
          "indexed": true,
          "internalType": "uint256",
          "name": "caseId",
          "type": "uint256"
        },
        {
          "indexed": true,
          "internalType": "address",
          "name": "plaintiff",
          "type": "address"
        },
        {
          "indexed": true,
          "internalType": "address",
          "name": "defendant",
          "type": "address"
        }
      ],
      "name": "CaseFiled",
      "type": "event"
    },
    {
      "anonymous": false,
      "inputs": [
        {
          "indexed": true,
          "internalType": "uint256",
          "name": "caseId",
          "type": "uint256"
        },
        {
          "indexed": false,
          "internalType": "string",
          "name": "ruling",
          "type": "string"
        },
        {
          "indexed": false,
          "internalType": "uint256",
          "name": "penalty",
          "type": "uint256"
        }
      ],
      "name": "CaseResolved",
      "type": "event"
    },
    {
      "anonymous": false,
      "inputs": [
        {
          "indexed": true,
          "internalType": "uint256",
          "name": "caseId",
          "type": "uint256"
        },
        {
          "indexed": false,
          "internalType": "enum KaiLaw.CaseStatus",
          "name": "status",
          "type": "uint8"
        }
      ],
      "name": "CaseStatusUpdated",
      "type": "event"
    },
    {
      "anonymous": false,
      "inputs": [
        {
          "indexed": true,
          "internalType": "uint256",
          "name": "evidenceId",
          "type": "uint256"
        },
        {
          "indexed": true,
          "internalType": "address",
          "name": "submitter",
          "type": "address"
        },
        {
          "indexed": false,
          "internalType": "string",
          "name": "evidenceType",
          "type": "string"
        }
      ],
      "name": "EvidenceSubmitted",
      "type": "event"
    },
    {
      "anonymous": false,
      "inputs": [
        {
          "indexed": true,
          "internalType": "uint256",
          "name": "evidenceId",
          "type": "uint256"
        },
        {
          "indexed": false,
          "internalType": "bool",
          "name": "verified",
          "type": "bool"
        }
      ],
      "name": "EvidenceVerified",
      "type": "event"
    },
    {
      "anonymous": false,
      "inputs": [
        {
          "indexed": false,
          "internalType": "address",
          "name": "account",
          "type": "address"
        }
      ],
      "name": "Paused",
      "type": "event"
    },
    {
      "anonymous": false,
      "inputs": [
        {
          "indexed": true,
          "internalType": "address",
          "name": "violator",
          "type": "address"
        },
        {
          "indexed": false,
          "internalType": "uint256",
          "name": "amount",
          "type": "uint256"
        },
        {
          "indexed": false,
          "internalType": "uint256",
          "name": "caseId",
          "type": "uint256"
        }
      ],
      "name": "PenaltyCollected",
      "type": "event"
    },
    {
      "anonymous": false,
      "inputs": [
        {
          "indexed": true,
          "internalType": "bytes32",
          "name": "role",
          "type": "bytes32"
        },
        {
          "indexed": true,
          "internalType": "bytes32",
          "name": "previousAdminRole",
          "type": "bytes32"
        },
        {
          "indexed": true,
          "internalType": "bytes32",
          "name": "newAdminRole",
          "type": "bytes32"
        }
      ],
      "name": "RoleAdminChanged",
      "type": "event"
    },
    {
      "anonymous": false,
      "inputs": [
        {
          "indexed": true,
          "internalType": "bytes32",
          "name": "role",
          "type": "bytes32"
        },
        {
          "indexed": true,
          "internalType": "address",
          "name": "account",
          "type": "address"
        },
        {
          "indexed": true,
          "internalType": "address",
          "name": "sender",
          "type": "address"
        }
      ],
      "name": "RoleGranted",
      "type": "event"
    },
    {
      "anonymous": false,
      "inputs": [
        {
          "indexed": true,
          "internalType": "bytes32",
          "name": "role",
          "type": "bytes32"
        },
        {
          "indexed": true,
          "internalType": "address",
          "name": "account",
          "type": "address"
        },
        {
          "indexed": true,
          "internalType": "address",
          "name": "sender",
          "type": "address"
        }
      ],
      "name": "RoleRevoked",
      "type": "event"
    },
    {
      "anonymous": false,
      "inputs": [
        {
          "indexed": false,
          "internalType": "address",
          "name": "account",
          "type": "address"
        }
      ],
      "name": "Unpaused",
      "type": "event"
    },
    {
      "anonymous": false,
      "inputs": [
        {
          "indexed": true,
          "internalType": "uint256",
          "name": "reportId",
          "type": "uint256"
        },
        {
          "indexed": false,
          "internalType": "string",
          "name": "reportType",
          "type": "string"
        }
      ],
      "name": "WhistleblowerReportFiled",
      "type": "event"
    },
    {
      "anonymous": false,
      "inputs": [
        {
          "indexed": true,
          "internalType": "uint256",
          "name": "reportId",
          "type": "uint256"
        },
        {
          "indexed": true,
          "internalType": "address",
          "name": "reporter",
          "type": "address"
        },
        {
          "indexed": false,
          "internalType": "uint256",
          "name": "amount",
          "type": "uint256"
        }
      ],
      "name": "WhistleblowerRewarded",
      "type": "event"
    },
    {
      "inputs": [],
      "name": "AUDITOR_ROLE",
      "outputs": [
        {
          "internalType": "bytes32",
          "name": "",
          "type": "bytes32"
        }
      ],
      "stateMutability": "view",
      "type": "function"
    },
    {
      "inputs": [],
      "name": "DEFAULT_ADMIN_ROLE",
      "outputs": [
        {
          "internalType": "bytes32",
          "name": "",
          "type": "bytes32"
        }
      ],
      "stateMutability": "view",
      "type": "function"
    },
    {
      "inputs": [],
      "name": "ENFORCER_ROLE",
      "outputs": [
        {
          "internalType": "bytes32",
          "name": "",
          "type": "bytes32"
        }
      ],
      "stateMutability": "view",
      "type": "function"
    },
    {
      "inputs": [],
      "name": "JUDGE_ROLE",
      "outputs": [
        {
          "internalType": "bytes32",
          "name": "",
          "type": "bytes32"
        }
      ],
      "stateMutability": "view",
      "type": "function"
    },
    {
      "inputs": [],
      "name": "auditCount",
      "outputs": [
        {
          "internalType": "uint256",
          "name": "",
          "type": "uint256"
        }
      ],
      "stateMutability": "view",
      "type": "function"
    },
    {
      "inputs": [],
      "name": "auditRequestFee",
      "outputs": [
        {
          "internalType": "uint256",
          "name": "",
          "type": "uint256"
        }
      ],
      "stateMutability": "view",
      "type": "function"
    },
    {
      "inputs": [
        {
          "internalType": "uint256",
          "name": "",
          "type": "uint256"
        }
      ],
      "name": "audits",
      "outputs": [
        {
          "internalType": "uint256",
          "name": "id",
          "type": "uint256"
        },
        {
          "internalType": "address",
          "name": "requester",
          "type": "address"
        },
        {
          "internalType": "address",
          "name": "target",
          "type": "address"
        },
        {
          "internalType": "string",
          "name": "auditType",
          "type": "string"
        },
        {
          "internalType": "uint256",
          "name": "requestedAt",
          "type": "uint256"
        },
        {
          "internalType": "uint256",
          "name": "completedAt",
          "type": "uint256"
        },
        {
          "internalType": "bytes32",
          "name": "reportHash",
          "type": "bytes32"
        },
        {
          "internalType": "uint256",
          "name": "complianceScore",
          "type": "uint256"
        },
        {
          "internalType": "bool",
          "name": "completed",
          "type": "bool"
        }
      ],
      "stateMutability": "view",
      "type": "function"
    },
    {
      "inputs": [],
      "name": "caseCount",
      "outputs": [
        {
          "internalType": "uint256",
          "name": "",
          "type": "uint256"
        }
      ],
      "stateMutability": "view",
      "type": "function"
    },
    {
      "inputs": [
        {
          "internalType": "uint256",
          "name": "",
          "type": "uint256"
        }
      ],
      "name": "cases",
      "outputs": [
        {
          "internalType": "uint256",
          "name": "id",
          "type": "uint256"
        },
        {
          "internalType": "address",
          "name": "plaintiff",
          "type": "address"
        },
        {
          "internalType": "address",
          "name": "defendant",
          "type": "address"
        },
        {
          "internalType": "string",
          "name": "caseType",
          "type": "string"
        },
        {
          "internalType": "string",
          "name": "jurisdiction",
          "type": "string"
        },
        {
          "internalType": "uint256",
          "name": "filedAt",
          "type": "uint256"
        },
        {
          "internalType": "uint256",
          "name": "resolvedAt",
          "type": "uint256"
        },
        {
          "internalType": "enum KaiLaw.CaseStatus",
          "name": "status",
          "type": "uint8"
        },
        {
          "internalType": "string",
          "name": "ruling",
          "type": "string"
        },
        {
          "internalType": "uint256",
          "name": "penaltyAmount",
          "type": "uint256"
        }
      ],
      "stateMutability": "view",
      "type": "function"
    },
    {
      "inputs": [
        {
          "internalType": "uint256",
          "name": "caseId",
          "type": "uint256"
        }
      ],
      "name": "collectPenalty",
      "outputs": [],
      "stateMutability": "nonpayable",
      "type": "function"
    },
    {
      "inputs": [
        {
          "internalType": "uint256",
          "name": "auditId",
          "type": "uint256"
        },
        {
          "internalType": "bytes32",
          "name": "reportHash",
          "type": "bytes32"
        },
        {
          "internalType": "uint256",
          "name": "complianceScore",
          "type": "uint256"
        },
        {
          "internalType": "string[]",
          "name": "violations",
          "type": "string[]"
        }
      ],
      "name": "completeAudit",
      "outputs": [],
      "stateMutability": "nonpayable",
      "type": "function"
    },
    {
      "inputs": [
        {
          "internalType": "address",
          "name": "",
          "type": "address"
        }
      ],
      "name": "complianceRecords",
      "outputs": [
        {
          "internalType": "address",
          "name": "entity",
          "type": "address"
        },
        {
          "internalType": "string",
          "name": "entityType",
          "type": "string"
        },
        {
          "internalType": "uint256",
          "name": "totalAudits",
          "type": "uint256"
        },
        {
          "internalType": "uint256",
          "name": "totalViolations",
          "type": "uint256"
        },
        {
          "internalType": "uint256",
          "name": "totalPenaltiesPaid",
          "type": "uint256"
        },
        {
          "internalType": "uint256",
          "name": "lastAuditAt",
          "type": "uint256"
        },
        {
          "internalType": "uint256",
          "name": "complianceScore",
          "type": "uint256"
        },
        {
          "internalType": "bool",
          "name": "blacklisted",
          "type": "bool"
        }
      ],
      "stateMutability": "view",
      "type": "function"
    },
    {
      "inputs": [
        {
          "internalType": "uint256",
          "name": "amount",
          "type": "uint256"
        }
      ],
      "name": "depositToFund",
      "outputs": [],
      "stateMutability": "nonpayable",
      "type": "function"
    },
    {
      "inputs": [
        {
          "internalType": "uint256",
          "name": "evidenceId",
          "type": "uint256"
        }
      ],
      "name": "disputeEvidence",
      "outputs": [],
      "stateMutability": "nonpayable",
      "type": "function"
    },
    {
      "inputs": [],
      "name": "enforcementFund",
      "outputs": [
        {
          "internalType": "uint256",
          "name": "",
          "type": "uint256"
        }
      ],
      "stateMutability": "view",
      "type": "function"
    },
    {
      "inputs": [
        {
          "internalType": "address",
          "name": "",
          "type": "address"
        },
        {
          "internalType": "uint256",
          "name": "",
          "type": "uint256"
        }
      ],
      "name": "entityAudits",
      "outputs": [
        {
          "internalType": "uint256",
          "name": "",
          "type": "uint256"
        }
      ],
      "stateMutability": "view",
      "type": "function"
    },
    {
      "inputs": [
        {
          "internalType": "address",
          "name": "",
          "type": "address"
        },
        {
          "internalType": "uint256",
          "name": "",
          "type": "uint256"
        }
      ],
      "name": "entityCases",
      "outputs": [
        {
          "internalType": "uint256",
          "name": "",
          "type": "uint256"
        }
      ],
      "stateMutability": "view",
      "type": "function"
    },
    {
      "inputs": [],
      "name": "evidenceCount",
      "outputs": [
        {
          "internalType": "uint256",
          "name": "",
          "type": "uint256"
        }
      ],
      "stateMutability": "view",
      "type": "function"
    },
    {
      "inputs": [
        {
          "internalType": "bytes32",
          "name": "",
          "type": "bytes32"
        }
      ],
      "name": "evidenceHashes",
      "outputs": [
        {
          "internalType": "bool",
          "name": "",
          "type": "bool"
        }
      ],
      "stateMutability": "view",
      "type": "function"
    },
    {
      "inputs": [
        {
          "internalType": "uint256",
          "name": "",
          "type": "uint256"
        }
      ],
      "name": "evidenceRegistry",
      "outputs": [
        {
          "internalType": "uint256",
          "name": "id",
          "type": "uint256"
        },
        {
          "internalType": "address",
          "name": "submitter",
          "type": "address"
        },
        {
          "internalType": "string",
          "name": "evidenceType",
          "type": "string"
        },
        {
          "internalType": "bytes32",
          "name": "contentHash",
          "type": "bytes32"
        },
        {
          "internalType": "bytes32",
          "name": "metadataHash",
          "type": "bytes32"
        },
        {
          "internalType": "uint256",
          "name": "timestamp",
          "type": "uint256"
        },
        {
          "internalType": "string",
          "name": "region",
          "type": "string"
        },
        {
          "internalType": "string",
          "name": "category",
          "type": "string"
        },
        {
          "internalType": "bool",
          "name": "verified",
          "type": "bool"
        },
        {
          "internalType": "bool",
          "name": "disputed",
          "type": "bool"
        }
      ],
      "stateMutability": "view",
      "type": "function"
    },
    {
      "inputs": [],
      "name": "evidenceSubmissionFee",
      "outputs": [
        {
          "internalType": "uint256",
          "name": "",
          "type": "uint256"
        }
      ],
      "stateMutability": "view",
      "type": "function"
    },
    {
      "inputs": [
        {
          "internalType": "address",
          "name": "defendant",
          "type": "address"
        },
        {
          "internalType": "string",
          "name": "caseType",
          "type": "string"
        },
        {
          "internalType": "string",
          "name": "jurisdiction",
          "type": "string"
        },
        {
          "internalType": "uint256[]",
          "name": "evidenceIds",
          "type": "uint256[]"
        }
      ],
      "name": "fileCase",
      "outputs": [
        {
          "internalType": "uint256",
          "name": "",
          "type": "uint256"
        }
      ],
      "stateMutability": "nonpayable",
      "type": "function"
    },
    {
      "inputs": [
        {
          "internalType": "string",
          "name": "reportType",
          "type": "string"
        },
        {
          "internalType": "string",
          "name": "region",
          "type": "string"
        },
        {
          "internalType": "bytes32",
          "name": "contentHash",
          "type": "bytes32"
        }
      ],
      "name": "fileWhistleblowerReport",
      "outputs": [
        {
          "internalType": "uint256",
          "name": "",
          "type": "uint256"
        }
      ],
      "stateMutability": "nonpayable",
      "type": "function"
    },
    {
      "inputs": [
        {
          "internalType": "uint256",
          "name": "auditId",
          "type": "uint256"
        }
      ],
      "name": "getAudit",
      "outputs": [
        {
          "components": [
            {
              "internalType": "uint256",
              "name": "id",
              "type": "uint256"
            },
            {
              "internalType": "address",
              "name": "requester",
              "type": "address"
            },
            {
              "internalType": "address",
              "name": "target",
              "type": "address"
            },
            {
              "internalType": "string",
              "name": "auditType",
              "type": "string"
            },
            {
              "internalType": "uint256",
              "name": "requestedAt",
              "type": "uint256"
            },
            {
              "internalType": "uint256",
              "name": "completedAt",
              "type": "uint256"
            },
            {
              "internalType": "bytes32",
              "name": "reportHash",
              "type": "bytes32"
            },
            {
              "internalType": "uint256",
              "name": "complianceScore",
              "type": "uint256"
            },
            {
              "internalType": "string[]",
              "name": "violations",
              "type": "string[]"
            },
            {
              "internalType": "bool",
              "name": "completed",
              "type": "bool"
            }
          ],
          "internalType": "struct KaiLaw.Audit",
          "name": "",
          "type": "tuple"
        }
      ],
      "stateMutability": "view",
      "type": "function"
    },
    {
      "inputs": [
        {
          "internalType": "uint256",
          "name": "caseId",
          "type": "uint256"
        }
      ],
      "name": "getCase",
      "outputs": [
        {
          "components": [
            {
              "internalType": "uint256",
              "name": "id",
              "type": "uint256"
            },
            {
              "internalType": "address",
              "name": "plaintiff",
              "type": "address"
            },
            {
              "internalType": "address",
              "name": "defendant",
              "type": "address"
            },
            {
              "internalType": "string",
              "name": "caseType",
              "type": "string"
            },
            {
              "internalType": "string",
              "name": "jurisdiction",
              "type": "string"
            },
            {
              "internalType": "uint256[]",
              "name": "evidenceIds",
              "type": "uint256[]"
            },
            {
              "internalType": "uint256",
              "name": "filedAt",
              "type": "uint256"
            },
            {
              "internalType": "uint256",
              "name": "resolvedAt",
              "type": "uint256"
            },
            {
              "internalType": "enum KaiLaw.CaseStatus",
              "name": "status",
              "type": "uint8"
            },
            {
              "internalType": "string",
              "name": "ruling",
              "type": "string"
            },
            {
              "internalType": "uint256",
              "name": "penaltyAmount",
              "type": "uint256"
            }
          ],
          "internalType": "struct KaiLaw.LegalCase",
          "name": "",
          "type": "tuple"
        }
      ],
      "stateMutability": "view",
      "type": "function"
    },
    {
      "inputs": [
        {
          "internalType": "address",
          "name": "entity",
          "type": "address"
        }
      ],
      "name": "getComplianceRecord",
      "outputs": [
        {
          "components": [
            {
              "internalType": "address",
              "name": "entity",
              "type": "address"
            },
            {
              "internalType": "string",
              "name": "entityType",
              "type": "string"
            },
            {
              "internalType": "uint256",
              "name": "totalAudits",
              "type": "uint256"
            },
            {
              "internalType": "uint256",
              "name": "totalViolations",
              "type": "uint256"
            },
            {
              "internalType": "uint256",
              "name": "totalPenaltiesPaid",
              "type": "uint256"
            },
            {
              "internalType": "uint256",
              "name": "lastAuditAt",
              "type": "uint256"
            },
            {
              "internalType": "uint256",
              "name": "complianceScore",
              "type": "uint256"
            },
            {
              "internalType": "bool",
              "name": "blacklisted",
              "type": "bool"
            }
          ],
          "internalType": "struct KaiLaw.ComplianceRecord",
          "name": "",
          "type": "tuple"
        }
      ],
      "stateMutability": "view",
      "type": "function"
    },
    {
      "inputs": [
        {
          "internalType": "address",
          "name": "entity",
          "type": "address"
        }
      ],
      "name": "getEntityCases",
      "outputs": [
        {
          "internalType": "uint256[]",
          "name": "",
          "type": "uint256[]"
        }
      ],
      "stateMutability": "view",
      "type": "function"
    },
    {
      "inputs": [
        {
          "internalType": "uint256",
          "name": "evidenceId",
          "type": "uint256"
        }
      ],
      "name": "getEvidence",
      "outputs": [
        {
          "components": [
            {
              "internalType": "uint256",
              "name": "id",
              "type": "uint256"
            },
            {
              "internalType": "address",
              "name": "submitter",
              "type": "address"
            },
            {
              "internalType": "string",
              "name": "evidenceType",
              "type": "string"
            },
            {
              "internalType": "bytes32",
              "name": "contentHash",
              "type": "bytes32"
            },
            {
              "internalType": "bytes32",
              "name": "metadataHash",
              "type": "bytes32"
            },
            {
              "internalType": "uint256",
              "name": "timestamp",
              "type": "uint256"
            },
            {
              "internalType": "string",
              "name": "region",
              "type": "string"
            },
            {
              "internalType": "string",
              "name": "category",
              "type": "string"
            },
            {
              "internalType": "bool",
              "name": "verified",
              "type": "bool"
            },
            {
              "internalType": "bool",
              "name": "disputed",
              "type": "bool"
            }
          ],
          "internalType": "struct KaiLaw.Evidence",
          "name": "",
          "type": "tuple"
        }
      ],
      "stateMutability": "view",
      "type": "function"
    },
    {
      "inputs": [
        {
          "internalType": "bytes32",
          "name": "role",
          "type": "bytes32"
        }
      ],
      "name": "getRoleAdmin",
      "outputs": [
        {
          "internalType": "bytes32",
          "name": "",
          "type": "bytes32"
        }
      ],
      "stateMutability": "view",
      "type": "function"
    },
    {
      "inputs": [
        {
          "internalType": "uint256",
          "name": "reportId",
          "type": "uint256"
        }
      ],
      "name": "getWhistleblowerReport",
      "outputs": [
        {
          "components": [
            {
              "internalType": "uint256",
              "name": "id",
              "type": "uint256"
            },
            {
              "internalType": "address",
              "name": "reporter",
              "type": "address"
            },
            {
              "internalType": "string",
              "name": "reportType",
              "type": "string"
            },
            {
              "internalType": "string",
              "name": "region",
              "type": "string"
            },
            {
              "internalType": "bytes32",
              "name": "contentHash",
              "type": "bytes32"
            },
            {
              "internalType": "uint256",
              "name": "timestamp",
              "type": "uint256"
            },
            {
              "internalType": "bool",
              "name": "verified",
              "type": "bool"
            },
            {
              "internalType": "bool",
              "name": "rewarded",
              "type": "bool"
            },
            {
              "internalType": "uint256",
              "name": "rewardAmount",
              "type": "uint256"
            },
            {
              "internalType": "uint256",
              "name": "linkedCaseId",
              "type": "uint256"
            }
          ],
          "internalType": "struct KaiLaw.WhistleblowerReport",
          "name": "",
          "type": "tuple"
        }
      ],
      "stateMutability": "view",
      "type": "function"
    },
    {
      "inputs": [
        {
          "internalType": "bytes32",
          "name": "role",
          "type": "bytes32"
        },
        {
          "internalType": "address",
          "name": "account",
          "type": "address"
        }
      ],
      "name": "grantRole",
      "outputs": [],
      "stateMutability": "nonpayable",
      "type": "function"
    },
    {
      "inputs": [
        {
          "internalType": "bytes32",
          "name": "role",
          "type": "bytes32"
        },
        {
          "internalType": "address",
          "name": "account",
          "type": "address"
        }
      ],
      "name": "hasRole",
      "outputs": [
        {
          "internalType": "bool",
          "name": "",
          "type": "bool"
        }
      ],
      "stateMutability": "view",
      "type": "function"
    },
    {
      "inputs": [],
      "name": "kaiToken",
      "outputs": [
        {
          "internalType": "contract KAIToken",
          "name": "",
          "type": "address"
        }
      ],
      "stateMutability": "view",
      "type": "function"
    },
    {
      "inputs": [],
      "name": "maxPenalty",
      "outputs": [
        {
          "internalType": "uint256",
          "name": "",
          "type": "uint256"
        }
      ],
      "stateMutability": "view",
      "type": "function"
    },
    {
      "inputs": [],
      "name": "minPenalty",
      "outputs": [
        {
          "internalType": "uint256",
          "name": "",
          "type": "uint256"
        }
      ],
      "stateMutability": "view",
      "type": "function"
    },
    {
      "inputs": [],
      "name": "pause",
      "outputs": [],
      "stateMutability": "nonpayable",
      "type": "function"
    },
    {
      "inputs": [],
      "name": "paused",
      "outputs": [
        {
          "internalType": "bool",
          "name": "",
          "type": "bool"
        }
      ],
      "stateMutability": "view",
      "type": "function"
    },
    {
      "inputs": [
        {
          "internalType": "address",
          "name": "entity",
          "type": "address"
        }
      ],
      "name": "removeBlacklist",
      "outputs": [],
      "stateMutability": "nonpayable",
      "type": "function"
    },
    {
      "inputs": [
        {
          "internalType": "bytes32",
          "name": "role",
          "type": "bytes32"
        },
        {
          "internalType": "address",
          "name": "callerConfirmation",
          "type": "address"
        }
      ],
      "name": "renounceRole",
      "outputs": [],
      "stateMutability": "nonpayable",
      "type": "function"
    },
    {
      "inputs": [],
      "name": "reportCount",
      "outputs": [
        {
          "internalType": "uint256",
          "name": "",
          "type": "uint256"
        }
      ],
      "stateMutability": "view",
      "type": "function"
    },
    {
      "inputs": [
        {
          "internalType": "address",
          "name": "target",
          "type": "address"
        },
        {
          "internalType": "string",
          "name": "auditType",
          "type": "string"
        }
      ],
      "name": "requestAudit",
      "outputs": [
        {
          "internalType": "uint256",
          "name": "",
          "type": "uint256"
        }
      ],
      "stateMutability": "nonpayable",
      "type": "function"
    },
    {
      "inputs": [
        {
          "internalType": "uint256",
          "name": "caseId",
          "type": "uint256"
        },
        {
          "internalType": "string",
          "name": "ruling",
          "type": "string"
        },
        {
          "internalType": "uint256",
          "name": "penaltyAmount",
          "type": "uint256"
        }
      ],
      "name": "resolveCase",
      "outputs": [],
      "stateMutability": "nonpayable",
      "type": "function"
    },
    {
      "inputs": [
        {
          "internalType": "bytes32",
          "name": "role",
          "type": "bytes32"
        },
        {
          "internalType": "address",
          "name": "account",
          "type": "address"
        }
      ],
      "name": "revokeRole",
      "outputs": [],
      "stateMutability": "nonpayable",
      "type": "function"
    },
    {
      "inputs": [
        {
          "internalType": "uint256",
          "name": "evidenceFee",
          "type": "uint256"
        },
        {
          "internalType": "uint256",
          "name": "auditFee",
          "type": "uint256"
        },
        {
          "internalType": "uint256",
          "name": "whistleblowerReward",
          "type": "uint256"
        }
      ],
      "name": "setFees",
      "outputs": [],
      "stateMutability": "nonpayable",
      "type": "function"
    },
    {
      "inputs": [
        {
          "internalType": "uint256",
          "name": "min",
          "type": "uint256"
        },
        {
          "internalType": "uint256",
          "name": "max",
          "type": "uint256"
        }
      ],
      "name": "setPenaltyRange",
      "outputs": [],
      "stateMutability": "nonpayable",
      "type": "function"
    },
    {
      "inputs": [
        {
          "internalType": "string",
          "name": "evidenceType",
          "type": "string"
        },
        {
          "internalType": "bytes32",
          "name": "contentHash",
          "type": "bytes32"
        },
        {
          "internalType": "bytes32",
          "name": "metadataHash",
          "type": "bytes32"
        },
        {
          "internalType": "string",
          "name": "region",
          "type": "string"
        },
        {
          "internalType": "string",
          "name": "category",
          "type": "string"
        }
      ],
      "name": "submitEvidence",
      "outputs": [
        {
          "internalType": "uint256",
          "name": "",
          "type": "uint256"
        }
      ],
      "stateMutability": "nonpayable",
      "type": "function"
    },
    {
      "inputs": [
        {
          "internalType": "bytes4",
          "name": "interfaceId",
          "type": "bytes4"
        }
      ],
      "name": "supportsInterface",
      "outputs": [
        {
          "internalType": "bool",
          "name": "",
          "type": "bool"
        }
      ],
      "stateMutability": "view",
      "type": "function"
    },
    {
      "inputs": [],
      "name": "totalPenaltiesCollected",
      "outputs": [
        {
          "internalType": "uint256",
          "name": "",
          "type": "uint256"
        }
      ],
      "stateMutability": "view",
      "type": "function"
    },
    {
      "inputs": [],
      "name": "totalWhistleblowerRewards",
      "outputs": [
        {
          "internalType": "uint256",
          "name": "",
          "type": "uint256"
        }
      ],
      "stateMutability": "view",
      "type": "function"
    },
    {
      "inputs": [],
      "name": "unpause",
      "outputs": [],
      "stateMutability": "nonpayable",
      "type": "function"
    },
    {
      "inputs": [
        {
          "internalType": "uint256",
          "name": "caseId",
          "type": "uint256"
        },
        {
          "internalType": "enum KaiLaw.CaseStatus",
          "name": "newStatus",
          "type": "uint8"
        }
      ],
      "name": "updateCaseStatus",
      "outputs": [],
      "stateMutability": "nonpayable",
      "type": "function"
    },
    {
      "inputs": [
        {
          "internalType": "uint256",
          "name": "reportId",
          "type": "uint256"
        },
        {
          "internalType": "uint256",
          "name": "linkedCaseId",
          "type": "uint256"
        },
        {
          "internalType": "uint256",
          "name": "rewardMultiplier",
          "type": "uint256"
        }
      ],
      "name": "verifyAndRewardWhistleblower",
      "outputs": [],
      "stateMutability": "nonpayable",
      "type": "function"
    },
    {
      "inputs": [
        {
          "internalType": "uint256",
          "name": "evidenceId",
          "type": "uint256"
        },
        {
          "internalType": "bool",
          "name": "isValid",
          "type": "bool"
        }
      ],
      "name": "verifyEvidence",
      "outputs": [],
      "stateMutability": "nonpayable",
      "type": "function"
    },
    {
      "inputs": [],
      "name": "whistleblowerBaseReward",
      "outputs": [
        {
          "internalType": "uint256",
          "name": "",
          "type": "uint256"
        }
      ],
      "stateMutability": "view",
      "type": "function"
    },
    {
      "inputs": [
        {
          "internalType": "uint256",
          "name": "",
          "type": "uint256"
        }
      ],
      "name": "whistleblowerReports",
      "outputs": [
        {
          "internalType": "uint256",
          "name": "id",
          "type": "uint256"
        },
        {
          "internalType": "address",
          "name": "reporter",
          "type": "address"
        },
        {
          "internalType": "string",
          "name": "reportType",
          "type": "string"
        },
        {
          "internalType": "string",
          "name": "region",
          "type": "string"
        },
        {
          "internalType": "bytes32",
          "name": "contentHash",
          "type": "bytes32"
        },
        {
          "internalType": "uint256",
          "name": "timestamp",
          "type": "uint256"
        },
        {
          "internalType": "bool",
          "name": "verified",
          "type": "bool"
        },
        {
          "internalType": "bool",
          "name": "rewarded",
          "type": "bool"
        },
        {
          "internalType": "uint256",
          "name": "rewardAmount",
          "type": "uint256"
        },
        {
          "internalType": "uint256",
          "name": "linkedCaseId",
          "type": "uint256"
        }
      ],
      "stateMutability": "view",
      "type": "function"
    }
  ],
  "bytecode": "0x60a0346200018b57601f6200447238819003918201601f19168301916001600160401b03831184841017620001905780849260409485528339810103126200018b576200005a60206200005283620001a6565b9201620001a6565b60018055678ac7230489e8000060035568056bc75e2d631000006004819055681b1ae4d6e2ef50000060055560065569152d02c7e14af68000006007556001600160a01b0391821691821562000156578116156200012157620000e491608052620000c581620001bb565b50620000d1816200023b565b50620000dd81620002dd565b506200037a565b5060405161403a908162000418823960805181818161054d015281816116be015281816119b3015281816121420152818161251c015261325b0152f35b60405162461bcd60e51b815260206004820152600d60248201526c24b73b30b634b21030b236b4b760991b6044820152606490fd5b60405162461bcd60e51b815260206004820152600d60248201526c24b73b30b634b2103a37b5b2b760991b6044820152606490fd5b600080fd5b634e487b7160e01b600052604160045260246000fd5b51906001600160a01b03821682036200018b57565b6001600160a01b031660008181527fad3228b676f7d3cd4284a5443f17f1962b36e491b30a40b2405849e597ba5fb5602052604081205490919060ff166200023757818052816020526040822081835260205260408220600160ff198254161790553391600080516020620044528339815191528180a4600190565b5090565b6001600160a01b031660008181527f0d2d6a5d08cb5d871289c0a3ca855d9da72909a111c24cce2d5c2b34a20daa5460205260408120549091907f59a1c48e5837ad7a7f3dcedcbe129bf3249ec4fbf651fd4f5e2600ead39fe2f59060ff16620002d857808352826020526040832082845260205260408320600160ff1982541617905560008051602062004452833981519152339380a4600190565b505090565b6001600160a01b031660008181527fe5acc2bb32c49c33bbef2e3575d02ef9de1d6d7eaad8b7a8b20b2ad528b8d6fb60205260408120549091907f9c4e6fd68fbdec6e3075ec7bfba710532af019aea93f5f59ebfe5a9d1a0b894e9060ff16620002d857808352826020526040832082845260205260408320600160ff1982541617905560008051602062004452833981519152339380a4600190565b6001600160a01b031660008181527f7a750cd587acda5aa56e770cbf6d76832999225f755bb1b14d0fb5323840765a60205260408120549091907f973ef39d76cc2c6090feab1c030bec6ab5db557f64df047a4c4f9b5953cf1df39060ff16620002d857808352826020526040832082845260205260408320600160ff1982541617905560008051602062004452833981519152339380a460019056fe608080604052600436101561001357600080fd5b600090813560e01c908163016e33b1146137915750806301ffc9a71461373a5780630be2e1921461371c5780630eba9849146136fe57806310e9173a1461363357806314372e47146131cd57806317bf37a314612f9e578063185c6f8414612f8057806319a10a5914612f2d578063202f6ce614612c305780632090be3814612be8578063248a9ca314612bbc57806326b5504614612b345780632b28d3a8146127aa5780632b85fc99146127025780632c0f5ce3146125765780632c7c5487146124cd5780632f2ff15d1461249057806336568abe1461244857806338f38ed2146123e25780633f4ba83a1461237757806345c1b80414612348578063483a6ff5146120bc5780634a37ecb51461209e578063513a821114611f6f5780635200e79e14611f515780635c975abb14611f2e5780636439fd7514611ef35780636e1d616e14611eb857806372c60ebb14611e9a57806374c24925146118cc5780637eaacdb0146118ae5780638456cb59146118535780638a9f557d146118355780638c9c1f79146117b95780638ca767ae1461173857806391d14854146116ed5780639bcfdfc0146116a8578063a217fddf1461168c578063a2ed5af01461166e578063a91a10801461146a578063b60e73db146113bb578063bec181c41461139d578063c3ebb52b146112bf578063c956f14314611118578063cec10c11146110f4578063cf5da30f14610e06578063d547741f14610dc5578063d6c9e9af146106f5578063da2d7e95146106d7578063e0e475881461069c578063e1ecc25514610401578063eb91e651146103bd578063f09790dd146102d65763f374309f1461027e57600080fd5b346102d35760403660031901126102d357610297613941565b6001600160a01b03168152600e60205260408120805460243592908310156102d35760206102c58484613a03565b90546040519160031b1c8152f35b80fd5b50346102d35760203660031901126102d3576040606091600435815260096020522080546103b260018060a01b038060018501541690600285015416936103a46103226003830161385c565b9261032f6004840161385c565b9361038f60068501549561038160078701549360ff60088901541695600a61035960098b0161385c565b9901549b6040519e8f9e8f9061014094859483526020830152604082015201528c0190613901565b908a820360808c0152613901565b9460a089015260c088015260e0870190613a31565b848203610100860152613901565b906101208301520390f35b50346102d35760203660031901126102d3576103d7613941565b6103df613e55565b6001600160a01b03168152600c60205260408120600701805460ff1916905580f35b50346102d35761041036613a3e565b3360009081527f7a750cd587acda5aa56e770cbf6d76832999225f755bb1b14d0fb5323840765a6020908152604090912054919392917f973ef39d76cc2c6090feab1c030bec6ab5db557f64df047a4c4f9b5953cf1df39060ff161561067e5750610479613db8565b600184101580610673575b1561063a57828552600b815260408520916104a183541515613ce3565b6006830190815460ff8160081c166106025760ff1916600117825560088401556005548581029581159187041417156105ec57601454858110156104e8575b866001805580f35b856104f291613d93565b60145584600784015561010061ff001982541617905561051484601654613aae565b601655600191909101805460405163a9059cbb60e01b81526001600160a01b03918216600482015260248101869052929182846044818a7f000000000000000000000000000000000000000000000000000000000000000087165af19384156105e1577f6fb9f5265e1d167cfa0a11603d6085232fdcdd7bf10ac4d88bc9c0921af7e695946105b4575b50541693604051908152a33880808080806104e0565b6105d390843d86116105da575b6105cb818361383b565b810190613a58565b503861059e565b503d6105c1565b6040513d89823e3d90fd5b634e487b7160e01b600052601160045260246000fd5b60405162461bcd60e51b815260048101859052601060248201526f105b1c9958591e481c995dd85c99195960821b6044820152606490fd5b6064906040519062461bcd60e51b82526004820152601260248201527124b73b30b634b21036bab63a34b83634b2b960711b6044820152fd5b50600a841115610484565b6044906040519063e2517d3f60e01b82523360048301526024820152fd5b50346102d357806003193601126102d35760206040517f9c4e6fd68fbdec6e3075ec7bfba710532af019aea93f5f59ebfe5a9d1a0b894e8152f35b50346102d357806003193601126102d3576020601154604051908152f35b50346102d35760803660031901126102d35761070f613941565b6024356001600160401b038111610dc15761072e903690600401613972565b92604480356001600160401b038111610dc15761074f903690600401613972565b906064916064356001600160401b038111610dbd576107729036906004016139d3565b93909461077d613db8565b610785613ddb565b6001600160a01b03891615610d845761079f8a1515613d1b565b8415610d4b57865b858110610cf25750505090610801916107f56107c4601154613abb565b97886011556040519a6107d68c61381f565b898c523360208d01526001600160a01b038b1660408d01523691613aca565b60608a01523691613aca565b608087015261080f81613c7b565b9161081d604051938461383b565b8183526020830190368360051b820111610cee5780915b8360051b82018310610cde575050505060a08501524260c08501528060e0850152806101008501526040518060208101106001600160401b03602083011117610cc8576020810160405281815261012085015280610140850152818152600960205260408120845181556001810160018060a01b03602087015116906001600160601b0360a01b9182825416179055600282019060018060a01b036040880151169082541617905560608501518051906001600160401b038211610bd65761090c8261090360038601546137ad565b60038601613b4f565b602090601f8311600114610c595761093c9291859183610b09575b50508160011b916000199060031b1c19161790565b60038201555b60808501518051906001600160401b038211610bd6576109728261096960048601546137ad565b60048601613b4f565b602090601f8311600114610bea576109a19291859183610b095750508160011b916000199060031b1c19161790565b60048201555b60a08501518051906001600160401b038211610bd657600160401b8211610bd6576020906005840154836005860155808410610bb9575b500160058301845260208420845b838110610ba5575050505060c0850151600682015560e085015160078201556101008501516006811015610b9157610a279060088301613da0565b60098101946101208101519586516001600160401b038111610b7d57602097610a5a82610a5485546137ad565b85613b4f565b8890601f8311600114610b145782600a95936101409593610a90938a92610b095750508160011b916000199060031b1c19161790565b90555b0151910155338152600d8452610aac8260408320613c25565b6001600160a01b0383168152600d845260408120610acb908390613c25565b604051926001600160a01b031690339083907f33c0ece0e33b3793bd5a2a5bdf6b264144b3909b43bc2f2a1e84c87ab135f6019080a4600180558152f35b015190503880610927565b8387528987209190601f198416885b818110610b665750926001928592600a9896610140989610610b4d575b505050811b019055610a93565b015160001960f88460031b161c19169055388080610b40565b92938c600181928786015181550195019301610b23565b634e487b7160e01b85526041600452602485fd5b634e487b7160e01b83526021600452602483fd5b6001906020845194019381840155016109ec565b600585018652828620610bd0918101908501613b10565b386109de565b634e487b7160e01b84526041600452602484fd5b9190600484018552602085209085935b601f1984168510610c3e576001945083601f19811610610c25575b505050811b0160048201556109a7565b015160001960f88460031b161c19169055388080610c15565b81810151835560209485019460019093019290910190610bfa565b9190600384018552602085209085935b601f1984168510610cad576001945083601f19811610610c94575b505050811b016003820155610942565b015160001960f88460031b161c19169055388080610c84565b81810151835560209485019460019093019290910190610c69565b634e487b7160e01b600052604160045260246000fd5b8235815260209283019201610834565b8480fd5b8060051b8701358852602060088152604089205415610d1457506001016107a7565b9171115d9a59195b98d9481b9bdd08199bdd5b9960721b91506040519262461bcd60e51b8452600484015260126024840152820152fd5b60405162461bcd60e51b8152602060048201526011602482015270115d9a59195b98d9481c995c5d5a5c9959607a1b6044820152606490fd5b60405162461bcd60e51b8152602060048201526011602482015270125b9d985b1a5908191959995b99185b9d607a1b6044820152606490fd5b8580fd5b8280fd5b50346102d35760403660031901126102d357610e02600435610de561395c565b9080845283602052610dfd6001604086200154613eeb565b613f8f565b5080f35b50346102d35760603660031901126102d3576004356001600160401b036024358181116110f057610e3b903690600401613972565b9091604435610e48613e8f565b848652602091600983526040872090610e6382541515613ce3565b600882019060ff82541660068110156110dc576003146110a45783611051575b6009830190861161103d57610ea286610e9c83546137ad565b83613b4f565b8889601f8811600114610fb25792600292610efc89807ff9cd089e4c21a3e6ee2b6f6ddf6898389b7e2d54cb070270bce5de97611e97e99c9b9a99989560039891610fa7575b508160011b916000199060031b1c19161790565b90555b600a8201859055426007830155805460ff19168417905501546001600160a01b03908116808a52600c855260408a2080549092811615610f6a575b505001610f478154613abb565b9055610f60604051948594604086526040860191613c5a565b918301520390a280f35b6001600160601b0360a01b1617815560018101610f90610f8a82546137ad565b82613b27565b600e663ab735b737bbb760c91b0190553880610f3a565b90508b013538610ee8565b50818a52858a2090601f1988168b5b8181106110265750928897969592600395927ff9cd089e4c21a3e6ee2b6f6ddf6898389b7e2d54cb070270bce5de97611e97e99b9a6002961061100e575b5050600188811b019055610eff565b8a01356000198a881b60f8161c191690553880610fff565b91928860018192868e013581550194019201610fc1565b634e487b7160e01b89526041600452602489fd5b60065484101580611098575b610e835760405162461bcd60e51b815260048101869052600f60248201526e496e76616c69642070656e616c747960881b6044820152606490fd5b5060075484111561105d565b60405162461bcd60e51b815260048101869052601060248201526f105b1c9958591e481c995cdbdb1d995960821b6044820152606490fd5b634e487b7160e01b8a52602160045260248afd5b8380fd5b50346102d35761110336613a3e565b9161110c613e55565b60035560045560055580f35b50346102d35760203660031901126102d35780604091610120835161113c816137e7565b8281528260208201526060858201528260608201528260808201528260a0820152606060c0820152606060e0820152826101008201520152600435815260086020522060ff600860405192611190846137e7565b8054845260018101546001600160a01b031660208501526111b36002820161385c565b60408501526003810154606085015260048101546080850152600581015460a08501526111e26006820161385c565b60c08501526111f36007820161385c565b60e08501520154818116151561010084015260081c1615156101208201526040518091602082528051602083015260018060a01b03602082015116604083015260408101516101206112a661125661014093846060880152610160870190613901565b60608501516080870152608085015160a087015260a085015160c087015261129060c086015191601f1992838983030160e08a0152613901565b9060e08601519087830301610100880152613901565b9261010081015115158286015201511515908301520390f35b50346102d35760203660031901126102d3576040906004358152600860205220604081549160ff61138160018060a01b03600184015416926113736113066002830161385c565b60038301549060048401546005850154906113566113266006880161385c565b93600861133560078a0161385c565b9801549a8c519d8e9d8e6101409384938252602082015201528c0190613901565b9360608b015260808a015260a089015287820360c0890152613901565b9085820360e0870152613901565b91818116151561010085015260081c1615156101208301520390f35b50346102d357806003193601126102d3576020601454604051908152f35b50346102d35760203660031901126102d3576004358152600a602052604090208054600182015460028301546001600160a01b03908116939116916114026003830161385c565b91600481015492600582015461144960068401549260ff600960078701549601541695604051998a99610120928b5260208b015260408a01528060608a0152880190613901565b94608087015260a086015260c085015260e084015215156101008301520390f35b50346102d35760203660031901126102d35780604091610140835161148e8161381f565b828152826020820152828582015260608082015260606080820152606060a08201528260c08201528260e082015282610100820152606061012082015201526004358152600960205220604051906114e58261381f565b8054825260018101546001600160a01b03908116602084015260028201541660408301526115156003820161385c565b60608301526115266004820161385c565b608083015261153760058201613c92565b60a0830152600681015460c0830152600781015460e083015260ff60088201541690600682101561165857600a916101008401526115776009820161385c565b61012084015201546101408201526040518091602082528051602083015260018060a01b03602082015116604083015260018060a01b036040820151166060830152606081015161014061164d6115dc61016093846080880152610180870190613901565b61160f6115fb608087015192601f1993848a83030160a08b0152613901565b60a0870151838983030160c08a015261399f565b9060c086015160e088015260e0860151610100880152611639610100870151610120890190613a31565b610120860151908783030184880152613901565b920151908301520390f35b634e487b7160e01b600052602160045260246000fd5b50346102d357806003193601126102d3576020601054604051908152f35b50346102d357806003193601126102d357602090604051908152f35b50346102d357806003193601126102d3576040517f00000000000000000000000000000000000000000000000000000000000000006001600160a01b03168152602090f35b50346102d35760403660031901126102d357604061170961395c565b91600435815280602052209060018060a01b0316600052602052602060ff604060002054166040519015158152f35b50346102d35760403660031901126102d3576004356024356006811015610dc15760207f63ddd364849237939ab7ab73ff6b6d90913684f5afc06bb1de7afb96360177b791611785613e8f565b838552600982526117a8816008604088206117a281541515613ce3565b01613da0565b6117b56040518092613a31565ba280f35b50346102d35760203660031901126102d357600435815260086020526008604082206117e781541515613ce3565b01805460ff8116156118015761ff00191661010017905580f35b60405162461bcd60e51b815260206004820152600c60248201526b139bdd081d995c9a599a595960a21b6044820152606490fd5b50346102d357806003193601126102d3576020600454604051908152f35b50346102d357806003193601126102d35761186c613e55565b611874613ddb565b600160ff1960025416176002557f62e78cea01bee320cd4e420270b5ea74000d11b0c9f74754ebdbfc544b05a2586020604051338152a180f35b50346102d357806003193601126102d3576020601554604051908152f35b50346102d35760a03660031901126102d3576004356001600160401b038111611e96576118fd903690600401613972565b6064356001600160401b0381116110f05761191c903690600401613972565b6084939193356001600160401b038111610dbd5761193e903690600401613972565b90611947613db8565b61194f613ddb565b61195a851515613d1b565b6119676024351515613d57565b6024358752600f60205260ff604088205416611e5c576003546040516323b872dd60e01b81523360048201523060248201526044810191909152916020836064818b6001600160a01b037f0000000000000000000000000000000000000000000000000000000000000000165af1928315611e5157611a64936119f1918a91611e32575b50613a70565b6119ff600354601454613aae565b601455611a58611a10601054613abb565b978860105560405195611a22876137e7565b898752336020880152611a36368a8a613aca565b6040880152602435606088015260443560808801524260a08801523691613aca565b60c08501523691613aca565b60e08201528461010082015284610120820152838552600860205260408520815181556001810160018060a01b036020840151166001600160601b0360a01b82541617905560408201518051906001600160401b038211611d4057611ad982611ad060028601546137ad565b60028601613b4f565b602090601f8311600114611dc357611b089291899183610b095750508160011b916000199060031b1c19161790565b60028201555b606082015160038201556080820151600482015560a0820151600582015560c08201518051906001600160401b038211611d4057611b5c82611b5360068601546137ad565b60068601613b4f565b602090601f8311600114611d5457611b8b9291899183610b095750508160011b916000199060031b1c19161790565b60068201555b60e08201518051906001600160401b038211611d4057918160209893611bca89979694611bc160078601546137ad565b60078601613b4f565b8990601f8311600114611ca057936101206008604095611c2b868a97611c68977fa49e7517d2b5714f7812f718444c5a2931d4fc670ed2d2aa2426ff2f42c5b44d9d9b611c919d92610b095750508160011b916000199060031b1c19161790565b60078201555b0191611c506101008201511515849060ff801983541691151516179055565b0151815461ff00191690151560081b61ff0016179055565b6024358152600f895220600160ff19825416179055604051918291888352339689840191613c5a565b0390a360018055604051908152f35b906007840186528a862091865b601f1985168110611d2657506008604095600186611c68967fa49e7517d2b5714f7812f718444c5a2931d4fc670ed2d2aa2426ff2f42c5b44d9c9a9661012096611c919d9a601f19811610611d0d575b505050811b016007820155611c31565b015160001960f88460031b161c19169055388080611cfd565b8183015184558b9950600190930192918c01918c01611cad565b634e487b7160e01b88526041600452602488fd5b9190600684018952602089209089935b601f1984168510611da8576001945083601f19811610611d8f575b505050811b016006820155611b91565b015160001960f88460031b161c19169055388080611d7f565b81810151835560209485019460019093019290910190611d64565b9190600284018952602089209089935b601f1984168510611e17576001945083601f19811610611dfe575b505050811b016002820155611b0e565b015160001960f88460031b161c19169055388080611dee565b81810151835560209485019460019093019290910190611dd3565b611e4b915060203d6020116105da576105cb818361383b565b386119eb565b6040513d8a823e3d90fd5b60405162461bcd60e51b81526020600482015260126024820152714475706c69636174652065766964656e636560701b6044820152606490fd5b5080fd5b50346102d357806003193601126102d3576020600354604051908152f35b50346102d357806003193601126102d35760206040517f59a1c48e5837ad7a7f3dcedcbe129bf3249ec4fbf651fd4f5e2600ead39fe2f58152f35b50346102d357806003193601126102d35760206040517f973ef39d76cc2c6090feab1c030bec6ab5db557f64df047a4c4f9b5953cf1df38152f35b50346102d357806003193601126102d357602060ff600254166040519015158152f35b50346102d357806003193601126102d3576020600754604051908152f35b50346102d357602080600319360112611e96576040611f8c613941565b928060e08351611f9b81613803565b82815260608682015282858201528260608201528260808201528260a08201528260c0820152015260018060a01b038094168152600c83522060405191611fe183613803565b838254168352611ff36001830161385c565b90808401918252600283015492604085019384526003810154926060860193845260048201546080870190815260058301549160a0880192835260ff600760068601549560c08b019687520154169460e089019515158652604051998a99828b525116908901525194612074610100968760408b01526101208a0190613901565b965160608901525160808801525160a08701525160c08601525160e0850152511515908301520390f35b50346102d357806003193601126102d3576020601654604051908152f35b50346102d357602080600319360112611e9657600435906120db613db8565b81835260098152604083209160ff60088401541660068110156123345760030361230057600a830192835480156122ce5760029190910180546040516323b872dd60e01b81526001600160a01b0391821660048201523060248201526044810193909352917f000000000000000000000000000000000000000000000000000000000000000083169085816064818b865af18015611e51576121839189916122b75750613a70565b85549060468202828104604614831517156122a357906121b56121ac60648b9594048094613d93565b92601454613aae565b6014556121c58854601554613aae565b601555803b15610dc157602483926040519485938492630852cd8d60e31b845260048401525af180156105e157612254575b509181837f4ea7aea8cfe012ba0d6280bf9b585e073f218a2f021eb3fa7affc8758d67cb4f959360409554168852600c845284882061223d600489549201918254613aae565b905554169454918351928352820152a26001805580f35b6001600160401b03819792971161228f57604052947f4ea7aea8cfe012ba0d6280bf9b585e073f218a2f021eb3fa7affc8758d67cb4f6121f7565b634e487b7160e01b82526041600452602482fd5b634e487b7160e01b89526011600452602489fd5b611e4b9150873d89116105da576105cb818361383b565b60405162461bcd60e51b815260048101859052600a6024820152694e6f2070656e616c747960b01b6044820152606490fd5b60405162461bcd60e51b815260048101839052600c60248201526b139bdd081c995cdbdb1d995960a21b6044820152606490fd5b634e487b7160e01b85526021600452602485fd5b50346102d35760203660031901126102d35760ff60406020926004358152600f84522054166040519015158152f35b50346102d357806003193601126102d357612390613e55565b60025460ff8116156123d05760ff19166002557f5db9ee0a495bf2e6ff9c91a7834c1ba4fdd244a5e8aa4e537bd38aeae4b073aa6020604051338152a180f35b604051638dfc202b60e01b8152600490fd5b50346102d35760403660031901126102d357602435600435612402613e55565b818110156124135760065560075580f35b60405162461bcd60e51b815260206004820152600d60248201526c496e76616c69642072616e676560981b6044820152606490fd5b50346102d35760403660031901126102d35761246261395c565b336001600160a01b0382160361247e57610e0290600435613f8f565b60405163334bd91960e11b8152600490fd5b50346102d35760403660031901126102d357610e026004356124b061395c565b90808452836020526124c86001604086200154613eeb565b613f11565b50346102d35760203660031901126102d3576004356124ea613db8565b6040516323b872dd60e01b81523360048201523060248201526044810182905290602082606481866001600160a01b037f0000000000000000000000000000000000000000000000000000000000000000165af191821561256b5761256192612559918591611e325750613a70565b601454613aae565b6014556001805580f35b6040513d85823e3d90fd5b50346102d35760203660031901126102d35780604091610120835161259a816137e7565b8281528260208201526060858201526060808201528260808201528260a08201528260c08201528260e08201528261010082015201526004358152600b602052206008604051916125ea836137e7565b8054835260018101546001600160a01b0316602084015261260d6002820161385c565b604084015261261e6003820161385c565b606084015260048101546080840152600581015460a084015260ff6006820154818116151560c0860152831c16151560e0840152600781015461010084015201546101208201526040518091602082528051602083015260018060a01b03602082015116604083015260408101516101206126c06126aa61014093846060880152610160870190613901565b6060850151868203601f19016080880152613901565b92608081015160a086015260a081015160c086015260c0810151151560e086015260e08101511515610100860152610100810151828601520151908301520390f35b50346102d35760203660031901126102d3576001600160a01b039060409082612729613941565b168152600c60205220908154166127426001830161385c565b91600281015490600381015490600481015460058201549060ff600760068501549401541693612785604051988998610100908a528060208b0152890190613901565b9560408801526060870152608086015260a085015260c0840152151560e08301520390f35b50346102d35760603660031901126102d3576004356001600160401b038111611e96576127db903690600401613972565b906024356001600160401b0381116110f0576127fb903690600401613972565b919092612806613ddb565b612811811515613d1b565b61281e6044351515613d57565b612829601354613abb565b93846013556040519361283b856137e7565b8585526128636020860192338452612854368688613aca565b92604088019384523691613aca565b606086015260443560808601524260a08601528660c08601528660e08601528661010086015286610120860152858752600b602052604087209185518355600183019060018060a01b039051166001600160601b0360a01b825416179055518051906001600160401b038211611d40576128e482611ad060028601546137ad565b602090601f8311600114612aca576129139291899183610b095750508160011b916000199060031b1c19161790565b60028201555b60608401518051906001600160401b038211611d40579060209783926129528361294960038c9a999801546137ad565b60038701613b4f565b8991601f8411600114612a315783600894610120947f44f43be475258da0428ade86f659171f05ab67baed1dc4928fe1a49ca4c790839a9b946129a99492610b095750508160011b916000199060031b1c19161790565b60038501555b6080810151600485015560a08101516005850155612a01600685016129e660c08401511515829060ff801983541691151516179055565b60e0830151815461ff00191690151560081b61ff0016179055565b61010081015160078501550151910155612a2660405192839288845288840191613c5a565b0390a2604051908152f35b90600385999493990182528a8220915b601f1984168110612ab0575082600894927f44f43be475258da0428ade86f659171f05ab67baed1dc4928fe1a49ca4c79083999a60019361012096601f19811610612a97575b505050811b0160038501556129af565b015160001960f88460031b161c19169055388080612a87565b818a01518355988b01988a98506001909201918b01612a41565b600284018952602089209190601f1984168a5b818110612b1c5750908460019594939210612b03575b505050811b016002820155612919565b015160001960f88460031b161c19169055388080612af3565b92936020600181928786015181550195019301612add565b50346102d35760403660031901126102d357600435602435801515908181036110f0577f38507b0866ce0c7c45b3a5f78b8c7a9864c60351350eb6416c730da201b23e4991612bb2602092612b87613df9565b85875260088452600860408820612ba081541515613ce3565b019060ff801983541691151516179055565b604051908152a280f35b50346102d35760203660031901126102d357600160406020926004358152808452200154604051908152f35b50346102d35760403660031901126102d357612c02613941565b6001600160a01b03168152600d60205260408120805460243592908310156102d35760206102c58484613a03565b50346102d35760803660031901126102d3576004356001600160401b03604435606435828111610cee57612c689036906004016139d3565b612c73939193613df9565b60648311612ef857848652602093600a85526040872091612c9683541515613ce3565b600983019360ff855416612ebf579160243560068501558560078501556008840192612cc28385613b94565b81938a52878a20918a945b848610612db2578b8b7fdc1e6407cb902c85f8825fe5afb1b7619ebc9320cdb38adc1dcc6d573d1a29b88c8c8c60028d42600582015560ff199260018482541617905560018060a01b03918291015416808852600c85526040882091825490811615612d7b575b505060028101612d448154613abb565b9055426005820155826006820155601e8310612d67575b5050604051908152a280f35b600760019101918254161790558580612d5b565b6001600160601b0360a01b1617815560018101612d9b610f8a82546137ad565b600e663ab735b737bbb760c91b0190558780612d34565b8035601e1983360301811215612ebb5782018035848111612eb7578d8136038d8401136102d3578c92612def83612de98a546137ad565b8a613b4f565b81601f8411600114612e415792808560019794612e259489989793612e34575b5050508160011b916000199060031b1c19161790565b87555b01940195019492612ccd565b0101359050843880612e0f565b91601f198416898452858420935b818110612e94575091856001979492868998979510612e78575b50505050831b83018755612e28565b60001960f88660031b161c199201013516905538808481612e69565b9293956001839697828094958801013581550195019201908f9594939291612e4f565b8d80fd5b8c80fd5b60405162461bcd60e51b8152600481018890526011602482015270105b1c9958591e4818dbdb5c1b195d1959607a1b6044820152606490fd5b60405162461bcd60e51b815260206004820152600d60248201526c496e76616c69642073636f726560981b6044820152606490fd5b50346102d35760203660031901126102d357612f7c90612f68906040906001600160a01b03612f5a613941565b168152600d60205220613c92565b60405191829160208352602083019061399f565b0390f35b50346102d357806003193601126102d3576020601354604051908152f35b50346102d35760203660031901126102d35780610120604051612fc0816137e7565b8281528260208201528260408201526060808201528260808201528260a08201528260c08201528260e0820152606061010082015201526004358152600a602052604081209060405191613013836137e7565b8054835260018101546001600160a01b03908116602085015260028201541660408401526130436003820161385c565b606084015260048101546080840152600581015460a0840152600681015460c0840152600781015460e0840152600881015461307e81613c7b565b9061308c604051928361383b565b808252602082016008840185526020852085915b8383106131b057878760ff60098989610100860152015416151561012083015260405190602082528251602083015260018060a01b03602084015116604083015260018060a01b036040840151166060830152606083015161311061014091826080860152610160850190613901565b91608085015160a085015260a085015160c085015260c085015160e085015260e085015161010085015261010085015192601f1990818682030161012087015284519182825260208201906020808560051b850101970194925b848410613183576101208a01511515878a015288880389f35b9091929394966020806131a0838686600196030188528b51613901565b990194019401929493919061316a565b6001602081926131bf8561385c565b8152019201920191906130a0565b50346102d35760403660031901126102d3576131e7613941565b6024356001600160401b038111610dc157613206903690600401613972565b9061320f613db8565b613217613ddb565b6001600160a01b038316156135fd57600480546040516323b872dd60e01b815233928101929092523060248301526044820152602081606481886001600160a01b037f0000000000000000000000000000000000000000000000000000000000000000165af180156135f257613293918691611e325750613a70565b6132a1600454601454613aae565b6014556132af601254613abb565b92836012556040516132c0816137e7565b8481523360208201526001600160a01b03821660408201526132e3368585613aca565b60608201524260808201528560a08201528560c08201528560e0820152606061010082015285610120820152848652600a6020526040862090805182556001820160018060a01b03602083015116906001600160601b0360a01b9182825416179055600283019060018060a01b036040840151169082541617905560608101518051906001600160401b03821161103d576133858261294960038701546137ad565b602090601f8311600114613583576133b492918a9183610b095750508160011b916000199060031b1c19161790565b60038301555b6080810151600483015560a0810151600583015560c0810151600683015560e08101516007830155600882016101008201519060208251926133fc8484613b94565b019089526020892089915b83831061349457505050509161347686604060209961346083989660096101207fd749a14df04a87294d8db5cff6780a93ffbec955a67da822867f31c381d53b119a0151151591019060ff801983541691151516179055565b6001600160a01b0385168152600e8b5220613c25565b611c9160405192839289845260018060a01b03169689840191613c5a565b80518051906001600160401b03821161356f576134bb826134b586546137ad565b86613b4f565b6020908d601f84116001146135025783600195929460209487966134f39492610b095750508160011b916000199060031b1c19161790565b85555b01920192019190613407565b919085835260208320925b601f1985168110613557575083602093600196938796938794601f1981161061353e575b505050811b0185556134f6565b015160001960f88460031b161c19169055388080613531565b9192602060018192868501518155019401920161350d565b634e487b7160e01b8d52604160045260248dfd5b9190600385018a5260208a20908a935b601f19841685106135d7576001945083601f198116106135be575b505050811b0160038301556133ba565b015160001960f88460031b161c191690553880806135ae565b81810151835560209485019460019093019290910190613593565b6040513d87823e3d90fd5b60405162461bcd60e51b815260206004820152600e60248201526d125b9d985b1a59081d185c99d95d60921b6044820152606490fd5b50346102d35760203660031901126102d3576040906004358152600b6020522080549060018060a01b03600182015416906136706002820161385c565b61367c6003830161385c565b9160ff60048201549360058301546136ce6006850154926136c060086007880154970154976040519b8c9b610140918d5260208d01528060408d01528b0190613901565b9089820360608b0152613901565b95608088015260a0870152818116151560c087015260081c16151560e08501526101008401526101208301520390f35b50346102d357806003193601126102d3576020600654604051908152f35b50346102d357806003193601126102d3576020601254604051908152f35b50346102d35760203660031901126102d35760043563ffffffff60e01b8116809103611e9657602090637965db0b60e01b8114908115613780575b506040519015158152f35b6301ffc9a760e01b14905082613775565b905034611e965781600319360112611e96576020906005548152f35b90600182811c921680156137dd575b60208310146137c757565b634e487b7160e01b600052602260045260246000fd5b91607f16916137bc565b61014081019081106001600160401b03821117610cc857604052565b61010081019081106001600160401b03821117610cc857604052565b61016081019081106001600160401b03821117610cc857604052565b90601f801991011681019081106001600160401b03821117610cc857604052565b9060405191826000825461386f816137ad565b908184526020946001916001811690816000146138df57506001146138a0575b50505061389e9250038361383b565b565b600090815285812095935091905b8183106138c757505061389e935082010138808061388f565b855488840185015294850194879450918301916138ae565b9250505061389e94925060ff191682840152151560051b82010138808061388f565b919082519283825260005b84811061392d575050826000602080949584010152601f8019910116010190565b60208183018101518483018201520161390c565b600435906001600160a01b038216820361395757565b600080fd5b602435906001600160a01b038216820361395757565b9181601f84011215613957578235916001600160401b038311613957576020838186019501011161395757565b90815180825260208080930193019160005b8281106139bf575050505090565b8351855293810193928101926001016139b1565b9181601f84011215613957578235916001600160401b038311613957576020808501948460051b01011161395757565b8054821015613a1b5760005260206000200190600090565b634e487b7160e01b600052603260045260246000fd5b9060068210156116585752565b606090600319011261395757600435906024359060443590565b90816020910312613957575180151581036139575790565b15613a7757565b60405162461bcd60e51b815260206004820152600f60248201526e151c985b9cd9995c8819985a5b1959608a1b6044820152606490fd5b919082018092116105ec57565b60001981146105ec5760010190565b9291926001600160401b038211610cc85760405191613af3601f8201601f19166020018461383b565b829481845281830111613957578281602093846000960137010152565b818110613b1b575050565b60008155600101613b10565b90601f8111613b34575050565b61389e91600052601f6020600020910160051c810190613b10565b9190601f8111613b5e57505050565b61389e926000526020600020906020601f840160051c83019310613b8a575b601f0160051c0190613b10565b9091508190613b7d565b600160401b8211610cc857805491808255828110613bb157505050565b60009182526020906020832093840193015b838110613bd05750505050565b8083613bde600193546137ad565b80613bec575b505001613bc3565b601f8082118514613c0357505081555b8338613be4565b613c1c90848452868420920160051c8201858301613b10565b81835555613bfc565b8054600160401b811015610cc857613c4291600182018155613a03565b819291549060031b91821b91600019901b1916179055565b908060209392818452848401376000828201840152601f01601f1916010190565b6001600160401b038111610cc85760051b60200190565b90604051918281549182825260209260208301916000526020600020936000905b828210613cc95750505061389e9250038361383b565b855484526001958601958895509381019390910190613cb3565b15613cea57565b60405162461bcd60e51b8152602060048201526009602482015268139bdd08199bdd5b9960ba1b6044820152606490fd5b15613d2257565b60405162461bcd60e51b815260206004820152600d60248201526c151e5c19481c995c5d5a5c9959609a1b6044820152606490fd5b15613d5e57565b60405162461bcd60e51b815260206004820152600d60248201526c12185cda081c995c5d5a5c9959609a1b6044820152606490fd5b919082039182116105ec57565b9060068110156116585760ff80198354169116179055565b600260015414613dc9576002600155565b604051633ee5aeb560e01b8152600490fd5b60ff60025416613de757565b60405163d93c066560e01b8152600490fd5b3360009081527f0d2d6a5d08cb5d871289c0a3ca855d9da72909a111c24cce2d5c2b34a20daa5460205260409020547f59a1c48e5837ad7a7f3dcedcbe129bf3249ec4fbf651fd4f5e2600ead39fe2f59060ff161561067e5750565b3360009081527fad3228b676f7d3cd4284a5443f17f1962b36e491b30a40b2405849e597ba5fb5602052604081205460ff161561067e5750565b3360009081527fe5acc2bb32c49c33bbef2e3575d02ef9de1d6d7eaad8b7a8b20b2ad528b8d6fb60205260409020547f9c4e6fd68fbdec6e3075ec7bfba710532af019aea93f5f59ebfe5a9d1a0b894e9060ff161561067e5750565b80600052600060205260406000203360005260205260ff604060002054161561067e5750565b9060009180835282602052604083209160018060a01b03169182845260205260ff60408420541615600014613f8a57808352826020526040832082845260205260408320600160ff198254161790557f2f8788117e7eff1d82e926ec794901d17c78024a50270940304540a733656f0d339380a4600190565b505090565b9060009180835282602052604083209160018060a01b03169182845260205260ff604084205416600014613f8a5780835282602052604083208284526020526040832060ff1981541690557ff6391f5c32d9c69d2a47ea670b442974b53935d1edc7fd64eb21e047a839171b339380a460019056fea2646970667358221220f6780c5ac515919bcb6ea3de4de12975196bce6d2107e68356469ed76514b89064736f6c634300081600332f8788117e7eff1d82e926ec794901d17c78024a50270940304540a733656f0d",
  "linkReferences": {},
  "deployedLinkReferences": {}
}