{
  "_format": "hh-sol-artifact-1",
  "contractName": "KaiLaw",
  "sourceName": "contracts/pillars/KaiLaw.sol",
  "abi": [
    {
      "inputs": [
        {
          "internalType": "address",
          "name": "_kaiToken",
          "type": "address"
        },
        {
          "internalType": "address",
          "name": "admin",
          "type": "address"
        }
      ],
      "stateMutability": "nonpayable",
      "type": "constructor"
    },
    {
      "inputs": [],
      "name": "AccessControlBadConfirmation",
      "type": "error"
    },
    {
      "inputs": [
        {
          "internalType": "address",
          "name": "account",
          "type": "address"
        },
        {
          "internalType": "bytes32",
          "name": "neededRole",
          "type": "bytes32"
        }
      ],
      "name": "AccessControlUnauthorizedAccount",
      "type": "error"
    },
    {
      "inputs": [],
      "name": "EnforcedPause",
      "type": "error"
    },
    {
      "inputs": [],
      "name": "ExpectedPause",
      "type": "error"
    },
    {
      "inputs": [],
      "name": "ReentrancyGuardReentrantCall",
      "type": "error"
    },
    {
      "anonymous": false,
      "inputs": [
        {
          "indexed": true,
          "internalType": "uint256",
          "name": "auditId",
          "type": "uint256"
        },
        {
          "indexed": false,
          "internalType": "uint256",
          "name": "complianceScore",
          "type": "uint256"
        }
      ],
      "name": "AuditCompleted",
      "type": "event"
    },
    {
      "anonymous": false,
      "inputs": [
        {
          "indexed": true,
          "internalType": "uint256",
          "name": "auditId",
          "type": "uint256"
        },
        {
          "indexed": true,
          "internalType": "address",
          "name": "target",
          "type": "address"
        },
        {
          "indexed": false,
          "internalType": "string",
          "name": "auditType",
          "type": "string"
        }
      ],
      "name": "AuditRequested",
      "type": "event"
    },
    {
      "anonymous": false,
      "inputs": [
        {
          "indexed": true,
          "internalType": "uint256",
          "name": "caseId",
          "type": "uint256"
        },
        {
          "indexed": true,
          "internalType": "address",
          "name": "plaintiff",
          "type": "address"
        },
        {
          "indexed": true,
          "internalType": "address",
          "name": "defendant",
          "type": "address"
        }
      ],
      "name": "CaseFiled",
      "type": "event"
    },
    {
      "anonymous": false,
      "inputs": [
        {
          "indexed": true,
          "internalType": "uint256",
          "name": "caseId",
          "type": "uint256"
        },
        {
          "indexed": false,
          "internalType": "string",
          "name": "ruling",
          "type": "string"
        },
        {
          "indexed": false,
          "internalType": "uint256",
          "name": "penalty",
          "type": "uint256"
        }
      ],
      "name": "CaseResolved",
      "type": "event"
    },
    {
      "anonymous": false,
      "inputs": [
        {
          "indexed": true,
          "internalType": "uint256",
          "name": "caseId",
          "type": "uint256"
        },
        {
          "indexed": false,
          "internalType": "enum KaiLaw.CaseStatus",
          "name": "status",
          "type": "uint8"
        }
      ],
      "name": "CaseStatusUpdated",
      "type": "event"
    },
    {
      "anonymous": false,
      "inputs": [
        {
          "indexed": true,
          "internalType": "uint256",
          "name": "evidenceId",
          "type": "uint256"
        },
        {
          "indexed": true,
          "internalType": "address",
          "name": "submitter",
          "type": "address"
        },
        {
          "indexed": false,
          "internalType": "string",
          "name": "evidenceType",
          "type": "string"
        }
      ],
      "name": "EvidenceSubmitted",
      "type": "event"
    },
    {
      "anonymous": false,
      "inputs": [
        {
          "indexed": true,
          "internalType": "uint256",
          "name": "evidenceId",
          "type": "uint256"
        },
        {
          "indexed": false,
          "internalType": "bool",
          "name": "verified",
          "type": "bool"
        }
      ],
      "name": "EvidenceVerified",
      "type": "event"
    },
    {
      "anonymous": false,
      "inputs": [
        {
          "indexed": false,
          "internalType": "address",
          "name": "account",
          "type": "address"
        }
      ],
      "name": "Paused",
      "type": "event"
    },
    {
      "anonymous": false,
      "inputs": [
        {
          "indexed": true,
          "internalType": "address",
          "name": "violator",
          "type": "address"
        },
        {
          "indexed": false,
          "internalType": "uint256",
          "name": "amount",
          "type": "uint256"
        },
        {
          "indexed": false,
          "internalType": "uint256",
          "name": "caseId",
          "type": "uint256"
        }
      ],
      "name": "PenaltyCollected",
      "type": "event"
    },
    {
      "anonymous": false,
      "inputs": [
        {
          "indexed": true,
          "internalType": "bytes32",
          "name": "role",
          "type": "bytes32"
        },
        {
          "indexed": true,
          "internalType": "bytes32",
          "name": "previousAdminRole",
          "type": "bytes32"
        },
        {
          "indexed": true,
          "internalType": "bytes32",
          "name": "newAdminRole",
          "type": "bytes32"
        }
      ],
      "name": "RoleAdminChanged",
      "type": "event"
    },
    {
      "anonymous": false,
      "inputs": [
        {
          "indexed": true,
          "internalType": "bytes32",
          "name": "role",
          "type": "bytes32"
        },
        {
          "indexed": true,
          "internalType": "address",
          "name": "account",
          "type": "address"
        },
        {
          "indexed": true,
          "internalType": "address",
          "name": "sender",
          "type": "address"
        }
      ],
      "name": "RoleGranted",
      "type": "event"
    },
    {
      "anonymous": false,
      "inputs": [
        {
          "indexed": true,
          "internalType": "bytes32",
          "name": "role",
          "type": "bytes32"
        },
        {
          "indexed": true,
          "internalType": "address",
          "name": "account",
          "type": "address"
        },
        {
          "indexed": true,
          "internalType": "address",
          "name": "sender",
          "type": "address"
        }
      ],
      "name": "RoleRevoked",
      "type": "event"
    },
    {
      "anonymous": false,
      "inputs": [
        {
          "indexed": false,
          "internalType": "address",
          "name": "account",
          "type": "address"
        }
      ],
      "name": "Unpaused",
      "type": "event"
    },
    {
      "anonymous": false,
      "inputs": [
        {
          "indexed": true,
          "internalType": "uint256",
          "name": "reportId",
          "type": "uint256"
        },
        {
          "indexed": false,
          "internalType": "string",
          "name": "reportType",
          "type": "string"
        }
      ],
      "name": "WhistleblowerReportFiled",
      "type": "event"
    },
    {
      "anonymous": false,
      "inputs": [
        {
          "indexed": true,
          "internalType": "uint256",
          "name": "reportId",
          "type": "uint256"
        },
        {
          "indexed": true,
          "internalType": "address",
          "name": "reporter",
          "type": "address"
        },
        {
          "indexed": false,
          "internalType": "uint256",
          "name": "amount",
          "type": "uint256"
        }
      ],
      "name": "WhistleblowerRewarded",
      "type": "event"
    },
    {
      "inputs": [],
      "name": "AUDITOR_ROLE",
      "outputs": [
        {
          "internalType": "bytes32",
          "name": "",
          "type": "bytes32"
        }
      ],
      "stateMutability": "view",
      "type": "function"
    },
    {
      "inputs": [],
      "name": "DEFAULT_ADMIN_ROLE",
      "outputs": [
        {
          "internalType": "bytes32",
          "name": "",
          "type": "bytes32"
        }
      ],
      "stateMutability": "view",
      "type": "function"
    },
    {
      "inputs": [],
      "name": "ENFORCER_ROLE",
      "outputs": [
        {
          "internalType": "bytes32",
          "name": "",
          "type": "bytes32"
        }
      ],
      "stateMutability": "view",
      "type": "function"
    },
    {
      "inputs": [],
      "name": "JUDGE_ROLE",
      "outputs": [
        {
          "internalType": "bytes32",
          "name": "",
          "type": "bytes32"
        }
      ],
      "stateMutability": "view",
      "type": "function"
    },
    {
      "inputs": [],
      "name": "auditCount",
      "outputs": [
        {
          "internalType": "uint256",
          "name": "",
          "type": "uint256"
        }
      ],
      "stateMutability": "view",
      "type": "function"
    },
    {
      "inputs": [],
      "name": "auditRequestFee",
      "outputs": [
        {
          "internalType": "uint256",
          "name": "",
          "type": "uint256"
        }
      ],
      "stateMutability": "view",
      "type": "function"
    },
    {
      "inputs": [
        {
          "internalType": "uint256",
          "name": "",
          "type": "uint256"
        }
      ],
      "name": "audits",
      "outputs": [
        {
          "internalType": "uint256",
          "name": "id",
          "type": "uint256"
        },
        {
          "internalType": "address",
          "name": "requester",
          "type": "address"
        },
        {
          "internalType": "address",
          "name": "target",
          "type": "address"
        },
        {
          "internalType": "string",
          "name": "auditType",
          "type": "string"
        },
        {
          "internalType": "uint256",
          "name": "requestedAt",
          "type": "uint256"
        },
        {
          "internalType": "uint256",
          "name": "completedAt",
          "type": "uint256"
        },
        {
          "internalType": "bytes32",
          "name": "reportHash",
          "type": "bytes32"
        },
        {
          "internalType": "uint256",
          "name": "complianceScore",
          "type": "uint256"
        },
        {
          "internalType": "bool",
          "name": "completed",
          "type": "bool"
        }
      ],
      "stateMutability": "view",
      "type": "function"
    },
    {
      "inputs": [],
      "name": "caseCount",
      "outputs": [
        {
          "internalType": "uint256",
          "name": "",
          "type": "uint256"
        }
      ],
      "stateMutability": "view",
      "type": "function"
    },
    {
      "inputs": [
        {
          "internalType": "uint256",
          "name": "",
          "type": "uint256"
        }
      ],
      "name": "cases",
      "outputs": [
        {
          "internalType": "uint256",
          "name": "id",
          "type": "uint256"
        },
        {
          "internalType": "address",
          "name": "plaintiff",
          "type": "address"
        },
        {
          "internalType": "address",
          "name": "defendant",
          "type": "address"
        },
        {
          "internalType": "string",
          "name": "caseType",
          "type": "string"
        },
        {
          "internalType": "string",
          "name": "jurisdiction",
          "type": "string"
        },
        {
          "internalType": "uint256",
          "name": "filedAt",
          "type": "uint256"
        },
        {
          "internalType": "uint256",
          "name": "resolvedAt",
          "type": "uint256"
        },
        {
          "internalType": "enum KaiLaw.CaseStatus",
          "name": "status",
          "type": "uint8"
        },
        {
          "internalType": "string",
          "name": "ruling",
          "type": "string"
        },
        {
          "internalType": "uint256",
          "name": "penaltyAmount",
          "type": "uint256"
        }
      ],
      "stateMutability": "view",
      "type": "function"
    },
    {
      "inputs": [
        {
          "internalType": "uint256",
          "name": "caseId",
          "type": "uint256"
        }
      ],
      "name": "collectPenalty",
      "outputs": [],
      "stateMutability": "nonpayable",
      "type": "function"
    },
    {
      "inputs": [
        {
          "internalType": "uint256",
          "name": "auditId",
          "type": "uint256"
        },
        {
          "internalType": "bytes32",
          "name": "reportHash",
          "type": "bytes32"
        },
        {
          "internalType": "uint256",
          "name": "complianceScore",
          "type": "uint256"
        },
        {
          "internalType": "string[]",
          "name": "violations",
          "type": "string[]"
        }
      ],
      "name": "completeAudit",
      "outputs": [],
      "stateMutability": "nonpayable",
      "type": "function"
    },
    {
      "inputs": [
        {
          "internalType": "address",
          "name": "",
          "type": "address"
        }
      ],
      "name": "complianceRecords",
      "outputs": [
        {
          "internalType": "address",
          "name": "entity",
          "type": "address"
        },
        {
          "internalType": "string",
          "name": "entityType",
          "type": "string"
        },
        {
          "internalType": "uint256",
          "name": "totalAudits",
          "type": "uint256"
        },
        {
          "internalType": "uint256",
          "name": "totalViolations",
          "type": "uint256"
        },
        {
          "internalType": "uint256",
          "name": "totalPenaltiesPaid",
          "type": "uint256"
        },
        {
          "internalType": "uint256",
          "name": "lastAuditAt",
          "type": "uint256"
        },
        {
          "internalType": "uint256",
          "name": "complianceScore",
          "type": "uint256"
        },
        {
          "internalType": "bool",
          "name": "blacklisted",
          "type": "bool"
        }
      ],
      "stateMutability": "view",
      "type": "function"
    },
    {
      "inputs": [
        {
          "internalType": "uint256",
          "name": "amount",
          "type": "uint256"
        }
      ],
      "name": "depositToFund",
      "outputs": [],
      "stateMutability": "nonpayable",
      "type": "function"
    },
    {
      "inputs": [
        {
          "internalType": "uint256",
          "name": "evidenceId",
          "type": "uint256"
        }
      ],
      "name": "disputeEvidence",
      "outputs": [],
      "stateMutability": "nonpayable",
      "type": "function"
    },
    {
      "inputs": [],
      "name": "enforcementFund",
      "outputs": [
        {
          "internalType": "uint256",
          "name": "",
          "type": "uint256"
        }
      ],
      "stateMutability": "view",
      "type": "function"
    },
    {
      "inputs": [
        {
          "internalType": "address",
          "name": "",
          "type": "address"
        },
        {
          "internalType": "uint256",
          "name": "",
          "type": "uint256"
        }
      ],
      "name": "entityAudits",
      "outputs": [
        {
          "internalType": "uint256",
          "name": "",
          "type": "uint256"
        }
      ],
      "stateMutability": "view",
      "type": "function"
    },
    {
      "inputs": [
        {
          "internalType": "address",
          "name": "",
          "type": "address"
        },
        {
          "internalType": "uint256",
          "name": "",
          "type": "uint256"
        }
      ],
      "name": "entityCases",
      "outputs": [
        {
          "internalType": "uint256",
          "name": "",
          "type": "uint256"
        }
      ],
      "stateMutability": "view",
      "type": "function"
    },
    {
      "inputs": [],
      "name": "evidenceCount",
      "outputs": [
        {
          "internalType": "uint256",
          "name": "",
          "type": "uint256"
        }
      ],
      "stateMutability": "view",
      "type": "function"
    },
    {
      "inputs": [
        {
          "internalType": "bytes32",
          "name": "",
          "type": "bytes32"
        }
      ],
      "name": "evidenceHashes",
      "outputs": [
        {
          "internalType": "bool",
          "name": "",
          "type": "bool"
        }
      ],
      "stateMutability": "view",
      "type": "function"
    },
    {
      "inputs": [
        {
          "internalType": "uint256",
          "name": "",
          "type": "uint256"
        }
      ],
      "name": "evidenceRegistry",
      "outputs": [
        {
          "internalType": "uint256",
          "name": "id",
          "type": "uint256"
        },
        {
          "internalType": "address",
          "name": "submitter",
          "type": "address"
        },
        {
          "internalType": "string",
          "name": "evidenceType",
          "type": "string"
        },
        {
          "internalType": "bytes32",
          "name": "contentHash",
          "type": "bytes32"
        },
        {
          "internalType": "bytes32",
          "name": "metadataHash",
          "type": "bytes32"
        },
        {
          "internalType": "uint256",
          "name": "timestamp",
          "type": "uint256"
        },
        {
          "internalType": "string",
          "name": "region",
          "type": "string"
        },
        {
          "internalType": "string",
          "name": "category",
          "type": "string"
        },
        {
          "internalType": "bool",
          "name": "verified",
          "type": "bool"
        },
        {
          "internalType": "bool",
          "name": "disputed",
          "type": "bool"
        }
      ],
      "stateMutability": "view",
      "type": "function"
    },
    {
      "inputs": [],
      "name": "evidenceSubmissionFee",
      "outputs": [
        {
          "internalType": "uint256",
          "name": "",
          "type": "uint256"
        }
      ],
      "stateMutability": "view",
      "type": "function"
    },
    {
      "inputs": [
        {
          "internalType": "address",
          "name": "defendant",
          "type": "address"
        },
        {
          "internalType": "string",
          "name": "caseType",
          "type": "string"
        },
        {
          "internalType": "string",
          "name": "jurisdiction",
          "type": "string"
        },
        {
          "internalType": "uint256[]",
          "name": "evidenceIds",
          "type": "uint256[]"
        }
      ],
      "name": "fileCase",
      "outputs": [
        {
          "internalType": "uint256",
          "name": "",
          "type": "uint256"
        }
      ],
      "stateMutability": "nonpayable",
      "type": "function"
    },
    {
      "inputs": [
        {
          "internalType": "string",
          "name": "reportType",
          "type": "string"
        },
        {
          "internalType": "string",
          "name": "region",
          "type": "string"
        },
        {
          "internalType": "bytes32",
          "name": "contentHash",
          "type": "bytes32"
        }
      ],
      "name": "fileWhistleblowerReport",
      "outputs": [
        {
          "internalType": "uint256",
          "name": "",
          "type": "uint256"
        }
      ],
      "stateMutability": "nonpayable",
      "type": "function"
    },
    {
      "inputs": [
        {
          "internalType": "uint256",
          "name": "auditId",
          "type": "uint256"
        }
      ],
      "name": "getAudit",
      "outputs": [
        {
          "components": [
            {
              "internalType": "uint256",
              "name": "id",
              "type": "uint256"
            },
            {
              "internalType": "address",
              "name": "requester",
              "type": "address"
            },
            {
              "internalType": "address",
              "name": "target",
              "type": "address"
            },
            {
              "internalType": "string",
              "name": "auditType",
              "type": "string"
            },
            {
              "internalType": "uint256",
              "name": "requestedAt",
              "type": "uint256"
            },
            {
              "internalType": "uint256",
              "name": "completedAt",
              "type": "uint256"
            },
            {
              "internalType": "bytes32",
              "name": "reportHash",
              "type": "bytes32"
            },
            {
              "internalType": "uint256",
              "name": "complianceScore",
              "type": "uint256"
            },
            {
              "internalType": "string[]",
              "name": "violations",
              "type": "string[]"
            },
            {
              "internalType": "bool",
              "name": "completed",
              "type": "bool"
            }
          ],
          "internalType": "struct KaiLaw.Audit",
          "name": "",
          "type": "tuple"
        }
      ],
      "stateMutability": "view",
      "type": "function"
    },
    {
      "inputs": [
        {
          "internalType": "uint256",
          "name": "caseId",
          "type": "uint256"
        }
      ],
      "name": "getCase",
      "outputs": [
        {
          "components": [
            {
              "internalType": "uint256",
              "name": "id",
              "type": "uint256"
            },
            {
              "internalType": "address",
              "name": "plaintiff",
              "type": "address"
            },
            {
              "internalType": "address",
              "name": "defendant",
              "type": "address"
            },
            {
              "internalType": "string",
              "name": "caseType",
              "type": "string"
            },
            {
              "internalType": "string",
              "name": "jurisdiction",
              "type": "string"
            },
            {
              "internalType": "uint256[]",
              "name": "evidenceIds",
              "type": "uint256[]"
            },
            {
              "internalType": "uint256",
              "name": "filedAt",
              "type": "uint256"
            },
            {
              "internalType": "uint256",
              "name": "resolvedAt",
              "type": "uint256"
            },
            {
              "internalType": "enum KaiLaw.CaseStatus",
              "name": "status",
              "type": "uint8"
            },
            {
              "internalType": "string",
              "name": "ruling",
              "type": "string"
            },
            {
              "internalType": "uint256",
              "name": "penaltyAmount",
              "type": "uint256"
            }
          ],
          "internalType": "struct KaiLaw.LegalCase",
          "name": "",
          "type": "tuple"
        }
      ],
      "stateMutability": "view",
      "type": "function"
    },
    {
      "inputs": [
        {
          "internalType": "address",
          "name": "entity",
          "type": "address"
        }
      ],
      "name": "getComplianceRecord",
      "outputs": [
        {
          "components": [
            {
              "internalType": "address",
              "name": "entity",
              "type": "address"
            },
            {
              "internalType": "string",
              "name": "entityType",
              "type": "string"
            },
            {
              "internalType": "uint256",
              "name": "totalAudits",
              "type": "uint256"
            },
            {
              "internalType": "uint256",
              "name": "totalViolations",
              "type": "uint256"
            },
            {
              "internalType": "uint256",
              "name": "totalPenaltiesPaid",
              "type": "uint256"
            },
            {
              "internalType": "uint256",
              "name": "lastAuditAt",
              "type": "uint256"
            },
            {
              "internalType": "uint256",
              "name": "complianceScore",
              "type": "uint256"
            },
            {
              "internalType": "bool",
              "name": "blacklisted",
              "type": "bool"
            }
          ],
          "internalType": "struct KaiLaw.ComplianceRecord",
          "name": "",
          "type": "tuple"
        }
      ],
      "stateMutability": "view",
      "type": "function"
    },
    {
      "inputs": [
        {
          "internalType": "address",
          "name": "entity",
          "type": "address"
        }
      ],
      "name": "getEntityCases",
      "outputs": [
        {
          "internalType": "uint256[]",
          "name": "",
          "type": "uint256[]"
        }
      ],
      "stateMutability": "view",
      "type": "function"
    },
    {
      "inputs": [
        {
          "internalType": "uint256",
          "name": "evidenceId",
          "type": "uint256"
        }
      ],
      "name": "getEvidence",
      "outputs": [
        {
          "components": [
            {
              "internalType": "uint256",
              "name": "id",
              "type": "uint256"
            },
            {
              "internalType": "address",
              "name": "submitter",
              "type": "address"
            },
            {
              "internalType": "string",
              "name": "evidenceType",
              "type": "string"
            },
            {
              "internalType": "bytes32",
              "name": "contentHash",
              "type": "bytes32"
            },
            {
              "internalType": "bytes32",
              "name": "metadataHash",
              "type": "bytes32"
            },
            {
              "internalType": "uint256",
              "name": "timestamp",
              "type": "uint256"
            },
            {
              "internalType": "string",
              "name": "region",
              "type": "string"
            },
            {
              "internalType": "string",
              "name": "category",
              "type": "string"
            },
            {
              "internalType": "bool",
              "name": "verified",
              "type": "bool"
            },
            {
              "internalType": "bool",
              "name": "disputed",
              "type": "bool"
            }
          ],
          "internalType": "struct KaiLaw.Evidence",
          "name": "",
          "type": "tuple"
        }
      ],
      "stateMutability": "view",
      "type": "function"
    },
    {
      "inputs": [
        {
          "internalType": "bytes32",
          "name": "role",
          "type": "bytes32"
        }
      ],
      "name": "getRoleAdmin",
      "outputs": [
        {
          "internalType": "bytes32",
          "name": "",
          "type": "bytes32"
        }
      ],
      "stateMutability": "view",
      "type": "function"
    },
    {
      "inputs": [
        {
          "internalType": "uint256",
          "name": "reportId",
          "type": "uint256"
        }
      ],
      "name": "getWhistleblowerReport",
      "outputs": [
        {
          "components": [
            {
              "internalType": "uint256",
              "name": "id",
              "type": "uint256"
            },
            {
              "internalType": "address",
              "name": "reporter",
              "type": "address"
            },
            {
              "internalType": "string",
              "name": "reportType",
              "type": "string"
            },
            {
              "internalType": "string",
              "name": "region",
              "type": "string"
            },
            {
              "internalType": "bytes32",
              "name": "contentHash",
              "type": "bytes32"
            },
            {
              "internalType": "uint256",
              "name": "timestamp",
              "type": "uint256"
            },
            {
              "internalType": "bool",
              "name": "verified",
              "type": "bool"
            },
            {
              "internalType": "bool",
              "name": "rewarded",
              "type": "bool"
            },
            {
              "internalType": "uint256",
              "name": "rewardAmount",
              "type": "uint256"
            },
            {
              "internalType": "uint256",
              "name": "linkedCaseId",
              "type": "uint256"
            }
          ],
          "internalType": "struct KaiLaw.WhistleblowerReport",
          "name": "",
          "type": "tuple"
        }
      ],
      "stateMutability": "view",
      "type": "function"
    },
    {
      "inputs": [
        {
          "internalType": "bytes32",
          "name": "role",
          "type": "bytes32"
        },
        {
          "internalType": "address",
          "name": "account",
          "type": "address"
        }
      ],
      "name": "grantRole",
      "outputs": [],
      "stateMutability": "nonpayable",
      "type": "function"
    },
    {
      "inputs": [
        {
          "internalType": "bytes32",
          "name": "role",
          "type": "bytes32"
        },
        {
          "internalType": "address",
          "name": "account",
          "type": "address"
        }
      ],
      "name": "hasRole",
      "outputs": [
        {
          "internalType": "bool",
          "name": "",
          "type": "bool"
        }
      ],
      "stateMutability": "view",
      "type": "function"
    },
    {
      "inputs": [],
      "name": "kaiToken",
      "outputs": [
        {
          "internalType": "contract KAIToken",
          "name": "",
          "type": "address"
        }
      ],
      "stateMutability": "view",
      "type": "function"
    },
    {
      "inputs": [],
      "name": "maxPenalty",
      "outputs": [
        {
          "internalType": "uint256",
          "name": "",
          "type": "uint256"
        }
      ],
      "stateMutability": "view",
      "type": "function"
    },
    {
      "inputs": [],
      "name": "minPenalty",
      "outputs": [
        {
          "internalType": "uint256",
          "name": "",
          "type": "uint256"
        }
      ],
      "stateMutability": "view",
      "type": "function"
    },
    {
      "inputs": [],
      "name": "pause",
      "outputs": [],
      "stateMutability": "nonpayable",
      "type": "function"
    },
    {
      "inputs": [],
      "name": "paused",
      "outputs": [
        {
          "internalType": "bool",
          "name": "",
          "type": "bool"
        }
      ],
      "stateMutability": "view",
      "type": "function"
    },
    {
      "inputs": [
        {
          "internalType": "address",
          "name": "entity",
          "type": "address"
        }
      ],
      "name": "removeBlacklist",
      "outputs": [],
      "stateMutability": "nonpayable",
      "type": "function"
    },
    {
      "inputs": [
        {
          "internalType": "bytes32",
          "name": "role",
          "type": "bytes32"
        },
        {
          "internalType": "address",
          "name": "callerConfirmation",
          "type": "address"
        }
      ],
      "name": "renounceRole",
      "outputs": [],
      "stateMutability": "nonpayable",
      "type": "function"
    },
    {
      "inputs": [],
      "name": "reportCount",
      "outputs": [
        {
          "internalType": "uint256",
          "name": "",
          "type": "uint256"
        }
      ],
      "stateMutability": "view",
      "type": "function"
    },
    {
      "inputs": [
        {
          "internalType": "address",
          "name": "target",
          "type": "address"
        },
        {
          "internalType": "string",
          "name": "auditType",
          "type": "string"
        }
      ],
      "name": "requestAudit",
      "outputs": [
        {
          "internalType": "uint256",
          "name": "",
          "type": "uint256"
        }
      ],
      "stateMutability": "nonpayable",
      "type": "function"
    },
    {
      "inputs": [
        {
          "internalType": "uint256",
          "name": "caseId",
          "type": "uint256"
        },
        {
          "internalType": "string",
          "name": "ruling",
          "type": "string"
        },
        {
          "internalType": "uint256",
          "name": "penaltyAmount",
          "type": "uint256"
        }
      ],
      "name": "resolveCase",
      "outputs": [],
      "stateMutability": "nonpayable",
      "type": "function"
    },
    {
      "inputs": [
        {
          "internalType": "bytes32",
          "name": "role",
          "type": "bytes32"
        },
        {
          "internalType": "address",
          "name": "account",
          "type": "address"
        }
      ],
      "name": "revokeRole",
      "outputs": [],
      "stateMutability": "nonpayable",
      "type": "function"
    },
    {
      "inputs": [
        {
          "internalType": "uint256",
          "name": "evidenceFee",
          "type": "uint256"
        },
        {
          "internalType": "uint256",
          "name": "auditFee",
          "type": "uint256"
        },
        {
          "internalType": "uint256",
          "name": "whistleblowerReward",
          "type": "uint256"
        }
      ],
      "name": "setFees",
      "outputs": [],
      "stateMutability": "nonpayable",
      "type": "function"
    },
    {
      "inputs": [
        {
          "internalType": "uint256",
          "name": "min",
          "type": "uint256"
        },
        {
          "internalType": "uint256",
          "name": "max",
          "type": "uint256"
        }
      ],
      "name": "setPenaltyRange",
      "outputs": [],
      "stateMutability": "nonpayable",
      "type": "function"
    },
    {
      "inputs": [
        {
          "internalType": "string",
          "name": "evidenceType",
          "type": "string"
        },
        {
          "internalType": "bytes32",
          "name": "contentHash",
          "type": "bytes32"
        },
        {
          "internalType": "bytes32",
          "name": "metadataHash",
          "type": "bytes32"
        },
        {
          "internalType": "string",
          "name": "region",
          "type": "string"
        },
        {
          "internalType": "string",
          "name": "category",
          "type": "string"
        }
      ],
      "name": "submitEvidence",
      "outputs": [
        {
          "internalType": "uint256",
          "name": "",
          "type": "uint256"
        }
      ],
      "stateMutability": "nonpayable",
      "type": "function"
    },
    {
      "inputs": [
        {
          "internalType": "bytes4",
          "name": "interfaceId",
          "type": "bytes4"
        }
      ],
      "name": "supportsInterface",
      "outputs": [
        {
          "internalType": "bool",
          "name": "",
          "type": "bool"
        }
      ],
      "stateMutability": "view",
      "type": "function"
    },
    {
      "inputs": [],
      "name": "totalPenaltiesCollected",
      "outputs": [
        {
          "internalType": "uint256",
          "name": "",
          "type": "uint256"
        }
      ],
      "stateMutability": "view",
      "type": "function"
    },
    {
      "inputs": [],
      "name": "totalWhistleblowerRewards",
      "outputs": [
        {
          "internalType": "uint256",
          "name": "",
          "type": "uint256"
        }
      ],
      "stateMutability": "view",
      "type": "function"
    },
    {
      "inputs": [],
      "name": "unpause",
      "outputs": [],
      "stateMutability": "nonpayable",
      "type": "function"
    },
    {
      "inputs": [
        {
          "internalType": "uint256",
          "name": "caseId",
          "type": "uint256"
        },
        {
          "internalType": "enum KaiLaw.CaseStatus",
          "name": "newStatus",
          "type": "uint8"
        }
      ],
      "name": "updateCaseStatus",
      "outputs": [],
      "stateMutability": "nonpayable",
      "type": "function"
    },
    {
      "inputs": [
        {
          "internalType": "uint256",
          "name": "reportId",
          "type": "uint256"
        },
        {
          "internalType": "uint256",
          "name": "linkedCaseId",
          "type": "uint256"
        },
        {
          "internalType": "uint256",
          "name": "rewardMultiplier",
          "type": "uint256"
        }
      ],
      "name": "verifyAndRewardWhistleblower",
      "outputs": [],
      "stateMutability": "nonpayable",
      "type": "function"
    },
    {
      "inputs": [
        {
          "internalType": "uint256",
          "name": "evidenceId",
          "type": "uint256"
        },
        {
          "internalType": "bool",
          "name": "isValid",
          "type": "bool"
        }
      ],
      "name": "verifyEvidence",
      "outputs": [],
      "stateMutability": "nonpayable",
      "type": "function"
    },
    {
      "inputs": [],
      "name": "whistleblowerBaseReward",
      "outputs": [
        {
          "internalType": "uint256",
          "name": "",
          "type": "uint256"
        }
      ],
      "stateMutability": "view",
      "type": "function"
    },
    {
      "inputs": [
        {
          "internalType": "uint256",
          "name": "",
          "type": "uint256"
        }
      ],
      "name": "whistleblowerReports",
      "outputs": [
        {
          "internalType": "uint256",
          "name": "id",
          "type": "uint256"
        },
        {
          "internalType": "address",
          "name": "reporter",
          "type": "address"
        },
        {
          "internalType": "string",
          "name": "reportType",
          "type": "string"
        },
        {
          "internalType": "string",
          "name": "region",
          "type": "string"
        },
        {
          "internalType": "bytes32",
          "name": "contentHash",
          "type": "bytes32"
        },
        {
          "internalType": "uint256",
          "name": "timestamp",
          "type": "uint256"
        },
        {
          "internalType": "bool",
          "name": "verified",
          "type": "bool"
        },
        {
          "internalType": "bool",
          "name": "rewarded",
          "type": "bool"
        },
        {
          "internalType": "uint256",
          "name": "rewardAmount",
          "type": "uint256"
        },
        {
          "internalType": "uint256",
          "name": "linkedCaseId",
          "type": "uint256"
        }
      ],
      "stateMutability": "view",
      "type": "function"
    }
  ],
  "bytecode": "0x60a0346200018b57601f6200449d38819003918201601f19168301916001600160401b03831184841017620001905780849260409485528339810103126200018b576200005a60206200005283620001a6565b9201620001a6565b60018055678ac7230489e8000060035568056bc75e2d631000006004819055681b1ae4d6e2ef50000060055560065569152d02c7e14af68000006007556001600160a01b0391821691821562000156578116156200012157620000e491608052620000c581620001bb565b50620000d1816200023b565b50620000dd81620002dd565b506200037a565b50604051614065908162000418823960805181818161054c015281816116b3015281816119a8015281816121470152818161252101526132770152f35b60405162461bcd60e51b815260206004820152600d60248201526c24b73b30b634b21030b236b4b760991b6044820152606490fd5b60405162461bcd60e51b815260206004820152600d60248201526c24b73b30b634b2103a37b5b2b760991b6044820152606490fd5b600080fd5b634e487b7160e01b600052604160045260246000fd5b51906001600160a01b03821682036200018b57565b6001600160a01b031660008181527fad3228b676f7d3cd4284a5443f17f1962b36e491b30a40b2405849e597ba5fb5602052604081205490919060ff166200023757818052816020526040822081835260205260408220600160ff1982541617905533916000805160206200447d8339815191528180a4600190565b5090565b6001600160a01b031660008181527f0d2d6a5d08cb5d871289c0a3ca855d9da72909a111c24cce2d5c2b34a20daa5460205260408120549091907f59a1c48e5837ad7a7f3dcedcbe129bf3249ec4fbf651fd4f5e2600ead39fe2f59060ff16620002d857808352826020526040832082845260205260408320600160ff198254161790556000805160206200447d833981519152339380a4600190565b505090565b6001600160a01b031660008181527fe5acc2bb32c49c33bbef2e3575d02ef9de1d6d7eaad8b7a8b20b2ad528b8d6fb60205260408120549091907f9c4e6fd68fbdec6e3075ec7bfba710532af019aea93f5f59ebfe5a9d1a0b894e9060ff16620002d857808352826020526040832082845260205260408320600160ff198254161790556000805160206200447d833981519152339380a4600190565b6001600160a01b031660008181527f7a750cd587acda5aa56e770cbf6d76832999225f755bb1b14d0fb5323840765a60205260408120549091907f973ef39d76cc2c6090feab1c030bec6ab5db557f64df047a4c4f9b5953cf1df39060ff16620002d857808352826020526040832082845260205260408320600160ff198254161790556000805160206200447d833981519152339380a460019056fe608080604052600436101561001357600080fd5b600090813560e01c908163016e33b1146137be5750806301ffc9a7146137675780630be2e192146137495780630eba98491461372b57806310e9173a1461366157806314372e47146131e957806317bf37a314612fba578063185c6f8414612f9c57806319a10a5914612f49578063202f6ce614612c535780632090be3814612c0b578063248a9ca314612bdf57806326b5504614612b575780632b28d3a8146127c65780632b85fc991461271f5780632c0f5ce3146125935780632c7c5487146124d25780632f2ff15d1461249557806336568abe1461244d57806338f38ed2146123e75780633f4ba83a1461237c57806345c1b8041461234d578063483a6ff5146120c15780634a37ecb5146120a3578063513a821114611f745780635200e79e14611f565780635c975abb14611f335780636439fd7514611ef85780636e1d616e14611ebd57806372c60ebb14611e9f57806374c24925146118c15780637eaacdb0146118a35780638456cb59146118485780638a9f557d1461182a5780638c9c1f79146117ae5780638ca767ae1461172d57806391d14854146116e25780639bcfdfc01461169d578063a217fddf14611681578063a2ed5af014611663578063a91a10801461145f578063b60e73db146113b2578063bec181c414611394578063c3ebb52b146112b6578063c956f1431461110f578063cec10c11146110eb578063cf5da30f14610e07578063d547741f14610dc6578063d6c9e9af146106f5578063da2d7e95146106d7578063e0e475881461069c578063e1ecc25514610402578063eb91e651146103be578063f09790dd146102d65763f374309f1461027e57600080fd5b346102d35760403660031901126102d35761029761396f565b6001600160a01b03168152600e60205260408120805460243592908310156102d35760206102c58484613a31565b90546040519160031b1c8152f35b80fd5b50346102d35760203660031901126102d3576040602091600435815260098352208054906103b360018060a01b03918260018201541692600282015416906103a561032360038301613889565b9261033060048401613889565b9361039060068501549561038260078701549360ff60088901541695600a61035a60098b01613889565b9901549b6040519e8f9e8f908152015260408d015260608c61014091829101528c019061392f565b908a820360808c015261392f565b9460a089015260c088015260e0870190613a5f565b84820361010086015261392f565b906101208301520390f35b50346102d35760203660031901126102d3576103d861396f565b6103e0613ae2565b6001600160a01b03168152600c60205260408120600701805460ff1916905580f35b50346102d35761041136613a6c565b3360009081527f7a750cd587acda5aa56e770cbf6d76832999225f755bb1b14d0fb5323840765a602090815260409091205491939290917f973ef39d76cc2c6090feab1c030bec6ab5db557f64df047a4c4f9b5953cf1df39060ff161561067e575061047b613e84565b600184101580610673575b1561063957828552600b8252604085206104a281541515613ea7565b6006810191825460ff8160081c166106015760ff1916600117835560088201556005548581029581159187041417156105eb5760145491858310156104ea575b866001805580f35b6104f686600194613f43565b60145585600783015561010061ff001982541617905561051885601654613d5f565b60165501805460405163a9059cbb60e01b81526001600160a01b03918216600482015260248101869052929182846044818a7f000000000000000000000000000000000000000000000000000000000000000087165af19384156105e0577f6fb9f5265e1d167cfa0a11603d6085232fdcdd7bf10ac4d88bc9c0921af7e695946105b3575b50541693604051908152a33880808080806104e2565b6105d290843d86116105d9575b6105ca8183613868565b810190613d09565b503861059d565b503d6105c0565b6040513d89823e3d90fd5b634e487b7160e01b600052601160045260246000fd5b60405162461bcd60e51b815260048101869052601060248201526f105b1c9958591e481c995dd85c99195960821b6044820152606490fd5b60405162461bcd60e51b815260048101839052601260248201527124b73b30b634b21036bab63a34b83634b2b960711b6044820152606490fd5b50600a841115610486565b6044906040519063e2517d3f60e01b82523360048301526024820152fd5b50346102d357806003193601126102d35760206040517f9c4e6fd68fbdec6e3075ec7bfba710532af019aea93f5f59ebfe5a9d1a0b894e8152f35b50346102d357806003193601126102d3576020601154604051908152f35b50346102d35760803660031901126102d35761070f61396f565b6024356001600160401b038111610dc25761072e9036906004016139a0565b92604480356001600160401b038111610dc25761074f9036906004016139a0565b9060649182356001600160401b038111610dbe57610771903690600401613a01565b93909461077c613e84565b610784613e66565b6001600160a01b03891615610d895761079e8a1515613c91565b8415610d5457865b858110610cf55750505090610800916107f46107c3601154613d6c565b97886011556040519a6107d58c61384c565b898c523360208d01526001600160a01b038b1660408d01523691613d7b565b60608a01523691613d7b565b608087015261080e81613edf565b9161081c6040519384613868565b8183526020830190368360051b820111610cf15780915b8360051b82018310610ce1575050505060a08501524260c08501528060e0850152806101008501526040518060208101106001600160401b03602083011117610ccb576020810160405281815261012085015280610140850152818152600960205260408120845181556001810160018060a01b03602087015116906001600160601b0360a01b9182825416179055600282019060018060a01b036040880151169082541617905560608501518051906001600160401b038211610bc357819061090d8261090460038701546137da565b60038701613e00565b602090601f8311600114610c5c578592610c51575b50508160011b916000199060031b1c19161760038201555b60808501518051906001600160401b038211610bc357819061096c8261096360048701546137da565b60048701613e00565b602090601f8311600114610be2578592610bd7575b50508160011b916000199060031b1c19161760048201555b60a08501518051906001600160401b038211610bc357600160401b8211610bc3576020906005840154836005860155808410610ba6575b500160058301845260208420845b838110610b92575050505060c0850151600682015560e085015160078201556101008501516006811015610b7e57610a199060088301613ef6565b60098101946101208101519586516001600160401b038111610b6a57602097610a4c82610a4685546137da565b85613e00565b8890601f8311600114610b015791806101409492600a96948992610af6575b50508160011b916000199060031b1c19161790555b0151910155338152600d8452610a998260408320613f0e565b6001600160a01b0383168152600d845260408120610ab8908390613f0e565b604051926001600160a01b031690339083907f33c0ece0e33b3793bd5a2a5bdf6b264144b3909b43bc2f2a1e84c87ab135f6019080a4600180558152f35b015190503880610a6b565b8387528987209190601f198416885b818110610b535750926001928592600a9896610140989610610b3a575b505050811b019055610a80565b015160001960f88460031b161c19169055388080610b2d565b92938c600181928786015181550195019301610b10565b634e487b7160e01b85526041600452602485fd5b634e487b7160e01b83526021600452602483fd5b6001906020845194019381840155016109de565b600585018652828620610bbd918101908501613dc1565b386109d0565b634e487b7160e01b84526041600452602484fd5b015190503880610981565b9250600484018552602085209085935b601f1984168510610c36576001945083601f19811610610c1d575b505050811b016004820155610999565b015160001960f88460031b161c19169055388080610c0d565b81810151835560209485019460019093019290910190610bf2565b015190503880610922565b9250600384018552602085209085935b601f1984168510610cb0576001945083601f19811610610c97575b505050811b01600382015561093a565b015160001960f88460031b161c19169055388080610c87565b81810151835560209485019460019093019290910190610c6c565b634e487b7160e01b600052604160045260246000fd5b8235815260209283019201610833565b8480fd5b8060051b8701358852602060088152604089205415610d1d5750610d1890613d6c565b6107a6565b9171115d9a59195b98d9481b9bdd08199bdd5b9960721b91506040519262461bcd60e51b8452600484015260126024840152820152fd5b70115d9a59195b98d9481c995c5d5a5c9959607a1b6040519162461bcd60e51b83526020600484015260116024840152820152fd5b70125b9d985b1a5908191959995b99185b9d607a1b6040519162461bcd60e51b83526020600484015260116024840152820152fd5b8580fd5b8280fd5b50346102d35760403660031901126102d357610e03600435610de661398a565b9080845283602052610dfe6001604086200154613b78565b613c1c565b5080f35b50346102d35760603660031901126102d3576004356001600160401b036024358181116110e757610e3c9036906004016139a0565b9091604435610e49613b1c565b848652602091600983526040872090610e6482541515613ea7565b600882019060ff82541660068110156110d35760031461109b5783611048575b6009830190861161103457610ea386610e9d83546137da565b83613e00565b88601f8711600114610faa5792600392600292887ff9cd089e4c21a3e6ee2b6f6ddf6898389b7e2d54cb070270bce5de97611e97e99a999897968d91610f9f575b5060001989871b1c1916600189901b1790555b600a8201859055426007830155805460ff19168417905501546001600160a01b03908116808a52600c855260408a2080549092811615610f62575b505001610f3f8154613d6c565b9055610f58604051948594604086526040860191613e45565b918301520390a280f35b6001600160601b0360a01b1617815560018101610f88610f8282546137da565b82613dd8565b600e663ab735b737bbb760c91b0190553880610f32565b905089013538610ee4565b818a52858a2090601f1988168b5b81811061101d5750928897969592600395927ff9cd089e4c21a3e6ee2b6f6ddf6898389b7e2d54cb070270bce5de97611e97e99b9a60029610611005575b5050600188811b019055610ef7565b8a01356000198a881b60f8161c191690553880610ff6565b91928860018192868e013581550194019201610fb8565b634e487b7160e01b89526041600452602489fd5b6006548410158061108f575b610e845760405162461bcd60e51b815260048101869052600f60248201526e496e76616c69642070656e616c747960881b6044820152606490fd5b50600754841115611054565b60405162461bcd60e51b815260048101869052601060248201526f105b1c9958591e481c995cdbdb1d995960821b6044820152606490fd5b634e487b7160e01b8a52602160045260248afd5b8380fd5b50346102d3576110fa36613a6c565b91611103613ae2565b60035560045560055580f35b50346102d35760203660031901126102d35780604091610120835161113381613814565b8281528260208201526060858201528260608201528260808201528260a0820152606060c0820152606060e0820152826101008201520152600435815260086020522060ff60086040519261118784613814565b8054845260018101546001600160a01b031660208501526111aa60028201613889565b60408501526003810154606085015260048101546080850152600581015460a08501526111d960068201613889565b60c08501526111ea60078201613889565b60e08501520154818116151561010084015260081c1615156101208201526040518091602082528051602083015260018060a01b036020820151166040830152604081015161012061129d61124d6101409384606088015261016087019061392f565b60608501516080870152608085015160a087015260a085015160c087015261128760c086015191601f1992838983030160e08a015261392f565b9060e0860151908783030161010088015261392f565b9261010081015115158286015201511515908301520390f35b50346102d35760203660031901126102d3576004358152600860205260409020805460018201546001600160a01b03169160ff6113786112f860028401613889565b9261136a60038201546004830154600584015461131760068601613889565b9161134d600861132960078901613889565b970154996040519c8d9c8d5260208d015260408c61014091829101528c019061392f565b9360608b015260808a015260a089015287820360c089015261392f565b9085820360e087015261392f565b91818116151561010085015260081c1615156101208301520390f35b50346102d357806003193601126102d3576020601454604051908152f35b50346102d35760203660031901126102d3576004358152600a602052604090208054600182015460028301546001600160a01b039182169391166113f860038301613889565b91600481015492600582015461143e60068401549260ff600960078701549601541695604051998a998a5260208a015260408901526101208060608a015288019061392f565b94608087015260a086015260c085015260e084015215156101008301520390f35b50346102d35760203660031901126102d3578060409161014083516114838161384c565b828152826020820152828582015260608082015260606080820152606060a08201528260c08201528260e082015282610100820152606061012082015201526004358152600960205220604051906114da8261384c565b8054825260018101546001600160a01b039081166020840152600282015416604083015261150a60038201613889565b606083015261151b60048201613889565b608083015261152c60058201613fe0565b60a0830152600681015460c0830152600781015460e083015260ff60088201541690600682101561164d57600a9161010084015261156c60098201613889565b61012084015201546101408201526040518091602082528051602083015260018060a01b03602082015116604083015260018060a01b03604082015116606083015260608101516101406116426115d16101609384608088015261018087019061392f565b6116046115f0608087015192601f1993848a83030160a08b015261392f565b60a0870151838983030160c08a01526139cd565b9060c086015160e088015260e086015161010088015261162e610100870151610120890190613a5f565b61012086015190878303018488015261392f565b920151908301520390f35b634e487b7160e01b600052602160045260246000fd5b50346102d357806003193601126102d3576020601054604051908152f35b50346102d357806003193601126102d357602090604051908152f35b50346102d357806003193601126102d3576040517f00000000000000000000000000000000000000000000000000000000000000006001600160a01b03168152602090f35b50346102d35760403660031901126102d35760406116fe61398a565b91600435815280602052209060018060a01b0316600052602052602060ff604060002054166040519015158152f35b50346102d35760403660031901126102d3576004356024356006811015610dc25760207f63ddd364849237939ab7ab73ff6b6d90913684f5afc06bb1de7afb96360177b79161177a613b1c565b8385526009825261179d8160086040882061179781541515613ea7565b01613ef6565b6117aa6040518092613a5f565ba280f35b50346102d35760203660031901126102d357600435815260086020526008604082206117dc81541515613ea7565b01805460ff8116156117f65761ff00191661010017905580f35b60405162461bcd60e51b815260206004820152600c60248201526b139bdd081d995c9a599a595960a21b6044820152606490fd5b50346102d357806003193601126102d3576020600454604051908152f35b50346102d357806003193601126102d357611861613ae2565b611869613e66565b600160ff1960025416176002557f62e78cea01bee320cd4e420270b5ea74000d11b0c9f74754ebdbfc544b05a2586020604051338152a180f35b50346102d357806003193601126102d3576020601554604051908152f35b50346102d35760a03660031901126102d3576004356001600160401b038111611e9b576118f29036906004016139a0565b6064356001600160401b0381116110e7576119119036906004016139a0565b6084939193356001600160401b038111610dbe576119339036906004016139a0565b9061193c613e84565b611944613e66565b61194f851515613c91565b61195c6024351515613ccd565b6024358752600f60205260ff604088205416611e61576003546040516323b872dd60e01b81523360048201523060248201526044810191909152916020836064818b6001600160a01b037f0000000000000000000000000000000000000000000000000000000000000000165af1928315611e5657611a59936119e6918a91611e37575b50613d21565b6119f4600354601454613d5f565b601455611a4d611a05601054613d6c565b978860105560405195611a1787613814565b898752336020880152611a2b368a8a613d7b565b6040880152602435606088015260443560808801524260a08801523691613d7b565b60c08501523691613d7b565b60e08201528461010082015284610120820152838552600860205260408520815181556001810160018060a01b036020840151166001600160601b0360a01b82541617905560408201518051906001600160401b038211611d2f578190611ad082611ac760028701546137da565b60028701613e00565b602090601f8311600114611dc8578992611dbd575b50508160011b916000199060031b1c19161760028201555b606082015160038201556080820151600482015560a0820151600582015560c08201518051906001600160401b038211611d2f578190611b4d82611b4460068701546137da565b60068701613e00565b602090601f8311600114611d4e578992611d43575b50508160011b916000199060031b1c19161760068201555b60e08201518051906001600160401b038211611d2f57918160209893611bb389979694611baa60078601546137da565b60078601613e00565b8990601f8311600114611c8f57936101206008604095858996611c4c967fa49e7517d2b5714f7812f718444c5a2931d4fc670ed2d2aa2426ff2f42c5b44d9c9a611c759c92611c84575b50508160011b916000199060031b1c19161760078201555b0191611c346101008201511515849060ff801983541691151516179055565b0151815461ff00191690151560081b61ff0016179055565b6024358152600f895220600160ff19825416179055604051918291888352339689840191613e45565b0390a360018055604051908152f35b015190503880611bfd565b906007840186528a862091865b601f1985168110611d1557506008604095600186611c4c967fa49e7517d2b5714f7812f718444c5a2931d4fc670ed2d2aa2426ff2f42c5b44d9c9a9661012096611c759d9a601f19811610611cfc575b505050811b016007820155611c15565b015160001960f88460031b161c19169055388080611cec565b8183015184558b9950600190930192918c01918c01611c9c565b634e487b7160e01b88526041600452602488fd5b015190503880611b62565b9250600684018952602089209089935b601f1984168510611da2576001945083601f19811610611d89575b505050811b016006820155611b7a565b015160001960f88460031b161c19169055388080611d79565b81810151835560209485019460019093019290910190611d5e565b015190503880611ae5565b9250600284018952602089209089935b601f1984168510611e1c576001945083601f19811610611e03575b505050811b016002820155611afd565b015160001960f88460031b161c19169055388080611df3565b81810151835560209485019460019093019290910190611dd8565b611e50915060203d6020116105d9576105ca8183613868565b386119e0565b6040513d8a823e3d90fd5b60405162461bcd60e51b81526020600482015260126024820152714475706c69636174652065766964656e636560701b6044820152606490fd5b5080fd5b50346102d357806003193601126102d3576020600354604051908152f35b50346102d357806003193601126102d35760206040517f59a1c48e5837ad7a7f3dcedcbe129bf3249ec4fbf651fd4f5e2600ead39fe2f58152f35b50346102d357806003193601126102d35760206040517f973ef39d76cc2c6090feab1c030bec6ab5db557f64df047a4c4f9b5953cf1df38152f35b50346102d357806003193601126102d357602060ff600254166040519015158152f35b50346102d357806003193601126102d3576020600754604051908152f35b50346102d357602080600319360112611e9b576040611f9161396f565b928060e08351611fa081613830565b82815260608682015282858201528260608201528260808201528260a08201528260c0820152015260018060a01b038094168152600c83522060405191611fe683613830565b838254168352611ff860018301613889565b90808401918252600283015492604085019384526003810154926060860193845260048201546080870190815260058301549160a0880192835260ff600760068601549560c08b019687520154169460e089019515158652604051998a99828b525116908901525194612079610100968760408b01526101208a019061392f565b965160608901525160808801525160a08701525160c08601525160e0850152511515908301520390f35b50346102d357806003193601126102d3576020601654604051908152f35b50346102d357602080600319360112611e9b57600435906120e0613e84565b81835260098152604083209160ff60088401541660068110156123395760030361230557600a830192835480156122d35760029190910180546040516323b872dd60e01b81526001600160a01b0391821660048201523060248201526044810193909352917f000000000000000000000000000000000000000000000000000000000000000083169085816064818b865af18015611e56576121889189916122bc5750613d21565b85549060468202828104604614831517156122a857906121ba6121b160648b9594048094613f43565b92601454613d5f565b6014556121ca8854601554613d5f565b601555803b15610dc257602483926040519485938492630852cd8d60e31b845260048401525af180156105e057612259575b509181837f4ea7aea8cfe012ba0d6280bf9b585e073f218a2f021eb3fa7affc8758d67cb4f959360409554168852600c8452848820612242600489549201918254613d5f565b905554169454918351928352820152a26001805580f35b6001600160401b03819792971161229457604052947f4ea7aea8cfe012ba0d6280bf9b585e073f218a2f021eb3fa7affc8758d67cb4f6121fc565b634e487b7160e01b82526041600452602482fd5b634e487b7160e01b89526011600452602489fd5b611e509150873d89116105d9576105ca8183613868565b60405162461bcd60e51b815260048101859052600a6024820152694e6f2070656e616c747960b01b6044820152606490fd5b60405162461bcd60e51b815260048101839052600c60248201526b139bdd081c995cdbdb1d995960a21b6044820152606490fd5b634e487b7160e01b85526021600452602485fd5b50346102d35760203660031901126102d35760ff60406020926004358152600f84522054166040519015158152f35b50346102d357806003193601126102d357612395613ae2565b60025460ff8116156123d55760ff19166002557f5db9ee0a495bf2e6ff9c91a7834c1ba4fdd244a5e8aa4e537bd38aeae4b073aa6020604051338152a180f35b604051638dfc202b60e01b8152600490fd5b50346102d35760403660031901126102d357602435600435612407613ae2565b818110156124185760065560075580f35b60405162461bcd60e51b815260206004820152600d60248201526c496e76616c69642072616e676560981b6044820152606490fd5b50346102d35760403660031901126102d35761246761398a565b336001600160a01b0382160361248357610e0390600435613c1c565b60405163334bd91960e11b8152600490fd5b50346102d35760403660031901126102d357610e036004356124b561398a565b90808452836020526124cd6001604086200154613b78565b613b9e565b50346102d35760203660031901126102d3576004356124ef613e84565b6040516323b872dd60e01b81523360048201523060248201526044810182905290602082606481866001600160a01b037f0000000000000000000000000000000000000000000000000000000000000000165af1918215612588576125669261255e9185916125705750613d21565b601454613d5f565b6014556001805580f35b611e50915060203d81116105d9576105ca8183613868565b6040513d85823e3d90fd5b50346102d35760203660031901126102d3578060409161012083516125b781613814565b8281528260208201526060858201526060808201528260808201528260a08201528260c08201528260e08201528261010082015201526004358152600b6020522060086040519161260783613814565b8054835260018101546001600160a01b0316602084015261262a60028201613889565b604084015261263b60038201613889565b606084015260048101546080840152600581015460a084015260ff6006820154818116151560c0860152831c16151560e0840152600781015461010084015201546101208201526040518091602082528051602083015260018060a01b03602082015116604083015260408101516101206126dd6126c76101409384606088015261016087019061392f565b6060850151868203601f1901608088015261392f565b92608081015160a086015260a081015160c086015260c0810151151560e086015260e08101511515610100860152610100810151828601520151908301520390f35b50346102d35760203660031901126102d3576001600160a01b03906040908261274661396f565b168152600c602052209081541661275f60018301613889565b91600281015490600381015490600481015460058201549060ff6007600685015494015416936127a160405198899889526101008060208b015289019061392f565b9560408801526060870152608086015260a085015260c0840152151560e08301520390f35b50346102d35760603660031901126102d3576004356001600160401b038111611e9b576127f79036906004016139a0565b906024356001600160401b0381116110e7576128179036906004016139a0565b919092612822613e66565b61282d811515613c91565b61283a6044351515613ccd565b61287a612848601354613d6c565b94856013556040519461285a86613814565b86865233602087015261286e368587613d7b565b60408701523691613d7b565b606084015260443560808401524260a08401528460c08401528460e08401528461010084015284610120840152838552600b60205260408520835181556001810160018060a01b036020860151166001600160601b0360a01b82541617905560408401518051906001600160401b038211611d2f57819061290282611ac760028701546137da565b602090601f8311600114612ae8578992612add575b50508160011b916000199060031b1c19161760028201555b60608401518051906001600160401b038211611d2f5790602097839261295f8361090460038c9a999801546137da565b8991601f8411600114612a44579280610120937f44f43be475258da0428ade86f659171f05ab67baed1dc4928fe1a49ca4c79083999a9360089692612a39575b50508160011b916000199060031b1c19161760038501555b6080810151600485015560a08101516005850155612a09600685016129ee60c08401511515829060ff801983541691151516179055565b60e0830151815461ff00191690151560081b61ff0016179055565b61010081015160078501550151910155612a2e60405192839288845288840191613e45565b0390a2604051908152f35b01519050388061299f565b90600385999493990182528a8220915b601f1984168110612ac3575082600894927f44f43be475258da0428ade86f659171f05ab67baed1dc4928fe1a49ca4c79083999a60019361012096601f19811610612aaa575b505050811b0160038501556129b7565b015160001960f88460031b161c19169055388080612a9a565b818a01518355988b01988a98506001909201918b01612a54565b015190503880612917565b9250600284018952602089209089935b601f1984168510612b3c576001945083601f19811610612b23575b505050811b01600282015561292f565b015160001960f88460031b161c19169055388080612b13565b81810151835560209485019460019093019290910190612af8565b50346102d35760403660031901126102d357600435602435801515908181036110e7577f38507b0866ce0c7c45b3a5f78b8c7a9864c60351350eb6416c730da201b23e4991612bd5602092612baa613a86565b85875260088452600860408820612bc381541515613ea7565b019060ff801983541691151516179055565b604051908152a280f35b50346102d35760203660031901126102d357600160406020926004358152808452200154604051908152f35b50346102d35760403660031901126102d357612c2561396f565b6001600160a01b03168152600d60205260408120805460243592908310156102d35760206102c58484613a31565b50346102d35760803660031901126102d3576004356001600160401b03604435606435828111610cf157612c8b903690600401613a01565b612c96939193613a86565b60648311612f1457848652602093600a85526040872091612cb983541515613ea7565b600983019360ff855416612edb579160243560068501558560078501556008840192612ce58385613f50565b81938a52878a20918a945b848610612dd5578b8b7fdc1e6407cb902c85f8825fe5afb1b7619ebc9320cdb38adc1dcc6d573d1a29b88c8c8c60028d42600582015560ff199260018482541617905560018060a01b03918291015416808852600c85526040882091825490811615612d9e575b505060028101612d678154613d6c565b9055426005820155826006820155601e8310612d8a575b5050604051908152a280f35b600760019101918254161790558580612d7e565b6001600160601b0360a01b1617815560018101612dbe610f8282546137da565b600e663ab735b737bbb760c91b0190558780612d57565b8035601e1983360301811215612ed75782018035848111612ed3578d8136038d8401136102d3578c92612e1283612e0c8a546137da565b8a613e00565b81601f8411600114612e5d57928460019693829388979693612e50575b505050600019600383901b1c191690841b1787555b01940195019492612cf0565b0101359050833880612e2f565b91601f198416898452858420935b818110612eb0575091856001979492868998979510612e94575b50505050831b83018755612e44565b60001960f88660031b161c199201013516905538808481612e85565b9293956001839697828094958801013581550195019201908f9594939291612e6b565b8d80fd5b8c80fd5b60405162461bcd60e51b8152600481018890526011602482015270105b1c9958591e4818dbdb5c1b195d1959607a1b6044820152606490fd5b60405162461bcd60e51b815260206004820152600d60248201526c496e76616c69642073636f726560981b6044820152606490fd5b50346102d35760203660031901126102d357612f9890612f84906040906001600160a01b03612f7661396f565b168152600d60205220613fe0565b6040519182916020835260208301906139cd565b0390f35b50346102d357806003193601126102d3576020601354604051908152f35b50346102d35760203660031901126102d35780610120604051612fdc81613814565b8281528260208201528260408201526060808201528260808201528260a08201528260c08201528260e0820152606061010082015201526004358152600a60205260408120906040519161302f83613814565b8054835260018101546001600160a01b039081166020850152600282015416604084015261305f60038201613889565b606084015260048101546080840152600581015460a0840152600681015460c0840152600781015460e0840152600881015461309a81613edf565b906130a86040519283613868565b808252602082016008840185526020852085915b8383106131cc57878760ff60098989610100860152015416151561012083015260405190602082528251602083015260018060a01b03602084015116604083015260018060a01b036040840151166060830152606083015161312c6101409182608086015261016085019061392f565b91608085015160a085015260a085015160c085015260c085015160e085015260e085015161010085015261010085015192601f1990818682030161012087015284519182825260208201906020808560051b850101970194925b84841061319f576101208a01511515878a015288880389f35b9091929394966020806131bc838686600196030188528b5161392f565b9901940194019294939190613186565b6001602081926131db85613889565b8152019201920191906130bc565b50346102d35760403660031901126102d35761320361396f565b6024356001600160401b038111610dc2576132229036906004016139a0565b9061322b613e84565b613233613e66565b6001600160a01b0383161561362b57600480546040516323b872dd60e01b815233928101929092523060248301526044820152602081606481886001600160a01b037f0000000000000000000000000000000000000000000000000000000000000000165af18015613620576132af918691611e375750613d21565b6132bd600454601454613d5f565b6014556132cb601254613d6c565b92836012556040516132dc81613814565b8481523360208201526001600160a01b03821660408201526132ff368585613d7b565b60608201524260808201528560a08201528560c08201528560e0820152606061010082015285610120820152848652600a6020526040862090805182556001820160018060a01b03602083015116906001600160601b0360a01b9182825416179055600283019060018060a01b036040840151169082541617905560608101518051906001600160401b0382116110345781906133ac826133a360038801546137da565b60038801613e00565b602090601f83116001146135b1578a926135a6575b50508160011b916000199060031b1c19161760038301555b6080810151600483015560a0810151600583015560c0810151600683015560e081015160078301556008820161010082015190602082519261341b8484613f50565b019089526020892089915b8383106134b357505050509161349586604060209961347f83989660096101207fd749a14df04a87294d8db5cff6780a93ffbec955a67da822867f31c381d53b119a0151151591019060ff801983541691151516179055565b6001600160a01b0385168152600e8b5220613f0e565b611c7560405192839289845260018060a01b03169689840191613e45565b80518051906001600160401b038211613592576134da826134d486546137da565b86613e00565b6020908d601f84116001146135255792806020936001969387969261351a575b5050600019600383901b1c191690841b1785555b01920192019190613426565b0151905038806134fa565b919085835260208320925b601f198516811061357a575083602093600196938796938794601f19811610613561575b505050811b01855561350e565b015160001960f88460031b161c19169055388080613554565b91926020600181928685015181550194019201613530565b634e487b7160e01b8d52604160045260248dfd5b0151905038806133c1565b9250600385018a5260208a20908a935b601f1984168510613605576001945083601f198116106135ec575b505050811b0160038301556133d9565b015160001960f88460031b161c191690553880806135dc565b818101518355602094850194600190930192909101906135c1565b6040513d87823e3d90fd5b60405162461bcd60e51b815260206004820152600e60248201526d125b9d985b1a59081d185c99d95d60921b6044820152606490fd5b50346102d35760203660031901126102d3576004358152600b60205260409020805460018201546001600160a01b03169161369e60028201613889565b6136aa60038301613889565b9160ff60048201549360058301546136fb6006850154926136ed60086007880154970154976040519b8c9b8c5260208c01526101408060408d01528b019061392f565b9089820360608b015261392f565b95608088015260a0870152818116151560c087015260081c16151560e08501526101008401526101208301520390f35b50346102d357806003193601126102d3576020600654604051908152f35b50346102d357806003193601126102d3576020601254604051908152f35b50346102d35760203660031901126102d35760043563ffffffff60e01b8116809103611e9b57602090637965db0b60e01b81149081156137ad575b506040519015158152f35b6301ffc9a760e01b149050826137a2565b905034611e9b5781600319360112611e9b576020906005548152f35b90600182811c9216801561380a575b60208310146137f457565b634e487b7160e01b600052602260045260246000fd5b91607f16916137e9565b61014081019081106001600160401b03821117610ccb57604052565b61010081019081106001600160401b03821117610ccb57604052565b61016081019081106001600160401b03821117610ccb57604052565b90601f801991011681019081106001600160401b03821117610ccb57604052565b906040519182600082549261389d846137da565b90818452600194858116908160001461390c57506001146138c9575b50506138c792500383613868565b565b9093915060005260209081600020936000915b8183106138f45750506138c7935082010138806138b9565b855488840185015294850194879450918301916138dc565b9150506138c794506020925060ff191682840152151560051b82010138806138b9565b919082519283825260005b84811061395b575050826000602080949584010152601f8019910116010190565b60208183018101518483018201520161393a565b600435906001600160a01b038216820361398557565b600080fd5b602435906001600160a01b038216820361398557565b9181601f84011215613985578235916001600160401b038311613985576020838186019501011161398557565b90815180825260208080930193019160005b8281106139ed575050505090565b8351855293810193928101926001016139df565b9181601f84011215613985578235916001600160401b038311613985576020808501948460051b01011161398557565b8054821015613a495760005260206000200190600090565b634e487b7160e01b600052603260045260246000fd5b90600682101561164d5752565b606090600319011261398557600435906024359060443590565b3360009081527f0d2d6a5d08cb5d871289c0a3ca855d9da72909a111c24cce2d5c2b34a20daa5460205260409020547f59a1c48e5837ad7a7f3dcedcbe129bf3249ec4fbf651fd4f5e2600ead39fe2f59060ff161561067e5750565b3360009081527fad3228b676f7d3cd4284a5443f17f1962b36e491b30a40b2405849e597ba5fb5602052604081205460ff161561067e5750565b3360009081527fe5acc2bb32c49c33bbef2e3575d02ef9de1d6d7eaad8b7a8b20b2ad528b8d6fb60205260409020547f9c4e6fd68fbdec6e3075ec7bfba710532af019aea93f5f59ebfe5a9d1a0b894e9060ff161561067e5750565b80600052600060205260406000203360005260205260ff604060002054161561067e5750565b9060009180835282602052604083209160018060a01b03169182845260205260ff60408420541615600014613c1757808352826020526040832082845260205260408320600160ff198254161790557f2f8788117e7eff1d82e926ec794901d17c78024a50270940304540a733656f0d339380a4600190565b505090565b9060009180835282602052604083209160018060a01b03169182845260205260ff604084205416600014613c175780835282602052604083208284526020526040832060ff1981541690557ff6391f5c32d9c69d2a47ea670b442974b53935d1edc7fd64eb21e047a839171b339380a4600190565b15613c9857565b60405162461bcd60e51b815260206004820152600d60248201526c151e5c19481c995c5d5a5c9959609a1b6044820152606490fd5b15613cd457565b60405162461bcd60e51b815260206004820152600d60248201526c12185cda081c995c5d5a5c9959609a1b6044820152606490fd5b90816020910312613985575180151581036139855790565b15613d2857565b60405162461bcd60e51b815260206004820152600f60248201526e151c985b9cd9995c8819985a5b1959608a1b6044820152606490fd5b919082018092116105eb57565b60001981146105eb5760010190565b9291926001600160401b038211610ccb5760405191613da4601f8201601f191660200184613868565b829481845281830111613985578281602093846000960137010152565b818110613dcc575050565b60008155600101613dc1565b90601f8111613de5575050565b6138c791600052601f6020600020910160051c810190613dc1565b9190601f8111613e0f57505050565b6138c7926000526020600020906020601f840160051c83019310613e3b575b601f0160051c0190613dc1565b9091508190613e2e565b908060209392818452848401376000828201840152601f01601f1916010190565b60ff60025416613e7257565b60405163d93c066560e01b8152600490fd5b600260015414613e95576002600155565b604051633ee5aeb560e01b8152600490fd5b15613eae57565b60405162461bcd60e51b8152602060048201526009602482015268139bdd08199bdd5b9960ba1b6044820152606490fd5b6001600160401b038111610ccb5760051b60200190565b90600681101561164d5760ff80198354169116179055565b8054600160401b811015610ccb57613f2b91600182018155613a31565b819291549060031b91821b91600019901b1916179055565b919082039182116105eb57565b600160401b8211610ccb57805491808255828110613f6d57505050565b600091825260209081832093840193015b838110613f8b5750505050565b8083613f99600193546137da565b80613fa7575b505001613f7e565b601f8082118514613fbe57505081555b8338613f9f565b613fd790848452868420920160051c8201858301613dc1565b81835555613fb7565b9060405191828154918282526020928383019160005283600020936000905b828210614015575050506138c792500383613868565b855484526001958601958895509381019390910190613fff56fea264697066735822122058eb08925bc8d9faf3d598301dee05a7d74b58c897ff55cddaa9e6ebb701078764736f6c634300081400332f8788117e7eff1d82e926ec794901d17c78024a50270940304540a733656f0d",
  "linkReferences": {},
  "deployedLinkReferences": {}
}