{
  "_format": "hh-sol-artifact-1",
  "contractName": "KAI_DAO",
  "sourceName": "contracts/KAI_DAO.sol",
  "abi": [
    {
      "inputs": [
        {
          "internalType": "address",
          "name": "_kaiToken",
          "type": "address"
        },
        {
          "internalType": "address[]",
          "name": "guardians",
          "type": "address[]"
        }
      ],
      "stateMutability": "nonpayable",
      "type": "constructor"
    },
    {
      "inputs": [],
      "name": "AccessControlBadConfirmation",
      "type": "error"
    },
    {
      "inputs": [
        {
          "internalType": "address",
          "name": "account",
          "type": "address"
        },
        {
          "internalType": "bytes32",
          "name": "neededRole",
          "type": "bytes32"
        }
      ],
      "name": "AccessControlUnauthorizedAccount",
      "type": "error"
    },
    {
      "inputs": [],
      "name": "ReentrancyGuardReentrantCall",
      "type": "error"
    },
    {
      "anonymous": false,
      "inputs": [
        {
          "indexed": true,
          "internalType": "address",
          "name": "recipient",
          "type": "address"
        },
        {
          "indexed": false,
          "internalType": "uint256",
          "name": "amount",
          "type": "uint256"
        },
        {
          "indexed": false,
          "internalType": "string",
          "name": "purpose",
          "type": "string"
        }
      ],
      "name": "GrantIssued",
      "type": "event"
    },
    {
      "anonymous": false,
      "inputs": [
        {
          "indexed": true,
          "internalType": "uint256",
          "name": "proposalId",
          "type": "uint256"
        },
        {
          "indexed": true,
          "internalType": "address",
          "name": "proposer",
          "type": "address"
        },
        {
          "indexed": false,
          "internalType": "enum KAI_DAO.ProposalType",
          "name": "proposalType",
          "type": "uint8"
        },
        {
          "indexed": false,
          "internalType": "string",
          "name": "title",
          "type": "string"
        }
      ],
      "name": "ProposalCreated",
      "type": "event"
    },
    {
      "anonymous": false,
      "inputs": [
        {
          "indexed": true,
          "internalType": "uint256",
          "name": "proposalId",
          "type": "uint256"
        }
      ],
      "name": "ProposalExecuted",
      "type": "event"
    },
    {
      "anonymous": false,
      "inputs": [
        {
          "indexed": true,
          "internalType": "uint256",
          "name": "proposalId",
          "type": "uint256"
        },
        {
          "indexed": false,
          "internalType": "uint256",
          "name": "executionTime",
          "type": "uint256"
        }
      ],
      "name": "ProposalQueued",
      "type": "event"
    },
    {
      "anonymous": false,
      "inputs": [
        {
          "indexed": true,
          "internalType": "uint256",
          "name": "proposalId",
          "type": "uint256"
        },
        {
          "indexed": true,
          "internalType": "address",
          "name": "guardian",
          "type": "address"
        }
      ],
      "name": "ProposalVetoed",
      "type": "event"
    },
    {
      "anonymous": false,
      "inputs": [
        {
          "indexed": true,
          "internalType": "bytes32",
          "name": "role",
          "type": "bytes32"
        },
        {
          "indexed": true,
          "internalType": "bytes32",
          "name": "previousAdminRole",
          "type": "bytes32"
        },
        {
          "indexed": true,
          "internalType": "bytes32",
          "name": "newAdminRole",
          "type": "bytes32"
        }
      ],
      "name": "RoleAdminChanged",
      "type": "event"
    },
    {
      "anonymous": false,
      "inputs": [
        {
          "indexed": true,
          "internalType": "bytes32",
          "name": "role",
          "type": "bytes32"
        },
        {
          "indexed": true,
          "internalType": "address",
          "name": "account",
          "type": "address"
        },
        {
          "indexed": true,
          "internalType": "address",
          "name": "sender",
          "type": "address"
        }
      ],
      "name": "RoleGranted",
      "type": "event"
    },
    {
      "anonymous": false,
      "inputs": [
        {
          "indexed": true,
          "internalType": "bytes32",
          "name": "role",
          "type": "bytes32"
        },
        {
          "indexed": true,
          "internalType": "address",
          "name": "account",
          "type": "address"
        },
        {
          "indexed": true,
          "internalType": "address",
          "name": "sender",
          "type": "address"
        }
      ],
      "name": "RoleRevoked",
      "type": "event"
    },
    {
      "anonymous": false,
      "inputs": [
        {
          "indexed": true,
          "internalType": "uint256",
          "name": "snapshotId",
          "type": "uint256"
        },
        {
          "indexed": false,
          "internalType": "uint256",
          "name": "timestamp",
          "type": "uint256"
        }
      ],
      "name": "SnapshotCreated",
      "type": "event"
    },
    {
      "anonymous": false,
      "inputs": [
        {
          "indexed": true,
          "internalType": "address",
          "name": "from",
          "type": "address"
        },
        {
          "indexed": false,
          "internalType": "uint256",
          "name": "amount",
          "type": "uint256"
        }
      ],
      "name": "TreasuryDeposit",
      "type": "event"
    },
    {
      "anonymous": false,
      "inputs": [
        {
          "indexed": true,
          "internalType": "uint256",
          "name": "proposalId",
          "type": "uint256"
        },
        {
          "indexed": true,
          "internalType": "address",
          "name": "guardian",
          "type": "address"
        },
        {
          "indexed": false,
          "internalType": "uint256",
          "name": "currentVotes",
          "type": "uint256"
        }
      ],
      "name": "VetoVoteCast",
      "type": "event"
    },
    {
      "anonymous": false,
      "inputs": [
        {
          "indexed": true,
          "internalType": "address",
          "name": "voter",
          "type": "address"
        },
        {
          "indexed": true,
          "internalType": "uint256",
          "name": "proposalId",
          "type": "uint256"
        },
        {
          "indexed": false,
          "internalType": "bool",
          "name": "support",
          "type": "bool"
        },
        {
          "indexed": false,
          "internalType": "uint256",
          "name": "weight",
          "type": "uint256"
        },
        {
          "indexed": false,
          "internalType": "string",
          "name": "reason",
          "type": "string"
        }
      ],
      "name": "VoteCast",
      "type": "event"
    },
    {
      "inputs": [],
      "name": "DEFAULT_ADMIN_ROLE",
      "outputs": [
        {
          "internalType": "bytes32",
          "name": "",
          "type": "bytes32"
        }
      ],
      "stateMutability": "view",
      "type": "function"
    },
    {
      "inputs": [],
      "name": "EXECUTOR_ROLE",
      "outputs": [
        {
          "internalType": "bytes32",
          "name": "",
          "type": "bytes32"
        }
      ],
      "stateMutability": "view",
      "type": "function"
    },
    {
      "inputs": [],
      "name": "GUARDIAN_ROLE",
      "outputs": [
        {
          "internalType": "bytes32",
          "name": "",
          "type": "bytes32"
        }
      ],
      "stateMutability": "view",
      "type": "function"
    },
    {
      "inputs": [],
      "name": "PROPOSAL_THRESHOLD",
      "outputs": [
        {
          "internalType": "uint256",
          "name": "",
          "type": "uint256"
        }
      ],
      "stateMutability": "view",
      "type": "function"
    },
    {
      "inputs": [],
      "name": "QUADRATIC_MULTIPLIER",
      "outputs": [
        {
          "internalType": "uint256",
          "name": "",
          "type": "uint256"
        }
      ],
      "stateMutability": "view",
      "type": "function"
    },
    {
      "inputs": [],
      "name": "QUORUM_PERCENTAGE",
      "outputs": [
        {
          "internalType": "uint256",
          "name": "",
          "type": "uint256"
        }
      ],
      "stateMutability": "view",
      "type": "function"
    },
    {
      "inputs": [],
      "name": "TIMELOCK_DELAY",
      "outputs": [
        {
          "internalType": "uint256",
          "name": "",
          "type": "uint256"
        }
      ],
      "stateMutability": "view",
      "type": "function"
    },
    {
      "inputs": [],
      "name": "VETO_THRESHOLD",
      "outputs": [
        {
          "internalType": "uint256",
          "name": "",
          "type": "uint256"
        }
      ],
      "stateMutability": "view",
      "type": "function"
    },
    {
      "inputs": [],
      "name": "VOTING_PERIOD",
      "outputs": [
        {
          "internalType": "uint256",
          "name": "",
          "type": "uint256"
        }
      ],
      "stateMutability": "view",
      "type": "function"
    },
    {
      "inputs": [],
      "name": "VOTING_PERIOD_BLOCKS",
      "outputs": [
        {
          "internalType": "uint256",
          "name": "",
          "type": "uint256"
        }
      ],
      "stateMutability": "view",
      "type": "function"
    },
    {
      "inputs": [
        {
          "internalType": "uint256",
          "name": "proposalId",
          "type": "uint256"
        },
        {
          "internalType": "bool",
          "name": "support",
          "type": "bool"
        },
        {
          "internalType": "string",
          "name": "reason",
          "type": "string"
        }
      ],
      "name": "castVote",
      "outputs": [],
      "stateMutability": "nonpayable",
      "type": "function"
    },
    {
      "inputs": [],
      "name": "depositToTreasury",
      "outputs": [],
      "stateMutability": "payable",
      "type": "function"
    },
    {
      "inputs": [
        {
          "internalType": "uint256",
          "name": "proposalId",
          "type": "uint256"
        }
      ],
      "name": "executeProposal",
      "outputs": [],
      "stateMutability": "payable",
      "type": "function"
    },
    {
      "inputs": [
        {
          "internalType": "uint256",
          "name": "proposalId",
          "type": "uint256"
        }
      ],
      "name": "finalizeProposal",
      "outputs": [],
      "stateMutability": "nonpayable",
      "type": "function"
    },
    {
      "inputs": [
        {
          "internalType": "uint256",
          "name": "proposalId",
          "type": "uint256"
        }
      ],
      "name": "getProposal",
      "outputs": [
        {
          "internalType": "address",
          "name": "proposer",
          "type": "address"
        },
        {
          "internalType": "enum KAI_DAO.ProposalType",
          "name": "proposalType",
          "type": "uint8"
        },
        {
          "internalType": "string",
          "name": "title",
          "type": "string"
        },
        {
          "internalType": "uint256",
          "name": "forVotes",
          "type": "uint256"
        },
        {
          "internalType": "uint256",
          "name": "againstVotes",
          "type": "uint256"
        },
        {
          "internalType": "enum KAI_DAO.ProposalStatus",
          "name": "status",
          "type": "uint8"
        }
      ],
      "stateMutability": "view",
      "type": "function"
    },
    {
      "inputs": [
        {
          "internalType": "bytes32",
          "name": "role",
          "type": "bytes32"
        }
      ],
      "name": "getRoleAdmin",
      "outputs": [
        {
          "internalType": "bytes32",
          "name": "",
          "type": "bytes32"
        }
      ],
      "stateMutability": "view",
      "type": "function"
    },
    {
      "inputs": [
        {
          "internalType": "uint256",
          "name": "proposalId",
          "type": "uint256"
        }
      ],
      "name": "getVetoStatus",
      "outputs": [
        {
          "internalType": "uint256",
          "name": "count",
          "type": "uint256"
        },
        {
          "internalType": "uint256",
          "name": "threshold",
          "type": "uint256"
        }
      ],
      "stateMutability": "view",
      "type": "function"
    },
    {
      "inputs": [
        {
          "internalType": "bytes32",
          "name": "role",
          "type": "bytes32"
        },
        {
          "internalType": "address",
          "name": "account",
          "type": "address"
        }
      ],
      "name": "grantRole",
      "outputs": [],
      "stateMutability": "nonpayable",
      "type": "function"
    },
    {
      "inputs": [
        {
          "internalType": "bytes32",
          "name": "role",
          "type": "bytes32"
        },
        {
          "internalType": "address",
          "name": "account",
          "type": "address"
        }
      ],
      "name": "hasRole",
      "outputs": [
        {
          "internalType": "bool",
          "name": "",
          "type": "bool"
        }
      ],
      "stateMutability": "view",
      "type": "function"
    },
    {
      "inputs": [],
      "name": "kaiToken",
      "outputs": [
        {
          "internalType": "contract KAIToken",
          "name": "",
          "type": "address"
        }
      ],
      "stateMutability": "view",
      "type": "function"
    },
    {
      "inputs": [],
      "name": "proposalCount",
      "outputs": [
        {
          "internalType": "uint256",
          "name": "",
          "type": "uint256"
        }
      ],
      "stateMutability": "view",
      "type": "function"
    },
    {
      "inputs": [
        {
          "internalType": "uint256",
          "name": "",
          "type": "uint256"
        }
      ],
      "name": "proposals",
      "outputs": [
        {
          "internalType": "uint256",
          "name": "id",
          "type": "uint256"
        },
        {
          "internalType": "address",
          "name": "proposer",
          "type": "address"
        },
        {
          "internalType": "enum KAI_DAO.ProposalType",
          "name": "proposalType",
          "type": "uint8"
        },
        {
          "internalType": "bytes32",
          "name": "seal",
          "type": "bytes32"
        },
        {
          "internalType": "string",
          "name": "title",
          "type": "string"
        },
        {
          "internalType": "string",
          "name": "description",
          "type": "string"
        },
        {
          "internalType": "address",
          "name": "target",
          "type": "address"
        },
        {
          "internalType": "bytes",
          "name": "callData",
          "type": "bytes"
        },
        {
          "internalType": "uint256",
          "name": "value",
          "type": "uint256"
        },
        {
          "internalType": "uint256",
          "name": "startBlock",
          "type": "uint256"
        },
        {
          "internalType": "uint256",
          "name": "endBlock",
          "type": "uint256"
        },
        {
          "internalType": "uint256",
          "name": "forVotes",
          "type": "uint256"
        },
        {
          "internalType": "uint256",
          "name": "againstVotes",
          "type": "uint256"
        },
        {
          "internalType": "uint256",
          "name": "abstainVotes",
          "type": "uint256"
        },
        {
          "internalType": "enum KAI_DAO.ProposalStatus",
          "name": "status",
          "type": "uint8"
        },
        {
          "internalType": "bool",
          "name": "executed",
          "type": "bool"
        },
        {
          "internalType": "uint256",
          "name": "queuedAt",
          "type": "uint256"
        },
        {
          "internalType": "uint256",
          "name": "snapshotId",
          "type": "uint256"
        }
      ],
      "stateMutability": "view",
      "type": "function"
    },
    {
      "inputs": [
        {
          "internalType": "enum KAI_DAO.ProposalType",
          "name": "proposalType",
          "type": "uint8"
        },
        {
          "internalType": "string",
          "name": "title",
          "type": "string"
        },
        {
          "internalType": "string",
          "name": "description",
          "type": "string"
        },
        {
          "internalType": "address",
          "name": "target",
          "type": "address"
        },
        {
          "internalType": "bytes",
          "name": "callData",
          "type": "bytes"
        },
        {
          "internalType": "uint256",
          "name": "value",
          "type": "uint256"
        }
      ],
      "name": "propose",
      "outputs": [
        {
          "internalType": "uint256",
          "name": "",
          "type": "uint256"
        }
      ],
      "stateMutability": "nonpayable",
      "type": "function"
    },
    {
      "inputs": [
        {
          "internalType": "address",
          "name": "",
          "type": "address"
        }
      ],
      "name": "proposerLastProposal",
      "outputs": [
        {
          "internalType": "uint256",
          "name": "",
          "type": "uint256"
        }
      ],
      "stateMutability": "view",
      "type": "function"
    },
    {
      "inputs": [
        {
          "internalType": "uint256",
          "name": "proposalId",
          "type": "uint256"
        }
      ],
      "name": "registerVoteSnapshot",
      "outputs": [],
      "stateMutability": "nonpayable",
      "type": "function"
    },
    {
      "inputs": [
        {
          "internalType": "bytes32",
          "name": "role",
          "type": "bytes32"
        },
        {
          "internalType": "address",
          "name": "callerConfirmation",
          "type": "address"
        }
      ],
      "name": "renounceRole",
      "outputs": [],
      "stateMutability": "nonpayable",
      "type": "function"
    },
    {
      "inputs": [
        {
          "internalType": "bytes32",
          "name": "role",
          "type": "bytes32"
        },
        {
          "internalType": "address",
          "name": "account",
          "type": "address"
        }
      ],
      "name": "revokeRole",
      "outputs": [],
      "stateMutability": "nonpayable",
      "type": "function"
    },
    {
      "inputs": [
        {
          "internalType": "uint256",
          "name": "",
          "type": "uint256"
        },
        {
          "internalType": "address",
          "name": "",
          "type": "address"
        }
      ],
      "name": "snapshotBalances",
      "outputs": [
        {
          "internalType": "uint256",
          "name": "",
          "type": "uint256"
        }
      ],
      "stateMutability": "view",
      "type": "function"
    },
    {
      "inputs": [],
      "name": "snapshotCounter",
      "outputs": [
        {
          "internalType": "uint256",
          "name": "",
          "type": "uint256"
        }
      ],
      "stateMutability": "view",
      "type": "function"
    },
    {
      "inputs": [
        {
          "internalType": "uint256",
          "name": "",
          "type": "uint256"
        }
      ],
      "name": "snapshotTimestamps",
      "outputs": [
        {
          "internalType": "uint256",
          "name": "",
          "type": "uint256"
        }
      ],
      "stateMutability": "view",
      "type": "function"
    },
    {
      "inputs": [
        {
          "internalType": "bytes4",
          "name": "interfaceId",
          "type": "bytes4"
        }
      ],
      "name": "supportsInterface",
      "outputs": [
        {
          "internalType": "bool",
          "name": "",
          "type": "bool"
        }
      ],
      "stateMutability": "view",
      "type": "function"
    },
    {
      "inputs": [],
      "name": "totalGrantsIssued",
      "outputs": [
        {
          "internalType": "uint256",
          "name": "",
          "type": "uint256"
        }
      ],
      "stateMutability": "view",
      "type": "function"
    },
    {
      "inputs": [],
      "name": "treasuryBalance",
      "outputs": [
        {
          "internalType": "uint256",
          "name": "",
          "type": "uint256"
        }
      ],
      "stateMutability": "view",
      "type": "function"
    },
    {
      "inputs": [
        {
          "internalType": "uint256",
          "name": "proposalId",
          "type": "uint256"
        }
      ],
      "name": "vetoProposal",
      "outputs": [],
      "stateMutability": "nonpayable",
      "type": "function"
    },
    {
      "inputs": [
        {
          "internalType": "uint256",
          "name": "",
          "type": "uint256"
        }
      ],
      "name": "vetoVoteCount",
      "outputs": [
        {
          "internalType": "uint256",
          "name": "",
          "type": "uint256"
        }
      ],
      "stateMutability": "view",
      "type": "function"
    },
    {
      "inputs": [
        {
          "internalType": "uint256",
          "name": "",
          "type": "uint256"
        },
        {
          "internalType": "address",
          "name": "",
          "type": "address"
        }
      ],
      "name": "vetoVotes",
      "outputs": [
        {
          "internalType": "bool",
          "name": "",
          "type": "bool"
        }
      ],
      "stateMutability": "view",
      "type": "function"
    },
    {
      "stateMutability": "payable",
      "type": "receive"
    }
  ],
  "bytecode": "0x60a060405234620001fc5762002715803803806200001d8162000217565b9283398101604082820312620001fc5762000038826200023d565b6020838101516001600160401b039491939291858211620001fc57019180601f84011215620001fc57825194851162000201576005928560051b9085806200008281850162000217565b809981520192820101928311620001fc5785809101915b838310620001e15750505050600192600160005560018060a01b03809216948515620001a7578051600381101590816200019a575b501562000155578495608052620000e53362000252565b506000945b62000125575b60405161237e9081620003778239608051818181610434015281816108a601528181610c1101528181610ea101526115c50152f35b80518510156200014f5785856200014685858499891b8601015116620002d3565b500194620000ea565b620000f0565b60405162461bcd60e51b815260048101839052601b60248201527f44414f3a20696e76616c696420677561726469616e20636f756e7400000000006044820152606490fd5b60079150111538620000ce565b60405162461bcd60e51b81526004810183905260126024820152712220a79d1034b73b30b634b2103a37b5b2b760711b6044820152606490fd5b8190620001ee846200023d565b815201910190859062000099565b600080fd5b634e487b7160e01b600052604160045260246000fd5b6040519190601f01601f191682016001600160401b038111838210176200020157604052565b51906001600160a01b0382168203620001fc57565b6001600160a01b031660008181527fa6eef7e35abe7026729641147f7915573c7e97b47efa546f5f6e3230263bcb49602052604081205490919060ff16620002cf5781805260016020526040822081835260205260408220600160ff198254161790553391600080516020620026f58339815191528180a4600190565b5090565b6001600160a01b031660008181527fe8fad4b49f5ba25b2c682cfec2ac50a7a40bbd1e12ab51733ec3e9c2f6f1c5db60205260408120549091907f55435dd261a4b9b3364963f7738a7a662ad9c84396d64be3365284bb7f0a50419060ff16620003715780835260016020526040832082845260205260408320600160ff19825416179055600080516020620026f5833981519152339380a4600190565b50509056fe60806040526004361015610023575b361561001957600080fd5b610021611f7c565b005b60003560e01c8063013cf08b14611b2557806301ffc9a714611acf57806307bd026514611a945780630d61b51914611743578063248a9ca31461171457806324d39e30146116d657806324ea54f41461169b5780632ccdf90e1461153f5780632f2ff15d14611500578063313dab20146114e257806336568abe1461149b57806336f3a6651461147d5780634a442f7214610de65780635652077c14610b7d5780635ba1c1a914610b5f57806362aef6f0146107b7578063698021381461076f5780636f65108c1461052f578063718b20581461051b5780638664165e146104ff5780638fef9f48146104ce57806391d148541461048157806392073251146104635780639bcfdfc01461041e578063a217fddf14610402578063a29dfff3146103e4578063a6c26603146103bf578063b1610d7e146103a1578063bd75bc4f14610384578063c7f758a8146102d7578063ce8e8f20146102ab578063d547741f1461026c578063da35c6641461024e578063dc70ea0914610222578063ee8a7c15146102065763fd3da3e30361000e5734610201576040366003190112610201576101cd611e15565b600435600052600260205260406000209060018060a01b0316600052602052602060ff604060002054166040519015158152f35b600080fd5b3461020157600036600319011261020157602060405160048152f35b346102015760203660031901126102015760043560005260056020526020604060002054604051908152f35b34610201576000366003190112610201576020600754604051908152f35b346102015760403660031901126102015761002160043561028b611e15565b908060005260016020526102a660016040600020015461201b565b6120c1565b346102015760203660031901126102015760043560005260036020526020604060002054604051908152f35b346102015760203660031901126102015760043560005260086020526040600020600181015460ff8160a01c1691600a81015490600b810154610367600361033860ff600d86015416946103316040518094819301611cfd565b0382611d93565b60405196879660018060a01b0316875261035181611db5565b602087015260c0604087015260c0860190611dd5565b926060850152608084015261037b81611db5565b60a08301520390f35b346102015760003660031901126102015760206040516105868152f35b3461020157600036600319011261020157602060405162093a808152f35b3461020157600036600319011261020157602060405169021e19e0c9bab24000008152f35b3461020157600036600319011261020157602060405162049d408152f35b3461020157600036600319011261020157602060405160008152f35b34610201576000366003190112610201576040517f00000000000000000000000000000000000000000000000000000000000000006001600160a01b03168152602090f35b34610201576000366003190112610201576020600b54604051908152f35b346102015760403660031901126102015761049a611e15565b600435600052600160205260406000209060018060a01b0316600052602052602060ff604060002054166040519015158152f35b3461020157602036600319011261020157600435600052600360205260408060002054815190815260036020820152f35b3461020157600036600319011261020157602060405160038152f35b600036600319011261020157610021611f7c565b346102015760208060031936011261020157600435907f55435dd261a4b9b3364963f7738a7a662ad9c84396d64be3365284bb7f0a50418060005260018252604060002033600052825260ff6040600020541615610751575081151580610745575b61059a90611e59565b8160005260088152600d6040600020019060ff8254166105b981611db5565b60018114908115610731575b50156106fa578260005260028152604060002033600052815260ff604060002054166106aa5782600052600281526040600020336000528152600360406000209160ff19926001848254161790558460005281815260406000206106298154611ef6565b905584600052818152604060002054604051908152857f81d5e7bbb86800b439193dee00e3cfbbd7dbda1918f5248713c5d82ff4f15037833393a384600052526003604060002054101561067957005b815416600617905533907fc2131db10d833d6b93ae553fa450ea0f6c0c2dfb0160cb3309468bf72718f3eb600080a3005b6084906040519062461bcd60e51b82526004820152602360248201527f44414f3a20677561726469616e20616c726561647920766f74656420746f207660448201526265746f60e81b6064820152fd5b6064906040519062461bcd60e51b82526004820152601060248201526f44414f3a2063616e6e6f74207665746f60801b6044820152fd5b6004915061073e81611db5565b14846105c5565b50600754821115610591565b6044906040519063e2517d3f60e01b82523360048301526024820152fd5b3461020157604036600319011261020157610788611e15565b600435600052600660205260406000209060018060a01b03166000526020526020604060002054604051908152f35b3461020157606036600319011261020157602460043581358015159081810361020157604491823567ffffffffffffffff8111610201576107fc903690600401611e2b565b93610805611ff8565b85151580610b53575b61081790611e59565b8560005260209360088552604060002090610844600160ff600d8501541661083e81611db5565b14611eaa565b60098201544311610b1c57601082013360005280875260ff60406000205416610ae457600f8301548060005260068852604060002033600052885260406000205415600014610ac7576040516370a0823160e01b815233600482015288818d817f00000000000000000000000000000000000000000000000000000000000000006001600160a01b03165afa908115610abb57600091610a8e575b5080916000526006895260406000203360005289526040600020555b8015610a545761090a906122e8565b8015610a1d5761058680820291820403610a08576103e890049384156109ce5750916109af93917fdb8cde5b35e4952cb6cb7b66683217a31b612d605f0e456621749b5e500180c6979695933360005287526040600020600160ff19825416179055601182018752826040600020556000146109b957600a0161098e828254611e9d565b90555b60405194859485528401526060604084015233956060840191611f5b565b0390a36001600055005b600b016109c7828254611e9d565b9055610991565b8774111053ce881dd95a59da1d081d1bdbc81cdb585b1b605a1b60649260158e6040519462461bcd60e51b86526004860152840152820152fd5b8a634e487b7160e01b60005260116004526000fd5b60405162461bcd60e51b8152600481018990526011818d015270111053ce881a5b9d985b1a59081cdc5c9d607a1b81870152606490fd5b60405162461bcd60e51b8152600481018990526014818d0152732220a79d103737903b37ba34b733903837bbb2b960611b81870152606490fd5b90508881813d8311610ab4575b610aa58183611d93565b8101031261020157518c6108df565b503d610a9b565b6040513d6000823e3d90fd5b6000526006875260406000203360005287526040600020546108fb565b60405162461bcd60e51b8152600481018890526012818c015271111053ce88185b1c9958591e481d9bdd195960721b81860152606490fd5b60405162461bcd60e51b8152600481018790526011818b015270111053ce881d9bdd1a5b99c8195b991959607a1b81850152606490fd5b5060075486111561080e565b346102015760003660031901126102015760206040516202a3008152f35b34610201576020806003193601126102015760043580151580610dda575b610ba490611e59565b8060005260088252604060002091600d830192835490600160ff8316610bc981611db5565b03610d9c576009810154431115610d6157600a810154610bfd600b83015492600c610bf48585611e9d565b91015490611e9d565b6040516318160ddd60e01b815285816004817f00000000000000000000000000000000000000000000000000000000000000006001600160a01b03165afa908115610abb57600091610d34575b508060021b9080820460041490151715610d0d576064610c6a91046122e8565b61058690818102918183041490151715610d0d576103e890041115610c9b575050505050600260ff19825416179055005b939492931115610d23575060ff199060038282541617905582600052600882526040600020906004600d830191825416179055600e429101556202a300420190814211610d0d577f9a2e42fd6722813d69113e7d0079d3d940171428df7373df9c7f7617cfda289291604051908152a2005b634e487b7160e01b600052601160045260246000fd5b60ff19166002179055506100219050565b90508581813d8311610d5a575b610d4b8183611d93565b81010312610201575188610c4a565b503d610d41565b60405162461bcd60e51b815260048101849052601360248201527244414f3a20766f74696e67206f6e676f696e6760681b6044820152606490fd5b60405162461bcd60e51b8152600481018490526016602482015275111053ce88185b1c9958591e48199a5b985b1a5e995960521b6044820152606490fd5b50600754811115610b9b565b346102015760c036600319011261020157600760043510156102015760243567ffffffffffffffff811161020157610e22903690600401611e2b565b60443567ffffffffffffffff811161020157610e42903690600401611e2b565b90929091906001600160a01b0360643581811681036102015760843567ffffffffffffffff811161020157610e7b903690600401611e2b565b919092610e86611ff8565b6040516370a0823160e01b81523360048201526020816024817f000000000000000000000000000000000000000000000000000000000000000086165afa8015610abb57600090611441575b69021e19e0c9bab24000009150106113fc5733600052600960205260406000205462093a808101809111610d0d5742106113b757851515806113ae575b15611373578082161580159061136b575b1561133057610f30600435612138565b96610f3c600454611ef6565b988960045589600052600560205242604060002055897f0a5b69dda4109f3b3c9a78321d06fd4c59f56d886e9c6c8abaddd33d3d16c1036020604051428152a2610f87600754611ef6565b98896007558960005260086020526040600020998a5560018a018054610fae600435611db5565b6001600160a81b0319163360ff60a01b19161760043560a01b60ff60a01b1617905560028a015567ffffffffffffffff881161122657610ffe88610ff560038c0154611cc3565b60038c01611f05565b600088601f81116001146112c3578061102d926000916112b8575b508160011b916000199060031b1c19161790565b60038a01555b67ffffffffffffffff82116112265761105c8261105360048c0154611cc3565b60048c01611f05565b600090601f83116001146112475761108d92916000918361123c575b50508160011b916000199060031b1c19161790565b60048801555b6005870191166bffffffffffffffffffffffff60a01b825416179055600685019167ffffffffffffffff8211611226576110d7826110d18554611cc3565b85611f05565b600090601f83116001146111be576111079291600091836111b35750508160011b916000199060031b1c19161790565b90555b60a435600784015543600884015562049d40430193844311610d0d57600f8460209660096111a3970155600d8101600160ff1982541617905501553360005260098452426040600020557f8356bc5007056a642094f44da4e8e22469db3e8a36b5811c0f91f735f1491c7960075493849260405191829161118c600435611db5565b600435835260408984015233966040840191611f5b565b0390a36001600055604051908152f35b013590508880611078565b601f198316918460005260206000209260005b81811061120e57509084600195949392106111f4575b505050811b01905561110a565b0135600019600384901b60f8161c191690558780806111e7565b919360206001819287870135815501950192016111d1565b634e487b7160e01b600052604160045260246000fd5b013590508b80611078565b60048a939293016000526020600020906000935b601f19841685106112a0576001945083601f19811610611286575b505050811b016004880155611093565b0135600019600384901b60f8161c191690558a8080611276565b8181013583556020948501946001909301920161125b565b90508901358d611019565b5060038a0160005260206000209060005b601f198b168110611318575089601f198116106112fe575b5050600188811b0160038a0155611033565b88013560001960038b901b60f8161c191690558a806112ec565b9091602060018192858d0135815501930191016112d4565b60405162461bcd60e51b8152602060048201526013602482015272111053ce881a5b9d985b1a59081d185c99d95d606a1b6044820152606490fd5b508215610f20565b60405162461bcd60e51b8152602060048201526013602482015272111053ce88195b5c1d1e481c1c9bdc1bdcd85b606a1b6044820152606490fd5b50861515610f0f565b60405162461bcd60e51b815260206004820152601d60248201527f44414f3a2070726f706f73616c20636f6f6c646f776e206163746976650000006044820152606490fd5b60405162461bcd60e51b815260206004820152601d60248201527f44414f3a20696e73756666696369656e74204b41492062616c616e63650000006044820152606490fd5b506020813d602011611475575b8161145b60209383611d93565b810103126102015769021e19e0c9bab24000009051610ed2565b3d915061144e565b34610201576000366003190112610201576020600454604051908152f35b34610201576040366003190112610201576114b4611e15565b336001600160a01b038216036114d057610021906004356120c1565b60405163334bd91960e11b8152600490fd5b34610201576000366003190112610201576020600a54604051908152f35b346102015760403660031901126102015761002160043561151f611e15565b9080600052600160205261153a60016040600020015461201b565b612041565b3461020157602080600319360112610201576004358015158061168f575b61156690611e59565b60005260088152600f604060002061158a600160ff600d8401541661083e81611db5565b0154908160005260068152604060002033600052815260406000205461164b576040516370a0823160e01b81523360048201529181836024817f00000000000000000000000000000000000000000000000000000000000000006001600160a01b03165afa928315610abb5760009361161c575b50600052600681526040600020903360005252604060002055600080f35b9092508181813d8311611644575b6116348183611d93565b81010312610201575191836115fe565b503d61162a565b6064906040519062461bcd60e51b82526004820152601760248201527f44414f3a20616c726561647920726567697374657265640000000000000000006044820152fd5b5060075481111561155d565b346102015760003660031901126102015760206040517f55435dd261a4b9b3364963f7738a7a662ad9c84396d64be3365284bb7f0a50418152f35b34610201576020366003190112610201576004356001600160a01b038116908190036102015760005260096020526020604060002054604051908152f35b346102015760203660031901126102015760043560005260016020526020600160406000200154604051908152f35b602080600319360112610201576004359061175c611ff8565b81151580611a88575b61176e90611e59565b81600052600881526040600020600d81018054600460ff821661179081611db5565b03611a515760ff8160081c16611a1457600e83015480156119c5576202a3008101809111610d0d57421061196a5761ffff191661010517905560058101546001600160a01b0316908161191f575b600660078201549101906040519160009080546117fa81611cc3565b9160019180831690811561190557506001146118ca575b505050916000939181859403925af13d156118c5573d67ffffffffffffffff8111611226576040519061184d601f8201601f1916850183611d93565b81526000833d92013e5b1561188957507f712ae1383f79ac853f8d882153778e0260ef8f03b504e2866e0593e04d2b291f600080a26001600055005b6064906040519062461bcd60e51b825260048201526015602482015274111053ce88195e1958dd5d1a5bdb8819985a5b1959605a1b6044820152fd5b611857565b909192506000528560002090866000925b8484106118f357505050908301905081836000611811565b805487850152920191879082016118db565b60ff19168752505050801515028301905081836000611811565b813b6117de5760405162461bcd60e51b815260048101849052601a60248201527f44414f3a20746172676574206e6f74206120636f6e74726163740000000000006044820152606490fd5b60405162461bcd60e51b815260048101859052602d60248201527f44414f3a2074696d656c6f636b206e6f7420657870697265642028343820686f60448201526c7572732072657175697265642960981b6064820152608490fd5b60405162461bcd60e51b815260048101869052602160248201527f44414f3a2070726f706f73616c206e6f742070726f7065726c792071756575656044820152601960fa1b6064820152608490fd5b60405162461bcd60e51b8152600481018590526015602482015274111053ce88185b1c9958591e48195e1958dd5d1959605a1b6044820152606490fd5b60405162461bcd60e51b815260048101859052600f60248201526e111053ce881b9bdd081c5d595d5959608a1b6044820152606490fd5b50600754821115611765565b346102015760003660031901126102015760206040517fd8aa0f3194971a2a116679f7c2090f6939c8d4e01a2a8d7e41d55e5351469e638152f35b346102015760203660031901126102015760043563ffffffff60e01b811680910361020157602090637965db0b60e01b8114908115611b14575b506040519015158152f35b6301ffc9a760e01b14905082611b09565b3461020157602036600319011261020157600435600052600860205260406000208054906001810154906002810154916080806003840190611b6691611cfd565b03608090611b7391611d93565b6040519182611b858160048401611cfd565b03611b909084611d93565b600581015460405193906001600160a01b031684611bb18160068601611cfd565b03611bbc9086611d93565b60078301549460088401546009850154600a86015491600b87015493600c88015495600d89015497600e8a015499600f01549a6040519e8f9e8f906102409384938352600160a01b60019003811660208401528060a01c60ff16611c1f90611db5565b60a01c60ff1660408301526060820152608001528d01608090611c4191611dd5565b8d810360a08f0152611c5291611dd5565b9060c08d01528b810360e08d0152611c6991611dd5565b986101008b01526101208a01526101408901526101608801526101808701526101a086015260ff8116611c9b90611db5565b60ff81166101c086015260081c60ff1615156101e08501526102008401526102208301520390f35b90600182811c92168015611cf3575b6020831014611cdd57565b634e487b7160e01b600052602260045260246000fd5b91607f1691611cd2565b805460009392611d0c82611cc3565b91828252602093600191600181169081600014611d745750600114611d33575b5050505050565b90939495506000929192528360002092846000945b838610611d6057505050500101903880808080611d2c565b805485870183015294019385908201611d48565b60ff19168685015250505090151560051b010191503880808080611d2c565b90601f8019910116810190811067ffffffffffffffff82111761122657604052565b60071115611dbf57565b634e487b7160e01b600052602160045260246000fd5b919082519283825260005b848110611e01575050826000602080949584010152601f8019910116010190565b602081830181015184830182015201611de0565b602435906001600160a01b038216820361020157565b9181601f840112156102015782359167ffffffffffffffff8311610201576020838186019501011161020157565b15611e6057565b60405162461bcd60e51b8152602060048201526015602482015274111053ce881a5b9d985b1a59081c1c9bdc1bdcd85b605a1b6044820152606490fd5b91908201809211610d0d57565b15611eb157565b60405162461bcd60e51b815260206004820152601860248201527f44414f3a2070726f706f73616c206e6f742061637469766500000000000000006044820152606490fd5b6000198114610d0d5760010190565b90601f8111611f1357505050565b6000916000526020600020906020601f850160051c83019410611f51575b601f0160051c01915b828110611f4657505050565b818155600101611f3a565b9092508290611f31565b908060209392818452848401376000828201840152601f01601f1916010190565b3415611fbf57611f8e34600a54611e9d565b600a556040513481527fe3407208b14fa025330ca187030f118a1c0cdb604aba93ba45c862e6095aee2760203392a2565b60405162461bcd60e51b8152602060048201526011602482015270111053ce881e995c9bc819195c1bdcda5d607a1b6044820152606490fd5b600260005414612009576002600055565b604051633ee5aeb560e01b8152600490fd5b80600052600160205260406000203360005260205260ff60406000205416156107515750565b906000918083526001602052604083209160018060a01b03169182845260205260ff604084205416156000146120bc5780835260016020526040832082845260205260408320600160ff198254161790557f2f8788117e7eff1d82e926ec794901d17c78024a50270940304540a733656f0d339380a4600190565b505090565b906000918083526001602052604083209160018060a01b03169182845260205260ff6040842054166000146120bc578083526001602052604083208284526020526040832060ff1981541690557ff6391f5c32d9c69d2a47ea670b442974b53935d1edc7fd64eb21e047a839171b339380a4600190565b61214181611db5565b80156122c35761215081611db5565b6001811461229e5761216181611db5565b600281146122795761217281611db5565b600381146122545761218381611db5565b6004811461222f5761219481611db5565b6005811461220a57806121a8600692611db5565b146121e65760405162461bcd60e51b815260206004820152601160248201527044414f3a20696e76616c6964207479706560781b6044820152606490fd5b7fd8a4d3633da7648033ee5503b607bcec5c898121c309d8edad00bcfdd49611b590565b507fa1e9d02531bfa3f01bb844ce56940ac6965013fca01c5873195ac16c23982ddc90565b507fc531c7fc964cc2580f7054179cb8b277b5b53e1be0da45de7363aaa829d242f290565b507f70773fd4869ed8636657380aa70e84be7c3b633d8fca7c66f22916a6768f32ef90565b507f3becb9388f60eaa6eb2f1551d63b3cfbd1eccf6d9b8d4de41a3c932032af0c7890565b507f221939fb0986a881283311db9a90814d53a2653dd9d53251cd3523ea04d612b390565b507f5e3dbdcca7207353488b39c5646a0dbad80d20ad58a244379c2723dab9da7cb390565b8015612342576001808201808311610d0d5760011c90825b83831061230d5750505090565b9192509082801561232d5780612324918304611e9d565b821c9190612300565b60246000634e487b7160e01b81526012600452fd5b5060009056fea2646970667358221220b60e51b112458aeae38371159d54b4dc3e551fb87ad0515e57b3cfb09ad7b4ba64736f6c634300081600332f8788117e7eff1d82e926ec794901d17c78024a50270940304540a733656f0d",
  "linkReferences": {},
  "deployedLinkReferences": {}
}