{
  "_format": "hh-sol-artifact-1",
  "contractName": "KAI_DAO",
  "sourceName": "contracts/KAI_DAO.sol",
  "abi": [
    {
      "inputs": [
        {
          "internalType": "address",
          "name": "_kaiToken",
          "type": "address"
        },
        {
          "internalType": "address[]",
          "name": "guardians",
          "type": "address[]"
        }
      ],
      "stateMutability": "nonpayable",
      "type": "constructor"
    },
    {
      "inputs": [],
      "name": "AccessControlBadConfirmation",
      "type": "error"
    },
    {
      "inputs": [
        {
          "internalType": "address",
          "name": "account",
          "type": "address"
        },
        {
          "internalType": "bytes32",
          "name": "neededRole",
          "type": "bytes32"
        }
      ],
      "name": "AccessControlUnauthorizedAccount",
      "type": "error"
    },
    {
      "inputs": [],
      "name": "ReentrancyGuardReentrantCall",
      "type": "error"
    },
    {
      "anonymous": false,
      "inputs": [
        {
          "indexed": true,
          "internalType": "address",
          "name": "recipient",
          "type": "address"
        },
        {
          "indexed": false,
          "internalType": "uint256",
          "name": "amount",
          "type": "uint256"
        },
        {
          "indexed": false,
          "internalType": "string",
          "name": "purpose",
          "type": "string"
        }
      ],
      "name": "GrantIssued",
      "type": "event"
    },
    {
      "anonymous": false,
      "inputs": [
        {
          "indexed": true,
          "internalType": "uint256",
          "name": "proposalId",
          "type": "uint256"
        },
        {
          "indexed": true,
          "internalType": "address",
          "name": "proposer",
          "type": "address"
        },
        {
          "indexed": false,
          "internalType": "enum KAI_DAO.ProposalType",
          "name": "proposalType",
          "type": "uint8"
        },
        {
          "indexed": false,
          "internalType": "string",
          "name": "title",
          "type": "string"
        }
      ],
      "name": "ProposalCreated",
      "type": "event"
    },
    {
      "anonymous": false,
      "inputs": [
        {
          "indexed": true,
          "internalType": "uint256",
          "name": "proposalId",
          "type": "uint256"
        }
      ],
      "name": "ProposalExecuted",
      "type": "event"
    },
    {
      "anonymous": false,
      "inputs": [
        {
          "indexed": true,
          "internalType": "uint256",
          "name": "proposalId",
          "type": "uint256"
        },
        {
          "indexed": false,
          "internalType": "uint256",
          "name": "executionTime",
          "type": "uint256"
        }
      ],
      "name": "ProposalQueued",
      "type": "event"
    },
    {
      "anonymous": false,
      "inputs": [
        {
          "indexed": true,
          "internalType": "uint256",
          "name": "proposalId",
          "type": "uint256"
        },
        {
          "indexed": true,
          "internalType": "address",
          "name": "guardian",
          "type": "address"
        }
      ],
      "name": "ProposalVetoed",
      "type": "event"
    },
    {
      "anonymous": false,
      "inputs": [
        {
          "indexed": true,
          "internalType": "bytes32",
          "name": "role",
          "type": "bytes32"
        },
        {
          "indexed": true,
          "internalType": "bytes32",
          "name": "previousAdminRole",
          "type": "bytes32"
        },
        {
          "indexed": true,
          "internalType": "bytes32",
          "name": "newAdminRole",
          "type": "bytes32"
        }
      ],
      "name": "RoleAdminChanged",
      "type": "event"
    },
    {
      "anonymous": false,
      "inputs": [
        {
          "indexed": true,
          "internalType": "bytes32",
          "name": "role",
          "type": "bytes32"
        },
        {
          "indexed": true,
          "internalType": "address",
          "name": "account",
          "type": "address"
        },
        {
          "indexed": true,
          "internalType": "address",
          "name": "sender",
          "type": "address"
        }
      ],
      "name": "RoleGranted",
      "type": "event"
    },
    {
      "anonymous": false,
      "inputs": [
        {
          "indexed": true,
          "internalType": "bytes32",
          "name": "role",
          "type": "bytes32"
        },
        {
          "indexed": true,
          "internalType": "address",
          "name": "account",
          "type": "address"
        },
        {
          "indexed": true,
          "internalType": "address",
          "name": "sender",
          "type": "address"
        }
      ],
      "name": "RoleRevoked",
      "type": "event"
    },
    {
      "anonymous": false,
      "inputs": [
        {
          "indexed": true,
          "internalType": "address",
          "name": "from",
          "type": "address"
        },
        {
          "indexed": false,
          "internalType": "uint256",
          "name": "amount",
          "type": "uint256"
        }
      ],
      "name": "TreasuryDeposit",
      "type": "event"
    },
    {
      "anonymous": false,
      "inputs": [
        {
          "indexed": true,
          "internalType": "address",
          "name": "voter",
          "type": "address"
        },
        {
          "indexed": true,
          "internalType": "uint256",
          "name": "proposalId",
          "type": "uint256"
        },
        {
          "indexed": false,
          "internalType": "bool",
          "name": "support",
          "type": "bool"
        },
        {
          "indexed": false,
          "internalType": "uint256",
          "name": "weight",
          "type": "uint256"
        },
        {
          "indexed": false,
          "internalType": "string",
          "name": "reason",
          "type": "string"
        }
      ],
      "name": "VoteCast",
      "type": "event"
    },
    {
      "inputs": [],
      "name": "DEFAULT_ADMIN_ROLE",
      "outputs": [
        {
          "internalType": "bytes32",
          "name": "",
          "type": "bytes32"
        }
      ],
      "stateMutability": "view",
      "type": "function"
    },
    {
      "inputs": [],
      "name": "EXECUTOR_ROLE",
      "outputs": [
        {
          "internalType": "bytes32",
          "name": "",
          "type": "bytes32"
        }
      ],
      "stateMutability": "view",
      "type": "function"
    },
    {
      "inputs": [],
      "name": "GUARDIAN_ROLE",
      "outputs": [
        {
          "internalType": "bytes32",
          "name": "",
          "type": "bytes32"
        }
      ],
      "stateMutability": "view",
      "type": "function"
    },
    {
      "inputs": [],
      "name": "PROPOSAL_THRESHOLD",
      "outputs": [
        {
          "internalType": "uint256",
          "name": "",
          "type": "uint256"
        }
      ],
      "stateMutability": "view",
      "type": "function"
    },
    {
      "inputs": [],
      "name": "QUADRATIC_MULTIPLIER",
      "outputs": [
        {
          "internalType": "uint256",
          "name": "",
          "type": "uint256"
        }
      ],
      "stateMutability": "view",
      "type": "function"
    },
    {
      "inputs": [],
      "name": "QUORUM_PERCENTAGE",
      "outputs": [
        {
          "internalType": "uint256",
          "name": "",
          "type": "uint256"
        }
      ],
      "stateMutability": "view",
      "type": "function"
    },
    {
      "inputs": [],
      "name": "TIMELOCK_DELAY",
      "outputs": [
        {
          "internalType": "uint256",
          "name": "",
          "type": "uint256"
        }
      ],
      "stateMutability": "view",
      "type": "function"
    },
    {
      "inputs": [],
      "name": "VOTING_PERIOD",
      "outputs": [
        {
          "internalType": "uint256",
          "name": "",
          "type": "uint256"
        }
      ],
      "stateMutability": "view",
      "type": "function"
    },
    {
      "inputs": [],
      "name": "VOTING_PERIOD_BLOCKS",
      "outputs": [
        {
          "internalType": "uint256",
          "name": "",
          "type": "uint256"
        }
      ],
      "stateMutability": "view",
      "type": "function"
    },
    {
      "inputs": [
        {
          "internalType": "uint256",
          "name": "proposalId",
          "type": "uint256"
        },
        {
          "internalType": "bool",
          "name": "support",
          "type": "bool"
        },
        {
          "internalType": "string",
          "name": "reason",
          "type": "string"
        }
      ],
      "name": "castVote",
      "outputs": [],
      "stateMutability": "nonpayable",
      "type": "function"
    },
    {
      "inputs": [],
      "name": "depositToTreasury",
      "outputs": [],
      "stateMutability": "payable",
      "type": "function"
    },
    {
      "inputs": [
        {
          "internalType": "uint256",
          "name": "proposalId",
          "type": "uint256"
        }
      ],
      "name": "executeProposal",
      "outputs": [],
      "stateMutability": "payable",
      "type": "function"
    },
    {
      "inputs": [
        {
          "internalType": "uint256",
          "name": "proposalId",
          "type": "uint256"
        }
      ],
      "name": "finalizeProposal",
      "outputs": [],
      "stateMutability": "nonpayable",
      "type": "function"
    },
    {
      "inputs": [
        {
          "internalType": "uint256",
          "name": "proposalId",
          "type": "uint256"
        }
      ],
      "name": "getProposal",
      "outputs": [
        {
          "internalType": "address",
          "name": "proposer",
          "type": "address"
        },
        {
          "internalType": "enum KAI_DAO.ProposalType",
          "name": "proposalType",
          "type": "uint8"
        },
        {
          "internalType": "string",
          "name": "title",
          "type": "string"
        },
        {
          "internalType": "uint256",
          "name": "forVotes",
          "type": "uint256"
        },
        {
          "internalType": "uint256",
          "name": "againstVotes",
          "type": "uint256"
        },
        {
          "internalType": "enum KAI_DAO.ProposalStatus",
          "name": "status",
          "type": "uint8"
        }
      ],
      "stateMutability": "view",
      "type": "function"
    },
    {
      "inputs": [
        {
          "internalType": "bytes32",
          "name": "role",
          "type": "bytes32"
        }
      ],
      "name": "getRoleAdmin",
      "outputs": [
        {
          "internalType": "bytes32",
          "name": "",
          "type": "bytes32"
        }
      ],
      "stateMutability": "view",
      "type": "function"
    },
    {
      "inputs": [
        {
          "internalType": "bytes32",
          "name": "role",
          "type": "bytes32"
        },
        {
          "internalType": "address",
          "name": "account",
          "type": "address"
        }
      ],
      "name": "grantRole",
      "outputs": [],
      "stateMutability": "nonpayable",
      "type": "function"
    },
    {
      "inputs": [
        {
          "internalType": "bytes32",
          "name": "role",
          "type": "bytes32"
        },
        {
          "internalType": "address",
          "name": "account",
          "type": "address"
        }
      ],
      "name": "hasRole",
      "outputs": [
        {
          "internalType": "bool",
          "name": "",
          "type": "bool"
        }
      ],
      "stateMutability": "view",
      "type": "function"
    },
    {
      "inputs": [],
      "name": "kaiToken",
      "outputs": [
        {
          "internalType": "contract KAIToken",
          "name": "",
          "type": "address"
        }
      ],
      "stateMutability": "view",
      "type": "function"
    },
    {
      "inputs": [],
      "name": "proposalCount",
      "outputs": [
        {
          "internalType": "uint256",
          "name": "",
          "type": "uint256"
        }
      ],
      "stateMutability": "view",
      "type": "function"
    },
    {
      "inputs": [
        {
          "internalType": "uint256",
          "name": "",
          "type": "uint256"
        }
      ],
      "name": "proposals",
      "outputs": [
        {
          "internalType": "uint256",
          "name": "id",
          "type": "uint256"
        },
        {
          "internalType": "address",
          "name": "proposer",
          "type": "address"
        },
        {
          "internalType": "enum KAI_DAO.ProposalType",
          "name": "proposalType",
          "type": "uint8"
        },
        {
          "internalType": "bytes32",
          "name": "seal",
          "type": "bytes32"
        },
        {
          "internalType": "string",
          "name": "title",
          "type": "string"
        },
        {
          "internalType": "string",
          "name": "description",
          "type": "string"
        },
        {
          "internalType": "address",
          "name": "target",
          "type": "address"
        },
        {
          "internalType": "bytes",
          "name": "callData",
          "type": "bytes"
        },
        {
          "internalType": "uint256",
          "name": "value",
          "type": "uint256"
        },
        {
          "internalType": "uint256",
          "name": "startBlock",
          "type": "uint256"
        },
        {
          "internalType": "uint256",
          "name": "endBlock",
          "type": "uint256"
        },
        {
          "internalType": "uint256",
          "name": "forVotes",
          "type": "uint256"
        },
        {
          "internalType": "uint256",
          "name": "againstVotes",
          "type": "uint256"
        },
        {
          "internalType": "uint256",
          "name": "abstainVotes",
          "type": "uint256"
        },
        {
          "internalType": "enum KAI_DAO.ProposalStatus",
          "name": "status",
          "type": "uint8"
        },
        {
          "internalType": "bool",
          "name": "executed",
          "type": "bool"
        }
      ],
      "stateMutability": "view",
      "type": "function"
    },
    {
      "inputs": [
        {
          "internalType": "enum KAI_DAO.ProposalType",
          "name": "proposalType",
          "type": "uint8"
        },
        {
          "internalType": "string",
          "name": "title",
          "type": "string"
        },
        {
          "internalType": "string",
          "name": "description",
          "type": "string"
        },
        {
          "internalType": "address",
          "name": "target",
          "type": "address"
        },
        {
          "internalType": "bytes",
          "name": "callData",
          "type": "bytes"
        },
        {
          "internalType": "uint256",
          "name": "value",
          "type": "uint256"
        }
      ],
      "name": "propose",
      "outputs": [
        {
          "internalType": "uint256",
          "name": "",
          "type": "uint256"
        }
      ],
      "stateMutability": "nonpayable",
      "type": "function"
    },
    {
      "inputs": [
        {
          "internalType": "address",
          "name": "",
          "type": "address"
        }
      ],
      "name": "proposerLastProposal",
      "outputs": [
        {
          "internalType": "uint256",
          "name": "",
          "type": "uint256"
        }
      ],
      "stateMutability": "view",
      "type": "function"
    },
    {
      "inputs": [
        {
          "internalType": "bytes32",
          "name": "role",
          "type": "bytes32"
        },
        {
          "internalType": "address",
          "name": "callerConfirmation",
          "type": "address"
        }
      ],
      "name": "renounceRole",
      "outputs": [],
      "stateMutability": "nonpayable",
      "type": "function"
    },
    {
      "inputs": [
        {
          "internalType": "bytes32",
          "name": "role",
          "type": "bytes32"
        },
        {
          "internalType": "address",
          "name": "account",
          "type": "address"
        }
      ],
      "name": "revokeRole",
      "outputs": [],
      "stateMutability": "nonpayable",
      "type": "function"
    },
    {
      "inputs": [
        {
          "internalType": "bytes4",
          "name": "interfaceId",
          "type": "bytes4"
        }
      ],
      "name": "supportsInterface",
      "outputs": [
        {
          "internalType": "bool",
          "name": "",
          "type": "bool"
        }
      ],
      "stateMutability": "view",
      "type": "function"
    },
    {
      "inputs": [],
      "name": "totalGrantsIssued",
      "outputs": [
        {
          "internalType": "uint256",
          "name": "",
          "type": "uint256"
        }
      ],
      "stateMutability": "view",
      "type": "function"
    },
    {
      "inputs": [],
      "name": "treasuryBalance",
      "outputs": [
        {
          "internalType": "uint256",
          "name": "",
          "type": "uint256"
        }
      ],
      "stateMutability": "view",
      "type": "function"
    },
    {
      "inputs": [
        {
          "internalType": "uint256",
          "name": "proposalId",
          "type": "uint256"
        }
      ],
      "name": "vetoProposal",
      "outputs": [],
      "stateMutability": "nonpayable",
      "type": "function"
    },
    {
      "stateMutability": "payable",
      "type": "receive"
    }
  ],
  "bytecode": "0x60a0604052346200021257620021bb803803806200001d816200022d565b92833981016040828203126200021257620000388262000253565b6020838101516001600160401b0394929391928582116200021257019080601f8301121562000212578151948511620002175760059185831b908480620000818185016200022d565b809981520192820101928311620002125784809101915b838310620001f7575050505060019260009284845560018060a01b03809216958615620001bd57805160038110159081620001b0575b50156200016b578596608052620000e53362000268565b5084965b6200011d575b604051611e0e90816200038d8239608051818181610337015281816106050152818161097b0152610be00152f35b805187101562000165576200013b838389871b8401015116620002e9565b50600019871462000151578580970196620000e9565b634e487b7160e01b85526011600452602485fd5b620000ef565b60405162461bcd60e51b815260048101839052601b60248201527f44414f3a20696e76616c696420677561726469616e20636f756e7400000000006044820152606490fd5b60079150111538620000ce565b60405162461bcd60e51b81526004810183905260126024820152712220a79d1034b73b30b634b2103a37b5b2b760711b6044820152606490fd5b8190620002048462000253565b815201910190849062000098565b600080fd5b634e487b7160e01b600052604160045260246000fd5b6040519190601f01601f191682016001600160401b038111838210176200021757604052565b51906001600160a01b03821682036200021257565b6001600160a01b031660008181527fa6eef7e35abe7026729641147f7915573c7e97b47efa546f5f6e3230263bcb49602052604081205490919060ff16620002e55781805260016020526040822081835260205260408220600160ff1982541617905533916000805160206200219b8339815191528180a4600190565b5090565b6001600160a01b031660008181527fe8fad4b49f5ba25b2c682cfec2ac50a7a40bbd1e12ab51733ec3e9c2f6f1c5db60205260408120549091907f55435dd261a4b9b3364963f7738a7a662ad9c84396d64be3365284bb7f0a50419060ff16620003875780835260016020526040832082845260205260408320600160ff198254161790556000805160206200219b833981519152339380a4600190565b50509056fe60806040526004361015610023575b361561001957600080fd5b610021611b4d565b005b60003560e01c8063013cf08b1461163957806301ffc9a7146115e357806307bd0265146115a85780630d61b519146112ca578063248a9ca31461129b57806324d39e301461125d57806324ea54f4146112225780632f2ff15d146111e3578063313dab20146111c557806336568abe1461117e5780634a442f7214610b275780635652077c146108e75780635ba1c1a9146108c957806362aef6f0146105405780636f65108c146103e5578063718b2058146103d157806391d148541461038457806392073251146103665780639bcfdfc014610321578063a217fddf14610305578063a29dfff3146102e7578063a6c26603146102c2578063b1610d7e146102a4578063bd75bc4f14610287578063c7f758a8146101da578063d547741f1461019b578063da35c6641461017d5763ee8a7c150361000e573461017857600036600319011261017857602060405160048152f35b600080fd5b34610178576000366003190112610178576020600254604051908152f35b34610178576040366003190112610178576100216004356101ba611903565b908060005260016020526101d5600160406000200154611947565b6119ed565b346101785760203660031901126101785760043560005260036020526040600020600181015460ff8160a01c1691600a81015490600b81015461026a600361023b60ff600d860154169461023460405180948193016117eb565b0382611881565b60405196879660018060a01b03168752610254816118a3565b602087015260c0604087015260c08601906118c3565b926060850152608084015261027e816118a3565b60a08301520390f35b346101785760003660031901126101785760206040516105868152f35b3461017857600036600319011261017857602060405162093a808152f35b3461017857600036600319011261017857602060405169021e19e0c9bab24000008152f35b3461017857600036600319011261017857602060405162049d408152f35b3461017857600036600319011261017857602060405160008152f35b34610178576000366003190112610178576040517f00000000000000000000000000000000000000000000000000000000000000006001600160a01b03168152602090f35b34610178576000366003190112610178576020600654604051908152f35b346101785760403660031901126101785761039d611903565b600435600052600160205260406000209060018060a01b0316600052602052602060ff604060002054166040519015158152f35b600036600319011261017857610021611b4d565b34610178576020366003190112610178573360009081527fe8fad4b49f5ba25b2c682cfec2ac50a7a40bbd1e12ab51733ec3e9c2f6f1c5db6020526040902054600435907f55435dd261a4b9b3364963f7738a7a662ad9c84396d64be3365284bb7f0a50419060ff1615610522575080151580610516575b61046690611b09565b806000526003602052600d604060002001805460ff8116610486816118a3565b60018114908115610502575b50156104ca5760ff1916600617905533907fc2131db10d833d6b93ae553fa450ea0f6c0c2dfb0160cb3309468bf72718f3eb600080a3005b60405162461bcd60e51b815260206004820152601060248201526f44414f3a2063616e6e6f74207665746f60801b6044820152606490fd5b6004915061050f816118a3565b1484610492565b5060025481111561045d565b6044906040519063e2517d3f60e01b82523360048301526024820152fd5b3461017857606036600319011261017857602460043581358015159081810361017857604491823567ffffffffffffffff811161017857610585903690600401611919565b9361058e611ae6565b851515806108bd575b6105a090611b09565b8560005260209360038552604060002090600160ff600d840154166105c4816118a3565b0361087a576009820154431161084357600e82013360005280875260ff6040600020541661080b576040516370a0823160e01b815233600482015287818c817f00000000000000000000000000000000000000000000000000000000000000006001600160a01b03165afa9081156107ff576000916107d2575b5080156107985761064e90611d79565b8015610761576105868082029182040361074c576103e890049384156107125750916106f393917fdb8cde5b35e4952cb6cb7b66683217a31b612d605f0e456621749b5e500180c6979695933360005287526040600020600160ff19825416179055600f82018752826040600020556000146106fd57600a016106d2828254611a64565b90555b60405194859485528401526060604084015233956060840191611ac5565b0390a36001600055005b600b0161070b828254611a64565b90556106d5565b8774111053ce881dd95a59da1d081d1bdbc81cdb585b1b605a1b60649260158e6040519462461bcd60e51b86526004860152840152820152fd5b8a634e487b7160e01b60005260116004526000fd5b60405162461bcd60e51b8152600481018990526011818d015270111053ce881a5b9d985b1a59081cdc5c9d607a1b81870152606490fd5b60405162461bcd60e51b8152600481018990526014818d0152732220a79d103737903b37ba34b733903837bbb2b960611b81870152606490fd5b90508781813d83116107f8575b6107e98183611881565b8101031261017857518b61063e565b503d6107df565b6040513d6000823e3d90fd5b60405162461bcd60e51b8152600481018890526012818c015271111053ce88185b1c9958591e481d9bdd195960721b81860152606490fd5b60405162461bcd60e51b8152600481018790526011818b015270111053ce881d9bdd1a5b99c8195b991959607a1b81850152606490fd5b60405162461bcd60e51b8152600481018790526018818b01527f44414f3a2070726f706f73616c206e6f7420616374697665000000000000000081850152606490fd5b50600254861115610597565b346101785760003660031901126101785760206040516202a3008152f35b34610178576020806003193601126101785760043580151580610b1b575b61090e90611b09565b8060005260038252604060002091600d830192835490600160ff8316610933816118a3565b03610add576009810154431115610aa257600a810154610967600b83015492600c61095e8585611a64565b91015490611a64565b6040516318160ddd60e01b815285816004817f00000000000000000000000000000000000000000000000000000000000000006001600160a01b03165afa9081156107ff57600091610a75575b508060021b9080820460041490151715610a4e576064900411156109e4575050505050600260ff19825416179055005b939492931115610a64575060ff199060038282541617905582600052600382526004600d604060002001918254161790556202a300420190814211610a4e577f9a2e42fd6722813d69113e7d0079d3d940171428df7373df9c7f7617cfda289291604051908152a2005b634e487b7160e01b600052601160045260246000fd5b60ff19166002179055506100219050565b90508581813d8311610a9b575b610a8c8183611881565b810103126101785751886109b4565b503d610a82565b60405162461bcd60e51b815260048101849052601360248201527244414f3a20766f74696e67206f6e676f696e6760681b6044820152606490fd5b60405162461bcd60e51b8152600481018490526016602482015275111053ce88185b1c9958591e48199a5b985b1a5e995960521b6044820152606490fd5b50600254811115610905565b346101785760c036600319011261017857600760043510156101785760243567ffffffffffffffff811161017857610b63903690600401611919565b60443567ffffffffffffffff811161017857610b83903690600401611919565b909190606435906001600160a01b03821682036101785760843567ffffffffffffffff811161017857610bba903690600401611919565b929091610bc5611ae6565b6040516370a0823160e01b81523360048201526020816024817f00000000000000000000000000000000000000000000000000000000000000006001600160a01b03165afa80156107ff57600090611142575b69021e19e0c9bab24000009150106110fd5733600052600460205260406000205462093a808101809111610a4e5742106110b857841515806110af575b15611074576001600160a01b0382161580159061106c575b1561103157610c7d600435611bc9565b956002546000198114610a4e5760010196876002558760005260036020526040600020978855600188018054610cb46004356118a3565b6001600160a81b0319163360ff60a01b19161760043560a01b60ff60a01b16179055600288015567ffffffffffffffff8611610f2457610d0486610cfb60038a01546117b1565b60038a01611a71565b856000601f8211600114610fc157600091610fb6575b508660011b906000198860031b1c19161760038801555b67ffffffffffffffff8211610f24578190610d5c82610d5360048b01546117b1565b60048b01611a71565b600090601f8311600114610f4557600092610f3a575b50508160011b916000199060031b1c19161760048601555b6005850180546001600160a01b0319166001600160a01b0390921691909117905567ffffffffffffffff8211610f24578190610dd682610dcd60068801546117b1565b60068801611a71565b600090601f8311600114610eb357600092610ea8575b50508160011b916000199060031b1c19161760068301555b60a435600783015543600883015562049d40430192834311610a4e57600d836020956009610e9896015501600160ff198254161790553360005260048452426040600020557f8356bc5007056a642094f44da4e8e22469db3e8a36b5811c0f91f735f1491c79600254938492604051918291610e816004356118a3565b600435835260408984015233966040840191611ac5565b0390a36001600055604051908152f35b013590508580610dec565b909250600685016000526020600020906000935b601f1984168510610f0c576001945083601f19811610610ef2575b505050811b016006830155610e04565b0135600019600384901b60f8161c19169055858080610ee2565b81810135835560209485019460019093019201610ec7565b634e487b7160e01b600052604160045260246000fd5b013590508880610d72565b909250600488016000526020600020906000935b601f1984168510610f9e576001945083601f19811610610f84575b505050811b016004860155610d8a565b0135600019600384901b60f8161c19169055888080610f74565b81810135835560209485019460019093019201610f59565b905088013589610d1a565b90506003880160005260206000209060005b8a601f198a16821061101957505087601f19811610610fff575b5050600186811b016003880155610d31565b890135600019600389901b60f8161c191690558880610fed565b60018394602093948493013581550193019101610fd3565b60405162461bcd60e51b8152602060048201526013602482015272111053ce881a5b9d985b1a59081d185c99d95d606a1b6044820152606490fd5b508315610c6d565b60405162461bcd60e51b8152602060048201526013602482015272111053ce88195b5c1d1e481c1c9bdc1bdcd85b606a1b6044820152606490fd5b50801515610c55565b60405162461bcd60e51b815260206004820152601d60248201527f44414f3a2070726f706f73616c20636f6f6c646f776e206163746976650000006044820152606490fd5b60405162461bcd60e51b815260206004820152601d60248201527f44414f3a20696e73756666696369656e74204b41492062616c616e63650000006044820152606490fd5b506020813d602011611176575b8161115c60209383611881565b810103126101785769021e19e0c9bab24000009051610c18565b3d915061114f565b3461017857604036600319011261017857611197611903565b336001600160a01b038216036111b357610021906004356119ed565b60405163334bd91960e11b8152600490fd5b34610178576000366003190112610178576020600554604051908152f35b3461017857604036600319011261017857610021600435611202611903565b9080600052600160205261121d600160406000200154611947565b61196d565b346101785760003660031901126101785760206040517f55435dd261a4b9b3364963f7738a7a662ad9c84396d64be3365284bb7f0a50418152f35b34610178576020366003190112610178576004356001600160a01b038116908190036101785760005260046020526020604060002054604051908152f35b346101785760203660031901126101785760043560005260016020526020600160406000200154604051908152f35b602080600319360112610178576004356112e2611ae6565b8015158061159c575b6112f490611b09565b8060005260038252604060002091600d83018054600460ff8216611317816118a3565b036115655760ff8160081c166115285760098501546202a3008101809111610a4e5742106114e35761ffff191661010517905560058301546001600160a01b031680611498575b6006600785015494019360405190600086549661137a886117b1565b9060019889811690816000146114815750600114611449575b5050916000939181859403925af13d15611444573d67ffffffffffffffff8111610f2457604051906113ce601f8201601f1916850183611881565b81526000833d92013e5b1561140857507f712ae1383f79ac853f8d882153778e0260ef8f03b504e2866e0593e04d2b291f600080a2600055005b6064906040519062461bcd60e51b825260048201526015602482015274111053ce88195e1958dd5d1a5bdb8819985a5b1959605a1b6044820152fd5b6113d8565b9091506000528460002085886000925b84841061146f5750505090830190508183611393565b80548488015201910190888791611459565b60ff19168652505080151502830190508183611393565b803b61135e5760405162461bcd60e51b815260048101839052601a60248201527f44414f3a20746172676574206e6f74206120636f6e74726163740000000000006044820152606490fd5b60405162461bcd60e51b815260048101849052601960248201527f44414f3a2074696d656c6f636b206e6f742065787069726564000000000000006044820152606490fd5b60405162461bcd60e51b8152600481018490526015602482015274111053ce88185b1c9958591e48195e1958dd5d1959605a1b6044820152606490fd5b60405162461bcd60e51b815260048101849052600f60248201526e111053ce881b9bdd081c5d595d5959608a1b6044820152606490fd5b506002548111156112eb565b346101785760003660031901126101785760206040517fd8aa0f3194971a2a116679f7c2090f6939c8d4e01a2a8d7e41d55e5351469e638152f35b346101785760203660031901126101785760043563ffffffff60e01b811680910361017857602090637965db0b60e01b8114908115611628575b506040519015158152f35b6301ffc9a760e01b1490508261161d565b346101785760203660031901126101785760043560005260036020526040600020805460018201549160028101546080806003840190611678916117eb565b0360809061168591611881565b604051918261169781600484016117eb565b036116a29084611881565b600581015460405193906001600160a01b0316846116c381600686016117eb565b036116ce9086611881565b6007830154946008840154600985015491600a86015493600b87015495600c88015497600d0154986040519c8d9c8d528c600160a01b600190038216906020015260a01c60ff1661171e816118a3565b60408d015260608c01526102008060808d01528b0160809061173f916118c3565b8b810360a08d0152611750916118c3565b9060c08b015289810360e08b0152611767916118c3565b966101008901526101208801526101408701526101608601526101808501526101a084015260ff8116611799816118a3565b6101c084015260081c60ff1615156101e08301520390f35b90600182811c921680156117e1575b60208310146117cb57565b634e487b7160e01b600052602260045260246000fd5b91607f16916117c0565b90600092918054916117fc836117b1565b91828252600193848116908160001461185e575060011461181e575b50505050565b90919394506000526020928360002092846000945b83861061184a575050505001019038808080611818565b805485870183015294019385908201611833565b9294505050602093945060ff191683830152151560051b01019038808080611818565b90601f8019910116810190811067ffffffffffffffff821117610f2457604052565b600711156118ad57565b634e487b7160e01b600052602160045260246000fd5b919082519283825260005b8481106118ef575050826000602080949584010152601f8019910116010190565b6020818301810151848301820152016118ce565b602435906001600160a01b038216820361017857565b9181601f840112156101785782359167ffffffffffffffff8311610178576020838186019501011161017857565b80600052600160205260406000203360005260205260ff60406000205416156105225750565b906000918083526001602052604083209160018060a01b03169182845260205260ff604084205416156000146119e85780835260016020526040832082845260205260408320600160ff198254161790557f2f8788117e7eff1d82e926ec794901d17c78024a50270940304540a733656f0d339380a4600190565b505090565b906000918083526001602052604083209160018060a01b03169182845260205260ff6040842054166000146119e8578083526001602052604083208284526020526040832060ff1981541690557ff6391f5c32d9c69d2a47ea670b442974b53935d1edc7fd64eb21e047a839171b339380a4600190565b91908201809211610a4e57565b90601f8111611a7f57505050565b600091825260208220906020601f850160051c83019410611abb575b601f0160051c01915b828110611ab057505050565b818155600101611aa4565b9092508290611a9b565b908060209392818452848401376000828201840152601f01601f1916010190565b600260005414611af7576002600055565b604051633ee5aeb560e01b8152600490fd5b15611b1057565b60405162461bcd60e51b8152602060048201526015602482015274111053ce881a5b9d985b1a59081c1c9bdc1bdcd85b605a1b6044820152606490fd5b3415611b9057611b5f34600554611a64565b6005556040513481527fe3407208b14fa025330ca187030f118a1c0cdb604aba93ba45c862e6095aee2760203392a2565b60405162461bcd60e51b8152602060048201526011602482015270111053ce881e995c9bc819195c1bdcda5d607a1b6044820152606490fd5b611bd2816118a3565b8015611d5457611be1816118a3565b60018114611d2f57611bf2816118a3565b60028114611d0a57611c03816118a3565b60038114611ce557611c14816118a3565b60048114611cc057611c25816118a3565b60058114611c9b5780611c396006926118a3565b14611c775760405162461bcd60e51b815260206004820152601160248201527044414f3a20696e76616c6964207479706560781b6044820152606490fd5b7fd8a4d3633da7648033ee5503b607bcec5c898121c309d8edad00bcfdd49611b590565b507fa1e9d02531bfa3f01bb844ce56940ac6965013fca01c5873195ac16c23982ddc90565b507fc531c7fc964cc2580f7054179cb8b277b5b53e1be0da45de7363aaa829d242f290565b507f70773fd4869ed8636657380aa70e84be7c3b633d8fca7c66f22916a6768f32ef90565b507f3becb9388f60eaa6eb2f1551d63b3cfbd1eccf6d9b8d4de41a3c932032af0c7890565b507f221939fb0986a881283311db9a90814d53a2653dd9d53251cd3523ea04d612b390565b507f5e3dbdcca7207353488b39c5646a0dbad80d20ad58a244379c2723dab9da7cb390565b8015611dd2576001808201808311610a4e57811c90825b838310611d9d5750505090565b91925090828015611dbd5780611db4918304611a64565b821c9190611d90565b60246000634e487b7160e01b81526012600452fd5b5060009056fea26469706673582212200160894327393b581144e3686b3fdbd3fab4375db5b987a2e30074e0987f0a4564736f6c634300081400332f8788117e7eff1d82e926ec794901d17c78024a50270940304540a733656f0d",
  "linkReferences": {},
  "deployedLinkReferences": {}
}