{
  "_format": "hh-sol-artifact-1",
  "contractName": "KAIRevenue",
  "sourceName": "contracts/KAIRevenue.sol",
  "abi": [
    {
      "inputs": [
        {
          "internalType": "address",
          "name": "_kaiToken",
          "type": "address"
        },
        {
          "internalType": "address",
          "name": "_treasury",
          "type": "address"
        },
        {
          "internalType": "address",
          "name": "admin",
          "type": "address"
        }
      ],
      "stateMutability": "nonpayable",
      "type": "constructor"
    },
    {
      "inputs": [],
      "name": "AccessControlBadConfirmation",
      "type": "error"
    },
    {
      "inputs": [
        {
          "internalType": "address",
          "name": "account",
          "type": "address"
        },
        {
          "internalType": "bytes32",
          "name": "neededRole",
          "type": "bytes32"
        }
      ],
      "name": "AccessControlUnauthorizedAccount",
      "type": "error"
    },
    {
      "inputs": [],
      "name": "EnforcedPause",
      "type": "error"
    },
    {
      "inputs": [],
      "name": "ExpectedPause",
      "type": "error"
    },
    {
      "inputs": [],
      "name": "ReentrancyGuardReentrantCall",
      "type": "error"
    },
    {
      "anonymous": false,
      "inputs": [
        {
          "indexed": true,
          "internalType": "address",
          "name": "user",
          "type": "address"
        },
        {
          "indexed": false,
          "internalType": "string",
          "name": "endpoint",
          "type": "string"
        },
        {
          "indexed": false,
          "internalType": "uint256",
          "name": "price",
          "type": "uint256"
        }
      ],
      "name": "APICallPaid",
      "type": "event"
    },
    {
      "anonymous": false,
      "inputs": [
        {
          "indexed": true,
          "internalType": "address",
          "name": "user",
          "type": "address"
        },
        {
          "indexed": false,
          "internalType": "enum KAIRevenue.AlertType",
          "name": "alertType",
          "type": "uint8"
        },
        {
          "indexed": false,
          "internalType": "uint256",
          "name": "price",
          "type": "uint256"
        },
        {
          "indexed": false,
          "internalType": "uint256",
          "name": "revenue",
          "type": "uint256"
        }
      ],
      "name": "AlertPurchased",
      "type": "event"
    },
    {
      "anonymous": false,
      "inputs": [
        {
          "indexed": false,
          "internalType": "address",
          "name": "account",
          "type": "address"
        }
      ],
      "name": "Paused",
      "type": "event"
    },
    {
      "anonymous": false,
      "inputs": [
        {
          "indexed": false,
          "internalType": "uint256",
          "name": "amount",
          "type": "uint256"
        },
        {
          "indexed": false,
          "internalType": "uint256",
          "name": "totalRevenue",
          "type": "uint256"
        }
      ],
      "name": "RevenueCollected",
      "type": "event"
    },
    {
      "anonymous": false,
      "inputs": [
        {
          "indexed": true,
          "internalType": "bytes32",
          "name": "role",
          "type": "bytes32"
        },
        {
          "indexed": true,
          "internalType": "bytes32",
          "name": "previousAdminRole",
          "type": "bytes32"
        },
        {
          "indexed": true,
          "internalType": "bytes32",
          "name": "newAdminRole",
          "type": "bytes32"
        }
      ],
      "name": "RoleAdminChanged",
      "type": "event"
    },
    {
      "anonymous": false,
      "inputs": [
        {
          "indexed": true,
          "internalType": "bytes32",
          "name": "role",
          "type": "bytes32"
        },
        {
          "indexed": true,
          "internalType": "address",
          "name": "account",
          "type": "address"
        },
        {
          "indexed": true,
          "internalType": "address",
          "name": "sender",
          "type": "address"
        }
      ],
      "name": "RoleGranted",
      "type": "event"
    },
    {
      "anonymous": false,
      "inputs": [
        {
          "indexed": true,
          "internalType": "bytes32",
          "name": "role",
          "type": "bytes32"
        },
        {
          "indexed": true,
          "internalType": "address",
          "name": "account",
          "type": "address"
        },
        {
          "indexed": true,
          "internalType": "address",
          "name": "sender",
          "type": "address"
        }
      ],
      "name": "RoleRevoked",
      "type": "event"
    },
    {
      "anonymous": false,
      "inputs": [
        {
          "indexed": true,
          "internalType": "address",
          "name": "user",
          "type": "address"
        },
        {
          "indexed": false,
          "internalType": "enum KAIRevenue.SubscriptionPlan",
          "name": "plan",
          "type": "uint8"
        },
        {
          "indexed": false,
          "internalType": "uint256",
          "name": "price",
          "type": "uint256"
        },
        {
          "indexed": false,
          "internalType": "uint256",
          "name": "expiresAt",
          "type": "uint256"
        }
      ],
      "name": "SubscriptionPurchased",
      "type": "event"
    },
    {
      "anonymous": false,
      "inputs": [
        {
          "indexed": true,
          "internalType": "address",
          "name": "user",
          "type": "address"
        },
        {
          "indexed": false,
          "internalType": "enum KAIRevenue.SubscriptionPlan",
          "name": "plan",
          "type": "uint8"
        },
        {
          "indexed": false,
          "internalType": "uint256",
          "name": "expiresAt",
          "type": "uint256"
        }
      ],
      "name": "SubscriptionRenewed",
      "type": "event"
    },
    {
      "anonymous": false,
      "inputs": [
        {
          "indexed": false,
          "internalType": "address",
          "name": "account",
          "type": "address"
        }
      ],
      "name": "Unpaused",
      "type": "event"
    },
    {
      "inputs": [],
      "name": "ADMIN_ROLE",
      "outputs": [
        {
          "internalType": "bytes32",
          "name": "",
          "type": "bytes32"
        }
      ],
      "stateMutability": "view",
      "type": "function"
    },
    {
      "inputs": [],
      "name": "ALERT_BASIC",
      "outputs": [
        {
          "internalType": "uint256",
          "name": "",
          "type": "uint256"
        }
      ],
      "stateMutability": "view",
      "type": "function"
    },
    {
      "inputs": [],
      "name": "ALERT_PREMIUM",
      "outputs": [
        {
          "internalType": "uint256",
          "name": "",
          "type": "uint256"
        }
      ],
      "stateMutability": "view",
      "type": "function"
    },
    {
      "inputs": [],
      "name": "ALERT_URGENT",
      "outputs": [
        {
          "internalType": "uint256",
          "name": "",
          "type": "uint256"
        }
      ],
      "stateMutability": "view",
      "type": "function"
    },
    {
      "inputs": [],
      "name": "API_PRICE_BASIC",
      "outputs": [
        {
          "internalType": "uint256",
          "name": "",
          "type": "uint256"
        }
      ],
      "stateMutability": "view",
      "type": "function"
    },
    {
      "inputs": [],
      "name": "API_PRICE_BULK",
      "outputs": [
        {
          "internalType": "uint256",
          "name": "",
          "type": "uint256"
        }
      ],
      "stateMutability": "view",
      "type": "function"
    },
    {
      "inputs": [],
      "name": "API_PRICE_PREMIUM",
      "outputs": [
        {
          "internalType": "uint256",
          "name": "",
          "type": "uint256"
        }
      ],
      "stateMutability": "view",
      "type": "function"
    },
    {
      "inputs": [],
      "name": "API_PRICE_STANDARD",
      "outputs": [
        {
          "internalType": "uint256",
          "name": "",
          "type": "uint256"
        }
      ],
      "stateMutability": "view",
      "type": "function"
    },
    {
      "inputs": [],
      "name": "DEFAULT_ADMIN_ROLE",
      "outputs": [
        {
          "internalType": "bytes32",
          "name": "",
          "type": "bytes32"
        }
      ],
      "stateMutability": "view",
      "type": "function"
    },
    {
      "inputs": [],
      "name": "ORACLE_ROLE",
      "outputs": [
        {
          "internalType": "bytes32",
          "name": "",
          "type": "bytes32"
        }
      ],
      "stateMutability": "view",
      "type": "function"
    },
    {
      "inputs": [],
      "name": "SUBSCRIPTION_BASIC",
      "outputs": [
        {
          "internalType": "uint256",
          "name": "",
          "type": "uint256"
        }
      ],
      "stateMutability": "view",
      "type": "function"
    },
    {
      "inputs": [],
      "name": "SUBSCRIPTION_ENTERPRISE",
      "outputs": [
        {
          "internalType": "uint256",
          "name": "",
          "type": "uint256"
        }
      ],
      "stateMutability": "view",
      "type": "function"
    },
    {
      "inputs": [],
      "name": "SUBSCRIPTION_PREMIUM",
      "outputs": [
        {
          "internalType": "uint256",
          "name": "",
          "type": "uint256"
        }
      ],
      "stateMutability": "view",
      "type": "function"
    },
    {
      "inputs": [],
      "name": "activeSubscribers",
      "outputs": [
        {
          "internalType": "uint256",
          "name": "",
          "type": "uint256"
        }
      ],
      "stateMutability": "view",
      "type": "function"
    },
    {
      "inputs": [
        {
          "internalType": "enum KAIRevenue.AlertType",
          "name": "alertType",
          "type": "uint8"
        }
      ],
      "name": "buyAlert",
      "outputs": [
        {
          "internalType": "uint256",
          "name": "",
          "type": "uint256"
        }
      ],
      "stateMutability": "nonpayable",
      "type": "function"
    },
    {
      "inputs": [
        {
          "internalType": "enum KAIRevenue.APITier",
          "name": "tier",
          "type": "uint8"
        }
      ],
      "name": "getAPIPrice",
      "outputs": [
        {
          "internalType": "uint256",
          "name": "",
          "type": "uint256"
        }
      ],
      "stateMutability": "pure",
      "type": "function"
    },
    {
      "inputs": [
        {
          "internalType": "address",
          "name": "user",
          "type": "address"
        }
      ],
      "name": "getCustomerStats",
      "outputs": [
        {
          "internalType": "uint256",
          "name": "spent",
          "type": "uint256"
        },
        {
          "internalType": "uint256",
          "name": "alerts",
          "type": "uint256"
        },
        {
          "internalType": "enum KAIRevenue.SubscriptionPlan",
          "name": "plan",
          "type": "uint8"
        },
        {
          "internalType": "bool",
          "name": "hasSubscription",
          "type": "bool"
        }
      ],
      "stateMutability": "view",
      "type": "function"
    },
    {
      "inputs": [],
      "name": "getRevenueStats",
      "outputs": [
        {
          "internalType": "uint256",
          "name": "_totalRevenue",
          "type": "uint256"
        },
        {
          "internalType": "uint256",
          "name": "_monthlyRevenue",
          "type": "uint256"
        },
        {
          "internalType": "uint256",
          "name": "_activeSubscribers",
          "type": "uint256"
        },
        {
          "internalType": "uint256",
          "name": "_totalCustomers",
          "type": "uint256"
        }
      ],
      "stateMutability": "view",
      "type": "function"
    },
    {
      "inputs": [
        {
          "internalType": "bytes32",
          "name": "role",
          "type": "bytes32"
        }
      ],
      "name": "getRoleAdmin",
      "outputs": [
        {
          "internalType": "bytes32",
          "name": "",
          "type": "bytes32"
        }
      ],
      "stateMutability": "view",
      "type": "function"
    },
    {
      "inputs": [
        {
          "internalType": "enum KAIRevenue.AlertType",
          "name": "alertType",
          "type": "uint8"
        }
      ],
      "name": "getSubscriberAlert",
      "outputs": [
        {
          "internalType": "uint256",
          "name": "",
          "type": "uint256"
        }
      ],
      "stateMutability": "nonpayable",
      "type": "function"
    },
    {
      "inputs": [
        {
          "internalType": "address",
          "name": "user",
          "type": "address"
        }
      ],
      "name": "getSubscription",
      "outputs": [
        {
          "internalType": "enum KAIRevenue.SubscriptionPlan",
          "name": "plan",
          "type": "uint8"
        },
        {
          "internalType": "uint256",
          "name": "expiresAt",
          "type": "uint256"
        },
        {
          "internalType": "uint256",
          "name": "alertsUsed",
          "type": "uint256"
        },
        {
          "internalType": "bool",
          "name": "active",
          "type": "bool"
        },
        {
          "internalType": "bool",
          "name": "expired",
          "type": "bool"
        }
      ],
      "stateMutability": "view",
      "type": "function"
    },
    {
      "inputs": [
        {
          "internalType": "bytes32",
          "name": "role",
          "type": "bytes32"
        },
        {
          "internalType": "address",
          "name": "account",
          "type": "address"
        }
      ],
      "name": "grantRole",
      "outputs": [],
      "stateMutability": "nonpayable",
      "type": "function"
    },
    {
      "inputs": [
        {
          "internalType": "address",
          "name": "user",
          "type": "address"
        }
      ],
      "name": "hasActiveSubscription",
      "outputs": [
        {
          "internalType": "bool",
          "name": "",
          "type": "bool"
        }
      ],
      "stateMutability": "view",
      "type": "function"
    },
    {
      "inputs": [
        {
          "internalType": "bytes32",
          "name": "role",
          "type": "bytes32"
        },
        {
          "internalType": "address",
          "name": "account",
          "type": "address"
        }
      ],
      "name": "hasRole",
      "outputs": [
        {
          "internalType": "bool",
          "name": "",
          "type": "bool"
        }
      ],
      "stateMutability": "view",
      "type": "function"
    },
    {
      "inputs": [],
      "name": "kaiToken",
      "outputs": [
        {
          "internalType": "contract KAIToken",
          "name": "",
          "type": "address"
        }
      ],
      "stateMutability": "view",
      "type": "function"
    },
    {
      "inputs": [],
      "name": "monthlyRevenue",
      "outputs": [
        {
          "internalType": "uint256",
          "name": "",
          "type": "uint256"
        }
      ],
      "stateMutability": "view",
      "type": "function"
    },
    {
      "inputs": [],
      "name": "pause",
      "outputs": [],
      "stateMutability": "nonpayable",
      "type": "function"
    },
    {
      "inputs": [],
      "name": "paused",
      "outputs": [
        {
          "internalType": "bool",
          "name": "",
          "type": "bool"
        }
      ],
      "stateMutability": "view",
      "type": "function"
    },
    {
      "inputs": [
        {
          "internalType": "string",
          "name": "endpoint",
          "type": "string"
        },
        {
          "internalType": "enum KAIRevenue.APITier",
          "name": "tier",
          "type": "uint8"
        }
      ],
      "name": "payForAPICall",
      "outputs": [],
      "stateMutability": "nonpayable",
      "type": "function"
    },
    {
      "inputs": [],
      "name": "renewSubscription",
      "outputs": [],
      "stateMutability": "nonpayable",
      "type": "function"
    },
    {
      "inputs": [
        {
          "internalType": "bytes32",
          "name": "role",
          "type": "bytes32"
        },
        {
          "internalType": "address",
          "name": "callerConfirmation",
          "type": "address"
        }
      ],
      "name": "renounceRole",
      "outputs": [],
      "stateMutability": "nonpayable",
      "type": "function"
    },
    {
      "inputs": [],
      "name": "resetMonthlyRevenue",
      "outputs": [],
      "stateMutability": "nonpayable",
      "type": "function"
    },
    {
      "inputs": [
        {
          "internalType": "bytes32",
          "name": "role",
          "type": "bytes32"
        },
        {
          "internalType": "address",
          "name": "account",
          "type": "address"
        }
      ],
      "name": "revokeRole",
      "outputs": [],
      "stateMutability": "nonpayable",
      "type": "function"
    },
    {
      "inputs": [
        {
          "internalType": "enum KAIRevenue.SubscriptionPlan",
          "name": "plan",
          "type": "uint8"
        }
      ],
      "name": "subscribe",
      "outputs": [],
      "stateMutability": "nonpayable",
      "type": "function"
    },
    {
      "inputs": [
        {
          "internalType": "address",
          "name": "",
          "type": "address"
        }
      ],
      "name": "subscriptions",
      "outputs": [
        {
          "internalType": "enum KAIRevenue.SubscriptionPlan",
          "name": "plan",
          "type": "uint8"
        },
        {
          "internalType": "uint256",
          "name": "expiresAt",
          "type": "uint256"
        },
        {
          "internalType": "uint256",
          "name": "alertsUsed",
          "type": "uint256"
        },
        {
          "internalType": "bool",
          "name": "active",
          "type": "bool"
        }
      ],
      "stateMutability": "view",
      "type": "function"
    },
    {
      "inputs": [
        {
          "internalType": "bytes4",
          "name": "interfaceId",
          "type": "bytes4"
        }
      ],
      "name": "supportsInterface",
      "outputs": [
        {
          "internalType": "bool",
          "name": "",
          "type": "bool"
        }
      ],
      "stateMutability": "view",
      "type": "function"
    },
    {
      "inputs": [
        {
          "internalType": "address",
          "name": "",
          "type": "address"
        }
      ],
      "name": "totalAlerts",
      "outputs": [
        {
          "internalType": "uint256",
          "name": "",
          "type": "uint256"
        }
      ],
      "stateMutability": "view",
      "type": "function"
    },
    {
      "inputs": [],
      "name": "totalCustomers",
      "outputs": [
        {
          "internalType": "uint256",
          "name": "",
          "type": "uint256"
        }
      ],
      "stateMutability": "view",
      "type": "function"
    },
    {
      "inputs": [],
      "name": "totalRevenue",
      "outputs": [
        {
          "internalType": "uint256",
          "name": "",
          "type": "uint256"
        }
      ],
      "stateMutability": "view",
      "type": "function"
    },
    {
      "inputs": [
        {
          "internalType": "address",
          "name": "",
          "type": "address"
        }
      ],
      "name": "totalSpent",
      "outputs": [
        {
          "internalType": "uint256",
          "name": "",
          "type": "uint256"
        }
      ],
      "stateMutability": "view",
      "type": "function"
    },
    {
      "inputs": [],
      "name": "treasury",
      "outputs": [
        {
          "internalType": "address",
          "name": "",
          "type": "address"
        }
      ],
      "stateMutability": "view",
      "type": "function"
    },
    {
      "inputs": [],
      "name": "unpause",
      "outputs": [],
      "stateMutability": "nonpayable",
      "type": "function"
    },
    {
      "inputs": [
        {
          "internalType": "address",
          "name": "newTreasury",
          "type": "address"
        }
      ],
      "name": "updateTreasury",
      "outputs": [],
      "stateMutability": "nonpayable",
      "type": "function"
    }
  ],
  "bytecode": "0x60a034620001ae57601f62001ee738819003918201601f1916830191906001600160401b03831184841017620001b3578160609285926040958652833981010312620001ae576200005082620001c9565b916200006c826200006460208401620001c9565b9201620001c9565b600180556001600160a01b039384169390919084156200017a578082161562000143578216156200010f5760809390935260028054610100600160a81b03191660089490941b610100600160a81b03169390931790925590620000db90620000d481620001de565b506200025e565b5051611bc6908162000301823960805181818161070f015281816109b701528181610cc30152818161108e01526117630152f35b825162461bcd60e51b815260206004820152600d60248201526c24b73b30b634b21030b236b4b760991b6044820152606490fd5b835162461bcd60e51b815260206004820152601060248201526f496e76616c696420747265617375727960801b6044820152606490fd5b835162461bcd60e51b815260206004820152600d60248201526c24b73b30b634b2103a37b5b2b760991b6044820152606490fd5b600080fd5b634e487b7160e01b600052604160045260246000fd5b51906001600160a01b0382168203620001ae57565b6001600160a01b031660008181527fad3228b676f7d3cd4284a5443f17f1962b36e491b30a40b2405849e597ba5fb5602052604081205490919060ff166200025a57818052816020526040822081835260205260408220600160ff19825416179055339160008051602062001ec78339815191528180a4600190565b5090565b6001600160a01b031660008181527f7d7ffb7a348e1c6a02869081a26547b49160dd3df72d1d75a570eb9b698292ec60205260408120549091907fa49807205ce4d355092ef5a8a18f56e8913cf4a201fbe287825b095693c217759060ff16620002fb57808352826020526040832082845260205260408320600160ff1982541617905560008051602062001ec7833981519152339380a4600190565b50509056fe60806040908082526004918236101561001757600080fd5b600091823560e01c90816301ffc9a7146114925750806307e2cea5146114585780630b71e00b1461143a5780630cbebc241461138d5780630e79053014610c095780631866dcfb1461136f578063195155841461135157806321c1461e146108c3578063248a9ca3146113275780632f2ff15d146112fd5780632f65f2761461124957806330a6cb5a14610ffa57806336568abe14610fb55780633f4ba83a14610f4b57806340740fc614610f1457806349c7e63914610c0e5780634aaf027b14610c0957806351115c3614610be757806359e141a914610bc45780635c975abb14610ba157806361d027b314610b755780636e3079811461090257806375b238fc146108c85780637ced7174146108c35780637f51bb1f146108315780638456cb59146107d757806385491651146107b457806386600f711461078457806391d148541461073e5780639bcfdfc0146106fb578063a217fddf146106e1578063a8949b46146106ab578063ac18992c14610673578063ad8e2dce14610650578063b9234bd61461062e578063bebe4a57146105a5578063bf2d9e0b14610587578063ca966f3514610564578063cea7b63b146104df578063d547741f146104a0578063ee2f3bb71461047d578063f046395a146104135763f3921fc3146101fe57600080fd5b3461040f576020928360031936011261040b57803590600782101561040757610225611aba565b61022d611add565b338452600385528284209060ff600383015416156103cb57600182015442101561039157600160ff83541661026181611517565b146102fd575b5060020161027581546118e8565b90553383526005845281832061028b81546118e8565b90558151848101906102b1816102a3854233876118f7565b03601f1981018352826115b0565b51902092600654906102c58451809461192b565b85830152828201527fb6891ceaf8d9f7e25b595d720b980b89b2f4062dd371d4757dcc950c147a6c2860603392a26001805551908152f35b600a6002830154101561035657600183031561026757835162461bcd60e51b8152908101869052601860248201527f506c616e206f6e6c7920636f766572732064726f7567687400000000000000006044820152606490fd5b835162461bcd60e51b81529081018690526015602482015274135bdb9d1a1b1e481b1a5b5a5d081c995858da1959605a1b6044820152606490fd5b835162461bcd60e51b8152908101869052601460248201527314dd589cd8dc9a5c1d1a5bdb88195e1c1a5c995960621b6044820152606490fd5b835162461bcd60e51b8152908101869052601660248201527527379030b1ba34bb329039bab139b1b934b83a34b7b760511b6044820152606490fd5b8380fd5b8280fd5b5080fd5b503461040f57602036600319011261040f5760809181906001600160a01b0361043a6114e6565b1681526003602052209060ff8254169160018101549160ff60036002840154930154169281519461046a81611517565b8552602085015283015215156060820152f35b823461049d578060031936011261049d5761049661199c565b8060075580f35b80fd5b5082903461040b578060031936011261040b576104db91356104d660016104c5611501565b938387528660205286200154611a16565b611afb565b5080f35b503461040f57602036600319011261040f576080926001600160a01b036105046114e6565b168352602052808220549160056020528180822054916003602052209160ff8354169160ff6003850154169384610556575b508151948552602085015261054a82611517565b83015215156060820152f35b600101544210935038610536565b503461040f578160031936011261040f5760209051680821ab0d44149800008152f35b503461040f578160031936011261040f576020906006549051908152f35b503461040f57602036600319011261040f576020916060919081906001600160a01b036105d06114e6565b168152600385522081516105e38161157e565b60ff8254166105f181611517565b815260ff600360018401549384888501526002810154868501520154161515938491015282610624575b50519015158152f35b421091508361061b565b503461040f578160031936011261040f5760209051670de0b6b3a76400008152f35b503461040f578160031936011261040f5760209051681b1ae4d6e2ef5000008152f35b503461040f578160031936011261040f5760809060065490600754906008549060095492815194855260208501528301526060820152f35b50823461040b57602036600319011261040b5760209282916001600160a01b036106d36114e6565b168252845220549051908152f35b503461040f578160031936011261040f5751908152602090f35b503461040f578160031936011261040f57517f00000000000000000000000000000000000000000000000000000000000000006001600160a01b03168152602090f35b50823461040b578160031936011261040b578160209360ff9261075f611501565b903582528186528282206001600160a01b039091168252855220549151911615158152f35b50903461049d57602036600319011261049d5782359283101561049d57506107ad602092611938565b9051908152f35b503461040f578160031936011261040f57602090516801a055690d9db800008152f35b503461040f578160031936011261040f5760207f62e78cea01bee320cd4e420270b5ea74000d11b0c9f74754ebdbfc544b05a2589161081461199c565b61081c611add565b600160ff19600254161760025551338152a180f35b50823461040b57602036600319011261040b5761084c6114e6565b9161085561199c565b6001600160a01b0383161561088e57505060028054610100600160a81b03191660089290921b610100600160a81b031691909117905580f35b906020606492519162461bcd60e51b8352820152600f60248201526e496e76616c6964206164647265737360881b6044820152fd5b61155b565b503461040f578160031936011261040f57602090517fa49807205ce4d355092ef5a8a18f56e8913cf4a201fbe287825b095693c217758152f35b503461040f578160031936011261040f5761091b611aba565b610923611add565b3382526020600381528183209060ff82541661093e81611517565b8015610b405761094d81611517565b60018103610b0f57506802b5e3af16b1880000915b60018101805460025486516323b872dd60e01b815233818b0190815260089290921c6001600160a01b0390811660208401526040830188905293949342939093119290918691839182908c90829060600103927f0000000000000000000000000000000000000000000000000000000000000000165af1908115610b0557906109f2918991610ad8575b5061162a565b62278d004201804211610ac5579760ff9291600080516020611b71833981519152989985558960028401556003830160018519825416179055610ab2575b610a3c86600654611667565b600655610a4b86600754611667565b6007553389528452858820610a61868254611667565b905554169054845191610a7381611517565b8252828201527f1af2f2c576585623f24cdd3d12995de86e6d2ef881e797dab79b51bc71fb0a9a843392a2600654908351928352820152a16001805580f35b610abd6008546118e8565b600855610a30565b634e487b7160e01b885260118952602488fd5b610af89150863d8811610afe575b610af081836115b0565b810190611612565b386109ec565b503d610ae6565b87513d8a823e3d90fd5b80610b1b600292611517565b03610b3057680821ab0d441498000091610962565b681b1ae4d6e2ef50000091610962565b835162461bcd60e51b8152808701839052600f60248201526e27379039bab139b1b934b83a34b7b760891b6044820152606490fd5b503461040f578160031936011261040f57600254905160089190911c6001600160a01b03168152602090f35b503461040f578160031936011261040f5760209060ff6002541690519015158152f35b503461040f578160031936011261040f57602090516802b5e3af16b18800008152f35b503461040f578160031936011261040f5760209051674563918244f400008152f35b611537565b503461040f5760208060031936011261040b578335908482101561040757610c34611aba565b610c3c611add565b610c4582611517565b8115610ee3573384526003815260ff6003848620015416610eac57610c6982611517565b60018203610e7b576802b5e3af16b1880000915b60025484516323b872dd60e01b81523381890190815260089290921c6001600160a01b0390811660208401526040830186905290918491839182908a90829060600103927f0000000000000000000000000000000000000000000000000000000000000000165af1908115610e715790610cfd918791610e5a575061162a565b62278d004201804211610e47578596600080516020611b71833981519152968651610d278161157e565b610d3085611517565b84815260ff6003878301928684528a81018581528b606083019660018852338152848c5220915194610d6186611517565b610d6a86611517565b841995858785541691161783555160018301555160028201550192511515918354169116179055610d9d85600654611667565b600655610dac85600754611667565b6007553388528352848720610dc2858254611667565b9055610dcf6008546118e8565b600855338752600583528487205415610e34575b845191610def81611517565b82528383830152848201527f559531f26d3d225cebcd22eb4b5a893fffe267028468d998315d80fd4bdd22fb60603392a2600654908351928352820152a16001805580f35b610e3f6009546118e8565b600955610de3565b634e487b7160e01b865260118752602486fd5b610af89150843d8611610afe57610af081836115b0565b85513d88823e3d90fd5b610e8482611517565b60028203610e9c57680821ab0d441498000091610c7d565b681b1ae4d6e2ef50000091610c7d565b8460649184519162461bcd60e51b83528201526012602482015271105b1c9958591e481cdd589cd8dc9a58995960721b6044820152fd5b8460649184519162461bcd60e51b8352820152600c60248201526b24b73b30b634b210383630b760a11b6044820152fd5b503461040f57602036600319011261040f5760209181906001600160a01b03610f3b6114e6565b1681526005845220549051908152f35b50823461040b578260031936011261040b57610f6561199c565b6002549060ff821615610fa7575060ff1916600255513381527f5db9ee0a495bf2e6ff9c91a7834c1ba4fdd244a5e8aa4e537bd38aeae4b073aa90602090a180f35b8251638dfc202b60e01b8152fd5b503461040f578060031936011261040f57610fce611501565b90336001600160a01b03831603610feb57506104db919235611afb565b5163334bd91960e11b81528390fd5b503461040f576020928360031936011261040b57803592600784101561049d57611022611aba565b61102a611add565b8060038514801561123d575b156111f057506801a055690d9db80000915b60025484516323b872dd60e01b81523383820190815260089290921c6001600160a01b0390811660208401526040830186905290918891839182908790829060600103927f0000000000000000000000000000000000000000000000000000000000000000165af19081156111e657906110c89184916111cf575061162a565b6110d483600654611667565b6006556110e383600754611667565b6007553382528086528382206110fa848254611667565b905533825260058652838220805491600183018093116111bc5750553381526005855282902054600080516020611b718339815191529183916001146111a9575b815186810190611151816102a3894233876118f7565b51902094600654906111658451809261192b565b828882015281848201527fb6891ceaf8d9f7e25b595d720b980b89b2f4062dd371d4757dcc950c147a6c2860603392a2825191825286820152a16001805551908152f35b6111b46009546118e8565b60095561113b565b634e487b7160e01b845260119052602483fd5b610af89150883d8a11610afe57610af081836115b0565b85513d85823e3d90fd5b61122b5783158015611221575b15611212576801158e460913d0000091611048565b678ac7230489e8000091611048565b50600284146111fd565b6021602492634e487b7160e01b835252fd5b50508060068514611036565b50823461040b578160031936011261040b57803567ffffffffffffffff928382116112f957366023830112156112f957818301359384116112e657519284919061129d601f8201601f1916602001866115b0565b808552366024828401011161040b578060246020930183870137840101526024359081101561040b576112df916112d2611aba565b6112da611add565b61168a565b6001805580f35b634e487b7160e01b855260418352602485fd5b8480fd5b5082903461040b578060031936011261040b576104db913561132260016104c5611501565b611a3c565b50823461040b57602036600319011261040b57816020936001923581528085522001549051908152f35b503461040f578160031936011261040f576020906008549051908152f35b503461040f578160031936011261040f576020906009549051908152f35b503461040f57602036600319011261040f5760a09181906001600160a01b036113b46114e6565b1681526003602052208151916113c98361157e565b60ff825416926113d884611517565b838152600183015460208201908152606060ff60036002870154968686019788520154169201911515825261140c85611517565b519251905115159180519461142081611517565b855283602086015284015260608301524210156080820152f35b503461040f578160031936011261040f576020906007549051908152f35b503461040f578160031936011261040f57602090517f68e79a7bf1e0bc45d0a330c573bc367f9cf464fd326078812f301165fbda4ef18152f35b8390853461040b57602036600319011261040b573563ffffffff60e01b811680910361040b5760209250637965db0b60e01b81149081156114d5575b5015158152f35b6301ffc9a760e01b149050836114ce565b600435906001600160a01b03821682036114fc57565b600080fd5b602435906001600160a01b03821682036114fc57565b6004111561152157565b634e487b7160e01b600052602160045260246000fd5b346114fc5760003660031901126114fc5760206040516801158e460913d000008152f35b346114fc5760003660031901126114fc576020604051678ac7230489e800008152f35b6080810190811067ffffffffffffffff82111761159a57604052565b634e487b7160e01b600052604160045260246000fd5b90601f8019910116810190811067ffffffffffffffff82111761159a57604052565b919082519283825260005b8481106115fe575050826000602080949584010152601f8019910116010190565b6020818301810151848301820152016115dd565b908160209103126114fc575180151581036114fc5790565b1561163157565b60405162461bcd60e51b815260206004820152600e60248201526d14185e5b595b9d0819985a5b195960921b6044820152606490fd5b9190820180921161167457565b634e487b7160e01b600052601160045260246000fd5b919061169581611517565b8061189a5750670de0b6b3a76400005b3360005260209060038252604091826000208351906116c38261157e565b600360ff8254166116d381611517565b808452606060ff8360018601549588880196875260028101548b8901520154169401931515845261170381611517565b61170c81611517565b14918261188f575b5081611884575b5061183e5760025483516323b872dd60e01b81523360048201526001600160a01b0360089290921c8216602482015260448101849052959082908790816000816064810103927f0000000000000000000000000000000000000000000000000000000000000000165af195861561183357600080516020611b7183398151915295966117ae91600091610e5a575061162a565b6117ba83600654611667565b6006556117c983600754611667565b6007553360005260048252836000206117e3848254611667565b90557f59d994eb6ef2b5603b42db4c9f52ce55d11e498a58b1b2e1d8325c1e27227e34611818855192868452868401906115d2565b9184848201528033930390a2600654908351928352820152a1565b84513d6000823e3d90fd5b92938291506118786000917f59d994eb6ef2b5603b42db4c9f52ce55d11e498a58b1b2e1d8325c1e27227e349451938085528401906115d2565b938201528033930390a2565b90505142103861171b565b511515915038611714565b6118a381611517565b600181036118ba5750674563918244f400006116a5565b806118c6600292611517565b036118d957678ac7230489e800006116a5565b6801158e460913d000006116a5565b60001981146116745760010190565b91906bffffffffffffffffffffffff199060601b168252601482015260078210156115215760359160f81b60348201520190565b9060078210156115215752565b61194181611517565b801561198f5761195081611517565b600181146119825780611964600292611517565b14611976576801158e460913d0000090565b678ac7230489e8000090565b50674563918244f4000090565b50670de0b6b3a764000090565b3360009081527f7d7ffb7a348e1c6a02869081a26547b49160dd3df72d1d75a570eb9b698292ec60205260409020547fa49807205ce4d355092ef5a8a18f56e8913cf4a201fbe287825b095693c217759060ff16156119f85750565b6044906040519063e2517d3f60e01b82523360048301526024820152fd5b80600052600060205260406000203360005260205260ff60406000205416156119f85750565b9060009180835282602052604083209160018060a01b03169182845260205260ff60408420541615600014611ab557808352826020526040832082845260205260408320600160ff198254161790557f2f8788117e7eff1d82e926ec794901d17c78024a50270940304540a733656f0d339380a4600190565b505090565b600260015414611acb576002600155565b604051633ee5aeb560e01b8152600490fd5b60ff60025416611ae957565b60405163d93c066560e01b8152600490fd5b9060009180835282602052604083209160018060a01b03169182845260205260ff604084205416600014611ab55780835282602052604083208284526020526040832060ff1981541690557ff6391f5c32d9c69d2a47ea670b442974b53935d1edc7fd64eb21e047a839171b339380a460019056fe260112779147faadda998a86d390693b98cd3e17626b4bda74bd9574145faa4fa2646970667358221220cbdc0b48a4399925c17c5cba000743568e9f9f50f5f2a3b0a811715d174bbc2d64736f6c634300081600332f8788117e7eff1d82e926ec794901d17c78024a50270940304540a733656f0d",
  "linkReferences": {},
  "deployedLinkReferences": {}
}