{
  "_format": "hh-sol-artifact-1",
  "contractName": "KaiHealth",
  "sourceName": "contracts/pillars/KaiHealth.sol",
  "abi": [
    {
      "inputs": [
        {
          "internalType": "address",
          "name": "_kaiToken",
          "type": "address"
        },
        {
          "internalType": "address",
          "name": "admin",
          "type": "address"
        }
      ],
      "stateMutability": "nonpayable",
      "type": "constructor"
    },
    {
      "inputs": [],
      "name": "AccessControlBadConfirmation",
      "type": "error"
    },
    {
      "inputs": [
        {
          "internalType": "address",
          "name": "account",
          "type": "address"
        },
        {
          "internalType": "bytes32",
          "name": "neededRole",
          "type": "bytes32"
        }
      ],
      "name": "AccessControlUnauthorizedAccount",
      "type": "error"
    },
    {
      "inputs": [],
      "name": "EnforcedPause",
      "type": "error"
    },
    {
      "inputs": [],
      "name": "ExpectedPause",
      "type": "error"
    },
    {
      "inputs": [],
      "name": "ReentrancyGuardReentrantCall",
      "type": "error"
    },
    {
      "anonymous": false,
      "inputs": [
        {
          "indexed": true,
          "internalType": "uint256",
          "name": "certId",
          "type": "uint256"
        },
        {
          "indexed": true,
          "internalType": "address",
          "name": "producer",
          "type": "address"
        },
        {
          "indexed": false,
          "internalType": "string",
          "name": "certType",
          "type": "string"
        }
      ],
      "name": "CertificationIssued",
      "type": "event"
    },
    {
      "anonymous": false,
      "inputs": [
        {
          "indexed": true,
          "internalType": "uint256",
          "name": "certId",
          "type": "uint256"
        },
        {
          "indexed": false,
          "internalType": "string",
          "name": "reason",
          "type": "string"
        }
      ],
      "name": "CertificationRevoked",
      "type": "event"
    },
    {
      "anonymous": false,
      "inputs": [
        {
          "indexed": true,
          "internalType": "uint256",
          "name": "inspectionId",
          "type": "uint256"
        },
        {
          "indexed": true,
          "internalType": "address",
          "name": "producer",
          "type": "address"
        },
        {
          "indexed": false,
          "internalType": "uint256",
          "name": "riskScore",
          "type": "uint256"
        },
        {
          "indexed": false,
          "internalType": "bool",
          "name": "passed",
          "type": "bool"
        }
      ],
      "name": "InspectionCompleted",
      "type": "event"
    },
    {
      "anonymous": false,
      "inputs": [
        {
          "indexed": true,
          "internalType": "uint256",
          "name": "outbreakId",
          "type": "uint256"
        },
        {
          "indexed": false,
          "internalType": "string",
          "name": "pathogen",
          "type": "string"
        },
        {
          "indexed": false,
          "internalType": "string",
          "name": "region",
          "type": "string"
        },
        {
          "indexed": false,
          "internalType": "uint256",
          "name": "severity",
          "type": "uint256"
        }
      ],
      "name": "OutbreakDeclared",
      "type": "event"
    },
    {
      "anonymous": false,
      "inputs": [
        {
          "indexed": true,
          "internalType": "uint256",
          "name": "outbreakId",
          "type": "uint256"
        }
      ],
      "name": "OutbreakResolved",
      "type": "event"
    },
    {
      "anonymous": false,
      "inputs": [
        {
          "indexed": false,
          "internalType": "address",
          "name": "account",
          "type": "address"
        }
      ],
      "name": "Paused",
      "type": "event"
    },
    {
      "anonymous": false,
      "inputs": [
        {
          "indexed": true,
          "internalType": "address",
          "name": "producer",
          "type": "address"
        },
        {
          "indexed": false,
          "internalType": "string",
          "name": "reason",
          "type": "string"
        }
      ],
      "name": "ProducerBlacklisted",
      "type": "event"
    },
    {
      "anonymous": false,
      "inputs": [
        {
          "indexed": true,
          "internalType": "address",
          "name": "producer",
          "type": "address"
        },
        {
          "indexed": false,
          "internalType": "string",
          "name": "name",
          "type": "string"
        },
        {
          "indexed": false,
          "internalType": "string",
          "name": "producerType",
          "type": "string"
        }
      ],
      "name": "ProducerRegistered",
      "type": "event"
    },
    {
      "anonymous": false,
      "inputs": [
        {
          "indexed": true,
          "internalType": "uint256",
          "name": "productId",
          "type": "uint256"
        },
        {
          "indexed": true,
          "internalType": "address",
          "name": "producer",
          "type": "address"
        },
        {
          "indexed": false,
          "internalType": "string",
          "name": "name",
          "type": "string"
        }
      ],
      "name": "ProductCreated",
      "type": "event"
    },
    {
      "anonymous": false,
      "inputs": [
        {
          "indexed": true,
          "internalType": "uint256",
          "name": "productId",
          "type": "uint256"
        },
        {
          "indexed": false,
          "internalType": "string",
          "name": "reason",
          "type": "string"
        }
      ],
      "name": "ProductRecalled",
      "type": "event"
    },
    {
      "anonymous": false,
      "inputs": [
        {
          "indexed": true,
          "internalType": "bytes32",
          "name": "role",
          "type": "bytes32"
        },
        {
          "indexed": true,
          "internalType": "bytes32",
          "name": "previousAdminRole",
          "type": "bytes32"
        },
        {
          "indexed": true,
          "internalType": "bytes32",
          "name": "newAdminRole",
          "type": "bytes32"
        }
      ],
      "name": "RoleAdminChanged",
      "type": "event"
    },
    {
      "anonymous": false,
      "inputs": [
        {
          "indexed": true,
          "internalType": "bytes32",
          "name": "role",
          "type": "bytes32"
        },
        {
          "indexed": true,
          "internalType": "address",
          "name": "account",
          "type": "address"
        },
        {
          "indexed": true,
          "internalType": "address",
          "name": "sender",
          "type": "address"
        }
      ],
      "name": "RoleGranted",
      "type": "event"
    },
    {
      "anonymous": false,
      "inputs": [
        {
          "indexed": true,
          "internalType": "bytes32",
          "name": "role",
          "type": "bytes32"
        },
        {
          "indexed": true,
          "internalType": "address",
          "name": "account",
          "type": "address"
        },
        {
          "indexed": true,
          "internalType": "address",
          "name": "sender",
          "type": "address"
        }
      ],
      "name": "RoleRevoked",
      "type": "event"
    },
    {
      "anonymous": false,
      "inputs": [
        {
          "indexed": true,
          "internalType": "uint256",
          "name": "productId",
          "type": "uint256"
        },
        {
          "indexed": true,
          "internalType": "address",
          "name": "handler",
          "type": "address"
        },
        {
          "indexed": false,
          "internalType": "string",
          "name": "action",
          "type": "string"
        }
      ],
      "name": "TraceEntryAdded",
      "type": "event"
    },
    {
      "anonymous": false,
      "inputs": [
        {
          "indexed": false,
          "internalType": "address",
          "name": "account",
          "type": "address"
        }
      ],
      "name": "Unpaused",
      "type": "event"
    },
    {
      "inputs": [],
      "name": "CERTIFIER_ROLE",
      "outputs": [
        {
          "internalType": "bytes32",
          "name": "",
          "type": "bytes32"
        }
      ],
      "stateMutability": "view",
      "type": "function"
    },
    {
      "inputs": [],
      "name": "DEFAULT_ADMIN_ROLE",
      "outputs": [
        {
          "internalType": "bytes32",
          "name": "",
          "type": "bytes32"
        }
      ],
      "stateMutability": "view",
      "type": "function"
    },
    {
      "inputs": [],
      "name": "INSPECTOR_ROLE",
      "outputs": [
        {
          "internalType": "bytes32",
          "name": "",
          "type": "bytes32"
        }
      ],
      "stateMutability": "view",
      "type": "function"
    },
    {
      "inputs": [
        {
          "internalType": "uint256",
          "name": "productId",
          "type": "uint256"
        },
        {
          "internalType": "string",
          "name": "action",
          "type": "string"
        },
        {
          "internalType": "string",
          "name": "location",
          "type": "string"
        },
        {
          "internalType": "bytes32",
          "name": "dataHash",
          "type": "bytes32"
        }
      ],
      "name": "addTraceEntry",
      "outputs": [],
      "stateMutability": "nonpayable",
      "type": "function"
    },
    {
      "inputs": [],
      "name": "certificationCount",
      "outputs": [
        {
          "internalType": "uint256",
          "name": "",
          "type": "uint256"
        }
      ],
      "stateMutability": "view",
      "type": "function"
    },
    {
      "inputs": [],
      "name": "certificationFee",
      "outputs": [
        {
          "internalType": "uint256",
          "name": "",
          "type": "uint256"
        }
      ],
      "stateMutability": "view",
      "type": "function"
    },
    {
      "inputs": [
        {
          "internalType": "uint256",
          "name": "",
          "type": "uint256"
        }
      ],
      "name": "certifications",
      "outputs": [
        {
          "internalType": "uint256",
          "name": "id",
          "type": "uint256"
        },
        {
          "internalType": "address",
          "name": "producer",
          "type": "address"
        },
        {
          "internalType": "string",
          "name": "certType",
          "type": "string"
        },
        {
          "internalType": "uint256",
          "name": "issuedAt",
          "type": "uint256"
        },
        {
          "internalType": "uint256",
          "name": "expiresAt",
          "type": "uint256"
        },
        {
          "internalType": "bool",
          "name": "valid",
          "type": "bool"
        }
      ],
      "stateMutability": "view",
      "type": "function"
    },
    {
      "inputs": [
        {
          "internalType": "address",
          "name": "producerAddr",
          "type": "address"
        },
        {
          "internalType": "uint256",
          "name": "riskScore",
          "type": "uint256"
        },
        {
          "internalType": "string",
          "name": "findings",
          "type": "string"
        },
        {
          "internalType": "bytes32",
          "name": "evidenceHash",
          "type": "bytes32"
        }
      ],
      "name": "completeInspection",
      "outputs": [
        {
          "internalType": "uint256",
          "name": "",
          "type": "uint256"
        }
      ],
      "stateMutability": "nonpayable",
      "type": "function"
    },
    {
      "inputs": [],
      "name": "criticalRiskThreshold",
      "outputs": [
        {
          "internalType": "uint256",
          "name": "",
          "type": "uint256"
        }
      ],
      "stateMutability": "view",
      "type": "function"
    },
    {
      "inputs": [
        {
          "internalType": "string",
          "name": "pathogen",
          "type": "string"
        },
        {
          "internalType": "string",
          "name": "region",
          "type": "string"
        },
        {
          "internalType": "uint256",
          "name": "severity",
          "type": "uint256"
        },
        {
          "internalType": "uint256[]",
          "name": "linkedProducts",
          "type": "uint256[]"
        }
      ],
      "name": "declareOutbreak",
      "outputs": [
        {
          "internalType": "uint256",
          "name": "",
          "type": "uint256"
        }
      ],
      "stateMutability": "nonpayable",
      "type": "function"
    },
    {
      "inputs": [
        {
          "internalType": "uint256",
          "name": "certId",
          "type": "uint256"
        }
      ],
      "name": "getCertification",
      "outputs": [
        {
          "components": [
            {
              "internalType": "uint256",
              "name": "id",
              "type": "uint256"
            },
            {
              "internalType": "address",
              "name": "producer",
              "type": "address"
            },
            {
              "internalType": "string",
              "name": "certType",
              "type": "string"
            },
            {
              "internalType": "uint256",
              "name": "issuedAt",
              "type": "uint256"
            },
            {
              "internalType": "uint256",
              "name": "expiresAt",
              "type": "uint256"
            },
            {
              "internalType": "bool",
              "name": "valid",
              "type": "bool"
            }
          ],
          "internalType": "struct KaiHealth.Certification",
          "name": "",
          "type": "tuple"
        }
      ],
      "stateMutability": "view",
      "type": "function"
    },
    {
      "inputs": [
        {
          "internalType": "uint256",
          "name": "inspectionId",
          "type": "uint256"
        }
      ],
      "name": "getInspection",
      "outputs": [
        {
          "components": [
            {
              "internalType": "uint256",
              "name": "id",
              "type": "uint256"
            },
            {
              "internalType": "address",
              "name": "producer",
              "type": "address"
            },
            {
              "internalType": "address",
              "name": "inspector",
              "type": "address"
            },
            {
              "internalType": "uint256",
              "name": "timestamp",
              "type": "uint256"
            },
            {
              "internalType": "uint256",
              "name": "riskScore",
              "type": "uint256"
            },
            {
              "internalType": "string",
              "name": "findings",
              "type": "string"
            },
            {
              "internalType": "bytes32",
              "name": "evidenceHash",
              "type": "bytes32"
            },
            {
              "internalType": "bool",
              "name": "passed",
              "type": "bool"
            }
          ],
          "internalType": "struct KaiHealth.Inspection",
          "name": "",
          "type": "tuple"
        }
      ],
      "stateMutability": "view",
      "type": "function"
    },
    {
      "inputs": [
        {
          "internalType": "uint256",
          "name": "outbreakId",
          "type": "uint256"
        }
      ],
      "name": "getOutbreak",
      "outputs": [
        {
          "components": [
            {
              "internalType": "uint256",
              "name": "id",
              "type": "uint256"
            },
            {
              "internalType": "string",
              "name": "pathogen",
              "type": "string"
            },
            {
              "internalType": "string",
              "name": "region",
              "type": "string"
            },
            {
              "internalType": "uint256",
              "name": "severity",
              "type": "uint256"
            },
            {
              "internalType": "uint256",
              "name": "timestamp",
              "type": "uint256"
            },
            {
              "internalType": "uint256[]",
              "name": "linkedProducts",
              "type": "uint256[]"
            },
            {
              "internalType": "bool",
              "name": "active",
              "type": "bool"
            }
          ],
          "internalType": "struct KaiHealth.OutbreakAlert",
          "name": "",
          "type": "tuple"
        }
      ],
      "stateMutability": "view",
      "type": "function"
    },
    {
      "inputs": [
        {
          "internalType": "address",
          "name": "addr",
          "type": "address"
        }
      ],
      "name": "getProducer",
      "outputs": [
        {
          "components": [
            {
              "internalType": "address",
              "name": "wallet",
              "type": "address"
            },
            {
              "internalType": "string",
              "name": "name",
              "type": "string"
            },
            {
              "internalType": "string",
              "name": "producerType",
              "type": "string"
            },
            {
              "internalType": "string",
              "name": "location",
              "type": "string"
            },
            {
              "internalType": "uint256",
              "name": "registeredAt",
              "type": "uint256"
            },
            {
              "internalType": "uint256",
              "name": "riskScore",
              "type": "uint256"
            },
            {
              "internalType": "uint256",
              "name": "inspectionCount",
              "type": "uint256"
            },
            {
              "internalType": "uint256",
              "name": "lastInspection",
              "type": "uint256"
            },
            {
              "internalType": "bool",
              "name": "certified",
              "type": "bool"
            },
            {
              "internalType": "bool",
              "name": "blacklisted",
              "type": "bool"
            }
          ],
          "internalType": "struct KaiHealth.Producer",
          "name": "",
          "type": "tuple"
        }
      ],
      "stateMutability": "view",
      "type": "function"
    },
    {
      "inputs": [
        {
          "internalType": "uint256",
          "name": "productId",
          "type": "uint256"
        }
      ],
      "name": "getProduct",
      "outputs": [
        {
          "components": [
            {
              "internalType": "uint256",
              "name": "id",
              "type": "uint256"
            },
            {
              "internalType": "address",
              "name": "producer",
              "type": "address"
            },
            {
              "internalType": "string",
              "name": "name",
              "type": "string"
            },
            {
              "internalType": "string",
              "name": "category",
              "type": "string"
            },
            {
              "internalType": "uint256",
              "name": "createdAt",
              "type": "uint256"
            },
            {
              "internalType": "bytes32",
              "name": "batchHash",
              "type": "bytes32"
            },
            {
              "internalType": "uint256",
              "name": "riskScore",
              "type": "uint256"
            },
            {
              "internalType": "bool",
              "name": "recalled",
              "type": "bool"
            }
          ],
          "internalType": "struct KaiHealth.Product",
          "name": "",
          "type": "tuple"
        }
      ],
      "stateMutability": "view",
      "type": "function"
    },
    {
      "inputs": [
        {
          "internalType": "uint256",
          "name": "productId",
          "type": "uint256"
        }
      ],
      "name": "getProductTrace",
      "outputs": [
        {
          "components": [
            {
              "internalType": "uint256",
              "name": "productId",
              "type": "uint256"
            },
            {
              "internalType": "address",
              "name": "handler",
              "type": "address"
            },
            {
              "internalType": "string",
              "name": "action",
              "type": "string"
            },
            {
              "internalType": "uint256",
              "name": "timestamp",
              "type": "uint256"
            },
            {
              "internalType": "string",
              "name": "location",
              "type": "string"
            },
            {
              "internalType": "bytes32",
              "name": "dataHash",
              "type": "bytes32"
            }
          ],
          "internalType": "struct KaiHealth.TraceEntry[]",
          "name": "",
          "type": "tuple[]"
        }
      ],
      "stateMutability": "view",
      "type": "function"
    },
    {
      "inputs": [
        {
          "internalType": "bytes32",
          "name": "role",
          "type": "bytes32"
        }
      ],
      "name": "getRoleAdmin",
      "outputs": [
        {
          "internalType": "bytes32",
          "name": "",
          "type": "bytes32"
        }
      ],
      "stateMutability": "view",
      "type": "function"
    },
    {
      "inputs": [
        {
          "internalType": "bytes32",
          "name": "role",
          "type": "bytes32"
        },
        {
          "internalType": "address",
          "name": "account",
          "type": "address"
        }
      ],
      "name": "grantRole",
      "outputs": [],
      "stateMutability": "nonpayable",
      "type": "function"
    },
    {
      "inputs": [
        {
          "internalType": "bytes32",
          "name": "role",
          "type": "bytes32"
        },
        {
          "internalType": "address",
          "name": "account",
          "type": "address"
        }
      ],
      "name": "hasRole",
      "outputs": [
        {
          "internalType": "bool",
          "name": "",
          "type": "bool"
        }
      ],
      "stateMutability": "view",
      "type": "function"
    },
    {
      "inputs": [],
      "name": "healthFund",
      "outputs": [
        {
          "internalType": "uint256",
          "name": "",
          "type": "uint256"
        }
      ],
      "stateMutability": "view",
      "type": "function"
    },
    {
      "inputs": [],
      "name": "highRiskThreshold",
      "outputs": [
        {
          "internalType": "uint256",
          "name": "",
          "type": "uint256"
        }
      ],
      "stateMutability": "view",
      "type": "function"
    },
    {
      "inputs": [],
      "name": "inspectionCount",
      "outputs": [
        {
          "internalType": "uint256",
          "name": "",
          "type": "uint256"
        }
      ],
      "stateMutability": "view",
      "type": "function"
    },
    {
      "inputs": [],
      "name": "inspectionFee",
      "outputs": [
        {
          "internalType": "uint256",
          "name": "",
          "type": "uint256"
        }
      ],
      "stateMutability": "view",
      "type": "function"
    },
    {
      "inputs": [
        {
          "internalType": "uint256",
          "name": "",
          "type": "uint256"
        }
      ],
      "name": "inspections",
      "outputs": [
        {
          "internalType": "uint256",
          "name": "id",
          "type": "uint256"
        },
        {
          "internalType": "address",
          "name": "producer",
          "type": "address"
        },
        {
          "internalType": "address",
          "name": "inspector",
          "type": "address"
        },
        {
          "internalType": "uint256",
          "name": "timestamp",
          "type": "uint256"
        },
        {
          "internalType": "uint256",
          "name": "riskScore",
          "type": "uint256"
        },
        {
          "internalType": "string",
          "name": "findings",
          "type": "string"
        },
        {
          "internalType": "bytes32",
          "name": "evidenceHash",
          "type": "bytes32"
        },
        {
          "internalType": "bool",
          "name": "passed",
          "type": "bool"
        }
      ],
      "stateMutability": "view",
      "type": "function"
    },
    {
      "inputs": [
        {
          "internalType": "address",
          "name": "producerAddr",
          "type": "address"
        },
        {
          "internalType": "string",
          "name": "certType",
          "type": "string"
        },
        {
          "internalType": "uint256",
          "name": "validDays",
          "type": "uint256"
        }
      ],
      "name": "issueCertification",
      "outputs": [
        {
          "internalType": "uint256",
          "name": "",
          "type": "uint256"
        }
      ],
      "stateMutability": "nonpayable",
      "type": "function"
    },
    {
      "inputs": [],
      "name": "kaiToken",
      "outputs": [
        {
          "internalType": "contract KAIToken",
          "name": "",
          "type": "address"
        }
      ],
      "stateMutability": "view",
      "type": "function"
    },
    {
      "inputs": [],
      "name": "outbreakCount",
      "outputs": [
        {
          "internalType": "uint256",
          "name": "",
          "type": "uint256"
        }
      ],
      "stateMutability": "view",
      "type": "function"
    },
    {
      "inputs": [
        {
          "internalType": "uint256",
          "name": "",
          "type": "uint256"
        }
      ],
      "name": "outbreaks",
      "outputs": [
        {
          "internalType": "uint256",
          "name": "id",
          "type": "uint256"
        },
        {
          "internalType": "string",
          "name": "pathogen",
          "type": "string"
        },
        {
          "internalType": "string",
          "name": "region",
          "type": "string"
        },
        {
          "internalType": "uint256",
          "name": "severity",
          "type": "uint256"
        },
        {
          "internalType": "uint256",
          "name": "timestamp",
          "type": "uint256"
        },
        {
          "internalType": "bool",
          "name": "active",
          "type": "bool"
        }
      ],
      "stateMutability": "view",
      "type": "function"
    },
    {
      "inputs": [],
      "name": "pause",
      "outputs": [],
      "stateMutability": "nonpayable",
      "type": "function"
    },
    {
      "inputs": [],
      "name": "paused",
      "outputs": [
        {
          "internalType": "bool",
          "name": "",
          "type": "bool"
        }
      ],
      "stateMutability": "view",
      "type": "function"
    },
    {
      "inputs": [
        {
          "internalType": "address",
          "name": "",
          "type": "address"
        },
        {
          "internalType": "uint256",
          "name": "",
          "type": "uint256"
        }
      ],
      "name": "producerCertifications",
      "outputs": [
        {
          "internalType": "uint256",
          "name": "",
          "type": "uint256"
        }
      ],
      "stateMutability": "view",
      "type": "function"
    },
    {
      "inputs": [],
      "name": "producerCount",
      "outputs": [
        {
          "internalType": "uint256",
          "name": "",
          "type": "uint256"
        }
      ],
      "stateMutability": "view",
      "type": "function"
    },
    {
      "inputs": [
        {
          "internalType": "address",
          "name": "",
          "type": "address"
        },
        {
          "internalType": "uint256",
          "name": "",
          "type": "uint256"
        }
      ],
      "name": "producerInspections",
      "outputs": [
        {
          "internalType": "uint256",
          "name": "",
          "type": "uint256"
        }
      ],
      "stateMutability": "view",
      "type": "function"
    },
    {
      "inputs": [
        {
          "internalType": "address",
          "name": "",
          "type": "address"
        },
        {
          "internalType": "uint256",
          "name": "",
          "type": "uint256"
        }
      ],
      "name": "producerProducts",
      "outputs": [
        {
          "internalType": "uint256",
          "name": "",
          "type": "uint256"
        }
      ],
      "stateMutability": "view",
      "type": "function"
    },
    {
      "inputs": [
        {
          "internalType": "address",
          "name": "",
          "type": "address"
        }
      ],
      "name": "producers",
      "outputs": [
        {
          "internalType": "address",
          "name": "wallet",
          "type": "address"
        },
        {
          "internalType": "string",
          "name": "name",
          "type": "string"
        },
        {
          "internalType": "string",
          "name": "producerType",
          "type": "string"
        },
        {
          "internalType": "string",
          "name": "location",
          "type": "string"
        },
        {
          "internalType": "uint256",
          "name": "registeredAt",
          "type": "uint256"
        },
        {
          "internalType": "uint256",
          "name": "riskScore",
          "type": "uint256"
        },
        {
          "internalType": "uint256",
          "name": "inspectionCount",
          "type": "uint256"
        },
        {
          "internalType": "uint256",
          "name": "lastInspection",
          "type": "uint256"
        },
        {
          "internalType": "bool",
          "name": "certified",
          "type": "bool"
        },
        {
          "internalType": "bool",
          "name": "blacklisted",
          "type": "bool"
        }
      ],
      "stateMutability": "view",
      "type": "function"
    },
    {
      "inputs": [],
      "name": "productCount",
      "outputs": [
        {
          "internalType": "uint256",
          "name": "",
          "type": "uint256"
        }
      ],
      "stateMutability": "view",
      "type": "function"
    },
    {
      "inputs": [
        {
          "internalType": "uint256",
          "name": "",
          "type": "uint256"
        },
        {
          "internalType": "uint256",
          "name": "",
          "type": "uint256"
        }
      ],
      "name": "productTrace",
      "outputs": [
        {
          "internalType": "uint256",
          "name": "productId",
          "type": "uint256"
        },
        {
          "internalType": "address",
          "name": "handler",
          "type": "address"
        },
        {
          "internalType": "string",
          "name": "action",
          "type": "string"
        },
        {
          "internalType": "uint256",
          "name": "timestamp",
          "type": "uint256"
        },
        {
          "internalType": "string",
          "name": "location",
          "type": "string"
        },
        {
          "internalType": "bytes32",
          "name": "dataHash",
          "type": "bytes32"
        }
      ],
      "stateMutability": "view",
      "type": "function"
    },
    {
      "inputs": [
        {
          "internalType": "uint256",
          "name": "",
          "type": "uint256"
        }
      ],
      "name": "products",
      "outputs": [
        {
          "internalType": "uint256",
          "name": "id",
          "type": "uint256"
        },
        {
          "internalType": "address",
          "name": "producer",
          "type": "address"
        },
        {
          "internalType": "string",
          "name": "name",
          "type": "string"
        },
        {
          "internalType": "string",
          "name": "category",
          "type": "string"
        },
        {
          "internalType": "uint256",
          "name": "createdAt",
          "type": "uint256"
        },
        {
          "internalType": "bytes32",
          "name": "batchHash",
          "type": "bytes32"
        },
        {
          "internalType": "uint256",
          "name": "riskScore",
          "type": "uint256"
        },
        {
          "internalType": "bool",
          "name": "recalled",
          "type": "bool"
        }
      ],
      "stateMutability": "view",
      "type": "function"
    },
    {
      "inputs": [
        {
          "internalType": "uint256",
          "name": "productId",
          "type": "uint256"
        },
        {
          "internalType": "string",
          "name": "reason",
          "type": "string"
        }
      ],
      "name": "recallProduct",
      "outputs": [],
      "stateMutability": "nonpayable",
      "type": "function"
    },
    {
      "inputs": [
        {
          "internalType": "string",
          "name": "name",
          "type": "string"
        },
        {
          "internalType": "string",
          "name": "producerType",
          "type": "string"
        },
        {
          "internalType": "string",
          "name": "location",
          "type": "string"
        }
      ],
      "name": "registerProducer",
      "outputs": [],
      "stateMutability": "nonpayable",
      "type": "function"
    },
    {
      "inputs": [
        {
          "internalType": "string",
          "name": "name",
          "type": "string"
        },
        {
          "internalType": "string",
          "name": "category",
          "type": "string"
        },
        {
          "internalType": "bytes32",
          "name": "batchHash",
          "type": "bytes32"
        }
      ],
      "name": "registerProduct",
      "outputs": [
        {
          "internalType": "uint256",
          "name": "",
          "type": "uint256"
        }
      ],
      "stateMutability": "nonpayable",
      "type": "function"
    },
    {
      "inputs": [
        {
          "internalType": "address",
          "name": "producerAddr",
          "type": "address"
        }
      ],
      "name": "removeBlacklist",
      "outputs": [],
      "stateMutability": "nonpayable",
      "type": "function"
    },
    {
      "inputs": [
        {
          "internalType": "bytes32",
          "name": "role",
          "type": "bytes32"
        },
        {
          "internalType": "address",
          "name": "callerConfirmation",
          "type": "address"
        }
      ],
      "name": "renounceRole",
      "outputs": [],
      "stateMutability": "nonpayable",
      "type": "function"
    },
    {
      "inputs": [
        {
          "internalType": "string",
          "name": "certType",
          "type": "string"
        }
      ],
      "name": "requestCertification",
      "outputs": [],
      "stateMutability": "nonpayable",
      "type": "function"
    },
    {
      "inputs": [],
      "name": "requestInspection",
      "outputs": [],
      "stateMutability": "nonpayable",
      "type": "function"
    },
    {
      "inputs": [
        {
          "internalType": "uint256",
          "name": "outbreakId",
          "type": "uint256"
        }
      ],
      "name": "resolveOutbreak",
      "outputs": [],
      "stateMutability": "nonpayable",
      "type": "function"
    },
    {
      "inputs": [
        {
          "internalType": "uint256",
          "name": "certId",
          "type": "uint256"
        },
        {
          "internalType": "string",
          "name": "reason",
          "type": "string"
        }
      ],
      "name": "revokeCertification",
      "outputs": [],
      "stateMutability": "nonpayable",
      "type": "function"
    },
    {
      "inputs": [
        {
          "internalType": "bytes32",
          "name": "role",
          "type": "bytes32"
        },
        {
          "internalType": "address",
          "name": "account",
          "type": "address"
        }
      ],
      "name": "revokeRole",
      "outputs": [],
      "stateMutability": "nonpayable",
      "type": "function"
    },
    {
      "inputs": [
        {
          "internalType": "uint256",
          "name": "inspection",
          "type": "uint256"
        },
        {
          "internalType": "uint256",
          "name": "certification",
          "type": "uint256"
        },
        {
          "internalType": "uint256",
          "name": "traceability",
          "type": "uint256"
        }
      ],
      "name": "setFees",
      "outputs": [],
      "stateMutability": "nonpayable",
      "type": "function"
    },
    {
      "inputs": [
        {
          "internalType": "uint256",
          "name": "high",
          "type": "uint256"
        },
        {
          "internalType": "uint256",
          "name": "critical",
          "type": "uint256"
        }
      ],
      "name": "setThresholds",
      "outputs": [],
      "stateMutability": "nonpayable",
      "type": "function"
    },
    {
      "inputs": [
        {
          "internalType": "bytes4",
          "name": "interfaceId",
          "type": "bytes4"
        }
      ],
      "name": "supportsInterface",
      "outputs": [
        {
          "internalType": "bool",
          "name": "",
          "type": "bool"
        }
      ],
      "stateMutability": "view",
      "type": "function"
    },
    {
      "inputs": [],
      "name": "traceabilityFee",
      "outputs": [
        {
          "internalType": "uint256",
          "name": "",
          "type": "uint256"
        }
      ],
      "stateMutability": "view",
      "type": "function"
    },
    {
      "inputs": [],
      "name": "unpause",
      "outputs": [],
      "stateMutability": "nonpayable",
      "type": "function"
    }
  ],
  "bytecode": "0x60a0346200016857601f6200417b38819003918201601f19168301916001600160401b038311848410176200016d57808492604094855283398101031262000168576200005a6020620000528362000183565b920162000183565b600180556801158e460913d0000060035568056bc75e2d63100000600455674563918244f400006005556046600655605a6007556001600160a01b039182169182156200013357811615620000fe57620000cf91608052620000bc8162000198565b50620000c88162000218565b50620002ba565b50604051613e0390816200035882396080518181816116aa01528181611bb901528181611de30152612f5f0152f35b60405162461bcd60e51b815260206004820152600d60248201526c24b73b30b634b21030b236b4b760991b6044820152606490fd5b60405162461bcd60e51b815260206004820152600d60248201526c24b73b30b634b2103a37b5b2b760991b6044820152606490fd5b600080fd5b634e487b7160e01b600052604160045260246000fd5b51906001600160a01b03821682036200016857565b6001600160a01b031660008181527fad3228b676f7d3cd4284a5443f17f1962b36e491b30a40b2405849e597ba5fb5602052604081205490919060ff166200021457818052816020526040822081835260205260408220600160ff1982541617905533916000805160206200415b8339815191528180a4600190565b5090565b6001600160a01b031660008181527facfff8a39fb957d9d1c8e3ef9f08385e3fcf7bb23ab7ba0ad0f8df93dbde6a6860205260408120549091907f273dcf2136c7d8ef632bb8ef13dbca69a8f36fa620c7468671b3153d46a211c09060ff16620002b557808352826020526040832082845260205260408320600160ff198254161790556000805160206200415b833981519152339380a4600190565b505090565b6001600160a01b031660008181527ffe618c914587dd7ba3e1acd37a967f49c0ddd40aac12fbb6ca27c0d60e34d9d160205260408120549091907f65cb1d8422cdf0328f26b49e42e9f4524474c431da623cbe0ea455f1b67c9f779060ff16620002b557808352826020526040832082845260205260408320600160ff198254161790556000805160206200415b833981519152339380a460019056fe608080604052600436101561001357600080fd5b600090813560e01c90816301ffc9a7146133bc575080630e3e5ce61461339e5780631185760c14612e8b5780631489101114612e4357806315cac83514612dfb578063248a9ca314612dcf57806325033cb914612db157806326324eff14612cc95780632f2ff15d14612c8c57806336568abe14612c445780633708d2d114612b9e5780633a42eeda14612b805780633c0359a414612b0e5780633c61b3c01461297a5780633f4ba83a1461290f5780634df213271461232557806353745651146121b55780635c975abb146121925780636658d56c146120ea57806369d0b517146120af57806377cd84671461201d5780637acc0b2014611f6b5780637f33143414611f4d5780638456cb5914611ef257806386ae2fb114611d6757806388de858514611aff5780638f6f8d6114611ae157806391d1485414611a96578063998a4ccd146116d95780639bcfdfc0146116945780639ce0f973146115db578063a1c57778146115bd578063a217fddf146115a1578063aab147b2146113ee578063aeb1e0711461130e578063b303383014610fed578063b8ae134314610f97578063b9db15b414610e56578063c55699c414610e38578063cec10c1114610e09578063cf43954d14610d66578063d547741f14610d25578063d708fe5b14610d07578063e0f6ef8714610ce9578063e3064a7714610c86578063e3a3c52214610c4b578063e7e5eeaf14610ac2578063eaf4d0bd14610510578063eb91e651146104cb578063ec981eac146103d6578063eec8ddc2146103b8578063f2836670146102885763fca778861461026857600080fd5b346102855780600319360112610285576020600454604051908152f35b80fd5b50346102855760209081600319360112610285578060409160e083516102ad816134d7565b82815282868201528285820152826060820152826080820152606060a08201528260c082015201526004358152600a835220604051906102ec826134d7565b8054825260018101546001600160a01b039081168484019081526002830154821660408501908152600384015460608601908152600485015460808701908152929391929161033d6005870161358f565b9360a088019485528160ff600760068a01549960c08c019a8b520154169660e08a0197151588526040519a8b9a818c5251908b015251166040890152511660608701525160808601525160a085015251906103a6610100928360c0870152610120860190613634565b925160e0850152511515908301520390f35b50346102855780600319360112610285576020601654604051908152f35b50346102855760209081600319360112610285578060409160a083516103fb81613509565b828152828682015260608582015282606082015282608082015201526004358152600b8352206040519061042e82613509565b8054825260018101546001600160a01b0390811684840190815290916104b26104596002830161358f565b604086019081526003830154946060870195865260ff600560048601549560808a019687520154169460a088019515158652604051988998818a525190890152511660408701525160c0606087015260e0860190613634565b925160808501525160a084015251151560c08301520390f35b5034610285576020366003190112610285576104e5613443565b6104ed613ba4565b6001600160a01b03168152600860208190526040822001805461ff001916905580f35b5034610285576080366003190112610285576004356001600160401b038111610abe57610541903690600401613411565b6024929192356001600160401b038111610aba57610563903690600401613411565b606435936001600160401b0385116102855736602386011215610285576001600160401b0385600401351161028557366024866004013560051b87010111610285576105ad613bfc565b6001604435101580610aad575b15610a75576105ca6015546137c9565b94856015556040516105db81613524565b8681526105e936878a6137d8565b60208201526105f93685876137d8565b604082015260443560608201524260808201526106198260040135613b04565b610626604051918261356e565b6004830135815260248301602082015b6024856004013560051b8601018210610a6557505060a0820152600160c0820152868352600d60205260408320908051825560208101518051906001600160401b0382116108ec57819061068d600186015461349d565b601f8111610a32575b50602090601f83116001146109c35787926109b8575b50508160011b916000199060031b1c19161760018301555b60408101518051906001600160401b0382116108ec5781906106e9600286015461349d565b601f811161097a575b50602090601f831160011461090b578792610900575b50508160011b916000199060031b1c19161760028301555b606081015160038301556080810151600483015560a08101518051906001600160401b0382116108ec57600160401b82116108ec5760209060058501548360058701558084106108cf575b500160058401865260208620865b8381106108bb575050505090600660c06107a4930151151591019060ff801983541691151516179055565b815b8160040135811061081457602087807f2523278f7e4da15037558e6e1173fbb8a91ef857a3b9d25027cc24e975622d898b8a6108018b8b6107f4604051958695606087526060870191613ae3565b918483038a860152613ae3565b60443560408301520390a2604051908152f35b80610829600192846004013560248601613b53565b35845260096020526040842080541515806108ac575b61084b575b50016107a6565b600701805460ff19168317905561086a81600485013560248601613b53565b357fcf945375036ee1ff64a8885b9c36844ac503b07ad7b0b3b78d023eb0a4cc623c60405160208152806108a38d8c6020840191613ae3565b0390a238610844565b5060ff6007820154161561083f565b600190602084519401938184015501610779565b6005860188528288206108e691810190850161381e565b3861076b565b634e487b7160e01b86526041600452602486fd5b015190503880610708565b9250600285018752602087209087935b601f198416851061095f576001945083601f19811610610946575b505050811b016002830155610720565b015160001960f88460031b161c19169055388080610936565b8181015183556020948501946001909301929091019061091b565b6109a89060028701895260208920601f850160051c810191602086106109ae575b601f0160051c019061381e565b386106f2565b909150819061099b565b0151905038806106ac565b9250600185018752602087209087935b601f1984168510610a17576001945083601f198116106109fe575b505050811b0160018301556106c4565b015160001960f88460031b161c191690553880806109ee565b818101518355602094850194600190930192909101906109d3565b610a5f9060018701895260208920601f850160051c810191602086106109ae57601f0160051c019061381e565b38610696565b8135815260209182019101610636565b60405162461bcd60e51b815260206004820152601060248201526f496e76616c696420736576657269747960801b6044820152606490fd5b50600a60443511156105ba565b8280fd5b5080fd5b5034610285576080366003190112610285576001600160401b03600435602435828111610c4757610af7903690600401613411565b92604435908111610c4357610b10903690600401613411565b610b1b949194613b86565b8386526020946009865260408720805415610c0a576007015460ff16610bd2577f5012d59922a28a45e8a711422c7143a69b62b389c222ee0af7e591b32ca6c7fa939291610bb691868952600c8852610ba460408a209160405193610b7f85613509565b898552338b860152610b9236888a6137d8565b604086015242606086015236916137d8565b608083015260643560a083015261386a565b610bcc6040519283928784523397840191613ae3565b0390a380f35b60405162461bcd60e51b815260048101879052601060248201526f141c9bd91d58dd081c9958d85b1b195960821b6044820152606490fd5b60405162461bcd60e51b8152600481018890526011602482015270141c9bd91d58dd081b9bdd08199bdd5b99607a1b6044820152606490fd5b8480fd5b8380fd5b503461028557806003193601126102855760206040517f273dcf2136c7d8ef632bb8ef13dbca69a8f36fa620c7468671b3153d46a211c08152f35b503461028557610c9536613674565b90610c9e613ba4565b81811015610caf5760065560075580f35b60405162461bcd60e51b8152602060048201526012602482015271496e76616c6964207468726573686f6c647360701b6044820152606490fd5b50346102855780600319360112610285576020601254604051908152f35b50346102855780600319360112610285576020601154604051908152f35b503461028557604036600319011261028557610d62600435610d45613459565b9080845283602052610d5d6001604086200154613cb4565b613d58565b5080f35b5034610285576020366003190112610285576040906004358152600a6020522080549060018060a01b0390816001820154169160028201541692610df8600383015491600484015490610dbb6005860161358f565b9160ff600760068801549701541694604051988998610100948a5260208a01526040890152606088015260808701528060a0870152850190613634565b9160c0840152151560e08301520390f35b503461028557606036600319011261028557610e23613ba4565b60043560035560243560045560443560055580f35b50346102855780600319360112610285576020601454604051908152f35b50346102855760209081600319360112610285578060409160e08351610e7b816134d7565b82815282868201526060858201526060808201528260808201528260a08201528260c082015201526004358152600983522060405190610eba826134d7565b8054825260018101546001600160a01b03908116848401908152610ee06002840161358f565b9260408501938452610ef46003820161358f565b9260608601938452610f796004830154956080880196875260058401549260a0890193845260ff600760068701549660c08c019788520154169560e08a0196151587526040519a8b9a818c5251908b0152511660408901525194610f66610100968760608b01526101208a0190613634565b9051888203601f190160808a0152613634565b945160a08701525160c08601525160e0850152511515908301520390f35b503461028557604036600319011261028557610fb1613443565b6001600160a01b03168152600f6020526040812080546024359290831015610285576020610fdf848461346f565b90546040519160031b1c8152f35b503461028557606036600319011261028557611007613443565b6001600160401b03602435818111610c4757611027903690600401613411565b919060443593611035613c58565b6001600160a01b038181168752600860205260408720805491939161105d90851615156136d9565b61107160ff600883015460081c1615613716565b61107c6014546137c9565b968760145562015180908181029181830414901517156112fa576110a090426137a6565b94604051906110ae82613509565b888252602082019686861688526110c6368a876137d8565b90604084019182524260608501526080840152600160a0840152898b52600b60205260408b2097835189558760018a019151166001600160601b0360a01b8254161790555180519182116112e6579189969594939160209b9361112c60028b015461349d565b601f81116112b4575b508c90601f831160011461120f57936111c88a9b600560a07f351ff2853dae5748680e68dff9671c3ff3c23e66d8eb59f289d89b03416718019d97876040988c986111e59c6111f99f9e92611204575b50508160011b916000199060031b1c19161760028501555b60608101516003850155608081015160048501550151151591019060ff801983541691151516179055565b600801805460ff19166001179055868816815260108d5220613835565b6040519384938a8552169689840191613ae3565b0390a3604051908152f35b015190503880611185565b9060028b0186528d862091865b601f198516811061129a57508a9b600560a07f351ff2853dae5748680e68dff9671c3ff3c23e66d8eb59f289d89b03416718019d976001886111f99d9c986111e59c986111c89860409c601f19811610611281575b505050811b01600285015561119d565b015160001960f88460031b161c19169055388080611271565b8282015184558e9b50600190930192918f01918f0161121c565b6112e09060028c0187528e8720601f850160051c810191602086106109ae57601f0160051c019061381e565b38611135565b634e487b7160e01b8b52604160045260248bfd5b634e487b7160e01b89526011600452602489fd5b50346102855761131d366136a6565b90611326613c58565b828452600b602052604084209161133f83541515613b1b565b600583019283549060ff8216156113b7577f5f76f29d70d3bf9134033ed263aeb68f6318cf93d121b34277047cdfd52d75f09460ff1980931690556001808060a01b039101541686526008602052600860408720019081541690556113b1604051928392602084526020840191613ae3565b0390a280f35b60405162461bcd60e51b815260206004820152600f60248201526e105b1c9958591e481c995d9bdad959608a1b6044820152606490fd5b50346102855760203660031901126102855760409061140b613443565b81610120845161141a8161353f565b828152606060208201526060868201526060808201528260808201528260a08201528260c08201528260e082015282610100820152015260018060a01b0316815260086020522060ff6008604051926114728461353f565b80546001600160a01b0316845261148b6001820161358f565b602085015261149c6002820161358f565b60408501526114ad6003820161358f565b606085015260048101546080850152600581015460a0850152600681015460c0850152600781015460e08501520154818116151561010084015260081c16151561012082015260405180916020825260018060a01b038151166020830152602081015161012061155f61152e61014093846040880152610160870190613634565b61154a604086015191601f1992838983030160608a0152613634565b90606086015190878303016080880152613634565b92608081015160a086015260a081015160c086015260c081015160e086015260e081015161010086015261010081015115158286015201511515908301520390f35b5034610285578060031936011261028557602090604051908152f35b50346102855780600319360112610285576020600654604051908152f35b5034610285576115ea366136a6565b906115f3613bfc565b828452600960205260076040852061160d81541515613b1b565b019182549260ff841661165c5760017fcf945375036ee1ff64a8885b9c36844ac503b07ad7b0b3b78d023eb0a4cc623c9460ff19161790556113b1604051928392602084526020840191613ae3565b60405162461bcd60e51b815260206004820152601060248201526f105b1c9958591e481c9958d85b1b195960821b6044820152606490fd5b50346102855780600319360112610285576040517f00000000000000000000000000000000000000000000000000000000000000006001600160a01b03168152602090f35b5034610285576080366003190112610285576116f3613443565b6001600160401b03604435818111610c4757611713903690600401613411565b909261171d613bfc565b606460243511611a61576001600160a01b03818116865260086020526040862080549193909161175090851615156136d9565b61175b6013546137c9565b9586601355600654602435109560405191611775836134d7565b8883526020830193878716855260408401913383526117a660608601914283526080870193602435855236916137d8565b9260a0860193845260643560c08701528a60e08701528b8d52600a60205260408d2096865188558a60018901915116906001600160601b0360a01b91828254161790558a6002890192511690825416179055516003860155516004850155518051918211611a4d5791839160209a9361182660058c9a999897015461349d565b601f8111611a1c575b508b90601f831160011461197857946118b77f6063803f519be1e914d1bcaae393c9cbfadee6eced193bdc1b70bd38e79f2b52999795600760e06118e497878f9860409e9c988f99899261196d575b50508160011b916000199060031b1c19161760058501555b60c081015160068501550151151591019060ff801983541691151516179055565b6024356005860155600685016118cd81546137c9565b90554260078601558686168152600f8d5220613835565b6007546024351015611909575b508251956024358752888701521693a3604051908152f35b60080161010061ffff19825416179055825188815260138982015272437269746963616c207269736b2073636f726560681b848201527ff040e33b1e43b32eb66dffb94b7cd1e8061910aab2e427ae8e79db6f6542b930606084841692a2386118f1565b01519050388061187e565b906005850186528c862091865b601f1985168110611a0257507f6063803f519be1e914d1bcaae393c9cbfadee6eced193bdc1b70bd38e79f2b52999795600760e06118e49760018f9860409e9c97988f996118b79883601f198116106119e9575b505050811b016005850155611896565b015160001960f88460031b161c191690553880806119d9565b8183015184558d9b50600190930192918e01918e01611985565b611a47906005860187528d8720601f850160051c8101918f86106109ae57601f0160051c019061381e565b3861182f565b634e487b7160e01b8a52604160045260248afd5b60405162461bcd60e51b815260206004820152600d60248201526c496e76616c69642073636f726560981b6044820152606490fd5b5034610285576040366003190112610285576040611ab2613459565b91600435815280602052209060018060a01b0316600052602052602060ff604060002054166040519015158152f35b50346102855780600319360112610285576020600754604051908152f35b50346102855760209081600319360112610285576004356001600160401b038111610abe57611b32903690600401613411565b5050611b3c613b63565b611b44613b86565b338152600882526040812080546001600160a01b039190611b6890831615156136d9565b611b7c60ff600883015460081c1615613716565b60058101546006541115611d32576006015415611cfc57600480546040516323b872dd60e01b8152339281019290925230602483015260448201527f0000000000000000000000000000000000000000000000000000000000000000919091169290818160648186885af1918215611cf15790611c0292918492611cc4575b5050613768565b6004549160468302831590848104604614821715611cb0576064611c2991046016546137a6565b601655601e8402938404601e141715611c9c578192813b15611c9857606460248492836040519586948593630852cd8d60e31b85520460048401525af18015611c8d57611c79575b506001805580f35b611c829061355b565b610285578038611c71565b6040513d84823e3d90fd5b5050fd5b634e487b7160e01b82526011600452602482fd5b634e487b7160e01b84526011600452602484fd5b611ce39250803d10611cea575b611cdb818361356e565b810190613750565b3880611bfb565b503d611cd1565b6040513d85823e3d90fd5b60405162461bcd60e51b815260048101849052600e60248201526d4e6f20696e7370656374696f6e7360901b6044820152606490fd5b60405162461bcd60e51b815260048101859052600d60248201526c0a4d2e6d640e8dede40d0d2ced609b1b6044820152606490fd5b5034610285578060031936011261028557611d80613b63565b611d88613b86565b338152600860205260408120611dbd60ff600860018060a01b0393611db18582541615156136d9565b015460081c1615613716565b6003546040516323b872dd60e01b815233600482015230602482015260448101919091527f0000000000000000000000000000000000000000000000000000000000000000919091169060208160648186865af18015611cf157611e28918491611ed3575b50613768565b60035460468102811590828104604614821715611ebf576064611e4e91046016546137a6565b601655601e8202918204601e141715611eab578290823b15610abe576024606491836040519586948593630852cd8d60e31b85520460048401525af18015611c8d57611e9c57506001805580f35b611ea59061355b565b38611c71565b634e487b7160e01b83526011600452602483fd5b634e487b7160e01b85526011600452602485fd5b611eec915060203d602011611cea57611cdb818361356e565b38611e22565b5034610285578060031936011261028557611f0b613ba4565b611f13613b86565b600160ff1960025416176002557f62e78cea01bee320cd4e420270b5ea74000d11b0c9f74754ebdbfc544b05a2586020604051338152a180f35b50346102855780600319360112610285576020601554604051908152f35b503461028557602036600319011261028557604090600435815260096020522080549060018060a01b0360018201541690611fa86002820161358f565b611fb46003830161358f565b91600481015492612002600583015491611ff460ff600760068701549601541695604051998a99610100918b5260208b01528060408b0152890190613634565b908782036060890152613634565b93608086015260a085015260c0840152151560e08301520390f35b5034610285576020366003190112610285576040906004358152600d60205220805461204b6001830161358f565b916120586002820161358f565b60038201549161209960ff60066004840154930154169261208b604051978897885260c0602089015260c0880190613634565b908682036040880152613634565b9260608501526080840152151560a08301520390f35b503461028557806003193601126102855760206040517f65cb1d8422cdf0328f26b49e42e9f4524474c431da623cbe0ea455f1b67c9f778152f35b503461028557602036600319011261028557600435612107613bfc565b808252600d60205260066040832061212181541515613b1b565b01805460ff81161561215a5760ff191690557ff725567f280c0018dbf94dbf5fbe5f8e1d97f218582b36afb366da568f305c498280a280f35b60405162461bcd60e51b815260206004820152601060248201526f105b1c9958591e481c995cdbdb1d995960821b6044820152606490fd5b5034610285578060031936011261028557602060ff600254166040519015158152f35b503461028557602080600319360112610abe57906004358152600c8252604081208054916121e283613b04565b926121f0604051948561356e565b8084528484018093835285832083915b8383106122b45750505050604051928484019085855251809152604084019460408260051b8601019392955b8287106122395785850386f35b909192938280600192603f1989820301855287519061229a61227d60c084518452878060a01b03868601511686850152604085015190806040860152840190613634565b606080850151908401526080808501519084830390850152613634565b9160a080910151910152960192019601959291909261222c565b60068860019260409a99979a516122ca81613509565b85548152848060a01b038587015416838201526122e96002870161358f565b6040820152600386015460608201526123046004870161358f565b6080820152600586015460a082015281520192019201919096939596612200565b5034610285576060366003190112610285576004356001600160401b038111610abe57612356903690600401613411565b6024929192356001600160401b038111610aba57612378903690600401613411565b9390916044356001600160401b038111610c435761239a903690600401613411565b95906123a4613b86565b82156128da5781156128a557338652600860205260408620546001600160a01b031661286b5761240590604051976123db8961353f565b3389526123e93686886137d8565b60208a01526123f93685896137d8565b60408a015236916137d8565b6060870152426080870152603260a08701528460c08701528460e087015284610100870152846101208701523385526008602052604085209560018060a01b038151166001600160601b0360a01b88541617875560208101518051906001600160401b03821161270757819061247e60018b015461349d565b601f8111612838575b50602090601f83116001146127ce5789926127c3575b50508160011b916000199060031b1c19161760018801555b60408101518051906001600160401b0382116127075781906124da60028b015461349d565b601f8111612790575b50602090601f831160011461272657899261271b575b50508160011b916000199060031b1c19161760028801555b60608101519687516001600160401b03811161270757612534600383015461349d565b601f81116126d4575b506020601f821160011461263a576113b194939282610120936008938c9d7ff22dc42214bdb40424e8878e8f5adcc3527b2f9492541d5bcd680b89cc51bd269c9d9261262f575b50508160011b916000199060031b1c19161760038201555b6080840151600482015560a0840151600582015560c0840151600682015560e0840151600782015501916125e36101008201511515849060ff801983541691151516179055565b0151815461ff00191690151560081b61ff0016179055601154612605906137c9565b60115561261f604051948594604086526040860191613ae3565b9083820360208501523396613ae3565b015190503880612584565b6003830189526020892099895b601f19841681106126bc5750926001837ff22dc42214bdb40424e8878e8f5adcc3527b2f9492541d5bcd680b89cc51bd269a9b9c6008946113b199989761012097601f198116106126a3575b505050811b01600382015561259c565b015160001960f88460031b161c19169055388080612693565b828201518c556001909b019a60209283019201612647565b61270190600384018a5260208a20601f840160051c810191602085106109ae57601f0160051c019061381e565b3861253d565b634e487b7160e01b88526041600452602488fd5b0151905038806124f9565b60028b018a5260208a209250601f1984168a5b818110612778575090846001959493921061275f575b505050811b016002880155612511565b015160001960f88460031b161c1916905538808061274f565b92936020600181928786015181550195019301612739565b6127bd9060028c018b5260208b20601f850160051c810191602086106109ae57601f0160051c019061381e565b386124e3565b01519050388061249d565b60018b018a5260208a209250601f1984168a5b8181106128205750908460019594939210612807575b505050811b0160018801556124b5565b015160001960f88460031b161c191690553880806127f7565b929360206001819287860151815501950193016127e1565b6128659060018c018b5260208b20601f850160051c810191602086106109ae57601f0160051c019061381e565b38612487565b60405162461bcd60e51b8152602060048201526012602482015271105b1c9958591e481c9959da5cdd195c995960721b6044820152606490fd5b60405162461bcd60e51b815260206004820152600d60248201526c151e5c19481c995c5d5a5c9959609a1b6044820152606490fd5b60405162461bcd60e51b815260206004820152600d60248201526c13985b59481c995c5d5a5c9959609a1b6044820152606490fd5b5034610285578060031936011261028557612928613ba4565b60025460ff8116156129685760ff19166002557f5db9ee0a495bf2e6ff9c91a7834c1ba4fdd244a5e8aa4e537bd38aeae4b073aa6020604051338152a180f35b604051638dfc202b60e01b8152600490fd5b503461028557602090816003193601126102855760405161299a81613524565b8181528160c0606092838682015283604082015282848201528260808201528360a082015201526004358252600d83526040822092604051926129dc84613524565b845484526001946129ef6001820161358f565b92808601938452612a026002830161358f565b916040870192835260038101549286880193845260048201549060808901918252600583019289604051948c868883549182815201928b52888b20918b5b828110612af857505050506006612aaa949360a0612a9694612a668a60ff96038b61356e565b019788520154169860c08c019915158a526040519b878d5251878d01525160e060408d01526101008c0190613634565b9051601f19998a8c840301908c0152613634565b935160808901525160a088015251948683030160c08701528080865193848152019501925b828110612ae5578451151560e088015286860387f35b8351865294810194928101928701612acf565b835485528f9550938a0193928101928101612a40565b5034610285576020366003190112610285576004358152600b60205260409020805460018201546001600160a01b031691612b4b6002820161358f565b60038201549161209960ff6005600484015493015416926040519687968752602087015260c0604087015260c0860190613634565b50346102855780600319360112610285576020600354604051908152f35b503461028557612bad36613674565b908252600c602052604082208054821015610aba57612bcc925061368a565b50805460018201546001600160a01b031691612c3a612bed6002830161358f565b91600381015490612c276005612c056004840161358f565b920154946040519788978852602088015260c0604088015260c0870190613634565b9160608601528482036080860152613634565b9060a08301520390f35b503461028557604036600319011261028557612c5e613459565b336001600160a01b03821603612c7a57610d6290600435613d58565b60405163334bd91960e11b8152600490fd5b503461028557604036600319011261028557610d62600435612cac613459565b9080845283602052612cc46001604086200154613cb4565b613cda565b5034610285576020366003190112610285576001600160a01b039060409082612cf0613443565b16815260086020522090815416612d096001830161358f565b9160ff612d186002830161358f565b612d246003840161358f565b926004810154936005820154612d81600684015492612d736008600787015496015496612d656040519c8d809d6020610140928392815201528d0190613634565b908b820360408d0152613634565b9089820360608b0152613634565b95608088015260a087015260c086015260e0850152818116151561010085015260081c1615156101208301520390f35b50346102855780600319360112610285576020600554604051908152f35b503461028557602036600319011261028557600160406020926004358152808452200154604051908152f35b503461028557604036600319011261028557612e15613443565b6001600160a01b0316815260106020526040812080546024359290831015610285576020610fdf848461346f565b503461028557604036600319011261028557612e5d613443565b6001600160a01b03168152600e6020526040812080546024359290831015610285576020610fdf848461346f565b5034610285576060366003190112610285576004356001600160401b038111610abe57612ebc903690600401613411565b6024929192356001600160401b038111610aba57612ede903690600401613411565b612ee9939193613b63565b612ef1613b86565b3382526008602052604082208054909190612f16906001600160a01b031615156136d9565b612f2a60ff600884015460081c1615613716565b6005546040516323b872dd60e01b81523360048201523060248201526044810191909152602081606481876001600160a01b037f0000000000000000000000000000000000000000000000000000000000000000165af19081156133935790612f99918591611ed35750613768565b612fa76005546016546137a6565b601655612fb56012546137c9565b9485601255612ff060058401549160405193612fd0856134d7565b888552336020860152612fe436898c6137d8565b604086015236916137d8565b606083015242608083015260443560a083015260c08201528260e082015284835260096020526040832090805182556001820160018060a01b036020830151166001600160601b0360a01b82541617905560408101518051906001600160401b0382116108ec578190613066600286015461349d565b601f8111613360575b50602090601f83116001146132f15787926132e6575b50508160011b916000199060031b1c19161760028301555b60608101518051906001600160401b0382116108ec576130c0600385015461349d565b601f81116132b3575b50602090601f831160011461323d57928260079360e09361313997968a92613232575b50508160011b916000199060031b1c19161760038501555b6080810151600485015560a0810151600585015560c081015160068501550151151591019060ff801983541691151516179055565b338252600e60205261314e8460408420613835565b838252600c60205260408220906040519261316884613509565b8584523360208501526040519060408201908282106001600160401b0383111761321e575086947f91bfc064380de20e1c90ea2ed78d0358b4ab45d446c0b93b0b07bc86f95897da946131e9600361320f9660209c966131fb96604052600781526618dc99585d195960ca1b8e82015260408601524260608601520161358f565b608083015260443560a083015261386a565b604051918291888352339689840191613ae3565b0390a360018055604051908152f35b634e487b7160e01b81526041600452602490fd5b0151905038806130ec565b906003850187526020872091875b601f198516811061329b57508360e093613139979693600193600797601f19811610613282575b505050811b016003850155613104565b015160001960f88460031b161c19169055388080613272565b9192602060018192868501518155019401920161324b565b6132e09060038601885260208820601f850160051c810191602086106109ae57601f0160051c019061381e565b386130c9565b015190503880613085565b9250600285018752602087209087935b601f1984168510613345576001945083601f1981161061332c575b505050811b01600283015561309d565b015160001960f88460031b161c1916905538808061331c565b81810151835560209485019460019093019290910190613301565b61338d9060028701895260208920601f850160051c810191602086106109ae57601f0160051c019061381e565b3861306f565b6040513d86823e3d90fd5b50346102855780600319360112610285576020601354604051908152f35b905034610abe576020366003190112610abe5760043563ffffffff60e01b8116809103610aba5760209250637965db0b60e01b8114908115613400575b5015158152f35b6301ffc9a760e01b149050386133f9565b9181601f8401121561343e578235916001600160401b03831161343e576020838186019501011161343e57565b600080fd5b600435906001600160a01b038216820361343e57565b602435906001600160a01b038216820361343e57565b80548210156134875760005260206000200190600090565b634e487b7160e01b600052603260045260246000fd5b90600182811c921680156134cd575b60208310146134b757565b634e487b7160e01b600052602260045260246000fd5b91607f16916134ac565b61010081019081106001600160401b038211176134f357604052565b634e487b7160e01b600052604160045260246000fd5b60c081019081106001600160401b038211176134f357604052565b60e081019081106001600160401b038211176134f357604052565b61014081019081106001600160401b038211176134f357604052565b6001600160401b0381116134f357604052565b90601f801991011681019081106001600160401b038211176134f357604052565b906040519182600082546135a28161349d565b9081845260209460019160018116908160001461361257506001146135d3575b5050506135d19250038361356e565b565b600090815285812095935091905b8183106135fa5750506135d193508201013880806135c2565b855488840185015294850194879450918301916135e1565b925050506135d194925060ff191682840152151560051b8201013880806135c2565b919082519283825260005b848110613660575050826000602080949584010152601f8019910116010190565b60208183018101518483018201520161363f565b604090600319011261343e576004359060243590565b8054821015613487576000526006602060002091020190600090565b90604060031983011261343e5760043591602435906001600160401b03821161343e576136d591600401613411565b9091565b156136e057565b60405162461bcd60e51b815260206004820152600e60248201526d139bdd081c9959da5cdd195c995960921b6044820152606490fd5b1561371d57565b60405162461bcd60e51b815260206004820152600b60248201526a109b1858dadb1a5cdd195960aa1b6044820152606490fd5b9081602091031261343e5751801515810361343e5790565b1561376f57565b60405162461bcd60e51b815260206004820152600f60248201526e151c985b9cd9995c8819985a5b1959608a1b6044820152606490fd5b919082018092116137b357565b634e487b7160e01b600052601160045260246000fd5b60001981146137b35760010190565b9291926001600160401b0382116134f35760405191613801601f8201601f19166020018461356e565b82948184528183011161343e578281602093846000960137010152565b818110613829575050565b6000815560010161381e565b8054600160401b8110156134f3576138529160018201815561346f565b819291549060031b91821b91600019901b1916179055565b8054600160401b8110156134f35761388990600192838201815561368a565b929092613acd57805183558183019160209260018060a01b0384840151166001600160601b0360a01b825416179055600284016040830151918251916001600160401b03928381116134f357806138e0835461349d565b95601f96878111613a9f575b508890878311600114613a3c57600092613a31575b5050600019600383901b1c191690831b1790555b60608401516003870155600486019260808501519586519384116134f35761393d855461349d565b8281116139f9575b508091841160011461398a57509180809260a096959460059860009461397f575b50501b916000199060031b1c19161790555b0151910155565b015192503880613966565b91939495601f1984168660005283600020936000905b8282106139e2575050916005979593918560a0989694106139c9575b505050811b019055613978565b015160001960f88460031b161c191690553880806139bc565b8088869782949787015181550196019401906139a0565b613a229086600052826000208480880160051c820192858910613a28575b0160051c019061381e565b38613945565b92508192613a17565b015190503880613901565b90859350601f19831691856000528a6000209260005b8c828210613a895750508411613a70575b505050811b019055613915565b015160001960f88460031b161c19169055388080613a63565b8385015186558997909501949384019301613a52565b613ac790856000528a6000208980860160051c8201928d8710613a28570160051c019061381e565b386138ec565b634e487b7160e01b600052600060045260246000fd5b908060209392818452848401376000828201840152601f01601f1916010190565b6001600160401b0381116134f35760051b60200190565b15613b2257565b60405162461bcd60e51b8152602060048201526009602482015268139bdd08199bdd5b9960ba1b6044820152606490fd5b91908110156134875760051b0190565b600260015414613b74576002600155565b604051633ee5aeb560e01b8152600490fd5b60ff60025416613b9257565b60405163d93c066560e01b8152600490fd5b3360009081527fad3228b676f7d3cd4284a5443f17f1962b36e491b30a40b2405849e597ba5fb5602052604081205460ff1615613bde5750565b6044906040519063e2517d3f60e01b82523360048301526024820152fd5b3360009081527facfff8a39fb957d9d1c8e3ef9f08385e3fcf7bb23ab7ba0ad0f8df93dbde6a6860205260409020547f273dcf2136c7d8ef632bb8ef13dbca69a8f36fa620c7468671b3153d46a211c09060ff1615613bde5750565b3360009081527ffe618c914587dd7ba3e1acd37a967f49c0ddd40aac12fbb6ca27c0d60e34d9d160205260409020547f65cb1d8422cdf0328f26b49e42e9f4524474c431da623cbe0ea455f1b67c9f779060ff1615613bde5750565b80600052600060205260406000203360005260205260ff6040600020541615613bde5750565b9060009180835282602052604083209160018060a01b03169182845260205260ff60408420541615600014613d5357808352826020526040832082845260205260408320600160ff198254161790557f2f8788117e7eff1d82e926ec794901d17c78024a50270940304540a733656f0d339380a4600190565b505090565b9060009180835282602052604083209160018060a01b03169182845260205260ff604084205416600014613d535780835282602052604083208284526020526040832060ff1981541690557ff6391f5c32d9c69d2a47ea670b442974b53935d1edc7fd64eb21e047a839171b339380a460019056fea26469706673582212200886b1ad27c6237e705a788cad62e964c7bfdbe39e859be840e38ed42ee3391664736f6c634300081600332f8788117e7eff1d82e926ec794901d17c78024a50270940304540a733656f0d",
  "linkReferences": {},
  "deployedLinkReferences": {}
}