{
  "_format": "hh-sol-artifact-1",
  "contractName": "KaiClimate",
  "sourceName": "contracts/pillars/KaiClimate.sol",
  "abi": [
    {
      "inputs": [
        {
          "internalType": "address",
          "name": "_kaiToken",
          "type": "address"
        },
        {
          "internalType": "address",
          "name": "admin",
          "type": "address"
        }
      ],
      "stateMutability": "nonpayable",
      "type": "constructor"
    },
    {
      "inputs": [],
      "name": "AccessControlBadConfirmation",
      "type": "error"
    },
    {
      "inputs": [
        {
          "internalType": "address",
          "name": "account",
          "type": "address"
        },
        {
          "internalType": "bytes32",
          "name": "neededRole",
          "type": "bytes32"
        }
      ],
      "name": "AccessControlUnauthorizedAccount",
      "type": "error"
    },
    {
      "inputs": [],
      "name": "EnforcedPause",
      "type": "error"
    },
    {
      "inputs": [],
      "name": "ExpectedPause",
      "type": "error"
    },
    {
      "inputs": [],
      "name": "ReentrancyGuardReentrantCall",
      "type": "error"
    },
    {
      "anonymous": false,
      "inputs": [
        {
          "indexed": true,
          "internalType": "uint256",
          "name": "creditId",
          "type": "uint256"
        },
        {
          "indexed": true,
          "internalType": "uint256",
          "name": "projectId",
          "type": "uint256"
        },
        {
          "indexed": true,
          "internalType": "address",
          "name": "owner",
          "type": "address"
        },
        {
          "indexed": false,
          "internalType": "uint256",
          "name": "tons",
          "type": "uint256"
        }
      ],
      "name": "CarbonCreditIssued",
      "type": "event"
    },
    {
      "anonymous": false,
      "inputs": [
        {
          "indexed": true,
          "internalType": "uint256",
          "name": "creditId",
          "type": "uint256"
        },
        {
          "indexed": true,
          "internalType": "address",
          "name": "retirer",
          "type": "address"
        }
      ],
      "name": "CarbonCreditRetired",
      "type": "event"
    },
    {
      "anonymous": false,
      "inputs": [
        {
          "indexed": true,
          "internalType": "uint256",
          "name": "creditId",
          "type": "uint256"
        },
        {
          "indexed": true,
          "internalType": "address",
          "name": "from",
          "type": "address"
        },
        {
          "indexed": true,
          "internalType": "address",
          "name": "to",
          "type": "address"
        }
      ],
      "name": "CarbonCreditTransferred",
      "type": "event"
    },
    {
      "anonymous": false,
      "inputs": [
        {
          "indexed": false,
          "internalType": "address",
          "name": "account",
          "type": "address"
        }
      ],
      "name": "Paused",
      "type": "event"
    },
    {
      "anonymous": false,
      "inputs": [
        {
          "indexed": true,
          "internalType": "uint256",
          "name": "projectId",
          "type": "uint256"
        },
        {
          "indexed": true,
          "internalType": "address",
          "name": "funder",
          "type": "address"
        },
        {
          "indexed": false,
          "internalType": "uint256",
          "name": "amount",
          "type": "uint256"
        }
      ],
      "name": "ProjectFunded",
      "type": "event"
    },
    {
      "anonymous": false,
      "inputs": [
        {
          "indexed": true,
          "internalType": "uint256",
          "name": "projectId",
          "type": "uint256"
        },
        {
          "indexed": true,
          "internalType": "address",
          "name": "proposer",
          "type": "address"
        },
        {
          "indexed": false,
          "internalType": "string",
          "name": "name",
          "type": "string"
        },
        {
          "indexed": false,
          "internalType": "uint256",
          "name": "fundingGoal",
          "type": "uint256"
        }
      ],
      "name": "ProjectProposed",
      "type": "event"
    },
    {
      "anonymous": false,
      "inputs": [
        {
          "indexed": true,
          "internalType": "uint256",
          "name": "projectId",
          "type": "uint256"
        },
        {
          "indexed": false,
          "internalType": "enum KaiClimate.ProjectStatus",
          "name": "status",
          "type": "uint8"
        }
      ],
      "name": "ProjectStatusChanged",
      "type": "event"
    },
    {
      "anonymous": false,
      "inputs": [
        {
          "indexed": true,
          "internalType": "uint256",
          "name": "projectId",
          "type": "uint256"
        },
        {
          "indexed": true,
          "internalType": "address",
          "name": "voter",
          "type": "address"
        },
        {
          "indexed": false,
          "internalType": "bool",
          "name": "support",
          "type": "bool"
        }
      ],
      "name": "ProjectVoted",
      "type": "event"
    },
    {
      "anonymous": false,
      "inputs": [
        {
          "indexed": true,
          "internalType": "uint256",
          "name": "modelId",
          "type": "uint256"
        },
        {
          "indexed": false,
          "internalType": "string",
          "name": "name",
          "type": "string"
        },
        {
          "indexed": false,
          "internalType": "string",
          "name": "region",
          "type": "string"
        },
        {
          "indexed": false,
          "internalType": "string",
          "name": "riskType",
          "type": "string"
        }
      ],
      "name": "RiskModelCreated",
      "type": "event"
    },
    {
      "anonymous": false,
      "inputs": [
        {
          "indexed": true,
          "internalType": "uint256",
          "name": "modelId",
          "type": "uint256"
        },
        {
          "indexed": false,
          "internalType": "string",
          "name": "region",
          "type": "string"
        },
        {
          "indexed": false,
          "internalType": "uint256",
          "name": "score",
          "type": "uint256"
        },
        {
          "indexed": false,
          "internalType": "uint256",
          "name": "projectionYear",
          "type": "uint256"
        }
      ],
      "name": "RiskScorePublished",
      "type": "event"
    },
    {
      "anonymous": false,
      "inputs": [
        {
          "indexed": true,
          "internalType": "bytes32",
          "name": "role",
          "type": "bytes32"
        },
        {
          "indexed": true,
          "internalType": "bytes32",
          "name": "previousAdminRole",
          "type": "bytes32"
        },
        {
          "indexed": true,
          "internalType": "bytes32",
          "name": "newAdminRole",
          "type": "bytes32"
        }
      ],
      "name": "RoleAdminChanged",
      "type": "event"
    },
    {
      "anonymous": false,
      "inputs": [
        {
          "indexed": true,
          "internalType": "bytes32",
          "name": "role",
          "type": "bytes32"
        },
        {
          "indexed": true,
          "internalType": "address",
          "name": "account",
          "type": "address"
        },
        {
          "indexed": true,
          "internalType": "address",
          "name": "sender",
          "type": "address"
        }
      ],
      "name": "RoleGranted",
      "type": "event"
    },
    {
      "anonymous": false,
      "inputs": [
        {
          "indexed": true,
          "internalType": "bytes32",
          "name": "role",
          "type": "bytes32"
        },
        {
          "indexed": true,
          "internalType": "address",
          "name": "account",
          "type": "address"
        },
        {
          "indexed": true,
          "internalType": "address",
          "name": "sender",
          "type": "address"
        }
      ],
      "name": "RoleRevoked",
      "type": "event"
    },
    {
      "anonymous": false,
      "inputs": [
        {
          "indexed": false,
          "internalType": "address",
          "name": "account",
          "type": "address"
        }
      ],
      "name": "Unpaused",
      "type": "event"
    },
    {
      "inputs": [],
      "name": "CARBON_VERIFIER_ROLE",
      "outputs": [
        {
          "internalType": "bytes32",
          "name": "",
          "type": "bytes32"
        }
      ],
      "stateMutability": "view",
      "type": "function"
    },
    {
      "inputs": [],
      "name": "CLIMATE_SCIENTIST_ROLE",
      "outputs": [
        {
          "internalType": "bytes32",
          "name": "",
          "type": "bytes32"
        }
      ],
      "stateMutability": "view",
      "type": "function"
    },
    {
      "inputs": [],
      "name": "DEFAULT_ADMIN_ROLE",
      "outputs": [
        {
          "internalType": "bytes32",
          "name": "",
          "type": "bytes32"
        }
      ],
      "stateMutability": "view",
      "type": "function"
    },
    {
      "inputs": [],
      "name": "PROJECT_VALIDATOR_ROLE",
      "outputs": [
        {
          "internalType": "bytes32",
          "name": "",
          "type": "bytes32"
        }
      ],
      "stateMutability": "view",
      "type": "function"
    },
    {
      "inputs": [
        {
          "internalType": "uint256",
          "name": "modelId",
          "type": "uint256"
        }
      ],
      "name": "accessRiskModel",
      "outputs": [],
      "stateMutability": "nonpayable",
      "type": "function"
    },
    {
      "inputs": [],
      "name": "adaptationFund",
      "outputs": [
        {
          "internalType": "uint256",
          "name": "",
          "type": "uint256"
        }
      ],
      "stateMutability": "view",
      "type": "function"
    },
    {
      "inputs": [
        {
          "internalType": "uint256",
          "name": "",
          "type": "uint256"
        }
      ],
      "name": "adaptationProjects",
      "outputs": [
        {
          "internalType": "uint256",
          "name": "id",
          "type": "uint256"
        },
        {
          "internalType": "address",
          "name": "proposer",
          "type": "address"
        },
        {
          "internalType": "string",
          "name": "name",
          "type": "string"
        },
        {
          "internalType": "string",
          "name": "projectType",
          "type": "string"
        },
        {
          "internalType": "string",
          "name": "region",
          "type": "string"
        },
        {
          "internalType": "uint256",
          "name": "fundingGoal",
          "type": "uint256"
        },
        {
          "internalType": "uint256",
          "name": "fundingRaised",
          "type": "uint256"
        },
        {
          "internalType": "uint256",
          "name": "startDate",
          "type": "uint256"
        },
        {
          "internalType": "uint256",
          "name": "endDate",
          "type": "uint256"
        },
        {
          "internalType": "bytes32",
          "name": "proposalHash",
          "type": "bytes32"
        },
        {
          "internalType": "enum KaiClimate.ProjectStatus",
          "name": "status",
          "type": "uint8"
        },
        {
          "internalType": "uint256",
          "name": "carbonOffset",
          "type": "uint256"
        },
        {
          "internalType": "uint256",
          "name": "beneficiaries",
          "type": "uint256"
        }
      ],
      "stateMutability": "view",
      "type": "function"
    },
    {
      "inputs": [
        {
          "internalType": "uint256",
          "name": "projectId",
          "type": "uint256"
        },
        {
          "internalType": "uint256",
          "name": "minVotes",
          "type": "uint256"
        }
      ],
      "name": "approveProject",
      "outputs": [],
      "stateMutability": "nonpayable",
      "type": "function"
    },
    {
      "inputs": [
        {
          "internalType": "uint256",
          "name": "projectId",
          "type": "uint256"
        }
      ],
      "name": "cancelProject",
      "outputs": [],
      "stateMutability": "nonpayable",
      "type": "function"
    },
    {
      "inputs": [],
      "name": "carbonCreditPrice",
      "outputs": [
        {
          "internalType": "uint256",
          "name": "",
          "type": "uint256"
        }
      ],
      "stateMutability": "view",
      "type": "function"
    },
    {
      "inputs": [
        {
          "internalType": "uint256",
          "name": "",
          "type": "uint256"
        }
      ],
      "name": "carbonCredits",
      "outputs": [
        {
          "internalType": "uint256",
          "name": "id",
          "type": "uint256"
        },
        {
          "internalType": "uint256",
          "name": "projectId",
          "type": "uint256"
        },
        {
          "internalType": "address",
          "name": "owner",
          "type": "address"
        },
        {
          "internalType": "uint256",
          "name": "tons",
          "type": "uint256"
        },
        {
          "internalType": "uint256",
          "name": "vintage",
          "type": "uint256"
        },
        {
          "internalType": "string",
          "name": "standard",
          "type": "string"
        },
        {
          "internalType": "bool",
          "name": "retired",
          "type": "bool"
        },
        {
          "internalType": "uint256",
          "name": "retiredAt",
          "type": "uint256"
        }
      ],
      "stateMutability": "view",
      "type": "function"
    },
    {
      "inputs": [
        {
          "internalType": "uint256",
          "name": "projectId",
          "type": "uint256"
        },
        {
          "internalType": "uint256",
          "name": "carbonOffset",
          "type": "uint256"
        },
        {
          "internalType": "uint256",
          "name": "beneficiaries",
          "type": "uint256"
        }
      ],
      "name": "completeProject",
      "outputs": [],
      "stateMutability": "nonpayable",
      "type": "function"
    },
    {
      "inputs": [
        {
          "internalType": "string",
          "name": "name",
          "type": "string"
        },
        {
          "internalType": "string",
          "name": "region",
          "type": "string"
        },
        {
          "internalType": "string",
          "name": "riskType",
          "type": "string"
        },
        {
          "internalType": "uint256",
          "name": "timeHorizon",
          "type": "uint256"
        },
        {
          "internalType": "uint256",
          "name": "confidenceLevel",
          "type": "uint256"
        },
        {
          "internalType": "bytes32",
          "name": "modelHash",
          "type": "bytes32"
        }
      ],
      "name": "createRiskModel",
      "outputs": [
        {
          "internalType": "uint256",
          "name": "",
          "type": "uint256"
        }
      ],
      "stateMutability": "nonpayable",
      "type": "function"
    },
    {
      "inputs": [
        {
          "internalType": "address",
          "name": "",
          "type": "address"
        },
        {
          "internalType": "uint256",
          "name": "",
          "type": "uint256"
        }
      ],
      "name": "creatorModels",
      "outputs": [
        {
          "internalType": "uint256",
          "name": "",
          "type": "uint256"
        }
      ],
      "stateMutability": "view",
      "type": "function"
    },
    {
      "inputs": [],
      "name": "creditCount",
      "outputs": [
        {
          "internalType": "uint256",
          "name": "",
          "type": "uint256"
        }
      ],
      "stateMutability": "view",
      "type": "function"
    },
    {
      "inputs": [
        {
          "internalType": "uint256",
          "name": "modelId",
          "type": "uint256"
        }
      ],
      "name": "deactivateModel",
      "outputs": [],
      "stateMutability": "nonpayable",
      "type": "function"
    },
    {
      "inputs": [
        {
          "internalType": "uint256",
          "name": "amount",
          "type": "uint256"
        }
      ],
      "name": "depositToFund",
      "outputs": [],
      "stateMutability": "nonpayable",
      "type": "function"
    },
    {
      "inputs": [
        {
          "internalType": "uint256",
          "name": "projectId",
          "type": "uint256"
        },
        {
          "internalType": "uint256",
          "name": "amount",
          "type": "uint256"
        }
      ],
      "name": "fundProject",
      "outputs": [],
      "stateMutability": "nonpayable",
      "type": "function"
    },
    {
      "inputs": [
        {
          "internalType": "uint256",
          "name": "creditId",
          "type": "uint256"
        }
      ],
      "name": "getCarbonCredit",
      "outputs": [
        {
          "components": [
            {
              "internalType": "uint256",
              "name": "id",
              "type": "uint256"
            },
            {
              "internalType": "uint256",
              "name": "projectId",
              "type": "uint256"
            },
            {
              "internalType": "address",
              "name": "owner",
              "type": "address"
            },
            {
              "internalType": "uint256",
              "name": "tons",
              "type": "uint256"
            },
            {
              "internalType": "uint256",
              "name": "vintage",
              "type": "uint256"
            },
            {
              "internalType": "string",
              "name": "standard",
              "type": "string"
            },
            {
              "internalType": "bool",
              "name": "retired",
              "type": "bool"
            },
            {
              "internalType": "uint256",
              "name": "retiredAt",
              "type": "uint256"
            }
          ],
          "internalType": "struct KaiClimate.CarbonCredit",
          "name": "",
          "type": "tuple"
        }
      ],
      "stateMutability": "view",
      "type": "function"
    },
    {
      "inputs": [
        {
          "internalType": "uint256",
          "name": "modelId",
          "type": "uint256"
        }
      ],
      "name": "getModelScores",
      "outputs": [
        {
          "components": [
            {
              "internalType": "uint256",
              "name": "modelId",
              "type": "uint256"
            },
            {
              "internalType": "string",
              "name": "region",
              "type": "string"
            },
            {
              "internalType": "uint256",
              "name": "score",
              "type": "uint256"
            },
            {
              "internalType": "uint256",
              "name": "timestamp",
              "type": "uint256"
            },
            {
              "internalType": "uint256",
              "name": "projectionYear",
              "type": "uint256"
            },
            {
              "internalType": "string",
              "name": "impactDescription",
              "type": "string"
            }
          ],
          "internalType": "struct KaiClimate.RiskScore[]",
          "name": "",
          "type": "tuple[]"
        }
      ],
      "stateMutability": "view",
      "type": "function"
    },
    {
      "inputs": [
        {
          "internalType": "address",
          "name": "owner",
          "type": "address"
        }
      ],
      "name": "getOwnerCredits",
      "outputs": [
        {
          "internalType": "uint256[]",
          "name": "",
          "type": "uint256[]"
        }
      ],
      "stateMutability": "view",
      "type": "function"
    },
    {
      "inputs": [
        {
          "internalType": "uint256",
          "name": "projectId",
          "type": "uint256"
        }
      ],
      "name": "getProject",
      "outputs": [
        {
          "components": [
            {
              "internalType": "uint256",
              "name": "id",
              "type": "uint256"
            },
            {
              "internalType": "address",
              "name": "proposer",
              "type": "address"
            },
            {
              "internalType": "string",
              "name": "name",
              "type": "string"
            },
            {
              "internalType": "string",
              "name": "projectType",
              "type": "string"
            },
            {
              "internalType": "string",
              "name": "region",
              "type": "string"
            },
            {
              "internalType": "uint256",
              "name": "fundingGoal",
              "type": "uint256"
            },
            {
              "internalType": "uint256",
              "name": "fundingRaised",
              "type": "uint256"
            },
            {
              "internalType": "uint256",
              "name": "startDate",
              "type": "uint256"
            },
            {
              "internalType": "uint256",
              "name": "endDate",
              "type": "uint256"
            },
            {
              "internalType": "bytes32",
              "name": "proposalHash",
              "type": "bytes32"
            },
            {
              "internalType": "enum KaiClimate.ProjectStatus",
              "name": "status",
              "type": "uint8"
            },
            {
              "internalType": "uint256",
              "name": "carbonOffset",
              "type": "uint256"
            },
            {
              "internalType": "uint256",
              "name": "beneficiaries",
              "type": "uint256"
            }
          ],
          "internalType": "struct KaiClimate.AdaptationProject",
          "name": "",
          "type": "tuple"
        }
      ],
      "stateMutability": "view",
      "type": "function"
    },
    {
      "inputs": [
        {
          "internalType": "uint256",
          "name": "modelId",
          "type": "uint256"
        }
      ],
      "name": "getRiskModel",
      "outputs": [
        {
          "components": [
            {
              "internalType": "uint256",
              "name": "id",
              "type": "uint256"
            },
            {
              "internalType": "string",
              "name": "name",
              "type": "string"
            },
            {
              "internalType": "string",
              "name": "region",
              "type": "string"
            },
            {
              "internalType": "string",
              "name": "riskType",
              "type": "string"
            },
            {
              "internalType": "uint256",
              "name": "timeHorizon",
              "type": "uint256"
            },
            {
              "internalType": "uint256",
              "name": "confidenceLevel",
              "type": "uint256"
            },
            {
              "internalType": "bytes32",
              "name": "modelHash",
              "type": "bytes32"
            },
            {
              "internalType": "uint256",
              "name": "createdAt",
              "type": "uint256"
            },
            {
              "internalType": "uint256",
              "name": "lastUpdated",
              "type": "uint256"
            },
            {
              "internalType": "address",
              "name": "creator",
              "type": "address"
            },
            {
              "internalType": "uint256",
              "name": "accessCount",
              "type": "uint256"
            },
            {
              "internalType": "bool",
              "name": "active",
              "type": "bool"
            }
          ],
          "internalType": "struct KaiClimate.ClimateRiskModel",
          "name": "",
          "type": "tuple"
        }
      ],
      "stateMutability": "view",
      "type": "function"
    },
    {
      "inputs": [
        {
          "internalType": "bytes32",
          "name": "role",
          "type": "bytes32"
        }
      ],
      "name": "getRoleAdmin",
      "outputs": [
        {
          "internalType": "bytes32",
          "name": "",
          "type": "bytes32"
        }
      ],
      "stateMutability": "view",
      "type": "function"
    },
    {
      "inputs": [
        {
          "internalType": "address",
          "name": "entity",
          "type": "address"
        }
      ],
      "name": "getSustainabilityMetric",
      "outputs": [
        {
          "components": [
            {
              "internalType": "address",
              "name": "entity",
              "type": "address"
            },
            {
              "internalType": "uint256",
              "name": "carbonFootprint",
              "type": "uint256"
            },
            {
              "internalType": "uint256",
              "name": "carbonOffset",
              "type": "uint256"
            },
            {
              "internalType": "int256",
              "name": "netEmissions",
              "type": "int256"
            },
            {
              "internalType": "uint256",
              "name": "adaptationContributions",
              "type": "uint256"
            },
            {
              "internalType": "uint256",
              "name": "lastUpdated",
              "type": "uint256"
            }
          ],
          "internalType": "struct KaiClimate.SustainabilityMetric",
          "name": "",
          "type": "tuple"
        }
      ],
      "stateMutability": "view",
      "type": "function"
    },
    {
      "inputs": [
        {
          "internalType": "bytes32",
          "name": "role",
          "type": "bytes32"
        },
        {
          "internalType": "address",
          "name": "account",
          "type": "address"
        }
      ],
      "name": "grantRole",
      "outputs": [],
      "stateMutability": "nonpayable",
      "type": "function"
    },
    {
      "inputs": [
        {
          "internalType": "bytes32",
          "name": "role",
          "type": "bytes32"
        },
        {
          "internalType": "address",
          "name": "account",
          "type": "address"
        }
      ],
      "name": "hasRole",
      "outputs": [
        {
          "internalType": "bool",
          "name": "",
          "type": "bool"
        }
      ],
      "stateMutability": "view",
      "type": "function"
    },
    {
      "inputs": [
        {
          "internalType": "uint256",
          "name": "projectId",
          "type": "uint256"
        },
        {
          "internalType": "address",
          "name": "recipient",
          "type": "address"
        },
        {
          "internalType": "uint256",
          "name": "tons",
          "type": "uint256"
        },
        {
          "internalType": "uint256",
          "name": "vintage",
          "type": "uint256"
        },
        {
          "internalType": "string",
          "name": "standard",
          "type": "string"
        }
      ],
      "name": "issueCarbonCredits",
      "outputs": [
        {
          "internalType": "uint256",
          "name": "",
          "type": "uint256"
        }
      ],
      "stateMutability": "nonpayable",
      "type": "function"
    },
    {
      "inputs": [],
      "name": "kaiToken",
      "outputs": [
        {
          "internalType": "contract KaiToken",
          "name": "",
          "type": "address"
        }
      ],
      "stateMutability": "view",
      "type": "function"
    },
    {
      "inputs": [],
      "name": "modelCount",
      "outputs": [
        {
          "internalType": "uint256",
          "name": "",
          "type": "uint256"
        }
      ],
      "stateMutability": "view",
      "type": "function"
    },
    {
      "inputs": [
        {
          "internalType": "uint256",
          "name": "",
          "type": "uint256"
        },
        {
          "internalType": "uint256",
          "name": "",
          "type": "uint256"
        }
      ],
      "name": "modelScores",
      "outputs": [
        {
          "internalType": "uint256",
          "name": "modelId",
          "type": "uint256"
        },
        {
          "internalType": "string",
          "name": "region",
          "type": "string"
        },
        {
          "internalType": "uint256",
          "name": "score",
          "type": "uint256"
        },
        {
          "internalType": "uint256",
          "name": "timestamp",
          "type": "uint256"
        },
        {
          "internalType": "uint256",
          "name": "projectionYear",
          "type": "uint256"
        },
        {
          "internalType": "string",
          "name": "impactDescription",
          "type": "string"
        }
      ],
      "stateMutability": "view",
      "type": "function"
    },
    {
      "inputs": [
        {
          "internalType": "address",
          "name": "",
          "type": "address"
        },
        {
          "internalType": "uint256",
          "name": "",
          "type": "uint256"
        }
      ],
      "name": "ownerCredits",
      "outputs": [
        {
          "internalType": "uint256",
          "name": "",
          "type": "uint256"
        }
      ],
      "stateMutability": "view",
      "type": "function"
    },
    {
      "inputs": [],
      "name": "pause",
      "outputs": [],
      "stateMutability": "nonpayable",
      "type": "function"
    },
    {
      "inputs": [],
      "name": "paused",
      "outputs": [
        {
          "internalType": "bool",
          "name": "",
          "type": "bool"
        }
      ],
      "stateMutability": "view",
      "type": "function"
    },
    {
      "inputs": [],
      "name": "projectCount",
      "outputs": [
        {
          "internalType": "uint256",
          "name": "",
          "type": "uint256"
        }
      ],
      "stateMutability": "view",
      "type": "function"
    },
    {
      "inputs": [],
      "name": "projectProposalFee",
      "outputs": [
        {
          "internalType": "uint256",
          "name": "",
          "type": "uint256"
        }
      ],
      "stateMutability": "view",
      "type": "function"
    },
    {
      "inputs": [
        {
          "internalType": "uint256",
          "name": "",
          "type": "uint256"
        }
      ],
      "name": "projectVoteCount",
      "outputs": [
        {
          "internalType": "uint256",
          "name": "",
          "type": "uint256"
        }
      ],
      "stateMutability": "view",
      "type": "function"
    },
    {
      "inputs": [
        {
          "internalType": "uint256",
          "name": "",
          "type": "uint256"
        },
        {
          "internalType": "address",
          "name": "",
          "type": "address"
        }
      ],
      "name": "projectVotes",
      "outputs": [
        {
          "internalType": "bool",
          "name": "",
          "type": "bool"
        }
      ],
      "stateMutability": "view",
      "type": "function"
    },
    {
      "inputs": [
        {
          "internalType": "string",
          "name": "name",
          "type": "string"
        },
        {
          "internalType": "string",
          "name": "projectType",
          "type": "string"
        },
        {
          "internalType": "string",
          "name": "region",
          "type": "string"
        },
        {
          "internalType": "uint256",
          "name": "fundingGoal",
          "type": "uint256"
        },
        {
          "internalType": "uint256",
          "name": "durationDays",
          "type": "uint256"
        },
        {
          "internalType": "bytes32",
          "name": "proposalHash",
          "type": "bytes32"
        }
      ],
      "name": "proposeProject",
      "outputs": [
        {
          "internalType": "uint256",
          "name": "",
          "type": "uint256"
        }
      ],
      "stateMutability": "nonpayable",
      "type": "function"
    },
    {
      "inputs": [
        {
          "internalType": "address",
          "name": "",
          "type": "address"
        },
        {
          "internalType": "uint256",
          "name": "",
          "type": "uint256"
        }
      ],
      "name": "proposerProjects",
      "outputs": [
        {
          "internalType": "uint256",
          "name": "",
          "type": "uint256"
        }
      ],
      "stateMutability": "view",
      "type": "function"
    },
    {
      "inputs": [
        {
          "internalType": "uint256",
          "name": "modelId",
          "type": "uint256"
        },
        {
          "internalType": "string",
          "name": "region",
          "type": "string"
        },
        {
          "internalType": "uint256",
          "name": "score",
          "type": "uint256"
        },
        {
          "internalType": "uint256",
          "name": "projectionYear",
          "type": "uint256"
        },
        {
          "internalType": "string",
          "name": "impactDescription",
          "type": "string"
        }
      ],
      "name": "publishRiskScore",
      "outputs": [],
      "stateMutability": "nonpayable",
      "type": "function"
    },
    {
      "inputs": [
        {
          "internalType": "uint256",
          "name": "tons",
          "type": "uint256"
        }
      ],
      "name": "purchaseCarbonCredits",
      "outputs": [
        {
          "internalType": "uint256",
          "name": "",
          "type": "uint256"
        }
      ],
      "stateMutability": "nonpayable",
      "type": "function"
    },
    {
      "inputs": [
        {
          "internalType": "bytes32",
          "name": "role",
          "type": "bytes32"
        },
        {
          "internalType": "address",
          "name": "callerConfirmation",
          "type": "address"
        }
      ],
      "name": "renounceRole",
      "outputs": [],
      "stateMutability": "nonpayable",
      "type": "function"
    },
    {
      "inputs": [
        {
          "internalType": "uint256",
          "name": "creditId",
          "type": "uint256"
        }
      ],
      "name": "retireCarbonCredits",
      "outputs": [],
      "stateMutability": "nonpayable",
      "type": "function"
    },
    {
      "inputs": [
        {
          "internalType": "bytes32",
          "name": "role",
          "type": "bytes32"
        },
        {
          "internalType": "address",
          "name": "account",
          "type": "address"
        }
      ],
      "name": "revokeRole",
      "outputs": [],
      "stateMutability": "nonpayable",
      "type": "function"
    },
    {
      "inputs": [],
      "name": "riskModelAccessFee",
      "outputs": [
        {
          "internalType": "uint256",
          "name": "",
          "type": "uint256"
        }
      ],
      "stateMutability": "view",
      "type": "function"
    },
    {
      "inputs": [
        {
          "internalType": "uint256",
          "name": "",
          "type": "uint256"
        }
      ],
      "name": "riskModels",
      "outputs": [
        {
          "internalType": "uint256",
          "name": "id",
          "type": "uint256"
        },
        {
          "internalType": "string",
          "name": "name",
          "type": "string"
        },
        {
          "internalType": "string",
          "name": "region",
          "type": "string"
        },
        {
          "internalType": "string",
          "name": "riskType",
          "type": "string"
        },
        {
          "internalType": "uint256",
          "name": "timeHorizon",
          "type": "uint256"
        },
        {
          "internalType": "uint256",
          "name": "confidenceLevel",
          "type": "uint256"
        },
        {
          "internalType": "bytes32",
          "name": "modelHash",
          "type": "bytes32"
        },
        {
          "internalType": "uint256",
          "name": "createdAt",
          "type": "uint256"
        },
        {
          "internalType": "uint256",
          "name": "lastUpdated",
          "type": "uint256"
        },
        {
          "internalType": "address",
          "name": "creator",
          "type": "address"
        },
        {
          "internalType": "uint256",
          "name": "accessCount",
          "type": "uint256"
        },
        {
          "internalType": "bool",
          "name": "active",
          "type": "bool"
        }
      ],
      "stateMutability": "view",
      "type": "function"
    },
    {
      "inputs": [
        {
          "internalType": "uint256",
          "name": "modelFee",
          "type": "uint256"
        },
        {
          "internalType": "uint256",
          "name": "proposalFee",
          "type": "uint256"
        },
        {
          "internalType": "uint256",
          "name": "creditPrice",
          "type": "uint256"
        }
      ],
      "name": "setFees",
      "outputs": [],
      "stateMutability": "nonpayable",
      "type": "function"
    },
    {
      "inputs": [
        {
          "internalType": "uint256",
          "name": "projectId",
          "type": "uint256"
        }
      ],
      "name": "startProject",
      "outputs": [],
      "stateMutability": "nonpayable",
      "type": "function"
    },
    {
      "inputs": [
        {
          "internalType": "uint256",
          "name": "projectId",
          "type": "uint256"
        }
      ],
      "name": "startProjectVoting",
      "outputs": [],
      "stateMutability": "nonpayable",
      "type": "function"
    },
    {
      "inputs": [
        {
          "internalType": "bytes4",
          "name": "interfaceId",
          "type": "bytes4"
        }
      ],
      "name": "supportsInterface",
      "outputs": [
        {
          "internalType": "bool",
          "name": "",
          "type": "bool"
        }
      ],
      "stateMutability": "view",
      "type": "function"
    },
    {
      "inputs": [
        {
          "internalType": "address",
          "name": "",
          "type": "address"
        }
      ],
      "name": "sustainabilityMetrics",
      "outputs": [
        {
          "internalType": "address",
          "name": "entity",
          "type": "address"
        },
        {
          "internalType": "uint256",
          "name": "carbonFootprint",
          "type": "uint256"
        },
        {
          "internalType": "uint256",
          "name": "carbonOffset",
          "type": "uint256"
        },
        {
          "internalType": "int256",
          "name": "netEmissions",
          "type": "int256"
        },
        {
          "internalType": "uint256",
          "name": "adaptationContributions",
          "type": "uint256"
        },
        {
          "internalType": "uint256",
          "name": "lastUpdated",
          "type": "uint256"
        }
      ],
      "stateMutability": "view",
      "type": "function"
    },
    {
      "inputs": [],
      "name": "totalCarbonOffset",
      "outputs": [
        {
          "internalType": "uint256",
          "name": "",
          "type": "uint256"
        }
      ],
      "stateMutability": "view",
      "type": "function"
    },
    {
      "inputs": [
        {
          "internalType": "uint256",
          "name": "creditId",
          "type": "uint256"
        },
        {
          "internalType": "address",
          "name": "to",
          "type": "address"
        }
      ],
      "name": "transferCarbonCredit",
      "outputs": [],
      "stateMutability": "nonpayable",
      "type": "function"
    },
    {
      "inputs": [],
      "name": "unpause",
      "outputs": [],
      "stateMutability": "nonpayable",
      "type": "function"
    },
    {
      "inputs": [
        {
          "internalType": "address",
          "name": "entity",
          "type": "address"
        },
        {
          "internalType": "uint256",
          "name": "annualTons",
          "type": "uint256"
        }
      ],
      "name": "updateCarbonFootprint",
      "outputs": [],
      "stateMutability": "nonpayable",
      "type": "function"
    },
    {
      "inputs": [
        {
          "internalType": "uint256",
          "name": "projectId",
          "type": "uint256"
        },
        {
          "internalType": "bool",
          "name": "support",
          "type": "bool"
        }
      ],
      "name": "voteOnProject",
      "outputs": [],
      "stateMutability": "nonpayable",
      "type": "function"
    }
  ],
  "bytecode": "0x60a0346200017f57601f6200454238819003918201601f19168301916001600160401b03831184841017620001845780849260409485528339810103126200017f576200005a602062000052836200019a565b92016200019a565b6001805568015af1d78b58c40000600355680ad78ebc5ac6200000600455678ac7230489e800006005556001600160a01b039182169182156200014a578116156200011557620000d191608052620000b281620001af565b50620000be816200022f565b50620000ca81620002d1565b506200036e565b5060405161411690816200040c8239608051818181610b430152818161114801528181611eaa0152818161291501528181612a9d0152818161311601526136f00152f35b60405162461bcd60e51b815260206004820152600d60248201526c24b73b30b634b21030b236b4b760991b6044820152606490fd5b60405162461bcd60e51b815260206004820152600d60248201526c24b73b30b634b2103a37b5b2b760991b6044820152606490fd5b600080fd5b634e487b7160e01b600052604160045260246000fd5b51906001600160a01b03821682036200017f57565b6001600160a01b031660008181527fad3228b676f7d3cd4284a5443f17f1962b36e491b30a40b2405849e597ba5fb5602052604081205490919060ff166200022b57818052816020526040822081835260205260408220600160ff198254161790553391600080516020620045228339815191528180a4600190565b5090565b6001600160a01b031660008181527fbb3e7e49a5866512e2c8ea133f1b65b151986fa12388fe8d72bcbf662653c19360205260408120549091907f2dd255da36d14a405817851653012fc5c78128282643b1301816168707f425829060ff16620002cc57808352826020526040832082845260205260408320600160ff1982541617905560008051602062004522833981519152339380a4600190565b505090565b6001600160a01b031660008181527fe94a20ce27c75da61b5a6b6c508baf2ba9816ba23501b846efbe714bc008a4d760205260408120549091907f77689c22f8d2a5f5db035c9bcfad3bc899345e539dccd056c425bea4d16226539060ff16620002cc57808352826020526040832082845260205260408320600160ff1982541617905560008051602062004522833981519152339380a4600190565b6001600160a01b031660008181527f206d69cdfbb37d44d8f0ac8622a1d136818236f8bf09d539aa448c1dbb6a5a9760205260408120549091907f5900cac08fdb1f8a387fbe1ff6d1e4da19e0525cf65e16a7c90dd86df70b513c9060ff16620002cc57808352826020526040832082845260205260408320600160ff1982541617905560008051602062004522833981519152339380a460019056fe608080604052600436101561001357600080fd5b600090813560e01c908162f9ba711461385b5750806301cda5a41461366d57806301ffc9a714613616578063070bfe12146134ae5780630ae92f9a14613473578063158dd2d4146134385780631931c435146133c35780631e10f86b1461338d578063248a9ca31461336157806324941147146132b457806325bed1e1146130a6578063289df7f514612a2e57806328d633771461297f5780632c7c5487146128c65780632c997531146127f65780632f2ff15d146127b9578063314491f91461279b578063320f08b11461219857806336568abe1461215057806336fbad26146121325780633ef34fc9146120845780633f4ba83a146120195780634339e61214611e1c5780634ae8f21c14611d1757806350e78cb414611c315780635a7dd27c14611b965780635c975abb14611b73578063619906b914611a8057806364c8b1fc146119e057806366bbbe71146119b657806369c7a091146119465780636b9268e01461176a5780636dc452821461169657806372b8030f146116785780637bd111451461123b5780638456cb59146111e05780638846ac51146111c257806391d14854146111775780639bcfdfc014611132578063a18fac2b14611114578063a217fddf146110f8578063b0764175146110b0578063bb59663614610fe5578063c271f1bc14610f9d578063c6a645fe14610f7f578063c78d5a6014610f61578063cafcc16314610eac578063cc8279fc14610ad4578063cec10c1114610ab0578063d3965ea614610a5a578063d437e56514610a0e578063d547741f146109cd578063d6bbf456146109af578063ef636be414610693578063f0f3f2c814610473578063f392243b1461034a5763f62bf2de1461029357600080fd5b34610347576020366003190112610347576004356102af613bf3565b808252600860205260408220600a8101805460ff81166008811015610333576003036103015760049060ff19161790556007429101556000805160206140c1833981519152602060405160048152a280f35b60405162461bcd60e51b815260206004820152600a602482015269139bdd08199d5b99195960b21b6044820152606490fd5b634e487b7160e01b86526021600452602486fd5b80fd5b50346103475760209081600319360112610347578060409160e0835161036f81613a47565b82815282868201528285820152826060820152826080820152606060a08201528260c0820152015260043581526009835220604051906103ae82613a47565b80548252600181015483830190815260028201546001600160a01b039081166040850190815260038401546060860190815260048501546080870190815291926103fa60058701613a84565b9360a08801948552600760ff6006890154169760c08a01981515895201549560e08901968752604051998a99818b5251908a0152516040890152511660608701525160808601525160a08501525190610461610100928360c08701526101208601906138b0565b9251151560e085015251908301520390f35b50346103475760203660031901126103475780604091610180835161049781613a0f565b828152826020820152606085820152606080820152606060808201528260a08201528260c08201528260e08201528261010082015282610120820152826101408201528261016082015201526004358152600860205220604051906104fb82613a0f565b8054825260018101546001600160a01b0316602083015261051e60028201613a84565b604083015261052f60038201613a84565b606083015261054060048201613a84565b6080830152600581015460a0830152600681015460c0830152600781015460e08301526008810154610100830152600981015461012083015260ff600a8201541690600882101561067d57600c91610140840152600b81015461016084015201546101808201526040518091602082528051602083015260018060a01b03602082015116604083015261018061061b6105ea60408401516101a060608701526101c08601906138b0565b610606606085015191601f1992838883030160808901526138b0565b906080850151908683030160a08701526138b0565b9160a081015160c085015260c081015160e085015260e0810151610100850152610100810151610120850152610120810151610140850152610667610140820151610160860190613b2a565b6101608101518285015201516101a08301520390f35b634e487b7160e01b600052602160045260246000fd5b50346103475760a0366003190112610347576106ad613906565b6001600160401b03906084358281116109ab576106ce90369060040161391c565b936106d7613cab565b6004358152600860205260ff600a6040832001541660088110156109975760050361095a57610707601254613e5c565b93846012556040519061071982613a47565b85825260208201966004358852604083019060018060a01b0395868816835261075660608601916044358352608087019360643585523691613e6b565b9260a086019384528660c08701528660e08701528987526009602052604087209a86518c555160018c01558760028c019151166001600160601b0360a01b8254161790555160038a0155516004890155518051918211610946576107bd60058901546139ba565b601f81116108fd575b50916020979187938990601f8311600114610883578693836040969460079460e09461083d9b92610878575b50508160011b916000199060031b1c19161760058501555b61082960c08201511515600686019060ff801983541691151516179055565b01519101558486168152600d885220613eb1565b6040519160443583521690827f21980e8fd3c4d630624319e29b19acbc343c34b23bda4b1e72e9a9be3a4700df8560043593a4604051908152f35b0151905038806107f2565b906005850187528a872091875b601f19851681106108e357509360018460079460e09461083d9b9860409a98601f198116106108ca575b505050811b01600585015561080a565b015160001960f88460031b161c191690553880806108ba565b8183015184558b9750600190930192918c01918c01610890565b60058901855260208520601f840160051c8101916020851061093c575b601f0160051c01905b81811061093057506107c6565b60008155600101610923565b909150819061091a565b634e487b7160e01b84526041600452602484fd5b60405162461bcd60e51b8152602060048201526015602482015274141c9bda9958dd081b9bdd0818dbdb5c1b195d1959605a1b6044820152606490fd5b634e487b7160e01b82526021600452602482fd5b8380fd5b50346103475780600319360112610347576020600354604051908152f35b503461034757604036600319011261034757610a0a6004356109ed613906565b9080845283602052610a056001604086200154613d07565b613dab565b5080f35b5034610347576040366003190112610347576040610a2a613906565b916004358152600e602052209060018060a01b0316600052602052602060ff604060002054166040519015158152f35b503461034757604036600319011261034757610a746138f0565b6001600160a01b03168152600d6020526040812080546024359290831015610347576020610aa28484613b69565b90546040519160031b1c8152f35b503461034757610abf36613b81565b91610ac8613b9b565b60035560045560055580f35b5034610347576020908160031936011261034757600435610af3613fd2565b610afb613fb4565b8015610e7757600554908181029181830403610e61576040516323b872dd60e01b8152336004820152306024820152604481018390526001600160a01b0392908581606481887f000000000000000000000000000000000000000000000000000000000000000089165af1908115610e5657610b8b9291610b83918791610e29575b50613f5c565b601354613fa7565b601355610b99601254613e5c565b92836012556301e1338042046107b28101809111610e155760405190610bbe82613a47565b8582528682019083825260408301903382526060840191868352608085019182526040519160408301936001600160401b039284861084871117610dff578b968d96604052600c86526b12d0524b5d995c9a599a595960a21b8787015260a08901958652600960c08a01978b895260e08b01998c8b528c525260408a2098518955519a60019b8c8a0155600289019151166001600160601b0360a01b8254161790555160038701555160048601556005850191518051918211610deb57610c8583546139ba565b601f8111610da4575b508a90601f8311600114610d34579180610cdb949260079796948a92610d29575b5050600019600383901b1c1916908a1b1790555b511515600685019060ff801983541691151516179055565b51910155338152600d8552610cf38460408320613eb1565b604051918252837f21980e8fd3c4d630624319e29b19acbc343c34b23bda4b1e72e9a9be3a4700df863394a48055604051908152f35b015190503880610caf565b8388528b88208a93929091601f1984168a8f5b828210610d8b575050916007989795939185610cdb98969410610d72575b505050811b019055610cc3565b015160001960f88460031b161c19169055388080610d65565b8484015186558e97909501949384019390810190610d47565b8388528b8820601f840160051c8101918d8510610de1575b601f0160051c01908a905b828110610dd5575050610c8e565b60008155018a90610dc7565b9091508190610dbc565b634e487b7160e01b87526041600452602487fd5b634e487b7160e01b600052604160045260246000fd5b634e487b7160e01b82526011600452602482fd5b610e499150883d8a11610e4f575b610e418183613a63565b810190613f44565b38610b7d565b503d610e37565b6040513d87823e3d90fd5b634e487b7160e01b600052601160045260246000fd5b60405162461bcd60e51b815260048101849052600d60248201526c151bdb9cc81c995c5d5a5c9959609a1b6044820152606490fd5b503461034757610ebb36613895565b610ec3613bf3565b8183526008602052600a60408420019081549060ff82166008811015610333576001610eef9114613ff5565b838552600f602052604085205410610f275760029060ff19161790556000805160206140c1833981519152602060405160028152a280f35b60405162461bcd60e51b8152602060048201526012602482015271496e73756666696369656e7420766f74657360701b6044820152606490fd5b50346103475780600319360112610347576020600454604051908152f35b50346103475780600319360112610347576020601054604051908152f35b503461034757604036600319011261034757610fb76138f0565b6001600160a01b03168152600b6020526040812080546024359290831015610347576020610aa28484613b69565b503461034757610ff436613b81565b90610ffd613bf3565b82845260086020526040842091600a83019283549060ff8216600881101561109c5760040361106557611046946005600c9360ff191617905583600b8201550155601454613fa7565b6014556000805160206140c1833981519152602060405160058152a280f35b60405162461bcd60e51b815260206004820152600f60248201526e4e6f7420696e2070726f677265737360881b6044820152606490fd5b634e487b7160e01b88526021600452602488fd5b5034610347576040366003190112610347576110ca6138f0565b6001600160a01b03168152600c6020526040812080546024359290831015610347576020610aa28484613b69565b5034610347578060031936011261034757602090604051908152f35b50346103475780600319360112610347576020601354604051908152f35b50346103475780600319360112610347576040517f00000000000000000000000000000000000000000000000000000000000000006001600160a01b03168152602090f35b5034610347576040366003190112610347576040611193613906565b91600435815280602052209060018060a01b0316600052602052602060ff604060002054166040519015158152f35b50346103475780600319360112610347576020600554604051908152f35b50346103475780600319360112610347576111f9613b9b565b611201613fb4565b600160ff1960025416176002557f62e78cea01bee320cd4e420270b5ea74000d11b0c9f74754ebdbfc544b05a2586020604051338152a180f35b50346103475760a0366003190112610347576024356001600160401b0381116116745761126c90369060040161391c565b906084356001600160401b0381116109ab5761128c90369060040161391c565b611294613c4f565b60646044351161163f576004358552600660205260408520916112bd60ff600b85015416613f07565b6004358652600760205260408620611310604051926112db846139f4565b60043584526112eb368989613e6b565b9460208501958652604435604086015242606086015260643560808601523691613e6b565b60a0830152805490600160401b821015611617579061133491600182018155613b37565b92909261162b5781518355518051906001600160401b0382116116175761135e60018501546139ba565b601f81116115d2575b50602090601f83116001146115625760a0939291899183611557575b50508160011b916000199060031b1c19161760018401555b60408101516002840155606081015160038401556080810151600484015501518051906001600160401b038211610deb576113d960058401546139ba565b601f811161150e575b50602090601f831160011461147a578261145395937fc237d264b1aaeea0d10708aa16950be2938a850ec719796dcfaf64723fee70d69795936005938b9261146f575b50508160011b916000199060031b1c1916179101555b60084291015560405193606085526060850191613ee6565b916044356020820152606435604082015280600435930390a280f35b015190503880611425565b906005840188526020882091885b601f19851681106114f65750837fc237d264b1aaeea0d10708aa16950be2938a850ec719796dcfaf64723fee70d69795936005936001936114539997601f198116106114dd575b505050811b0191015561143b565b015160001960f88460031b161c191690553880806114cf565b91926020600181928685015181550194019201611488565b60058401885260208820601f840160051c8101916020851061154d575b601f0160051c01905b81811061154157506113e2565b60008155600101611534565b909150819061152b565b015190503880611383565b906001850189526020892091895b601f19851681106115ba575091839160019360a09695601f198116106115a1575b505050811b01600184015561139b565b015160001960f88460031b161c19169055388080611591565b91926020600181928685015181550194019201611570565b60018501895260208920601f840160051c810160208510611610575b601f830160051c82018110611604575050611367565b600081556001016115ee565b50806115ee565b634e487b7160e01b88526041600452602488fd5b634e487b7160e01b87526004879052602487fd5b60405162461bcd60e51b815260206004820152600d60248201526c496e76616c69642073636f726560981b6044820152606490fd5b5080fd5b50346103475780600319360112610347576020601254604051908152f35b50346103475760203660031901126103475760c09060406116b56138f0565b918060a083516116c4816139f4565b8281528260208201528285820152826060820152826080820152015260018060a01b038093168152600a602052209060405190611700826139f4565b825416918282526001810154602083019081526002820154604084019081526003830154916060850192835260a0600560048601549560808801968752015495019485526040519586525160208601525160408501525160608401525160808301525160a0820152f35b50346103475760203660031901126103475780604091610160835161178e81613a2b565b828152606060208201526060858201526060808201528260808201528260a08201528260c08201528260e08201528261010082015282610120820152826101408201520152600435815260066020522060ff600b604051926117ef84613a2b565b805484526117ff60018201613a84565b602085015261181060028201613a84565b604085015261182160038201613a84565b606085015260048101546080850152600581015460a0850152600681015460c0850152600781015460e0850152600881015461010085015260018060a01b03600982015416610120850152600a8101546101408501520154161515610160820152604051809160208252805160208301526101606118e46118b3602084015161018060408701526101a08601906138b0565b6118cf604085015191601f1992838883030160608901526138b0565b906060850151908683030160808701526138b0565b91608081015160a085015260a081015160c085015260c081015160e085015260e081015161010085015261010081015161012085015260018060a01b036101208201511661014085015261014081015182850152015115156101808301520390f35b5034610347576040366003190112610347576119606138f0565b6119a86024359161196f613cab565b6001600160a01b0316808452600a6020526040842080546001600160a01b031916909117815560018101839055600281015490926140a7565b600382015560054291015580f35b50346103475760203660031901126103475760406020916004358152600f83522054604051908152f35b5034610347576119ef36613895565b9082526007602052604082208054821015611a7c57611a0e9250613b37565b508054611a78611a2060018401613a84565b92600281015490600381015490611a3e600560048301549201613a84565b91611a5b604051978897885260c0602089015260c08801906138b0565b9360408701526060860152608085015283820360a08501526138b0565b0390f35b8280fd5b50346103475760203660031901126103475760409060043581526006602052208054611aae60018301613a84565b91611abb60028201613a84565b611ac760038301613a84565b9160048101549260058201546006830154600784015490600885015492611b4060018060a01b0360098801541695611b3260ff600b600a8b01549a01541699611b246040519e8f9e8f9081526101809081602082015201906138b0565b8d810360408f0152906138b0565b908b820360608d01526138b0565b9760808a015260a089015260c088015260e087015261010086015261012085015261014084015215156101608301520390f35b5034610347578060031936011261034757602060ff600254166040519015158152f35b5034610347576020366003190112610347576040906004358152600960205220805460018201549160018060a01b03600282015416611c2060038301546004840154611be460058601613a84565b91600760ff60068801541696015494604051988998895260208901526040880152606087015260808601526101008060a08701528501906138b0565b91151560c084015260e08301520390f35b503461034757604036600319011261034757600435611c4e613906565b908083526009602052604083206002810190815493611c8860ff600660018060a01b0394611c7f33878b1614614031565b01541615614069565b16928315611cde576001600160a01b03191683179055818352600d60205260408320611cb5908290613eb1565b33907f3eea593b621e0ed29ff8f0eb633f77c0a8fa2079d1c9cf754a1e83e44806fd038480a480f35b60405162461bcd60e51b8152602060048201526011602482015270125b9d985b1a59081c9958da5c1a595b9d607a1b6044820152606490fd5b5034610347576020366003190112610347576004358152600860205260409020805460018201546001600160a01b031691611d5460028201613a84565b611d6060038301613a84565b91611d6d60048201613a84565b9260058201549360068301546007840154600885015491600986015493600a87015460ff1695600b88015497600c0154986040519c8d9c8d5260208d01528b6101a06040819201528c01611dc0916138b0565b8b810360608d0152611dd1916138b0565b8a810360808c0152611de2916138b0565b9760a08a015260c089015260e08801526101008701526101208601526101408501611e0c91613b2a565b6101608401526101808301520390f35b50346103475760403660031901126103475760043560243590811515918281036109ab57611e48613fb4565b8184526020906008825260ff600a604087200154166008811015610333576001611e729114613ff5565b828552600e82526040852033600052825260ff60406000205416611fe4576040516370a0823160e01b815233600482015282816024817f00000000000000000000000000000000000000000000000000000000000000006001600160a01b03165afa8015611fd9578690611f9f575b68056bc75e2d63100000915010611f6357907f90e745fb7ec06d6679dec571bb9b4e828cf2e1fed54f61c21bb55913fd9ac8b691838652600e8252604086203360005282526040600020600160ff19825416179055611f47575b6040519384523393a380f35b828552600f815260408520611f5c8154613e5c565b9055611f3b565b60405162461bcd60e51b8152600481018390526014602482015273496e73756666696369656e742062616c616e636560601b6044820152606490fd5b508281813d8311611fd2575b611fb58183613a63565b81010312611fce5768056bc75e2d631000009051611ee1565b8580fd5b503d611fab565b6040513d88823e3d90fd5b60405162461bcd60e51b815260048101839052600d60248201526c105b1c9958591e481d9bdd1959609a1b6044820152606490fd5b5034610347578060031936011261034757612032613b9b565b60025460ff8116156120725760ff19166002557f5db9ee0a495bf2e6ff9c91a7834c1ba4fdd244a5e8aa4e537bd38aeae4b073aa6020604051338152a180f35b604051638dfc202b60e01b8152600490fd5b503461034757602080600319360112611674576001600160a01b036120a76138f0565b168252600d81526040822060405192838383549182815201908193835284832090835b81811061211e57505050846120e0910385613a63565b60405193838594850191818652518092526040850193925b82811061210757505050500390f35b8351855286955093810193928101926001016120f8565b8254845292860192600192830192016120ca565b50346103475780600319360112610347576020601154604051908152f35b50346103475760403660031901126103475761216a613906565b336001600160a01b0382160361218657610a0a90600435613dab565b60405163334bd91960e11b8152600490fd5b5034610347576121a736613949565b6121b8999896929997959197613c4f565b6121c3861515613e20565b6064881161276157801561272c576121dc601054613e5c565b97886010556040519a6121ee8c613a2b565b898c526121fc36898b613e6b565b60208d015261220c368587613e6b565b60408d015261221c368789613e6b565b60608d015260808c015260a08b015260c08a01524260e08a0152426101008a0152336101208a0152876101408a015260016101608a0152868852600660205260408820978951895560208a01518051906001600160401b03821161258257819061228960018d01546139ba565b601f81116126db575b50602090601f831160011461266c578492612661575b50508160011b916000199060031b1c19161760018a01555b60408a01518051906001600160401b0382116125825781906122e560028d01546139ba565b601f8111612610575b50602090601f83116001146125a1578492612596575b50508160011b916000199060031b1c19161760028a01555b60608a01519889519a6001600160401b038c116125825761234060038301546139ba565b9b601f8d11612539575b60209c508c601f821160011461248d576040856124378e9f968f947f62f4cf9261ab66e01e192da00f389f6f180e7e894cead72c3c018f50eff5ae619f9e9d9b986124779d9b988861244599600b94610160946124699f92612482575b50508160011b916000199060031b1c19161760038501555b6080810151600485015560a0810151600585015560c0810151600685015560e0810151600785015561010081015160088501556009840160018060a01b03610120830151166001600160601b0360a01b825416179055610140810151600a8501550151151591019060ff801983541691151516179055565b3381528f600b905220613eb1565b61245c60405198899860608a5260608a0191613ee6565b918783038d890152613ee6565b918483036040860152613ee6565b0390a2604051908152f35b0151905038806123a7565b6003840185528d85209c855b601f19841681106125225750612469956124378e9f968f947f62f4cf9261ab66e01e192da00f389f6f180e7e894cead72c3c018f50eff5ae619f9e9d9b986124779d9b9860018961016093600b9560409a6124459d601f19811610612509575b505050811b0160038501556123bf565b015160001960f88460031b161c191690553880806124f9565b828201518f556001909e019d918f01918f01612499565b60038301845260208420601f820160051c81016020831061257b575b601f8f5b0160051c8201811061256c57505061234a565b60008155600101601f8f612559565b5080612555565b634e487b7160e01b83526041600452602483fd5b015190503880612304565b925060028c018452602084209084935b601f19841685106125f5576001945083601f198116106125dc575b505050811b0160028a015561231c565b015160001960f88460031b161c191690553880806125cc565b818101518355602094850194600190930192909101906125b1565b90915060028c01845260208420601f840160051c81016020851061265a575b90849392915b601f830160051c8201811061264b5750506122ee565b60008155859450600101612635565b508061262f565b0151905038806122a8565b925060018c018452602084209084935b601f19841685106126c0576001945083601f198116106126a7575b505050811b0160018a01556122c0565b015160001960f88460031b161c19169055388080612697565b8181015183556020948501946001909301929091019061267c565b90915060018c01845260208420601f840160051c810160208510612725575b90849392915b601f830160051c82018110612716575050612292565b60008155859450600101612700565b50806126fa565b60405162461bcd60e51b815260206004820152600d60248201526c12185cda081c995c5d5a5c9959609a1b6044820152606490fd5b60405162461bcd60e51b8152602060048201526012602482015271496e76616c696420636f6e666964656e636560701b6044820152606490fd5b50346103475780600319360112610347576020601454604051908152f35b503461034757604036600319011261034757610a0a6004356127d9613906565b90808452836020526127f16001604086200154613d07565b613d2d565b50346103475760203660031901126103475760043580825260096020526040822061282e60018060a01b036002830154163314614031565b600681016001815461284360ff821615614069565b60ff1916179055426007820155338352600a60205261289260036040852092336001600160601b0360a01b855416178455015461288560028401918254613fa7565b80915560018301546140a7565b600382015560054291015533907fcdd0b384a55e61f9ca37841639db58a4c46951b4c682e5dff49433fa15ecb7908380a380f35b5034610347576020366003190112610347576004356128e3613fd2565b6040516323b872dd60e01b81523360048201523060248201526044810182905290602082606481866001600160a01b037f0000000000000000000000000000000000000000000000000000000000000000165af19182156129745761295292610b8391859161295c5750613f5c565b6013556001805580f35b610e49915060203d8111610e4f57610e418183613a63565b6040513d85823e3d90fd5b50346103475760203660031901126103475760043561299c613bf3565b8082526008602052600a6040832001805460ff81166008811015612a1a576129e45760019060ff19161790556000805160206140c1833981519152602060405160018152a280f35b60405162461bcd60e51b815260206004820152600e60248201526d496e76616c69642073746174757360901b6044820152606490fd5b634e487b7160e01b85526021600452602485fd5b503461034757612a3d36613949565b92612a4f989594919897969297613fd2565b612a57613fb4565b612a62871515613e20565b871561306957600480546040516323b872dd60e01b8152339281019290925230602483015260448201526020816064818e6001600160a01b037f0000000000000000000000000000000000000000000000000000000000000000165af1801561305e57612ad5918c916130455750613f5c565b612ae3600454601354613fa7565b601355612af1601154613e5c565b988960115562015180908181029181830414901517156130315790612b4b612b1d612b57949342613fa7565b9460405197612b2b89613a0f565b8c89523360208a0152612b3f368c8c613e6b565b60408a01523691613e6b565b60608701523691613e6b565b60808401528560a08401528760c08401528760e084015261010083015261012082015285610140820152856101608201528561018082015284865260086020526040862090805182556001820160018060a01b036020830151166001600160601b0360a01b82541617905560408101518051906001600160401b038211612e87578190612be760028601546139ba565b601f8111612fe0575b50602090601f8311600114612f71578a92612f66575b50508160011b916000199060031b1c19161760028301555b60608101518051906001600160401b038211612e87578190612c4360038601546139ba565b601f8111612f15575b50602090601f8311600114612ea6578a92612e9b575b50508160011b916000199060031b1c19161760038301555b60808101518051906001600160401b038211612e87578190612c9f60048601546139ba565b601f8111612e36575b50602090601f8311600114612dc7578a92612dbc575b50508160011b916000199060031b1c19161760048301555b60a0810151600583015560c0810151600683015560e0810151600783015561010081015160088301556101208101516009830155600a82016101408201516008811015612da85787604060209a829896600c610180612d91987fa407e6458aaa974973b7b67cea73db5b7ca0198cad789426ebed0bdba7d07e509b98612d7f9860ff80198354169116179055610160810151600b8501550151910155338152600c8c5220613eb1565b60405192604084526040840191613ee6565b93868201528033940390a360018055604051908152f35b634e487b7160e01b89526021600452602489fd5b015190503880612cbe565b9250600485018a5260208a20908a935b601f1984168510612e1b576001945083601f19811610612e02575b505050811b016004830155612cd6565b015160001960f88460031b161c19169055388080612df2565b81810151835560209485019460019093019290910190612dd7565b909150600485018a5260208a20601f840160051c810160208510612e80575b90849392915b601f830160051c82018110612e71575050612ca8565b60008155859450600101612e5b565b5080612e55565b634e487b7160e01b89526041600452602489fd5b015190503880612c62565b9250600385018a5260208a20908a935b601f1984168510612efa576001945083601f19811610612ee1575b505050811b016003830155612c7a565b015160001960f88460031b161c19169055388080612ed1565b81810151835560209485019460019093019290910190612eb6565b909150600385018a5260208a20601f840160051c810160208510612f5f575b90849392915b601f830160051c82018110612f50575050612c4c565b60008155859450600101612f3a565b5080612f34565b015190503880612c06565b9250600285018a5260208a20908a935b601f1984168510612fc5576001945083601f19811610612fac575b505050811b016002830155612c1e565b015160001960f88460031b161c19169055388080612f9c565b81810151835560209485019460019093019290910190612f81565b909150600285018a5260208a20601f840160051c81016020851061302a575b90849392915b601f830160051c8201811061301b575050612bf0565b60008155859450600101613005565b5080612fff565b634e487b7160e01b8b52601160045260248bfd5b610e49915060203d602011610e4f57610e418183613a63565b6040513d8d823e3d90fd5b60405162461bcd60e51b8152602060048201526015602482015274119d5b991a5b99c819dbd85b081c995c5d5a5c9959605a1b6044820152606490fd5b50346103475760209081600319360112610347576130c2613fd2565b6130ca613fb4565b60043581526006825260408120916130e860ff600b85015416613f07565b6003546040516323b872dd60e01b815233600482015230602482015260448101919091526001600160a01b037f00000000000000000000000000000000000000000000000000000000000000008116929091818160648188885af1908115610e56579061315b91869161329d5750613f5c565b60035490603c820291801592818104603c14841715613289576064900492601e820290828204601e14171561328957839161319e60646131a39304958692613f9a565b613f9a565b93600988015416906040519163a9059cbb60e01b835260048301526024820152818160448189895af18015611fd957906131e893929161326b575b5050601354613fa7565b601355813b15611a7c578291602483926040519485938492630852cd8d60e31b845260048401525af1801561326057613234575b50600a820161322b8154613e5c565b90556001805580f35b6001600160401b03811161324c57604052600a61321c565b634e487b7160e01b82526041600452602482fd5b6040513d84823e3d90fd5b8161328192903d10610e4f57610e418183613a63565b5038806131de565b634e487b7160e01b87526011600452602487fd5b610e499150833d8511610e4f57610e418183613a63565b5034610347576020366003190112610347576004356132d1613b9b565b8082526008602052600a6040832001805460ff81166008811015612a1a5760051461331c5760079060ff19161790556000805160206140c1833981519152602060405160078152a280f35b60405162461bcd60e51b815260206004820152601760248201527f43616e6e6f742063616e63656c20636f6d706c657465640000000000000000006044820152606490fd5b503461034757602036600319011261034757600160406020926004358152808452200154604051908152f35b5034610347576020366003190112610347576133a7613b9b565b6004358152600660205260408120600b01805460ff1916905580f35b50346103475760203660031901126103475760c0906001600160a01b0390604090826133ed6138f0565b168152600a60205220908154169060018101549060028101546003820154906005600484015493015493604051958652602086015260408501526060840152608083015260a0820152f35b503461034757806003193601126103475760206040517f2dd255da36d14a405817851653012fc5c78128282643b1301816168707f425828152f35b503461034757806003193601126103475760206040517f5900cac08fdb1f8a387fbe1ff6d1e4da19e0525cf65e16a7c90dd86df70b513c8152f35b5034610347576020908160031936011261034757600435815260078252604081208054926001600160401b03841161258257916040516005946134f58582881b0183613a63565b8082528482018094845285842084915b8383106135ad5750505050604051938085019181865251809252604082818701971b8601019392955b82871061353b5785850386f35b90919293828061359d600193603f198a820301865288518051825261356c8482015160c080878601528401906138b0565b9160408201516040820152606080830151908201526080808301519082015260a080920151918184039101526138b0565b960192019601959291909261352e565b60068860019260409a97989a516135c3816139f4565b855481526135d2858701613a84565b838201526002860154604082015260038601546060820152600486015460808201526135ff8d8701613a84565b60a082015281520192019201919096949396613505565b50346103475760203660031901126103475760043563ffffffff60e01b811680910361167457602090637965db0b60e01b811490811561365c575b506040519015158152f35b6301ffc9a760e01b14905082613651565b50346103475761367c36613895565b90613685613fd2565b61368d613fb4565b8083526020600881526040842090600a820160ff8154166008811015613847576002811490811561383c575b5015613808576040516323b872dd60e01b8152336004820152306024820152604481018690529282846064818a6001600160a01b037f0000000000000000000000000000000000000000000000000000000000000000165af19384156137fd577f6251418ffd7f504740544ec3d578897633e212c5d658b7dce793c5dc9d2e855e9461374b9189916137e65750613f5c565b60056006820161375c888254613fa7565b815561376a88601354613fa7565b601355338952600a855260408920336001600160601b0360a01b825416178155600481016137998a8254613fa7565b905582429101555491015411156137bc575b506040519384523393a36001805580f35b600360ff19825416179055826000805160206140c18339815191528260405160038152a2386137ab565b610e499150853d8711610e4f57610e418183613a63565b6040513d89823e3d90fd5b60405162461bcd60e51b815260048101839052600c60248201526b139bdd08185c1c1c9bdd995960a21b6044820152606490fd5b6003915014386136b9565b634e487b7160e01b87526021600452602487fd5b905034611674578160031936011261167457807f77689c22f8d2a5f5db035c9bcfad3bc899345e539dccd056c425bea4d162265360209252f35b60409060031901126138ab576004359060243590565b600080fd5b919082519283825260005b8481106138dc575050826000602080949584010152601f8019910116010190565b6020818301810151848301820152016138bb565b600435906001600160a01b03821682036138ab57565b602435906001600160a01b03821682036138ab57565b9181601f840112156138ab578235916001600160401b0383116138ab57602083818601950101116138ab57565b9060c06003198301126138ab576001600160401b036004358181116138ab57836139759160040161391c565b939093926024358381116138ab57826139909160040161391c565b939093926044359182116138ab576139aa9160040161391c565b9091606435906084359060a43590565b90600182811c921680156139ea575b60208310146139d457565b634e487b7160e01b600052602260045260246000fd5b91607f16916139c9565b60c081019081106001600160401b03821117610dff57604052565b6101a081019081106001600160401b03821117610dff57604052565b61018081019081106001600160401b03821117610dff57604052565b61010081019081106001600160401b03821117610dff57604052565b90601f801991011681019081106001600160401b03821117610dff57604052565b9060405191826000825492613a98846139ba565b908184526001948581169081600014613b075750600114613ac4575b5050613ac292500383613a63565b565b9093915060005260209081600020936000915b818310613aef575050613ac293508201013880613ab4565b85548884018501529485019487945091830191613ad7565b915050613ac294506020925060ff191682840152151560051b8201013880613ab4565b90600882101561067d5752565b8054821015613b53576000526006602060002091020190600090565b634e487b7160e01b600052603260045260246000fd5b8054821015613b535760005260206000200190600090565b60609060031901126138ab57600435906024359060443590565b3360009081527fad3228b676f7d3cd4284a5443f17f1962b36e491b30a40b2405849e597ba5fb5602052604081205460ff1615613bd55750565b6044906040519063e2517d3f60e01b82523360048301526024820152fd5b3360009081527fe94a20ce27c75da61b5a6b6c508baf2ba9816ba23501b846efbe714bc008a4d760205260409020547f77689c22f8d2a5f5db035c9bcfad3bc899345e539dccd056c425bea4d16226539060ff1615613bd55750565b3360009081527fbb3e7e49a5866512e2c8ea133f1b65b151986fa12388fe8d72bcbf662653c19360205260409020547f2dd255da36d14a405817851653012fc5c78128282643b1301816168707f425829060ff1615613bd55750565b3360009081527f206d69cdfbb37d44d8f0ac8622a1d136818236f8bf09d539aa448c1dbb6a5a9760205260409020547f5900cac08fdb1f8a387fbe1ff6d1e4da19e0525cf65e16a7c90dd86df70b513c9060ff1615613bd55750565b80600052600060205260406000203360005260205260ff6040600020541615613bd55750565b9060009180835282602052604083209160018060a01b03169182845260205260ff60408420541615600014613da657808352826020526040832082845260205260408320600160ff198254161790557f2f8788117e7eff1d82e926ec794901d17c78024a50270940304540a733656f0d339380a4600190565b505090565b9060009180835282602052604083209160018060a01b03169182845260205260ff604084205416600014613da65780835282602052604083208284526020526040832060ff1981541690557ff6391f5c32d9c69d2a47ea670b442974b53935d1edc7fd64eb21e047a839171b339380a4600190565b15613e2757565b60405162461bcd60e51b815260206004820152600d60248201526c13985b59481c995c5d5a5c9959609a1b6044820152606490fd5b6000198114610e615760010190565b9291926001600160401b038211610dff5760405191613e94601f8201601f191660200184613a63565b8294818452818301116138ab578281602093846000960137010152565b8054600160401b811015610dff57613ece91600182018155613b69565b819291549060031b91821b91600019901b1916179055565b908060209392818452848401376000828201840152601f01601f1916010190565b15613f0e57565b60405162461bcd60e51b815260206004820152600e60248201526d4d6f64656c20696e61637469766560901b6044820152606490fd5b908160209103126138ab575180151581036138ab5790565b15613f6357565b60405162461bcd60e51b815260206004820152600f60248201526e151c985b9cd9995c8819985a5b1959608a1b6044820152606490fd5b91908203918211610e6157565b91908201809211610e6157565b60ff60025416613fc057565b60405163d93c066560e01b8152600490fd5b600260015414613fe3576002600155565b604051633ee5aeb560e01b8152600490fd5b15613ffc57565b60405162461bcd60e51b815260206004820152600d60248201526c4e6f7420696e20766f74696e6760981b6044820152606490fd5b1561403857565b60405162461bcd60e51b81526020600482015260096024820152682737ba1037bbb732b960b91b6044820152606490fd5b1561407057565b60405162461bcd60e51b815260206004820152600f60248201526e105b1c9958591e481c995d1a5c9959608a1b6044820152606490fd5b81810392916000138015828513169184121617610e615756fe35872be4c2085eaf9ca9a10d056eefec79968f825846792411ede75f331e9392a26469706673582212206ba6c47833a0df1de7477e681b7a0764f6f793f259bc4ac8172987e3b237ceb864736f6c634300081400332f8788117e7eff1d82e926ec794901d17c78024a50270940304540a733656f0d",
  "linkReferences": {},
  "deployedLinkReferences": {}
}