{
  "_format": "hh-sol-artifact-1",
  "contractName": "KaiClimate",
  "sourceName": "contracts/pillars/KaiClimate.sol",
  "abi": [
    {
      "inputs": [
        {
          "internalType": "address",
          "name": "_kaiToken",
          "type": "address"
        },
        {
          "internalType": "address",
          "name": "admin",
          "type": "address"
        }
      ],
      "stateMutability": "nonpayable",
      "type": "constructor"
    },
    {
      "inputs": [],
      "name": "AccessControlBadConfirmation",
      "type": "error"
    },
    {
      "inputs": [
        {
          "internalType": "address",
          "name": "account",
          "type": "address"
        },
        {
          "internalType": "bytes32",
          "name": "neededRole",
          "type": "bytes32"
        }
      ],
      "name": "AccessControlUnauthorizedAccount",
      "type": "error"
    },
    {
      "inputs": [],
      "name": "EnforcedPause",
      "type": "error"
    },
    {
      "inputs": [],
      "name": "ExpectedPause",
      "type": "error"
    },
    {
      "inputs": [],
      "name": "ReentrancyGuardReentrantCall",
      "type": "error"
    },
    {
      "anonymous": false,
      "inputs": [
        {
          "indexed": true,
          "internalType": "uint256",
          "name": "creditId",
          "type": "uint256"
        },
        {
          "indexed": true,
          "internalType": "uint256",
          "name": "projectId",
          "type": "uint256"
        },
        {
          "indexed": true,
          "internalType": "address",
          "name": "owner",
          "type": "address"
        },
        {
          "indexed": false,
          "internalType": "uint256",
          "name": "tons",
          "type": "uint256"
        }
      ],
      "name": "CarbonCreditIssued",
      "type": "event"
    },
    {
      "anonymous": false,
      "inputs": [
        {
          "indexed": true,
          "internalType": "uint256",
          "name": "creditId",
          "type": "uint256"
        },
        {
          "indexed": true,
          "internalType": "address",
          "name": "retirer",
          "type": "address"
        }
      ],
      "name": "CarbonCreditRetired",
      "type": "event"
    },
    {
      "anonymous": false,
      "inputs": [
        {
          "indexed": true,
          "internalType": "uint256",
          "name": "creditId",
          "type": "uint256"
        },
        {
          "indexed": true,
          "internalType": "address",
          "name": "from",
          "type": "address"
        },
        {
          "indexed": true,
          "internalType": "address",
          "name": "to",
          "type": "address"
        }
      ],
      "name": "CarbonCreditTransferred",
      "type": "event"
    },
    {
      "anonymous": false,
      "inputs": [
        {
          "indexed": false,
          "internalType": "address",
          "name": "account",
          "type": "address"
        }
      ],
      "name": "Paused",
      "type": "event"
    },
    {
      "anonymous": false,
      "inputs": [
        {
          "indexed": true,
          "internalType": "uint256",
          "name": "projectId",
          "type": "uint256"
        },
        {
          "indexed": true,
          "internalType": "address",
          "name": "funder",
          "type": "address"
        },
        {
          "indexed": false,
          "internalType": "uint256",
          "name": "amount",
          "type": "uint256"
        }
      ],
      "name": "ProjectFunded",
      "type": "event"
    },
    {
      "anonymous": false,
      "inputs": [
        {
          "indexed": true,
          "internalType": "uint256",
          "name": "projectId",
          "type": "uint256"
        },
        {
          "indexed": true,
          "internalType": "address",
          "name": "proposer",
          "type": "address"
        },
        {
          "indexed": false,
          "internalType": "string",
          "name": "name",
          "type": "string"
        },
        {
          "indexed": false,
          "internalType": "uint256",
          "name": "fundingGoal",
          "type": "uint256"
        }
      ],
      "name": "ProjectProposed",
      "type": "event"
    },
    {
      "anonymous": false,
      "inputs": [
        {
          "indexed": true,
          "internalType": "uint256",
          "name": "projectId",
          "type": "uint256"
        },
        {
          "indexed": false,
          "internalType": "enum KaiClimate.ProjectStatus",
          "name": "status",
          "type": "uint8"
        }
      ],
      "name": "ProjectStatusChanged",
      "type": "event"
    },
    {
      "anonymous": false,
      "inputs": [
        {
          "indexed": true,
          "internalType": "uint256",
          "name": "projectId",
          "type": "uint256"
        },
        {
          "indexed": true,
          "internalType": "address",
          "name": "voter",
          "type": "address"
        },
        {
          "indexed": false,
          "internalType": "bool",
          "name": "support",
          "type": "bool"
        }
      ],
      "name": "ProjectVoted",
      "type": "event"
    },
    {
      "anonymous": false,
      "inputs": [
        {
          "indexed": true,
          "internalType": "uint256",
          "name": "modelId",
          "type": "uint256"
        },
        {
          "indexed": false,
          "internalType": "string",
          "name": "name",
          "type": "string"
        },
        {
          "indexed": false,
          "internalType": "string",
          "name": "region",
          "type": "string"
        },
        {
          "indexed": false,
          "internalType": "string",
          "name": "riskType",
          "type": "string"
        }
      ],
      "name": "RiskModelCreated",
      "type": "event"
    },
    {
      "anonymous": false,
      "inputs": [
        {
          "indexed": true,
          "internalType": "uint256",
          "name": "modelId",
          "type": "uint256"
        },
        {
          "indexed": false,
          "internalType": "string",
          "name": "region",
          "type": "string"
        },
        {
          "indexed": false,
          "internalType": "uint256",
          "name": "score",
          "type": "uint256"
        },
        {
          "indexed": false,
          "internalType": "uint256",
          "name": "projectionYear",
          "type": "uint256"
        }
      ],
      "name": "RiskScorePublished",
      "type": "event"
    },
    {
      "anonymous": false,
      "inputs": [
        {
          "indexed": true,
          "internalType": "bytes32",
          "name": "role",
          "type": "bytes32"
        },
        {
          "indexed": true,
          "internalType": "bytes32",
          "name": "previousAdminRole",
          "type": "bytes32"
        },
        {
          "indexed": true,
          "internalType": "bytes32",
          "name": "newAdminRole",
          "type": "bytes32"
        }
      ],
      "name": "RoleAdminChanged",
      "type": "event"
    },
    {
      "anonymous": false,
      "inputs": [
        {
          "indexed": true,
          "internalType": "bytes32",
          "name": "role",
          "type": "bytes32"
        },
        {
          "indexed": true,
          "internalType": "address",
          "name": "account",
          "type": "address"
        },
        {
          "indexed": true,
          "internalType": "address",
          "name": "sender",
          "type": "address"
        }
      ],
      "name": "RoleGranted",
      "type": "event"
    },
    {
      "anonymous": false,
      "inputs": [
        {
          "indexed": true,
          "internalType": "bytes32",
          "name": "role",
          "type": "bytes32"
        },
        {
          "indexed": true,
          "internalType": "address",
          "name": "account",
          "type": "address"
        },
        {
          "indexed": true,
          "internalType": "address",
          "name": "sender",
          "type": "address"
        }
      ],
      "name": "RoleRevoked",
      "type": "event"
    },
    {
      "anonymous": false,
      "inputs": [
        {
          "indexed": false,
          "internalType": "address",
          "name": "account",
          "type": "address"
        }
      ],
      "name": "Unpaused",
      "type": "event"
    },
    {
      "inputs": [],
      "name": "CARBON_VERIFIER_ROLE",
      "outputs": [
        {
          "internalType": "bytes32",
          "name": "",
          "type": "bytes32"
        }
      ],
      "stateMutability": "view",
      "type": "function"
    },
    {
      "inputs": [],
      "name": "CLIMATE_SCIENTIST_ROLE",
      "outputs": [
        {
          "internalType": "bytes32",
          "name": "",
          "type": "bytes32"
        }
      ],
      "stateMutability": "view",
      "type": "function"
    },
    {
      "inputs": [],
      "name": "DEFAULT_ADMIN_ROLE",
      "outputs": [
        {
          "internalType": "bytes32",
          "name": "",
          "type": "bytes32"
        }
      ],
      "stateMutability": "view",
      "type": "function"
    },
    {
      "inputs": [],
      "name": "PROJECT_VALIDATOR_ROLE",
      "outputs": [
        {
          "internalType": "bytes32",
          "name": "",
          "type": "bytes32"
        }
      ],
      "stateMutability": "view",
      "type": "function"
    },
    {
      "inputs": [
        {
          "internalType": "uint256",
          "name": "modelId",
          "type": "uint256"
        }
      ],
      "name": "accessRiskModel",
      "outputs": [],
      "stateMutability": "nonpayable",
      "type": "function"
    },
    {
      "inputs": [],
      "name": "adaptationFund",
      "outputs": [
        {
          "internalType": "uint256",
          "name": "",
          "type": "uint256"
        }
      ],
      "stateMutability": "view",
      "type": "function"
    },
    {
      "inputs": [
        {
          "internalType": "uint256",
          "name": "",
          "type": "uint256"
        }
      ],
      "name": "adaptationProjects",
      "outputs": [
        {
          "internalType": "uint256",
          "name": "id",
          "type": "uint256"
        },
        {
          "internalType": "address",
          "name": "proposer",
          "type": "address"
        },
        {
          "internalType": "string",
          "name": "name",
          "type": "string"
        },
        {
          "internalType": "string",
          "name": "projectType",
          "type": "string"
        },
        {
          "internalType": "string",
          "name": "region",
          "type": "string"
        },
        {
          "internalType": "uint256",
          "name": "fundingGoal",
          "type": "uint256"
        },
        {
          "internalType": "uint256",
          "name": "fundingRaised",
          "type": "uint256"
        },
        {
          "internalType": "uint256",
          "name": "startDate",
          "type": "uint256"
        },
        {
          "internalType": "uint256",
          "name": "endDate",
          "type": "uint256"
        },
        {
          "internalType": "bytes32",
          "name": "proposalHash",
          "type": "bytes32"
        },
        {
          "internalType": "enum KaiClimate.ProjectStatus",
          "name": "status",
          "type": "uint8"
        },
        {
          "internalType": "uint256",
          "name": "carbonOffset",
          "type": "uint256"
        },
        {
          "internalType": "uint256",
          "name": "beneficiaries",
          "type": "uint256"
        }
      ],
      "stateMutability": "view",
      "type": "function"
    },
    {
      "inputs": [
        {
          "internalType": "uint256",
          "name": "projectId",
          "type": "uint256"
        },
        {
          "internalType": "uint256",
          "name": "minVotes",
          "type": "uint256"
        }
      ],
      "name": "approveProject",
      "outputs": [],
      "stateMutability": "nonpayable",
      "type": "function"
    },
    {
      "inputs": [
        {
          "internalType": "uint256",
          "name": "projectId",
          "type": "uint256"
        }
      ],
      "name": "cancelProject",
      "outputs": [],
      "stateMutability": "nonpayable",
      "type": "function"
    },
    {
      "inputs": [],
      "name": "carbonCreditPrice",
      "outputs": [
        {
          "internalType": "uint256",
          "name": "",
          "type": "uint256"
        }
      ],
      "stateMutability": "view",
      "type": "function"
    },
    {
      "inputs": [
        {
          "internalType": "uint256",
          "name": "",
          "type": "uint256"
        }
      ],
      "name": "carbonCredits",
      "outputs": [
        {
          "internalType": "uint256",
          "name": "id",
          "type": "uint256"
        },
        {
          "internalType": "uint256",
          "name": "projectId",
          "type": "uint256"
        },
        {
          "internalType": "address",
          "name": "owner",
          "type": "address"
        },
        {
          "internalType": "uint256",
          "name": "tons",
          "type": "uint256"
        },
        {
          "internalType": "uint256",
          "name": "vintage",
          "type": "uint256"
        },
        {
          "internalType": "string",
          "name": "standard",
          "type": "string"
        },
        {
          "internalType": "bool",
          "name": "retired",
          "type": "bool"
        },
        {
          "internalType": "uint256",
          "name": "retiredAt",
          "type": "uint256"
        }
      ],
      "stateMutability": "view",
      "type": "function"
    },
    {
      "inputs": [
        {
          "internalType": "uint256",
          "name": "projectId",
          "type": "uint256"
        },
        {
          "internalType": "uint256",
          "name": "carbonOffset",
          "type": "uint256"
        },
        {
          "internalType": "uint256",
          "name": "beneficiaries",
          "type": "uint256"
        }
      ],
      "name": "completeProject",
      "outputs": [],
      "stateMutability": "nonpayable",
      "type": "function"
    },
    {
      "inputs": [
        {
          "internalType": "string",
          "name": "name",
          "type": "string"
        },
        {
          "internalType": "string",
          "name": "region",
          "type": "string"
        },
        {
          "internalType": "string",
          "name": "riskType",
          "type": "string"
        },
        {
          "internalType": "uint256",
          "name": "timeHorizon",
          "type": "uint256"
        },
        {
          "internalType": "uint256",
          "name": "confidenceLevel",
          "type": "uint256"
        },
        {
          "internalType": "bytes32",
          "name": "modelHash",
          "type": "bytes32"
        }
      ],
      "name": "createRiskModel",
      "outputs": [
        {
          "internalType": "uint256",
          "name": "",
          "type": "uint256"
        }
      ],
      "stateMutability": "nonpayable",
      "type": "function"
    },
    {
      "inputs": [
        {
          "internalType": "address",
          "name": "",
          "type": "address"
        },
        {
          "internalType": "uint256",
          "name": "",
          "type": "uint256"
        }
      ],
      "name": "creatorModels",
      "outputs": [
        {
          "internalType": "uint256",
          "name": "",
          "type": "uint256"
        }
      ],
      "stateMutability": "view",
      "type": "function"
    },
    {
      "inputs": [],
      "name": "creditCount",
      "outputs": [
        {
          "internalType": "uint256",
          "name": "",
          "type": "uint256"
        }
      ],
      "stateMutability": "view",
      "type": "function"
    },
    {
      "inputs": [
        {
          "internalType": "uint256",
          "name": "modelId",
          "type": "uint256"
        }
      ],
      "name": "deactivateModel",
      "outputs": [],
      "stateMutability": "nonpayable",
      "type": "function"
    },
    {
      "inputs": [
        {
          "internalType": "uint256",
          "name": "amount",
          "type": "uint256"
        }
      ],
      "name": "depositToFund",
      "outputs": [],
      "stateMutability": "nonpayable",
      "type": "function"
    },
    {
      "inputs": [
        {
          "internalType": "address",
          "name": "token",
          "type": "address"
        },
        {
          "internalType": "address",
          "name": "to",
          "type": "address"
        },
        {
          "internalType": "uint256",
          "name": "amount",
          "type": "uint256"
        }
      ],
      "name": "emergencyWithdraw",
      "outputs": [],
      "stateMutability": "nonpayable",
      "type": "function"
    },
    {
      "inputs": [
        {
          "internalType": "uint256",
          "name": "projectId",
          "type": "uint256"
        },
        {
          "internalType": "uint256",
          "name": "amount",
          "type": "uint256"
        }
      ],
      "name": "fundProject",
      "outputs": [],
      "stateMutability": "nonpayable",
      "type": "function"
    },
    {
      "inputs": [
        {
          "internalType": "uint256",
          "name": "creditId",
          "type": "uint256"
        }
      ],
      "name": "getCarbonCredit",
      "outputs": [
        {
          "components": [
            {
              "internalType": "uint256",
              "name": "id",
              "type": "uint256"
            },
            {
              "internalType": "uint256",
              "name": "projectId",
              "type": "uint256"
            },
            {
              "internalType": "address",
              "name": "owner",
              "type": "address"
            },
            {
              "internalType": "uint256",
              "name": "tons",
              "type": "uint256"
            },
            {
              "internalType": "uint256",
              "name": "vintage",
              "type": "uint256"
            },
            {
              "internalType": "string",
              "name": "standard",
              "type": "string"
            },
            {
              "internalType": "bool",
              "name": "retired",
              "type": "bool"
            },
            {
              "internalType": "uint256",
              "name": "retiredAt",
              "type": "uint256"
            }
          ],
          "internalType": "struct KaiClimate.CarbonCredit",
          "name": "",
          "type": "tuple"
        }
      ],
      "stateMutability": "view",
      "type": "function"
    },
    {
      "inputs": [
        {
          "internalType": "uint256",
          "name": "modelId",
          "type": "uint256"
        }
      ],
      "name": "getModelScores",
      "outputs": [
        {
          "components": [
            {
              "internalType": "uint256",
              "name": "modelId",
              "type": "uint256"
            },
            {
              "internalType": "string",
              "name": "region",
              "type": "string"
            },
            {
              "internalType": "uint256",
              "name": "score",
              "type": "uint256"
            },
            {
              "internalType": "uint256",
              "name": "timestamp",
              "type": "uint256"
            },
            {
              "internalType": "uint256",
              "name": "projectionYear",
              "type": "uint256"
            },
            {
              "internalType": "string",
              "name": "impactDescription",
              "type": "string"
            }
          ],
          "internalType": "struct KaiClimate.RiskScore[]",
          "name": "",
          "type": "tuple[]"
        }
      ],
      "stateMutability": "view",
      "type": "function"
    },
    {
      "inputs": [
        {
          "internalType": "address",
          "name": "owner",
          "type": "address"
        }
      ],
      "name": "getOwnerCredits",
      "outputs": [
        {
          "internalType": "uint256[]",
          "name": "",
          "type": "uint256[]"
        }
      ],
      "stateMutability": "view",
      "type": "function"
    },
    {
      "inputs": [
        {
          "internalType": "uint256",
          "name": "projectId",
          "type": "uint256"
        }
      ],
      "name": "getProject",
      "outputs": [
        {
          "components": [
            {
              "internalType": "uint256",
              "name": "id",
              "type": "uint256"
            },
            {
              "internalType": "address",
              "name": "proposer",
              "type": "address"
            },
            {
              "internalType": "string",
              "name": "name",
              "type": "string"
            },
            {
              "internalType": "string",
              "name": "projectType",
              "type": "string"
            },
            {
              "internalType": "string",
              "name": "region",
              "type": "string"
            },
            {
              "internalType": "uint256",
              "name": "fundingGoal",
              "type": "uint256"
            },
            {
              "internalType": "uint256",
              "name": "fundingRaised",
              "type": "uint256"
            },
            {
              "internalType": "uint256",
              "name": "startDate",
              "type": "uint256"
            },
            {
              "internalType": "uint256",
              "name": "endDate",
              "type": "uint256"
            },
            {
              "internalType": "bytes32",
              "name": "proposalHash",
              "type": "bytes32"
            },
            {
              "internalType": "enum KaiClimate.ProjectStatus",
              "name": "status",
              "type": "uint8"
            },
            {
              "internalType": "uint256",
              "name": "carbonOffset",
              "type": "uint256"
            },
            {
              "internalType": "uint256",
              "name": "beneficiaries",
              "type": "uint256"
            }
          ],
          "internalType": "struct KaiClimate.AdaptationProject",
          "name": "",
          "type": "tuple"
        }
      ],
      "stateMutability": "view",
      "type": "function"
    },
    {
      "inputs": [
        {
          "internalType": "uint256",
          "name": "modelId",
          "type": "uint256"
        }
      ],
      "name": "getRiskModel",
      "outputs": [
        {
          "components": [
            {
              "internalType": "uint256",
              "name": "id",
              "type": "uint256"
            },
            {
              "internalType": "string",
              "name": "name",
              "type": "string"
            },
            {
              "internalType": "string",
              "name": "region",
              "type": "string"
            },
            {
              "internalType": "string",
              "name": "riskType",
              "type": "string"
            },
            {
              "internalType": "uint256",
              "name": "timeHorizon",
              "type": "uint256"
            },
            {
              "internalType": "uint256",
              "name": "confidenceLevel",
              "type": "uint256"
            },
            {
              "internalType": "bytes32",
              "name": "modelHash",
              "type": "bytes32"
            },
            {
              "internalType": "uint256",
              "name": "createdAt",
              "type": "uint256"
            },
            {
              "internalType": "uint256",
              "name": "lastUpdated",
              "type": "uint256"
            },
            {
              "internalType": "address",
              "name": "creator",
              "type": "address"
            },
            {
              "internalType": "uint256",
              "name": "accessCount",
              "type": "uint256"
            },
            {
              "internalType": "bool",
              "name": "active",
              "type": "bool"
            }
          ],
          "internalType": "struct KaiClimate.ClimateRiskModel",
          "name": "",
          "type": "tuple"
        }
      ],
      "stateMutability": "view",
      "type": "function"
    },
    {
      "inputs": [
        {
          "internalType": "bytes32",
          "name": "role",
          "type": "bytes32"
        }
      ],
      "name": "getRoleAdmin",
      "outputs": [
        {
          "internalType": "bytes32",
          "name": "",
          "type": "bytes32"
        }
      ],
      "stateMutability": "view",
      "type": "function"
    },
    {
      "inputs": [
        {
          "internalType": "address",
          "name": "entity",
          "type": "address"
        }
      ],
      "name": "getSustainabilityMetric",
      "outputs": [
        {
          "components": [
            {
              "internalType": "address",
              "name": "entity",
              "type": "address"
            },
            {
              "internalType": "uint256",
              "name": "carbonFootprint",
              "type": "uint256"
            },
            {
              "internalType": "uint256",
              "name": "carbonOffset",
              "type": "uint256"
            },
            {
              "internalType": "int256",
              "name": "netEmissions",
              "type": "int256"
            },
            {
              "internalType": "uint256",
              "name": "adaptationContributions",
              "type": "uint256"
            },
            {
              "internalType": "uint256",
              "name": "lastUpdated",
              "type": "uint256"
            }
          ],
          "internalType": "struct KaiClimate.SustainabilityMetric",
          "name": "",
          "type": "tuple"
        }
      ],
      "stateMutability": "view",
      "type": "function"
    },
    {
      "inputs": [
        {
          "internalType": "bytes32",
          "name": "role",
          "type": "bytes32"
        },
        {
          "internalType": "address",
          "name": "account",
          "type": "address"
        }
      ],
      "name": "grantRole",
      "outputs": [],
      "stateMutability": "nonpayable",
      "type": "function"
    },
    {
      "inputs": [
        {
          "internalType": "bytes32",
          "name": "role",
          "type": "bytes32"
        },
        {
          "internalType": "address",
          "name": "account",
          "type": "address"
        }
      ],
      "name": "hasRole",
      "outputs": [
        {
          "internalType": "bool",
          "name": "",
          "type": "bool"
        }
      ],
      "stateMutability": "view",
      "type": "function"
    },
    {
      "inputs": [
        {
          "internalType": "uint256",
          "name": "projectId",
          "type": "uint256"
        },
        {
          "internalType": "address",
          "name": "recipient",
          "type": "address"
        },
        {
          "internalType": "uint256",
          "name": "tons",
          "type": "uint256"
        },
        {
          "internalType": "uint256",
          "name": "vintage",
          "type": "uint256"
        },
        {
          "internalType": "string",
          "name": "standard",
          "type": "string"
        }
      ],
      "name": "issueCarbonCredits",
      "outputs": [
        {
          "internalType": "uint256",
          "name": "",
          "type": "uint256"
        }
      ],
      "stateMutability": "nonpayable",
      "type": "function"
    },
    {
      "inputs": [],
      "name": "kaiToken",
      "outputs": [
        {
          "internalType": "contract KAIToken",
          "name": "",
          "type": "address"
        }
      ],
      "stateMutability": "view",
      "type": "function"
    },
    {
      "inputs": [],
      "name": "modelCount",
      "outputs": [
        {
          "internalType": "uint256",
          "name": "",
          "type": "uint256"
        }
      ],
      "stateMutability": "view",
      "type": "function"
    },
    {
      "inputs": [
        {
          "internalType": "uint256",
          "name": "",
          "type": "uint256"
        },
        {
          "internalType": "uint256",
          "name": "",
          "type": "uint256"
        }
      ],
      "name": "modelScores",
      "outputs": [
        {
          "internalType": "uint256",
          "name": "modelId",
          "type": "uint256"
        },
        {
          "internalType": "string",
          "name": "region",
          "type": "string"
        },
        {
          "internalType": "uint256",
          "name": "score",
          "type": "uint256"
        },
        {
          "internalType": "uint256",
          "name": "timestamp",
          "type": "uint256"
        },
        {
          "internalType": "uint256",
          "name": "projectionYear",
          "type": "uint256"
        },
        {
          "internalType": "string",
          "name": "impactDescription",
          "type": "string"
        }
      ],
      "stateMutability": "view",
      "type": "function"
    },
    {
      "inputs": [
        {
          "internalType": "address",
          "name": "",
          "type": "address"
        },
        {
          "internalType": "uint256",
          "name": "",
          "type": "uint256"
        }
      ],
      "name": "ownerCredits",
      "outputs": [
        {
          "internalType": "uint256",
          "name": "",
          "type": "uint256"
        }
      ],
      "stateMutability": "view",
      "type": "function"
    },
    {
      "inputs": [],
      "name": "pause",
      "outputs": [],
      "stateMutability": "nonpayable",
      "type": "function"
    },
    {
      "inputs": [],
      "name": "paused",
      "outputs": [
        {
          "internalType": "bool",
          "name": "",
          "type": "bool"
        }
      ],
      "stateMutability": "view",
      "type": "function"
    },
    {
      "inputs": [],
      "name": "projectCount",
      "outputs": [
        {
          "internalType": "uint256",
          "name": "",
          "type": "uint256"
        }
      ],
      "stateMutability": "view",
      "type": "function"
    },
    {
      "inputs": [],
      "name": "projectProposalFee",
      "outputs": [
        {
          "internalType": "uint256",
          "name": "",
          "type": "uint256"
        }
      ],
      "stateMutability": "view",
      "type": "function"
    },
    {
      "inputs": [
        {
          "internalType": "uint256",
          "name": "",
          "type": "uint256"
        }
      ],
      "name": "projectVoteCount",
      "outputs": [
        {
          "internalType": "uint256",
          "name": "",
          "type": "uint256"
        }
      ],
      "stateMutability": "view",
      "type": "function"
    },
    {
      "inputs": [
        {
          "internalType": "uint256",
          "name": "",
          "type": "uint256"
        },
        {
          "internalType": "address",
          "name": "",
          "type": "address"
        }
      ],
      "name": "projectVotes",
      "outputs": [
        {
          "internalType": "bool",
          "name": "",
          "type": "bool"
        }
      ],
      "stateMutability": "view",
      "type": "function"
    },
    {
      "inputs": [
        {
          "internalType": "string",
          "name": "name",
          "type": "string"
        },
        {
          "internalType": "string",
          "name": "projectType",
          "type": "string"
        },
        {
          "internalType": "string",
          "name": "region",
          "type": "string"
        },
        {
          "internalType": "uint256",
          "name": "fundingGoal",
          "type": "uint256"
        },
        {
          "internalType": "uint256",
          "name": "durationDays",
          "type": "uint256"
        },
        {
          "internalType": "bytes32",
          "name": "proposalHash",
          "type": "bytes32"
        }
      ],
      "name": "proposeProject",
      "outputs": [
        {
          "internalType": "uint256",
          "name": "",
          "type": "uint256"
        }
      ],
      "stateMutability": "nonpayable",
      "type": "function"
    },
    {
      "inputs": [
        {
          "internalType": "address",
          "name": "",
          "type": "address"
        },
        {
          "internalType": "uint256",
          "name": "",
          "type": "uint256"
        }
      ],
      "name": "proposerProjects",
      "outputs": [
        {
          "internalType": "uint256",
          "name": "",
          "type": "uint256"
        }
      ],
      "stateMutability": "view",
      "type": "function"
    },
    {
      "inputs": [
        {
          "internalType": "uint256",
          "name": "modelId",
          "type": "uint256"
        },
        {
          "internalType": "string",
          "name": "region",
          "type": "string"
        },
        {
          "internalType": "uint256",
          "name": "score",
          "type": "uint256"
        },
        {
          "internalType": "uint256",
          "name": "projectionYear",
          "type": "uint256"
        },
        {
          "internalType": "string",
          "name": "impactDescription",
          "type": "string"
        }
      ],
      "name": "publishRiskScore",
      "outputs": [],
      "stateMutability": "nonpayable",
      "type": "function"
    },
    {
      "inputs": [
        {
          "internalType": "uint256",
          "name": "tons",
          "type": "uint256"
        }
      ],
      "name": "purchaseCarbonCredits",
      "outputs": [
        {
          "internalType": "uint256",
          "name": "",
          "type": "uint256"
        }
      ],
      "stateMutability": "nonpayable",
      "type": "function"
    },
    {
      "inputs": [
        {
          "internalType": "bytes32",
          "name": "role",
          "type": "bytes32"
        },
        {
          "internalType": "address",
          "name": "callerConfirmation",
          "type": "address"
        }
      ],
      "name": "renounceRole",
      "outputs": [],
      "stateMutability": "nonpayable",
      "type": "function"
    },
    {
      "inputs": [
        {
          "internalType": "uint256",
          "name": "creditId",
          "type": "uint256"
        }
      ],
      "name": "retireCarbonCredits",
      "outputs": [],
      "stateMutability": "nonpayable",
      "type": "function"
    },
    {
      "inputs": [
        {
          "internalType": "bytes32",
          "name": "role",
          "type": "bytes32"
        },
        {
          "internalType": "address",
          "name": "account",
          "type": "address"
        }
      ],
      "name": "revokeRole",
      "outputs": [],
      "stateMutability": "nonpayable",
      "type": "function"
    },
    {
      "inputs": [],
      "name": "riskModelAccessFee",
      "outputs": [
        {
          "internalType": "uint256",
          "name": "",
          "type": "uint256"
        }
      ],
      "stateMutability": "view",
      "type": "function"
    },
    {
      "inputs": [
        {
          "internalType": "uint256",
          "name": "",
          "type": "uint256"
        }
      ],
      "name": "riskModels",
      "outputs": [
        {
          "internalType": "uint256",
          "name": "id",
          "type": "uint256"
        },
        {
          "internalType": "string",
          "name": "name",
          "type": "string"
        },
        {
          "internalType": "string",
          "name": "region",
          "type": "string"
        },
        {
          "internalType": "string",
          "name": "riskType",
          "type": "string"
        },
        {
          "internalType": "uint256",
          "name": "timeHorizon",
          "type": "uint256"
        },
        {
          "internalType": "uint256",
          "name": "confidenceLevel",
          "type": "uint256"
        },
        {
          "internalType": "bytes32",
          "name": "modelHash",
          "type": "bytes32"
        },
        {
          "internalType": "uint256",
          "name": "createdAt",
          "type": "uint256"
        },
        {
          "internalType": "uint256",
          "name": "lastUpdated",
          "type": "uint256"
        },
        {
          "internalType": "address",
          "name": "creator",
          "type": "address"
        },
        {
          "internalType": "uint256",
          "name": "accessCount",
          "type": "uint256"
        },
        {
          "internalType": "bool",
          "name": "active",
          "type": "bool"
        }
      ],
      "stateMutability": "view",
      "type": "function"
    },
    {
      "inputs": [
        {
          "internalType": "uint256",
          "name": "modelFee",
          "type": "uint256"
        },
        {
          "internalType": "uint256",
          "name": "proposalFee",
          "type": "uint256"
        },
        {
          "internalType": "uint256",
          "name": "creditPrice",
          "type": "uint256"
        }
      ],
      "name": "setFees",
      "outputs": [],
      "stateMutability": "nonpayable",
      "type": "function"
    },
    {
      "inputs": [
        {
          "internalType": "uint256",
          "name": "projectId",
          "type": "uint256"
        }
      ],
      "name": "startProject",
      "outputs": [],
      "stateMutability": "nonpayable",
      "type": "function"
    },
    {
      "inputs": [
        {
          "internalType": "uint256",
          "name": "projectId",
          "type": "uint256"
        }
      ],
      "name": "startProjectVoting",
      "outputs": [],
      "stateMutability": "nonpayable",
      "type": "function"
    },
    {
      "inputs": [
        {
          "internalType": "bytes4",
          "name": "interfaceId",
          "type": "bytes4"
        }
      ],
      "name": "supportsInterface",
      "outputs": [
        {
          "internalType": "bool",
          "name": "",
          "type": "bool"
        }
      ],
      "stateMutability": "view",
      "type": "function"
    },
    {
      "inputs": [
        {
          "internalType": "address",
          "name": "",
          "type": "address"
        }
      ],
      "name": "sustainabilityMetrics",
      "outputs": [
        {
          "internalType": "address",
          "name": "entity",
          "type": "address"
        },
        {
          "internalType": "uint256",
          "name": "carbonFootprint",
          "type": "uint256"
        },
        {
          "internalType": "uint256",
          "name": "carbonOffset",
          "type": "uint256"
        },
        {
          "internalType": "int256",
          "name": "netEmissions",
          "type": "int256"
        },
        {
          "internalType": "uint256",
          "name": "adaptationContributions",
          "type": "uint256"
        },
        {
          "internalType": "uint256",
          "name": "lastUpdated",
          "type": "uint256"
        }
      ],
      "stateMutability": "view",
      "type": "function"
    },
    {
      "inputs": [],
      "name": "totalCarbonOffset",
      "outputs": [
        {
          "internalType": "uint256",
          "name": "",
          "type": "uint256"
        }
      ],
      "stateMutability": "view",
      "type": "function"
    },
    {
      "inputs": [
        {
          "internalType": "uint256",
          "name": "creditId",
          "type": "uint256"
        },
        {
          "internalType": "address",
          "name": "to",
          "type": "address"
        }
      ],
      "name": "transferCarbonCredit",
      "outputs": [],
      "stateMutability": "nonpayable",
      "type": "function"
    },
    {
      "inputs": [],
      "name": "unpause",
      "outputs": [],
      "stateMutability": "nonpayable",
      "type": "function"
    },
    {
      "inputs": [
        {
          "internalType": "address",
          "name": "entity",
          "type": "address"
        },
        {
          "internalType": "uint256",
          "name": "annualTons",
          "type": "uint256"
        }
      ],
      "name": "updateCarbonFootprint",
      "outputs": [],
      "stateMutability": "nonpayable",
      "type": "function"
    },
    {
      "inputs": [
        {
          "internalType": "uint256",
          "name": "projectId",
          "type": "uint256"
        },
        {
          "internalType": "bool",
          "name": "support",
          "type": "bool"
        }
      ],
      "name": "voteOnProject",
      "outputs": [],
      "stateMutability": "nonpayable",
      "type": "function"
    },
    {
      "inputs": [
        {
          "internalType": "address",
          "name": "to",
          "type": "address"
        },
        {
          "internalType": "uint256",
          "name": "amount",
          "type": "uint256"
        }
      ],
      "name": "withdrawFromFund",
      "outputs": [],
      "stateMutability": "nonpayable",
      "type": "function"
    }
  ],
  "bytecode": "0x60a0346200018d57601f620048b638819003918201601f19168301916001600160401b03831184841017620001925780849260409485528339810103126200018d576200005a60206200005283620001a8565b9201620001a8565b6001805568015af1d78b58c40000600355680ad78ebc5ac6200000600455678ac7230489e800006005556001600160a01b0391821691821562000158578116156200012357620000d191608052620000b281620001bd565b50620000be816200023d565b50620000ca81620002df565b506200037c565b5060405161447c90816200041a8239608051818181610a2101528181610d25015281816113a40152818161142e0152818161216101528181612bcc01528181612d3c0152818161339c01526139d10152f35b60405162461bcd60e51b815260206004820152600d60248201526c24b73b30b634b21030b236b4b760991b6044820152606490fd5b60405162461bcd60e51b815260206004820152600d60248201526c24b73b30b634b2103a37b5b2b760991b6044820152606490fd5b600080fd5b634e487b7160e01b600052604160045260246000fd5b51906001600160a01b03821682036200018d57565b6001600160a01b031660008181527fad3228b676f7d3cd4284a5443f17f1962b36e491b30a40b2405849e597ba5fb5602052604081205490919060ff166200023957818052816020526040822081835260205260408220600160ff198254161790553391600080516020620048968339815191528180a4600190565b5090565b6001600160a01b031660008181527fbb3e7e49a5866512e2c8ea133f1b65b151986fa12388fe8d72bcbf662653c19360205260408120549091907f2dd255da36d14a405817851653012fc5c78128282643b1301816168707f425829060ff16620002da57808352826020526040832082845260205260408320600160ff1982541617905560008051602062004896833981519152339380a4600190565b505090565b6001600160a01b031660008181527fe94a20ce27c75da61b5a6b6c508baf2ba9816ba23501b846efbe714bc008a4d760205260408120549091907f77689c22f8d2a5f5db035c9bcfad3bc899345e539dccd056c425bea4d16226539060ff16620002da57808352826020526040832082845260205260408320600160ff1982541617905560008051602062004896833981519152339380a4600190565b6001600160a01b031660008181527f206d69cdfbb37d44d8f0ac8622a1d136818236f8bf09d539aa448c1dbb6a5a9760205260408120549091907f5900cac08fdb1f8a387fbe1ff6d1e4da19e0525cf65e16a7c90dd86df70b513c9060ff16620002da57808352826020526040832082845260205260408320600160ff1982541617905560008051602062004896833981519152339380a460019056fe608080604052600436101561001357600080fd5b600090813560e01c908162f9ba7114613b3c5750806301cda5a41461394e57806301ffc9a7146138f7578063070bfe12146137895780630ae92f9a1461374e578063158dd2d4146137135780631931c4351461369e5780631e10f86b14613668578063248a9ca31461363c578063249411471461358f57806325bed1e11461332c578063289df7f514612ccd57806328d6337714612c1e5780632c7c548714612b7d5780632c99753114612aad5780632f2ff15d14612a70578063314491f914612a52578063320f08b11461244f57806336568abe1461240757806336fbad26146123e95780633ef34fc91461233b5780633f4ba83a146122d05780634339e612146120d35780634ae8f21c14611fcd57806350e78cb414611f1b5780635a7dd27c14611e7b5780635c975abb14611e58578063619906b914611d6657806364c8b1fc14611cc657806366bbbe7114611c9c57806369c7a09114611c2c5780636b9268e014611a505780636dc452821461197c57806372b8030f1461195e5780637bd11145146115215780638456cb59146114c65780638846ac51146114a857806391d148541461145d5780639bcfdfc0146114185780639f7f9161146112fd578063a18fac2b146112df578063a217fddf146112c3578063b07641751461127b578063bb596636146111b0578063c271f1bc14611168578063c6a645fe1461114a578063c78d5a601461112c578063cafcc16314611077578063cc8279fc14610cb6578063cec10c1114610c92578063d3965ea614610c3c578063d437e56514610bf0578063d547741f14610baf578063d6bbf45614610b91578063e63ea408146109c5578063ef636be4146106a9578063f0f3f2c814610489578063f392243b146103605763f62bf2de146102a957600080fd5b3461035d57602036600319011261035d576004356102c56141f9565b808252600860205260408220600a8101805460ff81166008811015610349576003036103175760049060ff1916179055600742910155600080516020614427833981519152602060405160048152a280f35b60405162461bcd60e51b815260206004820152600a602482015269139bdd08199d5b99195960b21b6044820152606490fd5b634e487b7160e01b86526021600452602486fd5b80fd5b503461035d576020908160031936011261035d578060409160e0835161038581613d28565b82815282868201528285820152826060820152826080820152606060a08201528260c0820152015260043581526009835220604051906103c482613d28565b80548252600181015483830190815260028201546001600160a01b0390811660408501908152600384015460608601908152600485015460808701908152919261041060058701613d65565b9360a08801948552600760ff6006890154169760c08a01981515895201549560e08901968752604051998a99818b5251908a0152516040890152511660608701525160808601525160a08501525190610477610100928360c0870152610120860190613b91565b9251151560e085015251908301520390f35b503461035d57602036600319011261035d578060409161018083516104ad81613cf0565b828152826020820152606085820152606080820152606060808201528260a08201528260c08201528260e082015282610100820152826101208201528261014082015282610160820152015260043581526008602052206040519061051182613cf0565b8054825260018101546001600160a01b0316602083015261053460028201613d65565b604083015261054560038201613d65565b606083015261055660048201613d65565b6080830152600581015460a0830152600681015460c0830152600781015460e08301526008810154610100830152600981015461012083015260ff600a8201541690600882101561069357600c91610140840152600b81015461016084015201546101808201526040518091602082528051602083015260018060a01b03602082015116604083015261018061063161060060408401516101a060608701526101c0860190613b91565b61061c606085015191601f199283888303016080890152613b91565b906080850151908683030160a0870152613b91565b9160a081015160c085015260c081015160e085015260e081015161010085015261010081015161012085015261012081015161014085015261067d610140820151610160860190613e0a565b6101608101518285015201516101a08301520390f35b634e487b7160e01b600052602160045260246000fd5b503461035d5760a036600319011261035d576106c3613be7565b6001600160401b03906084358281116109c1576106e4903690600401613bfd565b936106ed6142b1565b6004358152600860205260ff600a6040832001541660088110156109ad576005036109705761071d601254613f28565b93846012556040519061072f82613d28565b85825260208201966004358852604083019060018060a01b0395868816835261076c60608601916044358352608087019360643585523691613f8e565b9260a086019384528660c08701528660e08701528987526009602052604087209a86518c555160018c01558760028c019151166001600160601b0360a01b8254161790555160038a015551600489015551805191821161095c576107d36005890154613c9b565b601f8111610913575b50916020979187938990601f8311600114610899578693836040969460079460e0946108539b9261088e575b50508160011b916000199060031b1c19161760058501555b61083f60c08201511515600686019060ff801983541691151516179055565b01519101558486168152600d885220613fc5565b6040519160443583521690827f21980e8fd3c4d630624319e29b19acbc343c34b23bda4b1e72e9a9be3a4700df8560043593a4604051908152f35b015190503880610808565b906005850187528a872091875b601f19851681106108f957509360018460079460e0946108539b9860409a98601f198116106108e0575b505050811b016005850155610820565b015160001960f88460031b161c191690553880806108d0565b8183015184558b9750600190930192918c01918c016108a6565b60058901855260208520601f840160051c81019160208510610952575b601f0160051c01905b81811061094657506107dc565b60008155600101610939565b9091508190610930565b634e487b7160e01b84526041600452602484fd5b60405162461bcd60e51b8152602060048201526015602482015274141c9bda9958dd081b9bdd0818dbdb5c1b195d1959605a1b6044820152606490fd5b634e487b7160e01b82526021600452602482fd5b8380fd5b503461035d57606036600319011261035d576109df613bd1565b6109e7613be7565b90604435916109f46141a1565b6109fc614160565b6001600160a01b03918490610a1483851615156140e6565b610a1f851515614126565b7f000000000000000000000000000000000000000000000000000000000000000084169381168403610ad8575060405163a9059cbb60e01b81526001600160a01b0392909216600483015260248201939093529160209183916044918391905af18015610acd57610a97918391610a9e575b50613e93565b6001805580f35b610ac0915060203d602011610ac6575b610ab88183613d44565b810190613e7b565b38610a91565b503d610aae565b6040513d84823e3d90fd5b60405163a9059cbb60e01b602082019081526001600160a01b03949094166024820152604480820196909652948552610b5694919350839290918390610b1f606482613d44565b51925af13d15610b8a573d610b3381613f73565b90610b416040519283613d44565b81523d84602083013e5b81610b5b5750613e93565b610a97565b8051801592508215610b70575b505038610a91565b610b839250602080918301019101613e7b565b3880610b68565b6060610b4b565b503461035d578060031936011261035d576020600354604051908152f35b503461035d57604036600319011261035d57610bec600435610bcf613be7565b9080845283602052610be7600160408620015461430d565b6143b1565b5080f35b503461035d57604036600319011261035d576040610c0c613be7565b916004358152600e602052209060018060a01b0316600052602052602060ff604060002054166040519015158152f35b503461035d57604036600319011261035d57610c56613bd1565b6001600160a01b03168152600d602052604081208054602435929083101561035d576020610c848484613e49565b90546040519160031b1c8152f35b503461035d57610ca136613e61565b91610caa6141a1565b60035560045560055580f35b503461035d576020908160031936011261035d57600435610cd5614160565b610cdd614183565b80156110425760055490818102918183040361102c576040516323b872dd60e01b8152336004820152306024820152604481018390526001600160a01b0392908581606481887f000000000000000000000000000000000000000000000000000000000000000089165af190811561102157610d6c9291610d6491879161100a5750613e93565b601354613ed1565b601355610d7a601254613f28565b92836012556301e133804204926107b28401809411610ff65760405190610da082613d28565b8582528682019483865260408301903382526060840191868352608085019182526040519160408301936001600160401b039284861084871117610fe0578b968d96604052600c86526b12d0524b5d995c9a599a595960a21b8787015260a08901958652600960c08a01978b895260e08b01998c8b528c525260408a209851895560019b518c8a0155600289019151166001600160601b0360a01b8254161790555160038701555160048601556005850191518051918211610fcc57610e668354613c9b565b601f8111610f85575b508a90601f8311600114610f15579180610ebc949260079796948a92610f0a575b5050600019600383901b1c1916908a1b1790555b511515600685019060ff801983541691151516179055565b51910155338152600d8552610ed48460408320613fc5565b604051918252837f21980e8fd3c4d630624319e29b19acbc343c34b23bda4b1e72e9a9be3a4700df863394a48055604051908152f35b015190503880610e90565b8388528b88208a93929091601f1984168a8f5b828210610f6c575050916007989795939185610ebc98969410610f53575b505050811b019055610ea4565b015160001960f88460031b161c19169055388080610f46565b8484015186558e97909501949384019390810190610f28565b8388528b8820601f840160051c8101918d8510610fc2575b601f0160051c01908a905b828110610fb6575050610e6f565b60008155018a90610fa8565b9091508190610f9d565b634e487b7160e01b87526041600452602487fd5b634e487b7160e01b600052604160045260246000fd5b634e487b7160e01b82526011600452602482fd5b610ac09150883d8a11610ac657610ab88183613d44565b6040513d87823e3d90fd5b634e487b7160e01b600052601160045260246000fd5b60405162461bcd60e51b815260048101849052600d60248201526c151bdb9cc81c995c5d5a5c9959609a1b6044820152606490fd5b503461035d5761108636613b76565b61108e6141f9565b8183526008602052600a60408420019081549060ff821660088110156103495760016110ba91146140aa565b838552600f6020526040852054106110f25760029060ff1916179055600080516020614427833981519152602060405160028152a280f35b60405162461bcd60e51b8152602060048201526012602482015271496e73756666696369656e7420766f74657360701b6044820152606490fd5b503461035d578060031936011261035d576020600454604051908152f35b503461035d578060031936011261035d576020601054604051908152f35b503461035d57604036600319011261035d57611182613bd1565b6001600160a01b03168152600b602052604081208054602435929083101561035d576020610c848484613e49565b503461035d576111bf36613e61565b906111c86141f9565b82845260086020526040842091600a83019283549060ff821660088110156112675760040361123057611211946005600c9360ff191617905583600b8201550155601454613ed1565b601455600080516020614427833981519152602060405160058152a280f35b60405162461bcd60e51b815260206004820152600f60248201526e4e6f7420696e2070726f677265737360881b6044820152606490fd5b634e487b7160e01b88526021600452602488fd5b503461035d57604036600319011261035d57611295613bd1565b6001600160a01b03168152600c602052604081208054602435929083101561035d576020610c848484613e49565b503461035d578060031936011261035d57602090604051908152f35b503461035d578060031936011261035d576020601354604051908152f35b503461035d57604036600319011261035d57611317613bd1565b6024356113226141a1565b61132a614160565b6001600160a01b039061134083831615156140e6565b61134b811515614126565b601354918282116113dc576113a09361136683602095613f1b565b60135560405163a9059cbb60e01b81526001600160a01b039091166004820152602481019290925290928391908290869082906044820190565b03927f0000000000000000000000000000000000000000000000000000000000000000165af18015610acd57610a97918391610a9e5750613e93565b60405162461bcd60e51b8152602060048201526014602482015273457863656564732066756e642062616c616e636560601b6044820152606490fd5b503461035d578060031936011261035d576040517f00000000000000000000000000000000000000000000000000000000000000006001600160a01b03168152602090f35b503461035d57604036600319011261035d576040611479613be7565b91600435815280602052209060018060a01b0316600052602052602060ff604060002054166040519015158152f35b503461035d578060031936011261035d576020600554604051908152f35b503461035d578060031936011261035d576114df6141a1565b6114e7614183565b600160ff1960025416176002557f62e78cea01bee320cd4e420270b5ea74000d11b0c9f74754ebdbfc544b05a2586020604051338152a180f35b503461035d5760a036600319011261035d576024356001600160401b03811161195a57611552903690600401613bfd565b906084356001600160401b0381116109c157611572903690600401613bfd565b61157a614255565b606460443511611925576004358552600660205260408520916115a360ff600b85015416613ede565b60043586526007602052604086206115f6604051926115c184613cd5565b60043584526115d1368989613f8e565b9460208501958652604435604086015242606086015260643560808601523691613f8e565b60a0830152805490600160401b8210156118fd579061161a91600182018155613e17565b9290926119115781518355518051906001600160401b0382116118fd576116446001850154613c9b565b601f81116118b8575b50602090601f83116001146118485760a093929189918361183d575b50508160011b916000199060031b1c19161760018401555b60408101516002840155606081015160038401556080810151600484015501518051906001600160401b038211610fcc576116bf6005840154613c9b565b601f81116117f4575b50602090601f8311600114611760578261173995937fc237d264b1aaeea0d10708aa16950be2938a850ec719796dcfaf64723fee70d69795936005938b92611755575b50508160011b916000199060031b1c1916179101555b60084291015560405193606085526060850191613ffa565b916044356020820152606435604082015280600435930390a280f35b01519050388061170b565b906005840188526020882091885b601f19851681106117dc5750837fc237d264b1aaeea0d10708aa16950be2938a850ec719796dcfaf64723fee70d69795936005936001936117399997601f198116106117c3575b505050811b01910155611721565b015160001960f88460031b161c191690553880806117b5565b9192602060018192868501518155019401920161176e565b60058401885260208820601f840160051c81019160208510611833575b601f0160051c01905b81811061182757506116c8565b6000815560010161181a565b9091508190611811565b015190503880611669565b906001850189526020892091895b601f19851681106118a0575091839160019360a09695601f19811610611887575b505050811b016001840155611681565b015160001960f88460031b161c19169055388080611877565b91926020600181928685015181550194019201611856565b60018501895260208920601f840160051c8101602085106118f6575b601f830160051c820181106118ea57505061164d565b600081556001016118d4565b50806118d4565b634e487b7160e01b88526041600452602488fd5b634e487b7160e01b87526004879052602487fd5b60405162461bcd60e51b815260206004820152600d60248201526c496e76616c69642073636f726560981b6044820152606490fd5b5080fd5b503461035d578060031936011261035d576020601254604051908152f35b503461035d57602036600319011261035d5760c090604061199b613bd1565b918060a083516119aa81613cd5565b8281528260208201528285820152826060820152826080820152015260018060a01b038093168152600a6020522090604051906119e682613cd5565b825416918282526001810154602083019081526002820154604084019081526003830154916060850192835260a0600560048601549560808801968752015495019485526040519586525160208601525160408501525160608401525160808301525160a0820152f35b503461035d57602036600319011261035d57806040916101608351611a7481613d0c565b828152606060208201526060858201526060808201528260808201528260a08201528260c08201528260e08201528261010082015282610120820152826101408201520152600435815260066020522060ff600b60405192611ad584613d0c565b80548452611ae560018201613d65565b6020850152611af660028201613d65565b6040850152611b0760038201613d65565b606085015260048101546080850152600581015460a0850152600681015460c0850152600781015460e0850152600881015461010085015260018060a01b03600982015416610120850152600a810154610140850152015416151561016082015260405180916020825280516020830152610160611bca611b99602084015161018060408701526101a0860190613b91565b611bb5604085015191601f199283888303016060890152613b91565b90606085015190868303016080870152613b91565b91608081015160a085015260a081015160c085015260c081015160e085015260e081015161010085015261010081015161012085015260018060a01b036101208201511661014085015261014081015182850152015115156101808301520390f35b503461035d57604036600319011261035d57611c46613bd1565b611c8e60243591611c556142b1565b6001600160a01b0316808452600a6020526040842080546001600160a01b03191690911781556001810183905560028101549092614091565b600382015560054291015580f35b503461035d57602036600319011261035d5760406020916004358152600f83522054604051908152f35b503461035d57611cd536613b76565b9082526007602052604082208054821015611d6257611cf49250613e17565b508054611d5e611d0660018401613d65565b92600281015490600381015490611d24600560048301549201613d65565b91611d41604051978897885260c0602089015260c0880190613b91565b9360408701526060860152608085015283820360a0850152613b91565b0390f35b8280fd5b503461035d57602036600319011261035d5760409060043581526006602052208054611d9460018301613d65565b91611da160028201613d65565b611dad60038301613d65565b9160048101549260058201546006830154600784015490600885015492611e2560018060a01b0360098801541695611e1760ff600b600a8b01549a01541699611e096040519e8f9e8f6101809181528160208201520190613b91565b8d810360408f015290613b91565b908b820360608d0152613b91565b9760808a015260a089015260c088015260e087015261010086015261012085015261014084015215156101608301520390f35b503461035d578060031936011261035d57602060ff600254166040519015158152f35b503461035d57602036600319011261035d57604090600435815260096020522080549060018101549060018060a01b0360028201541692611f0a600383015491600484015490611ecd60058601613d65565b91600760ff60068801541696015494604051988998610100948a5260208a01526040890152606088015260808701528060a0870152850190613b91565b91151560c084015260e08301520390f35b503461035d57604036600319011261035d57600435611f38613be7565b908083526009602052604083206002810190815493611f7260ff600660018060a01b0394611f6933878b161461401b565b01541615614053565b168093611f808215156140e6565b6001600160601b0360a01b16179055818352600d602052611fa48160408520613fc5565b33907f3eea593b621e0ed29ff8f0eb633f77c0a8fa2079d1c9cf754a1e83e44806fd038480a480f35b503461035d57602036600319011261035d576004358152600860205260409020805460018201546001600160a01b03169161200a60028201613d65565b61201660038301613d65565b9161202360048201613d65565b9260058201549360068301546007840154600885015491600986015493600a87015460ff1695600b88015497600c0154986040519c8d9c8d6101a092839282526020820152604001528c0161207791613b91565b8b810360608d015261208891613b91565b8a810360808c015261209991613b91565b9760a08a015260c089015260e088015261010087015261012086015261014085016120c391613e0a565b6101608401526101808301520390f35b503461035d57604036600319011261035d5760043560243590811515918281036109c1576120ff614183565b8184526020906008825260ff600a60408720015416600881101561034957600161212991146140aa565b828552600e82526040852033600052825260ff6040600020541661229b576040516370a0823160e01b815233600482015282816024817f00000000000000000000000000000000000000000000000000000000000000006001600160a01b03165afa8015612290578690612256575b68056bc75e2d6310000091501061221a57907f90e745fb7ec06d6679dec571bb9b4e828cf2e1fed54f61c21bb55913fd9ac8b691838652600e8252604086203360005282526040600020600160ff198254161790556121fe575b6040519384523393a380f35b828552600f8152604085206122138154613f28565b90556121f2565b60405162461bcd60e51b8152600481018390526014602482015273496e73756666696369656e742062616c616e636560601b6044820152606490fd5b508281813d8311612289575b61226c8183613d44565b810103126122855768056bc75e2d631000009051612198565b8580fd5b503d612262565b6040513d88823e3d90fd5b60405162461bcd60e51b815260048101839052600d60248201526c105b1c9958591e481d9bdd1959609a1b6044820152606490fd5b503461035d578060031936011261035d576122e96141a1565b60025460ff8116156123295760ff19166002557f5db9ee0a495bf2e6ff9c91a7834c1ba4fdd244a5e8aa4e537bd38aeae4b073aa6020604051338152a180f35b604051638dfc202b60e01b8152600490fd5b503461035d5760208060031936011261195a576001600160a01b0361235e613bd1565b168252600d81526040822060405192838383549182815201908193835284832090835b8181106123d55750505084612397910385613d44565b60405193838594850191818652518092526040850193925b8281106123be57505050500390f35b8351855286955093810193928101926001016123af565b825484529286019260019283019201612381565b503461035d578060031936011261035d576020601154604051908152f35b503461035d57604036600319011261035d57612421613be7565b336001600160a01b0382160361243d57610bec906004356143b1565b60405163334bd91960e11b8152600490fd5b503461035d5761245e36613c2a565b61246f999896929997959197614255565b61247a861515613f37565b60648811612a185780156129e357612493601054613f28565b97886010556040519a6124a58c613d0c565b898c526124b336898b613f8e565b60208d01526124c3368587613f8e565b60408d01526124d3368789613f8e565b60608d015260808c015260a08b015260c08a01524260e08a0152426101008a0152336101208a0152876101408a015260016101608a0152868852600660205260408820978951895560208a01518051906001600160401b03821161283957819061254060018d0154613c9b565b601f8111612992575b50602090601f8311600114612923578492612918575b50508160011b916000199060031b1c19161760018a01555b60408a01518051906001600160401b03821161283957819061259c60028d0154613c9b565b601f81116128c7575b50602090601f831160011461285857849261284d575b50508160011b916000199060031b1c19161760028a01555b60608a01519889519a6001600160401b038c11612839576125f76003830154613c9b565b9b601f8d116127f0575b60209c508c601f8211600114612744576040856126ee8e9f968f947f62f4cf9261ab66e01e192da00f389f6f180e7e894cead72c3c018f50eff5ae619f9e9d9b9861272e9d9b98886126fc99600b94610160946127209f92612739575b50508160011b916000199060031b1c19161760038501555b6080810151600485015560a0810151600585015560c0810151600685015560e0810151600785015561010081015160088501556009840160018060a01b03610120830151166001600160601b0360a01b825416179055610140810151600a8501550151151591019060ff801983541691151516179055565b3381528f600b905220613fc5565b61271360405198899860608a5260608a0191613ffa565b918783038d890152613ffa565b918483036040860152613ffa565b0390a2604051908152f35b01519050388061265e565b6003840185528d85209c855b601f19841681106127d95750612720956126ee8e9f968f947f62f4cf9261ab66e01e192da00f389f6f180e7e894cead72c3c018f50eff5ae619f9e9d9b9861272e9d9b9860018961016093600b9560409a6126fc9d601f198116106127c0575b505050811b016003850155612676565b015160001960f88460031b161c191690553880806127b0565b828201518f556001909e019d918f01918f01612750565b60038301845260208420601f820160051c810160208310612832575b601f8f5b0160051c82018110612823575050612601565b60008155600101601f8f612810565b508061280c565b634e487b7160e01b83526041600452602483fd5b0151905038806125bb565b925060028c018452602084209084935b601f19841685106128ac576001945083601f19811610612893575b505050811b0160028a01556125d3565b015160001960f88460031b161c19169055388080612883565b81810151835560209485019460019093019290910190612868565b90915060028c01845260208420601f840160051c810160208510612911575b90849392915b601f830160051c820181106129025750506125a5565b600081558594506001016128ec565b50806128e6565b01519050388061255f565b925060018c018452602084209084935b601f1984168510612977576001945083601f1981161061295e575b505050811b0160018a0155612577565b015160001960f88460031b161c1916905538808061294e565b81810151835560209485019460019093019290910190612933565b90915060018c01845260208420601f840160051c8101602085106129dc575b90849392915b601f830160051c820181106129cd575050612549565b600081558594506001016129b7565b50806129b1565b60405162461bcd60e51b815260206004820152600d60248201526c12185cda081c995c5d5a5c9959609a1b6044820152606490fd5b60405162461bcd60e51b8152602060048201526012602482015271496e76616c696420636f6e666964656e636560701b6044820152606490fd5b503461035d578060031936011261035d576020601454604051908152f35b503461035d57604036600319011261035d57610bec600435612a90613be7565b9080845283602052612aa8600160408620015461430d565b614333565b503461035d57602036600319011261035d57600435808252600960205260408220612ae560018060a01b03600283015416331461401b565b6006810160018154612afa60ff821615614053565b60ff1916179055426007820155338352600a602052612b4960036040852092336001600160601b0360a01b8554161784550154612b3c60028401918254613ed1565b8091556001830154614091565b600382015560054291015533907fcdd0b384a55e61f9ca37841639db58a4c46951b4c682e5dff49433fa15ecb7908380a380f35b503461035d57602036600319011261035d57600435612b9a614160565b6040516323b872dd60e01b81523360048201523060248201526044810182905290602082606481866001600160a01b037f0000000000000000000000000000000000000000000000000000000000000000165af1918215612c1357612c0992610d64918591610a9e5750613e93565b6013556001805580f35b6040513d85823e3d90fd5b503461035d57602036600319011261035d57600435612c3b6141f9565b8082526008602052600a6040832001805460ff81166008811015612cb957612c835760019060ff1916179055600080516020614427833981519152602060405160018152a280f35b60405162461bcd60e51b815260206004820152600e60248201526d496e76616c69642073746174757360901b6044820152606490fd5b634e487b7160e01b85526021600452602485fd5b503461035d57612cdc36613c2a565b92612cee989594919897969297614160565b612cf6614183565b612d01871515613f37565b87156132ef57600480546040516323b872dd60e01b8152339281019290925230602483015260448201526020816064818e6001600160a01b037f0000000000000000000000000000000000000000000000000000000000000000165af180156132e457612d74918c91610a9e5750613e93565b612d82600454601354613ed1565b601355612d90601154613f28565b988960115562015180908181029181830414901517156132d05790612dea612dbc612df6949342613ed1565b9460405197612dca89613cf0565b8c89523360208a0152612dde368c8c613f8e565b60408a01523691613f8e565b60608701523691613f8e565b60808401528560a08401528760c08401528760e084015261010083015261012082015285610140820152856101608201528561018082015284865260086020526040862090805182556001820160018060a01b036020830151166001600160601b0360a01b82541617905560408101518051906001600160401b038211613126578190612e866002860154613c9b565b601f811161327f575b50602090601f8311600114613210578a92613205575b50508160011b916000199060031b1c19161760028301555b60608101518051906001600160401b038211613126578190612ee26003860154613c9b565b601f81116131b4575b50602090601f8311600114613145578a9261313a575b50508160011b916000199060031b1c19161760038301555b60808101518051906001600160401b038211613126578190612f3e6004860154613c9b565b601f81116130d5575b50602090601f8311600114613066578a9261305b575b50508160011b916000199060031b1c19161760048301555b60a0810151600583015560c0810151600683015560e0810151600783015561010081015160088301556101208101516009830155600a820161014082015160088110156130475787604060209a829896600c610180613030987fa407e6458aaa974973b7b67cea73db5b7ca0198cad789426ebed0bdba7d07e509b9861301e9860ff80198354169116179055610160810151600b8501550151910155338152600c8c5220613fc5565b60405192604084526040840191613ffa565b93868201528033940390a360018055604051908152f35b634e487b7160e01b89526021600452602489fd5b015190503880612f5d565b9250600485018a5260208a20908a935b601f19841685106130ba576001945083601f198116106130a1575b505050811b016004830155612f75565b015160001960f88460031b161c19169055388080613091565b81810151835560209485019460019093019290910190613076565b909150600485018a5260208a20601f840160051c81016020851061311f575b90849392915b601f830160051c82018110613110575050612f47565b600081558594506001016130fa565b50806130f4565b634e487b7160e01b89526041600452602489fd5b015190503880612f01565b9250600385018a5260208a20908a935b601f1984168510613199576001945083601f19811610613180575b505050811b016003830155612f19565b015160001960f88460031b161c19169055388080613170565b81810151835560209485019460019093019290910190613155565b909150600385018a5260208a20601f840160051c8101602085106131fe575b90849392915b601f830160051c820181106131ef575050612eeb565b600081558594506001016131d9565b50806131d3565b015190503880612ea5565b9250600285018a5260208a20908a935b601f1984168510613264576001945083601f1981161061324b575b505050811b016002830155612ebd565b015160001960f88460031b161c1916905538808061323b565b81810151835560209485019460019093019290910190613220565b909150600285018a5260208a20601f840160051c8101602085106132c9575b90849392915b601f830160051c820181106132ba575050612e8f565b600081558594506001016132a4565b508061329e565b634e487b7160e01b8b52601160045260248bfd5b6040513d8d823e3d90fd5b60405162461bcd60e51b8152602060048201526015602482015274119d5b991a5b99c819dbd85b081c995c5d5a5c9959605a1b6044820152606490fd5b503461035d576020908160031936011261035d57613348614160565b613350614183565b600435815260068252604081209161336e60ff600b85015416613ede565b6003546040516323b872dd60e01b815233600482015230602482015260448101919091526001600160a01b037f00000000000000000000000000000000000000000000000000000000000000008116929091818160648188885af190811561102157906133e19186916135785750613e93565b60035490603c820291801592818104603c14841715613564576064900492601e820290828204601e141715613564578361342d613464936134286064879504978892613f1b565b613f1b565b60098a015460405163a9059cbb60e01b815297166001600160a01b0316600488015260248701919091529491829081906044820190565b038189895af1908115612290578691613547575b5015613503575061348b90601354613ed1565b601355813b15611d62578291602483926040519485938492630852cd8d60e31b845260048401525af18015610acd576134d7575b50600a82016134ce8154613f28565b90556001805580f35b6001600160401b0381116134ef57604052600a6134bf565b634e487b7160e01b82526041600452602482fd5b6064906040519062461bcd60e51b82526004820152601760248201527f43726561746f72207472616e73666572206661696c65640000000000000000006044820152fd5b61355e9150823d8411610ac657610ab88183613d44565b38613478565b634e487b7160e01b87526011600452602487fd5b610ac09150833d8511610ac657610ab88183613d44565b503461035d57602036600319011261035d576004356135ac6141a1565b8082526008602052600a6040832001805460ff81166008811015612cb9576005146135f75760079060ff1916179055600080516020614427833981519152602060405160078152a280f35b60405162461bcd60e51b815260206004820152601760248201527f43616e6e6f742063616e63656c20636f6d706c657465640000000000000000006044820152606490fd5b503461035d57602036600319011261035d57600160406020926004358152808452200154604051908152f35b503461035d57602036600319011261035d576136826141a1565b6004358152600660205260408120600b01805460ff1916905580f35b503461035d57602036600319011261035d5760c0906001600160a01b0390604090826136c8613bd1565b168152600a60205220908154169060018101549060028101546003820154906005600484015493015493604051958652602086015260408501526060840152608083015260a0820152f35b503461035d578060031936011261035d5760206040517f2dd255da36d14a405817851653012fc5c78128282643b1301816168707f425828152f35b503461035d578060031936011261035d5760206040517f5900cac08fdb1f8a387fbe1ff6d1e4da19e0525cf65e16a7c90dd86df70b513c8152f35b503461035d5760208060031936011261195a576004358252600781526040822080546001600160401b03811161095c5760405192939060056137cf82821b870186613d44565b81855285850190819484528684209084925b84841061388e575050505050604051928484019085855251809152604084019460408260051b8601019392955b82871061381b5785850386f35b90919293828061387e600193603f198a8203018652885161384d60c08251845285830151908087860152840190613b91565b9160408201516040820152606080830151908201526080808301519082015260a08092015191818403910152613b91565b960192019601959291909261380e565b60068960019260409b9a989b516138a481613cd5565b865481526138b3858801613d65565b838201526002870154604082015260038701546060820152600487015460808201526138e0868801613d65565b60a0820152815201930193019291979496976137e1565b503461035d57602036600319011261035d5760043563ffffffff60e01b811680910361195a57602090637965db0b60e01b811490811561393d575b506040519015158152f35b6301ffc9a760e01b14905082613932565b503461035d5761395d36613b76565b90613966614160565b61396e614183565b8083526020600881526040842090600a820160ff8154166008811015613b285760028114908115613b1d575b5015613ae9576040516323b872dd60e01b8152336004820152306024820152604481018690529282846064818a6001600160a01b037f0000000000000000000000000000000000000000000000000000000000000000165af1938415613ade577f6251418ffd7f504740544ec3d578897633e212c5d658b7dce793c5dc9d2e855e94613a2c918991613ac75750613e93565b600560068201613a3d888254613ed1565b8155613a4b88601354613ed1565b601355338952600a855260408920336001600160601b0360a01b82541617815560048101613a7a8a8254613ed1565b90558242910155549101541115613a9d575b506040519384523393a36001805580f35b600360ff19825416179055826000805160206144278339815191528260405160038152a238613a8c565b610ac09150853d8711610ac657610ab88183613d44565b6040513d89823e3d90fd5b60405162461bcd60e51b815260048101839052600c60248201526b139bdd08185c1c1c9bdd995960a21b6044820152606490fd5b60039150143861399a565b634e487b7160e01b87526021600452602487fd5b90503461195a578160031936011261195a57807f77689c22f8d2a5f5db035c9bcfad3bc899345e539dccd056c425bea4d162265360209252f35b6040906003190112613b8c576004359060243590565b600080fd5b919082519283825260005b848110613bbd575050826000602080949584010152601f8019910116010190565b602081830181015184830182015201613b9c565b600435906001600160a01b0382168203613b8c57565b602435906001600160a01b0382168203613b8c57565b9181601f84011215613b8c578235916001600160401b038311613b8c5760208381860195010111613b8c57565b9060c0600319830112613b8c576001600160401b03600435818111613b8c5783613c5691600401613bfd565b93909392602435838111613b8c5782613c7191600401613bfd565b93909392604435918211613b8c57613c8b91600401613bfd565b9091606435906084359060a43590565b90600182811c92168015613ccb575b6020831014613cb557565b634e487b7160e01b600052602260045260246000fd5b91607f1691613caa565b60c081019081106001600160401b03821117610fe057604052565b6101a081019081106001600160401b03821117610fe057604052565b61018081019081106001600160401b03821117610fe057604052565b61010081019081106001600160401b03821117610fe057604052565b90601f801991011681019081106001600160401b03821117610fe057604052565b90604051918260008254613d7881613c9b565b90818452602094600191600181169081600014613de85750600114613da9575b505050613da792500383613d44565b565b600090815285812095935091905b818310613dd0575050613da79350820101388080613d98565b85548884018501529485019487945091830191613db7565b92505050613da794925060ff191682840152151560051b820101388080613d98565b9060088210156106935752565b8054821015613e33576000526006602060002091020190600090565b634e487b7160e01b600052603260045260246000fd5b8054821015613e335760005260206000200190600090565b6060906003190112613b8c57600435906024359060443590565b90816020910312613b8c57518015158103613b8c5790565b15613e9a57565b60405162461bcd60e51b815260206004820152600f60248201526e151c985b9cd9995c8819985a5b1959608a1b6044820152606490fd5b9190820180921161102c57565b15613ee557565b60405162461bcd60e51b815260206004820152600e60248201526d4d6f64656c20696e61637469766560901b6044820152606490fd5b9190820391821161102c57565b600019811461102c5760010190565b15613f3e57565b60405162461bcd60e51b815260206004820152600d60248201526c13985b59481c995c5d5a5c9959609a1b6044820152606490fd5b6001600160401b038111610fe057601f01601f191660200190565b929192613f9a82613f73565b91613fa86040519384613d44565b829481845281830111613b8c578281602093846000960137010152565b8054600160401b811015610fe057613fe291600182018155613e49565b819291549060031b91821b91600019901b1916179055565b908060209392818452848401376000828201840152601f01601f1916010190565b1561402257565b60405162461bcd60e51b81526020600482015260096024820152682737ba1037bbb732b960b91b6044820152606490fd5b1561405a57565b60405162461bcd60e51b815260206004820152600f60248201526e105b1c9958591e481c995d1a5c9959608a1b6044820152606490fd5b8181039291600013801582851316918412161761102c57565b156140b157565b60405162461bcd60e51b815260206004820152600d60248201526c4e6f7420696e20766f74696e6760981b6044820152606490fd5b156140ed57565b60405162461bcd60e51b8152602060048201526011602482015270125b9d985b1a59081c9958da5c1a595b9d607a1b6044820152606490fd5b1561412d57565b60405162461bcd60e51b815260206004820152600b60248201526a16995c9bc8185b5bdd5b9d60aa1b6044820152606490fd5b600260015414614171576002600155565b604051633ee5aeb560e01b8152600490fd5b60ff6002541661418f57565b60405163d93c066560e01b8152600490fd5b3360009081527fad3228b676f7d3cd4284a5443f17f1962b36e491b30a40b2405849e597ba5fb5602052604081205460ff16156141db5750565b6044906040519063e2517d3f60e01b82523360048301526024820152fd5b3360009081527fe94a20ce27c75da61b5a6b6c508baf2ba9816ba23501b846efbe714bc008a4d760205260409020547f77689c22f8d2a5f5db035c9bcfad3bc899345e539dccd056c425bea4d16226539060ff16156141db5750565b3360009081527fbb3e7e49a5866512e2c8ea133f1b65b151986fa12388fe8d72bcbf662653c19360205260409020547f2dd255da36d14a405817851653012fc5c78128282643b1301816168707f425829060ff16156141db5750565b3360009081527f206d69cdfbb37d44d8f0ac8622a1d136818236f8bf09d539aa448c1dbb6a5a9760205260409020547f5900cac08fdb1f8a387fbe1ff6d1e4da19e0525cf65e16a7c90dd86df70b513c9060ff16156141db5750565b80600052600060205260406000203360005260205260ff60406000205416156141db5750565b9060009180835282602052604083209160018060a01b03169182845260205260ff604084205416156000146143ac57808352826020526040832082845260205260408320600160ff198254161790557f2f8788117e7eff1d82e926ec794901d17c78024a50270940304540a733656f0d339380a4600190565b505090565b9060009180835282602052604083209160018060a01b03169182845260205260ff6040842054166000146143ac5780835282602052604083208284526020526040832060ff1981541690557ff6391f5c32d9c69d2a47ea670b442974b53935d1edc7fd64eb21e047a839171b339380a460019056fe35872be4c2085eaf9ca9a10d056eefec79968f825846792411ede75f331e9392a2646970667358221220132e7811f08a30efead696acb0965196039fc8aaf0e29e6f231b03801bcd3f4564736f6c634300081600332f8788117e7eff1d82e926ec794901d17c78024a50270940304540a733656f0d",
  "linkReferences": {},
  "deployedLinkReferences": {}
}