{
  "_format": "hh-sol-artifact-1",
  "contractName": "KaiAgriculture",
  "sourceName": "contracts/pillars/KaiAgriculture.sol",
  "abi": [
    {
      "inputs": [
        {
          "internalType": "address",
          "name": "_kaiToken",
          "type": "address"
        },
        {
          "internalType": "address",
          "name": "admin",
          "type": "address"
        }
      ],
      "stateMutability": "nonpayable",
      "type": "constructor"
    },
    {
      "inputs": [],
      "name": "AccessControlBadConfirmation",
      "type": "error"
    },
    {
      "inputs": [
        {
          "internalType": "address",
          "name": "account",
          "type": "address"
        },
        {
          "internalType": "bytes32",
          "name": "neededRole",
          "type": "bytes32"
        }
      ],
      "name": "AccessControlUnauthorizedAccount",
      "type": "error"
    },
    {
      "inputs": [],
      "name": "EnforcedPause",
      "type": "error"
    },
    {
      "inputs": [],
      "name": "ExpectedPause",
      "type": "error"
    },
    {
      "inputs": [],
      "name": "ReentrancyGuardReentrantCall",
      "type": "error"
    },
    {
      "anonymous": false,
      "inputs": [
        {
          "indexed": true,
          "internalType": "uint256",
          "name": "certId",
          "type": "uint256"
        },
        {
          "indexed": true,
          "internalType": "address",
          "name": "farmer",
          "type": "address"
        },
        {
          "indexed": false,
          "internalType": "string",
          "name": "certificationType",
          "type": "string"
        }
      ],
      "name": "CertificateIssued",
      "type": "event"
    },
    {
      "anonymous": false,
      "inputs": [
        {
          "indexed": true,
          "internalType": "uint256",
          "name": "claimId",
          "type": "uint256"
        },
        {
          "indexed": true,
          "internalType": "address",
          "name": "farmer",
          "type": "address"
        },
        {
          "indexed": false,
          "internalType": "uint256",
          "name": "amount",
          "type": "uint256"
        }
      ],
      "name": "ClaimPaid",
      "type": "event"
    },
    {
      "anonymous": false,
      "inputs": [
        {
          "indexed": true,
          "internalType": "uint256",
          "name": "claimId",
          "type": "uint256"
        },
        {
          "indexed": true,
          "internalType": "uint256",
          "name": "policyId",
          "type": "uint256"
        },
        {
          "indexed": false,
          "internalType": "string",
          "name": "riskType",
          "type": "string"
        }
      ],
      "name": "ClaimSubmitted",
      "type": "event"
    },
    {
      "anonymous": false,
      "inputs": [
        {
          "indexed": true,
          "internalType": "uint256",
          "name": "claimId",
          "type": "uint256"
        },
        {
          "indexed": false,
          "internalType": "uint256",
          "name": "oracleData",
          "type": "uint256"
        }
      ],
      "name": "ClaimTriggered",
      "type": "event"
    },
    {
      "anonymous": false,
      "inputs": [
        {
          "indexed": true,
          "internalType": "address",
          "name": "farmer",
          "type": "address"
        },
        {
          "indexed": false,
          "internalType": "string",
          "name": "region",
          "type": "string"
        },
        {
          "indexed": false,
          "internalType": "uint256",
          "name": "farmSize",
          "type": "uint256"
        }
      ],
      "name": "FarmerRegistered",
      "type": "event"
    },
    {
      "anonymous": false,
      "inputs": [
        {
          "indexed": true,
          "internalType": "address",
          "name": "farmer",
          "type": "address"
        },
        {
          "indexed": false,
          "internalType": "uint256",
          "name": "complianceScore",
          "type": "uint256"
        }
      ],
      "name": "FarmerVerified",
      "type": "event"
    },
    {
      "anonymous": false,
      "inputs": [
        {
          "indexed": false,
          "internalType": "address",
          "name": "account",
          "type": "address"
        }
      ],
      "name": "Paused",
      "type": "event"
    },
    {
      "anonymous": false,
      "inputs": [
        {
          "indexed": true,
          "internalType": "uint256",
          "name": "policyId",
          "type": "uint256"
        },
        {
          "indexed": true,
          "internalType": "address",
          "name": "farmer",
          "type": "address"
        },
        {
          "indexed": false,
          "internalType": "uint256",
          "name": "premium",
          "type": "uint256"
        },
        {
          "indexed": false,
          "internalType": "uint256",
          "name": "coverage",
          "type": "uint256"
        }
      ],
      "name": "PolicyCreated",
      "type": "event"
    },
    {
      "anonymous": false,
      "inputs": [
        {
          "indexed": true,
          "internalType": "bytes32",
          "name": "role",
          "type": "bytes32"
        },
        {
          "indexed": true,
          "internalType": "bytes32",
          "name": "previousAdminRole",
          "type": "bytes32"
        },
        {
          "indexed": true,
          "internalType": "bytes32",
          "name": "newAdminRole",
          "type": "bytes32"
        }
      ],
      "name": "RoleAdminChanged",
      "type": "event"
    },
    {
      "anonymous": false,
      "inputs": [
        {
          "indexed": true,
          "internalType": "bytes32",
          "name": "role",
          "type": "bytes32"
        },
        {
          "indexed": true,
          "internalType": "address",
          "name": "account",
          "type": "address"
        },
        {
          "indexed": true,
          "internalType": "address",
          "name": "sender",
          "type": "address"
        }
      ],
      "name": "RoleGranted",
      "type": "event"
    },
    {
      "anonymous": false,
      "inputs": [
        {
          "indexed": true,
          "internalType": "bytes32",
          "name": "role",
          "type": "bytes32"
        },
        {
          "indexed": true,
          "internalType": "address",
          "name": "account",
          "type": "address"
        },
        {
          "indexed": true,
          "internalType": "address",
          "name": "sender",
          "type": "address"
        }
      ],
      "name": "RoleRevoked",
      "type": "event"
    },
    {
      "anonymous": false,
      "inputs": [
        {
          "indexed": false,
          "internalType": "address",
          "name": "account",
          "type": "address"
        }
      ],
      "name": "Unpaused",
      "type": "event"
    },
    {
      "inputs": [],
      "name": "DEFAULT_ADMIN_ROLE",
      "outputs": [
        {
          "internalType": "bytes32",
          "name": "",
          "type": "bytes32"
        }
      ],
      "stateMutability": "view",
      "type": "function"
    },
    {
      "inputs": [],
      "name": "ORACLE_ROLE",
      "outputs": [
        {
          "internalType": "bytes32",
          "name": "",
          "type": "bytes32"
        }
      ],
      "stateMutability": "view",
      "type": "function"
    },
    {
      "inputs": [],
      "name": "VERIFIER_ROLE",
      "outputs": [
        {
          "internalType": "bytes32",
          "name": "",
          "type": "bytes32"
        }
      ],
      "stateMutability": "view",
      "type": "function"
    },
    {
      "inputs": [],
      "name": "basePremiumRate",
      "outputs": [
        {
          "internalType": "uint256",
          "name": "",
          "type": "uint256"
        }
      ],
      "stateMutability": "view",
      "type": "function"
    },
    {
      "inputs": [],
      "name": "certificateCount",
      "outputs": [
        {
          "internalType": "uint256",
          "name": "",
          "type": "uint256"
        }
      ],
      "stateMutability": "view",
      "type": "function"
    },
    {
      "inputs": [
        {
          "internalType": "uint256",
          "name": "",
          "type": "uint256"
        }
      ],
      "name": "certificates",
      "outputs": [
        {
          "internalType": "uint256",
          "name": "id",
          "type": "uint256"
        },
        {
          "internalType": "address",
          "name": "farmer",
          "type": "address"
        },
        {
          "internalType": "string",
          "name": "certificationType",
          "type": "string"
        },
        {
          "internalType": "uint256",
          "name": "issuedAt",
          "type": "uint256"
        },
        {
          "internalType": "uint256",
          "name": "expiresAt",
          "type": "uint256"
        },
        {
          "internalType": "bytes32",
          "name": "evidenceHash",
          "type": "bytes32"
        },
        {
          "internalType": "bool",
          "name": "valid",
          "type": "bool"
        }
      ],
      "stateMutability": "view",
      "type": "function"
    },
    {
      "inputs": [],
      "name": "claimCooldown",
      "outputs": [
        {
          "internalType": "uint256",
          "name": "",
          "type": "uint256"
        }
      ],
      "stateMutability": "view",
      "type": "function"
    },
    {
      "inputs": [],
      "name": "claimCount",
      "outputs": [
        {
          "internalType": "uint256",
          "name": "",
          "type": "uint256"
        }
      ],
      "stateMutability": "view",
      "type": "function"
    },
    {
      "inputs": [
        {
          "internalType": "uint256",
          "name": "",
          "type": "uint256"
        }
      ],
      "name": "claims",
      "outputs": [
        {
          "internalType": "uint256",
          "name": "id",
          "type": "uint256"
        },
        {
          "internalType": "uint256",
          "name": "policyId",
          "type": "uint256"
        },
        {
          "internalType": "address",
          "name": "farmer",
          "type": "address"
        },
        {
          "internalType": "string",
          "name": "riskType",
          "type": "string"
        },
        {
          "internalType": "uint256",
          "name": "timestamp",
          "type": "uint256"
        },
        {
          "internalType": "uint256",
          "name": "oracleData",
          "type": "uint256"
        },
        {
          "internalType": "bool",
          "name": "triggered",
          "type": "bool"
        },
        {
          "internalType": "bool",
          "name": "paid",
          "type": "bool"
        },
        {
          "internalType": "uint256",
          "name": "payoutAmount",
          "type": "uint256"
        }
      ],
      "stateMutability": "view",
      "type": "function"
    },
    {
      "inputs": [
        {
          "internalType": "uint256",
          "name": "amount",
          "type": "uint256"
        }
      ],
      "name": "depositToPool",
      "outputs": [],
      "stateMutability": "nonpayable",
      "type": "function"
    },
    {
      "inputs": [],
      "name": "droughtThreshold",
      "outputs": [
        {
          "internalType": "uint256",
          "name": "",
          "type": "uint256"
        }
      ],
      "stateMutability": "view",
      "type": "function"
    },
    {
      "inputs": [
        {
          "internalType": "address",
          "name": "",
          "type": "address"
        },
        {
          "internalType": "uint256",
          "name": "",
          "type": "uint256"
        }
      ],
      "name": "farmerCertificates",
      "outputs": [
        {
          "internalType": "uint256",
          "name": "",
          "type": "uint256"
        }
      ],
      "stateMutability": "view",
      "type": "function"
    },
    {
      "inputs": [],
      "name": "farmerCount",
      "outputs": [
        {
          "internalType": "uint256",
          "name": "",
          "type": "uint256"
        }
      ],
      "stateMutability": "view",
      "type": "function"
    },
    {
      "inputs": [
        {
          "internalType": "address",
          "name": "",
          "type": "address"
        },
        {
          "internalType": "uint256",
          "name": "",
          "type": "uint256"
        }
      ],
      "name": "farmerPolicies",
      "outputs": [
        {
          "internalType": "uint256",
          "name": "",
          "type": "uint256"
        }
      ],
      "stateMutability": "view",
      "type": "function"
    },
    {
      "inputs": [
        {
          "internalType": "address",
          "name": "",
          "type": "address"
        }
      ],
      "name": "farmers",
      "outputs": [
        {
          "internalType": "address",
          "name": "wallet",
          "type": "address"
        },
        {
          "internalType": "string",
          "name": "region",
          "type": "string"
        },
        {
          "internalType": "uint256",
          "name": "farmSize",
          "type": "uint256"
        },
        {
          "internalType": "uint256",
          "name": "registeredAt",
          "type": "uint256"
        },
        {
          "internalType": "bool",
          "name": "verified",
          "type": "bool"
        },
        {
          "internalType": "uint256",
          "name": "complianceScore",
          "type": "uint256"
        },
        {
          "internalType": "uint256",
          "name": "totalClaims",
          "type": "uint256"
        },
        {
          "internalType": "uint256",
          "name": "totalPayouts",
          "type": "uint256"
        }
      ],
      "stateMutability": "view",
      "type": "function"
    },
    {
      "inputs": [],
      "name": "floodThreshold",
      "outputs": [
        {
          "internalType": "uint256",
          "name": "",
          "type": "uint256"
        }
      ],
      "stateMutability": "view",
      "type": "function"
    },
    {
      "inputs": [
        {
          "internalType": "uint256",
          "name": "certId",
          "type": "uint256"
        }
      ],
      "name": "getCertificate",
      "outputs": [
        {
          "components": [
            {
              "internalType": "uint256",
              "name": "id",
              "type": "uint256"
            },
            {
              "internalType": "address",
              "name": "farmer",
              "type": "address"
            },
            {
              "internalType": "string",
              "name": "certificationType",
              "type": "string"
            },
            {
              "internalType": "uint256",
              "name": "issuedAt",
              "type": "uint256"
            },
            {
              "internalType": "uint256",
              "name": "expiresAt",
              "type": "uint256"
            },
            {
              "internalType": "bytes32",
              "name": "evidenceHash",
              "type": "bytes32"
            },
            {
              "internalType": "bool",
              "name": "valid",
              "type": "bool"
            }
          ],
          "internalType": "struct KaiAgriculture.ComplianceCertificate",
          "name": "",
          "type": "tuple"
        }
      ],
      "stateMutability": "view",
      "type": "function"
    },
    {
      "inputs": [
        {
          "internalType": "uint256",
          "name": "claimId",
          "type": "uint256"
        }
      ],
      "name": "getClaim",
      "outputs": [
        {
          "components": [
            {
              "internalType": "uint256",
              "name": "id",
              "type": "uint256"
            },
            {
              "internalType": "uint256",
              "name": "policyId",
              "type": "uint256"
            },
            {
              "internalType": "address",
              "name": "farmer",
              "type": "address"
            },
            {
              "internalType": "string",
              "name": "riskType",
              "type": "string"
            },
            {
              "internalType": "uint256",
              "name": "timestamp",
              "type": "uint256"
            },
            {
              "internalType": "uint256",
              "name": "oracleData",
              "type": "uint256"
            },
            {
              "internalType": "bool",
              "name": "triggered",
              "type": "bool"
            },
            {
              "internalType": "bool",
              "name": "paid",
              "type": "bool"
            },
            {
              "internalType": "uint256",
              "name": "payoutAmount",
              "type": "uint256"
            }
          ],
          "internalType": "struct KaiAgriculture.Claim",
          "name": "",
          "type": "tuple"
        }
      ],
      "stateMutability": "view",
      "type": "function"
    },
    {
      "inputs": [
        {
          "internalType": "address",
          "name": "farmerAddr",
          "type": "address"
        }
      ],
      "name": "getFarmer",
      "outputs": [
        {
          "components": [
            {
              "internalType": "address",
              "name": "wallet",
              "type": "address"
            },
            {
              "internalType": "string",
              "name": "region",
              "type": "string"
            },
            {
              "internalType": "uint256",
              "name": "farmSize",
              "type": "uint256"
            },
            {
              "internalType": "uint256",
              "name": "registeredAt",
              "type": "uint256"
            },
            {
              "internalType": "bool",
              "name": "verified",
              "type": "bool"
            },
            {
              "internalType": "uint256",
              "name": "complianceScore",
              "type": "uint256"
            },
            {
              "internalType": "uint256",
              "name": "totalClaims",
              "type": "uint256"
            },
            {
              "internalType": "uint256",
              "name": "totalPayouts",
              "type": "uint256"
            }
          ],
          "internalType": "struct KaiAgriculture.Farmer",
          "name": "",
          "type": "tuple"
        }
      ],
      "stateMutability": "view",
      "type": "function"
    },
    {
      "inputs": [
        {
          "internalType": "address",
          "name": "farmerAddr",
          "type": "address"
        }
      ],
      "name": "getFarmerCertificates",
      "outputs": [
        {
          "internalType": "uint256[]",
          "name": "",
          "type": "uint256[]"
        }
      ],
      "stateMutability": "view",
      "type": "function"
    },
    {
      "inputs": [
        {
          "internalType": "address",
          "name": "farmerAddr",
          "type": "address"
        }
      ],
      "name": "getFarmerPolicies",
      "outputs": [
        {
          "internalType": "uint256[]",
          "name": "",
          "type": "uint256[]"
        }
      ],
      "stateMutability": "view",
      "type": "function"
    },
    {
      "inputs": [
        {
          "internalType": "uint256",
          "name": "policyId",
          "type": "uint256"
        }
      ],
      "name": "getPolicy",
      "outputs": [
        {
          "components": [
            {
              "internalType": "uint256",
              "name": "id",
              "type": "uint256"
            },
            {
              "internalType": "address",
              "name": "farmer",
              "type": "address"
            },
            {
              "internalType": "uint256",
              "name": "premium",
              "type": "uint256"
            },
            {
              "internalType": "uint256",
              "name": "coverage",
              "type": "uint256"
            },
            {
              "internalType": "uint256",
              "name": "startTime",
              "type": "uint256"
            },
            {
              "internalType": "uint256",
              "name": "endTime",
              "type": "uint256"
            },
            {
              "internalType": "string[]",
              "name": "coveredRisks",
              "type": "string[]"
            },
            {
              "internalType": "bool",
              "name": "active",
              "type": "bool"
            },
            {
              "internalType": "uint256",
              "name": "claimsMade",
              "type": "uint256"
            }
          ],
          "internalType": "struct KaiAgriculture.InsurancePolicy",
          "name": "",
          "type": "tuple"
        }
      ],
      "stateMutability": "view",
      "type": "function"
    },
    {
      "inputs": [
        {
          "internalType": "bytes32",
          "name": "role",
          "type": "bytes32"
        }
      ],
      "name": "getRoleAdmin",
      "outputs": [
        {
          "internalType": "bytes32",
          "name": "",
          "type": "bytes32"
        }
      ],
      "stateMutability": "view",
      "type": "function"
    },
    {
      "inputs": [
        {
          "internalType": "bytes32",
          "name": "role",
          "type": "bytes32"
        },
        {
          "internalType": "address",
          "name": "account",
          "type": "address"
        }
      ],
      "name": "grantRole",
      "outputs": [],
      "stateMutability": "nonpayable",
      "type": "function"
    },
    {
      "inputs": [
        {
          "internalType": "bytes32",
          "name": "role",
          "type": "bytes32"
        },
        {
          "internalType": "address",
          "name": "account",
          "type": "address"
        }
      ],
      "name": "hasRole",
      "outputs": [
        {
          "internalType": "bool",
          "name": "",
          "type": "bool"
        }
      ],
      "stateMutability": "view",
      "type": "function"
    },
    {
      "inputs": [],
      "name": "insurancePool",
      "outputs": [
        {
          "internalType": "uint256",
          "name": "",
          "type": "uint256"
        }
      ],
      "stateMutability": "view",
      "type": "function"
    },
    {
      "inputs": [
        {
          "internalType": "address",
          "name": "farmerAddr",
          "type": "address"
        },
        {
          "internalType": "string",
          "name": "certificationType",
          "type": "string"
        },
        {
          "internalType": "uint256",
          "name": "validDays",
          "type": "uint256"
        },
        {
          "internalType": "bytes32",
          "name": "evidenceHash",
          "type": "bytes32"
        }
      ],
      "name": "issueCertificate",
      "outputs": [
        {
          "internalType": "uint256",
          "name": "",
          "type": "uint256"
        }
      ],
      "stateMutability": "nonpayable",
      "type": "function"
    },
    {
      "inputs": [],
      "name": "kaiToken",
      "outputs": [
        {
          "internalType": "contract KaiToken",
          "name": "",
          "type": "address"
        }
      ],
      "stateMutability": "view",
      "type": "function"
    },
    {
      "inputs": [],
      "name": "maxCoverageMultiplier",
      "outputs": [
        {
          "internalType": "uint256",
          "name": "",
          "type": "uint256"
        }
      ],
      "stateMutability": "view",
      "type": "function"
    },
    {
      "inputs": [],
      "name": "pause",
      "outputs": [],
      "stateMutability": "nonpayable",
      "type": "function"
    },
    {
      "inputs": [],
      "name": "paused",
      "outputs": [
        {
          "internalType": "bool",
          "name": "",
          "type": "bool"
        }
      ],
      "stateMutability": "view",
      "type": "function"
    },
    {
      "inputs": [
        {
          "internalType": "uint256",
          "name": "",
          "type": "uint256"
        }
      ],
      "name": "policies",
      "outputs": [
        {
          "internalType": "uint256",
          "name": "id",
          "type": "uint256"
        },
        {
          "internalType": "address",
          "name": "farmer",
          "type": "address"
        },
        {
          "internalType": "uint256",
          "name": "premium",
          "type": "uint256"
        },
        {
          "internalType": "uint256",
          "name": "coverage",
          "type": "uint256"
        },
        {
          "internalType": "uint256",
          "name": "startTime",
          "type": "uint256"
        },
        {
          "internalType": "uint256",
          "name": "endTime",
          "type": "uint256"
        },
        {
          "internalType": "bool",
          "name": "active",
          "type": "bool"
        },
        {
          "internalType": "uint256",
          "name": "claimsMade",
          "type": "uint256"
        }
      ],
      "stateMutability": "view",
      "type": "function"
    },
    {
      "inputs": [],
      "name": "policyCount",
      "outputs": [
        {
          "internalType": "uint256",
          "name": "",
          "type": "uint256"
        }
      ],
      "stateMutability": "view",
      "type": "function"
    },
    {
      "inputs": [
        {
          "internalType": "uint256",
          "name": "coverageAmount",
          "type": "uint256"
        },
        {
          "internalType": "uint256",
          "name": "durationDays",
          "type": "uint256"
        },
        {
          "internalType": "string[]",
          "name": "risks",
          "type": "string[]"
        }
      ],
      "name": "purchaseInsurance",
      "outputs": [
        {
          "internalType": "uint256",
          "name": "",
          "type": "uint256"
        }
      ],
      "stateMutability": "nonpayable",
      "type": "function"
    },
    {
      "inputs": [
        {
          "internalType": "string",
          "name": "region",
          "type": "string"
        },
        {
          "internalType": "uint256",
          "name": "farmSize",
          "type": "uint256"
        }
      ],
      "name": "registerFarmer",
      "outputs": [],
      "stateMutability": "nonpayable",
      "type": "function"
    },
    {
      "inputs": [
        {
          "internalType": "bytes32",
          "name": "role",
          "type": "bytes32"
        },
        {
          "internalType": "address",
          "name": "callerConfirmation",
          "type": "address"
        }
      ],
      "name": "renounceRole",
      "outputs": [],
      "stateMutability": "nonpayable",
      "type": "function"
    },
    {
      "inputs": [
        {
          "internalType": "uint256",
          "name": "certId",
          "type": "uint256"
        }
      ],
      "name": "revokeCertificate",
      "outputs": [],
      "stateMutability": "nonpayable",
      "type": "function"
    },
    {
      "inputs": [
        {
          "internalType": "bytes32",
          "name": "role",
          "type": "bytes32"
        },
        {
          "internalType": "address",
          "name": "account",
          "type": "address"
        }
      ],
      "name": "revokeRole",
      "outputs": [],
      "stateMutability": "nonpayable",
      "type": "function"
    },
    {
      "inputs": [
        {
          "internalType": "uint256",
          "name": "rate",
          "type": "uint256"
        }
      ],
      "name": "setBasePremiumRate",
      "outputs": [],
      "stateMutability": "nonpayable",
      "type": "function"
    },
    {
      "inputs": [
        {
          "internalType": "uint256",
          "name": "drought",
          "type": "uint256"
        },
        {
          "internalType": "uint256",
          "name": "flood",
          "type": "uint256"
        },
        {
          "internalType": "uint256",
          "name": "temperature",
          "type": "uint256"
        }
      ],
      "name": "setThresholds",
      "outputs": [],
      "stateMutability": "nonpayable",
      "type": "function"
    },
    {
      "inputs": [
        {
          "internalType": "uint256",
          "name": "policyId",
          "type": "uint256"
        },
        {
          "internalType": "string",
          "name": "riskType",
          "type": "string"
        }
      ],
      "name": "submitClaim",
      "outputs": [
        {
          "internalType": "uint256",
          "name": "",
          "type": "uint256"
        }
      ],
      "stateMutability": "nonpayable",
      "type": "function"
    },
    {
      "inputs": [
        {
          "internalType": "bytes4",
          "name": "interfaceId",
          "type": "bytes4"
        }
      ],
      "name": "supportsInterface",
      "outputs": [
        {
          "internalType": "bool",
          "name": "",
          "type": "bool"
        }
      ],
      "stateMutability": "view",
      "type": "function"
    },
    {
      "inputs": [],
      "name": "temperatureThreshold",
      "outputs": [
        {
          "internalType": "uint256",
          "name": "",
          "type": "uint256"
        }
      ],
      "stateMutability": "view",
      "type": "function"
    },
    {
      "inputs": [],
      "name": "totalClaimsPaid",
      "outputs": [
        {
          "internalType": "uint256",
          "name": "",
          "type": "uint256"
        }
      ],
      "stateMutability": "view",
      "type": "function"
    },
    {
      "inputs": [],
      "name": "totalPremiumsCollected",
      "outputs": [
        {
          "internalType": "uint256",
          "name": "",
          "type": "uint256"
        }
      ],
      "stateMutability": "view",
      "type": "function"
    },
    {
      "inputs": [
        {
          "internalType": "uint256",
          "name": "claimId",
          "type": "uint256"
        },
        {
          "internalType": "uint256",
          "name": "oracleData",
          "type": "uint256"
        }
      ],
      "name": "triggerClaim",
      "outputs": [],
      "stateMutability": "nonpayable",
      "type": "function"
    },
    {
      "inputs": [],
      "name": "unpause",
      "outputs": [],
      "stateMutability": "nonpayable",
      "type": "function"
    },
    {
      "inputs": [
        {
          "internalType": "address",
          "name": "farmerAddr",
          "type": "address"
        },
        {
          "internalType": "uint256",
          "name": "complianceScore",
          "type": "uint256"
        }
      ],
      "name": "verifyFarmer",
      "outputs": [],
      "stateMutability": "nonpayable",
      "type": "function"
    }
  ],
  "bytecode": "0x60a0346200016757601f620035c738819003918201601f19168301916001600160401b038311848410176200016c57808492604094855283398101031262000167576200005a6020620000528362000182565b920162000182565b600180556101f4600355600a60045562093a80600555601e60065560c860075560286008556001600160a01b039182169182156200013257811615620000fd57620000c091608052620000ad8162000197565b50620000b98162000217565b50620002b9565b506040516132509081620003578239608051818181610a5a01528181610cd801528181611a3b01528181612076015281816120ee01526121390152f35b60405162461bcd60e51b815260206004820152600d60248201526c24b73b30b634b21030b236b4b760991b6044820152606490fd5b60405162461bcd60e51b815260206004820152600d60248201526c24b73b30b634b2103a37b5b2b760991b6044820152606490fd5b600080fd5b634e487b7160e01b600052604160045260246000fd5b51906001600160a01b03821682036200016757565b6001600160a01b031660008181527fad3228b676f7d3cd4284a5443f17f1962b36e491b30a40b2405849e597ba5fb5602052604081205490919060ff166200021357818052816020526040822081835260205260408220600160ff198254161790553391600080516020620035a78339815191528180a4600190565b5090565b6001600160a01b031660008181527fa629f6981c2f6895a67dc766e8e03ff72d04a413d0d8773a3ca56e9e474032c160205260408120549091907f68e79a7bf1e0bc45d0a330c573bc367f9cf464fd326078812f301165fbda4ef19060ff16620002b457808352826020526040832082845260205260408320600160ff19825416179055600080516020620035a7833981519152339380a4600190565b505090565b6001600160a01b031660008181527f1da0b5176dfe03406af5a6eed66ca01dda9b45ac4da671c3fa379cb93717ef8160205260408120549091907f0ce23c3e399818cfee81a7ab0880f714e53d7672b08df0fa62f2843416e1ea099060ff16620002b457808352826020526040832082845260205260408320600160ff19825416179055600080516020620035a7833981519152339380a460019056fe608080604052600436101561001357600080fd5b600090813560e01c90816301ffc9a714612bc95750806306f5497e14612b4457806307e2cea514612b095780630afee09f14612743578063238c963014611efc578063248a9ca314611ed05780632b07fce314611ce45780632f2ff15d14611ca757806336568abe14611c5f5780633aa13f49146118425780633dadde20146118245780633f4ba83a146117b9578063401b21681461170357806345b465251461127857806351640fee1461116057806352d7b89c1461114257806354366ac2146110445780635aef244714610eec5780635c975abb14610ec95780636532ccf514610eab578063663b3e2214610e0b5780636664013f14610d9857806368b0e07014610c8357806375f8905114610c3b57806377c17b9814610c1d5780638106ab3f14610bff5780638456cb5914610ba45780638b67ce4e14610b755780638da4d3c914610b5757806391d1485414610b0c5780639339dd5d14610a895780639bcfdfc014610a445780639d6e974114610a26578063a217fddf14610a0a578063a888c2cd14610950578063ab2adc0014610932578063ac5f086314610914578063b7bf57dd146108b3578063bd45b39714610895578063d3e8948314610810578063d547741f146107cf578063de54d429146107b1578063e284097514610793578063e7609c1614610655578063e7705db61461061a578063ecbc05e5146105c4578063f06facd4146102515763fdea36571461023157600080fd5b3461024e578060031936011261024e576020600554604051908152f35b80fd5b503461024e57604036600319011261024e576004356001600160401b0381116105c057610282903690600401612c4f565b9061028b61310a565b8115610589576024351561054f57338352600960205260408320546001600160a01b03908116610515576040516102c181612dd9565b3381526102cf368585613067565b6020820190815260243560408301524260608301528560808301528560a08301528560c08301528560e0830152338652600960205260408620928251166001600160601b0360a01b845416178355518051906001600160401b0382116105015761033c6001850154612cbc565b601f81116104c3575b50602090601f831160011461042b577f9e6c0ba7b243f2832f486b0f05ab87adc71f805a3ed13de7d41274c0fd9e220195938361040e969460079460e0948c92610420575b50508160011b916000199060031b1c19161760018501555b60408101516002850155606081015160038501556103d560808201511515600486019060ff801983541691151516179055565b60a0810151600585015560c0810151600685015501519101556103f9600f546130c4565b600f55604051936040855260408501916130e9565b9160243560208201528033930390a280f35b01519050388061038a565b906001850188526020882091885b601f19851681106104ab57509360018460079460e0947f9e6c0ba7b243f2832f486b0f05ab87adc71f805a3ed13de7d41274c0fd9e22019a9861040e9a98601f19811610610492575b505050811b0160018501556103a2565b015160001960f88460031b161c19169055388080610482565b91926020600181928685015181550194019201610439565b6104f19060018601895260208920601f850160051c810191602086106104f7575b601f0160051c01906130ad565b38610345565b90915081906104e4565b634e487b7160e01b87526041600452602487fd5b60405162461bcd60e51b8152602060048201526012602482015271105b1c9958591e481c9959da5cdd195c995960721b6044820152606490fd5b60405162461bcd60e51b815260206004820152601260248201527111985c9b481cda5e99481c995c5d5a5c995960721b6044820152606490fd5b60405162461bcd60e51b815260206004820152600f60248201526e149959da5bdb881c995c5d5a5c9959608a1b6044820152606490fd5b5080fd5b503461024e57604036600319011261024e576105de612c1e565b6001600160a01b03168152600e602052604081208054602435929083101561024e57602061060c8484612e6c565b90546040519160031b1c8152f35b503461024e578060031936011261024e5760206040517f0ce23c3e399818cfee81a7ab0880f714e53d7672b08df0fa62f2843416e1ea098152f35b503461024e576020806003193601126105c0576040610672612c1e565b928060e0835161068181612dd9565b82815260608682015282858201528260608201528260808201528260a08201528260c0820152015260018060a01b0380941681526009835220604051916106c783612dd9565b838254168352604051906106e9826106e28160018701612cf6565b0383612e10565b808401918252600283015492604085019384526003810154926060860193845260ff60048301541660808701901515815260058301549160a08801928352600760068501549460c08a0195865201549460e08901958652604051998a99828b525116908901525194610769610100968760408b01526101208a0190612c7c565b9651606089015251608088015251151560a08701525160c08601525160e085015251908301520390f35b503461024e578060031936011261024e576020600754604051908152f35b503461024e578060031936011261024e576020601054604051908152f35b503461024e57604036600319011261024e5761080c6004356107ef612c39565b90808452836020526108076001604086200154612f4e565b612ff2565b5080f35b503461024e57602036600319011261024e576040610100916004358152600a6020522080549060018060a01b036001820154169060028101546003820154600483015490600584015492600860ff60078701541695015495604051978852602088015260408701526060860152608085015260a0840152151560c083015260e0820152f35b503461024e578060031936011261024e576020600f54604051908152f35b503461024e57602036600319011261024e576004356108d0612f14565b6107d081116108df5760035580f35b60405162461bcd60e51b815260206004820152600d60248201526c0a4c2e8ca40e8dede40d0d2ced609b1b6044820152606490fd5b503461024e578060031936011261024e576020600654604051908152f35b503461024e578060031936011261024e576020601354604051908152f35b503461024e57602036600319011261024e576040906004358152600b60205220805460018201549160018060a01b0360028201541660ff604051926109a38461099c8160038501612cf6565b0385612e10565b6004810154936109e06005830154916007600685015494015495604051998a998a5260208a015260408901526101208060608a0152880190612c7c565b94608087015260a0860152818116151560c086015260081c16151560e08401526101008301520390f35b503461024e578060031936011261024e57602090604051908152f35b503461024e578060031936011261024e576020600454604051908152f35b503461024e578060031936011261024e576040517f00000000000000000000000000000000000000000000000000000000000000006001600160a01b03168152602090f35b503461024e576020806003193601126105c0576001600160a01b03610aac612c1e565b168252600d815260408220916040518092808554928381520194835280832092905b828210610af557610af185610ae581890382612e10565b60405191829182612e31565b0390f35b835486529485019460019384019390910190610ace565b503461024e57604036600319011261024e576040610b28612c39565b91600435815280602052209060018060a01b0316600052602052602060ff604060002054166040519015158152f35b503461024e578060031936011261024e576020601154604051908152f35b503461024e57606036600319011261024e57610b8f612f14565b60043560065560243560075560443560085580f35b503461024e578060031936011261024e57610bbd612f14565b610bc561310a565b600160ff1960025416176002557f62e78cea01bee320cd4e420270b5ea74000d11b0c9f74754ebdbfc544b05a2586020604051338152a180f35b503461024e578060031936011261024e576020600854604051908152f35b503461024e578060031936011261024e576020600354604051908152f35b503461024e57604036600319011261024e57610c55612c1e565b6001600160a01b03168152600d602052604081208054602435929083101561024e57602061060c8484612e6c565b503461024e57602036600319011261024e57600435610ca06131f7565b8015610d61576040516323b872dd60e01b81523360048201523060248201526044810182905290602082606481866001600160a01b037f0000000000000000000000000000000000000000000000000000000000000000165af1918215610d5657610d1e92610d16918591610d28575b5061316d565b60135461313b565b6013556001805580f35b610d49915060203d8111610d4f575b610d418183612e10565b810190613155565b38610d10565b503d610d37565b6040513d85823e3d90fd5b60405162461bcd60e51b815260206004820152600f60248201526e105b5bdd5b9d081c995c5d5a5c9959608a1b6044820152606490fd5b503461024e576020806003193601126105c0576001600160a01b03610dbb612c1e565b168252600e815260408220916040518092808554928381520194835280832092905b828210610df457610af185610ae581890382612e10565b835486529485019460019384019390910190610ddd565b503461024e57602036600319011261024e576040906004358152600c60205220805460018060a01b0360018301541691604051610e5681610e4f8160028601612cf6565b0382612e10565b6003820154916004810154610e9060ff6006600585015494015416936040519788978852602088015260e0604088015260e0870190612c7c565b936060860152608085015260a0840152151560c08301520390f35b503461024e578060031936011261024e576020601554604051908152f35b503461024e578060031936011261024e57602060ff600254166040519015158152f35b503461024e576020908160031936011261024e576040805191610f0e83612dbd565b808352808484015280828401526060808401528060808401528060a08401528060c08401528060e084015280610100809401526004358152600b84522060405191610f5883612dbd565b81548352600182015484840190815260028301546001600160a01b0390811660408087019182525194919391610f9c86610f958160038501612cf6565b0387612e10565b606087019586526004810154956080880196875260058201549560a08901968752600683015493600760c08b019460ff87161515865260ff60e08d019760081c1615158752015496868b019788526040519b8c9b818d5251908c01525160408b015251166060890152519461101f610120968760808b01526101408a0190612c7c565b965160a08901525160c088015251151560e08701525115159085015251908301520390f35b503461024e57604036600319011261024e5761105e612c1e565b602435611069612e9a565b6064811161110d576001600160a01b0391821680845260096020526040842080549193909116156110d757817fea8fb419111481ddf23f46f716977ce4313705081e37049fda136377a3a6a92992600583600460209501600160ff198254161790550155604051908152a280f35b60405162461bcd60e51b815260206004820152600e60248201526d139bdd081c9959da5cdd195c995960921b6044820152606490fd5b60405162461bcd60e51b815260206004820152600d60248201526c496e76616c69642073636f726560981b6044820152606490fd5b503461024e578060031936011261024e576020601254604051908152f35b503461024e576020908160031936011261024e578060409160c0835161118581612d8c565b82815282868201526060858201528260608201528260808201528260a082015201526004358152600c835220604051906111be82612d8c565b8054825260018101546001600160a01b039081168484019081526040519290916111ef8461099c8160028601612cf6565b60408501938452611259600383015494606087019586526004840154926080880193845260ff600660058701549660a08b019788520154169560c089019615158752604051998a99818b5251908a0152511660408801525160e06060880152610100870190612c7c565b935160808601525160a08501525160c084015251151560e08301520390f35b503461024e57604036600319011261024e576024356001600160401b0381116105c0576112a9903690600401612c4f565b6112b16131f7565b6112b961310a565b6004358352600a6020526040832060018101549092906001600160a01b031633036116ca5760ff60078401541615611693576005830154421161165d578384600685018054915b828110611606575b505050156115ce5761131b6011546130c4565b928360115560405161132c81612dbd565b8481526004356020820152336040820152611348368585613067565b60608201524260808201528560a08201528560c08201528560e082015285610100820152848652600b602052604086209080518255602081015160018301556002820160018060a01b036040830151166001600160601b0360a01b82541617905560608101518051906001600160401b0382116115ba57918391889695936113d6600360209c970154612cbc565b601f8111611589575b508a90601f83116001146114e757946006946007610100604096868b976008977f986bd47df8b0575dd1df01d7421a82d6cf65ebca7a82bf72125827a742e20d8f9e9c6114cd9e926114dc575b50508160011b916000199060031b1c19161760038501555b6080810151600485015560a0810151600585015588840161147760c08301511515829060ff801983541691151516179055565b60e0820151815461ff001916901515881b61ff001617905501519101550180546114a0906130c4565b905533815260098a5220016114b581546130c4565b905560405191829188835260043596898401916130e9565b0390a360018055604051908152f35b01519050388061142c565b906003850187528b872091875b601f198516811061156f57509460076101006040966001876008977f986bd47df8b0575dd1df01d7421a82d6cf65ebca7a82bf72125827a742e20d8f9e9c9760069c6114cd9f9b601f19811610611556575b505050811b016003850155611444565b015160001960f88460031b161c19169055388080611546565b8183015184558c9a50600190930192918d01918d016114f4565b6115b4906003860188528c8820601f850160051c8101918e86106104f757601f0160051c01906130ad565b386113df565b634e487b7160e01b89526041600452602489fd5b60405162461bcd60e51b815260206004820152601060248201526f149a5cdac81b9bdd0818dbdd995c995960821b6044820152606490fd5b610e4f6116236116168385612e6c565b5060405192838092612cf6565b60208151910120611635368888613067565b602081519101201461164f5761164a906130c4565b611300565b505050506001388080611308565b60405162461bcd60e51b815260206004820152600e60248201526d141bdb1a58de48195e1c1a5c995960921b6044820152606490fd5b60405162461bcd60e51b815260206004820152600f60248201526e506f6c69637920696e61637469766560881b6044820152606490fd5b60405162461bcd60e51b81526020600482015260116024820152702737ba103837b634b1bc903437b63232b960791b6044820152606490fd5b503461024e57602036600319011261024e576001600160a01b03906040908261172a612c1e565b16815260096020522090815416604051916117538361174c8160018501612cf6565b0384612e10565b60028101549060038101549060ff600482015416600582015490600760068401549301549361179460405198899889526101008060208b0152890190612c7c565b95604088015260608701521515608086015260a085015260c084015260e08301520390f35b503461024e578060031936011261024e576117d2612f14565b60025460ff8116156118125760ff19166002557f5db9ee0a495bf2e6ff9c91a7834c1ba4fdd244a5e8aa4e537bd38aeae4b073aa6020604051338152a180f35b604051638dfc202b60e01b8152600490fd5b503461024e578060031936011261024e576020601454604051908152f35b503461024e57604036600319011261024e573360009081527fa629f6981c2f6895a67dc766e8e03ff72d04a413d0d8773a3ca56e9e474032c160209081526040909120546024803592600435927f68e79a7bf1e0bc45d0a330c573bc367f9cf464fd326078812f301165fbda4ef19060ff1615611c4257506118c26131f7565b828552600b81526040852093845415611c0d57600685019081549060ff8216611bd55760ff8260081c16611ba257806005880155600387017f0af31c13c38766644f3764dcdad277406a95f91da312e3c224eafb6b3d972c3b60405161192c81610e4f8186612cf6565b86815191012066191c9bdd59da1d60ca1b8760405161194a81612df5565b60078152015203611acf57506006548110155b61196a575b876001805580f35b837f08a9f9ff09b00b52b3f86646a878119c7cd42ca34f19155bb1f5cf3015acfb49916001889460ff1916178555604051908152a260018501548652600a825260036040872001549460135491868310611962576119ca87600294613148565b60135561010061ff00198254161790558560078201556119ec8660155461313b565b6015550160018060a01b03908181541687526009835260076040882001611a1487825461313b565b9055805460405163a9059cbb60e01b8152908316600482015293840186905282846044818a7f000000000000000000000000000000000000000000000000000000000000000087165af1938415611ac4577faf3c8fdd75d667f71d36d7840b8ef9086c516c9b047ad6a83a5a66151342123a94611a97918991611aad575061316d565b541693604051908152a338808080808080611962565b610d499150853d8711610d4f57610d418183612e10565b6040513d89823e3d90fd5b7f047f8b20cdd477958da94ae3831434dc6b3badf35dd1c7fe00890e1dafa6d639604051611b0181610e4f8186612cf6565b86815191012064199b1bdbd960da1b87604051611b1d81612df5565b60058152015203611b34575060075481101561195d565b610e4f611b687f9f28f2e41110b2e90412967141c08fc2fc72f0c1c15ff25d6a9a9794ad190d289260405192838092612cf6565b858151910120631a19585d60e21b86604051611b8381612df5565b60048152015203611b995760085481101561195d565b6032811161195d565b60405162461bcd60e51b815260048101859052600c818701526b105b1c9958591e481c185a5960a21b6044820152606490fd5b60405162461bcd60e51b81526004810185905260118187015270105b1c9958591e481d1c9a59d9d95c9959607a1b6044820152606490fd5b50600f6064926040519262461bcd60e51b845260048401528201526e10db185a5b481b9bdd08199bdd5b99608a1b6044820152fd5b826044916040519163e2517d3f60e01b8352336004840152820152fd5b503461024e57604036600319011261024e57611c79612c39565b336001600160a01b03821603611c955761080c90600435612ff2565b60405163334bd91960e11b8152600490fd5b503461024e57604036600319011261024e5761080c600435611cc7612c39565b9080845283602052611cdf6001604086200154612f4e565b612f74565b503461024e57602036600319011261024e5780610100604051611d0681612dbd565b8281528260208201528260408201528260608201528260808201528260a0820152606060c08201528260e082015201526004358152600a602052604081209060405191611d5283612dbd565b8054835260018101546001600160a01b03166020840152600281015460408401526003810154606084015260048101546080840152600581015460a0840152600681018054909290611da3816131ab565b93611db16040519586612e10565b81855282526020808320839186015b838310611eab575050505060c08401928352600860ff6007840154169260e08601931515845201546101008501908152604051936020855260a061014086019680516020880152600180831b0360208201511660408801526040810151606088015260608101516080880152608081015182880152015160c08601525192610120928360e087015284518097526101606020818801918960051b890101960191905b888210611e815750505084955051151561010085015251908301520390f35b909195602080611e9e60019361015f198c82030186528a51612c7c565b9801920192019091611e62565b600160208192604051611ec281610e4f8189612cf6565b815201920192019190611dc0565b503461024e57602036600319011261024e57600160406020926004358152808452200154604051908152f35b503461024e57606036600319011261024e576001600160401b036044351161024e5736602360443501121561024e576001600160401b03604435600401351161024e573660246044356004013560051b60443501011161024e57611f5e6131f7565b611f6661310a565b33815260096020526040812060ff6004820154161561270f57600435156126d657601e6024351015806126c8575b1561269057604435600401351561265a57602435606460243502046064146024351517156126465760046044350135600a818102918204900361263257606401806064116126325761201760056305f5e10061200d6101f49461200861016d60646024350204612008600354600435613128565b613128565b0493015483613128565b048082111561262b5761202991613148565b905b81156125f45761203d60045483613128565b600435116125b6576040516323b872dd60e01b815233600482015230602482015260448101839052602081606481856001600160a01b037f0000000000000000000000000000000000000000000000000000000000000000165af190811561257e57906120b091839161259d575061316d565b81605081020460500361258957606460508302046120da6120d18285613148565b9160135461313b565b6013556120e98360145461313b565b6014557f00000000000000000000000000000000000000000000000000000000000000006001600160a01b03163b156105c057604051630852cd8d60e31b815260048101919091528181602481837f00000000000000000000000000000000000000000000000000000000000000006001600160a01b03165af1801561257e57612553575b509061217b6010546130c4565b908160105562015180602435816024350204811460243515171561253f576121a790602435024261313b565b604051906121b482612dbd565b838252336020830152826040830152600435606083015242608083015260a08201526121e5604435600401356131ab565b6121f26040519182612e10565b60443560048101358252602401602082015b60246044356004013560051b604435010182106124f357505060c0820152600160e082015283610100820152828452600a6020526040842090805182556001820160018060a01b036020830151166001600160601b0360a01b82541617905560408101516002830155606081015160038301556080810151600483015560a0810151600583015560c0810151805190600160401b821161050157600684015482600686015580831061247a575b506020016006840187526020872087915b83831061234c576020888861230c8260408e8c60086101008e6122fa60e08201511515600786019060ff801983541691151516179055565b0151910155338152600d8752206131c2565b60405190815260043583820152817ff407f724dd5d2b7754fcbc405960f07c8da0a85e7f71948913fb2997e77bfc8660403393a360018055604051908152f35b80518051906001600160401b038211612466576123698454612cbc565b908b601f9283811161242e575b50508b60209284116001146123c1579280602093600196938796926123b6575b5050600019600383901b1c191690841b1785555b019201920191906122c2565b015190503880612396565b85905260208c2091908c5b601f1985168110612416575083602093600196938796938794601f198116106123fd575b505050811b0185556123aa565b015160001960f88460031b161c191690553880806123f0565b919260206001819286850151815501940192016123cc565b602082886124569452208480870160051c8201926020881061245d575b0160051c01906130ad565b8b38612376565b9250819261244b565b634e487b7160e01b8b52604160045260248bfd5b60068501885260208820908382015b81830181106124995750506122b1565b808a6124a760019354612cbc565b806124b5575b505001612489565b601f80821185146124cf57505050600081555b8a386124ad565b6124e99084845260208420920160051c82018583016130ad565b60008355556124c8565b81356001600160401b03811161253b57366043826044350101121561253b5760209161253083923690604460248282350101359181350101613067565b815201910190612204565b8780fd5b634e487b7160e01b84526011600452602484fd5b6001600160401b03811161256a576040523861216e565b634e487b7160e01b82526041600452602482fd5b6040513d84823e3d90fd5b634e487b7160e01b81526011600452602490fd5b610d49915060203d602011610d4f57610d418183612e10565b60405162461bcd60e51b815260206004820152601660248201527510dbdd995c9859d948195e18d959591cc81b1a5b5a5d60521b6044820152606490fd5b60405162461bcd60e51b815260206004820152600f60248201526e5072656d69756d20746f6f206c6f7760881b6044820152606490fd5b509061202b565b634e487b7160e01b83526011600452602483fd5b634e487b7160e01b82526011600452602482fd5b60405162461bcd60e51b815260206004820152600e60248201526d149a5cdadcc81c995c5d5a5c995960921b6044820152606490fd5b60405162461bcd60e51b815260206004820152601060248201526f24b73b30b634b210323ab930ba34b7b760811b6044820152606490fd5b5061016d6024351115611f94565b60405162461bcd60e51b815260206004820152601160248201527010dbdd995c9859d9481c995c5d5a5c9959607a1b6044820152606490fd5b60405162461bcd60e51b815260206004820152600c60248201526b139bdd081d995c9a599a595960a21b6044820152606490fd5b503461024e57608036600319011261024e5761275d612c1e565b6024356001600160401b038111612b055761277c903690600401612c4f565b90916044359261278a612e9a565b6001600160a01b03821685526009602052604085206004015460ff1615612aca578215612a95578315612a5c576127c26012546130c4565b93846012556201518080820291820403612a48576127e0904261313b565b91604051926127ee84612d8c565b8584526001600160a01b038216602085015261280b368685613067565b6040850152426060850152608084015260643560a0840152600160c0840152848652600c6020526040862092805184556001840160018060a01b036020830151166001600160601b0360a01b82541617905560408101518051906001600160401b0382116115ba579160209891889594936128896002890154612cbc565b601f8111612a17575b508a90601f8311600114612974578798600660c07fb7ff6cbe8f0282bf405f9ce3210be62c5620d39139a49186436e3f0fcc6a315a9a96866040978a9761292a976129409c92612969575b50508160011b916000199060031b1c19161760028501555b606081015160038501556080810151600485015560a081015160058501550151151591019060ff801983541691151516179055565b6001600160a01b0385168152600e8b52206131c2565b61295e60405192839289845260018060a01b031696898401916130e9565b0390a3604051908152f35b0151905038806128dd565b979291906002840185528b852098855b601f19841681106129fd575093600660c06040956001868d9e61292a977fb7ff6cbe8f0282bf405f9ce3210be62c5620d39139a49186436e3f0fcc6a315a9f9b6129409d9a601f198116106129e4575b505050811b0160028501556128f5565b015160001960f88460031b161c191690553880806129d4565b828201518b556001909a01998c9950918d01918d01612984565b612a429060028a0186528c8620601f850160051c8101918e86106104f757601f0160051c01906130ad565b38612892565b634e487b7160e01b86526011600452602486fd5b60405162461bcd60e51b8152602060048201526011602482015270111d5c985d1a5bdb881c995c5d5a5c9959607a1b6044820152606490fd5b60405162461bcd60e51b815260206004820152600d60248201526c151e5c19481c995c5d5a5c9959609a1b6044820152606490fd5b60405162461bcd60e51b815260206004820152601360248201527211985c9b595c881b9bdd081d995c9a599a5959606a1b6044820152606490fd5b8280fd5b503461024e578060031936011261024e5760206040517f68e79a7bf1e0bc45d0a330c573bc367f9cf464fd326078812f301165fbda4ef18152f35b503461024e57602036600319011261024e57600435612b61612e9a565b808252600c602052604082205415612b8c578152600c60205260408120600601805460ff1916905580f35b60405162461bcd60e51b815260206004820152601560248201527410d95c9d1a599a58d85d19481b9bdd08199bdd5b99605a1b6044820152606490fd5b9050346105c05760203660031901126105c05760043563ffffffff60e01b8116809103612b055760209250637965db0b60e01b8114908115612c0d575b5015158152f35b6301ffc9a760e01b14905038612c06565b600435906001600160a01b0382168203612c3457565b600080fd5b602435906001600160a01b0382168203612c3457565b9181601f84011215612c34578235916001600160401b038311612c345760208381860195010111612c3457565b919082519283825260005b848110612ca8575050826000602080949584010152601f8019910116010190565b602081830181015184830182015201612c87565b90600182811c92168015612cec575b6020831014612cd657565b634e487b7160e01b600052602260045260246000fd5b91607f1691612ccb565b9060009291805491612d0783612cbc565b918282526001938481169081600014612d695750600114612d29575b50505050565b90919394506000526020928360002092846000945b838610612d55575050505001019038808080612d23565b805485870183015294019385908201612d3e565b9294505050602093945060ff191683830152151560051b01019038808080612d23565b60e081019081106001600160401b03821117612da757604052565b634e487b7160e01b600052604160045260246000fd5b61012081019081106001600160401b03821117612da757604052565b61010081019081106001600160401b03821117612da757604052565b604081019081106001600160401b03821117612da757604052565b90601f801991011681019081106001600160401b03821117612da757604052565b6020908160408183019282815285518094520193019160005b828110612e58575050505090565b835185529381019392810192600101612e4a565b8054821015612e845760005260206000200190600090565b634e487b7160e01b600052603260045260246000fd5b3360009081527f1da0b5176dfe03406af5a6eed66ca01dda9b45ac4da671c3fa379cb93717ef8160205260409020547f0ce23c3e399818cfee81a7ab0880f714e53d7672b08df0fa62f2843416e1ea099060ff1615612ef65750565b6044906040519063e2517d3f60e01b82523360048301526024820152fd5b3360009081527fad3228b676f7d3cd4284a5443f17f1962b36e491b30a40b2405849e597ba5fb5602052604081205460ff1615612ef65750565b80600052600060205260406000203360005260205260ff6040600020541615612ef65750565b9060009180835282602052604083209160018060a01b03169182845260205260ff60408420541615600014612fed57808352826020526040832082845260205260408320600160ff198254161790557f2f8788117e7eff1d82e926ec794901d17c78024a50270940304540a733656f0d339380a4600190565b505090565b9060009180835282602052604083209160018060a01b03169182845260205260ff604084205416600014612fed5780835282602052604083208284526020526040832060ff1981541690557ff6391f5c32d9c69d2a47ea670b442974b53935d1edc7fd64eb21e047a839171b339380a4600190565b9291926001600160401b038211612da75760405191613090601f8201601f191660200184612e10565b829481845281830111612c34578281602093846000960137010152565b8181106130b8575050565b600081556001016130ad565b60001981146130d35760010190565b634e487b7160e01b600052601160045260246000fd5b908060209392818452848401376000828201840152601f01601f1916010190565b60ff6002541661311657565b60405163d93c066560e01b8152600490fd5b818102929181159184041417156130d357565b919082018092116130d357565b919082039182116130d357565b90816020910312612c3457518015158103612c345790565b1561317457565b60405162461bcd60e51b815260206004820152600f60248201526e151c985b9cd9995c8819985a5b1959608a1b6044820152606490fd5b6001600160401b038111612da75760051b60200190565b8054600160401b811015612da7576131df91600182018155612e6c565b819291549060031b91821b91600019901b1916179055565b600260015414613208576002600155565b604051633ee5aeb560e01b8152600490fdfea2646970667358221220ab302b6686ac29006a2fb6f53dedc6b9135763c514e1265bcd820f60e6927b6a64736f6c634300081400332f8788117e7eff1d82e926ec794901d17c78024a50270940304540a733656f0d",
  "linkReferences": {},
  "deployedLinkReferences": {}
}