{
  "_format": "hh-sol-artifact-1",
  "contractName": "KaiAgriculture",
  "sourceName": "contracts/pillars/KaiAgriculture.sol",
  "abi": [
    {
      "inputs": [
        {
          "internalType": "address",
          "name": "_kaiToken",
          "type": "address"
        },
        {
          "internalType": "address",
          "name": "admin",
          "type": "address"
        }
      ],
      "stateMutability": "nonpayable",
      "type": "constructor"
    },
    {
      "inputs": [],
      "name": "AccessControlBadConfirmation",
      "type": "error"
    },
    {
      "inputs": [
        {
          "internalType": "address",
          "name": "account",
          "type": "address"
        },
        {
          "internalType": "bytes32",
          "name": "neededRole",
          "type": "bytes32"
        }
      ],
      "name": "AccessControlUnauthorizedAccount",
      "type": "error"
    },
    {
      "inputs": [],
      "name": "EnforcedPause",
      "type": "error"
    },
    {
      "inputs": [],
      "name": "ExpectedPause",
      "type": "error"
    },
    {
      "inputs": [],
      "name": "ReentrancyGuardReentrantCall",
      "type": "error"
    },
    {
      "anonymous": false,
      "inputs": [
        {
          "indexed": true,
          "internalType": "uint256",
          "name": "certId",
          "type": "uint256"
        },
        {
          "indexed": true,
          "internalType": "address",
          "name": "farmer",
          "type": "address"
        },
        {
          "indexed": false,
          "internalType": "string",
          "name": "certificationType",
          "type": "string"
        }
      ],
      "name": "CertificateIssued",
      "type": "event"
    },
    {
      "anonymous": false,
      "inputs": [
        {
          "indexed": true,
          "internalType": "uint256",
          "name": "claimId",
          "type": "uint256"
        },
        {
          "indexed": true,
          "internalType": "address",
          "name": "farmer",
          "type": "address"
        },
        {
          "indexed": false,
          "internalType": "uint256",
          "name": "amount",
          "type": "uint256"
        }
      ],
      "name": "ClaimPaid",
      "type": "event"
    },
    {
      "anonymous": false,
      "inputs": [
        {
          "indexed": true,
          "internalType": "uint256",
          "name": "claimId",
          "type": "uint256"
        },
        {
          "indexed": true,
          "internalType": "uint256",
          "name": "policyId",
          "type": "uint256"
        },
        {
          "indexed": false,
          "internalType": "string",
          "name": "riskType",
          "type": "string"
        }
      ],
      "name": "ClaimSubmitted",
      "type": "event"
    },
    {
      "anonymous": false,
      "inputs": [
        {
          "indexed": true,
          "internalType": "uint256",
          "name": "claimId",
          "type": "uint256"
        },
        {
          "indexed": false,
          "internalType": "uint256",
          "name": "oracleData",
          "type": "uint256"
        }
      ],
      "name": "ClaimTriggered",
      "type": "event"
    },
    {
      "anonymous": false,
      "inputs": [
        {
          "indexed": true,
          "internalType": "address",
          "name": "farmer",
          "type": "address"
        },
        {
          "indexed": false,
          "internalType": "string",
          "name": "region",
          "type": "string"
        },
        {
          "indexed": false,
          "internalType": "uint256",
          "name": "farmSize",
          "type": "uint256"
        }
      ],
      "name": "FarmerRegistered",
      "type": "event"
    },
    {
      "anonymous": false,
      "inputs": [
        {
          "indexed": true,
          "internalType": "address",
          "name": "farmer",
          "type": "address"
        },
        {
          "indexed": false,
          "internalType": "uint256",
          "name": "complianceScore",
          "type": "uint256"
        }
      ],
      "name": "FarmerVerified",
      "type": "event"
    },
    {
      "anonymous": false,
      "inputs": [
        {
          "indexed": false,
          "internalType": "address",
          "name": "account",
          "type": "address"
        }
      ],
      "name": "Paused",
      "type": "event"
    },
    {
      "anonymous": false,
      "inputs": [
        {
          "indexed": true,
          "internalType": "uint256",
          "name": "policyId",
          "type": "uint256"
        },
        {
          "indexed": true,
          "internalType": "address",
          "name": "farmer",
          "type": "address"
        },
        {
          "indexed": false,
          "internalType": "uint256",
          "name": "premium",
          "type": "uint256"
        },
        {
          "indexed": false,
          "internalType": "uint256",
          "name": "coverage",
          "type": "uint256"
        }
      ],
      "name": "PolicyCreated",
      "type": "event"
    },
    {
      "anonymous": false,
      "inputs": [
        {
          "indexed": true,
          "internalType": "bytes32",
          "name": "role",
          "type": "bytes32"
        },
        {
          "indexed": true,
          "internalType": "bytes32",
          "name": "previousAdminRole",
          "type": "bytes32"
        },
        {
          "indexed": true,
          "internalType": "bytes32",
          "name": "newAdminRole",
          "type": "bytes32"
        }
      ],
      "name": "RoleAdminChanged",
      "type": "event"
    },
    {
      "anonymous": false,
      "inputs": [
        {
          "indexed": true,
          "internalType": "bytes32",
          "name": "role",
          "type": "bytes32"
        },
        {
          "indexed": true,
          "internalType": "address",
          "name": "account",
          "type": "address"
        },
        {
          "indexed": true,
          "internalType": "address",
          "name": "sender",
          "type": "address"
        }
      ],
      "name": "RoleGranted",
      "type": "event"
    },
    {
      "anonymous": false,
      "inputs": [
        {
          "indexed": true,
          "internalType": "bytes32",
          "name": "role",
          "type": "bytes32"
        },
        {
          "indexed": true,
          "internalType": "address",
          "name": "account",
          "type": "address"
        },
        {
          "indexed": true,
          "internalType": "address",
          "name": "sender",
          "type": "address"
        }
      ],
      "name": "RoleRevoked",
      "type": "event"
    },
    {
      "anonymous": false,
      "inputs": [
        {
          "indexed": false,
          "internalType": "address",
          "name": "account",
          "type": "address"
        }
      ],
      "name": "Unpaused",
      "type": "event"
    },
    {
      "inputs": [],
      "name": "DEFAULT_ADMIN_ROLE",
      "outputs": [
        {
          "internalType": "bytes32",
          "name": "",
          "type": "bytes32"
        }
      ],
      "stateMutability": "view",
      "type": "function"
    },
    {
      "inputs": [],
      "name": "ORACLE_ROLE",
      "outputs": [
        {
          "internalType": "bytes32",
          "name": "",
          "type": "bytes32"
        }
      ],
      "stateMutability": "view",
      "type": "function"
    },
    {
      "inputs": [],
      "name": "VERIFIER_ROLE",
      "outputs": [
        {
          "internalType": "bytes32",
          "name": "",
          "type": "bytes32"
        }
      ],
      "stateMutability": "view",
      "type": "function"
    },
    {
      "inputs": [],
      "name": "basePremiumRate",
      "outputs": [
        {
          "internalType": "uint256",
          "name": "",
          "type": "uint256"
        }
      ],
      "stateMutability": "view",
      "type": "function"
    },
    {
      "inputs": [],
      "name": "certificateCount",
      "outputs": [
        {
          "internalType": "uint256",
          "name": "",
          "type": "uint256"
        }
      ],
      "stateMutability": "view",
      "type": "function"
    },
    {
      "inputs": [
        {
          "internalType": "uint256",
          "name": "",
          "type": "uint256"
        }
      ],
      "name": "certificates",
      "outputs": [
        {
          "internalType": "uint256",
          "name": "id",
          "type": "uint256"
        },
        {
          "internalType": "address",
          "name": "farmer",
          "type": "address"
        },
        {
          "internalType": "string",
          "name": "certificationType",
          "type": "string"
        },
        {
          "internalType": "uint256",
          "name": "issuedAt",
          "type": "uint256"
        },
        {
          "internalType": "uint256",
          "name": "expiresAt",
          "type": "uint256"
        },
        {
          "internalType": "bytes32",
          "name": "evidenceHash",
          "type": "bytes32"
        },
        {
          "internalType": "bool",
          "name": "valid",
          "type": "bool"
        }
      ],
      "stateMutability": "view",
      "type": "function"
    },
    {
      "inputs": [],
      "name": "claimCooldown",
      "outputs": [
        {
          "internalType": "uint256",
          "name": "",
          "type": "uint256"
        }
      ],
      "stateMutability": "view",
      "type": "function"
    },
    {
      "inputs": [],
      "name": "claimCount",
      "outputs": [
        {
          "internalType": "uint256",
          "name": "",
          "type": "uint256"
        }
      ],
      "stateMutability": "view",
      "type": "function"
    },
    {
      "inputs": [
        {
          "internalType": "uint256",
          "name": "",
          "type": "uint256"
        }
      ],
      "name": "claims",
      "outputs": [
        {
          "internalType": "uint256",
          "name": "id",
          "type": "uint256"
        },
        {
          "internalType": "uint256",
          "name": "policyId",
          "type": "uint256"
        },
        {
          "internalType": "address",
          "name": "farmer",
          "type": "address"
        },
        {
          "internalType": "string",
          "name": "riskType",
          "type": "string"
        },
        {
          "internalType": "uint256",
          "name": "timestamp",
          "type": "uint256"
        },
        {
          "internalType": "uint256",
          "name": "oracleData",
          "type": "uint256"
        },
        {
          "internalType": "bool",
          "name": "triggered",
          "type": "bool"
        },
        {
          "internalType": "bool",
          "name": "paid",
          "type": "bool"
        },
        {
          "internalType": "uint256",
          "name": "payoutAmount",
          "type": "uint256"
        }
      ],
      "stateMutability": "view",
      "type": "function"
    },
    {
      "inputs": [
        {
          "internalType": "uint256",
          "name": "amount",
          "type": "uint256"
        }
      ],
      "name": "depositToPool",
      "outputs": [],
      "stateMutability": "nonpayable",
      "type": "function"
    },
    {
      "inputs": [],
      "name": "droughtThreshold",
      "outputs": [
        {
          "internalType": "uint256",
          "name": "",
          "type": "uint256"
        }
      ],
      "stateMutability": "view",
      "type": "function"
    },
    {
      "inputs": [
        {
          "internalType": "address",
          "name": "token",
          "type": "address"
        },
        {
          "internalType": "address",
          "name": "to",
          "type": "address"
        },
        {
          "internalType": "uint256",
          "name": "amount",
          "type": "uint256"
        }
      ],
      "name": "emergencyWithdraw",
      "outputs": [],
      "stateMutability": "nonpayable",
      "type": "function"
    },
    {
      "inputs": [
        {
          "internalType": "address",
          "name": "",
          "type": "address"
        },
        {
          "internalType": "uint256",
          "name": "",
          "type": "uint256"
        }
      ],
      "name": "farmerCertificates",
      "outputs": [
        {
          "internalType": "uint256",
          "name": "",
          "type": "uint256"
        }
      ],
      "stateMutability": "view",
      "type": "function"
    },
    {
      "inputs": [],
      "name": "farmerCount",
      "outputs": [
        {
          "internalType": "uint256",
          "name": "",
          "type": "uint256"
        }
      ],
      "stateMutability": "view",
      "type": "function"
    },
    {
      "inputs": [
        {
          "internalType": "address",
          "name": "",
          "type": "address"
        },
        {
          "internalType": "uint256",
          "name": "",
          "type": "uint256"
        }
      ],
      "name": "farmerPolicies",
      "outputs": [
        {
          "internalType": "uint256",
          "name": "",
          "type": "uint256"
        }
      ],
      "stateMutability": "view",
      "type": "function"
    },
    {
      "inputs": [
        {
          "internalType": "address",
          "name": "",
          "type": "address"
        }
      ],
      "name": "farmers",
      "outputs": [
        {
          "internalType": "address",
          "name": "wallet",
          "type": "address"
        },
        {
          "internalType": "string",
          "name": "region",
          "type": "string"
        },
        {
          "internalType": "uint256",
          "name": "farmSize",
          "type": "uint256"
        },
        {
          "internalType": "uint256",
          "name": "registeredAt",
          "type": "uint256"
        },
        {
          "internalType": "bool",
          "name": "verified",
          "type": "bool"
        },
        {
          "internalType": "uint256",
          "name": "complianceScore",
          "type": "uint256"
        },
        {
          "internalType": "uint256",
          "name": "totalClaims",
          "type": "uint256"
        },
        {
          "internalType": "uint256",
          "name": "totalPayouts",
          "type": "uint256"
        }
      ],
      "stateMutability": "view",
      "type": "function"
    },
    {
      "inputs": [],
      "name": "floodThreshold",
      "outputs": [
        {
          "internalType": "uint256",
          "name": "",
          "type": "uint256"
        }
      ],
      "stateMutability": "view",
      "type": "function"
    },
    {
      "inputs": [
        {
          "internalType": "uint256",
          "name": "certId",
          "type": "uint256"
        }
      ],
      "name": "getCertificate",
      "outputs": [
        {
          "components": [
            {
              "internalType": "uint256",
              "name": "id",
              "type": "uint256"
            },
            {
              "internalType": "address",
              "name": "farmer",
              "type": "address"
            },
            {
              "internalType": "string",
              "name": "certificationType",
              "type": "string"
            },
            {
              "internalType": "uint256",
              "name": "issuedAt",
              "type": "uint256"
            },
            {
              "internalType": "uint256",
              "name": "expiresAt",
              "type": "uint256"
            },
            {
              "internalType": "bytes32",
              "name": "evidenceHash",
              "type": "bytes32"
            },
            {
              "internalType": "bool",
              "name": "valid",
              "type": "bool"
            }
          ],
          "internalType": "struct KaiAgriculture.ComplianceCertificate",
          "name": "",
          "type": "tuple"
        }
      ],
      "stateMutability": "view",
      "type": "function"
    },
    {
      "inputs": [
        {
          "internalType": "uint256",
          "name": "claimId",
          "type": "uint256"
        }
      ],
      "name": "getClaim",
      "outputs": [
        {
          "components": [
            {
              "internalType": "uint256",
              "name": "id",
              "type": "uint256"
            },
            {
              "internalType": "uint256",
              "name": "policyId",
              "type": "uint256"
            },
            {
              "internalType": "address",
              "name": "farmer",
              "type": "address"
            },
            {
              "internalType": "string",
              "name": "riskType",
              "type": "string"
            },
            {
              "internalType": "uint256",
              "name": "timestamp",
              "type": "uint256"
            },
            {
              "internalType": "uint256",
              "name": "oracleData",
              "type": "uint256"
            },
            {
              "internalType": "bool",
              "name": "triggered",
              "type": "bool"
            },
            {
              "internalType": "bool",
              "name": "paid",
              "type": "bool"
            },
            {
              "internalType": "uint256",
              "name": "payoutAmount",
              "type": "uint256"
            }
          ],
          "internalType": "struct KaiAgriculture.Claim",
          "name": "",
          "type": "tuple"
        }
      ],
      "stateMutability": "view",
      "type": "function"
    },
    {
      "inputs": [
        {
          "internalType": "address",
          "name": "farmerAddr",
          "type": "address"
        }
      ],
      "name": "getFarmer",
      "outputs": [
        {
          "components": [
            {
              "internalType": "address",
              "name": "wallet",
              "type": "address"
            },
            {
              "internalType": "string",
              "name": "region",
              "type": "string"
            },
            {
              "internalType": "uint256",
              "name": "farmSize",
              "type": "uint256"
            },
            {
              "internalType": "uint256",
              "name": "registeredAt",
              "type": "uint256"
            },
            {
              "internalType": "bool",
              "name": "verified",
              "type": "bool"
            },
            {
              "internalType": "uint256",
              "name": "complianceScore",
              "type": "uint256"
            },
            {
              "internalType": "uint256",
              "name": "totalClaims",
              "type": "uint256"
            },
            {
              "internalType": "uint256",
              "name": "totalPayouts",
              "type": "uint256"
            }
          ],
          "internalType": "struct KaiAgriculture.Farmer",
          "name": "",
          "type": "tuple"
        }
      ],
      "stateMutability": "view",
      "type": "function"
    },
    {
      "inputs": [
        {
          "internalType": "address",
          "name": "farmerAddr",
          "type": "address"
        }
      ],
      "name": "getFarmerCertificates",
      "outputs": [
        {
          "internalType": "uint256[]",
          "name": "",
          "type": "uint256[]"
        }
      ],
      "stateMutability": "view",
      "type": "function"
    },
    {
      "inputs": [
        {
          "internalType": "address",
          "name": "farmerAddr",
          "type": "address"
        }
      ],
      "name": "getFarmerPolicies",
      "outputs": [
        {
          "internalType": "uint256[]",
          "name": "",
          "type": "uint256[]"
        }
      ],
      "stateMutability": "view",
      "type": "function"
    },
    {
      "inputs": [
        {
          "internalType": "uint256",
          "name": "policyId",
          "type": "uint256"
        }
      ],
      "name": "getPolicy",
      "outputs": [
        {
          "components": [
            {
              "internalType": "uint256",
              "name": "id",
              "type": "uint256"
            },
            {
              "internalType": "address",
              "name": "farmer",
              "type": "address"
            },
            {
              "internalType": "uint256",
              "name": "premium",
              "type": "uint256"
            },
            {
              "internalType": "uint256",
              "name": "coverage",
              "type": "uint256"
            },
            {
              "internalType": "uint256",
              "name": "startTime",
              "type": "uint256"
            },
            {
              "internalType": "uint256",
              "name": "endTime",
              "type": "uint256"
            },
            {
              "internalType": "string[]",
              "name": "coveredRisks",
              "type": "string[]"
            },
            {
              "internalType": "bool",
              "name": "active",
              "type": "bool"
            },
            {
              "internalType": "uint256",
              "name": "claimsMade",
              "type": "uint256"
            }
          ],
          "internalType": "struct KaiAgriculture.InsurancePolicy",
          "name": "",
          "type": "tuple"
        }
      ],
      "stateMutability": "view",
      "type": "function"
    },
    {
      "inputs": [
        {
          "internalType": "bytes32",
          "name": "role",
          "type": "bytes32"
        }
      ],
      "name": "getRoleAdmin",
      "outputs": [
        {
          "internalType": "bytes32",
          "name": "",
          "type": "bytes32"
        }
      ],
      "stateMutability": "view",
      "type": "function"
    },
    {
      "inputs": [
        {
          "internalType": "bytes32",
          "name": "role",
          "type": "bytes32"
        },
        {
          "internalType": "address",
          "name": "account",
          "type": "address"
        }
      ],
      "name": "grantRole",
      "outputs": [],
      "stateMutability": "nonpayable",
      "type": "function"
    },
    {
      "inputs": [
        {
          "internalType": "bytes32",
          "name": "role",
          "type": "bytes32"
        },
        {
          "internalType": "address",
          "name": "account",
          "type": "address"
        }
      ],
      "name": "hasRole",
      "outputs": [
        {
          "internalType": "bool",
          "name": "",
          "type": "bool"
        }
      ],
      "stateMutability": "view",
      "type": "function"
    },
    {
      "inputs": [],
      "name": "insurancePool",
      "outputs": [
        {
          "internalType": "uint256",
          "name": "",
          "type": "uint256"
        }
      ],
      "stateMutability": "view",
      "type": "function"
    },
    {
      "inputs": [
        {
          "internalType": "address",
          "name": "farmerAddr",
          "type": "address"
        },
        {
          "internalType": "string",
          "name": "certificationType",
          "type": "string"
        },
        {
          "internalType": "uint256",
          "name": "validDays",
          "type": "uint256"
        },
        {
          "internalType": "bytes32",
          "name": "evidenceHash",
          "type": "bytes32"
        }
      ],
      "name": "issueCertificate",
      "outputs": [
        {
          "internalType": "uint256",
          "name": "",
          "type": "uint256"
        }
      ],
      "stateMutability": "nonpayable",
      "type": "function"
    },
    {
      "inputs": [],
      "name": "kaiToken",
      "outputs": [
        {
          "internalType": "contract KAIToken",
          "name": "",
          "type": "address"
        }
      ],
      "stateMutability": "view",
      "type": "function"
    },
    {
      "inputs": [],
      "name": "maxCoverageMultiplier",
      "outputs": [
        {
          "internalType": "uint256",
          "name": "",
          "type": "uint256"
        }
      ],
      "stateMutability": "view",
      "type": "function"
    },
    {
      "inputs": [],
      "name": "pause",
      "outputs": [],
      "stateMutability": "nonpayable",
      "type": "function"
    },
    {
      "inputs": [],
      "name": "paused",
      "outputs": [
        {
          "internalType": "bool",
          "name": "",
          "type": "bool"
        }
      ],
      "stateMutability": "view",
      "type": "function"
    },
    {
      "inputs": [
        {
          "internalType": "uint256",
          "name": "",
          "type": "uint256"
        }
      ],
      "name": "policies",
      "outputs": [
        {
          "internalType": "uint256",
          "name": "id",
          "type": "uint256"
        },
        {
          "internalType": "address",
          "name": "farmer",
          "type": "address"
        },
        {
          "internalType": "uint256",
          "name": "premium",
          "type": "uint256"
        },
        {
          "internalType": "uint256",
          "name": "coverage",
          "type": "uint256"
        },
        {
          "internalType": "uint256",
          "name": "startTime",
          "type": "uint256"
        },
        {
          "internalType": "uint256",
          "name": "endTime",
          "type": "uint256"
        },
        {
          "internalType": "bool",
          "name": "active",
          "type": "bool"
        },
        {
          "internalType": "uint256",
          "name": "claimsMade",
          "type": "uint256"
        }
      ],
      "stateMutability": "view",
      "type": "function"
    },
    {
      "inputs": [],
      "name": "policyCount",
      "outputs": [
        {
          "internalType": "uint256",
          "name": "",
          "type": "uint256"
        }
      ],
      "stateMutability": "view",
      "type": "function"
    },
    {
      "inputs": [
        {
          "internalType": "uint256",
          "name": "coverageAmount",
          "type": "uint256"
        },
        {
          "internalType": "uint256",
          "name": "durationDays",
          "type": "uint256"
        },
        {
          "internalType": "string[]",
          "name": "risks",
          "type": "string[]"
        }
      ],
      "name": "purchaseInsurance",
      "outputs": [
        {
          "internalType": "uint256",
          "name": "",
          "type": "uint256"
        }
      ],
      "stateMutability": "nonpayable",
      "type": "function"
    },
    {
      "inputs": [
        {
          "internalType": "string",
          "name": "region",
          "type": "string"
        },
        {
          "internalType": "uint256",
          "name": "farmSize",
          "type": "uint256"
        }
      ],
      "name": "registerFarmer",
      "outputs": [],
      "stateMutability": "nonpayable",
      "type": "function"
    },
    {
      "inputs": [
        {
          "internalType": "bytes32",
          "name": "role",
          "type": "bytes32"
        },
        {
          "internalType": "address",
          "name": "callerConfirmation",
          "type": "address"
        }
      ],
      "name": "renounceRole",
      "outputs": [],
      "stateMutability": "nonpayable",
      "type": "function"
    },
    {
      "inputs": [
        {
          "internalType": "uint256",
          "name": "certId",
          "type": "uint256"
        }
      ],
      "name": "revokeCertificate",
      "outputs": [],
      "stateMutability": "nonpayable",
      "type": "function"
    },
    {
      "inputs": [
        {
          "internalType": "bytes32",
          "name": "role",
          "type": "bytes32"
        },
        {
          "internalType": "address",
          "name": "account",
          "type": "address"
        }
      ],
      "name": "revokeRole",
      "outputs": [],
      "stateMutability": "nonpayable",
      "type": "function"
    },
    {
      "inputs": [
        {
          "internalType": "uint256",
          "name": "rate",
          "type": "uint256"
        }
      ],
      "name": "setBasePremiumRate",
      "outputs": [],
      "stateMutability": "nonpayable",
      "type": "function"
    },
    {
      "inputs": [
        {
          "internalType": "uint256",
          "name": "drought",
          "type": "uint256"
        },
        {
          "internalType": "uint256",
          "name": "flood",
          "type": "uint256"
        },
        {
          "internalType": "uint256",
          "name": "temperature",
          "type": "uint256"
        }
      ],
      "name": "setThresholds",
      "outputs": [],
      "stateMutability": "nonpayable",
      "type": "function"
    },
    {
      "inputs": [
        {
          "internalType": "uint256",
          "name": "policyId",
          "type": "uint256"
        },
        {
          "internalType": "string",
          "name": "riskType",
          "type": "string"
        }
      ],
      "name": "submitClaim",
      "outputs": [
        {
          "internalType": "uint256",
          "name": "",
          "type": "uint256"
        }
      ],
      "stateMutability": "nonpayable",
      "type": "function"
    },
    {
      "inputs": [
        {
          "internalType": "bytes4",
          "name": "interfaceId",
          "type": "bytes4"
        }
      ],
      "name": "supportsInterface",
      "outputs": [
        {
          "internalType": "bool",
          "name": "",
          "type": "bool"
        }
      ],
      "stateMutability": "view",
      "type": "function"
    },
    {
      "inputs": [],
      "name": "temperatureThreshold",
      "outputs": [
        {
          "internalType": "uint256",
          "name": "",
          "type": "uint256"
        }
      ],
      "stateMutability": "view",
      "type": "function"
    },
    {
      "inputs": [],
      "name": "totalClaimsPaid",
      "outputs": [
        {
          "internalType": "uint256",
          "name": "",
          "type": "uint256"
        }
      ],
      "stateMutability": "view",
      "type": "function"
    },
    {
      "inputs": [],
      "name": "totalPremiumsCollected",
      "outputs": [
        {
          "internalType": "uint256",
          "name": "",
          "type": "uint256"
        }
      ],
      "stateMutability": "view",
      "type": "function"
    },
    {
      "inputs": [
        {
          "internalType": "uint256",
          "name": "claimId",
          "type": "uint256"
        },
        {
          "internalType": "uint256",
          "name": "oracleData",
          "type": "uint256"
        }
      ],
      "name": "triggerClaim",
      "outputs": [],
      "stateMutability": "nonpayable",
      "type": "function"
    },
    {
      "inputs": [],
      "name": "unpause",
      "outputs": [],
      "stateMutability": "nonpayable",
      "type": "function"
    },
    {
      "inputs": [
        {
          "internalType": "address",
          "name": "farmerAddr",
          "type": "address"
        },
        {
          "internalType": "uint256",
          "name": "complianceScore",
          "type": "uint256"
        }
      ],
      "name": "verifyFarmer",
      "outputs": [],
      "stateMutability": "nonpayable",
      "type": "function"
    },
    {
      "inputs": [
        {
          "internalType": "address",
          "name": "to",
          "type": "address"
        },
        {
          "internalType": "uint256",
          "name": "amount",
          "type": "uint256"
        }
      ],
      "name": "withdrawFromPool",
      "outputs": [],
      "stateMutability": "nonpayable",
      "type": "function"
    }
  ],
  "bytecode": "0x60a0346200017557601f6200396938819003918201601f19168301916001600160401b038311848410176200017a57808492604094855283398101031262000175576200005a6020620000528362000190565b920162000190565b600180556101f4600355600a60045562093a80600555601e60065560c860075560286008556001600160a01b0391821691821562000140578116156200010b57620000c091608052620000ad81620001a5565b50620000b98162000225565b50620002c7565b506040516135e4908162000365823960805181818161080a01528181610b4f01528181610dd50152818161105601528181611d9b015281816123d801528181612450015261249b0152f35b60405162461bcd60e51b815260206004820152600d60248201526c24b73b30b634b21030b236b4b760991b6044820152606490fd5b60405162461bcd60e51b815260206004820152600d60248201526c24b73b30b634b2103a37b5b2b760991b6044820152606490fd5b600080fd5b634e487b7160e01b600052604160045260246000fd5b51906001600160a01b03821682036200017557565b6001600160a01b031660008181527fad3228b676f7d3cd4284a5443f17f1962b36e491b30a40b2405849e597ba5fb5602052604081205490919060ff166200022157818052816020526040822081835260205260408220600160ff198254161790553391600080516020620039498339815191528180a4600190565b5090565b6001600160a01b031660008181527fa629f6981c2f6895a67dc766e8e03ff72d04a413d0d8773a3ca56e9e474032c160205260408120549091907f68e79a7bf1e0bc45d0a330c573bc367f9cf464fd326078812f301165fbda4ef19060ff16620002c257808352826020526040832082845260205260408320600160ff1982541617905560008051602062003949833981519152339380a4600190565b505090565b6001600160a01b031660008181527f1da0b5176dfe03406af5a6eed66ca01dda9b45ac4da671c3fa379cb93717ef8160205260408120549091907f0ce23c3e399818cfee81a7ab0880f714e53d7672b08df0fa62f2843416e1ea099060ff16620002c257808352826020526040832082845260205260408320600160ff1982541617905560008051602062003949833981519152339380a460019056fe608080604052600436101561001357600080fd5b600090813560e01c90816301ffc9a714612ef45750806306f5497e14612e6f57806307e2cea514612e345780630afee09f14612a7d578063238c96301461225e578063248a9ca3146122325780632b07fce3146120465780632f2ff15d1461200957806336568abe14611fc15780633aa13f4914611b895780633dadde2014611b6b5780633f4ba83a14611b00578063401b216814611a4957806345b46525146115ca57806351640fee146114b257806352d7b89c1461149457806354366ac2146113965780635aef24471461123e5780635c975abb1461121b5780636532ccf5146111fd578063663b3e221461115d5780636664013f146110e757806368b0e0701461100157806375f8905114610fb957806377c17b9814610f9b5780638106ab3f14610f7d5780638456cb5914610f225780638b67ce4e14610ef35780638da4d3c914610ed557806391d1485414610e8a5780639339dd5d14610e045780639bcfdfc014610dbf5780639d6e974114610da1578063a217fddf14610d85578063a888c2cd14610cc8578063ab2adc0014610caa578063ac5f086314610c8c578063b7bf57dd14610c2b578063bd45b39714610c0d578063c1bf9e5814610a7c578063d3e89483146109f7578063d547741f146109b6578063de54d42914610998578063e28409751461097a578063e63ea408146107ae578063e7609c161461066c578063e7705db614610631578063ecbc05e5146105db578063f06facd4146102675763fdea36571461024757600080fd5b346102645780600319360112610264576020600554604051908152f35b80fd5b5034610264576040366003190112610264576001600160401b036004358181116105d757610299903690600401612f7a565b916102a261349d565b82156105a0576024351561056657338452600960205260408420546001600160a01b039190821661052c57604051906102da82613104565b3382526102e8368686613226565b6020830190815260243560408401524260608401528660808401528660a08401528660c08401528660e0840152338752600960205260408720938351166001600160601b0360a01b8554161784555180519182116105185761034d6001850154612fe7565b601f81116104da575b50602090601f8311600114610442577f9e6c0ba7b243f2832f486b0f05ab87adc71f805a3ed13de7d41274c0fd9e220195936103b384610425979560079560e0958d92610437575b50508160011b916000199060031b1c19161790565b60018501555b60408101516002850155606081015160038501556103ec60808201511515600486019060ff801983541691151516179055565b60a0810151600585015560c081015160068501550151910155610410600f546131c6565b600f55604051936040855260408501916132a9565b9160243560208201528033930390a280f35b01519050388061039e565b906001850188526020882091885b601f19851681106104c257509360018460079460e0947f9e6c0ba7b243f2832f486b0f05ab87adc71f805a3ed13de7d41274c0fd9e22019a986104259a98601f198116106104a9575b505050811b0160018501556103b9565b015160001960f88460031b161c19169055388080610499565b91926020600181928685015181550194019201610450565b6105089060018601895260208920601f850160051c8101916020861061050e575b601f0160051c019061325d565b38610356565b90915081906104fb565b634e487b7160e01b87526041600452602487fd5b60405162461bcd60e51b8152602060048201526012602482015271105b1c9958591e481c9959da5cdd195c995960721b6044820152606490fd5b60405162461bcd60e51b815260206004820152601260248201527111985c9b481cda5e99481c995c5d5a5c995960721b6044820152606490fd5b60405162461bcd60e51b815260206004820152600f60248201526e149959da5bdb881c995c5d5a5c9959608a1b6044820152606490fd5b8280fd5b5034610264576040366003190112610264576105f5612f49565b6001600160a01b03168152600e60205260408120805460243592908310156102645760206106238484613198565b90546040519160031b1c8152f35b503461026457806003193601126102645760206040517f0ce23c3e399818cfee81a7ab0880f714e53d7672b08df0fa62f2843416e1ea098152f35b5034610264576020806003193601126107aa576040610689612f49565b928060e0835161069881613104565b82815260608682015282858201528260608201528260808201528260a08201528260c0820152015260018060a01b0380941681526009835220604051916106de83613104565b83825416835260405190610700826106f98160018701613021565b038361313b565b808401918252600283015492604085019384526003810154926060860193845260ff60048301541660808701901515815260058301549160a08801928352600760068501549460c08a0195865201549460e08901958652604051998a99828b525116908901525194610780610100968760408b01526101208a0190612fa7565b9651606089015251608088015251151560a08701525160c08601525160e085015251908301520390f35b5080fd5b5034610264576060366003190112610264576107c8612f49565b6107d0612f64565b90604435916107dd61341a565b6107e561347a565b6001600160a01b039184906107fd8385161515613344565b610808851515613384565b7f0000000000000000000000000000000000000000000000000000000000000000841693811684036108c1575060405163a9059cbb60e01b81526001600160a01b0392909216600483015260248201939093529160209183916044918391905af180156108b657610880918391610887575b506132ef565b6001805580f35b6108a9915060203d6020116108af575b6108a1818361313b565b8101906132d7565b3861087a565b503d610897565b6040513d84823e3d90fd5b60405163a9059cbb60e01b602082019081526001600160a01b0394909416602482015260448082019690965294855261093f9491935083929091839061090860648261313b565b51925af13d15610973573d61091c8161320b565b9061092a604051928361313b565b81523d84602083013e5b8161094457506132ef565b610880565b8051801592508215610959575b50503861087a565b61096c92506020809183010191016132d7565b3880610951565b6060610934565b50346102645780600319360112610264576020600754604051908152f35b50346102645780600319360112610264576020601054604051908152f35b5034610264576040366003190112610264576109f36004356109d6612f64565b90808452836020526109ee6001604086200154613454565b613539565b5080f35b5034610264576020366003190112610264576040610100916004358152600a6020522080549060018060a01b036001820154169060028101546003820154600483015490600584015492600860ff60078701541695015495604051978852602088015260408701526060860152608085015260a0840152151560c083015260e0820152f35b503461026457604036600319011261026457610a96612f49565b602435610aa161341a565b610aa961347a565b6001600160a01b0390610abf8383161515613344565b610aca811515613384565b601454601481029080820460141490151715610bf95760135492906064900480841115610bf257610afb90846132ca565b8211610b8757610b4b93610b11836020956132ca565b60135560405163a9059cbb60e01b81526001600160a01b039091166004820152602481019290925290928391908290869082906044820190565b03927f0000000000000000000000000000000000000000000000000000000000000000165af180156108b65761088091839161088757506132ef565b60405162461bcd60e51b815260206004820152603860248201527f4578636565647320617661696c61626c65207769746864726177616c20286d7560448201527f7374206d61696e7461696e2032302520726573657276652900000000000000006064820152608490fd5b5084610afb565b634e487b7160e01b85526011600452602485fd5b50346102645780600319360112610264576020600f54604051908152f35b503461026457602036600319011261026457600435610c4861341a565b6107d08111610c575760035580f35b60405162461bcd60e51b815260206004820152600d60248201526c0a4c2e8ca40e8dede40d0d2ced609b1b6044820152606490fd5b50346102645780600319360112610264576020600654604051908152f35b50346102645780600319360112610264576020601354604051908152f35b5034610264576020366003190112610264576040906004358152600b6020522080549060018101549060018060a01b036002820154169260ff60405192610d1d84610d168160038501613021565b038561313b565b600481015493610d5b6005830154916007600685015494015495604051998a99610120928b5260208b015260408a01528060608a0152880190612fa7565b94608087015260a0860152818116151560c086015260081c16151560e08401526101008301520390f35b5034610264578060031936011261026457602090604051908152f35b50346102645780600319360112610264576020600454604051908152f35b50346102645780600319360112610264576040517f00000000000000000000000000000000000000000000000000000000000000006001600160a01b03168152602090f35b5034610264576020806003193601126107aa576001600160a01b03610e27612f49565b168252600d602052604082209160405180926020855492838152019483526020832092905b828210610e7357610e6f85610e638189038261313b565b6040519182918261315c565b0390f35b835486529485019460019384019390910190610e4c565b5034610264576040366003190112610264576040610ea6612f64565b91600435815280602052209060018060a01b0316600052602052602060ff604060002054166040519015158152f35b50346102645780600319360112610264576020601154604051908152f35b503461026457606036600319011261026457610f0d61341a565b60043560065560243560075560443560085580f35b5034610264578060031936011261026457610f3b61341a565b610f4361349d565b600160ff1960025416176002557f62e78cea01bee320cd4e420270b5ea74000d11b0c9f74754ebdbfc544b05a2586020604051338152a180f35b50346102645780600319360112610264576020600854604051908152f35b50346102645780600319360112610264576020600354604051908152f35b503461026457604036600319011261026457610fd3612f49565b6001600160a01b03168152600d60205260408120805460243592908310156102645760206106238484613198565b50346102645760203660031901126102645760043561101e61347a565b80156110b0576040516323b872dd60e01b81523360048201523060248201526044810182905290602082606481866001600160a01b037f0000000000000000000000000000000000000000000000000000000000000000165af19182156110a55761109b9261109391859161088757506132ef565b6013546131fe565b6013556001805580f35b6040513d85823e3d90fd5b60405162461bcd60e51b815260206004820152600f60248201526e105b5bdd5b9d081c995c5d5a5c9959608a1b6044820152606490fd5b5034610264576020806003193601126107aa576001600160a01b0361110a612f49565b168252600e602052604082209160405180926020855492838152019483526020832092905b82821061114657610e6f85610e638189038261313b565b83548652948501946001938401939091019061112f565b5034610264576020366003190112610264576040906004358152600c60205220805460018060a01b03600183015416916040516111a8816111a18160028601613021565b038261313b565b60038201549160048101546111e260ff6006600585015494015416936040519788978852602088015260e0604088015260e0870190612fa7565b936060860152608085015260a0840152151560c08301520390f35b50346102645780600319360112610264576020601554604051908152f35b5034610264578060031936011261026457602060ff600254166040519015158152f35b50346102645760209081600319360112610264576040805191611260836130e8565b808352808484015280828401526060808401528060808401528060a08401528060c08401528060e084015280610100809401526004358152600b845220604051916112aa836130e8565b81548352600182015484840190815260028301546001600160a01b03908116604080870191825251949193916112ee866112e78160038501613021565b038761313b565b606087019586526004810154956080880196875260058201549560a08901968752600683015493600760c08b019460ff87161515865260ff60e08d019760081c1615158752015496868b019788526040519b8c9b818d5251908c01525160408b0152511660608901525194611371610120968760808b01526101408a0190612fa7565b965160a08901525160c088015251151560e08701525115159085015251908301520390f35b5034610264576040366003190112610264576113b0612f49565b6024356113bb6133be565b6064811161145f576001600160a01b03918216808452600960205260408420805491939091161561142957817fea8fb419111481ddf23f46f716977ce4313705081e37049fda136377a3a6a92992600583600460209501600160ff198254161790550155604051908152a280f35b60405162461bcd60e51b815260206004820152600e60248201526d139bdd081c9959da5cdd195c995960921b6044820152606490fd5b60405162461bcd60e51b815260206004820152600d60248201526c496e76616c69642073636f726560981b6044820152606490fd5b50346102645780600319360112610264576020601254604051908152f35b50346102645760209081600319360112610264578060409160c083516114d7816130b7565b82815282868201526060858201528260608201528260808201528260a082015201526004358152600c83522060405190611510826130b7565b8054825260018101546001600160a01b0390811684840190815260405192909161154184610d168160028601613021565b604085019384526115ab600383015494606087019586526004840154926080880193845260ff600660058701549660a08b019788520154169560c089019615158752604051998a99818b5251908a0152511660408801525160e06060880152610100870190612fa7565b935160808601525160a08501525160c084015251151560e08301520390f35b5034610264576040366003190112610264576024356001600160401b0381116107aa576115fb903690600401612f7a565b61160361347a565b61160b61349d565b6004358352600a6020526040832060018101549092906001600160a01b03163303611a105760ff600784015416156119d957600583015442116119a3578384600685018054915b828110611952575b5050501561191a5761166d6011546131c6565b928360115560405161167e816130e8565b848152600435602082015233604082015261169a368585613226565b60608201524260808201528560a08201528560c08201528560e082015285610100820152848652600b602052604086209080518255602081015160018301556002820160018060a01b036040830151166001600160601b0360a01b82541617905560608101518051906001600160401b0382116119065791839188969593611728600360209c970154612fe7565b601f81116118d5575b508a90601f831160011461183357946006946007610100604096611795878c986008987f986bd47df8b0575dd1df01d7421a82d6cf65ebca7a82bf72125827a742e20d8f9f9d6118249f926104375750508160011b916000199060031b1c19161790565b60038501555b6080810151600485015560a081015160058501558884016117ce60c08301511515829060ff801983541691151516179055565b60e0820151815461ff001916901515881b61ff001617905501519101550180546117f7906131c6565b905533815260098a52200161180c81546131c6565b905560405191829188835260043596898401916132a9565b0390a360018055604051908152f35b906003850187528b872091875b601f19851681106118bb57509460076101006040966001876008977f986bd47df8b0575dd1df01d7421a82d6cf65ebca7a82bf72125827a742e20d8f9e9c9760069c6118249f9b601f198116106118a2575b505050811b01600385015561179b565b015160001960f88460031b161c19169055388080611892565b8183015184558c9a50600190930192918d01918d01611840565b611900906003860188528c8820601f850160051c8101918e861061050e57601f0160051c019061325d565b38611731565b634e487b7160e01b89526041600452602489fd5b60405162461bcd60e51b815260206004820152601060248201526f149a5cdac81b9bdd0818dbdd995c995960821b6044820152606490fd5b6111a161196f6119628385613198565b5060405192838092613021565b60208151910120611981368888613226565b602081519101201461199557600101611652565b50505050600138808061165a565b60405162461bcd60e51b815260206004820152600e60248201526d141bdb1a58de48195e1c1a5c995960921b6044820152606490fd5b60405162461bcd60e51b815260206004820152600f60248201526e506f6c69637920696e61637469766560881b6044820152606490fd5b60405162461bcd60e51b81526020600482015260116024820152702737ba103837b634b1bc903437b63232b960791b6044820152606490fd5b5034610264576020366003190112610264576001600160a01b039060409082611a70612f49565b1681526009602052209081541660405191611a9983611a928160018501613021565b038461313b565b60028101549060038101549060ff6004820154166005820154906007600684015493015493611adb604051988998610100908a528060208b0152890190612fa7565b95604088015260608701521515608086015260a085015260c084015260e08301520390f35b5034610264578060031936011261026457611b1961341a565b60025460ff811615611b595760ff19166002557f5db9ee0a495bf2e6ff9c91a7834c1ba4fdd244a5e8aa4e537bd38aeae4b073aa6020604051338152a180f35b604051638dfc202b60e01b8152600490fd5b50346102645780600319360112610264576020601454604051908152f35b5034610264576040366003190112610264573360009081527fa629f6981c2f6895a67dc766e8e03ff72d04a413d0d8773a3ca56e9e474032c1602090815260409091205460043590602435907f68e79a7bf1e0bc45d0a330c573bc367f9cf464fd326078812f301165fbda4ef19060ff1615611fa35750611c0861347a565b818452600b83526040842092835415611f6d57600684019182549060ff8216611f345760ff8260081c16611f0057806005870155600386017f0af31c13c38766644f3764dcdad277406a95f91da312e3c224eafb6b3d972c3b604051611c72816111a18186613021565b85815191012066191c9bdd59da1d60ca1b86604051611c9081613120565b60078152015203611e2d57506006548110155b611cb0575b866001805580f35b827f08a9f9ff09b00b52b3f86646a878119c7cd42ca34f19155bb1f5cf3015acfb49916001879460ff1916178655604051908152a260018401548552600a815260036040862001549360135490858210611ca857611d9593611d14876002946132ca565b60135561010061ff0019825416179055856007820155611d36866015546131fe565b6015550160018060a01b03908181541687526009835260076040882001611d5e8782546131fe565b9055805460405163a9059cbb60e01b81529083166001600160a01b0316600482015260248101879052938390859081906044820190565b03818a867f0000000000000000000000000000000000000000000000000000000000000000165af1938415611e22577faf3c8fdd75d667f71d36d7840b8ef9086c516c9b047ad6a83a5a66151342123a94611df6918991611e0b57506132ef565b541693604051908152a3388080808080611ca8565b6108a99150853d87116108af576108a1818361313b565b6040513d89823e3d90fd5b7f047f8b20cdd477958da94ae3831434dc6b3badf35dd1c7fe00890e1dafa6d639604051611e5f816111a18186613021565b85815191012064199b1bdbd960da1b86604051611e7b81613120565b60058152015203611e925750600754811015611ca3565b6111a1611ec67f9f28f2e41110b2e90412967141c08fc2fc72f0c1c15ff25d6a9a9794ad190d289260405192838092613021565b848151910120631a19585d60e21b85604051611ee181613120565b60048152015203611ef757600854811015611ca3565b60328111611ca3565b60405162461bcd60e51b815260048101849052600c60248201526b105b1c9958591e481c185a5960a21b6044820152606490fd5b60405162461bcd60e51b8152600481018490526011602482015270105b1c9958591e481d1c9a59d9d95c9959607a1b6044820152606490fd5b6064906040519062461bcd60e51b82526004820152600f60248201526e10db185a5b481b9bdd08199bdd5b99608a1b6044820152fd5b6044906040519063e2517d3f60e01b82523360048301526024820152fd5b503461026457604036600319011261026457611fdb612f64565b336001600160a01b03821603611ff7576109f390600435613539565b60405163334bd91960e11b8152600490fd5b5034610264576040366003190112610264576109f3600435612029612f64565b90808452836020526120416001604086200154613454565b6134bb565b50346102645760203660031901126102645780610100604051612068816130e8565b8281528260208201528260408201528260608201528260808201528260a0820152606060c08201528260e082015201526004358152600a6020526040812090604051916120b4836130e8565b8054835260018101546001600160a01b03166020840152600281015460408401526003810154606084015260048101546080840152600581015460a08401526006810180549092906121058161332d565b93612113604051958661313b565b81855282526020808320839186015b83831061220d575050505060c08401928352600860ff6007840154169260e08601931515845201546101008501908152604051936020855260a061014086019680516020880152600180831b0360208201511660408801526040810151606088015260608101516080880152608081015182880152015160c08601525192610120928360e087015284518097526101606020818801918960051b890101960191905b8882106121e35750505084955051151561010085015251908301520390f35b90919560208061220060019361015f198c82030186528a51612fa7565b98019201920190916121c4565b600160208192604051612224816111a18189613021565b815201920192019190612122565b503461026457602036600319011261026457600160406020926004358152808452200154604051908152f35b5034610264576060366003190112610264576001600160401b036044351161026457366023604435011215610264576001600160401b036044356004013511610264573660246044356004013560051b604435010111610264576122c061347a565b6122c861349d565b33815260096020526040812060ff60048201541615612a495760043515612a1057601e602435101580612a02575b156129ca57604435600401351561299457602435606460243502046064146024351517156129805760046044350135600a818102918204900361296c576064018060641161296c5761237960056305f5e10061236f6101f49461236a61016d6064602435020461236a6003546004356131eb565b6131eb565b04930154836131eb565b04808211156129655761238b916132ca565b905b811561292e5761239f600454836131eb565b600435116128f0576040516323b872dd60e01b815233600482015230602482015260448101839052602081606481856001600160a01b037f0000000000000000000000000000000000000000000000000000000000000000165af19081156108b6579061241291839161088757506132ef565b8160508102046050036128dc576064605083020461243c61243382856132ca565b916013546131fe565b60135561244b836014546131fe565b6014557f00000000000000000000000000000000000000000000000000000000000000006001600160a01b03163b156107aa57604051630852cd8d60e31b815260048101919091528181602481837f00000000000000000000000000000000000000000000000000000000000000006001600160a01b03165af180156108b6576128b1575b50906124dd6010546131c6565b908160105562015180602435816024350204811460243515171561289d576125099060243502426131fe565b60405190612516826130e8565b838252336020830152826040830152600435606083015242608083015260a08201526125476044356004013561332d565b612554604051918261313b565b60443560048101358252602401602082015b60246044356004013560051b6044350101821061285157505060c0820152600160e082015283610100820152828452600a6020526040842090805182556001820160018060a01b036020830151166001600160601b0360a01b82541617905560408101516002830155606081015160038301556080810151600483015560a0810151600583015560c0810151805190600160401b82116105185760068401548260068601558083106127d8575b506020016006840187526020872087915b8383106126ae576020888861266e8260408e8c60086101008e61265c60e08201511515600786019060ff801983541691151516179055565b0151910155338152600d875220613274565b60405190815260043583820152817ff407f724dd5d2b7754fcbc405960f07c8da0a85e7f71948913fb2997e77bfc8660403393a360018055604051908152f35b80518051906001600160401b0382116127c4576126cb8454612fe7565b908b601f9283811161278c575b50508b602092841160011461271f57836001959294602094879661271094926104375750508160011b916000199060031b1c19161790565b85555b01920192019190612624565b85905260208c2091908c5b601f1985168110612774575083602093600196938796938794601f1981161061275b575b505050811b018555612713565b015160001960f88460031b161c1916905538808061274e565b9192602060018192868501518155019401920161272a565b602082886127b49452208480870160051c820192602088106127bb575b0160051c019061325d565b8b386126d8565b925081926127a9565b634e487b7160e01b8b52604160045260248bfd5b60068501885260208820908382015b81830181106127f7575050612613565b808a61280560019354612fe7565b80612813575b5050016127e7565b601f808211851461282d57505050600081555b8a3861280b565b6128479084845260208420920160051c820185830161325d565b6000835555612826565b81356001600160401b0381116128995736604382604435010112156128995760209161288e83923690604460248282350101359181350101613226565b815201910190612566565b8780fd5b634e487b7160e01b84526011600452602484fd5b6001600160401b0381116128c857604052386124d0565b634e487b7160e01b82526041600452602482fd5b634e487b7160e01b81526011600452602490fd5b60405162461bcd60e51b815260206004820152601660248201527510dbdd995c9859d948195e18d959591cc81b1a5b5a5d60521b6044820152606490fd5b60405162461bcd60e51b815260206004820152600f60248201526e5072656d69756d20746f6f206c6f7760881b6044820152606490fd5b509061238d565b634e487b7160e01b83526011600452602483fd5b634e487b7160e01b82526011600452602482fd5b60405162461bcd60e51b815260206004820152600e60248201526d149a5cdadcc81c995c5d5a5c995960921b6044820152606490fd5b60405162461bcd60e51b815260206004820152601060248201526f24b73b30b634b210323ab930ba34b7b760811b6044820152606490fd5b5061016d60243511156122f6565b60405162461bcd60e51b815260206004820152601160248201527010dbdd995c9859d9481c995c5d5a5c9959607a1b6044820152606490fd5b60405162461bcd60e51b815260206004820152600c60248201526b139bdd081d995c9a599a595960a21b6044820152606490fd5b503461026457608036600319011261026457612a97612f49565b6001600160401b03919060248035848111612e3057612aba903690600401612f7a565b929060443594612ac86133be565b6001600160a01b0383811682526009602052604082206004015490979060ff1615612df6578515612dc2578615612d8a57612b046012546131c6565b96876012556201518080820291820403612d7757612b2290426131fe565b9060405195612b30876130b7565b88875260208701928a87168452612b48368a88613226565b90604089019182524260608a0152608089015260643560a0890152600160c0890152898552600c6020526040852093885185558b600186019151166001600160601b0360a01b82541617905551908151928311612d655750918895939160209a9593612bb76002840154612fe7565b601f8111612d34575b508b90601f8311600114612c8f5793612c61612c7094600660c08c9d612c26887fb7ff6cbe8f0282bf405f9ce3210be62c5620d39139a49186436e3f0fcc6a315a9f99604099612c849e9d8a926104375750508160011b916000199060031b1c19161790565b60028501555b606081015160038501556080810151600485015560a081015160058501550151151591019060ff801983541691151516179055565b8787168152600e8d5220613274565b6040519384938a85521696898401916132a9565b0390a3604051908152f35b906002840185528c852091855b601f1985168110612d1a5750612c7094600660c08c9d6001887fb7ff6cbe8f0282bf405f9ce3210be62c5620d39139a49186436e3f0fcc6a315a9f9998612c849d9c98612c619860409b601f19811610612d01575b505050811b016002850155612c2c565b015160001960f88460031b161c19169055388080612cf1565b8183015184558d9a50600190930192918e01918e01612c9c565b612d5f906002850186528d8620601f850160051c8101918f861061050e57601f0160051c019061325d565b38612bc0565b634e487b7160e01b8552604160045284fd5b634e487b7160e01b835260116004528583fd5b60405162461bcd60e51b81526020600482015260118187015270111d5c985d1a5bdb881c995c5d5a5c9959607a1b6044820152606490fd5b60405162461bcd60e51b815260206004820152600d818701526c151e5c19481c995c5d5a5c9959609a1b6044820152606490fd5b60405162461bcd60e51b8152602060048201526013818701527211985c9b595c881b9bdd081d995c9a599a5959606a1b6044820152606490fd5b8380fd5b503461026457806003193601126102645760206040517f68e79a7bf1e0bc45d0a330c573bc367f9cf464fd326078812f301165fbda4ef18152f35b503461026457602036600319011261026457600435612e8c6133be565b808252600c602052604082205415612eb7578152600c60205260408120600601805460ff1916905580f35b60405162461bcd60e51b815260206004820152601560248201527410d95c9d1a599a58d85d19481b9bdd08199bdd5b99605a1b6044820152606490fd5b9050346107aa5760203660031901126107aa5760043563ffffffff60e01b81168091036105d75760209250637965db0b60e01b8114908115612f38575b5015158152f35b6301ffc9a760e01b14905038612f31565b600435906001600160a01b0382168203612f5f57565b600080fd5b602435906001600160a01b0382168203612f5f57565b9181601f84011215612f5f578235916001600160401b038311612f5f5760208381860195010111612f5f57565b919082519283825260005b848110612fd3575050826000602080949584010152601f8019910116010190565b602081830181015184830182015201612fb2565b90600182811c92168015613017575b602083101461300157565b634e487b7160e01b600052602260045260246000fd5b91607f1691612ff6565b80546000939261303082612fe7565b918282526020936001916001811690816000146130985750600114613057575b5050505050565b90939495506000929192528360002092846000945b83861061308457505050500101903880808080613050565b80548587018301529401938590820161306c565b60ff19168685015250505090151560051b010191503880808080613050565b60e081019081106001600160401b038211176130d257604052565b634e487b7160e01b600052604160045260246000fd5b61012081019081106001600160401b038211176130d257604052565b61010081019081106001600160401b038211176130d257604052565b604081019081106001600160401b038211176130d257604052565b90601f801991011681019081106001600160401b038211176130d257604052565b602090602060408183019282815285518094520193019160005b828110613184575050505090565b835185529381019392810192600101613176565b80548210156131b05760005260206000200190600090565b634e487b7160e01b600052603260045260246000fd5b60001981146131d55760010190565b634e487b7160e01b600052601160045260246000fd5b818102929181159184041417156131d557565b919082018092116131d557565b6001600160401b0381116130d257601f01601f191660200190565b9291926132328261320b565b91613240604051938461313b565b829481845281830111612f5f578281602093846000960137010152565b818110613268575050565b6000815560010161325d565b8054600160401b8110156130d25761329191600182018155613198565b819291549060031b91821b91600019901b1916179055565b908060209392818452848401376000828201840152601f01601f1916010190565b919082039182116131d557565b90816020910312612f5f57518015158103612f5f5790565b156132f657565b60405162461bcd60e51b815260206004820152600f60248201526e151c985b9cd9995c8819985a5b1959608a1b6044820152606490fd5b6001600160401b0381116130d25760051b60200190565b1561334b57565b60405162461bcd60e51b8152602060048201526011602482015270125b9d985b1a59081c9958da5c1a595b9d607a1b6044820152606490fd5b1561338b57565b60405162461bcd60e51b815260206004820152600b60248201526a16995c9bc8185b5bdd5b9d60aa1b6044820152606490fd5b3360009081527f1da0b5176dfe03406af5a6eed66ca01dda9b45ac4da671c3fa379cb93717ef8160205260409020547f0ce23c3e399818cfee81a7ab0880f714e53d7672b08df0fa62f2843416e1ea099060ff1615611fa35750565b3360009081527fad3228b676f7d3cd4284a5443f17f1962b36e491b30a40b2405849e597ba5fb5602052604081205460ff1615611fa35750565b80600052600060205260406000203360005260205260ff6040600020541615611fa35750565b60026001541461348b576002600155565b604051633ee5aeb560e01b8152600490fd5b60ff600254166134a957565b60405163d93c066560e01b8152600490fd5b9060009180835282602052604083209160018060a01b03169182845260205260ff6040842054161560001461353457808352826020526040832082845260205260408320600160ff198254161790557f2f8788117e7eff1d82e926ec794901d17c78024a50270940304540a733656f0d339380a4600190565b505090565b9060009180835282602052604083209160018060a01b03169182845260205260ff6040842054166000146135345780835282602052604083208284526020526040832060ff1981541690557ff6391f5c32d9c69d2a47ea670b442974b53935d1edc7fd64eb21e047a839171b339380a460019056fea2646970667358221220948e97eb9bb87d9608ad3ec6e1ecb8c1e0298f9b040dac0e02cadde0e843c0ba64736f6c634300081600332f8788117e7eff1d82e926ec794901d17c78024a50270940304540a733656f0d",
  "linkReferences": {},
  "deployedLinkReferences": {}
}