{
  "_format": "hh-sol-artifact-1",
  "contractName": "KAIToken",
  "sourceName": "contracts/KAIToken.sol",
  "abi": [
    {
      "inputs": [
        {
          "internalType": "address",
          "name": "admin",
          "type": "address"
        },
        {
          "internalType": "address",
          "name": "treasury",
          "type": "address"
        }
      ],
      "stateMutability": "nonpayable",
      "type": "constructor"
    },
    {
      "inputs": [],
      "name": "AccessControlBadConfirmation",
      "type": "error"
    },
    {
      "inputs": [
        {
          "internalType": "address",
          "name": "account",
          "type": "address"
        },
        {
          "internalType": "bytes32",
          "name": "neededRole",
          "type": "bytes32"
        }
      ],
      "name": "AccessControlUnauthorizedAccount",
      "type": "error"
    },
    {
      "inputs": [
        {
          "internalType": "address",
          "name": "spender",
          "type": "address"
        },
        {
          "internalType": "uint256",
          "name": "allowance",
          "type": "uint256"
        },
        {
          "internalType": "uint256",
          "name": "needed",
          "type": "uint256"
        }
      ],
      "name": "ERC20InsufficientAllowance",
      "type": "error"
    },
    {
      "inputs": [
        {
          "internalType": "address",
          "name": "sender",
          "type": "address"
        },
        {
          "internalType": "uint256",
          "name": "balance",
          "type": "uint256"
        },
        {
          "internalType": "uint256",
          "name": "needed",
          "type": "uint256"
        }
      ],
      "name": "ERC20InsufficientBalance",
      "type": "error"
    },
    {
      "inputs": [
        {
          "internalType": "address",
          "name": "approver",
          "type": "address"
        }
      ],
      "name": "ERC20InvalidApprover",
      "type": "error"
    },
    {
      "inputs": [
        {
          "internalType": "address",
          "name": "receiver",
          "type": "address"
        }
      ],
      "name": "ERC20InvalidReceiver",
      "type": "error"
    },
    {
      "inputs": [
        {
          "internalType": "address",
          "name": "sender",
          "type": "address"
        }
      ],
      "name": "ERC20InvalidSender",
      "type": "error"
    },
    {
      "inputs": [
        {
          "internalType": "address",
          "name": "spender",
          "type": "address"
        }
      ],
      "name": "ERC20InvalidSpender",
      "type": "error"
    },
    {
      "inputs": [],
      "name": "EnforcedPause",
      "type": "error"
    },
    {
      "inputs": [],
      "name": "ExpectedPause",
      "type": "error"
    },
    {
      "anonymous": false,
      "inputs": [
        {
          "indexed": true,
          "internalType": "address",
          "name": "owner",
          "type": "address"
        },
        {
          "indexed": true,
          "internalType": "address",
          "name": "spender",
          "type": "address"
        },
        {
          "indexed": false,
          "internalType": "uint256",
          "name": "value",
          "type": "uint256"
        }
      ],
      "name": "Approval",
      "type": "event"
    },
    {
      "anonymous": false,
      "inputs": [
        {
          "indexed": true,
          "internalType": "uint8",
          "name": "pillarId",
          "type": "uint8"
        },
        {
          "indexed": true,
          "internalType": "address",
          "name": "recipient",
          "type": "address"
        },
        {
          "indexed": false,
          "internalType": "uint256",
          "name": "amount",
          "type": "uint256"
        }
      ],
      "name": "OracleTriggered",
      "type": "event"
    },
    {
      "anonymous": false,
      "inputs": [
        {
          "indexed": false,
          "internalType": "address",
          "name": "account",
          "type": "address"
        }
      ],
      "name": "Paused",
      "type": "event"
    },
    {
      "anonymous": false,
      "inputs": [
        {
          "indexed": true,
          "internalType": "address",
          "name": "user",
          "type": "address"
        },
        {
          "indexed": true,
          "internalType": "uint8",
          "name": "pillarId",
          "type": "uint8"
        },
        {
          "indexed": false,
          "internalType": "uint256",
          "name": "amount",
          "type": "uint256"
        },
        {
          "indexed": false,
          "internalType": "string",
          "name": "reason",
          "type": "string"
        }
      ],
      "name": "PillarBurn",
      "type": "event"
    },
    {
      "anonymous": false,
      "inputs": [
        {
          "indexed": true,
          "internalType": "bytes32",
          "name": "role",
          "type": "bytes32"
        },
        {
          "indexed": true,
          "internalType": "bytes32",
          "name": "previousAdminRole",
          "type": "bytes32"
        },
        {
          "indexed": true,
          "internalType": "bytes32",
          "name": "newAdminRole",
          "type": "bytes32"
        }
      ],
      "name": "RoleAdminChanged",
      "type": "event"
    },
    {
      "anonymous": false,
      "inputs": [
        {
          "indexed": true,
          "internalType": "bytes32",
          "name": "role",
          "type": "bytes32"
        },
        {
          "indexed": true,
          "internalType": "address",
          "name": "account",
          "type": "address"
        },
        {
          "indexed": true,
          "internalType": "address",
          "name": "sender",
          "type": "address"
        }
      ],
      "name": "RoleGranted",
      "type": "event"
    },
    {
      "anonymous": false,
      "inputs": [
        {
          "indexed": true,
          "internalType": "bytes32",
          "name": "role",
          "type": "bytes32"
        },
        {
          "indexed": true,
          "internalType": "address",
          "name": "account",
          "type": "address"
        },
        {
          "indexed": true,
          "internalType": "address",
          "name": "sender",
          "type": "address"
        }
      ],
      "name": "RoleRevoked",
      "type": "event"
    },
    {
      "anonymous": false,
      "inputs": [
        {
          "indexed": true,
          "internalType": "address",
          "name": "from",
          "type": "address"
        },
        {
          "indexed": true,
          "internalType": "address",
          "name": "to",
          "type": "address"
        },
        {
          "indexed": false,
          "internalType": "uint256",
          "name": "value",
          "type": "uint256"
        }
      ],
      "name": "Transfer",
      "type": "event"
    },
    {
      "anonymous": false,
      "inputs": [
        {
          "indexed": false,
          "internalType": "address",
          "name": "account",
          "type": "address"
        }
      ],
      "name": "Unpaused",
      "type": "event"
    },
    {
      "inputs": [],
      "name": "BURNER_ROLE",
      "outputs": [
        {
          "internalType": "bytes32",
          "name": "",
          "type": "bytes32"
        }
      ],
      "stateMutability": "view",
      "type": "function"
    },
    {
      "inputs": [],
      "name": "DEFAULT_ADMIN_ROLE",
      "outputs": [
        {
          "internalType": "bytes32",
          "name": "",
          "type": "bytes32"
        }
      ],
      "stateMutability": "view",
      "type": "function"
    },
    {
      "inputs": [],
      "name": "INITIAL_MINT",
      "outputs": [
        {
          "internalType": "uint256",
          "name": "",
          "type": "uint256"
        }
      ],
      "stateMutability": "view",
      "type": "function"
    },
    {
      "inputs": [],
      "name": "MAX_SUPPLY",
      "outputs": [
        {
          "internalType": "uint256",
          "name": "",
          "type": "uint256"
        }
      ],
      "stateMutability": "view",
      "type": "function"
    },
    {
      "inputs": [],
      "name": "MINTER_ROLE",
      "outputs": [
        {
          "internalType": "bytes32",
          "name": "",
          "type": "bytes32"
        }
      ],
      "stateMutability": "view",
      "type": "function"
    },
    {
      "inputs": [],
      "name": "ORACLE_ROLE",
      "outputs": [
        {
          "internalType": "bytes32",
          "name": "",
          "type": "bytes32"
        }
      ],
      "stateMutability": "view",
      "type": "function"
    },
    {
      "inputs": [],
      "name": "PAUSER_ROLE",
      "outputs": [
        {
          "internalType": "bytes32",
          "name": "",
          "type": "bytes32"
        }
      ],
      "stateMutability": "view",
      "type": "function"
    },
    {
      "inputs": [
        {
          "internalType": "address",
          "name": "owner",
          "type": "address"
        },
        {
          "internalType": "address",
          "name": "spender",
          "type": "address"
        }
      ],
      "name": "allowance",
      "outputs": [
        {
          "internalType": "uint256",
          "name": "",
          "type": "uint256"
        }
      ],
      "stateMutability": "view",
      "type": "function"
    },
    {
      "inputs": [
        {
          "internalType": "address",
          "name": "spender",
          "type": "address"
        },
        {
          "internalType": "uint256",
          "name": "value",
          "type": "uint256"
        }
      ],
      "name": "approve",
      "outputs": [
        {
          "internalType": "bool",
          "name": "",
          "type": "bool"
        }
      ],
      "stateMutability": "nonpayable",
      "type": "function"
    },
    {
      "inputs": [
        {
          "internalType": "address",
          "name": "account",
          "type": "address"
        }
      ],
      "name": "balanceOf",
      "outputs": [
        {
          "internalType": "uint256",
          "name": "",
          "type": "uint256"
        }
      ],
      "stateMutability": "view",
      "type": "function"
    },
    {
      "inputs": [
        {
          "internalType": "uint256",
          "name": "value",
          "type": "uint256"
        }
      ],
      "name": "burn",
      "outputs": [],
      "stateMutability": "nonpayable",
      "type": "function"
    },
    {
      "inputs": [
        {
          "internalType": "address",
          "name": "from",
          "type": "address"
        },
        {
          "internalType": "uint256",
          "name": "amount",
          "type": "uint256"
        },
        {
          "internalType": "uint8",
          "name": "pillarId",
          "type": "uint8"
        },
        {
          "internalType": "string",
          "name": "reason",
          "type": "string"
        }
      ],
      "name": "burnForPillar",
      "outputs": [],
      "stateMutability": "nonpayable",
      "type": "function"
    },
    {
      "inputs": [
        {
          "internalType": "address",
          "name": "account",
          "type": "address"
        },
        {
          "internalType": "uint256",
          "name": "value",
          "type": "uint256"
        }
      ],
      "name": "burnFrom",
      "outputs": [],
      "stateMutability": "nonpayable",
      "type": "function"
    },
    {
      "inputs": [
        {
          "internalType": "address",
          "name": "",
          "type": "address"
        }
      ],
      "name": "burnedByAddress",
      "outputs": [
        {
          "internalType": "uint256",
          "name": "",
          "type": "uint256"
        }
      ],
      "stateMutability": "view",
      "type": "function"
    },
    {
      "inputs": [],
      "name": "circulatingSupply",
      "outputs": [
        {
          "internalType": "uint256",
          "name": "",
          "type": "uint256"
        }
      ],
      "stateMutability": "view",
      "type": "function"
    },
    {
      "inputs": [],
      "name": "decimals",
      "outputs": [
        {
          "internalType": "uint8",
          "name": "",
          "type": "uint8"
        }
      ],
      "stateMutability": "view",
      "type": "function"
    },
    {
      "inputs": [
        {
          "internalType": "uint256",
          "name": "amount",
          "type": "uint256"
        },
        {
          "internalType": "uint8",
          "name": "pillarId",
          "type": "uint8"
        },
        {
          "internalType": "string",
          "name": "reason",
          "type": "string"
        }
      ],
      "name": "directBurn",
      "outputs": [],
      "stateMutability": "nonpayable",
      "type": "function"
    },
    {
      "inputs": [],
      "name": "getBurnStats",
      "outputs": [
        {
          "internalType": "uint256",
          "name": "_totalBurned",
          "type": "uint256"
        },
        {
          "internalType": "uint256",
          "name": "_totalSupply",
          "type": "uint256"
        },
        {
          "internalType": "uint256",
          "name": "_percentBurned",
          "type": "uint256"
        }
      ],
      "stateMutability": "view",
      "type": "function"
    },
    {
      "inputs": [
        {
          "internalType": "bytes32",
          "name": "role",
          "type": "bytes32"
        }
      ],
      "name": "getRoleAdmin",
      "outputs": [
        {
          "internalType": "bytes32",
          "name": "",
          "type": "bytes32"
        }
      ],
      "stateMutability": "view",
      "type": "function"
    },
    {
      "inputs": [
        {
          "internalType": "bytes32",
          "name": "role",
          "type": "bytes32"
        },
        {
          "internalType": "address",
          "name": "account",
          "type": "address"
        }
      ],
      "name": "grantRole",
      "outputs": [],
      "stateMutability": "nonpayable",
      "type": "function"
    },
    {
      "inputs": [
        {
          "internalType": "bytes32",
          "name": "role",
          "type": "bytes32"
        },
        {
          "internalType": "address",
          "name": "account",
          "type": "address"
        }
      ],
      "name": "hasRole",
      "outputs": [
        {
          "internalType": "bool",
          "name": "",
          "type": "bool"
        }
      ],
      "stateMutability": "view",
      "type": "function"
    },
    {
      "inputs": [],
      "name": "name",
      "outputs": [
        {
          "internalType": "string",
          "name": "",
          "type": "string"
        }
      ],
      "stateMutability": "view",
      "type": "function"
    },
    {
      "inputs": [
        {
          "internalType": "address",
          "name": "to",
          "type": "address"
        },
        {
          "internalType": "uint256",
          "name": "amount",
          "type": "uint256"
        },
        {
          "internalType": "uint8",
          "name": "pillarId",
          "type": "uint8"
        }
      ],
      "name": "oracleMint",
      "outputs": [],
      "stateMutability": "nonpayable",
      "type": "function"
    },
    {
      "inputs": [],
      "name": "pause",
      "outputs": [],
      "stateMutability": "nonpayable",
      "type": "function"
    },
    {
      "inputs": [],
      "name": "paused",
      "outputs": [
        {
          "internalType": "bool",
          "name": "",
          "type": "bool"
        }
      ],
      "stateMutability": "view",
      "type": "function"
    },
    {
      "inputs": [
        {
          "internalType": "uint8",
          "name": "",
          "type": "uint8"
        }
      ],
      "name": "pillarBurnRates",
      "outputs": [
        {
          "internalType": "uint16",
          "name": "",
          "type": "uint16"
        }
      ],
      "stateMutability": "view",
      "type": "function"
    },
    {
      "inputs": [
        {
          "internalType": "bytes32",
          "name": "role",
          "type": "bytes32"
        },
        {
          "internalType": "address",
          "name": "callerConfirmation",
          "type": "address"
        }
      ],
      "name": "renounceRole",
      "outputs": [],
      "stateMutability": "nonpayable",
      "type": "function"
    },
    {
      "inputs": [
        {
          "internalType": "bytes32",
          "name": "role",
          "type": "bytes32"
        },
        {
          "internalType": "address",
          "name": "account",
          "type": "address"
        }
      ],
      "name": "revokeRole",
      "outputs": [],
      "stateMutability": "nonpayable",
      "type": "function"
    },
    {
      "inputs": [
        {
          "internalType": "bytes4",
          "name": "interfaceId",
          "type": "bytes4"
        }
      ],
      "name": "supportsInterface",
      "outputs": [
        {
          "internalType": "bool",
          "name": "",
          "type": "bool"
        }
      ],
      "stateMutability": "view",
      "type": "function"
    },
    {
      "inputs": [],
      "name": "symbol",
      "outputs": [
        {
          "internalType": "string",
          "name": "",
          "type": "string"
        }
      ],
      "stateMutability": "view",
      "type": "function"
    },
    {
      "inputs": [],
      "name": "totalBurned",
      "outputs": [
        {
          "internalType": "uint256",
          "name": "",
          "type": "uint256"
        }
      ],
      "stateMutability": "view",
      "type": "function"
    },
    {
      "inputs": [],
      "name": "totalSupply",
      "outputs": [
        {
          "internalType": "uint256",
          "name": "",
          "type": "uint256"
        }
      ],
      "stateMutability": "view",
      "type": "function"
    },
    {
      "inputs": [
        {
          "internalType": "address",
          "name": "to",
          "type": "address"
        },
        {
          "internalType": "uint256",
          "name": "value",
          "type": "uint256"
        }
      ],
      "name": "transfer",
      "outputs": [
        {
          "internalType": "bool",
          "name": "",
          "type": "bool"
        }
      ],
      "stateMutability": "nonpayable",
      "type": "function"
    },
    {
      "inputs": [
        {
          "internalType": "address",
          "name": "from",
          "type": "address"
        },
        {
          "internalType": "address",
          "name": "to",
          "type": "address"
        },
        {
          "internalType": "uint256",
          "name": "value",
          "type": "uint256"
        }
      ],
      "name": "transferFrom",
      "outputs": [
        {
          "internalType": "bool",
          "name": "",
          "type": "bool"
        }
      ],
      "stateMutability": "nonpayable",
      "type": "function"
    },
    {
      "inputs": [],
      "name": "unpause",
      "outputs": [],
      "stateMutability": "nonpayable",
      "type": "function"
    },
    {
      "inputs": [
        {
          "internalType": "uint8",
          "name": "pillarId",
          "type": "uint8"
        },
        {
          "internalType": "uint16",
          "name": "newRate",
          "type": "uint16"
        }
      ],
      "name": "updatePillarBurnRate",
      "outputs": [],
      "stateMutability": "nonpayable",
      "type": "function"
    }
  ],
  "bytecode": "0x608034620005385762001e88906001600160401b0390601f19601f388590038181018316840190858211858310176200043a5780859160409889948552833981010312620005385762000052836200055d565b936200006260208095016200055d565b6200006c6200053d565b91600883526725a0a49021b7b4b760c11b868401526200008b6200053d565b93600394858152624b414960e81b8882015284518381116200043a5786546001968782811c921680156200052d575b8b83101462000517578185849311620004c1575b508a908583116001146200045c5760009262000450575b505060001982891b1c191690861b1786555b80519283116200043a5760049687548681811c911680156200042f575b8a8210146200041a579081848695949311620003c0575b50899284116001146200035c575060009262000350575b505060001982861b1c191690831b1784555b6001600160a01b0390868216156200030d5716948515620002ca57806200017f620001aa9262000572565b506200018b81620005f3565b50620001978162000696565b50620001a38162000734565b50620007d2565b5060005260098352846000209061ffff19916103e8838254161790556002600052856000206101f483825416179055600052846000206105dc82825416179055816000528460002060c882825416179055600560005284600020610320828254161790556006600052846000206104b0828254161790556007600052610258856000209182541617905560ff60055416620002bc576002546b014adf4b7320334b9000000091828201809211620002a7575060025560008381528083528481208054830190558451918252917fddf252ad1be2c89b69c2b068fc378daa952ba7f163c4a11628f55a4df523b3ef91a3516115f79081620008718239f35b601190634e487b7160e01b6000525260246000fd5b835163d93c066560e01b8152fd5b865162461bcd60e51b8152808501869052601d60248201527f4b41493a207472656173757279206973207a65726f20616464726573730000006044820152606490fd5b875162461bcd60e51b8152808601879052601a60248201527f4b41493a2061646d696e206973207a65726f20616464726573730000000000006044820152606490fd5b01519050388062000142565b8694929192169188600052896000209260005b8b828210620003a9575050841162000390575b505050811b01845562000154565b015160001983881b60f8161c1916905538808062000382565b83850151865589979095019493840193016200036f565b909192935088600052896000208480870160051c8201928c881062000410575b9187968a92969594930160051c01915b828110620004005750506200012b565b60008155879650899101620003f0565b92508192620003e0565b602289634e487b7160e01b6000525260246000fd5b90607f169062000114565b634e487b7160e01b600052604160045260246000fd5b015190503880620000e5565b908a899416918a6000528c600020928d6000905b828210620004a9575050841162000490575b505050811b018655620000f7565b0151600019838b1b60f8161c1916905538808062000482565b8385015186558c979095019493840193018e62000470565b909150886000528a6000208580850160051c8201928d86106200050d575b918a91869594930160051c01915b828110620004fd575050620000ce565b600081558594508a9101620004ed565b92508192620004df565b634e487b7160e01b600052602260045260246000fd5b91607f1691620000ba565b600080fd5b60408051919082016001600160401b038111838210176200043a57604052565b51906001600160a01b03821682036200053857565b6001600160a01b031660008181527f54cdd369e4e8a8515e52ca72ec816c2101831ad1f18bf44102ed171459c9b4f8602052604081205490919060ff16620005ef5781805260066020526040822081835260205260408220600160ff19825416179055339160008051602062001e688339815191528180a4600190565b5090565b6001600160a01b031660008181527fe09f975e15f8f53f24cbbc282b13c40b84df485fcdb8d3997fa103dc5a4ef84160205260408120549091907f65d7a28e3265b37a6474929f336521b332c1681b933f6cb9f3376673440d862a9060ff16620006915780835260066020526040832082845260205260408320600160ff1982541617905560008051602062001e68833981519152339380a4600190565b505090565b6001600160a01b031660008181527f3195c024b2ddd6d9b8f6c836aa52f67fe69376c8903d009b80229b3ce4425f5160205260408120549091907f9f2df0fed2c77648de5860a4cc508cd0818c85b8b8a1ab4ceeef8d981c8956a69060ff16620006915780835260066020526040832082845260205260408320600160ff1982541617905560008051602062001e68833981519152339380a4600190565b6001600160a01b031660008181527f42d20fd6db25ea5a8e33f43724ad72f2ebd9488257fa78c86176b8175fc383fa60205260408120549091907f3c11d16cbaffd01df69ce1c404f6340ee057498f5f00246190ea54220576a8489060ff16620006915780835260066020526040832082845260205260408320600160ff1982541617905560008051602062001e68833981519152339380a4600190565b6001600160a01b031660008181527f2e40e14903d2c9bef53a85461d810c3ece12252634274bd2dc3297e6c6441e9e60205260408120549091907f68e79a7bf1e0bc45d0a330c573bc367f9cf464fd326078812f301165fbda4ef19060ff16620006915780835260066020526040832082845260205260408320600160ff1982541617905560008051602062001e68833981519152339380a460019056fe608060408181526004918236101561001657600080fd5b600092833560e01c91826301ffc9a714610f145750816303a5432514610e2757816306fdde0314610d4d57816307e2cea514610d12578163095ea7b314610c6857816316ff1ff714610b6a57816318160ddd1461049c57816323b872dd14610b2d578163248a9ca314610b02578163282c51f314610ac75781632f2ff15d14610a9d5781632f37ea7a14610a39578163313ce56714610a1d57816332cb6b0c146109f657816336568abe146109b05781633f4ba83a1461094657816342966c681461092857816354156bd11461076f578163573f78f31461073a5781635c975abb1461071657816370a08231146106df57816378e8e7ea1461059357816379cc67901461055d5781638456cb591461050257816391d14854146104bb5781639358928b1461049c57816395d89b411461037d578163a217fddf14610362578163a9059cbb14610331578163ca7df92c1461030a578163d5391393146102cf578163d547741f1461028b57508063d89135cd1461026d578063dd62ed3e14610225578063e55c07c5146101ee5763e63ab1e9146101b157600080fd5b346101ea57816003193601126101ea57602090517f65d7a28e3265b37a6474929f336521b332c1681b933f6cb9f3376673440d862a8152f35b5080fd5b50346101ea5760203660031901126101ea5760209181906001600160a01b03610215610fd5565b1681526008845220549051908152f35b50346101ea57806003193601126101ea5780602092610242610fd5565b61024a610feb565b6001600160a01b0391821683526001865283832091168252845220549051908152f35b50346101ea57816003193601126101ea576020906007549051908152f35b919050346102cb57806003193601126102cb576102c791356102c260016102b0610feb565b93838752600660205286200154611105565b6111ab565b5080f35b8280fd5b5050346101ea57816003193601126101ea57602090517f9f2df0fed2c77648de5860a4cc508cd0818c85b8b8a1ab4ceeef8d981c8956a68152f35b5050346101ea57816003193601126101ea57602090516b014adf4b7320334b900000008152f35b5050346101ea57806003193601126101ea5760209061035b610351610fd5565b6024359033611222565b5160018152f35b5050346101ea57816003193601126101ea5751908152602090f35b8383346101ea57816003193601126101ea57805190828454600181811c90808316928315610492575b602093848410811461047f57838852908115610463575060011461040e575b505050829003601f01601f191682019267ffffffffffffffff8411838510176103fb57508291826103f7925282610f8c565b0390f35b634e487b7160e01b815260418552602490fd5b8787529192508591837f8a35acfbc15ff81a39ae7d344fd709f28e8600b4aa8c65c6b64bfe7fe36bd19b5b83851061044f57505050508301018580806103c5565b805488860183015293019284908201610439565b60ff1916878501525050151560051b84010190508580806103c5565b634e487b7160e01b895260228a52602489fd5b91607f16916103a6565b5050346101ea57816003193601126101ea576020906002549051908152f35b9050346102cb57816003193601126102cb578160209360ff926104dc610feb565b90358252600686528282206001600160a01b039091168252855220549151911615158152f35b5050346101ea57816003193601126101ea5760207f62e78cea01bee320cd4e420270b5ea74000d11b0c9f74754ebdbfc544b05a258916105406110a9565b6105486115a3565b600160ff19600554161760055551338152a180f35b5050346101ea573660031901126105905761058d610579610fd5565b60243590610588823383611308565b6113db565b80f35b80fd5b8383346101ea5760803660031901126101ea576105ae610fd5565b602435906105ba610f7c565b9060643567ffffffffffffffff81116106db576105dc60ff9136908901611001565b9190936105e761102f565b6105ef6115a3565b16946001861015806106d0575b61060590611482565b84159461061286156114c4565b60018060a01b038416958689528860205261063282848b20541015611506565b878952600960205261ffff838a2054168083029283041417156106bd57916106b7916106866127107f928722a07342aa9954683218c9ea873a610158e3dcab785d38da48abb8ea96219796950480956113db565b61069284600754611552565b60075586895260086020528089206106ab858254611552565b90555193849384611575565b0390a380f35b634e487b7160e01b885260118952602488fd5b5060078611156105fc565b8580fd5b5050346101ea5760203660031901126101ea5760209181906001600160a01b03610707610fd5565b16815280845220549051908152f35b5050346101ea57816003193601126101ea5760209060ff6005541690519015158152f35b5050346101ea5760203660031901126101ea5761ffff8160209360ff61075e610f67565b168152600985522054169051908152f35b919050346102cb5760603660031901126102cb5761078b610fd5565b90602435610797610f7c565b917f68e79a7bf1e0bc45d0a330c573bc367f9cf464fd326078812f301165fbda4ef19283875260209360068552828820338952855260ff83892054161561090a575060ff906107e46115a3565b16936001851015806108ff575b6107fa90611482565b600254906b033b2e3c9fd0803ce80000006108158584611552565b116108bc576001600160a01b03169586156108a5575090610861837f11fee935d6434618f69c608aaced54549a5c59a10f3fc50e740e308ed3aa46e595949361085c6115a3565b611552565b60025585875286835280872082815401905585877fddf252ad1be2c89b69c2b068fc378daa952ba7f163c4a11628f55a4df523b3ef858451868152a351908152a380f35b825163ec442f0560e01b8152908101889052602490fd5b825162461bcd60e51b8152808801869052601860248201527f4b41493a206d617820737570706c7920657863656564656400000000000000006044820152606490fd5b5060078511156107f1565b825163e2517d3f60e01b815233818901526024810191909152604490fd5b8390346101ea5760203660031901126101ea5761058d9035336113db565b9050346102cb57826003193601126102cb576109606110a9565b6005549060ff8216156109a2575060ff1916600555513381527f5db9ee0a495bf2e6ff9c91a7834c1ba4fdd244a5e8aa4e537bd38aeae4b073aa90602090a180f35b8251638dfc202b60e01b8152fd5b8383346101ea57806003193601126101ea576109ca610feb565b90336001600160a01b038316036109e757506102c79192356111ab565b5163334bd91960e11b81528390fd5b5050346101ea57816003193601126101ea57602090516b033b2e3c9fd0803ce80000008152f35b5050346101ea57816003193601126101ea576020905160128152f35b8383346101ea57816003193601126101ea576007549160025461271091828502928584041485151715610a8a57606085856b014adf4b7320334b900000008686835194855260208501520490820152f35b634e487b7160e01b815260118652602490fd5b919050346102cb57806003193601126102cb576102c79135610ac260016102b0610feb565b61112b565b5050346101ea57816003193601126101ea57602090517f3c11d16cbaffd01df69ce1c404f6340ee057498f5f00246190ea54220576a8488152f35b9050346102cb5760203660031901126102cb5781602093600192358152600685522001549051908152f35b5050346101ea5760603660031901126101ea5760209061035b610b4e610fd5565b610b56610feb565b60443591610b65833383611308565b611222565b919050346102cb5760603660031901126102cb578135906024359260ff8416809403610c64576044359167ffffffffffffffff83116106db57610bd46106b7927f928722a07342aa9954683218c9ea873a610158e3dcab785d38da48abb8ea962194369101611001565b929091610bdf61102f565b610be76115a3565b600187101580610c59575b610bfb90611482565b610c068615156114c4565b33885287602052610c1c86828a20541015611506565b610c2686336113db565b610c3286600754611552565b6007553388526008602052808820610c4b878254611552565b905551928392339684611575565b506007871115610bf2565b8480fd5b9050346102cb57816003193601126102cb57610c82610fd5565b602435903315610cfb576001600160a01b0316918215610ce457508083602095338152600187528181208582528752205582519081527f8c5be1e5ebec7d5bd14f71427d1e84f3dd0314c0f7b2291e5b200ac8c7c3b925843392a35160018152f35b8351634a1406b160e11b8152908101859052602490fd5b835163e602df0560e01b8152808401869052602490fd5b5050346101ea57816003193601126101ea57602090517f68e79a7bf1e0bc45d0a330c573bc367f9cf464fd326078812f301165fbda4ef18152f35b8383346101ea57816003193601126101ea5780519082600354600181811c90808316928315610e1d575b602093848410811461047f578388529081156104635750600114610dc757505050829003601f01601f191682019267ffffffffffffffff8411838510176103fb57508291826103f7925282610f8c565b600387529192508591837fc2575a0e9e593c00f959f8c92f12db2869c3395a3b0502d05e2516446f71f85b5b838510610e0957505050508301018580806103c5565b805488860183015293019284908201610df3565b91607f1691610d77565b919050346102cb57806003193601126102cb57610e42610f67565b916024359261ffff8416809403610c6457848052600660205282852033865260205260ff838620541615610ef75760ff1690600182101580610eec575b610e8890611482565b6113888411610ea957508352600960205282209061ffff1982541617905580f35b606490602084519162461bcd60e51b8352820152601760248201527f4b41493a206275726e207261746520746f6f20686967680000000000000000006044820152fd5b506007821115610e7f565b5083604492519163e2517d3f60e01b835233908301526024820152fd5b8491346102cb5760203660031901126102cb573563ffffffff60e01b81168091036102cb5760209250637965db0b60e01b8114908115610f56575b5015158152f35b6301ffc9a760e01b14905083610f4f565b6004359060ff82168203610f7757565b600080fd5b6044359060ff82168203610f7757565b6020808252825181830181905290939260005b828110610fc157505060409293506000838284010152601f8019910116010190565b818101860151848201604001528501610f9f565b600435906001600160a01b0382168203610f7757565b602435906001600160a01b0382168203610f7757565b9181601f84011215610f775782359167ffffffffffffffff8311610f775760208381860195010111610f7757565b3360009081527f42d20fd6db25ea5a8e33f43724ad72f2ebd9488257fa78c86176b8175fc383fa60205260409020547f3c11d16cbaffd01df69ce1c404f6340ee057498f5f00246190ea54220576a8489060ff161561108b5750565b6044906040519063e2517d3f60e01b82523360048301526024820152fd5b3360009081527fe09f975e15f8f53f24cbbc282b13c40b84df485fcdb8d3997fa103dc5a4ef84160205260409020547f65d7a28e3265b37a6474929f336521b332c1681b933f6cb9f3376673440d862a9060ff161561108b5750565b80600052600660205260406000203360005260205260ff604060002054161561108b5750565b906000918083526006602052604083209160018060a01b03169182845260205260ff604084205416156000146111a65780835260066020526040832082845260205260408320600160ff198254161790557f2f8788117e7eff1d82e926ec794901d17c78024a50270940304540a733656f0d339380a4600190565b505090565b906000918083526006602052604083209160018060a01b03169182845260205260ff6040842054166000146111a6578083526006602052604083208284526020526040832060ff1981541690557ff6391f5c32d9c69d2a47ea670b442974b53935d1edc7fd64eb21e047a839171b339380a4600190565b916001600160a01b038084169283156112ef57169283156112d6576112456115a3565b600090838252816020526040822054908382106112a4575091604082827fddf252ad1be2c89b69c2b068fc378daa952ba7f163c4a11628f55a4df523b3ef958760209652828652038282205586815220818154019055604051908152a3565b60405163391434e360e21b81526001600160a01b03919091166004820152602481019190915260448101839052606490fd5b60405163ec442f0560e01b815260006004820152602490fd5b604051634b637e8f60e11b815260006004820152602490fd5b9160018060a01b038093169160009383855260016020526040938486209183169182875260205284862054926000198410611347575b50505050505050565b8484106113ab5750801561139357811561137b5785526001602052838520908552602052039120553880808080808061133e565b8451634a1406b160e11b815260048101879052602490fd5b845163e602df0560e01b815260048101879052602490fd5b8551637dc7a0d960e11b81526001600160a01b039190911660048201526024810184905260448101859052606490fd5b906001600160a01b0382169081156112ef576113f56115a3565b600092828452836020526040842054908282106114505750817fddf252ad1be2c89b69c2b068fc378daa952ba7f163c4a11628f55a4df523b3ef926020928587528684520360408620558060025403600255604051908152a3565b60405163391434e360e21b81526001600160a01b03919091166004820152602481019190915260448101829052606490fd5b1561148957565b60405162461bcd60e51b815260206004820152601360248201527225a0a49d1034b73b30b634b2103834b63630b960691b6044820152606490fd5b156114cb57565b60405162461bcd60e51b81526020600482015260136024820152724b41493a20616d6f756e74206973207a65726f60681b6044820152606490fd5b1561150d57565b60405162461bcd60e51b815260206004820152601960248201527f4b41493a20696e73756666696369656e742062616c616e6365000000000000006044820152606490fd5b9190820180921161155f57565b634e487b7160e01b600052601160045260246000fd5b91926060938192845260406020850152816040850152848401376000828201840152601f01601f1916010190565b60ff600554166115af57565b60405163d93c066560e01b8152600490fdfea2646970667358221220dd3e55ddb34acc8a470eeb81e680c955b4a4b22f9b805eb44cd799dd395e046664736f6c634300081400332f8788117e7eff1d82e926ec794901d17c78024a50270940304540a733656f0d",
  "linkReferences": {},
  "deployedLinkReferences": {}
}