{
  "_format": "hh-sol-artifact-1",
  "contractName": "KAIToken",
  "sourceName": "contracts/KAIToken.sol",
  "abi": [
    {
      "inputs": [
        {
          "internalType": "address",
          "name": "admin",
          "type": "address"
        },
        {
          "internalType": "address",
          "name": "treasury",
          "type": "address"
        }
      ],
      "stateMutability": "nonpayable",
      "type": "constructor"
    },
    {
      "inputs": [],
      "name": "AccessControlBadConfirmation",
      "type": "error"
    },
    {
      "inputs": [
        {
          "internalType": "address",
          "name": "account",
          "type": "address"
        },
        {
          "internalType": "bytes32",
          "name": "neededRole",
          "type": "bytes32"
        }
      ],
      "name": "AccessControlUnauthorizedAccount",
      "type": "error"
    },
    {
      "inputs": [
        {
          "internalType": "address",
          "name": "spender",
          "type": "address"
        },
        {
          "internalType": "uint256",
          "name": "allowance",
          "type": "uint256"
        },
        {
          "internalType": "uint256",
          "name": "needed",
          "type": "uint256"
        }
      ],
      "name": "ERC20InsufficientAllowance",
      "type": "error"
    },
    {
      "inputs": [
        {
          "internalType": "address",
          "name": "sender",
          "type": "address"
        },
        {
          "internalType": "uint256",
          "name": "balance",
          "type": "uint256"
        },
        {
          "internalType": "uint256",
          "name": "needed",
          "type": "uint256"
        }
      ],
      "name": "ERC20InsufficientBalance",
      "type": "error"
    },
    {
      "inputs": [
        {
          "internalType": "address",
          "name": "approver",
          "type": "address"
        }
      ],
      "name": "ERC20InvalidApprover",
      "type": "error"
    },
    {
      "inputs": [
        {
          "internalType": "address",
          "name": "receiver",
          "type": "address"
        }
      ],
      "name": "ERC20InvalidReceiver",
      "type": "error"
    },
    {
      "inputs": [
        {
          "internalType": "address",
          "name": "sender",
          "type": "address"
        }
      ],
      "name": "ERC20InvalidSender",
      "type": "error"
    },
    {
      "inputs": [
        {
          "internalType": "address",
          "name": "spender",
          "type": "address"
        }
      ],
      "name": "ERC20InvalidSpender",
      "type": "error"
    },
    {
      "inputs": [],
      "name": "EnforcedPause",
      "type": "error"
    },
    {
      "inputs": [],
      "name": "ExpectedPause",
      "type": "error"
    },
    {
      "anonymous": false,
      "inputs": [
        {
          "indexed": true,
          "internalType": "address",
          "name": "owner",
          "type": "address"
        },
        {
          "indexed": true,
          "internalType": "address",
          "name": "spender",
          "type": "address"
        },
        {
          "indexed": false,
          "internalType": "uint256",
          "name": "value",
          "type": "uint256"
        }
      ],
      "name": "Approval",
      "type": "event"
    },
    {
      "anonymous": false,
      "inputs": [
        {
          "indexed": true,
          "internalType": "uint8",
          "name": "pillarId",
          "type": "uint8"
        },
        {
          "indexed": true,
          "internalType": "address",
          "name": "recipient",
          "type": "address"
        },
        {
          "indexed": false,
          "internalType": "uint256",
          "name": "amount",
          "type": "uint256"
        }
      ],
      "name": "OracleTriggered",
      "type": "event"
    },
    {
      "anonymous": false,
      "inputs": [
        {
          "indexed": false,
          "internalType": "address",
          "name": "account",
          "type": "address"
        }
      ],
      "name": "Paused",
      "type": "event"
    },
    {
      "anonymous": false,
      "inputs": [
        {
          "indexed": true,
          "internalType": "address",
          "name": "user",
          "type": "address"
        },
        {
          "indexed": true,
          "internalType": "uint8",
          "name": "pillarId",
          "type": "uint8"
        },
        {
          "indexed": false,
          "internalType": "uint256",
          "name": "amount",
          "type": "uint256"
        },
        {
          "indexed": false,
          "internalType": "string",
          "name": "reason",
          "type": "string"
        }
      ],
      "name": "PillarBurn",
      "type": "event"
    },
    {
      "anonymous": false,
      "inputs": [
        {
          "indexed": true,
          "internalType": "bytes32",
          "name": "role",
          "type": "bytes32"
        },
        {
          "indexed": true,
          "internalType": "bytes32",
          "name": "previousAdminRole",
          "type": "bytes32"
        },
        {
          "indexed": true,
          "internalType": "bytes32",
          "name": "newAdminRole",
          "type": "bytes32"
        }
      ],
      "name": "RoleAdminChanged",
      "type": "event"
    },
    {
      "anonymous": false,
      "inputs": [
        {
          "indexed": true,
          "internalType": "bytes32",
          "name": "role",
          "type": "bytes32"
        },
        {
          "indexed": true,
          "internalType": "address",
          "name": "account",
          "type": "address"
        },
        {
          "indexed": true,
          "internalType": "address",
          "name": "sender",
          "type": "address"
        }
      ],
      "name": "RoleGranted",
      "type": "event"
    },
    {
      "anonymous": false,
      "inputs": [
        {
          "indexed": true,
          "internalType": "bytes32",
          "name": "role",
          "type": "bytes32"
        },
        {
          "indexed": true,
          "internalType": "address",
          "name": "account",
          "type": "address"
        },
        {
          "indexed": true,
          "internalType": "address",
          "name": "sender",
          "type": "address"
        }
      ],
      "name": "RoleRevoked",
      "type": "event"
    },
    {
      "anonymous": false,
      "inputs": [
        {
          "indexed": true,
          "internalType": "address",
          "name": "from",
          "type": "address"
        },
        {
          "indexed": true,
          "internalType": "address",
          "name": "to",
          "type": "address"
        },
        {
          "indexed": false,
          "internalType": "uint256",
          "name": "value",
          "type": "uint256"
        }
      ],
      "name": "Transfer",
      "type": "event"
    },
    {
      "anonymous": false,
      "inputs": [
        {
          "indexed": false,
          "internalType": "address",
          "name": "account",
          "type": "address"
        }
      ],
      "name": "Unpaused",
      "type": "event"
    },
    {
      "inputs": [],
      "name": "BURNER_ROLE",
      "outputs": [
        {
          "internalType": "bytes32",
          "name": "",
          "type": "bytes32"
        }
      ],
      "stateMutability": "view",
      "type": "function"
    },
    {
      "inputs": [],
      "name": "DEFAULT_ADMIN_ROLE",
      "outputs": [
        {
          "internalType": "bytes32",
          "name": "",
          "type": "bytes32"
        }
      ],
      "stateMutability": "view",
      "type": "function"
    },
    {
      "inputs": [],
      "name": "INITIAL_MINT",
      "outputs": [
        {
          "internalType": "uint256",
          "name": "",
          "type": "uint256"
        }
      ],
      "stateMutability": "view",
      "type": "function"
    },
    {
      "inputs": [],
      "name": "MAX_SUPPLY",
      "outputs": [
        {
          "internalType": "uint256",
          "name": "",
          "type": "uint256"
        }
      ],
      "stateMutability": "view",
      "type": "function"
    },
    {
      "inputs": [],
      "name": "MINTER_ROLE",
      "outputs": [
        {
          "internalType": "bytes32",
          "name": "",
          "type": "bytes32"
        }
      ],
      "stateMutability": "view",
      "type": "function"
    },
    {
      "inputs": [],
      "name": "ORACLE_MINT_LIMIT_PER_DAY",
      "outputs": [
        {
          "internalType": "uint256",
          "name": "",
          "type": "uint256"
        }
      ],
      "stateMutability": "view",
      "type": "function"
    },
    {
      "inputs": [],
      "name": "ORACLE_ROLE",
      "outputs": [
        {
          "internalType": "bytes32",
          "name": "",
          "type": "bytes32"
        }
      ],
      "stateMutability": "view",
      "type": "function"
    },
    {
      "inputs": [],
      "name": "PAUSER_ROLE",
      "outputs": [
        {
          "internalType": "bytes32",
          "name": "",
          "type": "bytes32"
        }
      ],
      "stateMutability": "view",
      "type": "function"
    },
    {
      "inputs": [
        {
          "internalType": "address",
          "name": "owner",
          "type": "address"
        },
        {
          "internalType": "address",
          "name": "spender",
          "type": "address"
        }
      ],
      "name": "allowance",
      "outputs": [
        {
          "internalType": "uint256",
          "name": "",
          "type": "uint256"
        }
      ],
      "stateMutability": "view",
      "type": "function"
    },
    {
      "inputs": [
        {
          "internalType": "address",
          "name": "spender",
          "type": "address"
        },
        {
          "internalType": "uint256",
          "name": "value",
          "type": "uint256"
        }
      ],
      "name": "approve",
      "outputs": [
        {
          "internalType": "bool",
          "name": "",
          "type": "bool"
        }
      ],
      "stateMutability": "nonpayable",
      "type": "function"
    },
    {
      "inputs": [
        {
          "internalType": "address",
          "name": "account",
          "type": "address"
        }
      ],
      "name": "balanceOf",
      "outputs": [
        {
          "internalType": "uint256",
          "name": "",
          "type": "uint256"
        }
      ],
      "stateMutability": "view",
      "type": "function"
    },
    {
      "inputs": [
        {
          "internalType": "uint256",
          "name": "value",
          "type": "uint256"
        }
      ],
      "name": "burn",
      "outputs": [],
      "stateMutability": "nonpayable",
      "type": "function"
    },
    {
      "inputs": [
        {
          "internalType": "address",
          "name": "from",
          "type": "address"
        },
        {
          "internalType": "uint256",
          "name": "amount",
          "type": "uint256"
        },
        {
          "internalType": "uint8",
          "name": "pillarId",
          "type": "uint8"
        },
        {
          "internalType": "string",
          "name": "reason",
          "type": "string"
        }
      ],
      "name": "burnForPillar",
      "outputs": [],
      "stateMutability": "nonpayable",
      "type": "function"
    },
    {
      "inputs": [
        {
          "internalType": "address",
          "name": "account",
          "type": "address"
        },
        {
          "internalType": "uint256",
          "name": "value",
          "type": "uint256"
        }
      ],
      "name": "burnFrom",
      "outputs": [],
      "stateMutability": "nonpayable",
      "type": "function"
    },
    {
      "inputs": [
        {
          "internalType": "address",
          "name": "",
          "type": "address"
        }
      ],
      "name": "burnedByAddress",
      "outputs": [
        {
          "internalType": "uint256",
          "name": "",
          "type": "uint256"
        }
      ],
      "stateMutability": "view",
      "type": "function"
    },
    {
      "inputs": [],
      "name": "circulatingSupply",
      "outputs": [
        {
          "internalType": "uint256",
          "name": "",
          "type": "uint256"
        }
      ],
      "stateMutability": "view",
      "type": "function"
    },
    {
      "inputs": [
        {
          "internalType": "uint256",
          "name": "",
          "type": "uint256"
        }
      ],
      "name": "dailyOracleMints",
      "outputs": [
        {
          "internalType": "uint256",
          "name": "",
          "type": "uint256"
        }
      ],
      "stateMutability": "view",
      "type": "function"
    },
    {
      "inputs": [],
      "name": "decimals",
      "outputs": [
        {
          "internalType": "uint8",
          "name": "",
          "type": "uint8"
        }
      ],
      "stateMutability": "view",
      "type": "function"
    },
    {
      "inputs": [
        {
          "internalType": "uint256",
          "name": "amount",
          "type": "uint256"
        },
        {
          "internalType": "uint8",
          "name": "pillarId",
          "type": "uint8"
        },
        {
          "internalType": "string",
          "name": "reason",
          "type": "string"
        }
      ],
      "name": "directBurn",
      "outputs": [],
      "stateMutability": "nonpayable",
      "type": "function"
    },
    {
      "inputs": [],
      "name": "getBurnStats",
      "outputs": [
        {
          "internalType": "uint256",
          "name": "_totalBurned",
          "type": "uint256"
        },
        {
          "internalType": "uint256",
          "name": "_totalSupply",
          "type": "uint256"
        },
        {
          "internalType": "uint256",
          "name": "_percentBurned",
          "type": "uint256"
        }
      ],
      "stateMutability": "view",
      "type": "function"
    },
    {
      "inputs": [
        {
          "internalType": "bytes32",
          "name": "role",
          "type": "bytes32"
        }
      ],
      "name": "getRoleAdmin",
      "outputs": [
        {
          "internalType": "bytes32",
          "name": "",
          "type": "bytes32"
        }
      ],
      "stateMutability": "view",
      "type": "function"
    },
    {
      "inputs": [
        {
          "internalType": "bytes32",
          "name": "role",
          "type": "bytes32"
        },
        {
          "internalType": "address",
          "name": "account",
          "type": "address"
        }
      ],
      "name": "grantRole",
      "outputs": [],
      "stateMutability": "nonpayable",
      "type": "function"
    },
    {
      "inputs": [
        {
          "internalType": "bytes32",
          "name": "role",
          "type": "bytes32"
        },
        {
          "internalType": "address",
          "name": "account",
          "type": "address"
        }
      ],
      "name": "hasRole",
      "outputs": [
        {
          "internalType": "bool",
          "name": "",
          "type": "bool"
        }
      ],
      "stateMutability": "view",
      "type": "function"
    },
    {
      "inputs": [],
      "name": "name",
      "outputs": [
        {
          "internalType": "string",
          "name": "",
          "type": "string"
        }
      ],
      "stateMutability": "view",
      "type": "function"
    },
    {
      "inputs": [
        {
          "internalType": "address",
          "name": "to",
          "type": "address"
        },
        {
          "internalType": "uint256",
          "name": "amount",
          "type": "uint256"
        },
        {
          "internalType": "uint8",
          "name": "pillarId",
          "type": "uint8"
        }
      ],
      "name": "oracleMint",
      "outputs": [],
      "stateMutability": "nonpayable",
      "type": "function"
    },
    {
      "inputs": [],
      "name": "pause",
      "outputs": [],
      "stateMutability": "nonpayable",
      "type": "function"
    },
    {
      "inputs": [],
      "name": "paused",
      "outputs": [
        {
          "internalType": "bool",
          "name": "",
          "type": "bool"
        }
      ],
      "stateMutability": "view",
      "type": "function"
    },
    {
      "inputs": [
        {
          "internalType": "uint8",
          "name": "",
          "type": "uint8"
        }
      ],
      "name": "pillarBurnRates",
      "outputs": [
        {
          "internalType": "uint16",
          "name": "",
          "type": "uint16"
        }
      ],
      "stateMutability": "view",
      "type": "function"
    },
    {
      "inputs": [
        {
          "internalType": "bytes32",
          "name": "role",
          "type": "bytes32"
        },
        {
          "internalType": "address",
          "name": "callerConfirmation",
          "type": "address"
        }
      ],
      "name": "renounceRole",
      "outputs": [],
      "stateMutability": "nonpayable",
      "type": "function"
    },
    {
      "inputs": [
        {
          "internalType": "bytes32",
          "name": "role",
          "type": "bytes32"
        },
        {
          "internalType": "address",
          "name": "account",
          "type": "address"
        }
      ],
      "name": "revokeRole",
      "outputs": [],
      "stateMutability": "nonpayable",
      "type": "function"
    },
    {
      "inputs": [
        {
          "internalType": "bytes4",
          "name": "interfaceId",
          "type": "bytes4"
        }
      ],
      "name": "supportsInterface",
      "outputs": [
        {
          "internalType": "bool",
          "name": "",
          "type": "bool"
        }
      ],
      "stateMutability": "view",
      "type": "function"
    },
    {
      "inputs": [],
      "name": "symbol",
      "outputs": [
        {
          "internalType": "string",
          "name": "",
          "type": "string"
        }
      ],
      "stateMutability": "view",
      "type": "function"
    },
    {
      "inputs": [],
      "name": "totalBurned",
      "outputs": [
        {
          "internalType": "uint256",
          "name": "",
          "type": "uint256"
        }
      ],
      "stateMutability": "view",
      "type": "function"
    },
    {
      "inputs": [],
      "name": "totalSupply",
      "outputs": [
        {
          "internalType": "uint256",
          "name": "",
          "type": "uint256"
        }
      ],
      "stateMutability": "view",
      "type": "function"
    },
    {
      "inputs": [
        {
          "internalType": "address",
          "name": "to",
          "type": "address"
        },
        {
          "internalType": "uint256",
          "name": "value",
          "type": "uint256"
        }
      ],
      "name": "transfer",
      "outputs": [
        {
          "internalType": "bool",
          "name": "",
          "type": "bool"
        }
      ],
      "stateMutability": "nonpayable",
      "type": "function"
    },
    {
      "inputs": [
        {
          "internalType": "address",
          "name": "from",
          "type": "address"
        },
        {
          "internalType": "address",
          "name": "to",
          "type": "address"
        },
        {
          "internalType": "uint256",
          "name": "value",
          "type": "uint256"
        }
      ],
      "name": "transferFrom",
      "outputs": [
        {
          "internalType": "bool",
          "name": "",
          "type": "bool"
        }
      ],
      "stateMutability": "nonpayable",
      "type": "function"
    },
    {
      "inputs": [],
      "name": "unpause",
      "outputs": [],
      "stateMutability": "nonpayable",
      "type": "function"
    },
    {
      "inputs": [
        {
          "internalType": "uint8",
          "name": "pillarId",
          "type": "uint8"
        },
        {
          "internalType": "uint16",
          "name": "newRate",
          "type": "uint16"
        }
      ],
      "name": "updatePillarBurnRate",
      "outputs": [],
      "stateMutability": "nonpayable",
      "type": "function"
    }
  ],
  "bytecode": "0x6080346200053857620020aa906001600160401b0390601f19601f388590038181018316840190858211858310176200043a5780859160409889948552833981010312620005385762000052836200055d565b936200006260208095016200055d565b6200006c6200053d565b91600883526725a0a49021b7b4b760c11b868401526200008b6200053d565b93600394858152624b414960e81b8882015284518381116200043a5786546001968782811c921680156200052d575b8b83101462000517578185849311620004c1575b508a908583116001146200045c5760009262000450575b505060001982891b1c191690861b1786555b80519283116200043a5760049687548681811c911680156200042f575b8a8210146200041a579081848695949311620003c0575b50899284116001146200035c575060009262000350575b505060001982861b1c191690831b1784555b6001600160a01b0390868216156200030d5716948515620002ca57806200017f620001aa9262000572565b506200018b81620005f3565b50620001978162000696565b50620001a38162000734565b50620007d2565b5060005260098352846000209061ffff19916103e8838254161790556002600052856000206101f483825416179055600052846000206105dc82825416179055816000528460002060c882825416179055600560005284600020610320828254161790556006600052846000206104b0828254161790556007600052610258856000209182541617905560ff60055416620002bc576002546b014adf4b7320334b9000000091828201809211620002a7575060025560008381528083528481208054830190558451918252917fddf252ad1be2c89b69c2b068fc378daa952ba7f163c4a11628f55a4df523b3ef91a3516118199081620008718239f35b601190634e487b7160e01b6000525260246000fd5b835163d93c066560e01b8152fd5b865162461bcd60e51b8152808501869052601d60248201527f4b41493a207472656173757279206973207a65726f20616464726573730000006044820152606490fd5b875162461bcd60e51b8152808601879052601a60248201527f4b41493a2061646d696e206973207a65726f20616464726573730000000000006044820152606490fd5b01519050388062000142565b8694929192169188600052896000209260005b8b828210620003a9575050841162000390575b505050811b01845562000154565b015160001983881b60f8161c1916905538808062000382565b83850151865589979095019493840193016200036f565b909192935088600052896000208480870160051c8201928c881062000410575b9187968a92969594930160051c01915b828110620004005750506200012b565b60008155879650899101620003f0565b92508192620003e0565b602289634e487b7160e01b6000525260246000fd5b90607f169062000114565b634e487b7160e01b600052604160045260246000fd5b015190503880620000e5565b908a899416918a6000528c600020928d6000905b828210620004a9575050841162000490575b505050811b018655620000f7565b0151600019838b1b60f8161c1916905538808062000482565b8385015186558c979095019493840193018e62000470565b909150886000528a6000208580850160051c8201928d86106200050d575b918a91869594930160051c01915b828110620004fd575050620000ce565b600081558594508a9101620004ed565b92508192620004df565b634e487b7160e01b600052602260045260246000fd5b91607f1691620000ba565b600080fd5b60408051919082016001600160401b038111838210176200043a57604052565b51906001600160a01b03821682036200053857565b6001600160a01b031660008181527f54cdd369e4e8a8515e52ca72ec816c2101831ad1f18bf44102ed171459c9b4f8602052604081205490919060ff16620005ef5781805260066020526040822081835260205260408220600160ff1982541617905533916000805160206200208a8339815191528180a4600190565b5090565b6001600160a01b031660008181527fe09f975e15f8f53f24cbbc282b13c40b84df485fcdb8d3997fa103dc5a4ef84160205260408120549091907f65d7a28e3265b37a6474929f336521b332c1681b933f6cb9f3376673440d862a9060ff16620006915780835260066020526040832082845260205260408320600160ff198254161790556000805160206200208a833981519152339380a4600190565b505090565b6001600160a01b031660008181527f3195c024b2ddd6d9b8f6c836aa52f67fe69376c8903d009b80229b3ce4425f5160205260408120549091907f9f2df0fed2c77648de5860a4cc508cd0818c85b8b8a1ab4ceeef8d981c8956a69060ff16620006915780835260066020526040832082845260205260408320600160ff198254161790556000805160206200208a833981519152339380a4600190565b6001600160a01b031660008181527f42d20fd6db25ea5a8e33f43724ad72f2ebd9488257fa78c86176b8175fc383fa60205260408120549091907f3c11d16cbaffd01df69ce1c404f6340ee057498f5f00246190ea54220576a8489060ff16620006915780835260066020526040832082845260205260408320600160ff198254161790556000805160206200208a833981519152339380a4600190565b6001600160a01b031660008181527f2e40e14903d2c9bef53a85461d810c3ece12252634274bd2dc3297e6c6441e9e60205260408120549091907f68e79a7bf1e0bc45d0a330c573bc367f9cf464fd326078812f301165fbda4ef19060ff16620006915780835260066020526040832082845260205260408320600160ff198254161790556000805160206200208a833981519152339380a460019056fe608060408181526004918236101561001657600080fd5b600092833560e01c91826301ffc9a7146110a35750816303a5432514610fb657816306fdde0314610eda57816307e2cea514610e9f578163095ea7b314610e7557816316ff1ff714610d7757816318160ddd1461050457816323b872dd14610d3a578163248a9ca314610d0f578163282c51f314610cd45781632f2ff15d14610caa5781632f37ea7a14610c46578163313ce56714610c2a57816332cb6b0c14610c0357816336568abe14610bbd5781633f4ba83a14610b5357816342966c6814610b3557816354156bd1146108b5578163573f78f3146108805781635c975abb1461085c57816370a082311461082557816378e8e7ea146105fb57816379cc6790146105c55781638456cb591461056a57816391d14854146105235781639358928b1461050457816395d89b41146103e35781639c28ee17146103bd578163a217fddf146103a2578163a9059cbb14610371578163ca7df92c1461034a578163d53913931461030f578163d547741f146102cf578163d89135cd146102b0578163dd62ed3e14610267578163e1b21bae1461023b57508063e55c07c5146102045763e63ab1e9146101c757600080fd5b34610200578160031936011261020057602090517f65d7a28e3265b37a6474929f336521b332c1681b933f6cb9f3376673440d862a8152f35b5080fd5b50346102005760203660031901126102005760209181906001600160a01b0361022b611164565b1681526008845220549051908152f35b905034610263576020366003190112610263576020928291358152600a845220549051908152f35b8280fd5b50503461020057806003193601126102005780602092610285611164565b61028d61117a565b6001600160a01b0391821683526001865283832091168252845220549051908152f35b5050346102005781600319360112610200576020906007549051908152f35b9190503461026357806003193601126102635761030b913561030660016102f461117a565b938387526006602052862001546113b5565b6116d9565b5080f35b505034610200578160031936011261020057602090517f9f2df0fed2c77648de5860a4cc508cd0818c85b8b8a1ab4ceeef8d981c8956a68152f35b505034610200578160031936011261020057602090516b014adf4b7320334b900000008152f35b50503461020057806003193601126102005760209061039b610391611164565b602435903361158c565b5160018152f35b50503461020057816003193601126102005751908152602090f35b505034610200578160031936011261020057602090516a084595161401484a0000008152f35b83833461020057816003193601126102005780519082845460018160011c90600183169283156104fa575b60209384841081146104e7578388529081156104cb5750600114610476575b505050829003601f01601f191682019267ffffffffffffffff841183851017610463575082918261045f92528261111b565b0390f35b634e487b7160e01b815260418552602490fd5b8787529192508591837f8a35acfbc15ff81a39ae7d344fd709f28e8600b4aa8c65c6b64bfe7fe36bd19b5b8385106104b7575050505083010185808061042d565b8054888601830152930192849082016104a1565b60ff1916878501525050151560051b840101905085808061042d565b634e487b7160e01b895260228a52602489fd5b91607f169161040e565b5050346102005781600319360112610200576020906002549051908152f35b9050346102635781600319360112610263578160209360ff9261054461117a565b90358252600686528282206001600160a01b039091168252855220549151911615158152f35b50503461020057816003193601126102005760207f62e78cea01bee320cd4e420270b5ea74000d11b0c9f74754ebdbfc544b05a258916105a8611359565b6105b06113db565b600160ff19600554161760055551338152a180f35b505034610200573660031901126105f8576105f56105e1611164565b602435906105f08233836114b9565b6113f9565b80f35b80fd5b83833461020057608036600319011261020057610616611164565b926024359061062361110b565b9060643567ffffffffffffffff81116108215761064560ff9136908401611190565b9190936106506112df565b6106586113db565b1694600186101580610816575b61066e906111be565b841561067a8115611200565b60018060a01b0389169586895260209189835261069c82858c20541015611242565b888a526009835261ffff848b2054168083029283041417156108035761271090049333870361072f575b509161072991600885946106fc7f928722a07342aa9954683218c9ea873a610158e3dcab785d38da48abb8ea962198978d6113f9565b6107088660075461128e565b600755888b525280892061071d85825461128e565b905551938493846112b1565b0390a380f35b9886895260018252828920338a528252828920548581106107b5578581039081116107a2577f928722a07342aa9954683218c9ea873a610158e3dcab785d38da48abb8ea96219798999a50916106fc866008936107926107299897963383611750565b9c9b9a99505050919293506106c6565b634e487b7160e01b8a5260118b5260248afd5b835162461bcd60e51b8152808c01849052602260248201527f4b41493a206275726e20616d6f756e74206578636565647320616c6c6f77616e604482015261636560f01b6064820152608490fd5b634e487b7160e01b895260118552602489fd5b506007861115610665565b8580fd5b5050346102005760203660031901126102005760209181906001600160a01b0361084d611164565b16815280845220549051908152f35b50503461020057816003193601126102005760209060ff6005541690519015158152f35b5050346102005760203660031901126102005761ffff8160209360ff6108a46110f6565b168152600985522054169051908152f35b91905034610263576060366003190112610263576108d1611164565b906024356108dd61110b565b917f68e79a7bf1e0bc45d0a330c573bc367f9cf464fd326078812f301165fbda4ef19283875260209360068552828820338952855260ff838920541615610b17575060ff9061092a6113db565b1693600185101580610b0c575b610940906111be565b6001600160a01b0316948515610acb5761095b831515611200565b6b033b2e3c9fd0803ce80000006109748460025461128e565b11610a8a5762015180420490818852600a85526a084595161401484a0000006109a085858b205461128e565b11610a395750907f11fee935d6434618f69c608aaced54549a5c59a10f3fc50e740e308ed3aa46e59392918752600a83528087206109df83825461128e565b90556109e96113db565b6109f58260025461128e565b60025585875286835280872082815401905585877fddf252ad1be2c89b69c2b068fc378daa952ba7f163c4a11628f55a4df523b3ef858451868152a351908152a380f35b825162461bcd60e51b8152908101859052602560248201527f4b41493a206461696c79206f7261636c65206d696e74206c696d697420657863604482015264195959195960da1b6064820152608490fd5b83606492519162461bcd60e51b8352820152601860248201527f4b41493a206d617820737570706c7920657863656564656400000000000000006044820152fd5b83606492519162461bcd60e51b8352820152601960248201527f4b41493a206d696e7420746f207a65726f2061646472657373000000000000006044820152fd5b506007851115610937565b825163e2517d3f60e01b815233818901526024810191909152604490fd5b839034610200576020366003190112610200576105f59035336113f9565b905034610263578260031936011261026357610b6d611359565b6005549060ff821615610baf575060ff1916600555513381527f5db9ee0a495bf2e6ff9c91a7834c1ba4fdd244a5e8aa4e537bd38aeae4b073aa90602090a180f35b8251638dfc202b60e01b8152fd5b838334610200578060031936011261020057610bd761117a565b90336001600160a01b03831603610bf4575061030b9192356116d9565b5163334bd91960e11b81528390fd5b505034610200578160031936011261020057602090516b033b2e3c9fd0803ce80000008152f35b5050346102005781600319360112610200576020905160128152f35b8383346102005781600319360112610200576007549160025461271091828502928584041485151715610c9757606085856b014adf4b7320334b900000008686835194855260208501520490820152f35b634e487b7160e01b815260118652602490fd5b9190503461026357806003193601126102635761030b9135610ccf60016102f461117a565b611659565b505034610200578160031936011261020057602090517f3c11d16cbaffd01df69ce1c404f6340ee057498f5f00246190ea54220576a8488152f35b9050346102635760203660031901126102635781602093600192358152600685522001549051908152f35b5050346102005760603660031901126102005760209061039b610d5b611164565b610d6361117a565b60443591610d728333836114b9565b61158c565b91905034610263576060366003190112610263578135906024359260ff8416809403610e71576044359167ffffffffffffffff831161082157610de1610729927f928722a07342aa9954683218c9ea873a610158e3dcab785d38da48abb8ea962194369101611190565b929091610dec6112df565b610df46113db565b600187101580610e66575b610e08906111be565b610e13861515611200565b33885287602052610e2986828a20541015611242565b610e3386336113f9565b610e3f8660075461128e565b6007553388526008602052808820610e5887825461128e565b9055519283923396846112b1565b506007871115610dff565b8480fd5b50503461020057806003193601126102005760209061039b610e95611164565b6024359033611750565b505034610200578160031936011261020057602090517f68e79a7bf1e0bc45d0a330c573bc367f9cf464fd326078812f301165fbda4ef18152f35b8383346102005781600319360112610200578051908260035460018160011c9060018316928315610fac575b60209384841081146104e7578388529081156104cb5750600114610f5657505050829003601f01601f191682019267ffffffffffffffff841183851017610463575082918261045f92528261111b565b600387529192508591837fc2575a0e9e593c00f959f8c92f12db2869c3395a3b0502d05e2516446f71f85b5b838510610f98575050505083010185808061042d565b805488860183015293019284908201610f82565b91607f1691610f06565b91905034610263578060031936011261026357610fd16110f6565b916024359261ffff8416809403610e7157848052600660205282852033865260205260ff8386205416156110865760ff169060018210158061107b575b611017906111be565b611388841161103857508352600960205282209061ffff1982541617905580f35b606490602084519162461bcd60e51b8352820152601760248201527f4b41493a206275726e207261746520746f6f20686967680000000000000000006044820152fd5b50600782111561100e565b5083604492519163e2517d3f60e01b835233908301526024820152fd5b849134610263576020366003190112610263573563ffffffff60e01b81168091036102635760209250637965db0b60e01b81149081156110e5575b5015158152f35b6301ffc9a760e01b149050836110de565b6004359060ff8216820361110657565b600080fd5b6044359060ff8216820361110657565b6020808252825181830181905290939260005b82811061115057505060409293506000838284010152601f8019910116010190565b81810186015184820160400152850161112e565b600435906001600160a01b038216820361110657565b602435906001600160a01b038216820361110657565b9181601f840112156111065782359167ffffffffffffffff8311611106576020838186019501011161110657565b156111c557565b60405162461bcd60e51b815260206004820152601360248201527225a0a49d1034b73b30b634b2103834b63630b960691b6044820152606490fd5b1561120757565b60405162461bcd60e51b81526020600482015260136024820152724b41493a20616d6f756e74206973207a65726f60681b6044820152606490fd5b1561124957565b60405162461bcd60e51b815260206004820152601960248201527f4b41493a20696e73756666696369656e742062616c616e6365000000000000006044820152606490fd5b9190820180921161129b57565b634e487b7160e01b600052601160045260246000fd5b91926060938192845260406020850152816040850152848401376000828201840152601f01601f1916010190565b3360009081527f42d20fd6db25ea5a8e33f43724ad72f2ebd9488257fa78c86176b8175fc383fa60205260409020547f3c11d16cbaffd01df69ce1c404f6340ee057498f5f00246190ea54220576a8489060ff161561133b5750565b6044906040519063e2517d3f60e01b82523360048301526024820152fd5b3360009081527fe09f975e15f8f53f24cbbc282b13c40b84df485fcdb8d3997fa103dc5a4ef84160205260409020547f65d7a28e3265b37a6474929f336521b332c1681b933f6cb9f3376673440d862a9060ff161561133b5750565b80600052600660205260406000203360005260205260ff604060002054161561133b5750565b60ff600554166113e757565b60405163d93c066560e01b8152600490fd5b906001600160a01b0382169081156114a0576114136113db565b6000928284528360205260408420549082821061146e5750817fddf252ad1be2c89b69c2b068fc378daa952ba7f163c4a11628f55a4df523b3ef926020928587528684520360408620558060025403600255604051908152a3565b60405163391434e360e21b81526001600160a01b03919091166004820152602481019190915260448101829052606490fd5b604051634b637e8f60e11b815260006004820152602490fd5b9160018060a01b0380931691600093838552600160205260409384862091831691828752602052848620549260001984106114f8575b50505050505050565b84841061155c5750801561154457811561152c578552600160205283852090855260205203912055388080808080806114ef565b8451634a1406b160e11b815260048101879052602490fd5b845163e602df0560e01b815260048101879052602490fd5b8551637dc7a0d960e11b81526001600160a01b039190911660048201526024810184905260448101859052606490fd5b916001600160a01b038084169283156114a05716928315611640576115af6113db565b6000908382528160205260408220549083821061160e575091604082827fddf252ad1be2c89b69c2b068fc378daa952ba7f163c4a11628f55a4df523b3ef958760209652828652038282205586815220818154019055604051908152a3565b60405163391434e360e21b81526001600160a01b03919091166004820152602481019190915260448101839052606490fd5b60405163ec442f0560e01b815260006004820152602490fd5b906000918083526006602052604083209160018060a01b03169182845260205260ff604084205416156000146116d45780835260066020526040832082845260205260408320600160ff198254161790557f2f8788117e7eff1d82e926ec794901d17c78024a50270940304540a733656f0d339380a4600190565b505090565b906000918083526006602052604083209160018060a01b03169182845260205260ff6040842054166000146116d4578083526006602052604083208284526020526040832060ff1981541690557ff6391f5c32d9c69d2a47ea670b442974b53935d1edc7fd64eb21e047a839171b339380a4600190565b6001600160a01b039081169182156117ca57169182156117b15760207f8c5be1e5ebec7d5bd14f71427d1e84f3dd0314c0f7b2291e5b200ac8c7c3b925918360005260018252604060002085600052825280604060002055604051908152a3565b604051634a1406b160e11b815260006004820152602490fd5b60405163e602df0560e01b815260006004820152602490fdfea2646970667358221220d1baebc69d56c82883d637187c6adc60d903c373ed63d1ba1e18922215477f2d64736f6c634300081600332f8788117e7eff1d82e926ec794901d17c78024a50270940304540a733656f0d",
  "linkReferences": {},
  "deployedLinkReferences": {}
}