{
  "_format": "hh-sol-artifact-1",
  "contractName": "ClimateAlertStaking",
  "sourceName": "contracts/ClimateAlertStaking.sol",
  "abi": [
    {
      "inputs": [
        {
          "internalType": "address",
          "name": "_kaiToken",
          "type": "address"
        },
        {
          "internalType": "address",
          "name": "admin",
          "type": "address"
        },
        {
          "internalType": "address",
          "name": "oracle",
          "type": "address"
        }
      ],
      "stateMutability": "nonpayable",
      "type": "constructor"
    },
    {
      "inputs": [],
      "name": "AccessControlBadConfirmation",
      "type": "error"
    },
    {
      "inputs": [
        {
          "internalType": "address",
          "name": "account",
          "type": "address"
        },
        {
          "internalType": "bytes32",
          "name": "neededRole",
          "type": "bytes32"
        }
      ],
      "name": "AccessControlUnauthorizedAccount",
      "type": "error"
    },
    {
      "inputs": [],
      "name": "EnforcedPause",
      "type": "error"
    },
    {
      "inputs": [],
      "name": "ExpectedPause",
      "type": "error"
    },
    {
      "inputs": [],
      "name": "ReentrancyGuardReentrantCall",
      "type": "error"
    },
    {
      "anonymous": false,
      "inputs": [
        {
          "indexed": true,
          "internalType": "uint256",
          "name": "alertId",
          "type": "uint256"
        },
        {
          "indexed": false,
          "internalType": "uint8",
          "name": "alertType",
          "type": "uint8"
        },
        {
          "indexed": false,
          "internalType": "string",
          "name": "region",
          "type": "string"
        },
        {
          "indexed": false,
          "internalType": "uint256",
          "name": "recipientCount",
          "type": "uint256"
        },
        {
          "indexed": false,
          "internalType": "uint256",
          "name": "totalBurned",
          "type": "uint256"
        }
      ],
      "name": "AlertSent",
      "type": "event"
    },
    {
      "anonymous": false,
      "inputs": [
        {
          "indexed": true,
          "internalType": "address",
          "name": "user",
          "type": "address"
        },
        {
          "indexed": false,
          "internalType": "uint256",
          "name": "amount",
          "type": "uint256"
        },
        {
          "indexed": false,
          "internalType": "uint256",
          "name": "alertId",
          "type": "uint256"
        }
      ],
      "name": "BurnExecuted",
      "type": "event"
    },
    {
      "anonymous": false,
      "inputs": [
        {
          "indexed": false,
          "internalType": "address",
          "name": "account",
          "type": "address"
        }
      ],
      "name": "Paused",
      "type": "event"
    },
    {
      "anonymous": false,
      "inputs": [
        {
          "indexed": true,
          "internalType": "bytes32",
          "name": "role",
          "type": "bytes32"
        },
        {
          "indexed": true,
          "internalType": "bytes32",
          "name": "previousAdminRole",
          "type": "bytes32"
        },
        {
          "indexed": true,
          "internalType": "bytes32",
          "name": "newAdminRole",
          "type": "bytes32"
        }
      ],
      "name": "RoleAdminChanged",
      "type": "event"
    },
    {
      "anonymous": false,
      "inputs": [
        {
          "indexed": true,
          "internalType": "bytes32",
          "name": "role",
          "type": "bytes32"
        },
        {
          "indexed": true,
          "internalType": "address",
          "name": "account",
          "type": "address"
        },
        {
          "indexed": true,
          "internalType": "address",
          "name": "sender",
          "type": "address"
        }
      ],
      "name": "RoleGranted",
      "type": "event"
    },
    {
      "anonymous": false,
      "inputs": [
        {
          "indexed": true,
          "internalType": "bytes32",
          "name": "role",
          "type": "bytes32"
        },
        {
          "indexed": true,
          "internalType": "address",
          "name": "account",
          "type": "address"
        },
        {
          "indexed": true,
          "internalType": "address",
          "name": "sender",
          "type": "address"
        }
      ],
      "name": "RoleRevoked",
      "type": "event"
    },
    {
      "anonymous": false,
      "inputs": [
        {
          "indexed": true,
          "internalType": "address",
          "name": "user",
          "type": "address"
        },
        {
          "indexed": false,
          "internalType": "uint256",
          "name": "amount",
          "type": "uint256"
        },
        {
          "indexed": false,
          "internalType": "uint256",
          "name": "timestamp",
          "type": "uint256"
        }
      ],
      "name": "Staked",
      "type": "event"
    },
    {
      "anonymous": false,
      "inputs": [
        {
          "indexed": false,
          "internalType": "address",
          "name": "account",
          "type": "address"
        }
      ],
      "name": "Unpaused",
      "type": "event"
    },
    {
      "anonymous": false,
      "inputs": [
        {
          "indexed": true,
          "internalType": "address",
          "name": "user",
          "type": "address"
        },
        {
          "indexed": false,
          "internalType": "uint256",
          "name": "amount",
          "type": "uint256"
        },
        {
          "indexed": false,
          "internalType": "uint256",
          "name": "timestamp",
          "type": "uint256"
        }
      ],
      "name": "Unstaked",
      "type": "event"
    },
    {
      "inputs": [],
      "name": "ADMIN_ROLE",
      "outputs": [
        {
          "internalType": "bytes32",
          "name": "",
          "type": "bytes32"
        }
      ],
      "stateMutability": "view",
      "type": "function"
    },
    {
      "inputs": [],
      "name": "ALERT_BURN_RATE",
      "outputs": [
        {
          "internalType": "uint256",
          "name": "",
          "type": "uint256"
        }
      ],
      "stateMutability": "view",
      "type": "function"
    },
    {
      "inputs": [],
      "name": "DEFAULT_ADMIN_ROLE",
      "outputs": [
        {
          "internalType": "bytes32",
          "name": "",
          "type": "bytes32"
        }
      ],
      "stateMutability": "view",
      "type": "function"
    },
    {
      "inputs": [],
      "name": "MIN_STAKE",
      "outputs": [
        {
          "internalType": "uint256",
          "name": "",
          "type": "uint256"
        }
      ],
      "stateMutability": "view",
      "type": "function"
    },
    {
      "inputs": [],
      "name": "ORACLE_ROLE",
      "outputs": [
        {
          "internalType": "bytes32",
          "name": "",
          "type": "bytes32"
        }
      ],
      "stateMutability": "view",
      "type": "function"
    },
    {
      "inputs": [],
      "name": "alertCount",
      "outputs": [
        {
          "internalType": "uint256",
          "name": "",
          "type": "uint256"
        }
      ],
      "stateMutability": "view",
      "type": "function"
    },
    {
      "inputs": [
        {
          "internalType": "uint256",
          "name": "",
          "type": "uint256"
        }
      ],
      "name": "alerts",
      "outputs": [
        {
          "internalType": "uint8",
          "name": "alertType",
          "type": "uint8"
        },
        {
          "internalType": "uint256",
          "name": "timestamp",
          "type": "uint256"
        },
        {
          "internalType": "string",
          "name": "region",
          "type": "string"
        },
        {
          "internalType": "uint256",
          "name": "recipientCount",
          "type": "uint256"
        }
      ],
      "stateMutability": "view",
      "type": "function"
    },
    {
      "inputs": [
        {
          "internalType": "address",
          "name": "user",
          "type": "address"
        },
        {
          "internalType": "uint256",
          "name": "amount",
          "type": "uint256"
        }
      ],
      "name": "checkAllowance",
      "outputs": [
        {
          "internalType": "bool",
          "name": "hasAllowance",
          "type": "bool"
        },
        {
          "internalType": "uint256",
          "name": "currentAllowance",
          "type": "uint256"
        },
        {
          "internalType": "uint256",
          "name": "required",
          "type": "uint256"
        }
      ],
      "stateMutability": "view",
      "type": "function"
    },
    {
      "inputs": [],
      "name": "getPlatformStats",
      "outputs": [
        {
          "internalType": "uint256",
          "name": "_totalStaked",
          "type": "uint256"
        },
        {
          "internalType": "uint256",
          "name": "_totalUsers",
          "type": "uint256"
        },
        {
          "internalType": "uint256",
          "name": "_totalAlertsSent",
          "type": "uint256"
        },
        {
          "internalType": "uint256",
          "name": "_alertCount",
          "type": "uint256"
        }
      ],
      "stateMutability": "view",
      "type": "function"
    },
    {
      "inputs": [
        {
          "internalType": "bytes32",
          "name": "role",
          "type": "bytes32"
        }
      ],
      "name": "getRoleAdmin",
      "outputs": [
        {
          "internalType": "bytes32",
          "name": "",
          "type": "bytes32"
        }
      ],
      "stateMutability": "view",
      "type": "function"
    },
    {
      "inputs": [
        {
          "internalType": "address",
          "name": "user",
          "type": "address"
        }
      ],
      "name": "getStake",
      "outputs": [
        {
          "internalType": "uint256",
          "name": "amount",
          "type": "uint256"
        },
        {
          "internalType": "uint256",
          "name": "stakedAt",
          "type": "uint256"
        },
        {
          "internalType": "uint256",
          "name": "alertsReceived",
          "type": "uint256"
        },
        {
          "internalType": "uint256",
          "name": "totalBurned",
          "type": "uint256"
        },
        {
          "internalType": "bool",
          "name": "active",
          "type": "bool"
        }
      ],
      "stateMutability": "view",
      "type": "function"
    },
    {
      "inputs": [
        {
          "internalType": "bytes32",
          "name": "role",
          "type": "bytes32"
        },
        {
          "internalType": "address",
          "name": "account",
          "type": "address"
        }
      ],
      "name": "grantRole",
      "outputs": [],
      "stateMutability": "nonpayable",
      "type": "function"
    },
    {
      "inputs": [
        {
          "internalType": "bytes32",
          "name": "role",
          "type": "bytes32"
        },
        {
          "internalType": "address",
          "name": "account",
          "type": "address"
        }
      ],
      "name": "hasRole",
      "outputs": [
        {
          "internalType": "bool",
          "name": "",
          "type": "bool"
        }
      ],
      "stateMutability": "view",
      "type": "function"
    },
    {
      "inputs": [],
      "name": "kaiToken",
      "outputs": [
        {
          "internalType": "contract KAIToken",
          "name": "",
          "type": "address"
        }
      ],
      "stateMutability": "view",
      "type": "function"
    },
    {
      "inputs": [],
      "name": "pause",
      "outputs": [],
      "stateMutability": "nonpayable",
      "type": "function"
    },
    {
      "inputs": [],
      "name": "paused",
      "outputs": [
        {
          "internalType": "bool",
          "name": "",
          "type": "bool"
        }
      ],
      "stateMutability": "view",
      "type": "function"
    },
    {
      "inputs": [
        {
          "internalType": "bytes32",
          "name": "role",
          "type": "bytes32"
        },
        {
          "internalType": "address",
          "name": "callerConfirmation",
          "type": "address"
        }
      ],
      "name": "renounceRole",
      "outputs": [],
      "stateMutability": "nonpayable",
      "type": "function"
    },
    {
      "inputs": [
        {
          "internalType": "bytes32",
          "name": "role",
          "type": "bytes32"
        },
        {
          "internalType": "address",
          "name": "account",
          "type": "address"
        }
      ],
      "name": "revokeRole",
      "outputs": [],
      "stateMutability": "nonpayable",
      "type": "function"
    },
    {
      "inputs": [
        {
          "internalType": "uint8",
          "name": "alertType",
          "type": "uint8"
        },
        {
          "internalType": "string",
          "name": "region",
          "type": "string"
        },
        {
          "internalType": "address[]",
          "name": "recipients",
          "type": "address[]"
        }
      ],
      "name": "sendAlert",
      "outputs": [],
      "stateMutability": "nonpayable",
      "type": "function"
    },
    {
      "inputs": [
        {
          "internalType": "uint256",
          "name": "amount",
          "type": "uint256"
        }
      ],
      "name": "stake",
      "outputs": [],
      "stateMutability": "nonpayable",
      "type": "function"
    },
    {
      "inputs": [
        {
          "internalType": "address",
          "name": "",
          "type": "address"
        }
      ],
      "name": "stakes",
      "outputs": [
        {
          "internalType": "uint256",
          "name": "amount",
          "type": "uint256"
        },
        {
          "internalType": "uint256",
          "name": "stakedAt",
          "type": "uint256"
        },
        {
          "internalType": "uint256",
          "name": "alertsReceived",
          "type": "uint256"
        },
        {
          "internalType": "uint256",
          "name": "totalBurned",
          "type": "uint256"
        },
        {
          "internalType": "bool",
          "name": "active",
          "type": "bool"
        }
      ],
      "stateMutability": "view",
      "type": "function"
    },
    {
      "inputs": [
        {
          "internalType": "bytes4",
          "name": "interfaceId",
          "type": "bytes4"
        }
      ],
      "name": "supportsInterface",
      "outputs": [
        {
          "internalType": "bool",
          "name": "",
          "type": "bool"
        }
      ],
      "stateMutability": "view",
      "type": "function"
    },
    {
      "inputs": [],
      "name": "totalAlertsSent",
      "outputs": [
        {
          "internalType": "uint256",
          "name": "",
          "type": "uint256"
        }
      ],
      "stateMutability": "view",
      "type": "function"
    },
    {
      "inputs": [],
      "name": "totalStaked",
      "outputs": [
        {
          "internalType": "uint256",
          "name": "",
          "type": "uint256"
        }
      ],
      "stateMutability": "view",
      "type": "function"
    },
    {
      "inputs": [],
      "name": "totalUsers",
      "outputs": [
        {
          "internalType": "uint256",
          "name": "",
          "type": "uint256"
        }
      ],
      "stateMutability": "view",
      "type": "function"
    },
    {
      "inputs": [],
      "name": "unpause",
      "outputs": [],
      "stateMutability": "nonpayable",
      "type": "function"
    },
    {
      "inputs": [],
      "name": "unstake",
      "outputs": [],
      "stateMutability": "nonpayable",
      "type": "function"
    }
  ],
  "bytecode": "0x60a034620001be57601f62001b7238819003918201601f191683019291906001600160401b03841183851017620001c3578160609284926040968752833981010312620001be576200005181620001d9565b906200006d836200006560208401620001d9565b9201620001d9565b6001600055916001600160a01b039081169081156200017a57808316156200013657831615620000f257620000be9291620000b791608052620000b081620001ee565b506200026f565b5062000312565b50516117a19081620003b18239608051818181610274015281816105aa01528181610bde01528181610f7401526111030152f35b835162461bcd60e51b815260206004820152601c60248201527f436c696d6174655374616b653a20696e76616c6964206f7261636c65000000006044820152606490fd5b845162461bcd60e51b815260206004820152601b60248201527f436c696d6174655374616b653a20696e76616c69642061646d696e00000000006044820152606490fd5b845162461bcd60e51b815260206004820152601b60248201527f436c696d6174655374616b653a20696e76616c696420746f6b656e00000000006044820152606490fd5b600080fd5b634e487b7160e01b600052604160045260246000fd5b51906001600160a01b0382168203620001be57565b6001600160a01b031660008181527fa6eef7e35abe7026729641147f7915573c7e97b47efa546f5f6e3230263bcb49602052604081205490919060ff166200026b5781805260016020526040822081835260205260408220600160ff19825416179055339160008051602062001b528339815191528180a4600190565b5090565b6001600160a01b031660008181527f50efbde2d46c37e9785f1791697f77e94bb7b701e19f1930a668820722d3769460205260408120549091907fa49807205ce4d355092ef5a8a18f56e8913cf4a201fbe287825b095693c217759060ff166200030d5780835260016020526040832082845260205260408320600160ff1982541617905560008051602062001b52833981519152339380a4600190565b505090565b6001600160a01b031660008181527ff7c11a6d0ec535894a90c88b42cba2ccb348cb15b5e3ad22a710d1d4ac63281960205260408120549091907f68e79a7bf1e0bc45d0a330c573bc367f9cf464fd326078812f301165fbda4ef19060ff166200030d5780835260016020526040832082845260205260408320600160ff1982541617905560008051602062001b52833981519152339380a460019056fe608080604052600436101561001357600080fd5b60003560e01c90816301ffc9a71461141e5750806307e2cea5146113e3578063136d8883146113ac57806316934fc414611331578063171d073a146111f0578063248a9ca3146111c15780632def6620146110815780632f2ff15d1461104257806336568abe14610ffb5780633daba0d714610f1a5780633f4ba83a14610eb05780635c975abb14610e8d5780636e05afd7146107aa57806375b238fc1461076f5780637a7664601461069e578063817b1cd2146106805780638456cb591461062657806391d14854146105d95780639bcfdfc014610594578063a217fddf14610578578063a694fc3a14610229578063ab4464911461020b578063bff1f9e1146101ed578063cb1c2b5c146101c9578063d547741f14610188578063ecb334ab1461016a5763f3a14a8a1461014857600080fd5b346101655760003660031901126101655760206040516103e88152f35b600080fd5b34610165576000366003190112610165576020600554604051908152f35b34610165576040366003190112610165576101c76004356101a7611487565b908060005260016020526101c2600160406000200154611573565b611619565b005b3461016557600036600319011261016557602060405168056bc75e2d631000008152f35b34610165576000366003190112610165576020600654604051908152f35b34610165576000366003190112610165576020600854604051908152f35b3461016557602080600319360112610165576004359061024761172e565b61024f611710565b68056bc75e2d631000008210610534576040516370a0823160e01b81523360048201527f00000000000000000000000000000000000000000000000000000000000000006001600160a01b0316908281602481855afa801561040b578491600091610503575b50106104b357604051636eb1769f60e11b81523360048201523060248201528281604481855afa801561040b578491600091610482575b501061041757816000916064604051809481936323b872dd60e01b83523360048401523060248401528860448401525af1801561040b57610335916000916103de575b506116a8565b3360005260038152604060002054156103cb575b33600052600381526040600020610361838254611703565b905533600052600381526004604060002042600182015501600160ff1982541617905561039082600454611703565b60045560405191825242908201527f1449c6dd7851abc30abf37f57715f492010519147cc2652fbc38202c18a6ee9060403392a26001600055005b6103d66006546116f4565b600655610349565b6103fe9150833d8511610404575b6103f681836114d7565b810190611690565b8461032f565b503d6103ec565b6040513d6000823e3d90fd5b60405162461bcd60e51b815260048101839052603a60248201527f436c696d6174655374616b653a20696e73756666696369656e7420616c6c6f7760448201527f616e63652e2043616c6c20617070726f766528292066697273740000000000006064820152608490fd5b809250848092503d83116104ac575b61049b81836114d7565b8101031261016557839051856102ec565b503d610491565b60405162461bcd60e51b815260048101839052602260248201527f436c696d6174655374616b653a20696e73756666696369656e742062616c616e604482015261636560f01b6064820152608490fd5b809250848092503d831161052d575b61051c81836114d7565b8101031261016557839051856102b5565b503d610512565b6064906040519062461bcd60e51b82526004820152601b60248201527f436c696d6174655374616b653a2062656c6f77206d696e696d756d00000000006044820152fd5b3461016557600036600319011261016557602060405160008152f35b34610165576000366003190112610165576040517f00000000000000000000000000000000000000000000000000000000000000006001600160a01b03168152602090f35b34610165576040366003190112610165576105f2611487565b600435600052600160205260406000209060018060a01b0316600052602052602060ff604060002054166040519015158152f35b346101655760003660031901126101655761063f6114f9565b610647611710565b600160ff1960025416176002557f62e78cea01bee320cd4e420270b5ea74000d11b0c9f74754ebdbfc544b05a2586020604051338152a1005b34610165576000366003190112610165576020600454604051908152f35b34610165576020366003190112610165576001600160a01b036106bf611471565b16600052600360205260406000206040519060a0820182811067ffffffffffffffff82111761075957604052610755608082549283855260018101549485602082015260028201549081604082015260ff6004600385015494856060850152015416151593849101526040519586958693909594919260809360a086019786526020860152604085015260608401521515910152565b0390f35b634e487b7160e01b600052604160045260246000fd5b346101655760003660031901126101655760206040517fa49807205ce4d355092ef5a8a18f56e8913cf4a201fbe287825b095693c217758152f35b346101655760603660031901126101655760043560ff811681036101655767ffffffffffffffff60243511610165573660236024350112156101655767ffffffffffffffff60243560040135116101655736602480356004013581350101116101655767ffffffffffffffff60443511610165573660236044350112156101655767ffffffffffffffff6044356004013511610165573660246044356004013560051b604435010111610165573360009081527ff7c11a6d0ec535894a90c88b42cba2ccb348cb15b5e3ad22a710d1d4ac632819602052604090205460ff1615610e4f57610896611710565b600160ff8216101580610e41575b15610dfc576044356004013515610db75760009060009060005b604435600401358110610b5e575060405180608081011067ffffffffffffffff608083011117610759576080810160405260ff82168152426020820152604051906109196020601f19601f60243560040135011601836114d7565b6024803560048101358085529101602084013760006020602435600401358401015260408101918252836060820152600854600052600760205260406000209160ff82511660ff19845416178355602082015160018401555180519067ffffffffffffffff821161075957610991600285015461149d565b601f8111610b17575b50602090601f8311600114610aa357918060039492606094600092610a98575b50508160011b9160001990861b1c19161760028501555b01519101556109e282600554611703565b6005556109f06008546116f4565b92836008556000198401938411610a82577fa23ea32330368114b86786298ce9d2afa75c11e1ce45365e0fd7a10b5c2c18ef9260ff604051931683526080602084015260243560040135608084015260243560040135602480350160a0850137600060a060243560040135850101526040830152606082015260a081601f19601f6024356004013501168101030190a2005b634e487b7160e01b600052601160045260246000fd5b0151905089806109ba565b906002850160005260206000209160005b601f1985168110610aff5750926003949260019260609583601f19811610610ae7575b505050811b0160028501556109d1565b015160001983881b60f8161c19169055898080610ad7565b91926020600181928685015181550194019201610ab4565b600285016000526020600020601f840160051c810160208510610b57575b601f830160051c82018110610b4b57505061099a565b60008155600101610b35565b5080610b35565b604435600582901b01602401356001600160a01b0381168103610165576001600160a01b0381166000908152600360205260409020600481015460ff1680610dad575b610bb6575b5050610bb1906116f4565b6108be565b80959291949554926103e893848102948186041481151715610a8257612710850411610d69577f00000000000000000000000000000000000000000000000000000000000000006001600160a01b0316803b15610165576000809160a4604051809481936316ff1ff760e01b83526127108b0460048401526006602484015260606044840152601760648401527f436c696d61746520616c6572742074726967676572656400000000000000000060848401525af1801561040b57610d44575b5068056bc75e2d6310000090847f6be02ea772919d89a04060dea29d8344f266e9dec27843a643fa74dd8239131c6040610cf8610cf2610cbe612710610bb19b048954611751565b9586895560028901610cd081546116f4565b905560038901610ce561271088048254611703565b9055612710860490611703565b9b6116f4565b600854825161271090950485526020850152996001600160a01b031692a210610d24575b819250610ba6565b600401805460ff19169055600654610d3b9061175e565b60065585610d1c565b9067ffffffffffffffff82116107595760409190915268056bc75e2d63100000610c76565b606460405162461bcd60e51b815260206004820152602060248201527f436c696d6174655374616b653a206275726e2065786365656473207374616b656044820152fd5b5080541515610ba1565b60405162461bcd60e51b815260206004820152601b60248201527f436c696d6174655374616b653a206e6f20726563697069656e747300000000006044820152606490fd5b60405162461bcd60e51b815260206004820152601a60248201527f436c696d6174655374616b653a20696e76616c696420747970650000000000006044820152606490fd5b50600a60ff821611156108a4565b60405163e2517d3f60e01b81523360048201527f68e79a7bf1e0bc45d0a330c573bc367f9cf464fd326078812f301165fbda4ef16024820152604490fd5b3461016557600036600319011261016557602060ff600254166040519015158152f35b3461016557600036600319011261016557610ec96114f9565b60025460ff811615610f085760ff19166002557f5db9ee0a495bf2e6ff9c91a7834c1ba4fdd244a5e8aa4e537bd38aeae4b073aa6020604051338152a1005b604051638dfc202b60e01b8152600490fd5b3461016557604036600319011261016557610f70610f36611471565b604051636eb1769f60e11b81526001600160a01b039091166004820152306024828101919091529091903590602090839081906044820190565b03817f00000000000000000000000000000000000000000000000000000000000000006001600160a01b03165afa90811561040b57600091610fc7575b606092506040519181811015835260208301526040820152f35b90506020823d8211610ff3575b81610fe1602093836114d7565b81010312610165576060915190610fad565b3d9150610fd4565b3461016557604036600319011261016557611014611487565b336001600160a01b03821603611030576101c790600435611619565b60405163334bd91960e11b8152600490fd5b34610165576040366003190112610165576101c7600435611061611487565b9080600052600160205261107c600160406000200154611573565b611599565b346101655760003660031901126101655761109a61172e565b33600052602060038152604060002090815491821561117c57806000600492550160ff1981541690556110cf82600454611751565b6004556110dd60065461175e565b60065560405163a9059cbb60e01b815233600482015260248101839052818160448160007f00000000000000000000000000000000000000000000000000000000000000006001600160a01b03165af1801561040b57611144916000916103de57506116a8565b60405191825242908201527f7fc4727e062e336010f2c282598ef5f14facb3de68cf8195c2f23e1454b2b74e60403392a26001600055005b60405162461bcd60e51b815260048101839052601c60248201527f436c696d6174655374616b653a206e6f207374616b6520666f756e64000000006044820152606490fd5b346101655760203660031901126101655760043560005260016020526020600160406000200154604051908152f35b3461016557602080600319360112610165576004356000526007815260406000209060ff825416916001918282015491600281016040519485916000918154916112398361149d565b9283865287838216918260001461130b5750506001146112c9575b505050600392916112699197959703866114d7565b01546040519485938452828401526080604084015283519182608085015260005b8381106112b257505060a0935060008483850101526060830152601f80199101168101030190f35b80860182015187820160a00152869450810161128a565b86935060009291925282600020916000925b8284106112f357505050820101816112696003611254565b8054848b0186015289955087949093019281016112db565b60ff19168782015293151560051b86019093019350849250611269915060039050611254565b34610165576020366003190112610165576001600160a01b03611352611471565b1660005260036020526040600020805461075560018301549260028101549060ff6004600383015492015416916040519586958693909594919260809360a086019786526020860152604085015260608401521515910152565b3461016557600036600319011261016557608060045460065460055460085491604051938452602084015260408301526060820152f35b346101655760003660031901126101655760206040517f68e79a7bf1e0bc45d0a330c573bc367f9cf464fd326078812f301165fbda4ef18152f35b34610165576020366003190112610165576004359063ffffffff60e01b821680920361016557602091637965db0b60e01b8114908115611460575b5015158152f35b6301ffc9a760e01b14905083611459565b600435906001600160a01b038216820361016557565b602435906001600160a01b038216820361016557565b90600182811c921680156114cd575b60208310146114b757565b634e487b7160e01b600052602260045260246000fd5b91607f16916114ac565b90601f8019910116810190811067ffffffffffffffff82111761075957604052565b3360009081527f50efbde2d46c37e9785f1791697f77e94bb7b701e19f1930a668820722d3769460205260409020547fa49807205ce4d355092ef5a8a18f56e8913cf4a201fbe287825b095693c217759060ff16156115555750565b6044906040519063e2517d3f60e01b82523360048301526024820152fd5b80600052600160205260406000203360005260205260ff60406000205416156115555750565b906000918083526001602052604083209160018060a01b03169182845260205260ff604084205416156000146116145780835260016020526040832082845260205260408320600160ff198254161790557f2f8788117e7eff1d82e926ec794901d17c78024a50270940304540a733656f0d339380a4600190565b505090565b906000918083526001602052604083209160018060a01b03169182845260205260ff604084205416600014611614578083526001602052604083208284526020526040832060ff1981541690557ff6391f5c32d9c69d2a47ea670b442974b53935d1edc7fd64eb21e047a839171b339380a4600190565b90816020910312610165575180151581036101655790565b156116af57565b60405162461bcd60e51b815260206004820152601d60248201527f436c696d6174655374616b653a207472616e73666572206661696c65640000006044820152606490fd5b6000198114610a825760010190565b91908201809211610a8257565b60ff6002541661171c57565b60405163d93c066560e01b8152600490fd5b60026000541461173f576002600055565b604051633ee5aeb560e01b8152600490fd5b91908203918211610a8257565b8015610a8257600019019056fea2646970667358221220b4408b386b80554a11b1b9c093ea49222afea02577c1ba5db79331b81e4610c564736f6c634300081400332f8788117e7eff1d82e926ec794901d17c78024a50270940304540a733656f0d",
  "linkReferences": {},
  "deployedLinkReferences": {}
}