{
  "_format": "hh-sol-artifact-1",
  "contractName": "ClimateAlertStaking",
  "sourceName": "contracts/ClimateAlertStaking.sol",
  "abi": [
    {
      "inputs": [
        {
          "internalType": "address",
          "name": "_kaiToken",
          "type": "address"
        },
        {
          "internalType": "address",
          "name": "admin",
          "type": "address"
        },
        {
          "internalType": "address",
          "name": "oracle",
          "type": "address"
        }
      ],
      "stateMutability": "nonpayable",
      "type": "constructor"
    },
    {
      "inputs": [],
      "name": "AccessControlBadConfirmation",
      "type": "error"
    },
    {
      "inputs": [
        {
          "internalType": "address",
          "name": "account",
          "type": "address"
        },
        {
          "internalType": "bytes32",
          "name": "neededRole",
          "type": "bytes32"
        }
      ],
      "name": "AccessControlUnauthorizedAccount",
      "type": "error"
    },
    {
      "inputs": [],
      "name": "EnforcedPause",
      "type": "error"
    },
    {
      "inputs": [],
      "name": "ExpectedPause",
      "type": "error"
    },
    {
      "inputs": [],
      "name": "ReentrancyGuardReentrantCall",
      "type": "error"
    },
    {
      "anonymous": false,
      "inputs": [
        {
          "indexed": true,
          "internalType": "uint256",
          "name": "alertId",
          "type": "uint256"
        },
        {
          "indexed": false,
          "internalType": "uint8",
          "name": "alertType",
          "type": "uint8"
        },
        {
          "indexed": false,
          "internalType": "string",
          "name": "region",
          "type": "string"
        },
        {
          "indexed": false,
          "internalType": "uint256",
          "name": "recipientCount",
          "type": "uint256"
        },
        {
          "indexed": false,
          "internalType": "uint256",
          "name": "totalBurned",
          "type": "uint256"
        }
      ],
      "name": "AlertSent",
      "type": "event"
    },
    {
      "anonymous": false,
      "inputs": [
        {
          "indexed": true,
          "internalType": "address",
          "name": "user",
          "type": "address"
        },
        {
          "indexed": false,
          "internalType": "uint256",
          "name": "amount",
          "type": "uint256"
        },
        {
          "indexed": false,
          "internalType": "uint256",
          "name": "alertId",
          "type": "uint256"
        }
      ],
      "name": "BurnExecuted",
      "type": "event"
    },
    {
      "anonymous": false,
      "inputs": [
        {
          "indexed": false,
          "internalType": "address",
          "name": "account",
          "type": "address"
        }
      ],
      "name": "Paused",
      "type": "event"
    },
    {
      "anonymous": false,
      "inputs": [
        {
          "indexed": true,
          "internalType": "bytes32",
          "name": "role",
          "type": "bytes32"
        },
        {
          "indexed": true,
          "internalType": "bytes32",
          "name": "previousAdminRole",
          "type": "bytes32"
        },
        {
          "indexed": true,
          "internalType": "bytes32",
          "name": "newAdminRole",
          "type": "bytes32"
        }
      ],
      "name": "RoleAdminChanged",
      "type": "event"
    },
    {
      "anonymous": false,
      "inputs": [
        {
          "indexed": true,
          "internalType": "bytes32",
          "name": "role",
          "type": "bytes32"
        },
        {
          "indexed": true,
          "internalType": "address",
          "name": "account",
          "type": "address"
        },
        {
          "indexed": true,
          "internalType": "address",
          "name": "sender",
          "type": "address"
        }
      ],
      "name": "RoleGranted",
      "type": "event"
    },
    {
      "anonymous": false,
      "inputs": [
        {
          "indexed": true,
          "internalType": "bytes32",
          "name": "role",
          "type": "bytes32"
        },
        {
          "indexed": true,
          "internalType": "address",
          "name": "account",
          "type": "address"
        },
        {
          "indexed": true,
          "internalType": "address",
          "name": "sender",
          "type": "address"
        }
      ],
      "name": "RoleRevoked",
      "type": "event"
    },
    {
      "anonymous": false,
      "inputs": [
        {
          "indexed": true,
          "internalType": "address",
          "name": "user",
          "type": "address"
        },
        {
          "indexed": false,
          "internalType": "uint256",
          "name": "amount",
          "type": "uint256"
        },
        {
          "indexed": false,
          "internalType": "uint256",
          "name": "timestamp",
          "type": "uint256"
        }
      ],
      "name": "Staked",
      "type": "event"
    },
    {
      "anonymous": false,
      "inputs": [
        {
          "indexed": false,
          "internalType": "address",
          "name": "account",
          "type": "address"
        }
      ],
      "name": "Unpaused",
      "type": "event"
    },
    {
      "anonymous": false,
      "inputs": [
        {
          "indexed": true,
          "internalType": "address",
          "name": "user",
          "type": "address"
        },
        {
          "indexed": false,
          "internalType": "uint256",
          "name": "amount",
          "type": "uint256"
        },
        {
          "indexed": false,
          "internalType": "uint256",
          "name": "timestamp",
          "type": "uint256"
        }
      ],
      "name": "Unstaked",
      "type": "event"
    },
    {
      "inputs": [],
      "name": "ADMIN_ROLE",
      "outputs": [
        {
          "internalType": "bytes32",
          "name": "",
          "type": "bytes32"
        }
      ],
      "stateMutability": "view",
      "type": "function"
    },
    {
      "inputs": [],
      "name": "ALERT_BURN_RATE",
      "outputs": [
        {
          "internalType": "uint256",
          "name": "",
          "type": "uint256"
        }
      ],
      "stateMutability": "view",
      "type": "function"
    },
    {
      "inputs": [],
      "name": "DEFAULT_ADMIN_ROLE",
      "outputs": [
        {
          "internalType": "bytes32",
          "name": "",
          "type": "bytes32"
        }
      ],
      "stateMutability": "view",
      "type": "function"
    },
    {
      "inputs": [],
      "name": "MAX_RECIPIENTS_PER_ALERT",
      "outputs": [
        {
          "internalType": "uint256",
          "name": "",
          "type": "uint256"
        }
      ],
      "stateMutability": "view",
      "type": "function"
    },
    {
      "inputs": [],
      "name": "MIN_STAKE",
      "outputs": [
        {
          "internalType": "uint256",
          "name": "",
          "type": "uint256"
        }
      ],
      "stateMutability": "view",
      "type": "function"
    },
    {
      "inputs": [],
      "name": "ORACLE_ROLE",
      "outputs": [
        {
          "internalType": "bytes32",
          "name": "",
          "type": "bytes32"
        }
      ],
      "stateMutability": "view",
      "type": "function"
    },
    {
      "inputs": [],
      "name": "alertCount",
      "outputs": [
        {
          "internalType": "uint256",
          "name": "",
          "type": "uint256"
        }
      ],
      "stateMutability": "view",
      "type": "function"
    },
    {
      "inputs": [
        {
          "internalType": "uint256",
          "name": "",
          "type": "uint256"
        }
      ],
      "name": "alerts",
      "outputs": [
        {
          "internalType": "uint8",
          "name": "alertType",
          "type": "uint8"
        },
        {
          "internalType": "uint256",
          "name": "timestamp",
          "type": "uint256"
        },
        {
          "internalType": "string",
          "name": "region",
          "type": "string"
        },
        {
          "internalType": "uint256",
          "name": "recipientCount",
          "type": "uint256"
        }
      ],
      "stateMutability": "view",
      "type": "function"
    },
    {
      "inputs": [
        {
          "internalType": "address",
          "name": "user",
          "type": "address"
        },
        {
          "internalType": "uint256",
          "name": "amount",
          "type": "uint256"
        }
      ],
      "name": "checkAllowance",
      "outputs": [
        {
          "internalType": "bool",
          "name": "hasAllowance",
          "type": "bool"
        },
        {
          "internalType": "uint256",
          "name": "currentAllowance",
          "type": "uint256"
        },
        {
          "internalType": "uint256",
          "name": "required",
          "type": "uint256"
        }
      ],
      "stateMutability": "view",
      "type": "function"
    },
    {
      "inputs": [],
      "name": "getPlatformStats",
      "outputs": [
        {
          "internalType": "uint256",
          "name": "_totalStaked",
          "type": "uint256"
        },
        {
          "internalType": "uint256",
          "name": "_totalUsers",
          "type": "uint256"
        },
        {
          "internalType": "uint256",
          "name": "_totalAlertsSent",
          "type": "uint256"
        },
        {
          "internalType": "uint256",
          "name": "_alertCount",
          "type": "uint256"
        }
      ],
      "stateMutability": "view",
      "type": "function"
    },
    {
      "inputs": [
        {
          "internalType": "bytes32",
          "name": "role",
          "type": "bytes32"
        }
      ],
      "name": "getRoleAdmin",
      "outputs": [
        {
          "internalType": "bytes32",
          "name": "",
          "type": "bytes32"
        }
      ],
      "stateMutability": "view",
      "type": "function"
    },
    {
      "inputs": [
        {
          "internalType": "address",
          "name": "user",
          "type": "address"
        }
      ],
      "name": "getStake",
      "outputs": [
        {
          "internalType": "uint256",
          "name": "amount",
          "type": "uint256"
        },
        {
          "internalType": "uint256",
          "name": "stakedAt",
          "type": "uint256"
        },
        {
          "internalType": "uint256",
          "name": "alertsReceived",
          "type": "uint256"
        },
        {
          "internalType": "uint256",
          "name": "totalBurned",
          "type": "uint256"
        },
        {
          "internalType": "bool",
          "name": "active",
          "type": "bool"
        }
      ],
      "stateMutability": "view",
      "type": "function"
    },
    {
      "inputs": [
        {
          "internalType": "bytes32",
          "name": "role",
          "type": "bytes32"
        },
        {
          "internalType": "address",
          "name": "account",
          "type": "address"
        }
      ],
      "name": "grantRole",
      "outputs": [],
      "stateMutability": "nonpayable",
      "type": "function"
    },
    {
      "inputs": [
        {
          "internalType": "bytes32",
          "name": "role",
          "type": "bytes32"
        },
        {
          "internalType": "address",
          "name": "account",
          "type": "address"
        }
      ],
      "name": "hasRole",
      "outputs": [
        {
          "internalType": "bool",
          "name": "",
          "type": "bool"
        }
      ],
      "stateMutability": "view",
      "type": "function"
    },
    {
      "inputs": [],
      "name": "kaiToken",
      "outputs": [
        {
          "internalType": "contract KAIToken",
          "name": "",
          "type": "address"
        }
      ],
      "stateMutability": "view",
      "type": "function"
    },
    {
      "inputs": [],
      "name": "pause",
      "outputs": [],
      "stateMutability": "nonpayable",
      "type": "function"
    },
    {
      "inputs": [],
      "name": "paused",
      "outputs": [
        {
          "internalType": "bool",
          "name": "",
          "type": "bool"
        }
      ],
      "stateMutability": "view",
      "type": "function"
    },
    {
      "inputs": [
        {
          "internalType": "bytes32",
          "name": "role",
          "type": "bytes32"
        },
        {
          "internalType": "address",
          "name": "callerConfirmation",
          "type": "address"
        }
      ],
      "name": "renounceRole",
      "outputs": [],
      "stateMutability": "nonpayable",
      "type": "function"
    },
    {
      "inputs": [
        {
          "internalType": "bytes32",
          "name": "role",
          "type": "bytes32"
        },
        {
          "internalType": "address",
          "name": "account",
          "type": "address"
        }
      ],
      "name": "revokeRole",
      "outputs": [],
      "stateMutability": "nonpayable",
      "type": "function"
    },
    {
      "inputs": [
        {
          "internalType": "uint8",
          "name": "alertType",
          "type": "uint8"
        },
        {
          "internalType": "string",
          "name": "region",
          "type": "string"
        },
        {
          "internalType": "address[]",
          "name": "recipients",
          "type": "address[]"
        }
      ],
      "name": "sendAlert",
      "outputs": [],
      "stateMutability": "nonpayable",
      "type": "function"
    },
    {
      "inputs": [
        {
          "internalType": "uint256",
          "name": "amount",
          "type": "uint256"
        }
      ],
      "name": "stake",
      "outputs": [],
      "stateMutability": "nonpayable",
      "type": "function"
    },
    {
      "inputs": [
        {
          "internalType": "address",
          "name": "",
          "type": "address"
        }
      ],
      "name": "stakes",
      "outputs": [
        {
          "internalType": "uint256",
          "name": "amount",
          "type": "uint256"
        },
        {
          "internalType": "uint256",
          "name": "stakedAt",
          "type": "uint256"
        },
        {
          "internalType": "uint256",
          "name": "alertsReceived",
          "type": "uint256"
        },
        {
          "internalType": "uint256",
          "name": "totalBurned",
          "type": "uint256"
        },
        {
          "internalType": "bool",
          "name": "active",
          "type": "bool"
        }
      ],
      "stateMutability": "view",
      "type": "function"
    },
    {
      "inputs": [
        {
          "internalType": "bytes4",
          "name": "interfaceId",
          "type": "bytes4"
        }
      ],
      "name": "supportsInterface",
      "outputs": [
        {
          "internalType": "bool",
          "name": "",
          "type": "bool"
        }
      ],
      "stateMutability": "view",
      "type": "function"
    },
    {
      "inputs": [],
      "name": "totalAlertsSent",
      "outputs": [
        {
          "internalType": "uint256",
          "name": "",
          "type": "uint256"
        }
      ],
      "stateMutability": "view",
      "type": "function"
    },
    {
      "inputs": [],
      "name": "totalStaked",
      "outputs": [
        {
          "internalType": "uint256",
          "name": "",
          "type": "uint256"
        }
      ],
      "stateMutability": "view",
      "type": "function"
    },
    {
      "inputs": [],
      "name": "totalUsers",
      "outputs": [
        {
          "internalType": "uint256",
          "name": "",
          "type": "uint256"
        }
      ],
      "stateMutability": "view",
      "type": "function"
    },
    {
      "inputs": [],
      "name": "unpause",
      "outputs": [],
      "stateMutability": "nonpayable",
      "type": "function"
    },
    {
      "inputs": [],
      "name": "unstake",
      "outputs": [],
      "stateMutability": "nonpayable",
      "type": "function"
    }
  ],
  "bytecode": "0x60a034620001be57601f62001bca38819003918201601f191683019291906001600160401b03841183851017620001c3578160609284926040968752833981010312620001be576200005181620001d9565b906200006d836200006560208401620001d9565b9201620001d9565b6001600055916001600160a01b039081169081156200017a57808316156200013657831615620000f257620000be9291620000b791608052620000b081620001ee565b506200026f565b5062000312565b50516117f99081620003b1823960805181818161027f015281816105d201528181610c1501528181610fe701526111770152f35b835162461bcd60e51b815260206004820152601c60248201527f436c696d6174655374616b653a20696e76616c6964206f7261636c65000000006044820152606490fd5b845162461bcd60e51b815260206004820152601b60248201527f436c696d6174655374616b653a20696e76616c69642061646d696e00000000006044820152606490fd5b845162461bcd60e51b815260206004820152601b60248201527f436c696d6174655374616b653a20696e76616c696420746f6b656e00000000006044820152606490fd5b600080fd5b634e487b7160e01b600052604160045260246000fd5b51906001600160a01b0382168203620001be57565b6001600160a01b031660008181527fa6eef7e35abe7026729641147f7915573c7e97b47efa546f5f6e3230263bcb49602052604081205490919060ff166200026b5781805260016020526040822081835260205260408220600160ff19825416179055339160008051602062001baa8339815191528180a4600190565b5090565b6001600160a01b031660008181527f50efbde2d46c37e9785f1791697f77e94bb7b701e19f1930a668820722d3769460205260408120549091907fa49807205ce4d355092ef5a8a18f56e8913cf4a201fbe287825b095693c217759060ff166200030d5780835260016020526040832082845260205260408320600160ff1982541617905560008051602062001baa833981519152339380a4600190565b505090565b6001600160a01b031660008181527ff7c11a6d0ec535894a90c88b42cba2ccb348cb15b5e3ad22a710d1d4ac63281960205260408120549091907f68e79a7bf1e0bc45d0a330c573bc367f9cf464fd326078812f301165fbda4ef19060ff166200030d5780835260016020526040832082845260205260408320600160ff1982541617905560008051602062001baa833981519152339380a460019056fe608080604052600436101561001357600080fd5b60003560e01c90816301ffc9a7146114945750806307e2cea514611459578063136d88831461142257806316934fc4146113a7578063171d073a14611264578063248a9ca3146112355780632def6620146110f55780632f2ff15d146110b657806336568abe1461106f5780633daba0d714610f8d5780633f4ba83a14610f235780635c975abb14610f005780636e05afd7146107d257806375b238fc146107975780637a766460146106c6578063817b1cd2146106a85780638456cb591461064e57806391d14854146106015780639bcfdfc0146105bc5780639cbabcf11461059f578063a217fddf14610583578063a694fc3a14610234578063ab44649114610216578063bff1f9e1146101f8578063cb1c2b5c146101d4578063d547741f14610193578063ecb334ab146101755763f3a14a8a1461015357600080fd5b346101705760003660031901126101705760206040516103e88152f35b600080fd5b34610170576000366003190112610170576020600554604051908152f35b34610170576040366003190112610170576101d26004356101b26114fd565b908060005260016020526101cd600160406000200154611688565b61172e565b005b3461017057600036600319011261017057602060405168056bc75e2d631000008152f35b34610170576000366003190112610170576020600654604051908152f35b34610170576000366003190112610170576020600854604051908152f35b34610170576020806003193601126101705760043590610252611609565b61025a6117a5565b68056bc75e2d63100000821061053f576040516370a0823160e01b81523360048201527f00000000000000000000000000000000000000000000000000000000000000006001600160a01b0316908281602481855afa801561041657849160009161050e575b50106104be57604051636eb1769f60e11b81523360048201523060248201528281604481855afa801561041657849160009161048d575b501061042257816000916064604051809481936323b872dd60e01b83523360048401523060248401528860448401525af1801561041657610340916000916103e9575b506115a1565b3360005260038152604060002054156103d6575b3360005260038152604060002061036c8382546115fc565b905533600052600381526004604060002042600182015501600160ff1982541617905561039b826004546115fc565b60045560405191825242908201527f1449c6dd7851abc30abf37f57715f492010519147cc2652fbc38202c18a6ee9060403392a26001600055005b6103e16006546115ed565b600655610354565b6104099150833d851161040f575b610401818361154d565b810190611589565b8461033a565b503d6103f7565b6040513d6000823e3d90fd5b60405162461bcd60e51b815260048101839052603a60248201527f436c696d6174655374616b653a20696e73756666696369656e7420616c6c6f7760448201527f616e63652e2043616c6c20617070726f766528292066697273740000000000006064820152608490fd5b809250848092503d83116104b7575b6104a6818361154d565b8101031261017057839051856102f7565b503d61049c565b60405162461bcd60e51b815260048101839052602260248201527f436c696d6174655374616b653a20696e73756666696369656e742062616c616e604482015261636560f01b6064820152608490fd5b809250848092503d8311610538575b610527818361154d565b8101031261017057839051856102c0565b503d61051d565b6064906040519062461bcd60e51b82526004820152601b60248201527f436c696d6174655374616b653a2062656c6f77206d696e696d756d00000000006044820152fd5b3461017057600036600319011261017057602060405160008152f35b346101705760003660031901126101705760206040516101f48152f35b34610170576000366003190112610170576040517f00000000000000000000000000000000000000000000000000000000000000006001600160a01b03168152602090f35b346101705760403660031901126101705761061a6114fd565b600435600052600160205260406000209060018060a01b0316600052602052602060ff604060002054166040519015158152f35b346101705760003660031901126101705761066761162c565b61066f6117a5565b600160ff1960025416176002557f62e78cea01bee320cd4e420270b5ea74000d11b0c9f74754ebdbfc544b05a2586020604051338152a1005b34610170576000366003190112610170576020600454604051908152f35b34610170576020366003190112610170576001600160a01b036106e76114e7565b16600052600360205260406000206040519060a0820182811067ffffffffffffffff8211176107815760405261077d608082549283855260018101549485602082015260028201549081604082015260ff6004600385015494856060850152015416151593849101526040519586958693909594919260809360a086019786526020860152604085015260608401521515910152565b0390f35b634e487b7160e01b600052604160045260246000fd5b346101705760003660031901126101705760206040517fa49807205ce4d355092ef5a8a18f56e8913cf4a201fbe287825b095693c217758152f35b346101705760603660031901126101705760043560ff811681036101705760243567ffffffffffffffff811161017057366023820112156101705767ffffffffffffffff816004013511610170573660248260040135830101116101705767ffffffffffffffff60443511610170573660236044350112156101705767ffffffffffffffff6044356004013511610170573660246044356004013560051b604435010111610170573360009081527ff7c11a6d0ec535894a90c88b42cba2ccb348cb15b5e3ad22a710d1d4ac63281960205260409020547f68e79a7bf1e0bc45d0a330c573bc367f9cf464fd326078812f301165fbda4ef19060ff1615610ee257506108dc6117a5565b600160ff8316101580610ed4575b15610e8f576044356004013515610e4a576101f46044356004013511610dea5760008060005b604435600401358110610b9b57506040516080810181811067ffffffffffffffff8211176107815760405260ff85168152426020820152604051906109636020601f19601f88600401350116018361154d565b60048501358083526024860160208401376000602086600401358401015260408101918252826060820152600854600052600760205260406000209160ff82511660ff19845416178355602082015160018401555180519067ffffffffffffffff8211610781576109d76002850154611513565b601f8111610b54575b50602090601f8311600114610ae057918060039492606094600092610ad5575b50508160011b9160001990861b1c19161760028501555b0151910155610a28816005546115fc565b600555610a366008546115ed565b93846008556000198501948511610abf577fa23ea32330368114b86786298ce9d2afa75c11e1ce45365e0fd7a10b5c2c18ef9360ff9360a09360405195869416845260806020850152826004013560808501528260040135602484018686013760008584600401358601015260408401526060830152601f8019916004013501168101030190a2005b634e487b7160e01b600052601160045260246000fd5b015190508a80610a00565b906002850160005260206000209160005b601f1985168110610b3c5750926003949260019260609583601f19811610610b24575b505050811b016002850155610a17565b015160001983881b60f8161c191690558a8080610b14565b91926020600181928685015181550194019201610af1565b600285016000526020600020601f840160051c810160208510610b94575b601f830160051c82018110610b885750506109e0565b60008155600101610b72565b5080610b72565b604435600582901b01602401356001600160a01b0381168103610170576001600160a01b0381166000908152600360205260409020600481015460ff1680610de0575b610bed575b5050600101610910565b80949291939454926103e893848102948186041481151715610abf57612710850411610d9c577f00000000000000000000000000000000000000000000000000000000000000006001600160a01b0316803b15610170576000809160a4604051809481936316ff1ff760e01b83526127108b0460048401526006602484015260606044840152601760648401527f436c696d61746520616c6572742074726967676572656400000000000000000060848401525af1801561041657610d77575b5068056bc75e2d6310000090847f6be02ea772919d89a04060dea29d8344f266e9dec27843a643fa74dd8239131c6040610d2e610d28610cf461271060019b04895461156f565b9586895560028901610d0681546115ed565b905560038901610d1b612710880482546115fc565b90556127108604906115fc565b9a6115ed565b986008546127108351950485526020850152888060a01b031692a210610d57575b819250610be3565b600401805460ff19169055600654610d6e9061157c565b60065586610d4f565b9067ffffffffffffffff82116107815760409190915268056bc75e2d63100000610cad565b606460405162461bcd60e51b815260206004820152602060248201527f436c696d6174655374616b653a206275726e2065786365656473207374616b656044820152fd5b5080541515610bde565b60405162461bcd60e51b815260206004820152603260248201527f436c696d6174655374616b653a20746f6f206d616e7920726563697069656e746044820152717320286d617820353030207065722074782960701b6064820152608490fd5b60405162461bcd60e51b815260206004820152601b60248201527f436c696d6174655374616b653a206e6f20726563697069656e747300000000006044820152606490fd5b60405162461bcd60e51b815260206004820152601a60248201527f436c696d6174655374616b653a20696e76616c696420747970650000000000006044820152606490fd5b50600a60ff831611156108ea565b6044906040519063e2517d3f60e01b82523360048301526024820152fd5b3461017057600036600319011261017057602060ff600254166040519015158152f35b3461017057600036600319011261017057610f3c61162c565b60025460ff811615610f7b5760ff19166002557f5db9ee0a495bf2e6ff9c91a7834c1ba4fdd244a5e8aa4e537bd38aeae4b073aa6020604051338152a1005b604051638dfc202b60e01b8152600490fd5b3461017057604036600319011261017057610fe3610fa96114e7565b604051636eb1769f60e11b81526001600160a01b039091166004820152306024828101919091529091903590602090839081906044820190565b03817f00000000000000000000000000000000000000000000000000000000000000006001600160a01b03165afa9081156104165760009161103a575b606092506040519181811015835260208301526040820152f35b90506020823d602011611067575b816110556020938361154d565b81010312610170576060915190611020565b3d9150611048565b34610170576040366003190112610170576110886114fd565b336001600160a01b038216036110a4576101d29060043561172e565b60405163334bd91960e11b8152600490fd5b34610170576040366003190112610170576101d26004356110d56114fd565b908060005260016020526110f0600160406000200154611688565b6116ae565b346101705760003660031901126101705761110e611609565b3360005260206003815260406000209081549182156111f057806000600492550160ff1981541690556111438260045461156f565b60045561115160065461157c565b60065560405163a9059cbb60e01b815233600482015260248101839052818160448160007f00000000000000000000000000000000000000000000000000000000000000006001600160a01b03165af18015610416576111b8916000916103e957506115a1565b60405191825242908201527f7fc4727e062e336010f2c282598ef5f14facb3de68cf8195c2f23e1454b2b74e60403392a26001600055005b60405162461bcd60e51b815260048101839052601c60248201527f436c696d6174655374616b653a206e6f207374616b6520666f756e64000000006044820152606490fd5b346101705760203660031901126101705760043560005260016020526020600160406000200154604051908152f35b3461017057602080600319360112610170576004356000526007815260406000209060ff82541691600191600182015491600281016040519485916000918154916112ae83611513565b928386528760018216918260001461138157505060011461133f575b505050600392916112df91979597038661154d565b01546040519485938452828401526080604084015283519182608085015260005b83811061132857505060a0935060008483850101526060830152601f80199101168101030190f35b80860182015187820160a001528694508101611300565b86935060009291925282600020916000925b82841061136957505050820101816112df60036112ca565b8054848b018601528995508794909301928101611351565b60ff19168782015293151560051b860190930193508492506112df9150600390506112ca565b34610170576020366003190112610170576001600160a01b036113c86114e7565b1660005260036020526040600020805461077d60018301549260028101549060ff6004600383015492015416916040519586958693909594919260809360a086019786526020860152604085015260608401521515910152565b3461017057600036600319011261017057608060045460065460055460085491604051938452602084015260408301526060820152f35b346101705760003660031901126101705760206040517f68e79a7bf1e0bc45d0a330c573bc367f9cf464fd326078812f301165fbda4ef18152f35b34610170576020366003190112610170576004359063ffffffff60e01b821680920361017057602091637965db0b60e01b81149081156114d6575b5015158152f35b6301ffc9a760e01b149050836114cf565b600435906001600160a01b038216820361017057565b602435906001600160a01b038216820361017057565b90600182811c92168015611543575b602083101461152d57565b634e487b7160e01b600052602260045260246000fd5b91607f1691611522565b90601f8019910116810190811067ffffffffffffffff82111761078157604052565b91908203918211610abf57565b8015610abf576000190190565b90816020910312610170575180151581036101705790565b156115a857565b60405162461bcd60e51b815260206004820152601d60248201527f436c696d6174655374616b653a207472616e73666572206661696c65640000006044820152606490fd5b6000198114610abf5760010190565b91908201809211610abf57565b60026000541461161a576002600055565b604051633ee5aeb560e01b8152600490fd5b3360009081527f50efbde2d46c37e9785f1791697f77e94bb7b701e19f1930a668820722d3769460205260409020547fa49807205ce4d355092ef5a8a18f56e8913cf4a201fbe287825b095693c217759060ff1615610ee25750565b80600052600160205260406000203360005260205260ff6040600020541615610ee25750565b906000918083526001602052604083209160018060a01b03169182845260205260ff604084205416156000146117295780835260016020526040832082845260205260408320600160ff198254161790557f2f8788117e7eff1d82e926ec794901d17c78024a50270940304540a733656f0d339380a4600190565b505090565b906000918083526001602052604083209160018060a01b03169182845260205260ff604084205416600014611729578083526001602052604083208284526020526040832060ff1981541690557ff6391f5c32d9c69d2a47ea670b442974b53935d1edc7fd64eb21e047a839171b339380a4600190565b60ff600254166117b157565b60405163d93c066560e01b8152600490fdfea2646970667358221220de42172f7a2b957ab72442f6102d393db8fbac885a56d819f6fea0f6933cabf064736f6c634300081600332f8788117e7eff1d82e926ec794901d17c78024a50270940304540a733656f0d",
  "linkReferences": {},
  "deployedLinkReferences": {}
}